{
	"contracts/PropertyTrade.sol": {
		"PropertyManagment": {
			"abi": [
				{
					"inputs": [],
					"stateMutability": "nonpayable",
					"type": "constructor"
				},
				{
					"inputs": [
						{
							"internalType": "uint256",
							"name": "requestIndex",
							"type": "uint256"
						}
					],
					"name": "approveEarlyTermination",
					"outputs": [],
					"stateMutability": "nonpayable",
					"type": "function"
				},
				{
					"inputs": [
						{
							"internalType": "uint256",
							"name": "",
							"type": "uint256"
						}
					],
					"name": "complains",
					"outputs": [
						{
							"internalType": "address",
							"name": "user",
							"type": "address"
						},
						{
							"internalType": "int256",
							"name": "rentalId",
							"type": "int256"
						},
						{
							"internalType": "string",
							"name": "text",
							"type": "string"
						},
						{
							"internalType": "string",
							"name": "reply",
							"type": "string"
						}
					],
					"stateMutability": "view",
					"type": "function"
				},
				{
					"inputs": [
						{
							"internalType": "string",
							"name": "name",
							"type": "string"
						},
						{
							"internalType": "string",
							"name": "description",
							"type": "string"
						}
					],
					"name": "createProperty",
					"outputs": [],
					"stateMutability": "nonpayable",
					"type": "function"
				},
				{
					"inputs": [
						{
							"internalType": "int256",
							"name": "rentalId",
							"type": "int256"
						},
						{
							"internalType": "address",
							"name": "tenant",
							"type": "address"
						},
						{
							"internalType": "uint256",
							"name": "startDate",
							"type": "uint256"
						},
						{
							"internalType": "uint256",
							"name": "endDate",
							"type": "uint256"
						}
					],
					"name": "createRent",
					"outputs": [],
					"stateMutability": "nonpayable",
					"type": "function"
				},
				{
					"inputs": [
						{
							"internalType": "string",
							"name": "name",
							"type": "string"
						},
						{
							"internalType": "bool",
							"name": "_isTenant",
							"type": "bool"
						},
						{
							"internalType": "bool",
							"name": "_isLandlord",
							"type": "bool"
						}
					],
					"name": "createUser",
					"outputs": [],
					"stateMutability": "nonpayable",
					"type": "function"
				},
				{
					"inputs": [
						{
							"internalType": "uint256",
							"name": "",
							"type": "uint256"
						}
					],
					"name": "earlyTerminationRequests",
					"outputs": [
						{
							"internalType": "address",
							"name": "tenant",
							"type": "address"
						},
						{
							"internalType": "int256",
							"name": "rentalId",
							"type": "int256"
						},
						{
							"internalType": "uint256",
							"name": "requestTime",
							"type": "uint256"
						},
						{
							"internalType": "bool",
							"name": "isApproved",
							"type": "bool"
						}
					],
					"stateMutability": "view",
					"type": "function"
				},
				{
					"inputs": [],
					"name": "getLandlordComplaints",
					"outputs": [
						{
							"internalType": "int256[]",
							"name": "",
							"type": "int256[]"
						},
						{
							"internalType": "string[]",
							"name": "",
							"type": "string[]"
						},
						{
							"internalType": "string[]",
							"name": "",
							"type": "string[]"
						}
					],
					"stateMutability": "view",
					"type": "function"
				},
				{
					"inputs": [
						{
							"internalType": "int256",
							"name": "id",
							"type": "int256"
						}
					],
					"name": "getProperties",
					"outputs": [
						{
							"internalType": "int256[]",
							"name": "",
							"type": "int256[]"
						},
						{
							"internalType": "string[]",
							"name": "",
							"type": "string[]"
						},
						{
							"internalType": "string[]",
							"name": "",
							"type": "string[]"
						},
						{
							"internalType": "address[]",
							"name": "",
							"type": "address[]"
						}
					],
					"stateMutability": "view",
					"type": "function"
				},
				{
					"inputs": [],
					"name": "getTenantsComplains",
					"outputs": [
						{
							"internalType": "int256[]",
							"name": "",
							"type": "int256[]"
						},
						{
							"internalType": "string[]",
							"name": "",
							"type": "string[]"
						},
						{
							"internalType": "string[]",
							"name": "",
							"type": "string[]"
						},
						{
							"internalType": "string[]",
							"name": "",
							"type": "string[]"
						}
					],
					"stateMutability": "view",
					"type": "function"
				},
				{
					"inputs": [],
					"name": "landlordCount",
					"outputs": [
						{
							"internalType": "uint256",
							"name": "",
							"type": "uint256"
						}
					],
					"stateMutability": "view",
					"type": "function"
				},
				{
					"inputs": [
						{
							"internalType": "int256",
							"name": "rentalId",
							"type": "int256"
						},
						{
							"internalType": "string",
							"name": "text",
							"type": "string"
						}
					],
					"name": "makeComplain",
					"outputs": [],
					"stateMutability": "nonpayable",
					"type": "function"
				},
				{
					"inputs": [
						{
							"internalType": "int256",
							"name": "",
							"type": "int256"
						}
					],
					"name": "properties",
					"outputs": [
						{
							"internalType": "int256",
							"name": "id",
							"type": "int256"
						},
						{
							"internalType": "string",
							"name": "location",
							"type": "string"
						},
						{
							"internalType": "string",
							"name": "description",
							"type": "string"
						},
						{
							"internalType": "address",
							"name": "owner",
							"type": "address"
						},
						{
							"internalType": "bool",
							"name": "isRented",
							"type": "bool"
						},
						{
							"internalType": "address",
							"name": "tenant",
							"type": "address"
						}
					],
					"stateMutability": "view",
					"type": "function"
				},
				{
					"inputs": [],
					"name": "propertyIdCounter",
					"outputs": [
						{
							"internalType": "int256",
							"name": "",
							"type": "int256"
						}
					],
					"stateMutability": "view",
					"type": "function"
				},
				{
					"inputs": [],
					"name": "rentedProperties",
					"outputs": [
						{
							"internalType": "address[]",
							"name": "",
							"type": "address[]"
						}
					],
					"stateMutability": "view",
					"type": "function"
				},
				{
					"inputs": [
						{
							"internalType": "uint256",
							"name": "",
							"type": "uint256"
						}
					],
					"name": "rents",
					"outputs": [
						{
							"internalType": "int256",
							"name": "rentalId",
							"type": "int256"
						},
						{
							"internalType": "address",
							"name": "tenant",
							"type": "address"
						},
						{
							"internalType": "uint256",
							"name": "startDate",
							"type": "uint256"
						},
						{
							"internalType": "uint256",
							"name": "endDate",
							"type": "uint256"
						}
					],
					"stateMutability": "view",
					"type": "function"
				},
				{
					"inputs": [
						{
							"internalType": "uint256",
							"name": "complainIndex",
							"type": "uint256"
						},
						{
							"internalType": "string",
							"name": "reply",
							"type": "string"
						}
					],
					"name": "replyTheComplain",
					"outputs": [],
					"stateMutability": "nonpayable",
					"type": "function"
				},
				{
					"inputs": [
						{
							"internalType": "int256",
							"name": "rentalId",
							"type": "int256"
						}
					],
					"name": "requestEarlyTermination",
					"outputs": [],
					"stateMutability": "nonpayable",
					"type": "function"
				},
				{
					"inputs": [],
					"name": "tenantCount",
					"outputs": [
						{
							"internalType": "uint256",
							"name": "",
							"type": "uint256"
						}
					],
					"stateMutability": "view",
					"type": "function"
				},
				{
					"inputs": [
						{
							"internalType": "int256",
							"name": "rentalId",
							"type": "int256"
						},
						{
							"internalType": "address",
							"name": "tenant",
							"type": "address"
						}
					],
					"name": "terminateRent",
					"outputs": [],
					"stateMutability": "nonpayable",
					"type": "function"
				},
				{
					"inputs": [
						{
							"internalType": "uint256",
							"name": "",
							"type": "uint256"
						}
					],
					"name": "userList",
					"outputs": [
						{
							"internalType": "address",
							"name": "",
							"type": "address"
						}
					],
					"stateMutability": "view",
					"type": "function"
				},
				{
					"inputs": [
						{
							"internalType": "address",
							"name": "",
							"type": "address"
						}
					],
					"name": "users",
					"outputs": [
						{
							"internalType": "bool",
							"name": "isTenant",
							"type": "bool"
						},
						{
							"internalType": "bool",
							"name": "isLandlord",
							"type": "bool"
						},
						{
							"internalType": "string",
							"name": "name",
							"type": "string"
						}
					],
					"stateMutability": "view",
					"type": "function"
				}
			],
			"devdoc": {
				"kind": "dev",
				"methods": {},
				"version": 1
			},
			"evm": {
				"assembly": "    /* \"contracts/PropertyTrade.sol\":60:7452  contract PropertyManagment {... */\n  mstore(0x40, 0x80)\n    /* \"contracts/PropertyTrade.sol\":1114:1167  constructor(){... */\n  callvalue\n  dup1\n  iszero\n  tag_1\n  jumpi\n  0x00\n  dup1\n  revert\ntag_1:\n  pop\n    /* \"contracts/PropertyTrade.sol\":1158:1159  0 */\n  0x00\n    /* \"contracts/PropertyTrade.sol\":1138:1155  propertyIdCounter */\n  0x03\n    /* \"contracts/PropertyTrade.sol\":1138:1159  propertyIdCounter = 0 */\n  dup2\n  swap1\n  sstore\n  pop\n    /* \"contracts/PropertyTrade.sol\":60:7452  contract PropertyManagment {... */\n  dataSize(sub_0)\n  dup1\n  dataOffset(sub_0)\n  0x00\n  codecopy\n  0x00\n  return\nstop\n\nsub_0: assembly {\n        /* \"contracts/PropertyTrade.sol\":60:7452  contract PropertyManagment {... */\n      mstore(0x40, 0x80)\n      callvalue\n      dup1\n      iszero\n      tag_1\n      jumpi\n      0x00\n      dup1\n      revert\n    tag_1:\n      pop\n      jumpi(tag_2, lt(calldatasize, 0x04))\n      shr(0xe0, calldataload(0x00))\n      dup1\n      0x4ea30b2f\n      gt\n      tag_24\n      jumpi\n      dup1\n      0xa87430ba\n      gt\n      tag_25\n      jumpi\n      dup1\n      0xa87430ba\n      eq\n      tag_18\n      jumpi\n      dup1\n      0xac00eedc\n      eq\n      tag_19\n      jumpi\n      dup1\n      0xae23d553\n      eq\n      tag_20\n      jumpi\n      dup1\n      0xcad140cf\n      eq\n      tag_21\n      jumpi\n      dup1\n      0xe4236d13\n      eq\n      tag_22\n      jumpi\n      dup1\n      0xfb1899ab\n      eq\n      tag_23\n      jumpi\n      jump(tag_2)\n    tag_25:\n      dup1\n      0x4ea30b2f\n      eq\n      tag_13\n      jumpi\n      dup1\n      0x63575877\n      eq\n      tag_14\n      jumpi\n      dup1\n      0x70acd52a\n      eq\n      tag_15\n      jumpi\n      dup1\n      0x9f4216e8\n      eq\n      tag_16\n      jumpi\n      dup1\n      0xa05d098c\n      eq\n      tag_17\n      jumpi\n      jump(tag_2)\n    tag_24:\n      dup1\n      0x13704eaf\n      gt\n      tag_26\n      jumpi\n      dup1\n      0x13704eaf\n      eq\n      tag_8\n      jumpi\n      dup1\n      0x16ef034c\n      eq\n      tag_9\n      jumpi\n      dup1\n      0x3317e396\n      eq\n      tag_10\n      jumpi\n      dup1\n      0x33625e78\n      eq\n      tag_11\n      jumpi\n      dup1\n      0x35bdd1ee\n      eq\n      tag_12\n      jumpi\n      jump(tag_2)\n    tag_26:\n      dup1\n      0xd89033\n      eq\n      tag_3\n      jumpi\n      dup1\n      0x06552091\n      eq\n      tag_4\n      jumpi\n      dup1\n      0x06e72313\n      eq\n      tag_5\n      jumpi\n      dup1\n      0x07460b66\n      eq\n      tag_6\n      jumpi\n      dup1\n      0x1307430a\n      eq\n      tag_7\n      jumpi\n    tag_2:\n      0x00\n      dup1\n      revert\n        /* \"contracts/PropertyTrade.sol\":892:920  int public propertyIdCounter */\n    tag_3:\n      tag_27\n      tag_28\n      jump\t// in\n    tag_27:\n      mload(0x40)\n      tag_29\n      swap2\n      swap1\n      tag_30\n      jump\t// in\n    tag_29:\n      mload(0x40)\n      dup1\n      swap2\n      sub\n      swap1\n      return\n        /* \"contracts/PropertyTrade.sol\":960:988  uint256 public landlordCount */\n    tag_4:\n      tag_31\n      tag_32\n      jump\t// in\n    tag_31:\n      mload(0x40)\n      tag_33\n      swap2\n      swap1\n      tag_34\n      jump\t// in\n    tag_33:\n      mload(0x40)\n      dup1\n      swap2\n      sub\n      swap1\n      return\n        /* \"contracts/PropertyTrade.sol\":2562:2901  function makeComplain(int rentalId, string memory text)public {... */\n    tag_5:\n      tag_35\n      0x04\n      dup1\n      calldatasize\n      sub\n      dup2\n      add\n      swap1\n      tag_36\n      swap2\n      swap1\n      tag_37\n      jump\t// in\n    tag_36:\n      tag_38\n      jump\t// in\n    tag_35:\n      stop\n        /* \"contracts/PropertyTrade.sol\":1480:1808  function createProperty(string memory name, string memory description)public {... */\n    tag_6:\n      tag_39\n      0x04\n      dup1\n      calldatasize\n      sub\n      dup2\n      add\n      swap1\n      tag_40\n      swap2\n      swap1\n      tag_41\n      jump\t// in\n    tag_40:\n      tag_42\n      jump\t// in\n    tag_39:\n      stop\n        /* \"contracts/PropertyTrade.sol\":927:953  uint256 public tenantCount */\n    tag_7:\n      tag_43\n      tag_44\n      jump\t// in\n    tag_43:\n      mload(0x40)\n      tag_45\n      swap2\n      swap1\n      tag_34\n      jump\t// in\n    tag_45:\n      mload(0x40)\n      dup1\n      swap2\n      sub\n      swap1\n      return\n        /* \"contracts/PropertyTrade.sol\":3397:4320  function getTenantsComplains()public view returns (int[] memory, string[] memory, string[] memory, string[] memory){... */\n    tag_8:\n      tag_46\n      tag_47\n      jump\t// in\n    tag_46:\n      mload(0x40)\n      tag_48\n      swap5\n      swap4\n      swap3\n      swap2\n      swap1\n      tag_49\n      jump\t// in\n    tag_48:\n      mload(0x40)\n      dup1\n      swap2\n      sub\n      swap1\n      return\n        /* \"contracts/PropertyTrade.sol\":1175:1468  function createUser(string memory name, bool _isTenant, bool _isLandlord) public {... */\n    tag_9:\n      tag_50\n      0x04\n      dup1\n      calldatasize\n      sub\n      dup2\n      add\n      swap1\n      tag_51\n      swap2\n      swap1\n      tag_52\n      jump\t// in\n    tag_51:\n      tag_53\n      jump\t// in\n    tag_50:\n      stop\n        /* \"contracts/PropertyTrade.sol\":6244:6838  function requestEarlyTermination(int rentalId) public {... */\n    tag_10:\n      tag_54\n      0x04\n      dup1\n      calldatasize\n      sub\n      dup2\n      add\n      swap1\n      tag_55\n      swap2\n      swap1\n      tag_56\n      jump\t// in\n    tag_55:\n      tag_57\n      jump\t// in\n    tag_54:\n      stop\n        /* \"contracts/PropertyTrade.sol\":4330:5032  function getLandlordComplaints() public view returns (int[] memory, string[] memory, string[] memory) {... */\n    tag_11:\n      tag_58\n      tag_59\n      jump\t// in\n    tag_58:\n      mload(0x40)\n      tag_60\n      swap4\n      swap3\n      swap2\n      swap1\n      tag_61\n      jump\t// in\n    tag_60:\n      mload(0x40)\n      dup1\n      swap2\n      sub\n      swap1\n      return\n        /* \"contracts/PropertyTrade.sol\":1818:2226  function createRent(int rentalId, address tenant , uint256 startDate,  uint256 endDate)public {... */\n    tag_12:\n      tag_62\n      0x04\n      dup1\n      calldatasize\n      sub\n      dup2\n      add\n      swap1\n      tag_63\n      swap2\n      swap1\n      tag_64\n      jump\t// in\n    tag_63:\n      tag_65\n      jump\t// in\n    tag_62:\n      stop\n        /* \"contracts/PropertyTrade.sol\":1021:1048  Complain[] public complains */\n    tag_13:\n      tag_66\n      0x04\n      dup1\n      calldatasize\n      sub\n      dup2\n      add\n      swap1\n      tag_67\n      swap2\n      swap1\n      tag_68\n      jump\t// in\n    tag_67:\n      tag_69\n      jump\t// in\n    tag_66:\n      mload(0x40)\n      tag_70\n      swap5\n      swap4\n      swap3\n      swap2\n      swap1\n      tag_71\n      jump\t// in\n    tag_70:\n      mload(0x40)\n      dup1\n      swap2\n      sub\n      swap1\n      return\n        /* \"contracts/PropertyTrade.sol\":1055:1105  EarlyTermination[] public earlyTerminationRequests */\n    tag_14:\n      tag_72\n      0x04\n      dup1\n      calldatasize\n      sub\n      dup2\n      add\n      swap1\n      tag_73\n      swap2\n      swap1\n      tag_68\n      jump\t// in\n    tag_73:\n      tag_74\n      jump\t// in\n    tag_72:\n      mload(0x40)\n      tag_75\n      swap5\n      swap4\n      swap3\n      swap2\n      swap1\n      tag_76\n      jump\t// in\n    tag_75:\n      mload(0x40)\n      dup1\n      swap2\n      sub\n      swap1\n      return\n        /* \"contracts/PropertyTrade.sol\":809:851  mapping(int => Property) public properties */\n    tag_15:\n      tag_77\n      0x04\n      dup1\n      calldatasize\n      sub\n      dup2\n      add\n      swap1\n      tag_78\n      swap2\n      swap1\n      tag_56\n      jump\t// in\n    tag_78:\n      tag_79\n      jump\t// in\n    tag_77:\n      mload(0x40)\n      tag_80\n      swap7\n      swap6\n      swap5\n      swap4\n      swap3\n      swap2\n      swap1\n      tag_81\n      jump\t// in\n    tag_80:\n      mload(0x40)\n      dup1\n      swap2\n      sub\n      swap1\n      return\n        /* \"contracts/PropertyTrade.sol\":860:885  address[] public userList */\n    tag_16:\n      tag_82\n      0x04\n      dup1\n      calldatasize\n      sub\n      dup2\n      add\n      swap1\n      tag_83\n      swap2\n      swap1\n      tag_68\n      jump\t// in\n    tag_83:\n      tag_84\n      jump\t// in\n    tag_82:\n      mload(0x40)\n      tag_85\n      swap2\n      swap1\n      tag_86\n      jump\t// in\n    tag_85:\n      mload(0x40)\n      dup1\n      swap2\n      sub\n      swap1\n      return\n        /* \"contracts/PropertyTrade.sol\":995:1014  Rent[] public rents */\n    tag_17:\n      tag_87\n      0x04\n      dup1\n      calldatasize\n      sub\n      dup2\n      add\n      swap1\n      tag_88\n      swap2\n      swap1\n      tag_68\n      jump\t// in\n    tag_88:\n      tag_89\n      jump\t// in\n    tag_87:\n      mload(0x40)\n      tag_90\n      swap5\n      swap4\n      swap3\n      swap2\n      swap1\n      tag_91\n      jump\t// in\n    tag_90:\n      mload(0x40)\n      dup1\n      swap2\n      sub\n      swap1\n      return\n        /* \"contracts/PropertyTrade.sol\":765:802  mapping(address => User) public users */\n    tag_18:\n      tag_92\n      0x04\n      dup1\n      calldatasize\n      sub\n      dup2\n      add\n      swap1\n      tag_93\n      swap2\n      swap1\n      tag_94\n      jump\t// in\n    tag_93:\n      tag_95\n      jump\t// in\n    tag_92:\n      mload(0x40)\n      tag_96\n      swap4\n      swap3\n      swap2\n      swap1\n      tag_97\n      jump\t// in\n    tag_96:\n      mload(0x40)\n      dup1\n      swap2\n      sub\n      swap1\n      return\n        /* \"contracts/PropertyTrade.sol\":2909:3389  function replyTheComplain(uint complainIndex , string memory reply)public{... */\n    tag_19:\n      tag_98\n      0x04\n      dup1\n      calldatasize\n      sub\n      dup2\n      add\n      swap1\n      tag_99\n      swap2\n      swap1\n      tag_100\n      jump\t// in\n    tag_99:\n      tag_101\n      jump\t// in\n    tag_98:\n      stop\n        /* \"contracts/PropertyTrade.sol\":6846:7447  function approveEarlyTermination(uint256 requestIndex) public {... */\n    tag_20:\n      tag_102\n      0x04\n      dup1\n      calldatasize\n      sub\n      dup2\n      add\n      swap1\n      tag_103\n      swap2\n      swap1\n      tag_68\n      jump\t// in\n    tag_103:\n      tag_104\n      jump\t// in\n    tag_102:\n      stop\n        /* \"contracts/PropertyTrade.sol\":5040:5732  function getProperties(int id) public view returns (int[] memory, string[] memory, string[] memory, address[] memory) {... */\n    tag_21:\n      tag_105\n      0x04\n      dup1\n      calldatasize\n      sub\n      dup2\n      add\n      swap1\n      tag_106\n      swap2\n      swap1\n      tag_56\n      jump\t// in\n    tag_106:\n      tag_107\n      jump\t// in\n    tag_105:\n      mload(0x40)\n      tag_108\n      swap5\n      swap4\n      swap3\n      swap2\n      swap1\n      tag_109\n      jump\t// in\n    tag_108:\n      mload(0x40)\n      dup1\n      swap2\n      sub\n      swap1\n      return\n        /* \"contracts/PropertyTrade.sol\":5740:6234  function terminateRent(int rentalId, address tenant) public {... */\n    tag_22:\n      tag_110\n      0x04\n      dup1\n      calldatasize\n      sub\n      dup2\n      add\n      swap1\n      tag_111\n      swap2\n      swap1\n      tag_112\n      jump\t// in\n    tag_111:\n      tag_113\n      jump\t// in\n    tag_110:\n      stop\n        /* \"contracts/PropertyTrade.sol\":2234:2554  function rentedProperties() public view  returns(address[]memory){... */\n    tag_23:\n      tag_114\n      tag_115\n      jump\t// in\n    tag_114:\n      mload(0x40)\n      tag_116\n      swap2\n      swap1\n      tag_117\n      jump\t// in\n    tag_116:\n      mload(0x40)\n      dup1\n      swap2\n      sub\n      swap1\n      return\n        /* \"contracts/PropertyTrade.sol\":892:920  int public propertyIdCounter */\n    tag_28:\n      sload(0x03)\n      dup2\n      jump\t// out\n        /* \"contracts/PropertyTrade.sol\":960:988  uint256 public landlordCount */\n    tag_32:\n      sload(0x05)\n      dup2\n      jump\t// out\n        /* \"contracts/PropertyTrade.sol\":2562:2901  function makeComplain(int rentalId, string memory text)public {... */\n    tag_38:\n        /* \"contracts/PropertyTrade.sol\":2643:2648  users */\n      0x00\n        /* \"contracts/PropertyTrade.sol\":2643:2660  users[msg.sender] */\n      dup1\n        /* \"contracts/PropertyTrade.sol\":2649:2659  msg.sender */\n      caller\n        /* \"contracts/PropertyTrade.sol\":2643:2660  users[msg.sender] */\n      0xffffffffffffffffffffffffffffffffffffffff\n      and\n      0xffffffffffffffffffffffffffffffffffffffff\n      and\n      dup2\n      mstore\n      0x20\n      add\n      swap1\n      dup2\n      mstore\n      0x20\n      add\n      0x00\n      keccak256\n        /* \"contracts/PropertyTrade.sol\":2643:2669  users[msg.sender].isTenant */\n      0x00\n      add\n      0x00\n      swap1\n      sload\n      swap1\n      0x0100\n      exp\n      swap1\n      div\n      0xff\n      and\n        /* \"contracts/PropertyTrade.sol\":2635:2705  require(users[msg.sender].isTenant,\"only tenants can make a complain\") */\n      tag_119\n      jumpi\n      mload(0x40)\n      0x08c379a000000000000000000000000000000000000000000000000000000000\n      dup2\n      mstore\n      0x04\n      add\n      tag_120\n      swap1\n      tag_121\n      jump\t// in\n    tag_120:\n      mload(0x40)\n      dup1\n      swap2\n      sub\n      swap1\n      revert\n    tag_119:\n        /* \"contracts/PropertyTrade.sol\":2755:2765  msg.sender */\n      caller\n        /* \"contracts/PropertyTrade.sol\":2724:2765  properties[rentalId].tenant == msg.sender */\n      0xffffffffffffffffffffffffffffffffffffffff\n      and\n        /* \"contracts/PropertyTrade.sol\":2724:2734  properties */\n      0x01\n        /* \"contracts/PropertyTrade.sol\":2724:2744  properties[rentalId] */\n      0x00\n        /* \"contracts/PropertyTrade.sol\":2735:2743  rentalId */\n      dup5\n        /* \"contracts/PropertyTrade.sol\":2724:2744  properties[rentalId] */\n      dup2\n      mstore\n      0x20\n      add\n      swap1\n      dup2\n      mstore\n      0x20\n      add\n      0x00\n      keccak256\n        /* \"contracts/PropertyTrade.sol\":2724:2751  properties[rentalId].tenant */\n      0x04\n      add\n      0x00\n      swap1\n      sload\n      swap1\n      0x0100\n      exp\n      swap1\n      div\n      0xffffffffffffffffffffffffffffffffffffffff\n      and\n        /* \"contracts/PropertyTrade.sol\":2724:2765  properties[rentalId].tenant == msg.sender */\n      0xffffffffffffffffffffffffffffffffffffffff\n      and\n      eq\n        /* \"contracts/PropertyTrade.sol\":2716:2826  require(properties[rentalId].tenant == msg.sender,\"users can only complain about a their own rented property\") */\n      tag_122\n      jumpi\n      mload(0x40)\n      0x08c379a000000000000000000000000000000000000000000000000000000000\n      dup2\n      mstore\n      0x04\n      add\n      tag_123\n      swap1\n      tag_124\n      jump\t// in\n    tag_123:\n      mload(0x40)\n      dup1\n      swap2\n      sub\n      swap1\n      revert\n    tag_122:\n        /* \"contracts/PropertyTrade.sol\":2837:2846  complains */\n      0x07\n        /* \"contracts/PropertyTrade.sol\":2852:2892  Complain(msg.sender, rentalId, text, \"\") */\n      mload(0x40)\n      dup1\n      0x80\n      add\n      0x40\n      mstore\n      dup1\n        /* \"contracts/PropertyTrade.sol\":2861:2871  msg.sender */\n      caller\n        /* \"contracts/PropertyTrade.sol\":2852:2892  Complain(msg.sender, rentalId, text, \"\") */\n      0xffffffffffffffffffffffffffffffffffffffff\n      and\n      dup2\n      mstore\n      0x20\n      add\n        /* \"contracts/PropertyTrade.sol\":2873:2881  rentalId */\n      dup5\n        /* \"contracts/PropertyTrade.sol\":2852:2892  Complain(msg.sender, rentalId, text, \"\") */\n      dup2\n      mstore\n      0x20\n      add\n        /* \"contracts/PropertyTrade.sol\":2883:2887  text */\n      dup4\n        /* \"contracts/PropertyTrade.sol\":2852:2892  Complain(msg.sender, rentalId, text, \"\") */\n      dup2\n      mstore\n      0x20\n      add\n      mload(0x40)\n      dup1\n      0x20\n      add\n      0x40\n      mstore\n      dup1\n      0x00\n      dup2\n      mstore\n      pop\n      dup2\n      mstore\n      pop\n        /* \"contracts/PropertyTrade.sol\":2837:2893  complains.push(Complain(msg.sender, rentalId, text, \"\")) */\n      swap1\n      dup1\n      0x01\n      dup2\n      sload\n      add\n      dup1\n      dup3\n      sstore\n      dup1\n      swap2\n      pop\n      pop\n      0x01\n      swap1\n      sub\n      swap1\n      0x00\n      mstore\n      keccak256(0x00, 0x20)\n      swap1\n      0x04\n      mul\n      add\n      0x00\n      swap1\n      swap2\n      swap1\n      swap2\n      swap1\n      swap2\n      pop\n      0x00\n      dup3\n      add\n      mload\n      dup2\n      0x00\n      add\n      exp(0x0100, 0x00)\n      dup2\n      sload\n      dup2\n      0xffffffffffffffffffffffffffffffffffffffff\n      mul\n      not\n      and\n      swap1\n      dup4\n      0xffffffffffffffffffffffffffffffffffffffff\n      and\n      mul\n      or\n      swap1\n      sstore\n      pop\n      0x20\n      dup3\n      add\n      mload\n      dup2\n      0x01\n      add\n      sstore\n      0x40\n      dup3\n      add\n      mload\n      dup2\n      0x02\n      add\n      swap1\n      dup2\n      tag_126\n      swap2\n      swap1\n      tag_127\n      jump\t// in\n    tag_126:\n      pop\n      0x60\n      dup3\n      add\n      mload\n      dup2\n      0x03\n      add\n      swap1\n      dup2\n      tag_128\n      swap2\n      swap1\n      tag_127\n      jump\t// in\n    tag_128:\n      pop\n      pop\n      pop\n        /* \"contracts/PropertyTrade.sol\":2562:2901  function makeComplain(int rentalId, string memory text)public {... */\n      pop\n      pop\n      jump\t// out\n        /* \"contracts/PropertyTrade.sol\":1480:1808  function createProperty(string memory name, string memory description)public {... */\n    tag_42:\n        /* \"contracts/PropertyTrade.sol\":1576:1581  users */\n      0x00\n        /* \"contracts/PropertyTrade.sol\":1576:1593  users[msg.sender] */\n      dup1\n        /* \"contracts/PropertyTrade.sol\":1582:1592  msg.sender */\n      caller\n        /* \"contracts/PropertyTrade.sol\":1576:1593  users[msg.sender] */\n      0xffffffffffffffffffffffffffffffffffffffff\n      and\n      0xffffffffffffffffffffffffffffffffffffffff\n      and\n      dup2\n      mstore\n      0x20\n      add\n      swap1\n      dup2\n      mstore\n      0x20\n      add\n      0x00\n      keccak256\n        /* \"contracts/PropertyTrade.sol\":1576:1604  users[msg.sender].isLandlord */\n      0x00\n      add\n      0x01\n      swap1\n      sload\n      swap1\n      0x0100\n      exp\n      swap1\n      div\n      0xff\n      and\n        /* \"contracts/PropertyTrade.sol\":1568:1642  require(users[msg.sender].isLandlord,\"only Landlords can create property\") */\n      tag_130\n      jumpi\n      mload(0x40)\n      0x08c379a000000000000000000000000000000000000000000000000000000000\n      dup2\n      mstore\n      0x04\n      add\n      tag_131\n      swap1\n      tag_132\n      jump\t// in\n    tag_131:\n      mload(0x40)\n      dup1\n      swap2\n      sub\n      swap1\n      revert\n    tag_130:\n        /* \"contracts/PropertyTrade.sol\":1685:1759  Property(propertyIdCounter, name, description, msg.sender,true,address(0)) */\n      mload(0x40)\n      dup1\n      0xc0\n      add\n      0x40\n      mstore\n      dup1\n        /* \"contracts/PropertyTrade.sol\":1694:1711  propertyIdCounter */\n      sload(0x03)\n        /* \"contracts/PropertyTrade.sol\":1685:1759  Property(propertyIdCounter, name, description, msg.sender,true,address(0)) */\n      dup2\n      mstore\n      0x20\n      add\n        /* \"contracts/PropertyTrade.sol\":1713:1717  name */\n      dup4\n        /* \"contracts/PropertyTrade.sol\":1685:1759  Property(propertyIdCounter, name, description, msg.sender,true,address(0)) */\n      dup2\n      mstore\n      0x20\n      add\n        /* \"contracts/PropertyTrade.sol\":1719:1730  description */\n      dup3\n        /* \"contracts/PropertyTrade.sol\":1685:1759  Property(propertyIdCounter, name, description, msg.sender,true,address(0)) */\n      dup2\n      mstore\n      0x20\n      add\n        /* \"contracts/PropertyTrade.sol\":1732:1742  msg.sender */\n      caller\n        /* \"contracts/PropertyTrade.sol\":1685:1759  Property(propertyIdCounter, name, description, msg.sender,true,address(0)) */\n      0xffffffffffffffffffffffffffffffffffffffff\n      and\n      dup2\n      mstore\n      0x20\n      add\n        /* \"contracts/PropertyTrade.sol\":1743:1747  true */\n      0x01\n        /* \"contracts/PropertyTrade.sol\":1685:1759  Property(propertyIdCounter, name, description, msg.sender,true,address(0)) */\n      iszero\n      iszero\n      dup2\n      mstore\n      0x20\n      add\n        /* \"contracts/PropertyTrade.sol\":1756:1757  0 */\n      0x00\n        /* \"contracts/PropertyTrade.sol\":1685:1759  Property(propertyIdCounter, name, description, msg.sender,true,address(0)) */\n      0xffffffffffffffffffffffffffffffffffffffff\n      and\n      dup2\n      mstore\n      pop\n        /* \"contracts/PropertyTrade.sol\":1653:1663  properties */\n      0x01\n        /* \"contracts/PropertyTrade.sol\":1653:1682  properties[propertyIdCounter] */\n      0x00\n        /* \"contracts/PropertyTrade.sol\":1664:1681  propertyIdCounter */\n      sload(0x03)\n        /* \"contracts/PropertyTrade.sol\":1653:1682  properties[propertyIdCounter] */\n      dup2\n      mstore\n      0x20\n      add\n      swap1\n      dup2\n      mstore\n      0x20\n      add\n      0x00\n      keccak256\n        /* \"contracts/PropertyTrade.sol\":1653:1759  properties[propertyIdCounter] = Property(propertyIdCounter, name, description, msg.sender,true,address(0)) */\n      0x00\n      dup3\n      add\n      mload\n      dup2\n      0x00\n      add\n      sstore\n      0x20\n      dup3\n      add\n      mload\n      dup2\n      0x01\n      add\n      swap1\n      dup2\n      tag_133\n      swap2\n      swap1\n      tag_127\n      jump\t// in\n    tag_133:\n      pop\n      0x40\n      dup3\n      add\n      mload\n      dup2\n      0x02\n      add\n      swap1\n      dup2\n      tag_134\n      swap2\n      swap1\n      tag_127\n      jump\t// in\n    tag_134:\n      pop\n      0x60\n      dup3\n      add\n      mload\n      dup2\n      0x03\n      add\n      exp(0x0100, 0x00)\n      dup2\n      sload\n      dup2\n      0xffffffffffffffffffffffffffffffffffffffff\n      mul\n      not\n      and\n      swap1\n      dup4\n      0xffffffffffffffffffffffffffffffffffffffff\n      and\n      mul\n      or\n      swap1\n      sstore\n      pop\n      0x80\n      dup3\n      add\n      mload\n      dup2\n      0x03\n      add\n      exp(0x0100, 0x14)\n      dup2\n      sload\n      dup2\n      0xff\n      mul\n      not\n      and\n      swap1\n      dup4\n      iszero\n      iszero\n      mul\n      or\n      swap1\n      sstore\n      pop\n      0xa0\n      dup3\n      add\n      mload\n      dup2\n      0x04\n      add\n      exp(0x0100, 0x00)\n      dup2\n      sload\n      dup2\n      0xffffffffffffffffffffffffffffffffffffffff\n      mul\n      not\n      and\n      swap1\n      dup4\n      0xffffffffffffffffffffffffffffffffffffffff\n      and\n      mul\n      or\n      swap1\n      sstore\n      pop\n      swap1\n      pop\n      pop\n        /* \"contracts/PropertyTrade.sol\":1780:1797  propertyIdCounter */\n      0x03\n      0x00\n        /* \"contracts/PropertyTrade.sol\":1780:1799  propertyIdCounter++ */\n      dup2\n      sload\n      dup1\n      swap3\n      swap2\n      swap1\n      tag_135\n      swap1\n      tag_136\n      jump\t// in\n    tag_135:\n      swap2\n      swap1\n      pop\n      sstore\n      pop\n        /* \"contracts/PropertyTrade.sol\":1480:1808  function createProperty(string memory name, string memory description)public {... */\n      pop\n      pop\n      jump\t// out\n        /* \"contracts/PropertyTrade.sol\":927:953  uint256 public tenantCount */\n    tag_44:\n      sload(0x04)\n      dup2\n      jump\t// out\n        /* \"contracts/PropertyTrade.sol\":3397:4320  function getTenantsComplains()public view returns (int[] memory, string[] memory, string[] memory, string[] memory){... */\n    tag_47:\n        /* \"contracts/PropertyTrade.sol\":3448:3460  int[] memory */\n      0x60\n        /* \"contracts/PropertyTrade.sol\":3462:3477  string[] memory */\n      dup1\n        /* \"contracts/PropertyTrade.sol\":3479:3494  string[] memory */\n      0x60\n        /* \"contracts/PropertyTrade.sol\":3496:3511  string[] memory */\n      dup1\n        /* \"contracts/PropertyTrade.sol\":3523:3545  int[] memory rentalIds */\n      0x00\n        /* \"contracts/PropertyTrade.sol\":3558:3567  complains */\n      0x07\n        /* \"contracts/PropertyTrade.sol\":3558:3574  complains.length */\n      dup1\n      sload\n      swap1\n      pop\n        /* \"contracts/PropertyTrade.sol\":3548:3575  new int[](complains.length) */\n      0xffffffffffffffff\n      dup2\n      gt\n      iszero\n      tag_138\n      jumpi\n      tag_139\n      tag_140\n      jump\t// in\n    tag_139:\n    tag_138:\n      mload(0x40)\n      swap1\n      dup1\n      dup3\n      mstore\n      dup1\n      0x20\n      mul\n      0x20\n      add\n      dup3\n      add\n      0x40\n      mstore\n      dup1\n      iszero\n      tag_141\n      jumpi\n      dup2\n      0x20\n      add\n      0x20\n      dup3\n      mul\n      dup1\n      calldatasize\n      dup4\n      calldatacopy\n      dup1\n      dup3\n      add\n      swap2\n      pop\n      pop\n      swap1\n      pop\n    tag_141:\n      pop\n        /* \"contracts/PropertyTrade.sol\":3523:3575  int[] memory rentalIds = new int[](complains.length) */\n      swap1\n      pop\n        /* \"contracts/PropertyTrade.sol\":3586:3607  string[] memory texts */\n      0x00\n        /* \"contracts/PropertyTrade.sol\":3623:3632  complains */\n      0x07\n        /* \"contracts/PropertyTrade.sol\":3623:3639  complains.length */\n      dup1\n      sload\n      swap1\n      pop\n        /* \"contracts/PropertyTrade.sol\":3610:3640  new string[](complains.length) */\n      0xffffffffffffffff\n      dup2\n      gt\n      iszero\n      tag_142\n      jumpi\n      tag_143\n      tag_140\n      jump\t// in\n    tag_143:\n    tag_142:\n      mload(0x40)\n      swap1\n      dup1\n      dup3\n      mstore\n      dup1\n      0x20\n      mul\n      0x20\n      add\n      dup3\n      add\n      0x40\n      mstore\n      dup1\n      iszero\n      tag_144\n      jumpi\n      dup2\n      0x20\n      add\n    tag_145:\n      0x60\n      dup2\n      mstore\n      0x20\n      add\n      swap1\n      0x01\n      swap1\n      sub\n      swap1\n      dup2\n      tag_145\n      jumpi\n      swap1\n      pop\n    tag_144:\n      pop\n        /* \"contracts/PropertyTrade.sol\":3586:3640  string[] memory texts = new string[](complains.length) */\n      swap1\n      pop\n        /* \"contracts/PropertyTrade.sol\":3651:3674  string[] memory replies */\n      0x00\n        /* \"contracts/PropertyTrade.sol\":3690:3699  complains */\n      0x07\n        /* \"contracts/PropertyTrade.sol\":3690:3706  complains.length */\n      dup1\n      sload\n      swap1\n      pop\n        /* \"contracts/PropertyTrade.sol\":3677:3707  new string[](complains.length) */\n      0xffffffffffffffff\n      dup2\n      gt\n      iszero\n      tag_146\n      jumpi\n      tag_147\n      tag_140\n      jump\t// in\n    tag_147:\n    tag_146:\n      mload(0x40)\n      swap1\n      dup1\n      dup3\n      mstore\n      dup1\n      0x20\n      mul\n      0x20\n      add\n      dup3\n      add\n      0x40\n      mstore\n      dup1\n      iszero\n      tag_148\n      jumpi\n      dup2\n      0x20\n      add\n    tag_149:\n      0x60\n      dup2\n      mstore\n      0x20\n      add\n      swap1\n      0x01\n      swap1\n      sub\n      swap1\n      dup2\n      tag_149\n      jumpi\n      swap1\n      pop\n    tag_148:\n      pop\n        /* \"contracts/PropertyTrade.sol\":3651:3707  string[] memory replies = new string[](complains.length) */\n      swap1\n      pop\n        /* \"contracts/PropertyTrade.sol\":3718:3747  string[] memory replyOfOwners */\n      0x00\n        /* \"contracts/PropertyTrade.sol\":3763:3772  complains */\n      0x07\n        /* \"contracts/PropertyTrade.sol\":3763:3779  complains.length */\n      dup1\n      sload\n      swap1\n      pop\n        /* \"contracts/PropertyTrade.sol\":3750:3780  new string[](complains.length) */\n      0xffffffffffffffff\n      dup2\n      gt\n      iszero\n      tag_150\n      jumpi\n      tag_151\n      tag_140\n      jump\t// in\n    tag_151:\n    tag_150:\n      mload(0x40)\n      swap1\n      dup1\n      dup3\n      mstore\n      dup1\n      0x20\n      mul\n      0x20\n      add\n      dup3\n      add\n      0x40\n      mstore\n      dup1\n      iszero\n      tag_152\n      jumpi\n      dup2\n      0x20\n      add\n    tag_153:\n      0x60\n      dup2\n      mstore\n      0x20\n      add\n      swap1\n      0x01\n      swap1\n      sub\n      swap1\n      dup2\n      tag_153\n      jumpi\n      swap1\n      pop\n    tag_152:\n      pop\n        /* \"contracts/PropertyTrade.sol\":3718:3780  string[] memory replyOfOwners = new string[](complains.length) */\n      swap1\n      pop\n        /* \"contracts/PropertyTrade.sol\":3798:3807  uint256 i */\n      0x00\n        /* \"contracts/PropertyTrade.sol\":3793:4251  for (uint256 i = 0; i < complains.length; i++) {... */\n    tag_154:\n        /* \"contracts/PropertyTrade.sol\":3817:3826  complains */\n      0x07\n        /* \"contracts/PropertyTrade.sol\":3817:3833  complains.length */\n      dup1\n      sload\n      swap1\n      pop\n        /* \"contracts/PropertyTrade.sol\":3813:3814  i */\n      dup2\n        /* \"contracts/PropertyTrade.sol\":3813:3833  i < complains.length */\n      lt\n        /* \"contracts/PropertyTrade.sol\":3793:4251  for (uint256 i = 0; i < complains.length; i++) {... */\n      iszero\n      tag_155\n      jumpi\n        /* \"contracts/PropertyTrade.sol\":3855:3879  Complain memory complain */\n      0x00\n        /* \"contracts/PropertyTrade.sol\":3882:3891  complains */\n      0x07\n        /* \"contracts/PropertyTrade.sol\":3892:3893  i */\n      dup3\n        /* \"contracts/PropertyTrade.sol\":3882:3894  complains[i] */\n      dup2\n      sload\n      dup2\n      lt\n      tag_157\n      jumpi\n      tag_158\n      tag_159\n      jump\t// in\n    tag_158:\n    tag_157:\n      swap1\n      0x00\n      mstore\n      keccak256(0x00, 0x20)\n      swap1\n      0x04\n      mul\n      add\n        /* \"contracts/PropertyTrade.sol\":3855:3894  Complain memory complain = complains[i] */\n      mload(0x40)\n      dup1\n      0x80\n      add\n      0x40\n      mstore\n      swap1\n      dup2\n      0x00\n      dup3\n      add\n      0x00\n      swap1\n      sload\n      swap1\n      0x0100\n      exp\n      swap1\n      div\n      0xffffffffffffffffffffffffffffffffffffffff\n      and\n      0xffffffffffffffffffffffffffffffffffffffff\n      and\n      0xffffffffffffffffffffffffffffffffffffffff\n      and\n      dup2\n      mstore\n      0x20\n      add\n      0x01\n      dup3\n      add\n      sload\n      dup2\n      mstore\n      0x20\n      add\n      0x02\n      dup3\n      add\n      dup1\n      sload\n      tag_161\n      swap1\n      tag_162\n      jump\t// in\n    tag_161:\n      dup1\n      0x1f\n      add\n      0x20\n      dup1\n      swap2\n      div\n      mul\n      0x20\n      add\n      mload(0x40)\n      swap1\n      dup2\n      add\n      0x40\n      mstore\n      dup1\n      swap3\n      swap2\n      swap1\n      dup2\n      dup2\n      mstore\n      0x20\n      add\n      dup3\n      dup1\n      sload\n      tag_163\n      swap1\n      tag_162\n      jump\t// in\n    tag_163:\n      dup1\n      iszero\n      tag_164\n      jumpi\n      dup1\n      0x1f\n      lt\n      tag_165\n      jumpi\n      0x0100\n      dup1\n      dup4\n      sload\n      div\n      mul\n      dup4\n      mstore\n      swap2\n      0x20\n      add\n      swap2\n      jump(tag_164)\n    tag_165:\n      dup3\n      add\n      swap2\n      swap1\n      0x00\n      mstore\n      keccak256(0x00, 0x20)\n      swap1\n    tag_166:\n      dup2\n      sload\n      dup2\n      mstore\n      swap1\n      0x01\n      add\n      swap1\n      0x20\n      add\n      dup1\n      dup4\n      gt\n      tag_166\n      jumpi\n      dup3\n      swap1\n      sub\n      0x1f\n      and\n      dup3\n      add\n      swap2\n    tag_164:\n      pop\n      pop\n      pop\n      pop\n      pop\n      dup2\n      mstore\n      0x20\n      add\n      0x03\n      dup3\n      add\n      dup1\n      sload\n      tag_167\n      swap1\n      tag_162\n      jump\t// in\n    tag_167:\n      dup1\n      0x1f\n      add\n      0x20\n      dup1\n      swap2\n      div\n      mul\n      0x20\n      add\n      mload(0x40)\n      swap1\n      dup2\n      add\n      0x40\n      mstore\n      dup1\n      swap3\n      swap2\n      swap1\n      dup2\n      dup2\n      mstore\n      0x20\n      add\n      dup3\n      dup1\n      sload\n      tag_168\n      swap1\n      tag_162\n      jump\t// in\n    tag_168:\n      dup1\n      iszero\n      tag_169\n      jumpi\n      dup1\n      0x1f\n      lt\n      tag_170\n      jumpi\n      0x0100\n      dup1\n      dup4\n      sload\n      div\n      mul\n      dup4\n      mstore\n      swap2\n      0x20\n      add\n      swap2\n      jump(tag_169)\n    tag_170:\n      dup3\n      add\n      swap2\n      swap1\n      0x00\n      mstore\n      keccak256(0x00, 0x20)\n      swap1\n    tag_171:\n      dup2\n      sload\n      dup2\n      mstore\n      swap1\n      0x01\n      add\n      swap1\n      0x20\n      add\n      dup1\n      dup4\n      gt\n      tag_171\n      jumpi\n      dup3\n      swap1\n      sub\n      0x1f\n      and\n      dup3\n      add\n      swap2\n    tag_169:\n      pop\n      pop\n      pop\n      pop\n      pop\n      dup2\n      mstore\n      pop\n      pop\n      swap1\n      pop\n        /* \"contracts/PropertyTrade.sol\":3930:3940  msg.sender */\n      caller\n        /* \"contracts/PropertyTrade.sol\":3913:3940  complain.user == msg.sender */\n      0xffffffffffffffffffffffffffffffffffffffff\n      and\n        /* \"contracts/PropertyTrade.sol\":3913:3921  complain */\n      dup2\n        /* \"contracts/PropertyTrade.sol\":3913:3926  complain.user */\n      0x00\n      add\n      mload\n        /* \"contracts/PropertyTrade.sol\":3913:3940  complain.user == msg.sender */\n      0xffffffffffffffffffffffffffffffffffffffff\n      and\n      sub\n        /* \"contracts/PropertyTrade.sol\":3909:4240  if (complain.user == msg.sender) {... */\n      tag_172\n      jumpi\n        /* \"contracts/PropertyTrade.sol\":3976:3984  complain */\n      dup1\n        /* \"contracts/PropertyTrade.sol\":3976:3993  complain.rentalId */\n      0x20\n      add\n      mload\n        /* \"contracts/PropertyTrade.sol\":3961:3970  rentalIds */\n      dup7\n        /* \"contracts/PropertyTrade.sol\":3971:3972  i */\n      dup4\n        /* \"contracts/PropertyTrade.sol\":3961:3973  rentalIds[i] */\n      dup2\n      mload\n      dup2\n      lt\n      tag_173\n      jumpi\n      tag_174\n      tag_159\n      jump\t// in\n    tag_174:\n    tag_173:\n      0x20\n      mul\n      0x20\n      add\n      add\n        /* \"contracts/PropertyTrade.sol\":3961:3993  rentalIds[i] = complain.rentalId */\n      dup2\n      dup2\n      mstore\n      pop\n      pop\n        /* \"contracts/PropertyTrade.sol\":4023:4031  complain */\n      dup1\n        /* \"contracts/PropertyTrade.sol\":4023:4036  complain.text */\n      0x40\n      add\n      mload\n        /* \"contracts/PropertyTrade.sol\":4012:4017  texts */\n      dup6\n        /* \"contracts/PropertyTrade.sol\":4018:4019  i */\n      dup4\n        /* \"contracts/PropertyTrade.sol\":4012:4020  texts[i] */\n      dup2\n      mload\n      dup2\n      lt\n      tag_175\n      jumpi\n      tag_176\n      tag_159\n      jump\t// in\n    tag_176:\n    tag_175:\n      0x20\n      mul\n      0x20\n      add\n      add\n        /* \"contracts/PropertyTrade.sol\":4012:4036  texts[i] = complain.text */\n      dup2\n      swap1\n      mstore\n      pop\n        /* \"contracts/PropertyTrade.sol\":4068:4076  complain */\n      dup1\n        /* \"contracts/PropertyTrade.sol\":4068:4082  complain.reply */\n      0x60\n      add\n      mload\n        /* \"contracts/PropertyTrade.sol\":4055:4062  replies */\n      dup5\n        /* \"contracts/PropertyTrade.sol\":4063:4064  i */\n      dup4\n        /* \"contracts/PropertyTrade.sol\":4055:4065  replies[i] */\n      dup2\n      mload\n      dup2\n      lt\n      tag_177\n      jumpi\n      tag_178\n      tag_159\n      jump\t// in\n    tag_178:\n    tag_177:\n      0x20\n      mul\n      0x20\n      add\n      add\n        /* \"contracts/PropertyTrade.sol\":4055:4082  replies[i] = complain.reply */\n      dup2\n      swap1\n      mstore\n      pop\n        /* \"contracts/PropertyTrade.sol\":4167:4168  0 */\n      0x00\n        /* \"contracts/PropertyTrade.sol\":4120:4169  properties[complain.rentalId].owner == address(0) */\n      0xffffffffffffffffffffffffffffffffffffffff\n      and\n        /* \"contracts/PropertyTrade.sol\":4120:4130  properties */\n      0x01\n        /* \"contracts/PropertyTrade.sol\":4120:4149  properties[complain.rentalId] */\n      0x00\n        /* \"contracts/PropertyTrade.sol\":4131:4139  complain */\n      dup4\n        /* \"contracts/PropertyTrade.sol\":4131:4148  complain.rentalId */\n      0x20\n      add\n      mload\n        /* \"contracts/PropertyTrade.sol\":4120:4149  properties[complain.rentalId] */\n      dup2\n      mstore\n      0x20\n      add\n      swap1\n      dup2\n      mstore\n      0x20\n      add\n      0x00\n      keccak256\n        /* \"contracts/PropertyTrade.sol\":4120:4155  properties[complain.rentalId].owner */\n      0x03\n      add\n      0x00\n      swap1\n      sload\n      swap1\n      0x0100\n      exp\n      swap1\n      div\n      0xffffffffffffffffffffffffffffffffffffffff\n      and\n        /* \"contracts/PropertyTrade.sol\":4120:4169  properties[complain.rentalId].owner == address(0) */\n      0xffffffffffffffffffffffffffffffffffffffff\n      and\n      eq\n        /* \"contracts/PropertyTrade.sol\":4120:4224  properties[complain.rentalId].owner == address(0) ? \"\" : users[properties[complain.rentalId].owner].name */\n      tag_179\n      jumpi\n        /* \"contracts/PropertyTrade.sol\":4177:4182  users */\n      0x00\n        /* \"contracts/PropertyTrade.sol\":4177:4219  users[properties[complain.rentalId].owner] */\n      dup1\n        /* \"contracts/PropertyTrade.sol\":4183:4193  properties */\n      0x01\n        /* \"contracts/PropertyTrade.sol\":4183:4212  properties[complain.rentalId] */\n      0x00\n        /* \"contracts/PropertyTrade.sol\":4194:4202  complain */\n      dup5\n        /* \"contracts/PropertyTrade.sol\":4194:4211  complain.rentalId */\n      0x20\n      add\n      mload\n        /* \"contracts/PropertyTrade.sol\":4183:4212  properties[complain.rentalId] */\n      dup2\n      mstore\n      0x20\n      add\n      swap1\n      dup2\n      mstore\n      0x20\n      add\n      0x00\n      keccak256\n        /* \"contracts/PropertyTrade.sol\":4183:4218  properties[complain.rentalId].owner */\n      0x03\n      add\n      0x00\n      swap1\n      sload\n      swap1\n      0x0100\n      exp\n      swap1\n      div\n      0xffffffffffffffffffffffffffffffffffffffff\n      and\n        /* \"contracts/PropertyTrade.sol\":4177:4219  users[properties[complain.rentalId].owner] */\n      0xffffffffffffffffffffffffffffffffffffffff\n      and\n      0xffffffffffffffffffffffffffffffffffffffff\n      and\n      dup2\n      mstore\n      0x20\n      add\n      swap1\n      dup2\n      mstore\n      0x20\n      add\n      0x00\n      keccak256\n        /* \"contracts/PropertyTrade.sol\":4177:4224  users[properties[complain.rentalId].owner].name */\n      0x01\n      add\n        /* \"contracts/PropertyTrade.sol\":4120:4224  properties[complain.rentalId].owner == address(0) ? \"\" : users[properties[complain.rentalId].owner].name */\n      dup1\n      sload\n      tag_180\n      swap1\n      tag_162\n      jump\t// in\n    tag_180:\n      dup1\n      0x1f\n      add\n      0x20\n      dup1\n      swap2\n      div\n      mul\n      0x20\n      add\n      mload(0x40)\n      swap1\n      dup2\n      add\n      0x40\n      mstore\n      dup1\n      swap3\n      swap2\n      swap1\n      dup2\n      dup2\n      mstore\n      0x20\n      add\n      dup3\n      dup1\n      sload\n      tag_181\n      swap1\n      tag_162\n      jump\t// in\n    tag_181:\n      dup1\n      iszero\n      tag_182\n      jumpi\n      dup1\n      0x1f\n      lt\n      tag_183\n      jumpi\n      0x0100\n      dup1\n      dup4\n      sload\n      div\n      mul\n      dup4\n      mstore\n      swap2\n      0x20\n      add\n      swap2\n      jump(tag_182)\n    tag_183:\n      dup3\n      add\n      swap2\n      swap1\n      0x00\n      mstore\n      keccak256(0x00, 0x20)\n      swap1\n    tag_184:\n      dup2\n      sload\n      dup2\n      mstore\n      swap1\n      0x01\n      add\n      swap1\n      0x20\n      add\n      dup1\n      dup4\n      gt\n      tag_184\n      jumpi\n      dup3\n      swap1\n      sub\n      0x1f\n      and\n      dup3\n      add\n      swap2\n    tag_182:\n      pop\n      pop\n      pop\n      pop\n      pop\n      jump(tag_185)\n    tag_179:\n      mload(0x40)\n      dup1\n      0x20\n      add\n      0x40\n      mstore\n      dup1\n      0x00\n      dup2\n      mstore\n      pop\n    tag_185:\n        /* \"contracts/PropertyTrade.sol\":4101:4114  replyOfOwners */\n      dup4\n        /* \"contracts/PropertyTrade.sol\":4115:4116  i */\n      dup4\n        /* \"contracts/PropertyTrade.sol\":4101:4117  replyOfOwners[i] */\n      dup2\n      mload\n      dup2\n      lt\n      tag_186\n      jumpi\n      tag_187\n      tag_159\n      jump\t// in\n    tag_187:\n    tag_186:\n      0x20\n      mul\n      0x20\n      add\n      add\n        /* \"contracts/PropertyTrade.sol\":4101:4224  replyOfOwners[i] = properties[complain.rentalId].owner == address(0) ? \"\" : users[properties[complain.rentalId].owner].name */\n      dup2\n      swap1\n      mstore\n      pop\n        /* \"contracts/PropertyTrade.sol\":3909:4240  if (complain.user == msg.sender) {... */\n    tag_172:\n        /* \"contracts/PropertyTrade.sol\":3840:4251  {... */\n      pop\n        /* \"contracts/PropertyTrade.sol\":3835:3838  i++ */\n      dup1\n      dup1\n      0x01\n      add\n      swap2\n      pop\n      pop\n        /* \"contracts/PropertyTrade.sol\":3793:4251  for (uint256 i = 0; i < complains.length; i++) {... */\n      jump(tag_154)\n    tag_155:\n      pop\n        /* \"contracts/PropertyTrade.sol\":4271:4280  rentalIds */\n      dup4\n        /* \"contracts/PropertyTrade.sol\":4282:4287  texts */\n      dup4\n        /* \"contracts/PropertyTrade.sol\":4289:4296  replies */\n      dup4\n        /* \"contracts/PropertyTrade.sol\":4298:4311  replyOfOwners */\n      dup4\n        /* \"contracts/PropertyTrade.sol\":4263:4312  return (rentalIds, texts, replies, replyOfOwners) */\n      swap8\n      pop\n      swap8\n      pop\n      swap8\n      pop\n      swap8\n      pop\n      pop\n      pop\n      pop\n      pop\n        /* \"contracts/PropertyTrade.sol\":3397:4320  function getTenantsComplains()public view returns (int[] memory, string[] memory, string[] memory, string[] memory){... */\n      swap1\n      swap2\n      swap3\n      swap4\n      jump\t// out\n        /* \"contracts/PropertyTrade.sol\":1175:1468  function createUser(string memory name, bool _isTenant, bool _isLandlord) public {... */\n    tag_53:\n        /* \"contracts/PropertyTrade.sol\":1276:1281  users */\n      0x00\n        /* \"contracts/PropertyTrade.sol\":1276:1293  users[msg.sender] */\n      dup1\n        /* \"contracts/PropertyTrade.sol\":1282:1292  msg.sender */\n      caller\n        /* \"contracts/PropertyTrade.sol\":1276:1293  users[msg.sender] */\n      0xffffffffffffffffffffffffffffffffffffffff\n      and\n      0xffffffffffffffffffffffffffffffffffffffff\n      and\n      dup2\n      mstore\n      0x20\n      add\n      swap1\n      dup2\n      mstore\n      0x20\n      add\n      0x00\n      keccak256\n        /* \"contracts/PropertyTrade.sol\":1276:1302  users[msg.sender].isTenant */\n      0x00\n      add\n      0x00\n      swap1\n      sload\n      swap1\n      0x0100\n      exp\n      swap1\n      div\n      0xff\n      and\n        /* \"contracts/PropertyTrade.sol\":1275:1302  !users[msg.sender].isTenant */\n      iszero\n        /* \"contracts/PropertyTrade.sol\":1275:1335  !users[msg.sender].isTenant && !users[msg.sender].isLandlord */\n      dup1\n      iszero\n      tag_189\n      jumpi\n      pop\n        /* \"contracts/PropertyTrade.sol\":1307:1312  users */\n      0x00\n        /* \"contracts/PropertyTrade.sol\":1307:1324  users[msg.sender] */\n      dup1\n        /* \"contracts/PropertyTrade.sol\":1313:1323  msg.sender */\n      caller\n        /* \"contracts/PropertyTrade.sol\":1307:1324  users[msg.sender] */\n      0xffffffffffffffffffffffffffffffffffffffff\n      and\n      0xffffffffffffffffffffffffffffffffffffffff\n      and\n      dup2\n      mstore\n      0x20\n      add\n      swap1\n      dup2\n      mstore\n      0x20\n      add\n      0x00\n      keccak256\n        /* \"contracts/PropertyTrade.sol\":1307:1335  users[msg.sender].isLandlord */\n      0x00\n      add\n      0x01\n      swap1\n      sload\n      swap1\n      0x0100\n      exp\n      swap1\n      div\n      0xff\n      and\n        /* \"contracts/PropertyTrade.sol\":1306:1335  !users[msg.sender].isLandlord */\n      iszero\n        /* \"contracts/PropertyTrade.sol\":1275:1335  !users[msg.sender].isTenant && !users[msg.sender].isLandlord */\n    tag_189:\n        /* \"contracts/PropertyTrade.sol\":1267:1359  require(!users[msg.sender].isTenant && !users[msg.sender].isLandlord, \"User already exists\") */\n      tag_190\n      jumpi\n      mload(0x40)\n      0x08c379a000000000000000000000000000000000000000000000000000000000\n      dup2\n      mstore\n      0x04\n      add\n      tag_191\n      swap1\n      tag_192\n      jump\t// in\n    tag_191:\n      mload(0x40)\n      dup1\n      swap2\n      sub\n      swap1\n      revert\n    tag_190:\n        /* \"contracts/PropertyTrade.sol\":1390:1424  User(_isTenant, _isLandlord, name) */\n      mload(0x40)\n      dup1\n      0x60\n      add\n      0x40\n      mstore\n      dup1\n        /* \"contracts/PropertyTrade.sol\":1395:1404  _isTenant */\n      dup4\n        /* \"contracts/PropertyTrade.sol\":1390:1424  User(_isTenant, _isLandlord, name) */\n      iszero\n      iszero\n      dup2\n      mstore\n      0x20\n      add\n        /* \"contracts/PropertyTrade.sol\":1406:1417  _isLandlord */\n      dup3\n        /* \"contracts/PropertyTrade.sol\":1390:1424  User(_isTenant, _isLandlord, name) */\n      iszero\n      iszero\n      dup2\n      mstore\n      0x20\n      add\n        /* \"contracts/PropertyTrade.sol\":1419:1423  name */\n      dup5\n        /* \"contracts/PropertyTrade.sol\":1390:1424  User(_isTenant, _isLandlord, name) */\n      dup2\n      mstore\n      pop\n        /* \"contracts/PropertyTrade.sol\":1370:1375  users */\n      0x00\n        /* \"contracts/PropertyTrade.sol\":1370:1387  users[msg.sender] */\n      dup1\n        /* \"contracts/PropertyTrade.sol\":1376:1386  msg.sender */\n      caller\n        /* \"contracts/PropertyTrade.sol\":1370:1387  users[msg.sender] */\n      0xffffffffffffffffffffffffffffffffffffffff\n      and\n      0xffffffffffffffffffffffffffffffffffffffff\n      and\n      dup2\n      mstore\n      0x20\n      add\n      swap1\n      dup2\n      mstore\n      0x20\n      add\n      0x00\n      keccak256\n        /* \"contracts/PropertyTrade.sol\":1370:1424  users[msg.sender] = User(_isTenant, _isLandlord, name) */\n      0x00\n      dup3\n      add\n      mload\n      dup2\n      0x00\n      add\n      exp(0x0100, 0x00)\n      dup2\n      sload\n      dup2\n      0xff\n      mul\n      not\n      and\n      swap1\n      dup4\n      iszero\n      iszero\n      mul\n      or\n      swap1\n      sstore\n      pop\n      0x20\n      dup3\n      add\n      mload\n      dup2\n      0x00\n      add\n      exp(0x0100, 0x01)\n      dup2\n      sload\n      dup2\n      0xff\n      mul\n      not\n      and\n      swap1\n      dup4\n      iszero\n      iszero\n      mul\n      or\n      swap1\n      sstore\n      pop\n      0x40\n      dup3\n      add\n      mload\n      dup2\n      0x01\n      add\n      swap1\n      dup2\n      tag_193\n      swap2\n      swap1\n      tag_127\n      jump\t// in\n    tag_193:\n      pop\n      swap1\n      pop\n      pop\n        /* \"contracts/PropertyTrade.sol\":1435:1443  userList */\n      0x02\n        /* \"contracts/PropertyTrade.sol\":1449:1459  msg.sender */\n      caller\n        /* \"contracts/PropertyTrade.sol\":1435:1460  userList.push(msg.sender) */\n      swap1\n      dup1\n      0x01\n      dup2\n      sload\n      add\n      dup1\n      dup3\n      sstore\n      dup1\n      swap2\n      pop\n      pop\n      0x01\n      swap1\n      sub\n      swap1\n      0x00\n      mstore\n      keccak256(0x00, 0x20)\n      add\n      0x00\n      swap1\n      swap2\n      swap1\n      swap2\n      swap1\n      swap2\n      0x0100\n      exp\n      dup2\n      sload\n      dup2\n      0xffffffffffffffffffffffffffffffffffffffff\n      mul\n      not\n      and\n      swap1\n      dup4\n      0xffffffffffffffffffffffffffffffffffffffff\n      and\n      mul\n      or\n      swap1\n      sstore\n      pop\n        /* \"contracts/PropertyTrade.sol\":1175:1468  function createUser(string memory name, bool _isTenant, bool _isLandlord) public {... */\n      pop\n      pop\n      pop\n      jump\t// out\n        /* \"contracts/PropertyTrade.sol\":6244:6838  function requestEarlyTermination(int rentalId) public {... */\n    tag_57:\n        /* \"contracts/PropertyTrade.sol\":6317:6322  users */\n      0x00\n        /* \"contracts/PropertyTrade.sol\":6317:6334  users[msg.sender] */\n      dup1\n        /* \"contracts/PropertyTrade.sol\":6323:6333  msg.sender */\n      caller\n        /* \"contracts/PropertyTrade.sol\":6317:6334  users[msg.sender] */\n      0xffffffffffffffffffffffffffffffffffffffff\n      and\n      0xffffffffffffffffffffffffffffffffffffffff\n      and\n      dup2\n      mstore\n      0x20\n      add\n      swap1\n      dup2\n      mstore\n      0x20\n      add\n      0x00\n      keccak256\n        /* \"contracts/PropertyTrade.sol\":6317:6343  users[msg.sender].isTenant */\n      0x00\n      add\n      0x00\n      swap1\n      sload\n      swap1\n      0x0100\n      exp\n      swap1\n      div\n      0xff\n      and\n        /* \"contracts/PropertyTrade.sol\":6309:6390  require(users[msg.sender].isTenant, \"Only tenants can request early termination\") */\n      tag_196\n      jumpi\n      mload(0x40)\n      0x08c379a000000000000000000000000000000000000000000000000000000000\n      dup2\n      mstore\n      0x04\n      add\n      tag_197\n      swap1\n      tag_198\n      jump\t// in\n    tag_197:\n      mload(0x40)\n      dup1\n      swap2\n      sub\n      swap1\n      revert\n    tag_196:\n        /* \"contracts/PropertyTrade.sol\":6414:6426  bool hasRent */\n      0x00\n        /* \"contracts/PropertyTrade.sol\":6450:6459  uint256 i */\n      dup1\n        /* \"contracts/PropertyTrade.sol\":6445:6655  for (uint256 i = 0; i < rents.length; i++) {... */\n    tag_199:\n        /* \"contracts/PropertyTrade.sol\":6469:6474  rents */\n      0x06\n        /* \"contracts/PropertyTrade.sol\":6469:6481  rents.length */\n      dup1\n      sload\n      swap1\n      pop\n        /* \"contracts/PropertyTrade.sol\":6465:6466  i */\n      dup2\n        /* \"contracts/PropertyTrade.sol\":6465:6481  i < rents.length */\n      lt\n        /* \"contracts/PropertyTrade.sol\":6445:6655  for (uint256 i = 0; i < rents.length; i++) {... */\n      iszero\n      tag_200\n      jumpi\n        /* \"contracts/PropertyTrade.sol\":6528:6536  rentalId */\n      dup3\n        /* \"contracts/PropertyTrade.sol\":6507:6512  rents */\n      0x06\n        /* \"contracts/PropertyTrade.sol\":6513:6514  i */\n      dup3\n        /* \"contracts/PropertyTrade.sol\":6507:6515  rents[i] */\n      dup2\n      sload\n      dup2\n      lt\n      tag_202\n      jumpi\n      tag_203\n      tag_159\n      jump\t// in\n    tag_203:\n    tag_202:\n      swap1\n      0x00\n      mstore\n      keccak256(0x00, 0x20)\n      swap1\n      0x04\n      mul\n      add\n        /* \"contracts/PropertyTrade.sol\":6507:6524  rents[i].rentalId */\n      0x00\n      add\n      sload\n        /* \"contracts/PropertyTrade.sol\":6507:6536  rents[i].rentalId == rentalId */\n      eq\n        /* \"contracts/PropertyTrade.sol\":6507:6569  rents[i].rentalId == rentalId && rents[i].tenant == msg.sender */\n      dup1\n      iszero\n      tag_205\n      jumpi\n      pop\n        /* \"contracts/PropertyTrade.sol\":6559:6569  msg.sender */\n      caller\n        /* \"contracts/PropertyTrade.sol\":6540:6569  rents[i].tenant == msg.sender */\n      0xffffffffffffffffffffffffffffffffffffffff\n      and\n        /* \"contracts/PropertyTrade.sol\":6540:6545  rents */\n      0x06\n        /* \"contracts/PropertyTrade.sol\":6546:6547  i */\n      dup3\n        /* \"contracts/PropertyTrade.sol\":6540:6548  rents[i] */\n      dup2\n      sload\n      dup2\n      lt\n      tag_206\n      jumpi\n      tag_207\n      tag_159\n      jump\t// in\n    tag_207:\n    tag_206:\n      swap1\n      0x00\n      mstore\n      keccak256(0x00, 0x20)\n      swap1\n      0x04\n      mul\n      add\n        /* \"contracts/PropertyTrade.sol\":6540:6555  rents[i].tenant */\n      0x01\n      add\n      0x00\n      swap1\n      sload\n      swap1\n      0x0100\n      exp\n      swap1\n      div\n      0xffffffffffffffffffffffffffffffffffffffff\n      and\n        /* \"contracts/PropertyTrade.sol\":6540:6569  rents[i].tenant == msg.sender */\n      0xffffffffffffffffffffffffffffffffffffffff\n      and\n      eq\n        /* \"contracts/PropertyTrade.sol\":6507:6569  rents[i].rentalId == rentalId && rents[i].tenant == msg.sender */\n    tag_205:\n        /* \"contracts/PropertyTrade.sol\":6503:6644  if (rents[i].rentalId == rentalId && rents[i].tenant == msg.sender) {... */\n      iszero\n      tag_209\n      jumpi\n        /* \"contracts/PropertyTrade.sol\":6600:6604  true */\n      0x01\n        /* \"contracts/PropertyTrade.sol\":6590:6604  hasRent = true */\n      swap2\n      pop\n        /* \"contracts/PropertyTrade.sol\":6623:6628  break */\n      jump(tag_200)\n        /* \"contracts/PropertyTrade.sol\":6503:6644  if (rents[i].rentalId == rentalId && rents[i].tenant == msg.sender) {... */\n    tag_209:\n        /* \"contracts/PropertyTrade.sol\":6483:6486  i++ */\n      dup1\n      dup1\n      0x01\n      add\n      swap2\n      pop\n      pop\n        /* \"contracts/PropertyTrade.sol\":6445:6655  for (uint256 i = 0; i < rents.length; i++) {... */\n      jump(tag_199)\n    tag_200:\n      pop\n        /* \"contracts/PropertyTrade.sol\":6673:6680  hasRent */\n      dup1\n        /* \"contracts/PropertyTrade.sol\":6665:6726  require(hasRent, \"You do not have a lease for this property\") */\n      tag_210\n      jumpi\n      mload(0x40)\n      0x08c379a000000000000000000000000000000000000000000000000000000000\n      dup2\n      mstore\n      0x04\n      add\n      tag_211\n      swap1\n      tag_212\n      jump\t// in\n    tag_211:\n      mload(0x40)\n      dup1\n      swap2\n      sub\n      swap1\n      revert\n    tag_210:\n        /* \"contracts/PropertyTrade.sol\":6737:6761  earlyTerminationRequests */\n      0x08\n        /* \"contracts/PropertyTrade.sol\":6767:6829  EarlyTermination(msg.sender, rentalId, block.timestamp, false) */\n      mload(0x40)\n      dup1\n      0x80\n      add\n      0x40\n      mstore\n      dup1\n        /* \"contracts/PropertyTrade.sol\":6784:6794  msg.sender */\n      caller\n        /* \"contracts/PropertyTrade.sol\":6767:6829  EarlyTermination(msg.sender, rentalId, block.timestamp, false) */\n      0xffffffffffffffffffffffffffffffffffffffff\n      and\n      dup2\n      mstore\n      0x20\n      add\n        /* \"contracts/PropertyTrade.sol\":6796:6804  rentalId */\n      dup5\n        /* \"contracts/PropertyTrade.sol\":6767:6829  EarlyTermination(msg.sender, rentalId, block.timestamp, false) */\n      dup2\n      mstore\n      0x20\n      add\n        /* \"contracts/PropertyTrade.sol\":6806:6821  block.timestamp */\n      timestamp\n        /* \"contracts/PropertyTrade.sol\":6767:6829  EarlyTermination(msg.sender, rentalId, block.timestamp, false) */\n      dup2\n      mstore\n      0x20\n      add\n        /* \"contracts/PropertyTrade.sol\":6823:6828  false */\n      0x00\n        /* \"contracts/PropertyTrade.sol\":6767:6829  EarlyTermination(msg.sender, rentalId, block.timestamp, false) */\n      iszero\n      iszero\n      dup2\n      mstore\n      pop\n        /* \"contracts/PropertyTrade.sol\":6737:6830  earlyTerminationRequests.push(EarlyTermination(msg.sender, rentalId, block.timestamp, false)) */\n      swap1\n      dup1\n      0x01\n      dup2\n      sload\n      add\n      dup1\n      dup3\n      sstore\n      dup1\n      swap2\n      pop\n      pop\n      0x01\n      swap1\n      sub\n      swap1\n      0x00\n      mstore\n      keccak256(0x00, 0x20)\n      swap1\n      0x04\n      mul\n      add\n      0x00\n      swap1\n      swap2\n      swap1\n      swap2\n      swap1\n      swap2\n      pop\n      0x00\n      dup3\n      add\n      mload\n      dup2\n      0x00\n      add\n      exp(0x0100, 0x00)\n      dup2\n      sload\n      dup2\n      0xffffffffffffffffffffffffffffffffffffffff\n      mul\n      not\n      and\n      swap1\n      dup4\n      0xffffffffffffffffffffffffffffffffffffffff\n      and\n      mul\n      or\n      swap1\n      sstore\n      pop\n      0x20\n      dup3\n      add\n      mload\n      dup2\n      0x01\n      add\n      sstore\n      0x40\n      dup3\n      add\n      mload\n      dup2\n      0x02\n      add\n      sstore\n      0x60\n      dup3\n      add\n      mload\n      dup2\n      0x03\n      add\n      exp(0x0100, 0x00)\n      dup2\n      sload\n      dup2\n      0xff\n      mul\n      not\n      and\n      swap1\n      dup4\n      iszero\n      iszero\n      mul\n      or\n      swap1\n      sstore\n      pop\n      pop\n      pop\n        /* \"contracts/PropertyTrade.sol\":6298:6838  {... */\n      pop\n        /* \"contracts/PropertyTrade.sol\":6244:6838  function requestEarlyTermination(int rentalId) public {... */\n      pop\n      jump\t// out\n        /* \"contracts/PropertyTrade.sol\":4330:5032  function getLandlordComplaints() public view returns (int[] memory, string[] memory, string[] memory) {... */\n    tag_59:\n        /* \"contracts/PropertyTrade.sol\":4384:4396  int[] memory */\n      0x60\n        /* \"contracts/PropertyTrade.sol\":4398:4413  string[] memory */\n      dup1\n        /* \"contracts/PropertyTrade.sol\":4415:4430  string[] memory */\n      0x60\n        /* \"contracts/PropertyTrade.sol\":4443:4465  int[] memory rentalIds */\n      0x00\n        /* \"contracts/PropertyTrade.sol\":4478:4487  complains */\n      0x07\n        /* \"contracts/PropertyTrade.sol\":4478:4494  complains.length */\n      dup1\n      sload\n      swap1\n      pop\n        /* \"contracts/PropertyTrade.sol\":4468:4495  new int[](complains.length) */\n      0xffffffffffffffff\n      dup2\n      gt\n      iszero\n      tag_215\n      jumpi\n      tag_216\n      tag_140\n      jump\t// in\n    tag_216:\n    tag_215:\n      mload(0x40)\n      swap1\n      dup1\n      dup3\n      mstore\n      dup1\n      0x20\n      mul\n      0x20\n      add\n      dup3\n      add\n      0x40\n      mstore\n      dup1\n      iszero\n      tag_217\n      jumpi\n      dup2\n      0x20\n      add\n      0x20\n      dup3\n      mul\n      dup1\n      calldatasize\n      dup4\n      calldatacopy\n      dup1\n      dup3\n      add\n      swap2\n      pop\n      pop\n      swap1\n      pop\n    tag_217:\n      pop\n        /* \"contracts/PropertyTrade.sol\":4443:4495  int[] memory rentalIds = new int[](complains.length) */\n      swap1\n      pop\n        /* \"contracts/PropertyTrade.sol\":4506:4527  string[] memory texts */\n      0x00\n        /* \"contracts/PropertyTrade.sol\":4543:4552  complains */\n      0x07\n        /* \"contracts/PropertyTrade.sol\":4543:4559  complains.length */\n      dup1\n      sload\n      swap1\n      pop\n        /* \"contracts/PropertyTrade.sol\":4530:4560  new string[](complains.length) */\n      0xffffffffffffffff\n      dup2\n      gt\n      iszero\n      tag_218\n      jumpi\n      tag_219\n      tag_140\n      jump\t// in\n    tag_219:\n    tag_218:\n      mload(0x40)\n      swap1\n      dup1\n      dup3\n      mstore\n      dup1\n      0x20\n      mul\n      0x20\n      add\n      dup3\n      add\n      0x40\n      mstore\n      dup1\n      iszero\n      tag_220\n      jumpi\n      dup2\n      0x20\n      add\n    tag_221:\n      0x60\n      dup2\n      mstore\n      0x20\n      add\n      swap1\n      0x01\n      swap1\n      sub\n      swap1\n      dup2\n      tag_221\n      jumpi\n      swap1\n      pop\n    tag_220:\n      pop\n        /* \"contracts/PropertyTrade.sol\":4506:4560  string[] memory texts = new string[](complains.length) */\n      swap1\n      pop\n        /* \"contracts/PropertyTrade.sol\":4571:4594  string[] memory replies */\n      0x00\n        /* \"contracts/PropertyTrade.sol\":4610:4619  complains */\n      0x07\n        /* \"contracts/PropertyTrade.sol\":4610:4626  complains.length */\n      dup1\n      sload\n      swap1\n      pop\n        /* \"contracts/PropertyTrade.sol\":4597:4627  new string[](complains.length) */\n      0xffffffffffffffff\n      dup2\n      gt\n      iszero\n      tag_222\n      jumpi\n      tag_223\n      tag_140\n      jump\t// in\n    tag_223:\n    tag_222:\n      mload(0x40)\n      swap1\n      dup1\n      dup3\n      mstore\n      dup1\n      0x20\n      mul\n      0x20\n      add\n      dup3\n      add\n      0x40\n      mstore\n      dup1\n      iszero\n      tag_224\n      jumpi\n      dup2\n      0x20\n      add\n    tag_225:\n      0x60\n      dup2\n      mstore\n      0x20\n      add\n      swap1\n      0x01\n      swap1\n      sub\n      swap1\n      dup2\n      tag_225\n      jumpi\n      swap1\n      pop\n    tag_224:\n      pop\n        /* \"contracts/PropertyTrade.sol\":4571:4627  string[] memory replies = new string[](complains.length) */\n      swap1\n      pop\n        /* \"contracts/PropertyTrade.sol\":4645:4654  uint256 i */\n      0x00\n        /* \"contracts/PropertyTrade.sol\":4640:4978  for (uint256 i = 0; i < complains.length; i++) {... */\n    tag_226:\n        /* \"contracts/PropertyTrade.sol\":4664:4673  complains */\n      0x07\n        /* \"contracts/PropertyTrade.sol\":4664:4680  complains.length */\n      dup1\n      sload\n      swap1\n      pop\n        /* \"contracts/PropertyTrade.sol\":4660:4661  i */\n      dup2\n        /* \"contracts/PropertyTrade.sol\":4660:4680  i < complains.length */\n      lt\n        /* \"contracts/PropertyTrade.sol\":4640:4978  for (uint256 i = 0; i < complains.length; i++) {... */\n      iszero\n      tag_227\n      jumpi\n        /* \"contracts/PropertyTrade.sol\":4702:4726  Complain memory complain */\n      0x00\n        /* \"contracts/PropertyTrade.sol\":4729:4738  complains */\n      0x07\n        /* \"contracts/PropertyTrade.sol\":4739:4740  i */\n      dup3\n        /* \"contracts/PropertyTrade.sol\":4729:4741  complains[i] */\n      dup2\n      sload\n      dup2\n      lt\n      tag_229\n      jumpi\n      tag_230\n      tag_159\n      jump\t// in\n    tag_230:\n    tag_229:\n      swap1\n      0x00\n      mstore\n      keccak256(0x00, 0x20)\n      swap1\n      0x04\n      mul\n      add\n        /* \"contracts/PropertyTrade.sol\":4702:4741  Complain memory complain = complains[i] */\n      mload(0x40)\n      dup1\n      0x80\n      add\n      0x40\n      mstore\n      swap1\n      dup2\n      0x00\n      dup3\n      add\n      0x00\n      swap1\n      sload\n      swap1\n      0x0100\n      exp\n      swap1\n      div\n      0xffffffffffffffffffffffffffffffffffffffff\n      and\n      0xffffffffffffffffffffffffffffffffffffffff\n      and\n      0xffffffffffffffffffffffffffffffffffffffff\n      and\n      dup2\n      mstore\n      0x20\n      add\n      0x01\n      dup3\n      add\n      sload\n      dup2\n      mstore\n      0x20\n      add\n      0x02\n      dup3\n      add\n      dup1\n      sload\n      tag_232\n      swap1\n      tag_162\n      jump\t// in\n    tag_232:\n      dup1\n      0x1f\n      add\n      0x20\n      dup1\n      swap2\n      div\n      mul\n      0x20\n      add\n      mload(0x40)\n      swap1\n      dup2\n      add\n      0x40\n      mstore\n      dup1\n      swap3\n      swap2\n      swap1\n      dup2\n      dup2\n      mstore\n      0x20\n      add\n      dup3\n      dup1\n      sload\n      tag_233\n      swap1\n      tag_162\n      jump\t// in\n    tag_233:\n      dup1\n      iszero\n      tag_234\n      jumpi\n      dup1\n      0x1f\n      lt\n      tag_235\n      jumpi\n      0x0100\n      dup1\n      dup4\n      sload\n      div\n      mul\n      dup4\n      mstore\n      swap2\n      0x20\n      add\n      swap2\n      jump(tag_234)\n    tag_235:\n      dup3\n      add\n      swap2\n      swap1\n      0x00\n      mstore\n      keccak256(0x00, 0x20)\n      swap1\n    tag_236:\n      dup2\n      sload\n      dup2\n      mstore\n      swap1\n      0x01\n      add\n      swap1\n      0x20\n      add\n      dup1\n      dup4\n      gt\n      tag_236\n      jumpi\n      dup3\n      swap1\n      sub\n      0x1f\n      and\n      dup3\n      add\n      swap2\n    tag_234:\n      pop\n      pop\n      pop\n      pop\n      pop\n      dup2\n      mstore\n      0x20\n      add\n      0x03\n      dup3\n      add\n      dup1\n      sload\n      tag_237\n      swap1\n      tag_162\n      jump\t// in\n    tag_237:\n      dup1\n      0x1f\n      add\n      0x20\n      dup1\n      swap2\n      div\n      mul\n      0x20\n      add\n      mload(0x40)\n      swap1\n      dup2\n      add\n      0x40\n      mstore\n      dup1\n      swap3\n      swap2\n      swap1\n      dup2\n      dup2\n      mstore\n      0x20\n      add\n      dup3\n      dup1\n      sload\n      tag_238\n      swap1\n      tag_162\n      jump\t// in\n    tag_238:\n      dup1\n      iszero\n      tag_239\n      jumpi\n      dup1\n      0x1f\n      lt\n      tag_240\n      jumpi\n      0x0100\n      dup1\n      dup4\n      sload\n      div\n      mul\n      dup4\n      mstore\n      swap2\n      0x20\n      add\n      swap2\n      jump(tag_239)\n    tag_240:\n      dup3\n      add\n      swap2\n      swap1\n      0x00\n      mstore\n      keccak256(0x00, 0x20)\n      swap1\n    tag_241:\n      dup2\n      sload\n      dup2\n      mstore\n      swap1\n      0x01\n      add\n      swap1\n      0x20\n      add\n      dup1\n      dup4\n      gt\n      tag_241\n      jumpi\n      dup3\n      swap1\n      sub\n      0x1f\n      and\n      dup3\n      add\n      swap2\n    tag_239:\n      pop\n      pop\n      pop\n      pop\n      pop\n      dup2\n      mstore\n      pop\n      pop\n      swap1\n      pop\n        /* \"contracts/PropertyTrade.sol\":4799:4809  msg.sender */\n      caller\n        /* \"contracts/PropertyTrade.sol\":4760:4809  properties[complain.rentalId].owner == msg.sender */\n      0xffffffffffffffffffffffffffffffffffffffff\n      and\n        /* \"contracts/PropertyTrade.sol\":4760:4770  properties */\n      0x01\n        /* \"contracts/PropertyTrade.sol\":4760:4789  properties[complain.rentalId] */\n      0x00\n        /* \"contracts/PropertyTrade.sol\":4771:4779  complain */\n      dup4\n        /* \"contracts/PropertyTrade.sol\":4771:4788  complain.rentalId */\n      0x20\n      add\n      mload\n        /* \"contracts/PropertyTrade.sol\":4760:4789  properties[complain.rentalId] */\n      dup2\n      mstore\n      0x20\n      add\n      swap1\n      dup2\n      mstore\n      0x20\n      add\n      0x00\n      keccak256\n        /* \"contracts/PropertyTrade.sol\":4760:4795  properties[complain.rentalId].owner */\n      0x03\n      add\n      0x00\n      swap1\n      sload\n      swap1\n      0x0100\n      exp\n      swap1\n      div\n      0xffffffffffffffffffffffffffffffffffffffff\n      and\n        /* \"contracts/PropertyTrade.sol\":4760:4809  properties[complain.rentalId].owner == msg.sender */\n      0xffffffffffffffffffffffffffffffffffffffff\n      and\n      sub\n        /* \"contracts/PropertyTrade.sol\":4756:4967  if (properties[complain.rentalId].owner == msg.sender) {... */\n      tag_242\n      jumpi\n        /* \"contracts/PropertyTrade.sol\":4845:4853  complain */\n      dup1\n        /* \"contracts/PropertyTrade.sol\":4845:4862  complain.rentalId */\n      0x20\n      add\n      mload\n        /* \"contracts/PropertyTrade.sol\":4830:4839  rentalIds */\n      dup6\n        /* \"contracts/PropertyTrade.sol\":4840:4841  i */\n      dup4\n        /* \"contracts/PropertyTrade.sol\":4830:4842  rentalIds[i] */\n      dup2\n      mload\n      dup2\n      lt\n      tag_243\n      jumpi\n      tag_244\n      tag_159\n      jump\t// in\n    tag_244:\n    tag_243:\n      0x20\n      mul\n      0x20\n      add\n      add\n        /* \"contracts/PropertyTrade.sol\":4830:4862  rentalIds[i] = complain.rentalId */\n      dup2\n      dup2\n      mstore\n      pop\n      pop\n        /* \"contracts/PropertyTrade.sol\":4892:4900  complain */\n      dup1\n        /* \"contracts/PropertyTrade.sol\":4892:4905  complain.text */\n      0x40\n      add\n      mload\n        /* \"contracts/PropertyTrade.sol\":4881:4886  texts */\n      dup5\n        /* \"contracts/PropertyTrade.sol\":4887:4888  i */\n      dup4\n        /* \"contracts/PropertyTrade.sol\":4881:4889  texts[i] */\n      dup2\n      mload\n      dup2\n      lt\n      tag_245\n      jumpi\n      tag_246\n      tag_159\n      jump\t// in\n    tag_246:\n    tag_245:\n      0x20\n      mul\n      0x20\n      add\n      add\n        /* \"contracts/PropertyTrade.sol\":4881:4905  texts[i] = complain.text */\n      dup2\n      swap1\n      mstore\n      pop\n        /* \"contracts/PropertyTrade.sol\":4937:4945  complain */\n      dup1\n        /* \"contracts/PropertyTrade.sol\":4937:4951  complain.reply */\n      0x60\n      add\n      mload\n        /* \"contracts/PropertyTrade.sol\":4924:4931  replies */\n      dup4\n        /* \"contracts/PropertyTrade.sol\":4932:4933  i */\n      dup4\n        /* \"contracts/PropertyTrade.sol\":4924:4934  replies[i] */\n      dup2\n      mload\n      dup2\n      lt\n      tag_247\n      jumpi\n      tag_248\n      tag_159\n      jump\t// in\n    tag_248:\n    tag_247:\n      0x20\n      mul\n      0x20\n      add\n      add\n        /* \"contracts/PropertyTrade.sol\":4924:4951  replies[i] = complain.reply */\n      dup2\n      swap1\n      mstore\n      pop\n        /* \"contracts/PropertyTrade.sol\":4756:4967  if (properties[complain.rentalId].owner == msg.sender) {... */\n    tag_242:\n        /* \"contracts/PropertyTrade.sol\":4687:4978  {... */\n      pop\n        /* \"contracts/PropertyTrade.sol\":4682:4685  i++ */\n      dup1\n      dup1\n      0x01\n      add\n      swap2\n      pop\n      pop\n        /* \"contracts/PropertyTrade.sol\":4640:4978  for (uint256 i = 0; i < complains.length; i++) {... */\n      jump(tag_226)\n    tag_227:\n      pop\n        /* \"contracts/PropertyTrade.sol\":4998:5007  rentalIds */\n      dup3\n        /* \"contracts/PropertyTrade.sol\":5009:5014  texts */\n      dup3\n        /* \"contracts/PropertyTrade.sol\":5016:5023  replies */\n      dup3\n        /* \"contracts/PropertyTrade.sol\":4990:5024  return (rentalIds, texts, replies) */\n      swap6\n      pop\n      swap6\n      pop\n      swap6\n      pop\n      pop\n      pop\n      pop\n        /* \"contracts/PropertyTrade.sol\":4330:5032  function getLandlordComplaints() public view returns (int[] memory, string[] memory, string[] memory) {... */\n      swap1\n      swap2\n      swap3\n      jump\t// out\n        /* \"contracts/PropertyTrade.sol\":1818:2226  function createRent(int rentalId, address tenant , uint256 startDate,  uint256 endDate)public {... */\n    tag_65:\n        /* \"contracts/PropertyTrade.sol\":1931:1936  users */\n      0x00\n        /* \"contracts/PropertyTrade.sol\":1931:1944  users[tenant] */\n      dup1\n        /* \"contracts/PropertyTrade.sol\":1937:1943  tenant */\n      dup5\n        /* \"contracts/PropertyTrade.sol\":1931:1944  users[tenant] */\n      0xffffffffffffffffffffffffffffffffffffffff\n      and\n      0xffffffffffffffffffffffffffffffffffffffff\n      and\n      dup2\n      mstore\n      0x20\n      add\n      swap1\n      dup2\n      mstore\n      0x20\n      add\n      0x00\n      keccak256\n        /* \"contracts/PropertyTrade.sol\":1931:1953  users[tenant].isTenant */\n      0x00\n      add\n      0x00\n      swap1\n      sload\n      swap1\n      0x0100\n      exp\n      swap1\n      div\n      0xff\n      and\n        /* \"contracts/PropertyTrade.sol\":1931:1997  users[tenant].isTenant && properties[rentalId].owner == msg.sender */\n      dup1\n      iszero\n      tag_250\n      jumpi\n      pop\n        /* \"contracts/PropertyTrade.sol\":1987:1997  msg.sender */\n      caller\n        /* \"contracts/PropertyTrade.sol\":1957:1997  properties[rentalId].owner == msg.sender */\n      0xffffffffffffffffffffffffffffffffffffffff\n      and\n        /* \"contracts/PropertyTrade.sol\":1957:1967  properties */\n      0x01\n        /* \"contracts/PropertyTrade.sol\":1957:1977  properties[rentalId] */\n      0x00\n        /* \"contracts/PropertyTrade.sol\":1968:1976  rentalId */\n      dup7\n        /* \"contracts/PropertyTrade.sol\":1957:1977  properties[rentalId] */\n      dup2\n      mstore\n      0x20\n      add\n      swap1\n      dup2\n      mstore\n      0x20\n      add\n      0x00\n      keccak256\n        /* \"contracts/PropertyTrade.sol\":1957:1983  properties[rentalId].owner */\n      0x03\n      add\n      0x00\n      swap1\n      sload\n      swap1\n      0x0100\n      exp\n      swap1\n      div\n      0xffffffffffffffffffffffffffffffffffffffff\n      and\n        /* \"contracts/PropertyTrade.sol\":1957:1997  properties[rentalId].owner == msg.sender */\n      0xffffffffffffffffffffffffffffffffffffffff\n      and\n      eq\n        /* \"contracts/PropertyTrade.sol\":1931:1997  users[tenant].isTenant && properties[rentalId].owner == msg.sender */\n    tag_250:\n        /* \"contracts/PropertyTrade.sol\":1923:2028  require(users[tenant].isTenant && properties[rentalId].owner == msg.sender, \"Invalid tenant or property\") */\n      tag_251\n      jumpi\n      mload(0x40)\n      0x08c379a000000000000000000000000000000000000000000000000000000000\n      dup2\n      mstore\n      0x04\n      add\n      tag_252\n      swap1\n      tag_253\n      jump\t// in\n    tag_252:\n      mload(0x40)\n      dup1\n      swap2\n      sub\n      swap1\n      revert\n    tag_251:\n        /* \"contracts/PropertyTrade.sol\":2048:2058  properties */\n      0x01\n        /* \"contracts/PropertyTrade.sol\":2048:2068  properties[rentalId] */\n      0x00\n        /* \"contracts/PropertyTrade.sol\":2059:2067  rentalId */\n      dup6\n        /* \"contracts/PropertyTrade.sol\":2048:2068  properties[rentalId] */\n      dup2\n      mstore\n      0x20\n      add\n      swap1\n      dup2\n      mstore\n      0x20\n      add\n      0x00\n      keccak256\n        /* \"contracts/PropertyTrade.sol\":2048:2077  properties[rentalId].isRented */\n      0x03\n      add\n      0x14\n      swap1\n      sload\n      swap1\n      0x0100\n      exp\n      swap1\n      div\n      0xff\n      and\n        /* \"contracts/PropertyTrade.sol\":2047:2077  !properties[rentalId].isRented */\n      iszero\n        /* \"contracts/PropertyTrade.sol\":2039:2106  require(!properties[rentalId].isRented, \"Property is not rentable\") */\n      tag_254\n      jumpi\n      mload(0x40)\n      0x08c379a000000000000000000000000000000000000000000000000000000000\n      dup2\n      mstore\n      0x04\n      add\n      tag_255\n      swap1\n      tag_256\n      jump\t// in\n    tag_255:\n      mload(0x40)\n      dup1\n      swap2\n      sub\n      swap1\n      revert\n    tag_254:\n        /* \"contracts/PropertyTrade.sol\":2117:2122  rents */\n      0x06\n        /* \"contracts/PropertyTrade.sol\":2128:2169  Rent(rentalId,tenant, startDate, endDate) */\n      mload(0x40)\n      dup1\n      0x80\n      add\n      0x40\n      mstore\n      dup1\n        /* \"contracts/PropertyTrade.sol\":2133:2141  rentalId */\n      dup7\n        /* \"contracts/PropertyTrade.sol\":2128:2169  Rent(rentalId,tenant, startDate, endDate) */\n      dup2\n      mstore\n      0x20\n      add\n        /* \"contracts/PropertyTrade.sol\":2142:2148  tenant */\n      dup6\n        /* \"contracts/PropertyTrade.sol\":2128:2169  Rent(rentalId,tenant, startDate, endDate) */\n      0xffffffffffffffffffffffffffffffffffffffff\n      and\n      dup2\n      mstore\n      0x20\n      add\n        /* \"contracts/PropertyTrade.sol\":2150:2159  startDate */\n      dup5\n        /* \"contracts/PropertyTrade.sol\":2128:2169  Rent(rentalId,tenant, startDate, endDate) */\n      dup2\n      mstore\n      0x20\n      add\n        /* \"contracts/PropertyTrade.sol\":2161:2168  endDate */\n      dup4\n        /* \"contracts/PropertyTrade.sol\":2128:2169  Rent(rentalId,tenant, startDate, endDate) */\n      dup2\n      mstore\n      pop\n        /* \"contracts/PropertyTrade.sol\":2117:2170  rents.push(Rent(rentalId,tenant, startDate, endDate)) */\n      swap1\n      dup1\n      0x01\n      dup2\n      sload\n      add\n      dup1\n      dup3\n      sstore\n      dup1\n      swap2\n      pop\n      pop\n      0x01\n      swap1\n      sub\n      swap1\n      0x00\n      mstore\n      keccak256(0x00, 0x20)\n      swap1\n      0x04\n      mul\n      add\n      0x00\n      swap1\n      swap2\n      swap1\n      swap2\n      swap1\n      swap2\n      pop\n      0x00\n      dup3\n      add\n      mload\n      dup2\n      0x00\n      add\n      sstore\n      0x20\n      dup3\n      add\n      mload\n      dup2\n      0x01\n      add\n      exp(0x0100, 0x00)\n      dup2\n      sload\n      dup2\n      0xffffffffffffffffffffffffffffffffffffffff\n      mul\n      not\n      and\n      swap1\n      dup4\n      0xffffffffffffffffffffffffffffffffffffffff\n      and\n      mul\n      or\n      swap1\n      sstore\n      pop\n      0x40\n      dup3\n      add\n      mload\n      dup2\n      0x02\n      add\n      sstore\n      0x60\n      dup3\n      add\n      mload\n      dup2\n      0x03\n      add\n      sstore\n      pop\n      pop\n        /* \"contracts/PropertyTrade.sol\":2213:2217  true */\n      0x01\n        /* \"contracts/PropertyTrade.sol\":2181:2191  properties */\n      dup1\n        /* \"contracts/PropertyTrade.sol\":2181:2201  properties[rentalId] */\n      0x00\n        /* \"contracts/PropertyTrade.sol\":2192:2200  rentalId */\n      dup7\n        /* \"contracts/PropertyTrade.sol\":2181:2201  properties[rentalId] */\n      dup2\n      mstore\n      0x20\n      add\n      swap1\n      dup2\n      mstore\n      0x20\n      add\n      0x00\n      keccak256\n        /* \"contracts/PropertyTrade.sol\":2181:2210  properties[rentalId].isRented */\n      0x03\n      add\n      0x14\n        /* \"contracts/PropertyTrade.sol\":2181:2217  properties[rentalId].isRented = true */\n      0x0100\n      exp\n      dup2\n      sload\n      dup2\n      0xff\n      mul\n      not\n      and\n      swap1\n      dup4\n      iszero\n      iszero\n      mul\n      or\n      swap1\n      sstore\n      pop\n        /* \"contracts/PropertyTrade.sol\":1818:2226  function createRent(int rentalId, address tenant , uint256 startDate,  uint256 endDate)public {... */\n      pop\n      pop\n      pop\n      pop\n      jump\t// out\n        /* \"contracts/PropertyTrade.sol\":1021:1048  Complain[] public complains */\n    tag_69:\n      0x07\n      dup2\n      dup2\n      sload\n      dup2\n      lt\n      tag_258\n      jumpi\n      0x00\n      dup1\n      revert\n    tag_258:\n      swap1\n      0x00\n      mstore\n      keccak256(0x00, 0x20)\n      swap1\n      0x04\n      mul\n      add\n      0x00\n      swap2\n      pop\n      swap1\n      pop\n      dup1\n      0x00\n      add\n      0x00\n      swap1\n      sload\n      swap1\n      0x0100\n      exp\n      swap1\n      div\n      0xffffffffffffffffffffffffffffffffffffffff\n      and\n      swap1\n      dup1\n      0x01\n      add\n      sload\n      swap1\n      dup1\n      0x02\n      add\n      dup1\n      sload\n      tag_260\n      swap1\n      tag_162\n      jump\t// in\n    tag_260:\n      dup1\n      0x1f\n      add\n      0x20\n      dup1\n      swap2\n      div\n      mul\n      0x20\n      add\n      mload(0x40)\n      swap1\n      dup2\n      add\n      0x40\n      mstore\n      dup1\n      swap3\n      swap2\n      swap1\n      dup2\n      dup2\n      mstore\n      0x20\n      add\n      dup3\n      dup1\n      sload\n      tag_261\n      swap1\n      tag_162\n      jump\t// in\n    tag_261:\n      dup1\n      iszero\n      tag_262\n      jumpi\n      dup1\n      0x1f\n      lt\n      tag_263\n      jumpi\n      0x0100\n      dup1\n      dup4\n      sload\n      div\n      mul\n      dup4\n      mstore\n      swap2\n      0x20\n      add\n      swap2\n      jump(tag_262)\n    tag_263:\n      dup3\n      add\n      swap2\n      swap1\n      0x00\n      mstore\n      keccak256(0x00, 0x20)\n      swap1\n    tag_264:\n      dup2\n      sload\n      dup2\n      mstore\n      swap1\n      0x01\n      add\n      swap1\n      0x20\n      add\n      dup1\n      dup4\n      gt\n      tag_264\n      jumpi\n      dup3\n      swap1\n      sub\n      0x1f\n      and\n      dup3\n      add\n      swap2\n    tag_262:\n      pop\n      pop\n      pop\n      pop\n      pop\n      swap1\n      dup1\n      0x03\n      add\n      dup1\n      sload\n      tag_265\n      swap1\n      tag_162\n      jump\t// in\n    tag_265:\n      dup1\n      0x1f\n      add\n      0x20\n      dup1\n      swap2\n      div\n      mul\n      0x20\n      add\n      mload(0x40)\n      swap1\n      dup2\n      add\n      0x40\n      mstore\n      dup1\n      swap3\n      swap2\n      swap1\n      dup2\n      dup2\n      mstore\n      0x20\n      add\n      dup3\n      dup1\n      sload\n      tag_266\n      swap1\n      tag_162\n      jump\t// in\n    tag_266:\n      dup1\n      iszero\n      tag_267\n      jumpi\n      dup1\n      0x1f\n      lt\n      tag_268\n      jumpi\n      0x0100\n      dup1\n      dup4\n      sload\n      div\n      mul\n      dup4\n      mstore\n      swap2\n      0x20\n      add\n      swap2\n      jump(tag_267)\n    tag_268:\n      dup3\n      add\n      swap2\n      swap1\n      0x00\n      mstore\n      keccak256(0x00, 0x20)\n      swap1\n    tag_269:\n      dup2\n      sload\n      dup2\n      mstore\n      swap1\n      0x01\n      add\n      swap1\n      0x20\n      add\n      dup1\n      dup4\n      gt\n      tag_269\n      jumpi\n      dup3\n      swap1\n      sub\n      0x1f\n      and\n      dup3\n      add\n      swap2\n    tag_267:\n      pop\n      pop\n      pop\n      pop\n      pop\n      swap1\n      pop\n      dup5\n      jump\t// out\n        /* \"contracts/PropertyTrade.sol\":1055:1105  EarlyTermination[] public earlyTerminationRequests */\n    tag_74:\n      0x08\n      dup2\n      dup2\n      sload\n      dup2\n      lt\n      tag_270\n      jumpi\n      0x00\n      dup1\n      revert\n    tag_270:\n      swap1\n      0x00\n      mstore\n      keccak256(0x00, 0x20)\n      swap1\n      0x04\n      mul\n      add\n      0x00\n      swap2\n      pop\n      swap1\n      pop\n      dup1\n      0x00\n      add\n      0x00\n      swap1\n      sload\n      swap1\n      0x0100\n      exp\n      swap1\n      div\n      0xffffffffffffffffffffffffffffffffffffffff\n      and\n      swap1\n      dup1\n      0x01\n      add\n      sload\n      swap1\n      dup1\n      0x02\n      add\n      sload\n      swap1\n      dup1\n      0x03\n      add\n      0x00\n      swap1\n      sload\n      swap1\n      0x0100\n      exp\n      swap1\n      div\n      0xff\n      and\n      swap1\n      pop\n      dup5\n      jump\t// out\n        /* \"contracts/PropertyTrade.sol\":809:851  mapping(int => Property) public properties */\n    tag_79:\n      mstore(0x20, 0x01)\n      dup1\n      0x00\n      mstore\n      keccak256(0x00, 0x40)\n      0x00\n      swap2\n      pop\n      swap1\n      pop\n      dup1\n      0x00\n      add\n      sload\n      swap1\n      dup1\n      0x01\n      add\n      dup1\n      sload\n      tag_272\n      swap1\n      tag_162\n      jump\t// in\n    tag_272:\n      dup1\n      0x1f\n      add\n      0x20\n      dup1\n      swap2\n      div\n      mul\n      0x20\n      add\n      mload(0x40)\n      swap1\n      dup2\n      add\n      0x40\n      mstore\n      dup1\n      swap3\n      swap2\n      swap1\n      dup2\n      dup2\n      mstore\n      0x20\n      add\n      dup3\n      dup1\n      sload\n      tag_273\n      swap1\n      tag_162\n      jump\t// in\n    tag_273:\n      dup1\n      iszero\n      tag_274\n      jumpi\n      dup1\n      0x1f\n      lt\n      tag_275\n      jumpi\n      0x0100\n      dup1\n      dup4\n      sload\n      div\n      mul\n      dup4\n      mstore\n      swap2\n      0x20\n      add\n      swap2\n      jump(tag_274)\n    tag_275:\n      dup3\n      add\n      swap2\n      swap1\n      0x00\n      mstore\n      keccak256(0x00, 0x20)\n      swap1\n    tag_276:\n      dup2\n      sload\n      dup2\n      mstore\n      swap1\n      0x01\n      add\n      swap1\n      0x20\n      add\n      dup1\n      dup4\n      gt\n      tag_276\n      jumpi\n      dup3\n      swap1\n      sub\n      0x1f\n      and\n      dup3\n      add\n      swap2\n    tag_274:\n      pop\n      pop\n      pop\n      pop\n      pop\n      swap1\n      dup1\n      0x02\n      add\n      dup1\n      sload\n      tag_277\n      swap1\n      tag_162\n      jump\t// in\n    tag_277:\n      dup1\n      0x1f\n      add\n      0x20\n      dup1\n      swap2\n      div\n      mul\n      0x20\n      add\n      mload(0x40)\n      swap1\n      dup2\n      add\n      0x40\n      mstore\n      dup1\n      swap3\n      swap2\n      swap1\n      dup2\n      dup2\n      mstore\n      0x20\n      add\n      dup3\n      dup1\n      sload\n      tag_278\n      swap1\n      tag_162\n      jump\t// in\n    tag_278:\n      dup1\n      iszero\n      tag_279\n      jumpi\n      dup1\n      0x1f\n      lt\n      tag_280\n      jumpi\n      0x0100\n      dup1\n      dup4\n      sload\n      div\n      mul\n      dup4\n      mstore\n      swap2\n      0x20\n      add\n      swap2\n      jump(tag_279)\n    tag_280:\n      dup3\n      add\n      swap2\n      swap1\n      0x00\n      mstore\n      keccak256(0x00, 0x20)\n      swap1\n    tag_281:\n      dup2\n      sload\n      dup2\n      mstore\n      swap1\n      0x01\n      add\n      swap1\n      0x20\n      add\n      dup1\n      dup4\n      gt\n      tag_281\n      jumpi\n      dup3\n      swap1\n      sub\n      0x1f\n      and\n      dup3\n      add\n      swap2\n    tag_279:\n      pop\n      pop\n      pop\n      pop\n      pop\n      swap1\n      dup1\n      0x03\n      add\n      0x00\n      swap1\n      sload\n      swap1\n      0x0100\n      exp\n      swap1\n      div\n      0xffffffffffffffffffffffffffffffffffffffff\n      and\n      swap1\n      dup1\n      0x03\n      add\n      0x14\n      swap1\n      sload\n      swap1\n      0x0100\n      exp\n      swap1\n      div\n      0xff\n      and\n      swap1\n      dup1\n      0x04\n      add\n      0x00\n      swap1\n      sload\n      swap1\n      0x0100\n      exp\n      swap1\n      div\n      0xffffffffffffffffffffffffffffffffffffffff\n      and\n      swap1\n      pop\n      dup7\n      jump\t// out\n        /* \"contracts/PropertyTrade.sol\":860:885  address[] public userList */\n    tag_84:\n      0x02\n      dup2\n      dup2\n      sload\n      dup2\n      lt\n      tag_282\n      jumpi\n      0x00\n      dup1\n      revert\n    tag_282:\n      swap1\n      0x00\n      mstore\n      keccak256(0x00, 0x20)\n      add\n      0x00\n      swap2\n      pop\n      sload\n      swap1\n      0x0100\n      exp\n      swap1\n      div\n      0xffffffffffffffffffffffffffffffffffffffff\n      and\n      dup2\n      jump\t// out\n        /* \"contracts/PropertyTrade.sol\":995:1014  Rent[] public rents */\n    tag_89:\n      0x06\n      dup2\n      dup2\n      sload\n      dup2\n      lt\n      tag_284\n      jumpi\n      0x00\n      dup1\n      revert\n    tag_284:\n      swap1\n      0x00\n      mstore\n      keccak256(0x00, 0x20)\n      swap1\n      0x04\n      mul\n      add\n      0x00\n      swap2\n      pop\n      swap1\n      pop\n      dup1\n      0x00\n      add\n      sload\n      swap1\n      dup1\n      0x01\n      add\n      0x00\n      swap1\n      sload\n      swap1\n      0x0100\n      exp\n      swap1\n      div\n      0xffffffffffffffffffffffffffffffffffffffff\n      and\n      swap1\n      dup1\n      0x02\n      add\n      sload\n      swap1\n      dup1\n      0x03\n      add\n      sload\n      swap1\n      pop\n      dup5\n      jump\t// out\n        /* \"contracts/PropertyTrade.sol\":765:802  mapping(address => User) public users */\n    tag_95:\n      mstore(0x20, 0x00)\n      dup1\n      0x00\n      mstore\n      keccak256(0x00, 0x40)\n      0x00\n      swap2\n      pop\n      swap1\n      pop\n      dup1\n      0x00\n      add\n      0x00\n      swap1\n      sload\n      swap1\n      0x0100\n      exp\n      swap1\n      div\n      0xff\n      and\n      swap1\n      dup1\n      0x00\n      add\n      0x01\n      swap1\n      sload\n      swap1\n      0x0100\n      exp\n      swap1\n      div\n      0xff\n      and\n      swap1\n      dup1\n      0x01\n      add\n      dup1\n      sload\n      tag_286\n      swap1\n      tag_162\n      jump\t// in\n    tag_286:\n      dup1\n      0x1f\n      add\n      0x20\n      dup1\n      swap2\n      div\n      mul\n      0x20\n      add\n      mload(0x40)\n      swap1\n      dup2\n      add\n      0x40\n      mstore\n      dup1\n      swap3\n      swap2\n      swap1\n      dup2\n      dup2\n      mstore\n      0x20\n      add\n      dup3\n      dup1\n      sload\n      tag_287\n      swap1\n      tag_162\n      jump\t// in\n    tag_287:\n      dup1\n      iszero\n      tag_288\n      jumpi\n      dup1\n      0x1f\n      lt\n      tag_289\n      jumpi\n      0x0100\n      dup1\n      dup4\n      sload\n      div\n      mul\n      dup4\n      mstore\n      swap2\n      0x20\n      add\n      swap2\n      jump(tag_288)\n    tag_289:\n      dup3\n      add\n      swap2\n      swap1\n      0x00\n      mstore\n      keccak256(0x00, 0x20)\n      swap1\n    tag_290:\n      dup2\n      sload\n      dup2\n      mstore\n      swap1\n      0x01\n      add\n      swap1\n      0x20\n      add\n      dup1\n      dup4\n      gt\n      tag_290\n      jumpi\n      dup3\n      swap1\n      sub\n      0x1f\n      and\n      dup3\n      add\n      swap2\n    tag_288:\n      pop\n      pop\n      pop\n      pop\n      pop\n      swap1\n      pop\n      dup4\n      jump\t// out\n        /* \"contracts/PropertyTrade.sol\":2909:3389  function replyTheComplain(uint complainIndex , string memory reply)public{... */\n    tag_101:\n        /* \"contracts/PropertyTrade.sol\":3001:3006  users */\n      0x00\n        /* \"contracts/PropertyTrade.sol\":3001:3018  users[msg.sender] */\n      dup1\n        /* \"contracts/PropertyTrade.sol\":3007:3017  msg.sender */\n      caller\n        /* \"contracts/PropertyTrade.sol\":3001:3018  users[msg.sender] */\n      0xffffffffffffffffffffffffffffffffffffffff\n      and\n      0xffffffffffffffffffffffffffffffffffffffff\n      and\n      dup2\n      mstore\n      0x20\n      add\n      swap1\n      dup2\n      mstore\n      0x20\n      add\n      0x00\n      keccak256\n        /* \"contracts/PropertyTrade.sol\":3001:3029  users[msg.sender].isLandlord */\n      0x00\n      add\n      0x01\n      swap1\n      sload\n      swap1\n      0x0100\n      exp\n      swap1\n      div\n      0xff\n      and\n        /* \"contracts/PropertyTrade.sol\":2993:3070  require(users[msg.sender].isLandlord,\"only landlords can reply to complains\") */\n      tag_292\n      jumpi\n      mload(0x40)\n      0x08c379a000000000000000000000000000000000000000000000000000000000\n      dup2\n      mstore\n      0x04\n      add\n      tag_293\n      swap1\n      tag_294\n      jump\t// in\n    tag_293:\n      mload(0x40)\n      dup1\n      swap2\n      sub\n      swap1\n      revert\n    tag_292:\n        /* \"contracts/PropertyTrade.sol\":3105:3114  complains */\n      0x07\n        /* \"contracts/PropertyTrade.sol\":3105:3121  complains.length */\n      dup1\n      sload\n      swap1\n      pop\n        /* \"contracts/PropertyTrade.sol\":3089:3102  complainIndex */\n      dup3\n        /* \"contracts/PropertyTrade.sol\":3089:3121  complainIndex < complains.length */\n      lt\n        /* \"contracts/PropertyTrade.sol\":3081:3149  require(complainIndex < complains.length, \"Invalid complaint index\") */\n      tag_295\n      jumpi\n      mload(0x40)\n      0x08c379a000000000000000000000000000000000000000000000000000000000\n      dup2\n      mstore\n      0x04\n      add\n      tag_296\n      swap1\n      tag_297\n      jump\t// in\n    tag_296:\n      mload(0x40)\n      dup1\n      swap2\n      sub\n      swap1\n      revert\n    tag_295:\n        /* \"contracts/PropertyTrade.sol\":3160:3185  Complain storage complain */\n      0x00\n        /* \"contracts/PropertyTrade.sol\":3188:3197  complains */\n      0x07\n        /* \"contracts/PropertyTrade.sol\":3198:3211  complainIndex */\n      dup4\n        /* \"contracts/PropertyTrade.sol\":3188:3212  complains[complainIndex] */\n      dup2\n      sload\n      dup2\n      lt\n      tag_298\n      jumpi\n      tag_299\n      tag_159\n      jump\t// in\n    tag_299:\n    tag_298:\n      swap1\n      0x00\n      mstore\n      keccak256(0x00, 0x20)\n      swap1\n      0x04\n      mul\n      add\n        /* \"contracts/PropertyTrade.sol\":3160:3212  Complain storage complain = complains[complainIndex] */\n      swap1\n      pop\n        /* \"contracts/PropertyTrade.sol\":3270:3280  msg.sender */\n      caller\n        /* \"contracts/PropertyTrade.sol\":3231:3280  properties[complain.rentalId].owner == msg.sender */\n      0xffffffffffffffffffffffffffffffffffffffff\n      and\n        /* \"contracts/PropertyTrade.sol\":3231:3241  properties */\n      0x01\n        /* \"contracts/PropertyTrade.sol\":3231:3260  properties[complain.rentalId] */\n      0x00\n        /* \"contracts/PropertyTrade.sol\":3242:3250  complain */\n      dup4\n        /* \"contracts/PropertyTrade.sol\":3242:3259  complain.rentalId */\n      0x01\n      add\n      sload\n        /* \"contracts/PropertyTrade.sol\":3231:3260  properties[complain.rentalId] */\n      dup2\n      mstore\n      0x20\n      add\n      swap1\n      dup2\n      mstore\n      0x20\n      add\n      0x00\n      keccak256\n        /* \"contracts/PropertyTrade.sol\":3231:3266  properties[complain.rentalId].owner */\n      0x03\n      add\n      0x00\n      swap1\n      sload\n      swap1\n      0x0100\n      exp\n      swap1\n      div\n      0xffffffffffffffffffffffffffffffffffffffff\n      and\n        /* \"contracts/PropertyTrade.sol\":3231:3280  properties[complain.rentalId].owner == msg.sender */\n      0xffffffffffffffffffffffffffffffffffffffff\n      and\n      eq\n        /* \"contracts/PropertyTrade.sol\":3223:3348  require(properties[complain.rentalId].owner == msg.sender, \"You are not the owner of the property related to this complaint\") */\n      tag_301\n      jumpi\n      mload(0x40)\n      0x08c379a000000000000000000000000000000000000000000000000000000000\n      dup2\n      mstore\n      0x04\n      add\n      tag_302\n      swap1\n      tag_303\n      jump\t// in\n    tag_302:\n      mload(0x40)\n      dup1\n      swap2\n      sub\n      swap1\n      revert\n    tag_301:\n        /* \"contracts/PropertyTrade.sol\":3376:3381  reply */\n      dup2\n        /* \"contracts/PropertyTrade.sol\":3359:3367  complain */\n      dup2\n        /* \"contracts/PropertyTrade.sol\":3359:3373  complain.reply */\n      0x03\n      add\n        /* \"contracts/PropertyTrade.sol\":3359:3381  complain.reply = reply */\n      swap1\n      dup2\n      tag_304\n      swap2\n      swap1\n      tag_127\n      jump\t// in\n    tag_304:\n      pop\n        /* \"contracts/PropertyTrade.sol\":2982:3389  {... */\n      pop\n        /* \"contracts/PropertyTrade.sol\":2909:3389  function replyTheComplain(uint complainIndex , string memory reply)public{... */\n      pop\n      pop\n      jump\t// out\n        /* \"contracts/PropertyTrade.sol\":6846:7447  function approveEarlyTermination(uint256 requestIndex) public {... */\n    tag_104:\n        /* \"contracts/PropertyTrade.sol\":6927:6932  users */\n      0x00\n        /* \"contracts/PropertyTrade.sol\":6927:6944  users[msg.sender] */\n      dup1\n        /* \"contracts/PropertyTrade.sol\":6933:6943  msg.sender */\n      caller\n        /* \"contracts/PropertyTrade.sol\":6927:6944  users[msg.sender] */\n      0xffffffffffffffffffffffffffffffffffffffff\n      and\n      0xffffffffffffffffffffffffffffffffffffffff\n      and\n      dup2\n      mstore\n      0x20\n      add\n      swap1\n      dup2\n      mstore\n      0x20\n      add\n      0x00\n      keccak256\n        /* \"contracts/PropertyTrade.sol\":6927:6955  users[msg.sender].isLandlord */\n      0x00\n      add\n      0x01\n      swap1\n      sload\n      swap1\n      0x0100\n      exp\n      swap1\n      div\n      0xff\n      and\n        /* \"contracts/PropertyTrade.sol\":6919:7004  require(users[msg.sender].isLandlord, \"Only landlords can approve early termination\") */\n      tag_306\n      jumpi\n      mload(0x40)\n      0x08c379a000000000000000000000000000000000000000000000000000000000\n      dup2\n      mstore\n      0x04\n      add\n      tag_307\n      swap1\n      tag_308\n      jump\t// in\n    tag_307:\n      mload(0x40)\n      dup1\n      swap2\n      sub\n      swap1\n      revert\n    tag_306:\n        /* \"contracts/PropertyTrade.sol\":7038:7062  earlyTerminationRequests */\n      0x08\n        /* \"contracts/PropertyTrade.sol\":7038:7069  earlyTerminationRequests.length */\n      dup1\n      sload\n      swap1\n      pop\n        /* \"contracts/PropertyTrade.sol\":7023:7035  requestIndex */\n      dup2\n        /* \"contracts/PropertyTrade.sol\":7023:7069  requestIndex < earlyTerminationRequests.length */\n      lt\n        /* \"contracts/PropertyTrade.sol\":7015:7095  require(requestIndex < earlyTerminationRequests.length, \"Invalid request index\") */\n      tag_309\n      jumpi\n      mload(0x40)\n      0x08c379a000000000000000000000000000000000000000000000000000000000\n      dup2\n      mstore\n      0x04\n      add\n      tag_310\n      swap1\n      tag_311\n      jump\t// in\n    tag_310:\n      mload(0x40)\n      dup1\n      swap2\n      sub\n      swap1\n      revert\n    tag_309:\n        /* \"contracts/PropertyTrade.sol\":7108:7140  EarlyTermination storage request */\n      0x00\n        /* \"contracts/PropertyTrade.sol\":7143:7167  earlyTerminationRequests */\n      0x08\n        /* \"contracts/PropertyTrade.sol\":7168:7180  requestIndex */\n      dup3\n        /* \"contracts/PropertyTrade.sol\":7143:7181  earlyTerminationRequests[requestIndex] */\n      dup2\n      sload\n      dup2\n      lt\n      tag_312\n      jumpi\n      tag_313\n      tag_159\n      jump\t// in\n    tag_313:\n    tag_312:\n      swap1\n      0x00\n      mstore\n      keccak256(0x00, 0x20)\n      swap1\n      0x04\n      mul\n      add\n        /* \"contracts/PropertyTrade.sol\":7108:7181  EarlyTermination storage request = earlyTerminationRequests[requestIndex] */\n      swap1\n      pop\n        /* \"contracts/PropertyTrade.sol\":7238:7248  msg.sender */\n      caller\n        /* \"contracts/PropertyTrade.sol\":7200:7248  properties[request.rentalId].owner == msg.sender */\n      0xffffffffffffffffffffffffffffffffffffffff\n      and\n        /* \"contracts/PropertyTrade.sol\":7200:7210  properties */\n      0x01\n        /* \"contracts/PropertyTrade.sol\":7200:7228  properties[request.rentalId] */\n      0x00\n        /* \"contracts/PropertyTrade.sol\":7211:7218  request */\n      dup4\n        /* \"contracts/PropertyTrade.sol\":7211:7227  request.rentalId */\n      0x01\n      add\n      sload\n        /* \"contracts/PropertyTrade.sol\":7200:7228  properties[request.rentalId] */\n      dup2\n      mstore\n      0x20\n      add\n      swap1\n      dup2\n      mstore\n      0x20\n      add\n      0x00\n      keccak256\n        /* \"contracts/PropertyTrade.sol\":7200:7234  properties[request.rentalId].owner */\n      0x03\n      add\n      0x00\n      swap1\n      sload\n      swap1\n      0x0100\n      exp\n      swap1\n      div\n      0xffffffffffffffffffffffffffffffffffffffff\n      and\n        /* \"contracts/PropertyTrade.sol\":7200:7248  properties[request.rentalId].owner == msg.sender */\n      0xffffffffffffffffffffffffffffffffffffffff\n      and\n      eq\n        /* \"contracts/PropertyTrade.sol\":7192:7290  require(properties[request.rentalId].owner == msg.sender, \"You are not the owner of the property\") */\n      tag_315\n      jumpi\n      mload(0x40)\n      0x08c379a000000000000000000000000000000000000000000000000000000000\n      dup2\n      mstore\n      0x04\n      add\n      tag_316\n      swap1\n      tag_317\n      jump\t// in\n    tag_316:\n      mload(0x40)\n      dup1\n      swap2\n      sub\n      swap1\n      revert\n    tag_315:\n        /* \"contracts/PropertyTrade.sol\":7301:7348  terminateRent(request.rentalId, request.tenant) */\n      tag_318\n        /* \"contracts/PropertyTrade.sol\":7315:7322  request */\n      dup2\n        /* \"contracts/PropertyTrade.sol\":7315:7331  request.rentalId */\n      0x01\n      add\n      sload\n        /* \"contracts/PropertyTrade.sol\":7333:7340  request */\n      dup3\n        /* \"contracts/PropertyTrade.sol\":7333:7347  request.tenant */\n      0x00\n      add\n      0x00\n      swap1\n      sload\n      swap1\n      0x0100\n      exp\n      swap1\n      div\n      0xffffffffffffffffffffffffffffffffffffffff\n      and\n        /* \"contracts/PropertyTrade.sol\":7301:7314  terminateRent */\n      tag_113\n        /* \"contracts/PropertyTrade.sol\":7301:7348  terminateRent(request.rentalId, request.tenant) */\n      jump\t// in\n    tag_318:\n        /* \"contracts/PropertyTrade.sol\":7380:7384  true */\n      0x01\n        /* \"contracts/PropertyTrade.sol\":7359:7366  request */\n      dup2\n        /* \"contracts/PropertyTrade.sol\":7359:7377  request.isApproved */\n      0x03\n      add\n      0x00\n        /* \"contracts/PropertyTrade.sol\":7359:7384  request.isApproved = true */\n      0x0100\n      exp\n      dup2\n      sload\n      dup2\n      0xff\n      mul\n      not\n      and\n      swap1\n      dup4\n      iszero\n      iszero\n      mul\n      or\n      swap1\n      sstore\n      pop\n        /* \"contracts/PropertyTrade.sol\":7435:7439  true */\n      0x01\n        /* \"contracts/PropertyTrade.sol\":7397:7407  properties */\n      dup1\n        /* \"contracts/PropertyTrade.sol\":7397:7425  properties[request.rentalId] */\n      0x00\n        /* \"contracts/PropertyTrade.sol\":7408:7415  request */\n      dup4\n        /* \"contracts/PropertyTrade.sol\":7408:7424  request.rentalId */\n      0x01\n      add\n      sload\n        /* \"contracts/PropertyTrade.sol\":7397:7425  properties[request.rentalId] */\n      dup2\n      mstore\n      0x20\n      add\n      swap1\n      dup2\n      mstore\n      0x20\n      add\n      0x00\n      keccak256\n        /* \"contracts/PropertyTrade.sol\":7397:7434  properties[request.rentalId].isRented */\n      0x03\n      add\n      0x14\n        /* \"contracts/PropertyTrade.sol\":7397:7439  properties[request.rentalId].isRented=true */\n      0x0100\n      exp\n      dup2\n      sload\n      dup2\n      0xff\n      mul\n      not\n      and\n      swap1\n      dup4\n      iszero\n      iszero\n      mul\n      or\n      swap1\n      sstore\n      pop\n        /* \"contracts/PropertyTrade.sol\":6908:7447  {... */\n      pop\n        /* \"contracts/PropertyTrade.sol\":6846:7447  function approveEarlyTermination(uint256 requestIndex) public {... */\n      pop\n      jump\t// out\n        /* \"contracts/PropertyTrade.sol\":5040:5732  function getProperties(int id) public view returns (int[] memory, string[] memory, string[] memory, address[] memory) {... */\n    tag_107:\n        /* \"contracts/PropertyTrade.sol\":5092:5104  int[] memory */\n      0x60\n        /* \"contracts/PropertyTrade.sol\":5106:5121  string[] memory */\n      dup1\n        /* \"contracts/PropertyTrade.sol\":5123:5138  string[] memory */\n      0x60\n        /* \"contracts/PropertyTrade.sol\":5140:5156  address[] memory */\n      dup1\n        /* \"contracts/PropertyTrade.sol\":5169:5191  int[] memory rentalIds */\n      0x00\n        /* \"contracts/PropertyTrade.sol\":5204:5205  1 */\n      0x01\n        /* \"contracts/PropertyTrade.sol\":5194:5206  new int[](1) */\n      0xffffffffffffffff\n      dup2\n      gt\n      iszero\n      tag_320\n      jumpi\n      tag_321\n      tag_140\n      jump\t// in\n    tag_321:\n    tag_320:\n      mload(0x40)\n      swap1\n      dup1\n      dup3\n      mstore\n      dup1\n      0x20\n      mul\n      0x20\n      add\n      dup3\n      add\n      0x40\n      mstore\n      dup1\n      iszero\n      tag_322\n      jumpi\n      dup2\n      0x20\n      add\n      0x20\n      dup3\n      mul\n      dup1\n      calldatasize\n      dup4\n      calldatacopy\n      dup1\n      dup3\n      add\n      swap2\n      pop\n      pop\n      swap1\n      pop\n    tag_322:\n      pop\n        /* \"contracts/PropertyTrade.sol\":5169:5206  int[] memory rentalIds = new int[](1) */\n      swap1\n      pop\n        /* \"contracts/PropertyTrade.sol\":5217:5246  string[] memory propertyNames */\n      0x00\n        /* \"contracts/PropertyTrade.sol\":5262:5263  1 */\n      0x01\n        /* \"contracts/PropertyTrade.sol\":5249:5264  new string[](1) */\n      0xffffffffffffffff\n      dup2\n      gt\n      iszero\n      tag_323\n      jumpi\n      tag_324\n      tag_140\n      jump\t// in\n    tag_324:\n    tag_323:\n      mload(0x40)\n      swap1\n      dup1\n      dup3\n      mstore\n      dup1\n      0x20\n      mul\n      0x20\n      add\n      dup3\n      add\n      0x40\n      mstore\n      dup1\n      iszero\n      tag_325\n      jumpi\n      dup2\n      0x20\n      add\n    tag_326:\n      0x60\n      dup2\n      mstore\n      0x20\n      add\n      swap1\n      0x01\n      swap1\n      sub\n      swap1\n      dup2\n      tag_326\n      jumpi\n      swap1\n      pop\n    tag_325:\n      pop\n        /* \"contracts/PropertyTrade.sol\":5217:5264  string[] memory propertyNames = new string[](1) */\n      swap1\n      pop\n        /* \"contracts/PropertyTrade.sol\":5275:5311  string[] memory propertyDescriptions */\n      0x00\n        /* \"contracts/PropertyTrade.sol\":5327:5328  1 */\n      0x01\n        /* \"contracts/PropertyTrade.sol\":5314:5329  new string[](1) */\n      0xffffffffffffffff\n      dup2\n      gt\n      iszero\n      tag_327\n      jumpi\n      tag_328\n      tag_140\n      jump\t// in\n    tag_328:\n    tag_327:\n      mload(0x40)\n      swap1\n      dup1\n      dup3\n      mstore\n      dup1\n      0x20\n      mul\n      0x20\n      add\n      dup3\n      add\n      0x40\n      mstore\n      dup1\n      iszero\n      tag_329\n      jumpi\n      dup2\n      0x20\n      add\n    tag_330:\n      0x60\n      dup2\n      mstore\n      0x20\n      add\n      swap1\n      0x01\n      swap1\n      sub\n      swap1\n      dup2\n      tag_330\n      jumpi\n      swap1\n      pop\n    tag_329:\n      pop\n        /* \"contracts/PropertyTrade.sol\":5275:5329  string[] memory propertyDescriptions = new string[](1) */\n      swap1\n      pop\n        /* \"contracts/PropertyTrade.sol\":5340:5371  address[] memory propertyOwners */\n      0x00\n        /* \"contracts/PropertyTrade.sol\":5388:5389  1 */\n      0x01\n        /* \"contracts/PropertyTrade.sol\":5374:5390  new address[](1) */\n      0xffffffffffffffff\n      dup2\n      gt\n      iszero\n      tag_331\n      jumpi\n      tag_332\n      tag_140\n      jump\t// in\n    tag_332:\n    tag_331:\n      mload(0x40)\n      swap1\n      dup1\n      dup3\n      mstore\n      dup1\n      0x20\n      mul\n      0x20\n      add\n      dup3\n      add\n      0x40\n      mstore\n      dup1\n      iszero\n      tag_333\n      jumpi\n      dup2\n      0x20\n      add\n      0x20\n      dup3\n      mul\n      dup1\n      calldatasize\n      dup4\n      calldatacopy\n      dup1\n      dup3\n      add\n      swap2\n      pop\n      pop\n      swap1\n      pop\n    tag_333:\n      pop\n        /* \"contracts/PropertyTrade.sol\":5340:5390  address[] memory propertyOwners = new address[](1) */\n      swap1\n      pop\n        /* \"contracts/PropertyTrade.sol\":5403:5427  Property memory property */\n      0x00\n        /* \"contracts/PropertyTrade.sol\":5430:5440  properties */\n      0x01\n        /* \"contracts/PropertyTrade.sol\":5430:5444  properties[id] */\n      0x00\n        /* \"contracts/PropertyTrade.sol\":5441:5443  id */\n      dup12\n        /* \"contracts/PropertyTrade.sol\":5430:5444  properties[id] */\n      dup2\n      mstore\n      0x20\n      add\n      swap1\n      dup2\n      mstore\n      0x20\n      add\n      0x00\n      keccak256\n        /* \"contracts/PropertyTrade.sol\":5403:5444  Property memory property = properties[id] */\n      mload(0x40)\n      dup1\n      0xc0\n      add\n      0x40\n      mstore\n      swap1\n      dup2\n      0x00\n      dup3\n      add\n      sload\n      dup2\n      mstore\n      0x20\n      add\n      0x01\n      dup3\n      add\n      dup1\n      sload\n      tag_334\n      swap1\n      tag_162\n      jump\t// in\n    tag_334:\n      dup1\n      0x1f\n      add\n      0x20\n      dup1\n      swap2\n      div\n      mul\n      0x20\n      add\n      mload(0x40)\n      swap1\n      dup2\n      add\n      0x40\n      mstore\n      dup1\n      swap3\n      swap2\n      swap1\n      dup2\n      dup2\n      mstore\n      0x20\n      add\n      dup3\n      dup1\n      sload\n      tag_335\n      swap1\n      tag_162\n      jump\t// in\n    tag_335:\n      dup1\n      iszero\n      tag_336\n      jumpi\n      dup1\n      0x1f\n      lt\n      tag_337\n      jumpi\n      0x0100\n      dup1\n      dup4\n      sload\n      div\n      mul\n      dup4\n      mstore\n      swap2\n      0x20\n      add\n      swap2\n      jump(tag_336)\n    tag_337:\n      dup3\n      add\n      swap2\n      swap1\n      0x00\n      mstore\n      keccak256(0x00, 0x20)\n      swap1\n    tag_338:\n      dup2\n      sload\n      dup2\n      mstore\n      swap1\n      0x01\n      add\n      swap1\n      0x20\n      add\n      dup1\n      dup4\n      gt\n      tag_338\n      jumpi\n      dup3\n      swap1\n      sub\n      0x1f\n      and\n      dup3\n      add\n      swap2\n    tag_336:\n      pop\n      pop\n      pop\n      pop\n      pop\n      dup2\n      mstore\n      0x20\n      add\n      0x02\n      dup3\n      add\n      dup1\n      sload\n      tag_339\n      swap1\n      tag_162\n      jump\t// in\n    tag_339:\n      dup1\n      0x1f\n      add\n      0x20\n      dup1\n      swap2\n      div\n      mul\n      0x20\n      add\n      mload(0x40)\n      swap1\n      dup2\n      add\n      0x40\n      mstore\n      dup1\n      swap3\n      swap2\n      swap1\n      dup2\n      dup2\n      mstore\n      0x20\n      add\n      dup3\n      dup1\n      sload\n      tag_340\n      swap1\n      tag_162\n      jump\t// in\n    tag_340:\n      dup1\n      iszero\n      tag_341\n      jumpi\n      dup1\n      0x1f\n      lt\n      tag_342\n      jumpi\n      0x0100\n      dup1\n      dup4\n      sload\n      div\n      mul\n      dup4\n      mstore\n      swap2\n      0x20\n      add\n      swap2\n      jump(tag_341)\n    tag_342:\n      dup3\n      add\n      swap2\n      swap1\n      0x00\n      mstore\n      keccak256(0x00, 0x20)\n      swap1\n    tag_343:\n      dup2\n      sload\n      dup2\n      mstore\n      swap1\n      0x01\n      add\n      swap1\n      0x20\n      add\n      dup1\n      dup4\n      gt\n      tag_343\n      jumpi\n      dup3\n      swap1\n      sub\n      0x1f\n      and\n      dup3\n      add\n      swap2\n    tag_341:\n      pop\n      pop\n      pop\n      pop\n      pop\n      dup2\n      mstore\n      0x20\n      add\n      0x03\n      dup3\n      add\n      0x00\n      swap1\n      sload\n      swap1\n      0x0100\n      exp\n      swap1\n      div\n      0xffffffffffffffffffffffffffffffffffffffff\n      and\n      0xffffffffffffffffffffffffffffffffffffffff\n      and\n      0xffffffffffffffffffffffffffffffffffffffff\n      and\n      dup2\n      mstore\n      0x20\n      add\n      0x03\n      dup3\n      add\n      0x14\n      swap1\n      sload\n      swap1\n      0x0100\n      exp\n      swap1\n      div\n      0xff\n      and\n      iszero\n      iszero\n      iszero\n      iszero\n      dup2\n      mstore\n      0x20\n      add\n      0x04\n      dup3\n      add\n      0x00\n      swap1\n      sload\n      swap1\n      0x0100\n      exp\n      swap1\n      div\n      0xffffffffffffffffffffffffffffffffffffffff\n      and\n      0xffffffffffffffffffffffffffffffffffffffff\n      and\n      0xffffffffffffffffffffffffffffffffffffffff\n      and\n      dup2\n      mstore\n      pop\n      pop\n      swap1\n      pop\n        /* \"contracts/PropertyTrade.sol\":5480:5488  property */\n      dup1\n        /* \"contracts/PropertyTrade.sol\":5480:5491  property.id */\n      0x00\n      add\n      mload\n        /* \"contracts/PropertyTrade.sol\":5465:5474  rentalIds */\n      dup6\n        /* \"contracts/PropertyTrade.sol\":5475:5476  0 */\n      0x00\n        /* \"contracts/PropertyTrade.sol\":5465:5477  rentalIds[0] */\n      dup2\n      mload\n      dup2\n      lt\n      tag_344\n      jumpi\n      tag_345\n      tag_159\n      jump\t// in\n    tag_345:\n    tag_344:\n      0x20\n      mul\n      0x20\n      add\n      add\n        /* \"contracts/PropertyTrade.sol\":5465:5491  rentalIds[0] = property.id */\n      dup2\n      dup2\n      mstore\n      pop\n      pop\n        /* \"contracts/PropertyTrade.sol\":5521:5529  property */\n      dup1\n        /* \"contracts/PropertyTrade.sol\":5521:5538  property.location */\n      0x20\n      add\n      mload\n        /* \"contracts/PropertyTrade.sol\":5502:5515  propertyNames */\n      dup5\n        /* \"contracts/PropertyTrade.sol\":5516:5517  0 */\n      0x00\n        /* \"contracts/PropertyTrade.sol\":5502:5518  propertyNames[0] */\n      dup2\n      mload\n      dup2\n      lt\n      tag_346\n      jumpi\n      tag_347\n      tag_159\n      jump\t// in\n    tag_347:\n    tag_346:\n      0x20\n      mul\n      0x20\n      add\n      add\n        /* \"contracts/PropertyTrade.sol\":5502:5538  propertyNames[0] = property.location */\n      dup2\n      swap1\n      mstore\n      pop\n        /* \"contracts/PropertyTrade.sol\":5575:5583  property */\n      dup1\n        /* \"contracts/PropertyTrade.sol\":5575:5595  property.description */\n      0x40\n      add\n      mload\n        /* \"contracts/PropertyTrade.sol\":5549:5569  propertyDescriptions */\n      dup4\n        /* \"contracts/PropertyTrade.sol\":5570:5571  0 */\n      0x00\n        /* \"contracts/PropertyTrade.sol\":5549:5572  propertyDescriptions[0] */\n      dup2\n      mload\n      dup2\n      lt\n      tag_348\n      jumpi\n      tag_349\n      tag_159\n      jump\t// in\n    tag_349:\n    tag_348:\n      0x20\n      mul\n      0x20\n      add\n      add\n        /* \"contracts/PropertyTrade.sol\":5549:5595  propertyDescriptions[0] = property.description */\n      dup2\n      swap1\n      mstore\n      pop\n        /* \"contracts/PropertyTrade.sol\":5626:5634  property */\n      dup1\n        /* \"contracts/PropertyTrade.sol\":5626:5640  property.owner */\n      0x60\n      add\n      mload\n        /* \"contracts/PropertyTrade.sol\":5606:5620  propertyOwners */\n      dup3\n        /* \"contracts/PropertyTrade.sol\":5621:5622  0 */\n      0x00\n        /* \"contracts/PropertyTrade.sol\":5606:5623  propertyOwners[0] */\n      dup2\n      mload\n      dup2\n      lt\n      tag_350\n      jumpi\n      tag_351\n      tag_159\n      jump\t// in\n    tag_351:\n    tag_350:\n      0x20\n      mul\n      0x20\n      add\n      add\n        /* \"contracts/PropertyTrade.sol\":5606:5640  propertyOwners[0] = property.owner */\n      swap1\n      0xffffffffffffffffffffffffffffffffffffffff\n      and\n      swap1\n      dup2\n      0xffffffffffffffffffffffffffffffffffffffff\n      and\n      dup2\n      mstore\n      pop\n      pop\n        /* \"contracts/PropertyTrade.sol\":5661:5670  rentalIds */\n      dup5\n        /* \"contracts/PropertyTrade.sol\":5672:5685  propertyNames */\n      dup5\n        /* \"contracts/PropertyTrade.sol\":5687:5707  propertyDescriptions */\n      dup5\n        /* \"contracts/PropertyTrade.sol\":5709:5723  propertyOwners */\n      dup5\n        /* \"contracts/PropertyTrade.sol\":5653:5724  return (rentalIds, propertyNames, propertyDescriptions, propertyOwners) */\n      swap9\n      pop\n      swap9\n      pop\n      swap9\n      pop\n      swap9\n      pop\n      pop\n      pop\n      pop\n      pop\n      pop\n        /* \"contracts/PropertyTrade.sol\":5040:5732  function getProperties(int id) public view returns (int[] memory, string[] memory, string[] memory, address[] memory) {... */\n      swap2\n      swap4\n      pop\n      swap2\n      swap4\n      jump\t// out\n        /* \"contracts/PropertyTrade.sol\":5740:6234  function terminateRent(int rentalId, address tenant) public {... */\n    tag_113:\n        /* \"contracts/PropertyTrade.sol\":5819:5824  users */\n      0x00\n        /* \"contracts/PropertyTrade.sol\":5819:5836  users[msg.sender] */\n      dup1\n        /* \"contracts/PropertyTrade.sol\":5825:5835  msg.sender */\n      caller\n        /* \"contracts/PropertyTrade.sol\":5819:5836  users[msg.sender] */\n      0xffffffffffffffffffffffffffffffffffffffff\n      and\n      0xffffffffffffffffffffffffffffffffffffffff\n      and\n      dup2\n      mstore\n      0x20\n      add\n      swap1\n      dup2\n      mstore\n      0x20\n      add\n      0x00\n      keccak256\n        /* \"contracts/PropertyTrade.sol\":5819:5847  users[msg.sender].isLandlord */\n      0x00\n      add\n      0x01\n      swap1\n      sload\n      swap1\n      0x0100\n      exp\n      swap1\n      div\n      0xff\n      and\n        /* \"contracts/PropertyTrade.sol\":5811:5887  require(users[msg.sender].isLandlord, \"Only landlords can terminate leases\") */\n      tag_353\n      jumpi\n      mload(0x40)\n      0x08c379a000000000000000000000000000000000000000000000000000000000\n      dup2\n      mstore\n      0x04\n      add\n      tag_354\n      swap1\n      tag_355\n      jump\t// in\n    tag_354:\n      mload(0x40)\n      dup1\n      swap2\n      sub\n      swap1\n      revert\n    tag_353:\n        /* \"contracts/PropertyTrade.sol\":5936:5946  msg.sender */\n      caller\n        /* \"contracts/PropertyTrade.sol\":5906:5946  properties[rentalId].owner == msg.sender */\n      0xffffffffffffffffffffffffffffffffffffffff\n      and\n        /* \"contracts/PropertyTrade.sol\":5906:5916  properties */\n      0x01\n        /* \"contracts/PropertyTrade.sol\":5906:5926  properties[rentalId] */\n      0x00\n        /* \"contracts/PropertyTrade.sol\":5917:5925  rentalId */\n      dup5\n        /* \"contracts/PropertyTrade.sol\":5906:5926  properties[rentalId] */\n      dup2\n      mstore\n      0x20\n      add\n      swap1\n      dup2\n      mstore\n      0x20\n      add\n      0x00\n      keccak256\n        /* \"contracts/PropertyTrade.sol\":5906:5932  properties[rentalId].owner */\n      0x03\n      add\n      0x00\n      swap1\n      sload\n      swap1\n      0x0100\n      exp\n      swap1\n      div\n      0xffffffffffffffffffffffffffffffffffffffff\n      and\n        /* \"contracts/PropertyTrade.sol\":5906:5946  properties[rentalId].owner == msg.sender */\n      0xffffffffffffffffffffffffffffffffffffffff\n      and\n      eq\n        /* \"contracts/PropertyTrade.sol\":5898:5988  require(properties[rentalId].owner == msg.sender, \"You are not the owner of the property\") */\n      tag_356\n      jumpi\n      mload(0x40)\n      0x08c379a000000000000000000000000000000000000000000000000000000000\n      dup2\n      mstore\n      0x04\n      add\n      tag_357\n      swap1\n      tag_317\n      jump\t// in\n    tag_357:\n      mload(0x40)\n      dup1\n      swap2\n      sub\n      swap1\n      revert\n    tag_356:\n        /* \"contracts/PropertyTrade.sol\":6006:6015  uint256 i */\n      0x00\n        /* \"contracts/PropertyTrade.sol\":6001:6227  for (uint256 i = 0; i < rents.length; i++) {... */\n    tag_358:\n        /* \"contracts/PropertyTrade.sol\":6025:6030  rents */\n      0x06\n        /* \"contracts/PropertyTrade.sol\":6025:6037  rents.length */\n      dup1\n      sload\n      swap1\n      pop\n        /* \"contracts/PropertyTrade.sol\":6021:6022  i */\n      dup2\n        /* \"contracts/PropertyTrade.sol\":6021:6037  i < rents.length */\n      lt\n        /* \"contracts/PropertyTrade.sol\":6001:6227  for (uint256 i = 0; i < rents.length; i++) {... */\n      iszero\n      tag_359\n      jumpi\n        /* \"contracts/PropertyTrade.sol\":6084:6092  rentalId */\n      dup3\n        /* \"contracts/PropertyTrade.sol\":6063:6068  rents */\n      0x06\n        /* \"contracts/PropertyTrade.sol\":6069:6070  i */\n      dup3\n        /* \"contracts/PropertyTrade.sol\":6063:6071  rents[i] */\n      dup2\n      sload\n      dup2\n      lt\n      tag_361\n      jumpi\n      tag_362\n      tag_159\n      jump\t// in\n    tag_362:\n    tag_361:\n      swap1\n      0x00\n      mstore\n      keccak256(0x00, 0x20)\n      swap1\n      0x04\n      mul\n      add\n        /* \"contracts/PropertyTrade.sol\":6063:6080  rents[i].rentalId */\n      0x00\n      add\n      sload\n        /* \"contracts/PropertyTrade.sol\":6063:6092  rents[i].rentalId == rentalId */\n      eq\n        /* \"contracts/PropertyTrade.sol\":6063:6121  rents[i].rentalId == rentalId && rents[i].tenant == tenant */\n      dup1\n      iszero\n      tag_364\n      jumpi\n      pop\n        /* \"contracts/PropertyTrade.sol\":6115:6121  tenant */\n      dup2\n        /* \"contracts/PropertyTrade.sol\":6096:6121  rents[i].tenant == tenant */\n      0xffffffffffffffffffffffffffffffffffffffff\n      and\n        /* \"contracts/PropertyTrade.sol\":6096:6101  rents */\n      0x06\n        /* \"contracts/PropertyTrade.sol\":6102:6103  i */\n      dup3\n        /* \"contracts/PropertyTrade.sol\":6096:6104  rents[i] */\n      dup2\n      sload\n      dup2\n      lt\n      tag_365\n      jumpi\n      tag_366\n      tag_159\n      jump\t// in\n    tag_366:\n    tag_365:\n      swap1\n      0x00\n      mstore\n      keccak256(0x00, 0x20)\n      swap1\n      0x04\n      mul\n      add\n        /* \"contracts/PropertyTrade.sol\":6096:6111  rents[i].tenant */\n      0x01\n      add\n      0x00\n      swap1\n      sload\n      swap1\n      0x0100\n      exp\n      swap1\n      div\n      0xffffffffffffffffffffffffffffffffffffffff\n      and\n        /* \"contracts/PropertyTrade.sol\":6096:6121  rents[i].tenant == tenant */\n      0xffffffffffffffffffffffffffffffffffffffff\n      and\n      eq\n        /* \"contracts/PropertyTrade.sol\":6063:6121  rents[i].rentalId == rentalId && rents[i].tenant == tenant */\n    tag_364:\n        /* \"contracts/PropertyTrade.sol\":6059:6216  if (rents[i].rentalId == rentalId && rents[i].tenant == tenant) {... */\n      iszero\n      tag_368\n      jumpi\n        /* \"contracts/PropertyTrade.sol\":6161:6176  block.timestamp */\n      timestamp\n        /* \"contracts/PropertyTrade.sol\":6142:6147  rents */\n      0x06\n        /* \"contracts/PropertyTrade.sol\":6148:6149  i */\n      dup3\n        /* \"contracts/PropertyTrade.sol\":6142:6150  rents[i] */\n      dup2\n      sload\n      dup2\n      lt\n      tag_369\n      jumpi\n      tag_370\n      tag_159\n      jump\t// in\n    tag_370:\n    tag_369:\n      swap1\n      0x00\n      mstore\n      keccak256(0x00, 0x20)\n      swap1\n      0x04\n      mul\n      add\n        /* \"contracts/PropertyTrade.sol\":6142:6158  rents[i].endDate */\n      0x03\n      add\n        /* \"contracts/PropertyTrade.sol\":6142:6176  rents[i].endDate = block.timestamp */\n      dup2\n      swap1\n      sstore\n      pop\n        /* \"contracts/PropertyTrade.sol\":6195:6200  break */\n      jump(tag_359)\n        /* \"contracts/PropertyTrade.sol\":6059:6216  if (rents[i].rentalId == rentalId && rents[i].tenant == tenant) {... */\n    tag_368:\n        /* \"contracts/PropertyTrade.sol\":6039:6042  i++ */\n      dup1\n      dup1\n      0x01\n      add\n      swap2\n      pop\n      pop\n        /* \"contracts/PropertyTrade.sol\":6001:6227  for (uint256 i = 0; i < rents.length; i++) {... */\n      jump(tag_358)\n    tag_359:\n      pop\n        /* \"contracts/PropertyTrade.sol\":5740:6234  function terminateRent(int rentalId, address tenant) public {... */\n      pop\n      pop\n      jump\t// out\n        /* \"contracts/PropertyTrade.sol\":2234:2554  function rentedProperties() public view  returns(address[]memory){... */\n    tag_115:\n        /* \"contracts/PropertyTrade.sol\":2283:2298  address[]memory */\n      0x60\n        /* \"contracts/PropertyTrade.sol\":2310:2344  address[]memory rentedPropertyList */\n      0x00\n        /* \"contracts/PropertyTrade.sol\":2361:2366  rents */\n      0x06\n        /* \"contracts/PropertyTrade.sol\":2361:2373  rents.length */\n      dup1\n      sload\n      swap1\n      pop\n        /* \"contracts/PropertyTrade.sol\":2347:2374  new address[](rents.length) */\n      0xffffffffffffffff\n      dup2\n      gt\n      iszero\n      tag_373\n      jumpi\n      tag_374\n      tag_140\n      jump\t// in\n    tag_374:\n    tag_373:\n      mload(0x40)\n      swap1\n      dup1\n      dup3\n      mstore\n      dup1\n      0x20\n      mul\n      0x20\n      add\n      dup3\n      add\n      0x40\n      mstore\n      dup1\n      iszero\n      tag_375\n      jumpi\n      dup2\n      0x20\n      add\n      0x20\n      dup3\n      mul\n      dup1\n      calldatasize\n      dup4\n      calldatacopy\n      dup1\n      dup3\n      add\n      swap2\n      pop\n      pop\n      swap1\n      pop\n    tag_375:\n      pop\n        /* \"contracts/PropertyTrade.sol\":2310:2374  address[]memory rentedPropertyList = new address[](rents.length) */\n      swap1\n      pop\n        /* \"contracts/PropertyTrade.sol\":2389:2398  uint256 i */\n      0x00\n        /* \"contracts/PropertyTrade.sol\":2385:2511  for(uint256 i = 0; i<rents.length ; i++){... */\n    tag_376:\n        /* \"contracts/PropertyTrade.sol\":2406:2411  rents */\n      0x06\n        /* \"contracts/PropertyTrade.sol\":2406:2418  rents.length */\n      dup1\n      sload\n      swap1\n      pop\n        /* \"contracts/PropertyTrade.sol\":2404:2405  i */\n      dup2\n        /* \"contracts/PropertyTrade.sol\":2404:2418  i<rents.length */\n      lt\n        /* \"contracts/PropertyTrade.sol\":2385:2511  for(uint256 i = 0; i<rents.length ; i++){... */\n      iszero\n      tag_377\n      jumpi\n        /* \"contracts/PropertyTrade.sol\":2464:2474  properties */\n      0x01\n        /* \"contracts/PropertyTrade.sol\":2464:2493  properties[rents[i].rentalId] */\n      0x00\n        /* \"contracts/PropertyTrade.sol\":2475:2480  rents */\n      0x06\n        /* \"contracts/PropertyTrade.sol\":2481:2482  i */\n      dup4\n        /* \"contracts/PropertyTrade.sol\":2475:2483  rents[i] */\n      dup2\n      sload\n      dup2\n      lt\n      tag_379\n      jumpi\n      tag_380\n      tag_159\n      jump\t// in\n    tag_380:\n    tag_379:\n      swap1\n      0x00\n      mstore\n      keccak256(0x00, 0x20)\n      swap1\n      0x04\n      mul\n      add\n        /* \"contracts/PropertyTrade.sol\":2475:2492  rents[i].rentalId */\n      0x00\n      add\n      sload\n        /* \"contracts/PropertyTrade.sol\":2464:2493  properties[rents[i].rentalId] */\n      dup2\n      mstore\n      0x20\n      add\n      swap1\n      dup2\n      mstore\n      0x20\n      add\n      0x00\n      keccak256\n        /* \"contracts/PropertyTrade.sol\":2464:2499  properties[rents[i].rentalId].owner */\n      0x03\n      add\n      0x00\n      swap1\n      sload\n      swap1\n      0x0100\n      exp\n      swap1\n      div\n      0xffffffffffffffffffffffffffffffffffffffff\n      and\n        /* \"contracts/PropertyTrade.sol\":2440:2458  rentedPropertyList */\n      dup3\n        /* \"contracts/PropertyTrade.sol\":2459:2460  i */\n      dup3\n        /* \"contracts/PropertyTrade.sol\":2440:2461  rentedPropertyList[i] */\n      dup2\n      mload\n      dup2\n      lt\n      tag_382\n      jumpi\n      tag_383\n      tag_159\n      jump\t// in\n    tag_383:\n    tag_382:\n      0x20\n      mul\n      0x20\n      add\n      add\n        /* \"contracts/PropertyTrade.sol\":2440:2499  rentedPropertyList[i] = properties[rents[i].rentalId].owner */\n      swap1\n      0xffffffffffffffffffffffffffffffffffffffff\n      and\n      swap1\n      dup2\n      0xffffffffffffffffffffffffffffffffffffffff\n      and\n      dup2\n      mstore\n      pop\n      pop\n        /* \"contracts/PropertyTrade.sol\":2421:2424  i++ */\n      dup1\n      dup1\n      0x01\n      add\n      swap2\n      pop\n      pop\n        /* \"contracts/PropertyTrade.sol\":2385:2511  for(uint256 i = 0; i<rents.length ; i++){... */\n      jump(tag_376)\n    tag_377:\n      pop\n        /* \"contracts/PropertyTrade.sol\":2528:2546  rentedPropertyList */\n      dup1\n        /* \"contracts/PropertyTrade.sol\":2521:2546  return rentedPropertyList */\n      swap2\n      pop\n      pop\n        /* \"contracts/PropertyTrade.sol\":2234:2554  function rentedProperties() public view  returns(address[]memory){... */\n      swap1\n      jump\t// out\n        /* \"#utility.yul\":7:83   */\n    tag_384:\n        /* \"#utility.yul\":43:50   */\n      0x00\n        /* \"#utility.yul\":72:77   */\n      dup2\n        /* \"#utility.yul\":61:77   */\n      swap1\n      pop\n        /* \"#utility.yul\":7:83   */\n      swap2\n      swap1\n      pop\n      jump\t// out\n        /* \"#utility.yul\":89:204   */\n    tag_385:\n        /* \"#utility.yul\":174:197   */\n      tag_489\n        /* \"#utility.yul\":191:196   */\n      dup2\n        /* \"#utility.yul\":174:197   */\n      tag_384\n      jump\t// in\n    tag_489:\n        /* \"#utility.yul\":169:172   */\n      dup3\n        /* \"#utility.yul\":162:198   */\n      mstore\n        /* \"#utility.yul\":89:204   */\n      pop\n      pop\n      jump\t// out\n        /* \"#utility.yul\":210:428   */\n    tag_30:\n        /* \"#utility.yul\":301:305   */\n      0x00\n        /* \"#utility.yul\":339:341   */\n      0x20\n        /* \"#utility.yul\":328:337   */\n      dup3\n        /* \"#utility.yul\":324:342   */\n      add\n        /* \"#utility.yul\":316:342   */\n      swap1\n      pop\n        /* \"#utility.yul\":352:421   */\n      tag_491\n        /* \"#utility.yul\":418:419   */\n      0x00\n        /* \"#utility.yul\":407:416   */\n      dup4\n        /* \"#utility.yul\":403:420   */\n      add\n        /* \"#utility.yul\":394:400   */\n      dup5\n        /* \"#utility.yul\":352:421   */\n      tag_385\n      jump\t// in\n    tag_491:\n        /* \"#utility.yul\":210:428   */\n      swap3\n      swap2\n      pop\n      pop\n      jump\t// out\n        /* \"#utility.yul\":434:511   */\n    tag_386:\n        /* \"#utility.yul\":471:478   */\n      0x00\n        /* \"#utility.yul\":500:505   */\n      dup2\n        /* \"#utility.yul\":489:505   */\n      swap1\n      pop\n        /* \"#utility.yul\":434:511   */\n      swap2\n      swap1\n      pop\n      jump\t// out\n        /* \"#utility.yul\":517:635   */\n    tag_387:\n        /* \"#utility.yul\":604:628   */\n      tag_494\n        /* \"#utility.yul\":622:627   */\n      dup2\n        /* \"#utility.yul\":604:628   */\n      tag_386\n      jump\t// in\n    tag_494:\n        /* \"#utility.yul\":599:602   */\n      dup3\n        /* \"#utility.yul\":592:629   */\n      mstore\n        /* \"#utility.yul\":517:635   */\n      pop\n      pop\n      jump\t// out\n        /* \"#utility.yul\":641:863   */\n    tag_34:\n        /* \"#utility.yul\":734:738   */\n      0x00\n        /* \"#utility.yul\":772:774   */\n      0x20\n        /* \"#utility.yul\":761:770   */\n      dup3\n        /* \"#utility.yul\":757:775   */\n      add\n        /* \"#utility.yul\":749:775   */\n      swap1\n      pop\n        /* \"#utility.yul\":785:856   */\n      tag_496\n        /* \"#utility.yul\":853:854   */\n      0x00\n        /* \"#utility.yul\":842:851   */\n      dup4\n        /* \"#utility.yul\":838:855   */\n      add\n        /* \"#utility.yul\":829:835   */\n      dup5\n        /* \"#utility.yul\":785:856   */\n      tag_387\n      jump\t// in\n    tag_496:\n        /* \"#utility.yul\":641:863   */\n      swap3\n      swap2\n      pop\n      pop\n      jump\t// out\n        /* \"#utility.yul\":869:944   */\n    tag_388:\n        /* \"#utility.yul\":902:908   */\n      0x00\n        /* \"#utility.yul\":935:937   */\n      0x40\n        /* \"#utility.yul\":929:938   */\n      mload\n        /* \"#utility.yul\":919:938   */\n      swap1\n      pop\n        /* \"#utility.yul\":869:944   */\n      swap1\n      jump\t// out\n        /* \"#utility.yul\":950:1067   */\n    tag_389:\n        /* \"#utility.yul\":1059:1060   */\n      0x00\n        /* \"#utility.yul\":1056:1057   */\n      dup1\n        /* \"#utility.yul\":1049:1061   */\n      revert\n        /* \"#utility.yul\":1073:1190   */\n    tag_390:\n        /* \"#utility.yul\":1182:1183   */\n      0x00\n        /* \"#utility.yul\":1179:1180   */\n      dup1\n        /* \"#utility.yul\":1172:1184   */\n      revert\n        /* \"#utility.yul\":1196:1316   */\n    tag_391:\n        /* \"#utility.yul\":1268:1291   */\n      tag_501\n        /* \"#utility.yul\":1285:1290   */\n      dup2\n        /* \"#utility.yul\":1268:1291   */\n      tag_384\n      jump\t// in\n    tag_501:\n        /* \"#utility.yul\":1261:1266   */\n      dup2\n        /* \"#utility.yul\":1258:1292   */\n      eq\n        /* \"#utility.yul\":1248:1310   */\n      tag_502\n      jumpi\n        /* \"#utility.yul\":1306:1307   */\n      0x00\n        /* \"#utility.yul\":1303:1304   */\n      dup1\n        /* \"#utility.yul\":1296:1308   */\n      revert\n        /* \"#utility.yul\":1248:1310   */\n    tag_502:\n        /* \"#utility.yul\":1196:1316   */\n      pop\n      jump\t// out\n        /* \"#utility.yul\":1322:1459   */\n    tag_392:\n        /* \"#utility.yul\":1367:1372   */\n      0x00\n        /* \"#utility.yul\":1405:1411   */\n      dup2\n        /* \"#utility.yul\":1392:1412   */\n      calldataload\n        /* \"#utility.yul\":1383:1412   */\n      swap1\n      pop\n        /* \"#utility.yul\":1421:1453   */\n      tag_504\n        /* \"#utility.yul\":1447:1452   */\n      dup2\n        /* \"#utility.yul\":1421:1453   */\n      tag_391\n      jump\t// in\n    tag_504:\n        /* \"#utility.yul\":1322:1459   */\n      swap3\n      swap2\n      pop\n      pop\n      jump\t// out\n        /* \"#utility.yul\":1465:1582   */\n    tag_393:\n        /* \"#utility.yul\":1574:1575   */\n      0x00\n        /* \"#utility.yul\":1571:1572   */\n      dup1\n        /* \"#utility.yul\":1564:1576   */\n      revert\n        /* \"#utility.yul\":1588:1705   */\n    tag_394:\n        /* \"#utility.yul\":1697:1698   */\n      0x00\n        /* \"#utility.yul\":1694:1695   */\n      dup1\n        /* \"#utility.yul\":1687:1699   */\n      revert\n        /* \"#utility.yul\":1711:1813   */\n    tag_395:\n        /* \"#utility.yul\":1752:1758   */\n      0x00\n        /* \"#utility.yul\":1803:1805   */\n      0x1f\n        /* \"#utility.yul\":1799:1806   */\n      not\n        /* \"#utility.yul\":1794:1796   */\n      0x1f\n        /* \"#utility.yul\":1787:1792   */\n      dup4\n        /* \"#utility.yul\":1783:1797   */\n      add\n        /* \"#utility.yul\":1779:1807   */\n      and\n        /* \"#utility.yul\":1769:1807   */\n      swap1\n      pop\n        /* \"#utility.yul\":1711:1813   */\n      swap2\n      swap1\n      pop\n      jump\t// out\n        /* \"#utility.yul\":1819:1999   */\n    tag_140:\n        /* \"#utility.yul\":1867:1944   */\n      0x4e487b7100000000000000000000000000000000000000000000000000000000\n        /* \"#utility.yul\":1864:1865   */\n      0x00\n        /* \"#utility.yul\":1857:1945   */\n      mstore\n        /* \"#utility.yul\":1964:1968   */\n      0x41\n        /* \"#utility.yul\":1961:1962   */\n      0x04\n        /* \"#utility.yul\":1954:1969   */\n      mstore\n        /* \"#utility.yul\":1988:1992   */\n      0x24\n        /* \"#utility.yul\":1985:1986   */\n      0x00\n        /* \"#utility.yul\":1978:1993   */\n      revert\n        /* \"#utility.yul\":2005:2286   */\n    tag_396:\n        /* \"#utility.yul\":2088:2115   */\n      tag_510\n        /* \"#utility.yul\":2110:2114   */\n      dup3\n        /* \"#utility.yul\":2088:2115   */\n      tag_395\n      jump\t// in\n    tag_510:\n        /* \"#utility.yul\":2080:2086   */\n      dup2\n        /* \"#utility.yul\":2076:2116   */\n      add\n        /* \"#utility.yul\":2218:2224   */\n      dup2\n        /* \"#utility.yul\":2206:2216   */\n      dup2\n        /* \"#utility.yul\":2203:2225   */\n      lt\n        /* \"#utility.yul\":2182:2200   */\n      0xffffffffffffffff\n        /* \"#utility.yul\":2170:2180   */\n      dup3\n        /* \"#utility.yul\":2167:2201   */\n      gt\n        /* \"#utility.yul\":2164:2226   */\n      or\n        /* \"#utility.yul\":2161:2249   */\n      iszero\n      tag_511\n      jumpi\n        /* \"#utility.yul\":2229:2247   */\n      tag_512\n      tag_140\n      jump\t// in\n    tag_512:\n        /* \"#utility.yul\":2161:2249   */\n    tag_511:\n        /* \"#utility.yul\":2269:2279   */\n      dup1\n        /* \"#utility.yul\":2265:2267   */\n      0x40\n        /* \"#utility.yul\":2258:2280   */\n      mstore\n        /* \"#utility.yul\":2048:2286   */\n      pop\n        /* \"#utility.yul\":2005:2286   */\n      pop\n      pop\n      jump\t// out\n        /* \"#utility.yul\":2292:2421   */\n    tag_397:\n        /* \"#utility.yul\":2326:2332   */\n      0x00\n        /* \"#utility.yul\":2353:2373   */\n      tag_514\n      tag_388\n      jump\t// in\n    tag_514:\n        /* \"#utility.yul\":2343:2373   */\n      swap1\n      pop\n        /* \"#utility.yul\":2382:2415   */\n      tag_515\n        /* \"#utility.yul\":2410:2414   */\n      dup3\n        /* \"#utility.yul\":2402:2408   */\n      dup3\n        /* \"#utility.yul\":2382:2415   */\n      tag_396\n      jump\t// in\n    tag_515:\n        /* \"#utility.yul\":2292:2421   */\n      swap2\n      swap1\n      pop\n      jump\t// out\n        /* \"#utility.yul\":2427:2735   */\n    tag_398:\n        /* \"#utility.yul\":2489:2493   */\n      0x00\n        /* \"#utility.yul\":2579:2597   */\n      0xffffffffffffffff\n        /* \"#utility.yul\":2571:2577   */\n      dup3\n        /* \"#utility.yul\":2568:2598   */\n      gt\n        /* \"#utility.yul\":2565:2621   */\n      iszero\n      tag_517\n      jumpi\n        /* \"#utility.yul\":2601:2619   */\n      tag_518\n      tag_140\n      jump\t// in\n    tag_518:\n        /* \"#utility.yul\":2565:2621   */\n    tag_517:\n        /* \"#utility.yul\":2639:2668   */\n      tag_519\n        /* \"#utility.yul\":2661:2667   */\n      dup3\n        /* \"#utility.yul\":2639:2668   */\n      tag_395\n      jump\t// in\n    tag_519:\n        /* \"#utility.yul\":2631:2668   */\n      swap1\n      pop\n        /* \"#utility.yul\":2723:2727   */\n      0x20\n        /* \"#utility.yul\":2717:2721   */\n      dup2\n        /* \"#utility.yul\":2713:2728   */\n      add\n        /* \"#utility.yul\":2705:2728   */\n      swap1\n      pop\n        /* \"#utility.yul\":2427:2735   */\n      swap2\n      swap1\n      pop\n      jump\t// out\n        /* \"#utility.yul\":2741:2887   */\n    tag_399:\n        /* \"#utility.yul\":2838:2844   */\n      dup3\n        /* \"#utility.yul\":2833:2836   */\n      dup2\n        /* \"#utility.yul\":2828:2831   */\n      dup4\n        /* \"#utility.yul\":2815:2845   */\n      calldatacopy\n        /* \"#utility.yul\":2879:2880   */\n      0x00\n        /* \"#utility.yul\":2870:2876   */\n      dup4\n        /* \"#utility.yul\":2865:2868   */\n      dup4\n        /* \"#utility.yul\":2861:2877   */\n      add\n        /* \"#utility.yul\":2854:2881   */\n      mstore\n        /* \"#utility.yul\":2741:2887   */\n      pop\n      pop\n      pop\n      jump\t// out\n        /* \"#utility.yul\":2893:3318   */\n    tag_400:\n        /* \"#utility.yul\":2971:2976   */\n      0x00\n        /* \"#utility.yul\":2996:3062   */\n      tag_522\n        /* \"#utility.yul\":3012:3061   */\n      tag_523\n        /* \"#utility.yul\":3054:3060   */\n      dup5\n        /* \"#utility.yul\":3012:3061   */\n      tag_398\n      jump\t// in\n    tag_523:\n        /* \"#utility.yul\":2996:3062   */\n      tag_397\n      jump\t// in\n    tag_522:\n        /* \"#utility.yul\":2987:3062   */\n      swap1\n      pop\n        /* \"#utility.yul\":3085:3091   */\n      dup3\n        /* \"#utility.yul\":3078:3083   */\n      dup2\n        /* \"#utility.yul\":3071:3092   */\n      mstore\n        /* \"#utility.yul\":3123:3127   */\n      0x20\n        /* \"#utility.yul\":3116:3121   */\n      dup2\n        /* \"#utility.yul\":3112:3128   */\n      add\n        /* \"#utility.yul\":3161:3164   */\n      dup5\n        /* \"#utility.yul\":3152:3158   */\n      dup5\n        /* \"#utility.yul\":3147:3150   */\n      dup5\n        /* \"#utility.yul\":3143:3159   */\n      add\n        /* \"#utility.yul\":3140:3165   */\n      gt\n        /* \"#utility.yul\":3137:3249   */\n      iszero\n      tag_524\n      jumpi\n        /* \"#utility.yul\":3168:3247   */\n      tag_525\n      tag_394\n      jump\t// in\n    tag_525:\n        /* \"#utility.yul\":3137:3249   */\n    tag_524:\n        /* \"#utility.yul\":3258:3312   */\n      tag_526\n        /* \"#utility.yul\":3305:3311   */\n      dup5\n        /* \"#utility.yul\":3300:3303   */\n      dup3\n        /* \"#utility.yul\":3295:3298   */\n      dup6\n        /* \"#utility.yul\":3258:3312   */\n      tag_399\n      jump\t// in\n    tag_526:\n        /* \"#utility.yul\":2977:3318   */\n      pop\n        /* \"#utility.yul\":2893:3318   */\n      swap4\n      swap3\n      pop\n      pop\n      pop\n      jump\t// out\n        /* \"#utility.yul\":3338:3678   */\n    tag_401:\n        /* \"#utility.yul\":3394:3399   */\n      0x00\n        /* \"#utility.yul\":3443:3446   */\n      dup3\n        /* \"#utility.yul\":3436:3440   */\n      0x1f\n        /* \"#utility.yul\":3428:3434   */\n      dup4\n        /* \"#utility.yul\":3424:3441   */\n      add\n        /* \"#utility.yul\":3420:3447   */\n      slt\n        /* \"#utility.yul\":3410:3532   */\n      tag_528\n      jumpi\n        /* \"#utility.yul\":3451:3530   */\n      tag_529\n      tag_393\n      jump\t// in\n    tag_529:\n        /* \"#utility.yul\":3410:3532   */\n    tag_528:\n        /* \"#utility.yul\":3568:3574   */\n      dup2\n        /* \"#utility.yul\":3555:3575   */\n      calldataload\n        /* \"#utility.yul\":3593:3672   */\n      tag_530\n        /* \"#utility.yul\":3668:3671   */\n      dup5\n        /* \"#utility.yul\":3660:3666   */\n      dup3\n        /* \"#utility.yul\":3653:3657   */\n      0x20\n        /* \"#utility.yul\":3645:3651   */\n      dup7\n        /* \"#utility.yul\":3641:3658   */\n      add\n        /* \"#utility.yul\":3593:3672   */\n      tag_400\n      jump\t// in\n    tag_530:\n        /* \"#utility.yul\":3584:3672   */\n      swap2\n      pop\n        /* \"#utility.yul\":3400:3678   */\n      pop\n        /* \"#utility.yul\":3338:3678   */\n      swap3\n      swap2\n      pop\n      pop\n      jump\t// out\n        /* \"#utility.yul\":3684:4336   */\n    tag_37:\n        /* \"#utility.yul\":3761:3767   */\n      0x00\n        /* \"#utility.yul\":3769:3775   */\n      dup1\n        /* \"#utility.yul\":3818:3820   */\n      0x40\n        /* \"#utility.yul\":3806:3815   */\n      dup4\n        /* \"#utility.yul\":3797:3804   */\n      dup6\n        /* \"#utility.yul\":3793:3816   */\n      sub\n        /* \"#utility.yul\":3789:3821   */\n      slt\n        /* \"#utility.yul\":3786:3905   */\n      iszero\n      tag_532\n      jumpi\n        /* \"#utility.yul\":3824:3903   */\n      tag_533\n      tag_389\n      jump\t// in\n    tag_533:\n        /* \"#utility.yul\":3786:3905   */\n    tag_532:\n        /* \"#utility.yul\":3944:3945   */\n      0x00\n        /* \"#utility.yul\":3969:4021   */\n      tag_534\n        /* \"#utility.yul\":4013:4020   */\n      dup6\n        /* \"#utility.yul\":4004:4010   */\n      dup3\n        /* \"#utility.yul\":3993:4002   */\n      dup7\n        /* \"#utility.yul\":3989:4011   */\n      add\n        /* \"#utility.yul\":3969:4021   */\n      tag_392\n      jump\t// in\n    tag_534:\n        /* \"#utility.yul\":3959:4021   */\n      swap3\n      pop\n        /* \"#utility.yul\":3915:4031   */\n      pop\n        /* \"#utility.yul\":4098:4100   */\n      0x20\n        /* \"#utility.yul\":4087:4096   */\n      dup4\n        /* \"#utility.yul\":4083:4101   */\n      add\n        /* \"#utility.yul\":4070:4102   */\n      calldataload\n        /* \"#utility.yul\":4129:4147   */\n      0xffffffffffffffff\n        /* \"#utility.yul\":4121:4127   */\n      dup2\n        /* \"#utility.yul\":4118:4148   */\n      gt\n        /* \"#utility.yul\":4115:4232   */\n      iszero\n      tag_535\n      jumpi\n        /* \"#utility.yul\":4151:4230   */\n      tag_536\n      tag_390\n      jump\t// in\n    tag_536:\n        /* \"#utility.yul\":4115:4232   */\n    tag_535:\n        /* \"#utility.yul\":4256:4319   */\n      tag_537\n        /* \"#utility.yul\":4311:4318   */\n      dup6\n        /* \"#utility.yul\":4302:4308   */\n      dup3\n        /* \"#utility.yul\":4291:4300   */\n      dup7\n        /* \"#utility.yul\":4287:4309   */\n      add\n        /* \"#utility.yul\":4256:4319   */\n      tag_401\n      jump\t// in\n    tag_537:\n        /* \"#utility.yul\":4246:4319   */\n      swap2\n      pop\n        /* \"#utility.yul\":4041:4329   */\n      pop\n        /* \"#utility.yul\":3684:4336   */\n      swap3\n      pop\n      swap3\n      swap1\n      pop\n      jump\t// out\n        /* \"#utility.yul\":4342:5176   */\n    tag_41:\n        /* \"#utility.yul\":4430:4436   */\n      0x00\n        /* \"#utility.yul\":4438:4444   */\n      dup1\n        /* \"#utility.yul\":4487:4489   */\n      0x40\n        /* \"#utility.yul\":4475:4484   */\n      dup4\n        /* \"#utility.yul\":4466:4473   */\n      dup6\n        /* \"#utility.yul\":4462:4485   */\n      sub\n        /* \"#utility.yul\":4458:4490   */\n      slt\n        /* \"#utility.yul\":4455:4574   */\n      iszero\n      tag_539\n      jumpi\n        /* \"#utility.yul\":4493:4572   */\n      tag_540\n      tag_389\n      jump\t// in\n    tag_540:\n        /* \"#utility.yul\":4455:4574   */\n    tag_539:\n        /* \"#utility.yul\":4641:4642   */\n      0x00\n        /* \"#utility.yul\":4630:4639   */\n      dup4\n        /* \"#utility.yul\":4626:4643   */\n      add\n        /* \"#utility.yul\":4613:4644   */\n      calldataload\n        /* \"#utility.yul\":4671:4689   */\n      0xffffffffffffffff\n        /* \"#utility.yul\":4663:4669   */\n      dup2\n        /* \"#utility.yul\":4660:4690   */\n      gt\n        /* \"#utility.yul\":4657:4774   */\n      iszero\n      tag_541\n      jumpi\n        /* \"#utility.yul\":4693:4772   */\n      tag_542\n      tag_390\n      jump\t// in\n    tag_542:\n        /* \"#utility.yul\":4657:4774   */\n    tag_541:\n        /* \"#utility.yul\":4798:4861   */\n      tag_543\n        /* \"#utility.yul\":4853:4860   */\n      dup6\n        /* \"#utility.yul\":4844:4850   */\n      dup3\n        /* \"#utility.yul\":4833:4842   */\n      dup7\n        /* \"#utility.yul\":4829:4851   */\n      add\n        /* \"#utility.yul\":4798:4861   */\n      tag_401\n      jump\t// in\n    tag_543:\n        /* \"#utility.yul\":4788:4861   */\n      swap3\n      pop\n        /* \"#utility.yul\":4584:4871   */\n      pop\n        /* \"#utility.yul\":4938:4940   */\n      0x20\n        /* \"#utility.yul\":4927:4936   */\n      dup4\n        /* \"#utility.yul\":4923:4941   */\n      add\n        /* \"#utility.yul\":4910:4942   */\n      calldataload\n        /* \"#utility.yul\":4969:4987   */\n      0xffffffffffffffff\n        /* \"#utility.yul\":4961:4967   */\n      dup2\n        /* \"#utility.yul\":4958:4988   */\n      gt\n        /* \"#utility.yul\":4955:5072   */\n      iszero\n      tag_544\n      jumpi\n        /* \"#utility.yul\":4991:5070   */\n      tag_545\n      tag_390\n      jump\t// in\n    tag_545:\n        /* \"#utility.yul\":4955:5072   */\n    tag_544:\n        /* \"#utility.yul\":5096:5159   */\n      tag_546\n        /* \"#utility.yul\":5151:5158   */\n      dup6\n        /* \"#utility.yul\":5142:5148   */\n      dup3\n        /* \"#utility.yul\":5131:5140   */\n      dup7\n        /* \"#utility.yul\":5127:5149   */\n      add\n        /* \"#utility.yul\":5096:5159   */\n      tag_401\n      jump\t// in\n    tag_546:\n        /* \"#utility.yul\":5086:5159   */\n      swap2\n      pop\n        /* \"#utility.yul\":4881:5169   */\n      pop\n        /* \"#utility.yul\":4342:5176   */\n      swap3\n      pop\n      swap3\n      swap1\n      pop\n      jump\t// out\n        /* \"#utility.yul\":5182:5295   */\n    tag_402:\n        /* \"#utility.yul\":5248:5254   */\n      0x00\n        /* \"#utility.yul\":5282:5287   */\n      dup2\n        /* \"#utility.yul\":5276:5288   */\n      mload\n        /* \"#utility.yul\":5266:5288   */\n      swap1\n      pop\n        /* \"#utility.yul\":5182:5295   */\n      swap2\n      swap1\n      pop\n      jump\t// out\n        /* \"#utility.yul\":5301:5484   */\n    tag_403:\n        /* \"#utility.yul\":5399:5410   */\n      0x00\n        /* \"#utility.yul\":5433:5439   */\n      dup3\n        /* \"#utility.yul\":5428:5431   */\n      dup3\n        /* \"#utility.yul\":5421:5440   */\n      mstore\n        /* \"#utility.yul\":5473:5477   */\n      0x20\n        /* \"#utility.yul\":5468:5471   */\n      dup3\n        /* \"#utility.yul\":5464:5478   */\n      add\n        /* \"#utility.yul\":5449:5478   */\n      swap1\n      pop\n        /* \"#utility.yul\":5301:5484   */\n      swap3\n      swap2\n      pop\n      pop\n      jump\t// out\n        /* \"#utility.yul\":5490:5621   */\n    tag_404:\n        /* \"#utility.yul\":5556:5560   */\n      0x00\n        /* \"#utility.yul\":5579:5582   */\n      dup2\n        /* \"#utility.yul\":5571:5582   */\n      swap1\n      pop\n        /* \"#utility.yul\":5609:5613   */\n      0x20\n        /* \"#utility.yul\":5604:5607   */\n      dup3\n        /* \"#utility.yul\":5600:5614   */\n      add\n        /* \"#utility.yul\":5592:5614   */\n      swap1\n      pop\n        /* \"#utility.yul\":5490:5621   */\n      swap2\n      swap1\n      pop\n      jump\t// out\n        /* \"#utility.yul\":5627:5732   */\n    tag_405:\n        /* \"#utility.yul\":5702:5725   */\n      tag_551\n        /* \"#utility.yul\":5719:5724   */\n      dup2\n        /* \"#utility.yul\":5702:5725   */\n      tag_384\n      jump\t// in\n    tag_551:\n        /* \"#utility.yul\":5697:5700   */\n      dup3\n        /* \"#utility.yul\":5690:5726   */\n      mstore\n        /* \"#utility.yul\":5627:5732   */\n      pop\n      pop\n      jump\t// out\n        /* \"#utility.yul\":5738:5913   */\n    tag_406:\n        /* \"#utility.yul\":5805:5815   */\n      0x00\n        /* \"#utility.yul\":5826:5870   */\n      tag_553\n        /* \"#utility.yul\":5866:5869   */\n      dup4\n        /* \"#utility.yul\":5858:5864   */\n      dup4\n        /* \"#utility.yul\":5826:5870   */\n      tag_405\n      jump\t// in\n    tag_553:\n        /* \"#utility.yul\":5902:5906   */\n      0x20\n        /* \"#utility.yul\":5897:5900   */\n      dup4\n        /* \"#utility.yul\":5893:5907   */\n      add\n        /* \"#utility.yul\":5879:5907   */\n      swap1\n      pop\n        /* \"#utility.yul\":5738:5913   */\n      swap3\n      swap2\n      pop\n      pop\n      jump\t// out\n        /* \"#utility.yul\":5919:6031   */\n    tag_407:\n        /* \"#utility.yul\":5988:5992   */\n      0x00\n        /* \"#utility.yul\":6020:6024   */\n      0x20\n        /* \"#utility.yul\":6015:6018   */\n      dup3\n        /* \"#utility.yul\":6011:6025   */\n      add\n        /* \"#utility.yul\":6003:6025   */\n      swap1\n      pop\n        /* \"#utility.yul\":5919:6031   */\n      swap2\n      swap1\n      pop\n      jump\t// out\n        /* \"#utility.yul\":6065:6789   */\n    tag_408:\n        /* \"#utility.yul\":6182:6185   */\n      0x00\n        /* \"#utility.yul\":6211:6264   */\n      tag_556\n        /* \"#utility.yul\":6258:6263   */\n      dup3\n        /* \"#utility.yul\":6211:6264   */\n      tag_402\n      jump\t// in\n    tag_556:\n        /* \"#utility.yul\":6280:6365   */\n      tag_557\n        /* \"#utility.yul\":6358:6364   */\n      dup2\n        /* \"#utility.yul\":6353:6356   */\n      dup6\n        /* \"#utility.yul\":6280:6365   */\n      tag_403\n      jump\t// in\n    tag_557:\n        /* \"#utility.yul\":6273:6365   */\n      swap4\n      pop\n        /* \"#utility.yul\":6389:6444   */\n      tag_558\n        /* \"#utility.yul\":6438:6443   */\n      dup4\n        /* \"#utility.yul\":6389:6444   */\n      tag_404\n      jump\t// in\n    tag_558:\n        /* \"#utility.yul\":6467:6474   */\n      dup1\n        /* \"#utility.yul\":6498:6499   */\n      0x00\n        /* \"#utility.yul\":6483:6764   */\n    tag_559:\n        /* \"#utility.yul\":6508:6514   */\n      dup4\n        /* \"#utility.yul\":6505:6506   */\n      dup2\n        /* \"#utility.yul\":6502:6515   */\n      lt\n        /* \"#utility.yul\":6483:6764   */\n      iszero\n      tag_561\n      jumpi\n        /* \"#utility.yul\":6584:6590   */\n      dup2\n        /* \"#utility.yul\":6578:6591   */\n      mload\n        /* \"#utility.yul\":6611:6672   */\n      tag_562\n        /* \"#utility.yul\":6668:6671   */\n      dup9\n        /* \"#utility.yul\":6653:6666   */\n      dup3\n        /* \"#utility.yul\":6611:6672   */\n      tag_406\n      jump\t// in\n    tag_562:\n        /* \"#utility.yul\":6604:6672   */\n      swap8\n      pop\n        /* \"#utility.yul\":6695:6754   */\n      tag_563\n        /* \"#utility.yul\":6747:6753   */\n      dup4\n        /* \"#utility.yul\":6695:6754   */\n      tag_407\n      jump\t// in\n    tag_563:\n        /* \"#utility.yul\":6685:6754   */\n      swap3\n      pop\n        /* \"#utility.yul\":6543:6764   */\n      pop\n        /* \"#utility.yul\":6530:6531   */\n      0x01\n        /* \"#utility.yul\":6527:6528   */\n      dup2\n        /* \"#utility.yul\":6523:6532   */\n      add\n        /* \"#utility.yul\":6518:6532   */\n      swap1\n      pop\n        /* \"#utility.yul\":6483:6764   */\n      jump(tag_559)\n    tag_561:\n        /* \"#utility.yul\":6487:6501   */\n      pop\n        /* \"#utility.yul\":6780:6783   */\n      dup6\n        /* \"#utility.yul\":6773:6783   */\n      swap4\n      pop\n        /* \"#utility.yul\":6187:6789   */\n      pop\n      pop\n      pop\n        /* \"#utility.yul\":6065:6789   */\n      swap3\n      swap2\n      pop\n      pop\n      jump\t// out\n        /* \"#utility.yul\":6795:6919   */\n    tag_409:\n        /* \"#utility.yul\":6872:6878   */\n      0x00\n        /* \"#utility.yul\":6906:6911   */\n      dup2\n        /* \"#utility.yul\":6900:6912   */\n      mload\n        /* \"#utility.yul\":6890:6912   */\n      swap1\n      pop\n        /* \"#utility.yul\":6795:6919   */\n      swap2\n      swap1\n      pop\n      jump\t// out\n        /* \"#utility.yul\":6925:7119   */\n    tag_410:\n        /* \"#utility.yul\":7034:7045   */\n      0x00\n        /* \"#utility.yul\":7068:7074   */\n      dup3\n        /* \"#utility.yul\":7063:7066   */\n      dup3\n        /* \"#utility.yul\":7056:7075   */\n      mstore\n        /* \"#utility.yul\":7108:7112   */\n      0x20\n        /* \"#utility.yul\":7103:7106   */\n      dup3\n        /* \"#utility.yul\":7099:7113   */\n      add\n        /* \"#utility.yul\":7084:7113   */\n      swap1\n      pop\n        /* \"#utility.yul\":6925:7119   */\n      swap3\n      swap2\n      pop\n      pop\n      jump\t// out\n        /* \"#utility.yul\":7125:7267   */\n    tag_411:\n        /* \"#utility.yul\":7202:7206   */\n      0x00\n        /* \"#utility.yul\":7225:7228   */\n      dup2\n        /* \"#utility.yul\":7217:7228   */\n      swap1\n      pop\n        /* \"#utility.yul\":7255:7259   */\n      0x20\n        /* \"#utility.yul\":7250:7253   */\n      dup3\n        /* \"#utility.yul\":7246:7260   */\n      add\n        /* \"#utility.yul\":7238:7260   */\n      swap1\n      pop\n        /* \"#utility.yul\":7125:7267   */\n      swap2\n      swap1\n      pop\n      jump\t// out\n        /* \"#utility.yul\":7273:7372   */\n    tag_412:\n        /* \"#utility.yul\":7325:7331   */\n      0x00\n        /* \"#utility.yul\":7359:7364   */\n      dup2\n        /* \"#utility.yul\":7353:7365   */\n      mload\n        /* \"#utility.yul\":7343:7365   */\n      swap1\n      pop\n        /* \"#utility.yul\":7273:7372   */\n      swap2\n      swap1\n      pop\n      jump\t// out\n        /* \"#utility.yul\":7378:7537   */\n    tag_413:\n        /* \"#utility.yul\":7452:7463   */\n      0x00\n        /* \"#utility.yul\":7486:7492   */\n      dup3\n        /* \"#utility.yul\":7481:7484   */\n      dup3\n        /* \"#utility.yul\":7474:7493   */\n      mstore\n        /* \"#utility.yul\":7526:7530   */\n      0x20\n        /* \"#utility.yul\":7521:7524   */\n      dup3\n        /* \"#utility.yul\":7517:7531   */\n      add\n        /* \"#utility.yul\":7502:7531   */\n      swap1\n      pop\n        /* \"#utility.yul\":7378:7537   */\n      swap3\n      swap2\n      pop\n      pop\n      jump\t// out\n        /* \"#utility.yul\":7543:7789   */\n    tag_414:\n        /* \"#utility.yul\":7624:7625   */\n      0x00\n        /* \"#utility.yul\":7634:7747   */\n    tag_570:\n        /* \"#utility.yul\":7648:7654   */\n      dup4\n        /* \"#utility.yul\":7645:7646   */\n      dup2\n        /* \"#utility.yul\":7642:7655   */\n      lt\n        /* \"#utility.yul\":7634:7747   */\n      iszero\n      tag_572\n      jumpi\n        /* \"#utility.yul\":7733:7734   */\n      dup1\n        /* \"#utility.yul\":7728:7731   */\n      dup3\n        /* \"#utility.yul\":7724:7735   */\n      add\n        /* \"#utility.yul\":7718:7736   */\n      mload\n        /* \"#utility.yul\":7714:7715   */\n      dup2\n        /* \"#utility.yul\":7709:7712   */\n      dup5\n        /* \"#utility.yul\":7705:7716   */\n      add\n        /* \"#utility.yul\":7698:7737   */\n      mstore\n        /* \"#utility.yul\":7670:7672   */\n      0x20\n        /* \"#utility.yul\":7667:7668   */\n      dup2\n        /* \"#utility.yul\":7663:7673   */\n      add\n        /* \"#utility.yul\":7658:7673   */\n      swap1\n      pop\n        /* \"#utility.yul\":7634:7747   */\n      jump(tag_570)\n    tag_572:\n        /* \"#utility.yul\":7781:7782   */\n      0x00\n        /* \"#utility.yul\":7772:7778   */\n      dup5\n        /* \"#utility.yul\":7767:7770   */\n      dup5\n        /* \"#utility.yul\":7763:7779   */\n      add\n        /* \"#utility.yul\":7756:7783   */\n      mstore\n        /* \"#utility.yul\":7605:7789   */\n      pop\n        /* \"#utility.yul\":7543:7789   */\n      pop\n      pop\n      pop\n      jump\t// out\n        /* \"#utility.yul\":7795:8152   */\n    tag_415:\n        /* \"#utility.yul\":7873:7876   */\n      0x00\n        /* \"#utility.yul\":7901:7940   */\n      tag_574\n        /* \"#utility.yul\":7934:7939   */\n      dup3\n        /* \"#utility.yul\":7901:7940   */\n      tag_412\n      jump\t// in\n    tag_574:\n        /* \"#utility.yul\":7956:8017   */\n      tag_575\n        /* \"#utility.yul\":8010:8016   */\n      dup2\n        /* \"#utility.yul\":8005:8008   */\n      dup6\n        /* \"#utility.yul\":7956:8017   */\n      tag_413\n      jump\t// in\n    tag_575:\n        /* \"#utility.yul\":7949:8017   */\n      swap4\n      pop\n        /* \"#utility.yul\":8026:8091   */\n      tag_576\n        /* \"#utility.yul\":8084:8090   */\n      dup2\n        /* \"#utility.yul\":8079:8082   */\n      dup6\n        /* \"#utility.yul\":8072:8076   */\n      0x20\n        /* \"#utility.yul\":8065:8070   */\n      dup7\n        /* \"#utility.yul\":8061:8077   */\n      add\n        /* \"#utility.yul\":8026:8091   */\n      tag_414\n      jump\t// in\n    tag_576:\n        /* \"#utility.yul\":8116:8145   */\n      tag_577\n        /* \"#utility.yul\":8138:8144   */\n      dup2\n        /* \"#utility.yul\":8116:8145   */\n      tag_395\n      jump\t// in\n    tag_577:\n        /* \"#utility.yul\":8111:8114   */\n      dup5\n        /* \"#utility.yul\":8107:8146   */\n      add\n        /* \"#utility.yul\":8100:8146   */\n      swap2\n      pop\n        /* \"#utility.yul\":7877:8152   */\n      pop\n        /* \"#utility.yul\":7795:8152   */\n      swap3\n      swap2\n      pop\n      pop\n      jump\t// out\n        /* \"#utility.yul\":8158:8354   */\n    tag_416:\n        /* \"#utility.yul\":8247:8257   */\n      0x00\n        /* \"#utility.yul\":8282:8348   */\n      tag_579\n        /* \"#utility.yul\":8344:8347   */\n      dup4\n        /* \"#utility.yul\":8336:8342   */\n      dup4\n        /* \"#utility.yul\":8282:8348   */\n      tag_415\n      jump\t// in\n    tag_579:\n        /* \"#utility.yul\":8268:8348   */\n      swap1\n      pop\n        /* \"#utility.yul\":8158:8354   */\n      swap3\n      swap2\n      pop\n      pop\n      jump\t// out\n        /* \"#utility.yul\":8360:8483   */\n    tag_417:\n        /* \"#utility.yul\":8440:8444   */\n      0x00\n        /* \"#utility.yul\":8472:8476   */\n      0x20\n        /* \"#utility.yul\":8467:8470   */\n      dup3\n        /* \"#utility.yul\":8463:8477   */\n      add\n        /* \"#utility.yul\":8455:8477   */\n      swap1\n      pop\n        /* \"#utility.yul\":8360:8483   */\n      swap2\n      swap1\n      pop\n      jump\t// out\n        /* \"#utility.yul\":8517:9508   */\n    tag_418:\n        /* \"#utility.yul\":8656:8659   */\n      0x00\n        /* \"#utility.yul\":8685:8749   */\n      tag_582\n        /* \"#utility.yul\":8743:8748   */\n      dup3\n        /* \"#utility.yul\":8685:8749   */\n      tag_409\n      jump\t// in\n    tag_582:\n        /* \"#utility.yul\":8765:8861   */\n      tag_583\n        /* \"#utility.yul\":8854:8860   */\n      dup2\n        /* \"#utility.yul\":8849:8852   */\n      dup6\n        /* \"#utility.yul\":8765:8861   */\n      tag_410\n      jump\t// in\n    tag_583:\n        /* \"#utility.yul\":8758:8861   */\n      swap4\n      pop\n        /* \"#utility.yul\":8887:8890   */\n      dup4\n        /* \"#utility.yul\":8932:8936   */\n      0x20\n        /* \"#utility.yul\":8924:8930   */\n      dup3\n        /* \"#utility.yul\":8920:8937   */\n      mul\n        /* \"#utility.yul\":8915:8918   */\n      dup6\n        /* \"#utility.yul\":8911:8938   */\n      add\n        /* \"#utility.yul\":8962:9028   */\n      tag_584\n        /* \"#utility.yul\":9022:9027   */\n      dup6\n        /* \"#utility.yul\":8962:9028   */\n      tag_411\n      jump\t// in\n    tag_584:\n        /* \"#utility.yul\":9051:9058   */\n      dup1\n        /* \"#utility.yul\":9082:9083   */\n      0x00\n        /* \"#utility.yul\":9067:9463   */\n    tag_585:\n        /* \"#utility.yul\":9092:9098   */\n      dup6\n        /* \"#utility.yul\":9089:9090   */\n      dup2\n        /* \"#utility.yul\":9086:9099   */\n      lt\n        /* \"#utility.yul\":9067:9463   */\n      iszero\n      tag_587\n      jumpi\n        /* \"#utility.yul\":9163:9172   */\n      dup5\n        /* \"#utility.yul\":9157:9161   */\n      dup5\n        /* \"#utility.yul\":9153:9173   */\n      sub\n        /* \"#utility.yul\":9148:9151   */\n      dup10\n        /* \"#utility.yul\":9141:9174   */\n      mstore\n        /* \"#utility.yul\":9214:9220   */\n      dup2\n        /* \"#utility.yul\":9208:9221   */\n      mload\n        /* \"#utility.yul\":9242:9326   */\n      tag_588\n        /* \"#utility.yul\":9321:9325   */\n      dup6\n        /* \"#utility.yul\":9306:9319   */\n      dup3\n        /* \"#utility.yul\":9242:9326   */\n      tag_416\n      jump\t// in\n    tag_588:\n        /* \"#utility.yul\":9234:9326   */\n      swap5\n      pop\n        /* \"#utility.yul\":9349:9419   */\n      tag_589\n        /* \"#utility.yul\":9412:9418   */\n      dup4\n        /* \"#utility.yul\":9349:9419   */\n      tag_417\n      jump\t// in\n    tag_589:\n        /* \"#utility.yul\":9339:9419   */\n      swap3\n      pop\n        /* \"#utility.yul\":9448:9452   */\n      0x20\n        /* \"#utility.yul\":9443:9446   */\n      dup11\n        /* \"#utility.yul\":9439:9453   */\n      add\n        /* \"#utility.yul\":9432:9453   */\n      swap10\n      pop\n        /* \"#utility.yul\":9127:9463   */\n      pop\n        /* \"#utility.yul\":9114:9115   */\n      0x01\n        /* \"#utility.yul\":9111:9112   */\n      dup2\n        /* \"#utility.yul\":9107:9116   */\n      add\n        /* \"#utility.yul\":9102:9116   */\n      swap1\n      pop\n        /* \"#utility.yul\":9067:9463   */\n      jump(tag_585)\n    tag_587:\n        /* \"#utility.yul\":9071:9085   */\n      pop\n        /* \"#utility.yul\":9479:9483   */\n      dup3\n        /* \"#utility.yul\":9472:9483   */\n      swap8\n      pop\n        /* \"#utility.yul\":9499:9502   */\n      dup8\n        /* \"#utility.yul\":9492:9502   */\n      swap6\n      pop\n        /* \"#utility.yul\":8661:9508   */\n      pop\n      pop\n      pop\n      pop\n      pop\n        /* \"#utility.yul\":8517:9508   */\n      swap3\n      swap2\n      pop\n      pop\n      jump\t// out\n        /* \"#utility.yul\":9514:10787   */\n    tag_49:\n        /* \"#utility.yul\":9949:9953   */\n      0x00\n        /* \"#utility.yul\":9987:9990   */\n      0x80\n        /* \"#utility.yul\":9976:9985   */\n      dup3\n        /* \"#utility.yul\":9972:9991   */\n      add\n        /* \"#utility.yul\":9964:9991   */\n      swap1\n      pop\n        /* \"#utility.yul\":10037:10046   */\n      dup2\n        /* \"#utility.yul\":10031:10035   */\n      dup2\n        /* \"#utility.yul\":10027:10047   */\n      sub\n        /* \"#utility.yul\":10023:10024   */\n      0x00\n        /* \"#utility.yul\":10012:10021   */\n      dup4\n        /* \"#utility.yul\":10008:10025   */\n      add\n        /* \"#utility.yul\":10001:10048   */\n      mstore\n        /* \"#utility.yul\":10065:10171   */\n      tag_591\n        /* \"#utility.yul\":10166:10170   */\n      dup2\n        /* \"#utility.yul\":10157:10163   */\n      dup8\n        /* \"#utility.yul\":10065:10171   */\n      tag_408\n      jump\t// in\n    tag_591:\n        /* \"#utility.yul\":10057:10171   */\n      swap1\n      pop\n        /* \"#utility.yul\":10218:10227   */\n      dup2\n        /* \"#utility.yul\":10212:10216   */\n      dup2\n        /* \"#utility.yul\":10208:10228   */\n      sub\n        /* \"#utility.yul\":10203:10205   */\n      0x20\n        /* \"#utility.yul\":10192:10201   */\n      dup4\n        /* \"#utility.yul\":10188:10206   */\n      add\n        /* \"#utility.yul\":10181:10229   */\n      mstore\n        /* \"#utility.yul\":10246:10374   */\n      tag_592\n        /* \"#utility.yul\":10369:10373   */\n      dup2\n        /* \"#utility.yul\":10360:10366   */\n      dup7\n        /* \"#utility.yul\":10246:10374   */\n      tag_418\n      jump\t// in\n    tag_592:\n        /* \"#utility.yul\":10238:10374   */\n      swap1\n      pop\n        /* \"#utility.yul\":10421:10430   */\n      dup2\n        /* \"#utility.yul\":10415:10419   */\n      dup2\n        /* \"#utility.yul\":10411:10431   */\n      sub\n        /* \"#utility.yul\":10406:10408   */\n      0x40\n        /* \"#utility.yul\":10395:10404   */\n      dup4\n        /* \"#utility.yul\":10391:10409   */\n      add\n        /* \"#utility.yul\":10384:10432   */\n      mstore\n        /* \"#utility.yul\":10449:10577   */\n      tag_593\n        /* \"#utility.yul\":10572:10576   */\n      dup2\n        /* \"#utility.yul\":10563:10569   */\n      dup6\n        /* \"#utility.yul\":10449:10577   */\n      tag_418\n      jump\t// in\n    tag_593:\n        /* \"#utility.yul\":10441:10577   */\n      swap1\n      pop\n        /* \"#utility.yul\":10624:10633   */\n      dup2\n        /* \"#utility.yul\":10618:10622   */\n      dup2\n        /* \"#utility.yul\":10614:10634   */\n      sub\n        /* \"#utility.yul\":10609:10611   */\n      0x60\n        /* \"#utility.yul\":10598:10607   */\n      dup4\n        /* \"#utility.yul\":10594:10612   */\n      add\n        /* \"#utility.yul\":10587:10635   */\n      mstore\n        /* \"#utility.yul\":10652:10780   */\n      tag_594\n        /* \"#utility.yul\":10775:10779   */\n      dup2\n        /* \"#utility.yul\":10766:10772   */\n      dup5\n        /* \"#utility.yul\":10652:10780   */\n      tag_418\n      jump\t// in\n    tag_594:\n        /* \"#utility.yul\":10644:10780   */\n      swap1\n      pop\n        /* \"#utility.yul\":9514:10787   */\n      swap6\n      swap5\n      pop\n      pop\n      pop\n      pop\n      pop\n      jump\t// out\n        /* \"#utility.yul\":10793:10883   */\n    tag_419:\n        /* \"#utility.yul\":10827:10834   */\n      0x00\n        /* \"#utility.yul\":10870:10875   */\n      dup2\n        /* \"#utility.yul\":10863:10876   */\n      iszero\n        /* \"#utility.yul\":10856:10877   */\n      iszero\n        /* \"#utility.yul\":10845:10877   */\n      swap1\n      pop\n        /* \"#utility.yul\":10793:10883   */\n      swap2\n      swap1\n      pop\n      jump\t// out\n        /* \"#utility.yul\":10889:11005   */\n    tag_420:\n        /* \"#utility.yul\":10959:10980   */\n      tag_597\n        /* \"#utility.yul\":10974:10979   */\n      dup2\n        /* \"#utility.yul\":10959:10980   */\n      tag_419\n      jump\t// in\n    tag_597:\n        /* \"#utility.yul\":10952:10957   */\n      dup2\n        /* \"#utility.yul\":10949:10981   */\n      eq\n        /* \"#utility.yul\":10939:10999   */\n      tag_598\n      jumpi\n        /* \"#utility.yul\":10995:10996   */\n      0x00\n        /* \"#utility.yul\":10992:10993   */\n      dup1\n        /* \"#utility.yul\":10985:10997   */\n      revert\n        /* \"#utility.yul\":10939:10999   */\n    tag_598:\n        /* \"#utility.yul\":10889:11005   */\n      pop\n      jump\t// out\n        /* \"#utility.yul\":11011:11144   */\n    tag_421:\n        /* \"#utility.yul\":11054:11059   */\n      0x00\n        /* \"#utility.yul\":11092:11098   */\n      dup2\n        /* \"#utility.yul\":11079:11099   */\n      calldataload\n        /* \"#utility.yul\":11070:11099   */\n      swap1\n      pop\n        /* \"#utility.yul\":11108:11138   */\n      tag_600\n        /* \"#utility.yul\":11132:11137   */\n      dup2\n        /* \"#utility.yul\":11108:11138   */\n      tag_420\n      jump\t// in\n    tag_600:\n        /* \"#utility.yul\":11011:11144   */\n      swap3\n      swap2\n      pop\n      pop\n      jump\t// out\n        /* \"#utility.yul\":11150:11937   */\n    tag_52:\n        /* \"#utility.yul\":11231:11237   */\n      0x00\n        /* \"#utility.yul\":11239:11245   */\n      dup1\n        /* \"#utility.yul\":11247:11253   */\n      0x00\n        /* \"#utility.yul\":11296:11298   */\n      0x60\n        /* \"#utility.yul\":11284:11293   */\n      dup5\n        /* \"#utility.yul\":11275:11282   */\n      dup7\n        /* \"#utility.yul\":11271:11294   */\n      sub\n        /* \"#utility.yul\":11267:11299   */\n      slt\n        /* \"#utility.yul\":11264:11383   */\n      iszero\n      tag_602\n      jumpi\n        /* \"#utility.yul\":11302:11381   */\n      tag_603\n      tag_389\n      jump\t// in\n    tag_603:\n        /* \"#utility.yul\":11264:11383   */\n    tag_602:\n        /* \"#utility.yul\":11450:11451   */\n      0x00\n        /* \"#utility.yul\":11439:11448   */\n      dup5\n        /* \"#utility.yul\":11435:11452   */\n      add\n        /* \"#utility.yul\":11422:11453   */\n      calldataload\n        /* \"#utility.yul\":11480:11498   */\n      0xffffffffffffffff\n        /* \"#utility.yul\":11472:11478   */\n      dup2\n        /* \"#utility.yul\":11469:11499   */\n      gt\n        /* \"#utility.yul\":11466:11583   */\n      iszero\n      tag_604\n      jumpi\n        /* \"#utility.yul\":11502:11581   */\n      tag_605\n      tag_390\n      jump\t// in\n    tag_605:\n        /* \"#utility.yul\":11466:11583   */\n    tag_604:\n        /* \"#utility.yul\":11607:11670   */\n      tag_606\n        /* \"#utility.yul\":11662:11669   */\n      dup7\n        /* \"#utility.yul\":11653:11659   */\n      dup3\n        /* \"#utility.yul\":11642:11651   */\n      dup8\n        /* \"#utility.yul\":11638:11660   */\n      add\n        /* \"#utility.yul\":11607:11670   */\n      tag_401\n      jump\t// in\n    tag_606:\n        /* \"#utility.yul\":11597:11670   */\n      swap4\n      pop\n        /* \"#utility.yul\":11393:11680   */\n      pop\n        /* \"#utility.yul\":11719:11721   */\n      0x20\n        /* \"#utility.yul\":11745:11795   */\n      tag_607\n        /* \"#utility.yul\":11787:11794   */\n      dup7\n        /* \"#utility.yul\":11778:11784   */\n      dup3\n        /* \"#utility.yul\":11767:11776   */\n      dup8\n        /* \"#utility.yul\":11763:11785   */\n      add\n        /* \"#utility.yul\":11745:11795   */\n      tag_421\n      jump\t// in\n    tag_607:\n        /* \"#utility.yul\":11735:11795   */\n      swap3\n      pop\n        /* \"#utility.yul\":11690:11805   */\n      pop\n        /* \"#utility.yul\":11844:11846   */\n      0x40\n        /* \"#utility.yul\":11870:11920   */\n      tag_608\n        /* \"#utility.yul\":11912:11919   */\n      dup7\n        /* \"#utility.yul\":11903:11909   */\n      dup3\n        /* \"#utility.yul\":11892:11901   */\n      dup8\n        /* \"#utility.yul\":11888:11910   */\n      add\n        /* \"#utility.yul\":11870:11920   */\n      tag_421\n      jump\t// in\n    tag_608:\n        /* \"#utility.yul\":11860:11920   */\n      swap2\n      pop\n        /* \"#utility.yul\":11815:11930   */\n      pop\n        /* \"#utility.yul\":11150:11937   */\n      swap3\n      pop\n      swap3\n      pop\n      swap3\n      jump\t// out\n        /* \"#utility.yul\":11943:12270   */\n    tag_56:\n        /* \"#utility.yul\":12001:12007   */\n      0x00\n        /* \"#utility.yul\":12050:12052   */\n      0x20\n        /* \"#utility.yul\":12038:12047   */\n      dup3\n        /* \"#utility.yul\":12029:12036   */\n      dup5\n        /* \"#utility.yul\":12025:12048   */\n      sub\n        /* \"#utility.yul\":12021:12053   */\n      slt\n        /* \"#utility.yul\":12018:12137   */\n      iszero\n      tag_610\n      jumpi\n        /* \"#utility.yul\":12056:12135   */\n      tag_611\n      tag_389\n      jump\t// in\n    tag_611:\n        /* \"#utility.yul\":12018:12137   */\n    tag_610:\n        /* \"#utility.yul\":12176:12177   */\n      0x00\n        /* \"#utility.yul\":12201:12253   */\n      tag_612\n        /* \"#utility.yul\":12245:12252   */\n      dup5\n        /* \"#utility.yul\":12236:12242   */\n      dup3\n        /* \"#utility.yul\":12225:12234   */\n      dup6\n        /* \"#utility.yul\":12221:12243   */\n      add\n        /* \"#utility.yul\":12201:12253   */\n      tag_392\n      jump\t// in\n    tag_612:\n        /* \"#utility.yul\":12191:12253   */\n      swap2\n      pop\n        /* \"#utility.yul\":12147:12263   */\n      pop\n        /* \"#utility.yul\":11943:12270   */\n      swap3\n      swap2\n      pop\n      pop\n      jump\t// out\n        /* \"#utility.yul\":12276:13247   */\n    tag_61:\n        /* \"#utility.yul\":12613:12617   */\n      0x00\n        /* \"#utility.yul\":12651:12653   */\n      0x60\n        /* \"#utility.yul\":12640:12649   */\n      dup3\n        /* \"#utility.yul\":12636:12654   */\n      add\n        /* \"#utility.yul\":12628:12654   */\n      swap1\n      pop\n        /* \"#utility.yul\":12700:12709   */\n      dup2\n        /* \"#utility.yul\":12694:12698   */\n      dup2\n        /* \"#utility.yul\":12690:12710   */\n      sub\n        /* \"#utility.yul\":12686:12687   */\n      0x00\n        /* \"#utility.yul\":12675:12684   */\n      dup4\n        /* \"#utility.yul\":12671:12688   */\n      add\n        /* \"#utility.yul\":12664:12711   */\n      mstore\n        /* \"#utility.yul\":12728:12834   */\n      tag_614\n        /* \"#utility.yul\":12829:12833   */\n      dup2\n        /* \"#utility.yul\":12820:12826   */\n      dup7\n        /* \"#utility.yul\":12728:12834   */\n      tag_408\n      jump\t// in\n    tag_614:\n        /* \"#utility.yul\":12720:12834   */\n      swap1\n      pop\n        /* \"#utility.yul\":12881:12890   */\n      dup2\n        /* \"#utility.yul\":12875:12879   */\n      dup2\n        /* \"#utility.yul\":12871:12891   */\n      sub\n        /* \"#utility.yul\":12866:12868   */\n      0x20\n        /* \"#utility.yul\":12855:12864   */\n      dup4\n        /* \"#utility.yul\":12851:12869   */\n      add\n        /* \"#utility.yul\":12844:12892   */\n      mstore\n        /* \"#utility.yul\":12909:13037   */\n      tag_615\n        /* \"#utility.yul\":13032:13036   */\n      dup2\n        /* \"#utility.yul\":13023:13029   */\n      dup6\n        /* \"#utility.yul\":12909:13037   */\n      tag_418\n      jump\t// in\n    tag_615:\n        /* \"#utility.yul\":12901:13037   */\n      swap1\n      pop\n        /* \"#utility.yul\":13084:13093   */\n      dup2\n        /* \"#utility.yul\":13078:13082   */\n      dup2\n        /* \"#utility.yul\":13074:13094   */\n      sub\n        /* \"#utility.yul\":13069:13071   */\n      0x40\n        /* \"#utility.yul\":13058:13067   */\n      dup4\n        /* \"#utility.yul\":13054:13072   */\n      add\n        /* \"#utility.yul\":13047:13095   */\n      mstore\n        /* \"#utility.yul\":13112:13240   */\n      tag_616\n        /* \"#utility.yul\":13235:13239   */\n      dup2\n        /* \"#utility.yul\":13226:13232   */\n      dup5\n        /* \"#utility.yul\":13112:13240   */\n      tag_418\n      jump\t// in\n    tag_616:\n        /* \"#utility.yul\":13104:13240   */\n      swap1\n      pop\n        /* \"#utility.yul\":12276:13247   */\n      swap5\n      swap4\n      pop\n      pop\n      pop\n      pop\n      jump\t// out\n        /* \"#utility.yul\":13253:13379   */\n    tag_422:\n        /* \"#utility.yul\":13290:13297   */\n      0x00\n        /* \"#utility.yul\":13330:13372   */\n      0xffffffffffffffffffffffffffffffffffffffff\n        /* \"#utility.yul\":13323:13328   */\n      dup3\n        /* \"#utility.yul\":13319:13373   */\n      and\n        /* \"#utility.yul\":13308:13373   */\n      swap1\n      pop\n        /* \"#utility.yul\":13253:13379   */\n      swap2\n      swap1\n      pop\n      jump\t// out\n        /* \"#utility.yul\":13385:13481   */\n    tag_423:\n        /* \"#utility.yul\":13422:13429   */\n      0x00\n        /* \"#utility.yul\":13451:13475   */\n      tag_619\n        /* \"#utility.yul\":13469:13474   */\n      dup3\n        /* \"#utility.yul\":13451:13475   */\n      tag_422\n      jump\t// in\n    tag_619:\n        /* \"#utility.yul\":13440:13475   */\n      swap1\n      pop\n        /* \"#utility.yul\":13385:13481   */\n      swap2\n      swap1\n      pop\n      jump\t// out\n        /* \"#utility.yul\":13487:13609   */\n    tag_424:\n        /* \"#utility.yul\":13560:13584   */\n      tag_621\n        /* \"#utility.yul\":13578:13583   */\n      dup2\n        /* \"#utility.yul\":13560:13584   */\n      tag_423\n      jump\t// in\n    tag_621:\n        /* \"#utility.yul\":13553:13558   */\n      dup2\n        /* \"#utility.yul\":13550:13585   */\n      eq\n        /* \"#utility.yul\":13540:13603   */\n      tag_622\n      jumpi\n        /* \"#utility.yul\":13599:13600   */\n      0x00\n        /* \"#utility.yul\":13596:13597   */\n      dup1\n        /* \"#utility.yul\":13589:13601   */\n      revert\n        /* \"#utility.yul\":13540:13603   */\n    tag_622:\n        /* \"#utility.yul\":13487:13609   */\n      pop\n      jump\t// out\n        /* \"#utility.yul\":13615:13754   */\n    tag_425:\n        /* \"#utility.yul\":13661:13666   */\n      0x00\n        /* \"#utility.yul\":13699:13705   */\n      dup2\n        /* \"#utility.yul\":13686:13706   */\n      calldataload\n        /* \"#utility.yul\":13677:13706   */\n      swap1\n      pop\n        /* \"#utility.yul\":13715:13748   */\n      tag_624\n        /* \"#utility.yul\":13742:13747   */\n      dup2\n        /* \"#utility.yul\":13715:13748   */\n      tag_424\n      jump\t// in\n    tag_624:\n        /* \"#utility.yul\":13615:13754   */\n      swap3\n      swap2\n      pop\n      pop\n      jump\t// out\n        /* \"#utility.yul\":13760:13882   */\n    tag_426:\n        /* \"#utility.yul\":13833:13857   */\n      tag_626\n        /* \"#utility.yul\":13851:13856   */\n      dup2\n        /* \"#utility.yul\":13833:13857   */\n      tag_386\n      jump\t// in\n    tag_626:\n        /* \"#utility.yul\":13826:13831   */\n      dup2\n        /* \"#utility.yul\":13823:13858   */\n      eq\n        /* \"#utility.yul\":13813:13876   */\n      tag_627\n      jumpi\n        /* \"#utility.yul\":13872:13873   */\n      0x00\n        /* \"#utility.yul\":13869:13870   */\n      dup1\n        /* \"#utility.yul\":13862:13874   */\n      revert\n        /* \"#utility.yul\":13813:13876   */\n    tag_627:\n        /* \"#utility.yul\":13760:13882   */\n      pop\n      jump\t// out\n        /* \"#utility.yul\":13888:14027   */\n    tag_427:\n        /* \"#utility.yul\":13934:13939   */\n      0x00\n        /* \"#utility.yul\":13972:13978   */\n      dup2\n        /* \"#utility.yul\":13959:13979   */\n      calldataload\n        /* \"#utility.yul\":13950:13979   */\n      swap1\n      pop\n        /* \"#utility.yul\":13988:14021   */\n      tag_629\n        /* \"#utility.yul\":14015:14020   */\n      dup2\n        /* \"#utility.yul\":13988:14021   */\n      tag_426\n      jump\t// in\n    tag_629:\n        /* \"#utility.yul\":13888:14027   */\n      swap3\n      swap2\n      pop\n      pop\n      jump\t// out\n        /* \"#utility.yul\":14033:14796   */\n    tag_64:\n        /* \"#utility.yul\":14118:14124   */\n      0x00\n        /* \"#utility.yul\":14126:14132   */\n      dup1\n        /* \"#utility.yul\":14134:14140   */\n      0x00\n        /* \"#utility.yul\":14142:14148   */\n      dup1\n        /* \"#utility.yul\":14191:14194   */\n      0x80\n        /* \"#utility.yul\":14179:14188   */\n      dup6\n        /* \"#utility.yul\":14170:14177   */\n      dup8\n        /* \"#utility.yul\":14166:14189   */\n      sub\n        /* \"#utility.yul\":14162:14195   */\n      slt\n        /* \"#utility.yul\":14159:14279   */\n      iszero\n      tag_631\n      jumpi\n        /* \"#utility.yul\":14198:14277   */\n      tag_632\n      tag_389\n      jump\t// in\n    tag_632:\n        /* \"#utility.yul\":14159:14279   */\n    tag_631:\n        /* \"#utility.yul\":14318:14319   */\n      0x00\n        /* \"#utility.yul\":14343:14395   */\n      tag_633\n        /* \"#utility.yul\":14387:14394   */\n      dup8\n        /* \"#utility.yul\":14378:14384   */\n      dup3\n        /* \"#utility.yul\":14367:14376   */\n      dup9\n        /* \"#utility.yul\":14363:14385   */\n      add\n        /* \"#utility.yul\":14343:14395   */\n      tag_392\n      jump\t// in\n    tag_633:\n        /* \"#utility.yul\":14333:14395   */\n      swap5\n      pop\n        /* \"#utility.yul\":14289:14405   */\n      pop\n        /* \"#utility.yul\":14444:14446   */\n      0x20\n        /* \"#utility.yul\":14470:14523   */\n      tag_634\n        /* \"#utility.yul\":14515:14522   */\n      dup8\n        /* \"#utility.yul\":14506:14512   */\n      dup3\n        /* \"#utility.yul\":14495:14504   */\n      dup9\n        /* \"#utility.yul\":14491:14513   */\n      add\n        /* \"#utility.yul\":14470:14523   */\n      tag_425\n      jump\t// in\n    tag_634:\n        /* \"#utility.yul\":14460:14523   */\n      swap4\n      pop\n        /* \"#utility.yul\":14415:14533   */\n      pop\n        /* \"#utility.yul\":14572:14574   */\n      0x40\n        /* \"#utility.yul\":14598:14651   */\n      tag_635\n        /* \"#utility.yul\":14643:14650   */\n      dup8\n        /* \"#utility.yul\":14634:14640   */\n      dup3\n        /* \"#utility.yul\":14623:14632   */\n      dup9\n        /* \"#utility.yul\":14619:14641   */\n      add\n        /* \"#utility.yul\":14598:14651   */\n      tag_427\n      jump\t// in\n    tag_635:\n        /* \"#utility.yul\":14588:14651   */\n      swap3\n      pop\n        /* \"#utility.yul\":14543:14661   */\n      pop\n        /* \"#utility.yul\":14700:14702   */\n      0x60\n        /* \"#utility.yul\":14726:14779   */\n      tag_636\n        /* \"#utility.yul\":14771:14778   */\n      dup8\n        /* \"#utility.yul\":14762:14768   */\n      dup3\n        /* \"#utility.yul\":14751:14760   */\n      dup9\n        /* \"#utility.yul\":14747:14769   */\n      add\n        /* \"#utility.yul\":14726:14779   */\n      tag_427\n      jump\t// in\n    tag_636:\n        /* \"#utility.yul\":14716:14779   */\n      swap2\n      pop\n        /* \"#utility.yul\":14671:14789   */\n      pop\n        /* \"#utility.yul\":14033:14796   */\n      swap3\n      swap6\n      swap2\n      swap5\n      pop\n      swap3\n      pop\n      jump\t// out\n        /* \"#utility.yul\":14802:15131   */\n    tag_68:\n        /* \"#utility.yul\":14861:14867   */\n      0x00\n        /* \"#utility.yul\":14910:14912   */\n      0x20\n        /* \"#utility.yul\":14898:14907   */\n      dup3\n        /* \"#utility.yul\":14889:14896   */\n      dup5\n        /* \"#utility.yul\":14885:14908   */\n      sub\n        /* \"#utility.yul\":14881:14913   */\n      slt\n        /* \"#utility.yul\":14878:14997   */\n      iszero\n      tag_638\n      jumpi\n        /* \"#utility.yul\":14916:14995   */\n      tag_639\n      tag_389\n      jump\t// in\n    tag_639:\n        /* \"#utility.yul\":14878:14997   */\n    tag_638:\n        /* \"#utility.yul\":15036:15037   */\n      0x00\n        /* \"#utility.yul\":15061:15114   */\n      tag_640\n        /* \"#utility.yul\":15106:15113   */\n      dup5\n        /* \"#utility.yul\":15097:15103   */\n      dup3\n        /* \"#utility.yul\":15086:15095   */\n      dup6\n        /* \"#utility.yul\":15082:15104   */\n      add\n        /* \"#utility.yul\":15061:15114   */\n      tag_427\n      jump\t// in\n    tag_640:\n        /* \"#utility.yul\":15051:15114   */\n      swap2\n      pop\n        /* \"#utility.yul\":15007:15124   */\n      pop\n        /* \"#utility.yul\":14802:15131   */\n      swap3\n      swap2\n      pop\n      pop\n      jump\t// out\n        /* \"#utility.yul\":15137:15255   */\n    tag_428:\n        /* \"#utility.yul\":15224:15248   */\n      tag_642\n        /* \"#utility.yul\":15242:15247   */\n      dup2\n        /* \"#utility.yul\":15224:15248   */\n      tag_423\n      jump\t// in\n    tag_642:\n        /* \"#utility.yul\":15219:15222   */\n      dup3\n        /* \"#utility.yul\":15212:15249   */\n      mstore\n        /* \"#utility.yul\":15137:15255   */\n      pop\n      pop\n      jump\t// out\n        /* \"#utility.yul\":15261:15430   */\n    tag_429:\n        /* \"#utility.yul\":15345:15356   */\n      0x00\n        /* \"#utility.yul\":15379:15385   */\n      dup3\n        /* \"#utility.yul\":15374:15377   */\n      dup3\n        /* \"#utility.yul\":15367:15386   */\n      mstore\n        /* \"#utility.yul\":15419:15423   */\n      0x20\n        /* \"#utility.yul\":15414:15417   */\n      dup3\n        /* \"#utility.yul\":15410:15424   */\n      add\n        /* \"#utility.yul\":15395:15424   */\n      swap1\n      pop\n        /* \"#utility.yul\":15261:15430   */\n      swap3\n      swap2\n      pop\n      pop\n      jump\t// out\n        /* \"#utility.yul\":15436:15813   */\n    tag_430:\n        /* \"#utility.yul\":15524:15527   */\n      0x00\n        /* \"#utility.yul\":15552:15591   */\n      tag_645\n        /* \"#utility.yul\":15585:15590   */\n      dup3\n        /* \"#utility.yul\":15552:15591   */\n      tag_412\n      jump\t// in\n    tag_645:\n        /* \"#utility.yul\":15607:15678   */\n      tag_646\n        /* \"#utility.yul\":15671:15677   */\n      dup2\n        /* \"#utility.yul\":15666:15669   */\n      dup6\n        /* \"#utility.yul\":15607:15678   */\n      tag_429\n      jump\t// in\n    tag_646:\n        /* \"#utility.yul\":15600:15678   */\n      swap4\n      pop\n        /* \"#utility.yul\":15687:15752   */\n      tag_647\n        /* \"#utility.yul\":15745:15751   */\n      dup2\n        /* \"#utility.yul\":15740:15743   */\n      dup6\n        /* \"#utility.yul\":15733:15737   */\n      0x20\n        /* \"#utility.yul\":15726:15731   */\n      dup7\n        /* \"#utility.yul\":15722:15738   */\n      add\n        /* \"#utility.yul\":15687:15752   */\n      tag_414\n      jump\t// in\n    tag_647:\n        /* \"#utility.yul\":15777:15806   */\n      tag_648\n        /* \"#utility.yul\":15799:15805   */\n      dup2\n        /* \"#utility.yul\":15777:15806   */\n      tag_395\n      jump\t// in\n    tag_648:\n        /* \"#utility.yul\":15772:15775   */\n      dup5\n        /* \"#utility.yul\":15768:15807   */\n      add\n        /* \"#utility.yul\":15761:15807   */\n      swap2\n      pop\n        /* \"#utility.yul\":15528:15813   */\n      pop\n        /* \"#utility.yul\":15436:15813   */\n      swap3\n      swap2\n      pop\n      pop\n      jump\t// out\n        /* \"#utility.yul\":15819:16550   */\n    tag_71:\n        /* \"#utility.yul\":16034:16038   */\n      0x00\n        /* \"#utility.yul\":16072:16075   */\n      0x80\n        /* \"#utility.yul\":16061:16070   */\n      dup3\n        /* \"#utility.yul\":16057:16076   */\n      add\n        /* \"#utility.yul\":16049:16076   */\n      swap1\n      pop\n        /* \"#utility.yul\":16086:16157   */\n      tag_650\n        /* \"#utility.yul\":16154:16155   */\n      0x00\n        /* \"#utility.yul\":16143:16152   */\n      dup4\n        /* \"#utility.yul\":16139:16156   */\n      add\n        /* \"#utility.yul\":16130:16136   */\n      dup8\n        /* \"#utility.yul\":16086:16157   */\n      tag_428\n      jump\t// in\n    tag_650:\n        /* \"#utility.yul\":16167:16237   */\n      tag_651\n        /* \"#utility.yul\":16233:16235   */\n      0x20\n        /* \"#utility.yul\":16222:16231   */\n      dup4\n        /* \"#utility.yul\":16218:16236   */\n      add\n        /* \"#utility.yul\":16209:16215   */\n      dup7\n        /* \"#utility.yul\":16167:16237   */\n      tag_385\n      jump\t// in\n    tag_651:\n        /* \"#utility.yul\":16284:16293   */\n      dup2\n        /* \"#utility.yul\":16278:16282   */\n      dup2\n        /* \"#utility.yul\":16274:16294   */\n      sub\n        /* \"#utility.yul\":16269:16271   */\n      0x40\n        /* \"#utility.yul\":16258:16267   */\n      dup4\n        /* \"#utility.yul\":16254:16272   */\n      add\n        /* \"#utility.yul\":16247:16295   */\n      mstore\n        /* \"#utility.yul\":16312:16390   */\n      tag_652\n        /* \"#utility.yul\":16385:16389   */\n      dup2\n        /* \"#utility.yul\":16376:16382   */\n      dup6\n        /* \"#utility.yul\":16312:16390   */\n      tag_430\n      jump\t// in\n    tag_652:\n        /* \"#utility.yul\":16304:16390   */\n      swap1\n      pop\n        /* \"#utility.yul\":16437:16446   */\n      dup2\n        /* \"#utility.yul\":16431:16435   */\n      dup2\n        /* \"#utility.yul\":16427:16447   */\n      sub\n        /* \"#utility.yul\":16422:16424   */\n      0x60\n        /* \"#utility.yul\":16411:16420   */\n      dup4\n        /* \"#utility.yul\":16407:16425   */\n      add\n        /* \"#utility.yul\":16400:16448   */\n      mstore\n        /* \"#utility.yul\":16465:16543   */\n      tag_653\n        /* \"#utility.yul\":16538:16542   */\n      dup2\n        /* \"#utility.yul\":16529:16535   */\n      dup5\n        /* \"#utility.yul\":16465:16543   */\n      tag_430\n      jump\t// in\n    tag_653:\n        /* \"#utility.yul\":16457:16543   */\n      swap1\n      pop\n        /* \"#utility.yul\":15819:16550   */\n      swap6\n      swap5\n      pop\n      pop\n      pop\n      pop\n      pop\n      jump\t// out\n        /* \"#utility.yul\":16556:16665   */\n    tag_431:\n        /* \"#utility.yul\":16637:16658   */\n      tag_655\n        /* \"#utility.yul\":16652:16657   */\n      dup2\n        /* \"#utility.yul\":16637:16658   */\n      tag_419\n      jump\t// in\n    tag_655:\n        /* \"#utility.yul\":16632:16635   */\n      dup3\n        /* \"#utility.yul\":16625:16659   */\n      mstore\n        /* \"#utility.yul\":16556:16665   */\n      pop\n      pop\n      jump\t// out\n        /* \"#utility.yul\":16671:17208   */\n    tag_76:\n        /* \"#utility.yul\":16840:16844   */\n      0x00\n        /* \"#utility.yul\":16878:16881   */\n      0x80\n        /* \"#utility.yul\":16867:16876   */\n      dup3\n        /* \"#utility.yul\":16863:16882   */\n      add\n        /* \"#utility.yul\":16855:16882   */\n      swap1\n      pop\n        /* \"#utility.yul\":16892:16963   */\n      tag_657\n        /* \"#utility.yul\":16960:16961   */\n      0x00\n        /* \"#utility.yul\":16949:16958   */\n      dup4\n        /* \"#utility.yul\":16945:16962   */\n      add\n        /* \"#utility.yul\":16936:16942   */\n      dup8\n        /* \"#utility.yul\":16892:16963   */\n      tag_428\n      jump\t// in\n    tag_657:\n        /* \"#utility.yul\":16973:17043   */\n      tag_658\n        /* \"#utility.yul\":17039:17041   */\n      0x20\n        /* \"#utility.yul\":17028:17037   */\n      dup4\n        /* \"#utility.yul\":17024:17042   */\n      add\n        /* \"#utility.yul\":17015:17021   */\n      dup7\n        /* \"#utility.yul\":16973:17043   */\n      tag_385\n      jump\t// in\n    tag_658:\n        /* \"#utility.yul\":17053:17125   */\n      tag_659\n        /* \"#utility.yul\":17121:17123   */\n      0x40\n        /* \"#utility.yul\":17110:17119   */\n      dup4\n        /* \"#utility.yul\":17106:17124   */\n      add\n        /* \"#utility.yul\":17097:17103   */\n      dup6\n        /* \"#utility.yul\":17053:17125   */\n      tag_387\n      jump\t// in\n    tag_659:\n        /* \"#utility.yul\":17135:17201   */\n      tag_660\n        /* \"#utility.yul\":17197:17199   */\n      0x60\n        /* \"#utility.yul\":17186:17195   */\n      dup4\n        /* \"#utility.yul\":17182:17200   */\n      add\n        /* \"#utility.yul\":17173:17179   */\n      dup5\n        /* \"#utility.yul\":17135:17201   */\n      tag_431\n      jump\t// in\n    tag_660:\n        /* \"#utility.yul\":16671:17208   */\n      swap6\n      swap5\n      pop\n      pop\n      pop\n      pop\n      pop\n      jump\t// out\n        /* \"#utility.yul\":17214:18155   */\n    tag_81:\n        /* \"#utility.yul\":17479:17483   */\n      0x00\n        /* \"#utility.yul\":17517:17520   */\n      0xc0\n        /* \"#utility.yul\":17506:17515   */\n      dup3\n        /* \"#utility.yul\":17502:17521   */\n      add\n        /* \"#utility.yul\":17494:17521   */\n      swap1\n      pop\n        /* \"#utility.yul\":17531:17600   */\n      tag_662\n        /* \"#utility.yul\":17597:17598   */\n      0x00\n        /* \"#utility.yul\":17586:17595   */\n      dup4\n        /* \"#utility.yul\":17582:17599   */\n      add\n        /* \"#utility.yul\":17573:17579   */\n      dup10\n        /* \"#utility.yul\":17531:17600   */\n      tag_385\n      jump\t// in\n    tag_662:\n        /* \"#utility.yul\":17647:17656   */\n      dup2\n        /* \"#utility.yul\":17641:17645   */\n      dup2\n        /* \"#utility.yul\":17637:17657   */\n      sub\n        /* \"#utility.yul\":17632:17634   */\n      0x20\n        /* \"#utility.yul\":17621:17630   */\n      dup4\n        /* \"#utility.yul\":17617:17635   */\n      add\n        /* \"#utility.yul\":17610:17658   */\n      mstore\n        /* \"#utility.yul\":17675:17753   */\n      tag_663\n        /* \"#utility.yul\":17748:17752   */\n      dup2\n        /* \"#utility.yul\":17739:17745   */\n      dup9\n        /* \"#utility.yul\":17675:17753   */\n      tag_430\n      jump\t// in\n    tag_663:\n        /* \"#utility.yul\":17667:17753   */\n      swap1\n      pop\n        /* \"#utility.yul\":17800:17809   */\n      dup2\n        /* \"#utility.yul\":17794:17798   */\n      dup2\n        /* \"#utility.yul\":17790:17810   */\n      sub\n        /* \"#utility.yul\":17785:17787   */\n      0x40\n        /* \"#utility.yul\":17774:17783   */\n      dup4\n        /* \"#utility.yul\":17770:17788   */\n      add\n        /* \"#utility.yul\":17763:17811   */\n      mstore\n        /* \"#utility.yul\":17828:17906   */\n      tag_664\n        /* \"#utility.yul\":17901:17905   */\n      dup2\n        /* \"#utility.yul\":17892:17898   */\n      dup8\n        /* \"#utility.yul\":17828:17906   */\n      tag_430\n      jump\t// in\n    tag_664:\n        /* \"#utility.yul\":17820:17906   */\n      swap1\n      pop\n        /* \"#utility.yul\":17916:17988   */\n      tag_665\n        /* \"#utility.yul\":17984:17986   */\n      0x60\n        /* \"#utility.yul\":17973:17982   */\n      dup4\n        /* \"#utility.yul\":17969:17987   */\n      add\n        /* \"#utility.yul\":17960:17966   */\n      dup7\n        /* \"#utility.yul\":17916:17988   */\n      tag_428\n      jump\t// in\n    tag_665:\n        /* \"#utility.yul\":17998:18065   */\n      tag_666\n        /* \"#utility.yul\":18060:18063   */\n      0x80\n        /* \"#utility.yul\":18049:18058   */\n      dup4\n        /* \"#utility.yul\":18045:18064   */\n      add\n        /* \"#utility.yul\":18036:18042   */\n      dup6\n        /* \"#utility.yul\":17998:18065   */\n      tag_431\n      jump\t// in\n    tag_666:\n        /* \"#utility.yul\":18075:18148   */\n      tag_667\n        /* \"#utility.yul\":18143:18146   */\n      0xa0\n        /* \"#utility.yul\":18132:18141   */\n      dup4\n        /* \"#utility.yul\":18128:18147   */\n      add\n        /* \"#utility.yul\":18119:18125   */\n      dup5\n        /* \"#utility.yul\":18075:18148   */\n      tag_428\n      jump\t// in\n    tag_667:\n        /* \"#utility.yul\":17214:18155   */\n      swap8\n      swap7\n      pop\n      pop\n      pop\n      pop\n      pop\n      pop\n      pop\n      jump\t// out\n        /* \"#utility.yul\":18161:18383   */\n    tag_86:\n        /* \"#utility.yul\":18254:18258   */\n      0x00\n        /* \"#utility.yul\":18292:18294   */\n      0x20\n        /* \"#utility.yul\":18281:18290   */\n      dup3\n        /* \"#utility.yul\":18277:18295   */\n      add\n        /* \"#utility.yul\":18269:18295   */\n      swap1\n      pop\n        /* \"#utility.yul\":18305:18376   */\n      tag_669\n        /* \"#utility.yul\":18373:18374   */\n      0x00\n        /* \"#utility.yul\":18362:18371   */\n      dup4\n        /* \"#utility.yul\":18358:18375   */\n      add\n        /* \"#utility.yul\":18349:18355   */\n      dup5\n        /* \"#utility.yul\":18305:18376   */\n      tag_428\n      jump\t// in\n    tag_669:\n        /* \"#utility.yul\":18161:18383   */\n      swap3\n      swap2\n      pop\n      pop\n      jump\t// out\n        /* \"#utility.yul\":18389:18938   */\n    tag_91:\n        /* \"#utility.yul\":18564:18568   */\n      0x00\n        /* \"#utility.yul\":18602:18605   */\n      0x80\n        /* \"#utility.yul\":18591:18600   */\n      dup3\n        /* \"#utility.yul\":18587:18606   */\n      add\n        /* \"#utility.yul\":18579:18606   */\n      swap1\n      pop\n        /* \"#utility.yul\":18616:18685   */\n      tag_671\n        /* \"#utility.yul\":18682:18683   */\n      0x00\n        /* \"#utility.yul\":18671:18680   */\n      dup4\n        /* \"#utility.yul\":18667:18684   */\n      add\n        /* \"#utility.yul\":18658:18664   */\n      dup8\n        /* \"#utility.yul\":18616:18685   */\n      tag_385\n      jump\t// in\n    tag_671:\n        /* \"#utility.yul\":18695:18767   */\n      tag_672\n        /* \"#utility.yul\":18763:18765   */\n      0x20\n        /* \"#utility.yul\":18752:18761   */\n      dup4\n        /* \"#utility.yul\":18748:18766   */\n      add\n        /* \"#utility.yul\":18739:18745   */\n      dup7\n        /* \"#utility.yul\":18695:18767   */\n      tag_428\n      jump\t// in\n    tag_672:\n        /* \"#utility.yul\":18777:18849   */\n      tag_673\n        /* \"#utility.yul\":18845:18847   */\n      0x40\n        /* \"#utility.yul\":18834:18843   */\n      dup4\n        /* \"#utility.yul\":18830:18848   */\n      add\n        /* \"#utility.yul\":18821:18827   */\n      dup6\n        /* \"#utility.yul\":18777:18849   */\n      tag_387\n      jump\t// in\n    tag_673:\n        /* \"#utility.yul\":18859:18931   */\n      tag_674\n        /* \"#utility.yul\":18927:18929   */\n      0x60\n        /* \"#utility.yul\":18916:18925   */\n      dup4\n        /* \"#utility.yul\":18912:18930   */\n      add\n        /* \"#utility.yul\":18903:18909   */\n      dup5\n        /* \"#utility.yul\":18859:18931   */\n      tag_387\n      jump\t// in\n    tag_674:\n        /* \"#utility.yul\":18389:18938   */\n      swap6\n      swap5\n      pop\n      pop\n      pop\n      pop\n      pop\n      jump\t// out\n        /* \"#utility.yul\":18944:19273   */\n    tag_94:\n        /* \"#utility.yul\":19003:19009   */\n      0x00\n        /* \"#utility.yul\":19052:19054   */\n      0x20\n        /* \"#utility.yul\":19040:19049   */\n      dup3\n        /* \"#utility.yul\":19031:19038   */\n      dup5\n        /* \"#utility.yul\":19027:19050   */\n      sub\n        /* \"#utility.yul\":19023:19055   */\n      slt\n        /* \"#utility.yul\":19020:19139   */\n      iszero\n      tag_676\n      jumpi\n        /* \"#utility.yul\":19058:19137   */\n      tag_677\n      tag_389\n      jump\t// in\n    tag_677:\n        /* \"#utility.yul\":19020:19139   */\n    tag_676:\n        /* \"#utility.yul\":19178:19179   */\n      0x00\n        /* \"#utility.yul\":19203:19256   */\n      tag_678\n        /* \"#utility.yul\":19248:19255   */\n      dup5\n        /* \"#utility.yul\":19239:19245   */\n      dup3\n        /* \"#utility.yul\":19228:19237   */\n      dup6\n        /* \"#utility.yul\":19224:19246   */\n      add\n        /* \"#utility.yul\":19203:19256   */\n      tag_425\n      jump\t// in\n    tag_678:\n        /* \"#utility.yul\":19193:19256   */\n      swap2\n      pop\n        /* \"#utility.yul\":19149:19266   */\n      pop\n        /* \"#utility.yul\":18944:19273   */\n      swap3\n      swap2\n      pop\n      pop\n      jump\t// out\n        /* \"#utility.yul\":19279:19788   */\n    tag_97:\n        /* \"#utility.yul\":19436:19440   */\n      0x00\n        /* \"#utility.yul\":19474:19476   */\n      0x60\n        /* \"#utility.yul\":19463:19472   */\n      dup3\n        /* \"#utility.yul\":19459:19477   */\n      add\n        /* \"#utility.yul\":19451:19477   */\n      swap1\n      pop\n        /* \"#utility.yul\":19487:19552   */\n      tag_680\n        /* \"#utility.yul\":19549:19550   */\n      0x00\n        /* \"#utility.yul\":19538:19547   */\n      dup4\n        /* \"#utility.yul\":19534:19551   */\n      add\n        /* \"#utility.yul\":19525:19531   */\n      dup7\n        /* \"#utility.yul\":19487:19552   */\n      tag_431\n      jump\t// in\n    tag_680:\n        /* \"#utility.yul\":19562:19628   */\n      tag_681\n        /* \"#utility.yul\":19624:19626   */\n      0x20\n        /* \"#utility.yul\":19613:19622   */\n      dup4\n        /* \"#utility.yul\":19609:19627   */\n      add\n        /* \"#utility.yul\":19600:19606   */\n      dup6\n        /* \"#utility.yul\":19562:19628   */\n      tag_431\n      jump\t// in\n    tag_681:\n        /* \"#utility.yul\":19675:19684   */\n      dup2\n        /* \"#utility.yul\":19669:19673   */\n      dup2\n        /* \"#utility.yul\":19665:19685   */\n      sub\n        /* \"#utility.yul\":19660:19662   */\n      0x40\n        /* \"#utility.yul\":19649:19658   */\n      dup4\n        /* \"#utility.yul\":19645:19663   */\n      add\n        /* \"#utility.yul\":19638:19686   */\n      mstore\n        /* \"#utility.yul\":19703:19781   */\n      tag_682\n        /* \"#utility.yul\":19776:19780   */\n      dup2\n        /* \"#utility.yul\":19767:19773   */\n      dup5\n        /* \"#utility.yul\":19703:19781   */\n      tag_430\n      jump\t// in\n    tag_682:\n        /* \"#utility.yul\":19695:19781   */\n      swap1\n      pop\n        /* \"#utility.yul\":19279:19788   */\n      swap5\n      swap4\n      pop\n      pop\n      pop\n      pop\n      jump\t// out\n        /* \"#utility.yul\":19794:20448   */\n    tag_100:\n        /* \"#utility.yul\":19872:19878   */\n      0x00\n        /* \"#utility.yul\":19880:19886   */\n      dup1\n        /* \"#utility.yul\":19929:19931   */\n      0x40\n        /* \"#utility.yul\":19917:19926   */\n      dup4\n        /* \"#utility.yul\":19908:19915   */\n      dup6\n        /* \"#utility.yul\":19904:19927   */\n      sub\n        /* \"#utility.yul\":19900:19932   */\n      slt\n        /* \"#utility.yul\":19897:20016   */\n      iszero\n      tag_684\n      jumpi\n        /* \"#utility.yul\":19935:20014   */\n      tag_685\n      tag_389\n      jump\t// in\n    tag_685:\n        /* \"#utility.yul\":19897:20016   */\n    tag_684:\n        /* \"#utility.yul\":20055:20056   */\n      0x00\n        /* \"#utility.yul\":20080:20133   */\n      tag_686\n        /* \"#utility.yul\":20125:20132   */\n      dup6\n        /* \"#utility.yul\":20116:20122   */\n      dup3\n        /* \"#utility.yul\":20105:20114   */\n      dup7\n        /* \"#utility.yul\":20101:20123   */\n      add\n        /* \"#utility.yul\":20080:20133   */\n      tag_427\n      jump\t// in\n    tag_686:\n        /* \"#utility.yul\":20070:20133   */\n      swap3\n      pop\n        /* \"#utility.yul\":20026:20143   */\n      pop\n        /* \"#utility.yul\":20210:20212   */\n      0x20\n        /* \"#utility.yul\":20199:20208   */\n      dup4\n        /* \"#utility.yul\":20195:20213   */\n      add\n        /* \"#utility.yul\":20182:20214   */\n      calldataload\n        /* \"#utility.yul\":20241:20259   */\n      0xffffffffffffffff\n        /* \"#utility.yul\":20233:20239   */\n      dup2\n        /* \"#utility.yul\":20230:20260   */\n      gt\n        /* \"#utility.yul\":20227:20344   */\n      iszero\n      tag_687\n      jumpi\n        /* \"#utility.yul\":20263:20342   */\n      tag_688\n      tag_390\n      jump\t// in\n    tag_688:\n        /* \"#utility.yul\":20227:20344   */\n    tag_687:\n        /* \"#utility.yul\":20368:20431   */\n      tag_689\n        /* \"#utility.yul\":20423:20430   */\n      dup6\n        /* \"#utility.yul\":20414:20420   */\n      dup3\n        /* \"#utility.yul\":20403:20412   */\n      dup7\n        /* \"#utility.yul\":20399:20421   */\n      add\n        /* \"#utility.yul\":20368:20431   */\n      tag_401\n      jump\t// in\n    tag_689:\n        /* \"#utility.yul\":20358:20431   */\n      swap2\n      pop\n        /* \"#utility.yul\":20153:20441   */\n      pop\n        /* \"#utility.yul\":19794:20448   */\n      swap3\n      pop\n      swap3\n      swap1\n      pop\n      jump\t// out\n        /* \"#utility.yul\":20454:20568   */\n    tag_432:\n        /* \"#utility.yul\":20521:20527   */\n      0x00\n        /* \"#utility.yul\":20555:20560   */\n      dup2\n        /* \"#utility.yul\":20549:20561   */\n      mload\n        /* \"#utility.yul\":20539:20561   */\n      swap1\n      pop\n        /* \"#utility.yul\":20454:20568   */\n      swap2\n      swap1\n      pop\n      jump\t// out\n        /* \"#utility.yul\":20574:20758   */\n    tag_433:\n        /* \"#utility.yul\":20673:20684   */\n      0x00\n        /* \"#utility.yul\":20707:20713   */\n      dup3\n        /* \"#utility.yul\":20702:20705   */\n      dup3\n        /* \"#utility.yul\":20695:20714   */\n      mstore\n        /* \"#utility.yul\":20747:20751   */\n      0x20\n        /* \"#utility.yul\":20742:20745   */\n      dup3\n        /* \"#utility.yul\":20738:20752   */\n      add\n        /* \"#utility.yul\":20723:20752   */\n      swap1\n      pop\n        /* \"#utility.yul\":20574:20758   */\n      swap3\n      swap2\n      pop\n      pop\n      jump\t// out\n        /* \"#utility.yul\":20764:20896   */\n    tag_434:\n        /* \"#utility.yul\":20831:20835   */\n      0x00\n        /* \"#utility.yul\":20854:20857   */\n      dup2\n        /* \"#utility.yul\":20846:20857   */\n      swap1\n      pop\n        /* \"#utility.yul\":20884:20888   */\n      0x20\n        /* \"#utility.yul\":20879:20882   */\n      dup3\n        /* \"#utility.yul\":20875:20889   */\n      add\n        /* \"#utility.yul\":20867:20889   */\n      swap1\n      pop\n        /* \"#utility.yul\":20764:20896   */\n      swap2\n      swap1\n      pop\n      jump\t// out\n        /* \"#utility.yul\":20902:21010   */\n    tag_435:\n        /* \"#utility.yul\":20979:21003   */\n      tag_694\n        /* \"#utility.yul\":20997:21002   */\n      dup2\n        /* \"#utility.yul\":20979:21003   */\n      tag_423\n      jump\t// in\n    tag_694:\n        /* \"#utility.yul\":20974:20977   */\n      dup3\n        /* \"#utility.yul\":20967:21004   */\n      mstore\n        /* \"#utility.yul\":20902:21010   */\n      pop\n      pop\n      jump\t// out\n        /* \"#utility.yul\":21016:21195   */\n    tag_436:\n        /* \"#utility.yul\":21085:21095   */\n      0x00\n        /* \"#utility.yul\":21106:21152   */\n      tag_696\n        /* \"#utility.yul\":21148:21151   */\n      dup4\n        /* \"#utility.yul\":21140:21146   */\n      dup4\n        /* \"#utility.yul\":21106:21152   */\n      tag_435\n      jump\t// in\n    tag_696:\n        /* \"#utility.yul\":21184:21188   */\n      0x20\n        /* \"#utility.yul\":21179:21182   */\n      dup4\n        /* \"#utility.yul\":21175:21189   */\n      add\n        /* \"#utility.yul\":21161:21189   */\n      swap1\n      pop\n        /* \"#utility.yul\":21016:21195   */\n      swap3\n      swap2\n      pop\n      pop\n      jump\t// out\n        /* \"#utility.yul\":21201:21314   */\n    tag_437:\n        /* \"#utility.yul\":21271:21275   */\n      0x00\n        /* \"#utility.yul\":21303:21307   */\n      0x20\n        /* \"#utility.yul\":21298:21301   */\n      dup3\n        /* \"#utility.yul\":21294:21308   */\n      add\n        /* \"#utility.yul\":21286:21308   */\n      swap1\n      pop\n        /* \"#utility.yul\":21201:21314   */\n      swap2\n      swap1\n      pop\n      jump\t// out\n        /* \"#utility.yul\":21350:22082   */\n    tag_438:\n        /* \"#utility.yul\":21469:21472   */\n      0x00\n        /* \"#utility.yul\":21498:21552   */\n      tag_699\n        /* \"#utility.yul\":21546:21551   */\n      dup3\n        /* \"#utility.yul\":21498:21552   */\n      tag_432\n      jump\t// in\n    tag_699:\n        /* \"#utility.yul\":21568:21654   */\n      tag_700\n        /* \"#utility.yul\":21647:21653   */\n      dup2\n        /* \"#utility.yul\":21642:21645   */\n      dup6\n        /* \"#utility.yul\":21568:21654   */\n      tag_433\n      jump\t// in\n    tag_700:\n        /* \"#utility.yul\":21561:21654   */\n      swap4\n      pop\n        /* \"#utility.yul\":21678:21734   */\n      tag_701\n        /* \"#utility.yul\":21728:21733   */\n      dup4\n        /* \"#utility.yul\":21678:21734   */\n      tag_434\n      jump\t// in\n    tag_701:\n        /* \"#utility.yul\":21757:21764   */\n      dup1\n        /* \"#utility.yul\":21788:21789   */\n      0x00\n        /* \"#utility.yul\":21773:22057   */\n    tag_702:\n        /* \"#utility.yul\":21798:21804   */\n      dup4\n        /* \"#utility.yul\":21795:21796   */\n      dup2\n        /* \"#utility.yul\":21792:21805   */\n      lt\n        /* \"#utility.yul\":21773:22057   */\n      iszero\n      tag_704\n      jumpi\n        /* \"#utility.yul\":21874:21880   */\n      dup2\n        /* \"#utility.yul\":21868:21881   */\n      mload\n        /* \"#utility.yul\":21901:21964   */\n      tag_705\n        /* \"#utility.yul\":21960:21963   */\n      dup9\n        /* \"#utility.yul\":21945:21958   */\n      dup3\n        /* \"#utility.yul\":21901:21964   */\n      tag_436\n      jump\t// in\n    tag_705:\n        /* \"#utility.yul\":21894:21964   */\n      swap8\n      pop\n        /* \"#utility.yul\":21987:22047   */\n      tag_706\n        /* \"#utility.yul\":22040:22046   */\n      dup4\n        /* \"#utility.yul\":21987:22047   */\n      tag_437\n      jump\t// in\n    tag_706:\n        /* \"#utility.yul\":21977:22047   */\n      swap3\n      pop\n        /* \"#utility.yul\":21833:22057   */\n      pop\n        /* \"#utility.yul\":21820:21821   */\n      0x01\n        /* \"#utility.yul\":21817:21818   */\n      dup2\n        /* \"#utility.yul\":21813:21822   */\n      add\n        /* \"#utility.yul\":21808:21822   */\n      swap1\n      pop\n        /* \"#utility.yul\":21773:22057   */\n      jump(tag_702)\n    tag_704:\n        /* \"#utility.yul\":21777:21791   */\n      pop\n        /* \"#utility.yul\":22073:22076   */\n      dup6\n        /* \"#utility.yul\":22066:22076   */\n      swap4\n      pop\n        /* \"#utility.yul\":21474:22082   */\n      pop\n      pop\n      pop\n        /* \"#utility.yul\":21350:22082   */\n      swap3\n      swap2\n      pop\n      pop\n      jump\t// out\n        /* \"#utility.yul\":22088:23321   */\n    tag_109:\n        /* \"#utility.yul\":22503:22507   */\n      0x00\n        /* \"#utility.yul\":22541:22544   */\n      0x80\n        /* \"#utility.yul\":22530:22539   */\n      dup3\n        /* \"#utility.yul\":22526:22545   */\n      add\n        /* \"#utility.yul\":22518:22545   */\n      swap1\n      pop\n        /* \"#utility.yul\":22591:22600   */\n      dup2\n        /* \"#utility.yul\":22585:22589   */\n      dup2\n        /* \"#utility.yul\":22581:22601   */\n      sub\n        /* \"#utility.yul\":22577:22578   */\n      0x00\n        /* \"#utility.yul\":22566:22575   */\n      dup4\n        /* \"#utility.yul\":22562:22579   */\n      add\n        /* \"#utility.yul\":22555:22602   */\n      mstore\n        /* \"#utility.yul\":22619:22725   */\n      tag_708\n        /* \"#utility.yul\":22720:22724   */\n      dup2\n        /* \"#utility.yul\":22711:22717   */\n      dup8\n        /* \"#utility.yul\":22619:22725   */\n      tag_408\n      jump\t// in\n    tag_708:\n        /* \"#utility.yul\":22611:22725   */\n      swap1\n      pop\n        /* \"#utility.yul\":22772:22781   */\n      dup2\n        /* \"#utility.yul\":22766:22770   */\n      dup2\n        /* \"#utility.yul\":22762:22782   */\n      sub\n        /* \"#utility.yul\":22757:22759   */\n      0x20\n        /* \"#utility.yul\":22746:22755   */\n      dup4\n        /* \"#utility.yul\":22742:22760   */\n      add\n        /* \"#utility.yul\":22735:22783   */\n      mstore\n        /* \"#utility.yul\":22800:22928   */\n      tag_709\n        /* \"#utility.yul\":22923:22927   */\n      dup2\n        /* \"#utility.yul\":22914:22920   */\n      dup7\n        /* \"#utility.yul\":22800:22928   */\n      tag_418\n      jump\t// in\n    tag_709:\n        /* \"#utility.yul\":22792:22928   */\n      swap1\n      pop\n        /* \"#utility.yul\":22975:22984   */\n      dup2\n        /* \"#utility.yul\":22969:22973   */\n      dup2\n        /* \"#utility.yul\":22965:22985   */\n      sub\n        /* \"#utility.yul\":22960:22962   */\n      0x40\n        /* \"#utility.yul\":22949:22958   */\n      dup4\n        /* \"#utility.yul\":22945:22963   */\n      add\n        /* \"#utility.yul\":22938:22986   */\n      mstore\n        /* \"#utility.yul\":23003:23131   */\n      tag_710\n        /* \"#utility.yul\":23126:23130   */\n      dup2\n        /* \"#utility.yul\":23117:23123   */\n      dup6\n        /* \"#utility.yul\":23003:23131   */\n      tag_418\n      jump\t// in\n    tag_710:\n        /* \"#utility.yul\":22995:23131   */\n      swap1\n      pop\n        /* \"#utility.yul\":23178:23187   */\n      dup2\n        /* \"#utility.yul\":23172:23176   */\n      dup2\n        /* \"#utility.yul\":23168:23188   */\n      sub\n        /* \"#utility.yul\":23163:23165   */\n      0x60\n        /* \"#utility.yul\":23152:23161   */\n      dup4\n        /* \"#utility.yul\":23148:23166   */\n      add\n        /* \"#utility.yul\":23141:23189   */\n      mstore\n        /* \"#utility.yul\":23206:23314   */\n      tag_711\n        /* \"#utility.yul\":23309:23313   */\n      dup2\n        /* \"#utility.yul\":23300:23306   */\n      dup5\n        /* \"#utility.yul\":23206:23314   */\n      tag_438\n      jump\t// in\n    tag_711:\n        /* \"#utility.yul\":23198:23314   */\n      swap1\n      pop\n        /* \"#utility.yul\":22088:23321   */\n      swap6\n      swap5\n      pop\n      pop\n      pop\n      pop\n      pop\n      jump\t// out\n        /* \"#utility.yul\":23327:23799   */\n    tag_112:\n        /* \"#utility.yul\":23394:23400   */\n      0x00\n        /* \"#utility.yul\":23402:23408   */\n      dup1\n        /* \"#utility.yul\":23451:23453   */\n      0x40\n        /* \"#utility.yul\":23439:23448   */\n      dup4\n        /* \"#utility.yul\":23430:23437   */\n      dup6\n        /* \"#utility.yul\":23426:23449   */\n      sub\n        /* \"#utility.yul\":23422:23454   */\n      slt\n        /* \"#utility.yul\":23419:23538   */\n      iszero\n      tag_713\n      jumpi\n        /* \"#utility.yul\":23457:23536   */\n      tag_714\n      tag_389\n      jump\t// in\n    tag_714:\n        /* \"#utility.yul\":23419:23538   */\n    tag_713:\n        /* \"#utility.yul\":23577:23578   */\n      0x00\n        /* \"#utility.yul\":23602:23654   */\n      tag_715\n        /* \"#utility.yul\":23646:23653   */\n      dup6\n        /* \"#utility.yul\":23637:23643   */\n      dup3\n        /* \"#utility.yul\":23626:23635   */\n      dup7\n        /* \"#utility.yul\":23622:23644   */\n      add\n        /* \"#utility.yul\":23602:23654   */\n      tag_392\n      jump\t// in\n    tag_715:\n        /* \"#utility.yul\":23592:23654   */\n      swap3\n      pop\n        /* \"#utility.yul\":23548:23664   */\n      pop\n        /* \"#utility.yul\":23703:23705   */\n      0x20\n        /* \"#utility.yul\":23729:23782   */\n      tag_716\n        /* \"#utility.yul\":23774:23781   */\n      dup6\n        /* \"#utility.yul\":23765:23771   */\n      dup3\n        /* \"#utility.yul\":23754:23763   */\n      dup7\n        /* \"#utility.yul\":23750:23772   */\n      add\n        /* \"#utility.yul\":23729:23782   */\n      tag_425\n      jump\t// in\n    tag_716:\n        /* \"#utility.yul\":23719:23782   */\n      swap2\n      pop\n        /* \"#utility.yul\":23674:23792   */\n      pop\n        /* \"#utility.yul\":23327:23799   */\n      swap3\n      pop\n      swap3\n      swap1\n      pop\n      jump\t// out\n        /* \"#utility.yul\":23805:24178   */\n    tag_117:\n        /* \"#utility.yul\":23948:23952   */\n      0x00\n        /* \"#utility.yul\":23986:23988   */\n      0x20\n        /* \"#utility.yul\":23975:23984   */\n      dup3\n        /* \"#utility.yul\":23971:23989   */\n      add\n        /* \"#utility.yul\":23963:23989   */\n      swap1\n      pop\n        /* \"#utility.yul\":24035:24044   */\n      dup2\n        /* \"#utility.yul\":24029:24033   */\n      dup2\n        /* \"#utility.yul\":24025:24045   */\n      sub\n        /* \"#utility.yul\":24021:24022   */\n      0x00\n        /* \"#utility.yul\":24010:24019   */\n      dup4\n        /* \"#utility.yul\":24006:24023   */\n      add\n        /* \"#utility.yul\":23999:24046   */\n      mstore\n        /* \"#utility.yul\":24063:24171   */\n      tag_718\n        /* \"#utility.yul\":24166:24170   */\n      dup2\n        /* \"#utility.yul\":24157:24163   */\n      dup5\n        /* \"#utility.yul\":24063:24171   */\n      tag_438\n      jump\t// in\n    tag_718:\n        /* \"#utility.yul\":24055:24171   */\n      swap1\n      pop\n        /* \"#utility.yul\":23805:24178   */\n      swap3\n      swap2\n      pop\n      pop\n      jump\t// out\n        /* \"#utility.yul\":24184:24366   */\n    tag_439:\n        /* \"#utility.yul\":24324:24358   */\n      0x6f6e6c792074656e616e74732063616e206d616b65206120636f6d706c61696e\n        /* \"#utility.yul\":24320:24321   */\n      0x00\n        /* \"#utility.yul\":24312:24318   */\n      dup3\n        /* \"#utility.yul\":24308:24322   */\n      add\n        /* \"#utility.yul\":24301:24359   */\n      mstore\n        /* \"#utility.yul\":24184:24366   */\n      pop\n      jump\t// out\n        /* \"#utility.yul\":24372:24738   */\n    tag_440:\n        /* \"#utility.yul\":24514:24517   */\n      0x00\n        /* \"#utility.yul\":24535:24602   */\n      tag_721\n        /* \"#utility.yul\":24599:24601   */\n      0x20\n        /* \"#utility.yul\":24594:24597   */\n      dup4\n        /* \"#utility.yul\":24535:24602   */\n      tag_429\n      jump\t// in\n    tag_721:\n        /* \"#utility.yul\":24528:24602   */\n      swap2\n      pop\n        /* \"#utility.yul\":24611:24704   */\n      tag_722\n        /* \"#utility.yul\":24700:24703   */\n      dup3\n        /* \"#utility.yul\":24611:24704   */\n      tag_439\n      jump\t// in\n    tag_722:\n        /* \"#utility.yul\":24729:24731   */\n      0x20\n        /* \"#utility.yul\":24724:24727   */\n      dup3\n        /* \"#utility.yul\":24720:24732   */\n      add\n        /* \"#utility.yul\":24713:24732   */\n      swap1\n      pop\n        /* \"#utility.yul\":24372:24738   */\n      swap2\n      swap1\n      pop\n      jump\t// out\n        /* \"#utility.yul\":24744:25163   */\n    tag_121:\n        /* \"#utility.yul\":24910:24914   */\n      0x00\n        /* \"#utility.yul\":24948:24950   */\n      0x20\n        /* \"#utility.yul\":24937:24946   */\n      dup3\n        /* \"#utility.yul\":24933:24951   */\n      add\n        /* \"#utility.yul\":24925:24951   */\n      swap1\n      pop\n        /* \"#utility.yul\":24997:25006   */\n      dup2\n        /* \"#utility.yul\":24991:24995   */\n      dup2\n        /* \"#utility.yul\":24987:25007   */\n      sub\n        /* \"#utility.yul\":24983:24984   */\n      0x00\n        /* \"#utility.yul\":24972:24981   */\n      dup4\n        /* \"#utility.yul\":24968:24985   */\n      add\n        /* \"#utility.yul\":24961:25008   */\n      mstore\n        /* \"#utility.yul\":25025:25156   */\n      tag_724\n        /* \"#utility.yul\":25151:25155   */\n      dup2\n        /* \"#utility.yul\":25025:25156   */\n      tag_440\n      jump\t// in\n    tag_724:\n        /* \"#utility.yul\":25017:25156   */\n      swap1\n      pop\n        /* \"#utility.yul\":24744:25163   */\n      swap2\n      swap1\n      pop\n      jump\t// out\n        /* \"#utility.yul\":25169:25413   */\n    tag_441:\n        /* \"#utility.yul\":25309:25343   */\n      0x75736572732063616e206f6e6c7920636f6d706c61696e2061626f7574206120\n        /* \"#utility.yul\":25305:25306   */\n      0x00\n        /* \"#utility.yul\":25297:25303   */\n      dup3\n        /* \"#utility.yul\":25293:25307   */\n      add\n        /* \"#utility.yul\":25286:25344   */\n      mstore\n        /* \"#utility.yul\":25378:25405   */\n      0x7468656972206f776e2072656e7465642070726f706572747900000000000000\n        /* \"#utility.yul\":25373:25375   */\n      0x20\n        /* \"#utility.yul\":25365:25371   */\n      dup3\n        /* \"#utility.yul\":25361:25376   */\n      add\n        /* \"#utility.yul\":25354:25406   */\n      mstore\n        /* \"#utility.yul\":25169:25413   */\n      pop\n      jump\t// out\n        /* \"#utility.yul\":25419:25785   */\n    tag_442:\n        /* \"#utility.yul\":25561:25564   */\n      0x00\n        /* \"#utility.yul\":25582:25649   */\n      tag_727\n        /* \"#utility.yul\":25646:25648   */\n      0x39\n        /* \"#utility.yul\":25641:25644   */\n      dup4\n        /* \"#utility.yul\":25582:25649   */\n      tag_429\n      jump\t// in\n    tag_727:\n        /* \"#utility.yul\":25575:25649   */\n      swap2\n      pop\n        /* \"#utility.yul\":25658:25751   */\n      tag_728\n        /* \"#utility.yul\":25747:25750   */\n      dup3\n        /* \"#utility.yul\":25658:25751   */\n      tag_441\n      jump\t// in\n    tag_728:\n        /* \"#utility.yul\":25776:25778   */\n      0x40\n        /* \"#utility.yul\":25771:25774   */\n      dup3\n        /* \"#utility.yul\":25767:25779   */\n      add\n        /* \"#utility.yul\":25760:25779   */\n      swap1\n      pop\n        /* \"#utility.yul\":25419:25785   */\n      swap2\n      swap1\n      pop\n      jump\t// out\n        /* \"#utility.yul\":25791:26210   */\n    tag_124:\n        /* \"#utility.yul\":25957:25961   */\n      0x00\n        /* \"#utility.yul\":25995:25997   */\n      0x20\n        /* \"#utility.yul\":25984:25993   */\n      dup3\n        /* \"#utility.yul\":25980:25998   */\n      add\n        /* \"#utility.yul\":25972:25998   */\n      swap1\n      pop\n        /* \"#utility.yul\":26044:26053   */\n      dup2\n        /* \"#utility.yul\":26038:26042   */\n      dup2\n        /* \"#utility.yul\":26034:26054   */\n      sub\n        /* \"#utility.yul\":26030:26031   */\n      0x00\n        /* \"#utility.yul\":26019:26028   */\n      dup4\n        /* \"#utility.yul\":26015:26032   */\n      add\n        /* \"#utility.yul\":26008:26055   */\n      mstore\n        /* \"#utility.yul\":26072:26203   */\n      tag_730\n        /* \"#utility.yul\":26198:26202   */\n      dup2\n        /* \"#utility.yul\":26072:26203   */\n      tag_442\n      jump\t// in\n    tag_730:\n        /* \"#utility.yul\":26064:26203   */\n      swap1\n      pop\n        /* \"#utility.yul\":25791:26210   */\n      swap2\n      swap1\n      pop\n      jump\t// out\n        /* \"#utility.yul\":26216:26396   */\n    tag_443:\n        /* \"#utility.yul\":26264:26341   */\n      0x4e487b7100000000000000000000000000000000000000000000000000000000\n        /* \"#utility.yul\":26261:26262   */\n      0x00\n        /* \"#utility.yul\":26254:26342   */\n      mstore\n        /* \"#utility.yul\":26361:26365   */\n      0x22\n        /* \"#utility.yul\":26358:26359   */\n      0x04\n        /* \"#utility.yul\":26351:26366   */\n      mstore\n        /* \"#utility.yul\":26385:26389   */\n      0x24\n        /* \"#utility.yul\":26382:26383   */\n      0x00\n        /* \"#utility.yul\":26375:26390   */\n      revert\n        /* \"#utility.yul\":26402:26722   */\n    tag_162:\n        /* \"#utility.yul\":26446:26452   */\n      0x00\n        /* \"#utility.yul\":26483:26484   */\n      0x02\n        /* \"#utility.yul\":26477:26481   */\n      dup3\n        /* \"#utility.yul\":26473:26485   */\n      div\n        /* \"#utility.yul\":26463:26485   */\n      swap1\n      pop\n        /* \"#utility.yul\":26530:26531   */\n      0x01\n        /* \"#utility.yul\":26524:26528   */\n      dup3\n        /* \"#utility.yul\":26520:26532   */\n      and\n        /* \"#utility.yul\":26551:26569   */\n      dup1\n        /* \"#utility.yul\":26541:26622   */\n      tag_733\n      jumpi\n        /* \"#utility.yul\":26607:26611   */\n      0x7f\n        /* \"#utility.yul\":26599:26605   */\n      dup3\n        /* \"#utility.yul\":26595:26612   */\n      and\n        /* \"#utility.yul\":26585:26612   */\n      swap2\n      pop\n        /* \"#utility.yul\":26541:26622   */\n    tag_733:\n        /* \"#utility.yul\":26669:26671   */\n      0x20\n        /* \"#utility.yul\":26661:26667   */\n      dup3\n        /* \"#utility.yul\":26658:26672   */\n      lt\n        /* \"#utility.yul\":26638:26656   */\n      dup2\n        /* \"#utility.yul\":26635:26673   */\n      sub\n        /* \"#utility.yul\":26632:26716   */\n      tag_734\n      jumpi\n        /* \"#utility.yul\":26688:26706   */\n      tag_735\n      tag_443\n      jump\t// in\n    tag_735:\n        /* \"#utility.yul\":26632:26716   */\n    tag_734:\n        /* \"#utility.yul\":26453:26722   */\n      pop\n        /* \"#utility.yul\":26402:26722   */\n      swap2\n      swap1\n      pop\n      jump\t// out\n        /* \"#utility.yul\":26728:26869   */\n    tag_444:\n        /* \"#utility.yul\":26777:26781   */\n      0x00\n        /* \"#utility.yul\":26800:26803   */\n      dup2\n        /* \"#utility.yul\":26792:26803   */\n      swap1\n      pop\n        /* \"#utility.yul\":26823:26826   */\n      dup2\n        /* \"#utility.yul\":26820:26821   */\n      0x00\n        /* \"#utility.yul\":26813:26827   */\n      mstore\n        /* \"#utility.yul\":26857:26861   */\n      0x20\n        /* \"#utility.yul\":26854:26855   */\n      0x00\n        /* \"#utility.yul\":26844:26862   */\n      keccak256\n        /* \"#utility.yul\":26836:26862   */\n      swap1\n      pop\n        /* \"#utility.yul\":26728:26869   */\n      swap2\n      swap1\n      pop\n      jump\t// out\n        /* \"#utility.yul\":26875:26968   */\n    tag_445:\n        /* \"#utility.yul\":26912:26918   */\n      0x00\n        /* \"#utility.yul\":26959:26961   */\n      0x20\n        /* \"#utility.yul\":26954:26956   */\n      0x1f\n        /* \"#utility.yul\":26947:26952   */\n      dup4\n        /* \"#utility.yul\":26943:26957   */\n      add\n        /* \"#utility.yul\":26939:26962   */\n      div\n        /* \"#utility.yul\":26929:26962   */\n      swap1\n      pop\n        /* \"#utility.yul\":26875:26968   */\n      swap2\n      swap1\n      pop\n      jump\t// out\n        /* \"#utility.yul\":26974:27081   */\n    tag_446:\n        /* \"#utility.yul\":27018:27026   */\n      0x00\n        /* \"#utility.yul\":27068:27073   */\n      dup3\n        /* \"#utility.yul\":27062:27066   */\n      dup3\n        /* \"#utility.yul\":27058:27074   */\n      shl\n        /* \"#utility.yul\":27037:27074   */\n      swap1\n      pop\n        /* \"#utility.yul\":26974:27081   */\n      swap3\n      swap2\n      pop\n      pop\n      jump\t// out\n        /* \"#utility.yul\":27087:27480   */\n    tag_447:\n        /* \"#utility.yul\":27156:27162   */\n      0x00\n        /* \"#utility.yul\":27206:27207   */\n      0x08\n        /* \"#utility.yul\":27194:27204   */\n      dup4\n        /* \"#utility.yul\":27190:27208   */\n      mul\n        /* \"#utility.yul\":27229:27326   */\n      tag_740\n        /* \"#utility.yul\":27259:27325   */\n      0xffffffffffffffffffffffffffffffffffffffffffffffffffffffffffffffff\n        /* \"#utility.yul\":27248:27257   */\n      dup3\n        /* \"#utility.yul\":27229:27326   */\n      tag_446\n      jump\t// in\n    tag_740:\n        /* \"#utility.yul\":27347:27386   */\n      tag_741\n        /* \"#utility.yul\":27377:27385   */\n      dup7\n        /* \"#utility.yul\":27366:27375   */\n      dup4\n        /* \"#utility.yul\":27347:27386   */\n      tag_446\n      jump\t// in\n    tag_741:\n        /* \"#utility.yul\":27335:27386   */\n      swap6\n      pop\n        /* \"#utility.yul\":27419:27423   */\n      dup1\n        /* \"#utility.yul\":27415:27424   */\n      not\n        /* \"#utility.yul\":27408:27413   */\n      dup5\n        /* \"#utility.yul\":27404:27425   */\n      and\n        /* \"#utility.yul\":27395:27425   */\n      swap4\n      pop\n        /* \"#utility.yul\":27468:27472   */\n      dup1\n        /* \"#utility.yul\":27458:27466   */\n      dup7\n        /* \"#utility.yul\":27454:27473   */\n      and\n        /* \"#utility.yul\":27447:27452   */\n      dup5\n        /* \"#utility.yul\":27444:27474   */\n      or\n        /* \"#utility.yul\":27434:27474   */\n      swap3\n      pop\n        /* \"#utility.yul\":27163:27480   */\n      pop\n      pop\n        /* \"#utility.yul\":27087:27480   */\n      swap4\n      swap3\n      pop\n      pop\n      pop\n      jump\t// out\n        /* \"#utility.yul\":27486:27546   */\n    tag_448:\n        /* \"#utility.yul\":27514:27517   */\n      0x00\n        /* \"#utility.yul\":27535:27540   */\n      dup2\n        /* \"#utility.yul\":27528:27540   */\n      swap1\n      pop\n        /* \"#utility.yul\":27486:27546   */\n      swap2\n      swap1\n      pop\n      jump\t// out\n        /* \"#utility.yul\":27552:27694   */\n    tag_449:\n        /* \"#utility.yul\":27602:27611   */\n      0x00\n        /* \"#utility.yul\":27635:27688   */\n      tag_744\n        /* \"#utility.yul\":27653:27687   */\n      tag_745\n        /* \"#utility.yul\":27662:27686   */\n      tag_746\n        /* \"#utility.yul\":27680:27685   */\n      dup5\n        /* \"#utility.yul\":27662:27686   */\n      tag_386\n      jump\t// in\n    tag_746:\n        /* \"#utility.yul\":27653:27687   */\n      tag_448\n      jump\t// in\n    tag_745:\n        /* \"#utility.yul\":27635:27688   */\n      tag_386\n      jump\t// in\n    tag_744:\n        /* \"#utility.yul\":27622:27688   */\n      swap1\n      pop\n        /* \"#utility.yul\":27552:27694   */\n      swap2\n      swap1\n      pop\n      jump\t// out\n        /* \"#utility.yul\":27700:27775   */\n    tag_450:\n        /* \"#utility.yul\":27743:27746   */\n      0x00\n        /* \"#utility.yul\":27764:27769   */\n      dup2\n        /* \"#utility.yul\":27757:27769   */\n      swap1\n      pop\n        /* \"#utility.yul\":27700:27775   */\n      swap2\n      swap1\n      pop\n      jump\t// out\n        /* \"#utility.yul\":27781:28050   */\n    tag_451:\n        /* \"#utility.yul\":27891:27930   */\n      tag_749\n        /* \"#utility.yul\":27922:27929   */\n      dup4\n        /* \"#utility.yul\":27891:27930   */\n      tag_449\n      jump\t// in\n    tag_749:\n        /* \"#utility.yul\":27952:28043   */\n      tag_750\n        /* \"#utility.yul\":28001:28042   */\n      tag_751\n        /* \"#utility.yul\":28025:28041   */\n      dup3\n        /* \"#utility.yul\":28001:28042   */\n      tag_450\n      jump\t// in\n    tag_751:\n        /* \"#utility.yul\":27993:27999   */\n      dup5\n        /* \"#utility.yul\":27986:27990   */\n      dup5\n        /* \"#utility.yul\":27980:27991   */\n      sload\n        /* \"#utility.yul\":27952:28043   */\n      tag_447\n      jump\t// in\n    tag_750:\n        /* \"#utility.yul\":27946:27950   */\n      dup3\n        /* \"#utility.yul\":27939:28044   */\n      sstore\n        /* \"#utility.yul\":27857:28050   */\n      pop\n        /* \"#utility.yul\":27781:28050   */\n      pop\n      pop\n      pop\n      jump\t// out\n        /* \"#utility.yul\":28056:28129   */\n    tag_452:\n        /* \"#utility.yul\":28101:28104   */\n      0x00\n        /* \"#utility.yul\":28056:28129   */\n      swap1\n      jump\t// out\n        /* \"#utility.yul\":28135:28324   */\n    tag_453:\n        /* \"#utility.yul\":28212:28244   */\n      tag_754\n      tag_452\n      jump\t// in\n    tag_754:\n        /* \"#utility.yul\":28253:28318   */\n      tag_755\n        /* \"#utility.yul\":28311:28317   */\n      dup2\n        /* \"#utility.yul\":28303:28309   */\n      dup5\n        /* \"#utility.yul\":28297:28301   */\n      dup5\n        /* \"#utility.yul\":28253:28318   */\n      tag_451\n      jump\t// in\n    tag_755:\n        /* \"#utility.yul\":28188:28324   */\n      pop\n        /* \"#utility.yul\":28135:28324   */\n      pop\n      pop\n      jump\t// out\n        /* \"#utility.yul\":28330:28516   */\n    tag_454:\n        /* \"#utility.yul\":28390:28510   */\n    tag_757:\n        /* \"#utility.yul\":28407:28410   */\n      dup2\n        /* \"#utility.yul\":28400:28405   */\n      dup2\n        /* \"#utility.yul\":28397:28411   */\n      lt\n        /* \"#utility.yul\":28390:28510   */\n      iszero\n      tag_759\n      jumpi\n        /* \"#utility.yul\":28461:28500   */\n      tag_760\n        /* \"#utility.yul\":28498:28499   */\n      0x00\n        /* \"#utility.yul\":28491:28496   */\n      dup3\n        /* \"#utility.yul\":28461:28500   */\n      tag_453\n      jump\t// in\n    tag_760:\n        /* \"#utility.yul\":28434:28435   */\n      0x01\n        /* \"#utility.yul\":28427:28432   */\n      dup2\n        /* \"#utility.yul\":28423:28436   */\n      add\n        /* \"#utility.yul\":28414:28436   */\n      swap1\n      pop\n        /* \"#utility.yul\":28390:28510   */\n      jump(tag_757)\n    tag_759:\n        /* \"#utility.yul\":28330:28516   */\n      pop\n      pop\n      jump\t// out\n        /* \"#utility.yul\":28522:29065   */\n    tag_455:\n        /* \"#utility.yul\":28623:28625   */\n      0x1f\n        /* \"#utility.yul\":28618:28621   */\n      dup3\n        /* \"#utility.yul\":28615:28626   */\n      gt\n        /* \"#utility.yul\":28612:29058   */\n      iszero\n      tag_762\n      jumpi\n        /* \"#utility.yul\":28657:28695   */\n      tag_763\n        /* \"#utility.yul\":28689:28694   */\n      dup2\n        /* \"#utility.yul\":28657:28695   */\n      tag_444\n      jump\t// in\n    tag_763:\n        /* \"#utility.yul\":28741:28770   */\n      tag_764\n        /* \"#utility.yul\":28759:28769   */\n      dup5\n        /* \"#utility.yul\":28741:28770   */\n      tag_445\n      jump\t// in\n    tag_764:\n        /* \"#utility.yul\":28731:28739   */\n      dup2\n        /* \"#utility.yul\":28727:28771   */\n      add\n        /* \"#utility.yul\":28924:28926   */\n      0x20\n        /* \"#utility.yul\":28912:28922   */\n      dup6\n        /* \"#utility.yul\":28909:28927   */\n      lt\n        /* \"#utility.yul\":28906:28955   */\n      iszero\n      tag_765\n      jumpi\n        /* \"#utility.yul\":28945:28953   */\n      dup2\n        /* \"#utility.yul\":28930:28953   */\n      swap1\n      pop\n        /* \"#utility.yul\":28906:28955   */\n    tag_765:\n        /* \"#utility.yul\":28968:29048   */\n      tag_766\n        /* \"#utility.yul\":29024:29046   */\n      tag_767\n        /* \"#utility.yul\":29042:29045   */\n      dup6\n        /* \"#utility.yul\":29024:29046   */\n      tag_445\n      jump\t// in\n    tag_767:\n        /* \"#utility.yul\":29014:29022   */\n      dup4\n        /* \"#utility.yul\":29010:29047   */\n      add\n        /* \"#utility.yul\":28997:29008   */\n      dup3\n        /* \"#utility.yul\":28968:29048   */\n      tag_454\n      jump\t// in\n    tag_766:\n        /* \"#utility.yul\":28627:29058   */\n      pop\n      pop\n        /* \"#utility.yul\":28612:29058   */\n    tag_762:\n        /* \"#utility.yul\":28522:29065   */\n      pop\n      pop\n      pop\n      jump\t// out\n        /* \"#utility.yul\":29071:29188   */\n    tag_456:\n        /* \"#utility.yul\":29125:29133   */\n      0x00\n        /* \"#utility.yul\":29175:29180   */\n      dup3\n        /* \"#utility.yul\":29169:29173   */\n      dup3\n        /* \"#utility.yul\":29165:29181   */\n      shr\n        /* \"#utility.yul\":29144:29181   */\n      swap1\n      pop\n        /* \"#utility.yul\":29071:29188   */\n      swap3\n      swap2\n      pop\n      pop\n      jump\t// out\n        /* \"#utility.yul\":29194:29363   */\n    tag_457:\n        /* \"#utility.yul\":29238:29244   */\n      0x00\n        /* \"#utility.yul\":29271:29322   */\n      tag_770\n        /* \"#utility.yul\":29319:29320   */\n      0x00\n        /* \"#utility.yul\":29315:29321   */\n      not\n        /* \"#utility.yul\":29307:29312   */\n      dup5\n        /* \"#utility.yul\":29304:29305   */\n      0x08\n        /* \"#utility.yul\":29300:29313   */\n      mul\n        /* \"#utility.yul\":29271:29322   */\n      tag_456\n      jump\t// in\n    tag_770:\n        /* \"#utility.yul\":29267:29323   */\n      not\n        /* \"#utility.yul\":29352:29356   */\n      dup1\n        /* \"#utility.yul\":29346:29350   */\n      dup4\n        /* \"#utility.yul\":29342:29357   */\n      and\n        /* \"#utility.yul\":29332:29357   */\n      swap2\n      pop\n        /* \"#utility.yul\":29245:29363   */\n      pop\n        /* \"#utility.yul\":29194:29363   */\n      swap3\n      swap2\n      pop\n      pop\n      jump\t// out\n        /* \"#utility.yul\":29368:29663   */\n    tag_458:\n        /* \"#utility.yul\":29444:29448   */\n      0x00\n        /* \"#utility.yul\":29590:29619   */\n      tag_772\n        /* \"#utility.yul\":29615:29618   */\n      dup4\n        /* \"#utility.yul\":29609:29613   */\n      dup4\n        /* \"#utility.yul\":29590:29619   */\n      tag_457\n      jump\t// in\n    tag_772:\n        /* \"#utility.yul\":29582:29619   */\n      swap2\n      pop\n        /* \"#utility.yul\":29652:29655   */\n      dup3\n        /* \"#utility.yul\":29649:29650   */\n      0x02\n        /* \"#utility.yul\":29645:29656   */\n      mul\n        /* \"#utility.yul\":29639:29643   */\n      dup3\n        /* \"#utility.yul\":29636:29657   */\n      or\n        /* \"#utility.yul\":29628:29657   */\n      swap1\n      pop\n        /* \"#utility.yul\":29368:29663   */\n      swap3\n      swap2\n      pop\n      pop\n      jump\t// out\n        /* \"#utility.yul\":29668:31063   */\n    tag_127:\n        /* \"#utility.yul\":29785:29822   */\n      tag_774\n        /* \"#utility.yul\":29818:29821   */\n      dup3\n        /* \"#utility.yul\":29785:29822   */\n      tag_412\n      jump\t// in\n    tag_774:\n        /* \"#utility.yul\":29887:29905   */\n      0xffffffffffffffff\n        /* \"#utility.yul\":29879:29885   */\n      dup2\n        /* \"#utility.yul\":29876:29906   */\n      gt\n        /* \"#utility.yul\":29873:29929   */\n      iszero\n      tag_775\n      jumpi\n        /* \"#utility.yul\":29909:29927   */\n      tag_776\n      tag_140\n      jump\t// in\n    tag_776:\n        /* \"#utility.yul\":29873:29929   */\n    tag_775:\n        /* \"#utility.yul\":29953:29991   */\n      tag_777\n        /* \"#utility.yul\":29985:29989   */\n      dup3\n        /* \"#utility.yul\":29979:29990   */\n      sload\n        /* \"#utility.yul\":29953:29991   */\n      tag_162\n      jump\t// in\n    tag_777:\n        /* \"#utility.yul\":30038:30105   */\n      tag_778\n        /* \"#utility.yul\":30098:30104   */\n      dup3\n        /* \"#utility.yul\":30090:30096   */\n      dup3\n        /* \"#utility.yul\":30084:30088   */\n      dup6\n        /* \"#utility.yul\":30038:30105   */\n      tag_455\n      jump\t// in\n    tag_778:\n        /* \"#utility.yul\":30132:30133   */\n      0x00\n        /* \"#utility.yul\":30156:30160   */\n      0x20\n        /* \"#utility.yul\":30143:30160   */\n      swap1\n      pop\n        /* \"#utility.yul\":30188:30190   */\n      0x1f\n        /* \"#utility.yul\":30180:30186   */\n      dup4\n        /* \"#utility.yul\":30177:30191   */\n      gt\n        /* \"#utility.yul\":30205:30206   */\n      0x01\n        /* \"#utility.yul\":30200:30818   */\n      dup2\n      eq\n      tag_780\n      jumpi\n        /* \"#utility.yul\":30862:30863   */\n      0x00\n        /* \"#utility.yul\":30879:30885   */\n      dup5\n        /* \"#utility.yul\":30876:30953   */\n      iszero\n      tag_781\n      jumpi\n        /* \"#utility.yul\":30928:30937   */\n      dup3\n        /* \"#utility.yul\":30923:30926   */\n      dup8\n        /* \"#utility.yul\":30919:30938   */\n      add\n        /* \"#utility.yul\":30913:30939   */\n      mload\n        /* \"#utility.yul\":30904:30939   */\n      swap1\n      pop\n        /* \"#utility.yul\":30876:30953   */\n    tag_781:\n        /* \"#utility.yul\":30979:31046   */\n      tag_782\n        /* \"#utility.yul\":31039:31045   */\n      dup6\n        /* \"#utility.yul\":31032:31037   */\n      dup3\n        /* \"#utility.yul\":30979:31046   */\n      tag_458\n      jump\t// in\n    tag_782:\n        /* \"#utility.yul\":30973:30977   */\n      dup7\n        /* \"#utility.yul\":30966:31047   */\n      sstore\n        /* \"#utility.yul\":30835:31057   */\n      pop\n        /* \"#utility.yul\":30170:31057   */\n      jump(tag_779)\n        /* \"#utility.yul\":30200:30818   */\n    tag_780:\n        /* \"#utility.yul\":30252:30256   */\n      0x1f\n        /* \"#utility.yul\":30248:30257   */\n      not\n        /* \"#utility.yul\":30240:30246   */\n      dup5\n        /* \"#utility.yul\":30236:30258   */\n      and\n        /* \"#utility.yul\":30286:30323   */\n      tag_783\n        /* \"#utility.yul\":30318:30322   */\n      dup7\n        /* \"#utility.yul\":30286:30323   */\n      tag_444\n      jump\t// in\n    tag_783:\n        /* \"#utility.yul\":30345:30346   */\n      0x00\n        /* \"#utility.yul\":30359:30567   */\n    tag_784:\n        /* \"#utility.yul\":30373:30380   */\n      dup3\n        /* \"#utility.yul\":30370:30371   */\n      dup2\n        /* \"#utility.yul\":30367:30381   */\n      lt\n        /* \"#utility.yul\":30359:30567   */\n      iszero\n      tag_786\n      jumpi\n        /* \"#utility.yul\":30452:30461   */\n      dup5\n        /* \"#utility.yul\":30447:30450   */\n      dup10\n        /* \"#utility.yul\":30443:30462   */\n      add\n        /* \"#utility.yul\":30437:30463   */\n      mload\n        /* \"#utility.yul\":30429:30435   */\n      dup3\n        /* \"#utility.yul\":30422:30464   */\n      sstore\n        /* \"#utility.yul\":30503:30504   */\n      0x01\n        /* \"#utility.yul\":30495:30501   */\n      dup3\n        /* \"#utility.yul\":30491:30505   */\n      add\n        /* \"#utility.yul\":30481:30505   */\n      swap2\n      pop\n        /* \"#utility.yul\":30550:30552   */\n      0x20\n        /* \"#utility.yul\":30539:30548   */\n      dup6\n        /* \"#utility.yul\":30535:30553   */\n      add\n        /* \"#utility.yul\":30522:30553   */\n      swap5\n      pop\n        /* \"#utility.yul\":30396:30400   */\n      0x20\n        /* \"#utility.yul\":30393:30394   */\n      dup2\n        /* \"#utility.yul\":30389:30401   */\n      add\n        /* \"#utility.yul\":30384:30401   */\n      swap1\n      pop\n        /* \"#utility.yul\":30359:30567   */\n      jump(tag_784)\n    tag_786:\n        /* \"#utility.yul\":30595:30601   */\n      dup7\n        /* \"#utility.yul\":30586:30593   */\n      dup4\n        /* \"#utility.yul\":30583:30602   */\n      lt\n        /* \"#utility.yul\":30580:30759   */\n      iszero\n      tag_787\n      jumpi\n        /* \"#utility.yul\":30653:30662   */\n      dup5\n        /* \"#utility.yul\":30648:30651   */\n      dup10\n        /* \"#utility.yul\":30644:30663   */\n      add\n        /* \"#utility.yul\":30638:30664   */\n      mload\n        /* \"#utility.yul\":30696:30744   */\n      tag_788\n        /* \"#utility.yul\":30738:30742   */\n      0x1f\n        /* \"#utility.yul\":30730:30736   */\n      dup10\n        /* \"#utility.yul\":30726:30743   */\n      and\n        /* \"#utility.yul\":30715:30724   */\n      dup3\n        /* \"#utility.yul\":30696:30744   */\n      tag_457\n      jump\t// in\n    tag_788:\n        /* \"#utility.yul\":30688:30694   */\n      dup4\n        /* \"#utility.yul\":30681:30745   */\n      sstore\n        /* \"#utility.yul\":30603:30759   */\n      pop\n        /* \"#utility.yul\":30580:30759   */\n    tag_787:\n        /* \"#utility.yul\":30805:30806   */\n      0x01\n        /* \"#utility.yul\":30801:30802   */\n      0x02\n        /* \"#utility.yul\":30793:30799   */\n      dup9\n        /* \"#utility.yul\":30789:30803   */\n      mul\n        /* \"#utility.yul\":30785:30807   */\n      add\n        /* \"#utility.yul\":30779:30783   */\n      dup9\n        /* \"#utility.yul\":30772:30808   */\n      sstore\n        /* \"#utility.yul\":30207:30818   */\n      pop\n      pop\n      pop\n        /* \"#utility.yul\":30170:31057   */\n    tag_779:\n      pop\n        /* \"#utility.yul\":29760:31063   */\n      pop\n      pop\n      pop\n        /* \"#utility.yul\":29668:31063   */\n      pop\n      pop\n      jump\t// out\n        /* \"#utility.yul\":31069:31290   */\n    tag_459:\n        /* \"#utility.yul\":31209:31243   */\n      0x6f6e6c79204c616e646c6f7264732063616e206372656174652070726f706572\n        /* \"#utility.yul\":31205:31206   */\n      0x00\n        /* \"#utility.yul\":31197:31203   */\n      dup3\n        /* \"#utility.yul\":31193:31207   */\n      add\n        /* \"#utility.yul\":31186:31244   */\n      mstore\n        /* \"#utility.yul\":31278:31282   */\n      0x7479000000000000000000000000000000000000000000000000000000000000\n        /* \"#utility.yul\":31273:31275   */\n      0x20\n        /* \"#utility.yul\":31265:31271   */\n      dup3\n        /* \"#utility.yul\":31261:31276   */\n      add\n        /* \"#utility.yul\":31254:31283   */\n      mstore\n        /* \"#utility.yul\":31069:31290   */\n      pop\n      jump\t// out\n        /* \"#utility.yul\":31296:31662   */\n    tag_460:\n        /* \"#utility.yul\":31438:31441   */\n      0x00\n        /* \"#utility.yul\":31459:31526   */\n      tag_791\n        /* \"#utility.yul\":31523:31525   */\n      0x22\n        /* \"#utility.yul\":31518:31521   */\n      dup4\n        /* \"#utility.yul\":31459:31526   */\n      tag_429\n      jump\t// in\n    tag_791:\n        /* \"#utility.yul\":31452:31526   */\n      swap2\n      pop\n        /* \"#utility.yul\":31535:31628   */\n      tag_792\n        /* \"#utility.yul\":31624:31627   */\n      dup3\n        /* \"#utility.yul\":31535:31628   */\n      tag_459\n      jump\t// in\n    tag_792:\n        /* \"#utility.yul\":31653:31655   */\n      0x40\n        /* \"#utility.yul\":31648:31651   */\n      dup3\n        /* \"#utility.yul\":31644:31656   */\n      add\n        /* \"#utility.yul\":31637:31656   */\n      swap1\n      pop\n        /* \"#utility.yul\":31296:31662   */\n      swap2\n      swap1\n      pop\n      jump\t// out\n        /* \"#utility.yul\":31668:32087   */\n    tag_132:\n        /* \"#utility.yul\":31834:31838   */\n      0x00\n        /* \"#utility.yul\":31872:31874   */\n      0x20\n        /* \"#utility.yul\":31861:31870   */\n      dup3\n        /* \"#utility.yul\":31857:31875   */\n      add\n        /* \"#utility.yul\":31849:31875   */\n      swap1\n      pop\n        /* \"#utility.yul\":31921:31930   */\n      dup2\n        /* \"#utility.yul\":31915:31919   */\n      dup2\n        /* \"#utility.yul\":31911:31931   */\n      sub\n        /* \"#utility.yul\":31907:31908   */\n      0x00\n        /* \"#utility.yul\":31896:31905   */\n      dup4\n        /* \"#utility.yul\":31892:31909   */\n      add\n        /* \"#utility.yul\":31885:31932   */\n      mstore\n        /* \"#utility.yul\":31949:32080   */\n      tag_794\n        /* \"#utility.yul\":32075:32079   */\n      dup2\n        /* \"#utility.yul\":31949:32080   */\n      tag_460\n      jump\t// in\n    tag_794:\n        /* \"#utility.yul\":31941:32080   */\n      swap1\n      pop\n        /* \"#utility.yul\":31668:32087   */\n      swap2\n      swap1\n      pop\n      jump\t// out\n        /* \"#utility.yul\":32093:32273   */\n    tag_461:\n        /* \"#utility.yul\":32141:32218   */\n      0x4e487b7100000000000000000000000000000000000000000000000000000000\n        /* \"#utility.yul\":32138:32139   */\n      0x00\n        /* \"#utility.yul\":32131:32219   */\n      mstore\n        /* \"#utility.yul\":32238:32242   */\n      0x11\n        /* \"#utility.yul\":32235:32236   */\n      0x04\n        /* \"#utility.yul\":32228:32243   */\n      mstore\n        /* \"#utility.yul\":32262:32266   */\n      0x24\n        /* \"#utility.yul\":32259:32260   */\n      0x00\n        /* \"#utility.yul\":32252:32267   */\n      revert\n        /* \"#utility.yul\":32279:32510   */\n    tag_136:\n        /* \"#utility.yul\":32317:32320   */\n      0x00\n        /* \"#utility.yul\":32340:32363   */\n      tag_797\n        /* \"#utility.yul\":32357:32362   */\n      dup3\n        /* \"#utility.yul\":32340:32363   */\n      tag_384\n      jump\t// in\n    tag_797:\n        /* \"#utility.yul\":32331:32363   */\n      swap2\n      pop\n        /* \"#utility.yul\":32385:32451   */\n      0x7fffffffffffffffffffffffffffffffffffffffffffffffffffffffffffffff\n        /* \"#utility.yul\":32378:32383   */\n      dup3\n        /* \"#utility.yul\":32375:32452   */\n      sub\n        /* \"#utility.yul\":32372:32475   */\n      tag_798\n      jumpi\n        /* \"#utility.yul\":32455:32473   */\n      tag_799\n      tag_461\n      jump\t// in\n    tag_799:\n        /* \"#utility.yul\":32372:32475   */\n    tag_798:\n        /* \"#utility.yul\":32502:32503   */\n      0x01\n        /* \"#utility.yul\":32495:32500   */\n      dup3\n        /* \"#utility.yul\":32491:32504   */\n      add\n        /* \"#utility.yul\":32484:32504   */\n      swap1\n      pop\n        /* \"#utility.yul\":32279:32510   */\n      swap2\n      swap1\n      pop\n      jump\t// out\n        /* \"#utility.yul\":32516:32696   */\n    tag_159:\n        /* \"#utility.yul\":32564:32641   */\n      0x4e487b7100000000000000000000000000000000000000000000000000000000\n        /* \"#utility.yul\":32561:32562   */\n      0x00\n        /* \"#utility.yul\":32554:32642   */\n      mstore\n        /* \"#utility.yul\":32661:32665   */\n      0x32\n        /* \"#utility.yul\":32658:32659   */\n      0x04\n        /* \"#utility.yul\":32651:32666   */\n      mstore\n        /* \"#utility.yul\":32685:32689   */\n      0x24\n        /* \"#utility.yul\":32682:32683   */\n      0x00\n        /* \"#utility.yul\":32675:32690   */\n      revert\n        /* \"#utility.yul\":32702:32871   */\n    tag_462:\n        /* \"#utility.yul\":32842:32863   */\n      0x5573657220616c72656164792065786973747300000000000000000000000000\n        /* \"#utility.yul\":32838:32839   */\n      0x00\n        /* \"#utility.yul\":32830:32836   */\n      dup3\n        /* \"#utility.yul\":32826:32840   */\n      add\n        /* \"#utility.yul\":32819:32864   */\n      mstore\n        /* \"#utility.yul\":32702:32871   */\n      pop\n      jump\t// out\n        /* \"#utility.yul\":32877:33243   */\n    tag_463:\n        /* \"#utility.yul\":33019:33022   */\n      0x00\n        /* \"#utility.yul\":33040:33107   */\n      tag_803\n        /* \"#utility.yul\":33104:33106   */\n      0x13\n        /* \"#utility.yul\":33099:33102   */\n      dup4\n        /* \"#utility.yul\":33040:33107   */\n      tag_429\n      jump\t// in\n    tag_803:\n        /* \"#utility.yul\":33033:33107   */\n      swap2\n      pop\n        /* \"#utility.yul\":33116:33209   */\n      tag_804\n        /* \"#utility.yul\":33205:33208   */\n      dup3\n        /* \"#utility.yul\":33116:33209   */\n      tag_462\n      jump\t// in\n    tag_804:\n        /* \"#utility.yul\":33234:33236   */\n      0x20\n        /* \"#utility.yul\":33229:33232   */\n      dup3\n        /* \"#utility.yul\":33225:33237   */\n      add\n        /* \"#utility.yul\":33218:33237   */\n      swap1\n      pop\n        /* \"#utility.yul\":32877:33243   */\n      swap2\n      swap1\n      pop\n      jump\t// out\n        /* \"#utility.yul\":33249:33668   */\n    tag_192:\n        /* \"#utility.yul\":33415:33419   */\n      0x00\n        /* \"#utility.yul\":33453:33455   */\n      0x20\n        /* \"#utility.yul\":33442:33451   */\n      dup3\n        /* \"#utility.yul\":33438:33456   */\n      add\n        /* \"#utility.yul\":33430:33456   */\n      swap1\n      pop\n        /* \"#utility.yul\":33502:33511   */\n      dup2\n        /* \"#utility.yul\":33496:33500   */\n      dup2\n        /* \"#utility.yul\":33492:33512   */\n      sub\n        /* \"#utility.yul\":33488:33489   */\n      0x00\n        /* \"#utility.yul\":33477:33486   */\n      dup4\n        /* \"#utility.yul\":33473:33490   */\n      add\n        /* \"#utility.yul\":33466:33513   */\n      mstore\n        /* \"#utility.yul\":33530:33661   */\n      tag_806\n        /* \"#utility.yul\":33656:33660   */\n      dup2\n        /* \"#utility.yul\":33530:33661   */\n      tag_463\n      jump\t// in\n    tag_806:\n        /* \"#utility.yul\":33522:33661   */\n      swap1\n      pop\n        /* \"#utility.yul\":33249:33668   */\n      swap2\n      swap1\n      pop\n      jump\t// out\n        /* \"#utility.yul\":33674:33903   */\n    tag_464:\n        /* \"#utility.yul\":33814:33848   */\n      0x4f6e6c792074656e616e74732063616e2072657175657374206561726c792074\n        /* \"#utility.yul\":33810:33811   */\n      0x00\n        /* \"#utility.yul\":33802:33808   */\n      dup3\n        /* \"#utility.yul\":33798:33812   */\n      add\n        /* \"#utility.yul\":33791:33849   */\n      mstore\n        /* \"#utility.yul\":33883:33895   */\n      0x65726d696e6174696f6e00000000000000000000000000000000000000000000\n        /* \"#utility.yul\":33878:33880   */\n      0x20\n        /* \"#utility.yul\":33870:33876   */\n      dup3\n        /* \"#utility.yul\":33866:33881   */\n      add\n        /* \"#utility.yul\":33859:33896   */\n      mstore\n        /* \"#utility.yul\":33674:33903   */\n      pop\n      jump\t// out\n        /* \"#utility.yul\":33909:34275   */\n    tag_465:\n        /* \"#utility.yul\":34051:34054   */\n      0x00\n        /* \"#utility.yul\":34072:34139   */\n      tag_809\n        /* \"#utility.yul\":34136:34138   */\n      0x2a\n        /* \"#utility.yul\":34131:34134   */\n      dup4\n        /* \"#utility.yul\":34072:34139   */\n      tag_429\n      jump\t// in\n    tag_809:\n        /* \"#utility.yul\":34065:34139   */\n      swap2\n      pop\n        /* \"#utility.yul\":34148:34241   */\n      tag_810\n        /* \"#utility.yul\":34237:34240   */\n      dup3\n        /* \"#utility.yul\":34148:34241   */\n      tag_464\n      jump\t// in\n    tag_810:\n        /* \"#utility.yul\":34266:34268   */\n      0x40\n        /* \"#utility.yul\":34261:34264   */\n      dup3\n        /* \"#utility.yul\":34257:34269   */\n      add\n        /* \"#utility.yul\":34250:34269   */\n      swap1\n      pop\n        /* \"#utility.yul\":33909:34275   */\n      swap2\n      swap1\n      pop\n      jump\t// out\n        /* \"#utility.yul\":34281:34700   */\n    tag_198:\n        /* \"#utility.yul\":34447:34451   */\n      0x00\n        /* \"#utility.yul\":34485:34487   */\n      0x20\n        /* \"#utility.yul\":34474:34483   */\n      dup3\n        /* \"#utility.yul\":34470:34488   */\n      add\n        /* \"#utility.yul\":34462:34488   */\n      swap1\n      pop\n        /* \"#utility.yul\":34534:34543   */\n      dup2\n        /* \"#utility.yul\":34528:34532   */\n      dup2\n        /* \"#utility.yul\":34524:34544   */\n      sub\n        /* \"#utility.yul\":34520:34521   */\n      0x00\n        /* \"#utility.yul\":34509:34518   */\n      dup4\n        /* \"#utility.yul\":34505:34522   */\n      add\n        /* \"#utility.yul\":34498:34545   */\n      mstore\n        /* \"#utility.yul\":34562:34693   */\n      tag_812\n        /* \"#utility.yul\":34688:34692   */\n      dup2\n        /* \"#utility.yul\":34562:34693   */\n      tag_465\n      jump\t// in\n    tag_812:\n        /* \"#utility.yul\":34554:34693   */\n      swap1\n      pop\n        /* \"#utility.yul\":34281:34700   */\n      swap2\n      swap1\n      pop\n      jump\t// out\n        /* \"#utility.yul\":34706:34934   */\n    tag_466:\n        /* \"#utility.yul\":34846:34880   */\n      0x596f7520646f206e6f7420686176652061206c6561736520666f722074686973\n        /* \"#utility.yul\":34842:34843   */\n      0x00\n        /* \"#utility.yul\":34834:34840   */\n      dup3\n        /* \"#utility.yul\":34830:34844   */\n      add\n        /* \"#utility.yul\":34823:34881   */\n      mstore\n        /* \"#utility.yul\":34915:34926   */\n      0x2070726f70657274790000000000000000000000000000000000000000000000\n        /* \"#utility.yul\":34910:34912   */\n      0x20\n        /* \"#utility.yul\":34902:34908   */\n      dup3\n        /* \"#utility.yul\":34898:34913   */\n      add\n        /* \"#utility.yul\":34891:34927   */\n      mstore\n        /* \"#utility.yul\":34706:34934   */\n      pop\n      jump\t// out\n        /* \"#utility.yul\":34940:35306   */\n    tag_467:\n        /* \"#utility.yul\":35082:35085   */\n      0x00\n        /* \"#utility.yul\":35103:35170   */\n      tag_815\n        /* \"#utility.yul\":35167:35169   */\n      0x29\n        /* \"#utility.yul\":35162:35165   */\n      dup4\n        /* \"#utility.yul\":35103:35170   */\n      tag_429\n      jump\t// in\n    tag_815:\n        /* \"#utility.yul\":35096:35170   */\n      swap2\n      pop\n        /* \"#utility.yul\":35179:35272   */\n      tag_816\n        /* \"#utility.yul\":35268:35271   */\n      dup3\n        /* \"#utility.yul\":35179:35272   */\n      tag_466\n      jump\t// in\n    tag_816:\n        /* \"#utility.yul\":35297:35299   */\n      0x40\n        /* \"#utility.yul\":35292:35295   */\n      dup3\n        /* \"#utility.yul\":35288:35300   */\n      add\n        /* \"#utility.yul\":35281:35300   */\n      swap1\n      pop\n        /* \"#utility.yul\":34940:35306   */\n      swap2\n      swap1\n      pop\n      jump\t// out\n        /* \"#utility.yul\":35312:35731   */\n    tag_212:\n        /* \"#utility.yul\":35478:35482   */\n      0x00\n        /* \"#utility.yul\":35516:35518   */\n      0x20\n        /* \"#utility.yul\":35505:35514   */\n      dup3\n        /* \"#utility.yul\":35501:35519   */\n      add\n        /* \"#utility.yul\":35493:35519   */\n      swap1\n      pop\n        /* \"#utility.yul\":35565:35574   */\n      dup2\n        /* \"#utility.yul\":35559:35563   */\n      dup2\n        /* \"#utility.yul\":35555:35575   */\n      sub\n        /* \"#utility.yul\":35551:35552   */\n      0x00\n        /* \"#utility.yul\":35540:35549   */\n      dup4\n        /* \"#utility.yul\":35536:35553   */\n      add\n        /* \"#utility.yul\":35529:35576   */\n      mstore\n        /* \"#utility.yul\":35593:35724   */\n      tag_818\n        /* \"#utility.yul\":35719:35723   */\n      dup2\n        /* \"#utility.yul\":35593:35724   */\n      tag_467\n      jump\t// in\n    tag_818:\n        /* \"#utility.yul\":35585:35724   */\n      swap1\n      pop\n        /* \"#utility.yul\":35312:35731   */\n      swap2\n      swap1\n      pop\n      jump\t// out\n        /* \"#utility.yul\":35737:35913   */\n    tag_468:\n        /* \"#utility.yul\":35877:35905   */\n      0x496e76616c69642074656e616e74206f722070726f7065727479000000000000\n        /* \"#utility.yul\":35873:35874   */\n      0x00\n        /* \"#utility.yul\":35865:35871   */\n      dup3\n        /* \"#utility.yul\":35861:35875   */\n      add\n        /* \"#utility.yul\":35854:35906   */\n      mstore\n        /* \"#utility.yul\":35737:35913   */\n      pop\n      jump\t// out\n        /* \"#utility.yul\":35919:36285   */\n    tag_469:\n        /* \"#utility.yul\":36061:36064   */\n      0x00\n        /* \"#utility.yul\":36082:36149   */\n      tag_821\n        /* \"#utility.yul\":36146:36148   */\n      0x1a\n        /* \"#utility.yul\":36141:36144   */\n      dup4\n        /* \"#utility.yul\":36082:36149   */\n      tag_429\n      jump\t// in\n    tag_821:\n        /* \"#utility.yul\":36075:36149   */\n      swap2\n      pop\n        /* \"#utility.yul\":36158:36251   */\n      tag_822\n        /* \"#utility.yul\":36247:36250   */\n      dup3\n        /* \"#utility.yul\":36158:36251   */\n      tag_468\n      jump\t// in\n    tag_822:\n        /* \"#utility.yul\":36276:36278   */\n      0x20\n        /* \"#utility.yul\":36271:36274   */\n      dup3\n        /* \"#utility.yul\":36267:36279   */\n      add\n        /* \"#utility.yul\":36260:36279   */\n      swap1\n      pop\n        /* \"#utility.yul\":35919:36285   */\n      swap2\n      swap1\n      pop\n      jump\t// out\n        /* \"#utility.yul\":36291:36710   */\n    tag_253:\n        /* \"#utility.yul\":36457:36461   */\n      0x00\n        /* \"#utility.yul\":36495:36497   */\n      0x20\n        /* \"#utility.yul\":36484:36493   */\n      dup3\n        /* \"#utility.yul\":36480:36498   */\n      add\n        /* \"#utility.yul\":36472:36498   */\n      swap1\n      pop\n        /* \"#utility.yul\":36544:36553   */\n      dup2\n        /* \"#utility.yul\":36538:36542   */\n      dup2\n        /* \"#utility.yul\":36534:36554   */\n      sub\n        /* \"#utility.yul\":36530:36531   */\n      0x00\n        /* \"#utility.yul\":36519:36528   */\n      dup4\n        /* \"#utility.yul\":36515:36532   */\n      add\n        /* \"#utility.yul\":36508:36555   */\n      mstore\n        /* \"#utility.yul\":36572:36703   */\n      tag_824\n        /* \"#utility.yul\":36698:36702   */\n      dup2\n        /* \"#utility.yul\":36572:36703   */\n      tag_469\n      jump\t// in\n    tag_824:\n        /* \"#utility.yul\":36564:36703   */\n      swap1\n      pop\n        /* \"#utility.yul\":36291:36710   */\n      swap2\n      swap1\n      pop\n      jump\t// out\n        /* \"#utility.yul\":36716:36890   */\n    tag_470:\n        /* \"#utility.yul\":36856:36882   */\n      0x50726f7065727479206973206e6f742072656e7461626c650000000000000000\n        /* \"#utility.yul\":36852:36853   */\n      0x00\n        /* \"#utility.yul\":36844:36850   */\n      dup3\n        /* \"#utility.yul\":36840:36854   */\n      add\n        /* \"#utility.yul\":36833:36883   */\n      mstore\n        /* \"#utility.yul\":36716:36890   */\n      pop\n      jump\t// out\n        /* \"#utility.yul\":36896:37262   */\n    tag_471:\n        /* \"#utility.yul\":37038:37041   */\n      0x00\n        /* \"#utility.yul\":37059:37126   */\n      tag_827\n        /* \"#utility.yul\":37123:37125   */\n      0x18\n        /* \"#utility.yul\":37118:37121   */\n      dup4\n        /* \"#utility.yul\":37059:37126   */\n      tag_429\n      jump\t// in\n    tag_827:\n        /* \"#utility.yul\":37052:37126   */\n      swap2\n      pop\n        /* \"#utility.yul\":37135:37228   */\n      tag_828\n        /* \"#utility.yul\":37224:37227   */\n      dup3\n        /* \"#utility.yul\":37135:37228   */\n      tag_470\n      jump\t// in\n    tag_828:\n        /* \"#utility.yul\":37253:37255   */\n      0x20\n        /* \"#utility.yul\":37248:37251   */\n      dup3\n        /* \"#utility.yul\":37244:37256   */\n      add\n        /* \"#utility.yul\":37237:37256   */\n      swap1\n      pop\n        /* \"#utility.yul\":36896:37262   */\n      swap2\n      swap1\n      pop\n      jump\t// out\n        /* \"#utility.yul\":37268:37687   */\n    tag_256:\n        /* \"#utility.yul\":37434:37438   */\n      0x00\n        /* \"#utility.yul\":37472:37474   */\n      0x20\n        /* \"#utility.yul\":37461:37470   */\n      dup3\n        /* \"#utility.yul\":37457:37475   */\n      add\n        /* \"#utility.yul\":37449:37475   */\n      swap1\n      pop\n        /* \"#utility.yul\":37521:37530   */\n      dup2\n        /* \"#utility.yul\":37515:37519   */\n      dup2\n        /* \"#utility.yul\":37511:37531   */\n      sub\n        /* \"#utility.yul\":37507:37508   */\n      0x00\n        /* \"#utility.yul\":37496:37505   */\n      dup4\n        /* \"#utility.yul\":37492:37509   */\n      add\n        /* \"#utility.yul\":37485:37532   */\n      mstore\n        /* \"#utility.yul\":37549:37680   */\n      tag_830\n        /* \"#utility.yul\":37675:37679   */\n      dup2\n        /* \"#utility.yul\":37549:37680   */\n      tag_471\n      jump\t// in\n    tag_830:\n        /* \"#utility.yul\":37541:37680   */\n      swap1\n      pop\n        /* \"#utility.yul\":37268:37687   */\n      swap2\n      swap1\n      pop\n      jump\t// out\n        /* \"#utility.yul\":37693:37917   */\n    tag_472:\n        /* \"#utility.yul\":37833:37867   */\n      0x6f6e6c79206c616e646c6f7264732063616e207265706c7920746f20636f6d70\n        /* \"#utility.yul\":37829:37830   */\n      0x00\n        /* \"#utility.yul\":37821:37827   */\n      dup3\n        /* \"#utility.yul\":37817:37831   */\n      add\n        /* \"#utility.yul\":37810:37868   */\n      mstore\n        /* \"#utility.yul\":37902:37909   */\n      0x6c61696e73000000000000000000000000000000000000000000000000000000\n        /* \"#utility.yul\":37897:37899   */\n      0x20\n        /* \"#utility.yul\":37889:37895   */\n      dup3\n        /* \"#utility.yul\":37885:37900   */\n      add\n        /* \"#utility.yul\":37878:37910   */\n      mstore\n        /* \"#utility.yul\":37693:37917   */\n      pop\n      jump\t// out\n        /* \"#utility.yul\":37923:38289   */\n    tag_473:\n        /* \"#utility.yul\":38065:38068   */\n      0x00\n        /* \"#utility.yul\":38086:38153   */\n      tag_833\n        /* \"#utility.yul\":38150:38152   */\n      0x25\n        /* \"#utility.yul\":38145:38148   */\n      dup4\n        /* \"#utility.yul\":38086:38153   */\n      tag_429\n      jump\t// in\n    tag_833:\n        /* \"#utility.yul\":38079:38153   */\n      swap2\n      pop\n        /* \"#utility.yul\":38162:38255   */\n      tag_834\n        /* \"#utility.yul\":38251:38254   */\n      dup3\n        /* \"#utility.yul\":38162:38255   */\n      tag_472\n      jump\t// in\n    tag_834:\n        /* \"#utility.yul\":38280:38282   */\n      0x40\n        /* \"#utility.yul\":38275:38278   */\n      dup3\n        /* \"#utility.yul\":38271:38283   */\n      add\n        /* \"#utility.yul\":38264:38283   */\n      swap1\n      pop\n        /* \"#utility.yul\":37923:38289   */\n      swap2\n      swap1\n      pop\n      jump\t// out\n        /* \"#utility.yul\":38295:38714   */\n    tag_294:\n        /* \"#utility.yul\":38461:38465   */\n      0x00\n        /* \"#utility.yul\":38499:38501   */\n      0x20\n        /* \"#utility.yul\":38488:38497   */\n      dup3\n        /* \"#utility.yul\":38484:38502   */\n      add\n        /* \"#utility.yul\":38476:38502   */\n      swap1\n      pop\n        /* \"#utility.yul\":38548:38557   */\n      dup2\n        /* \"#utility.yul\":38542:38546   */\n      dup2\n        /* \"#utility.yul\":38538:38558   */\n      sub\n        /* \"#utility.yul\":38534:38535   */\n      0x00\n        /* \"#utility.yul\":38523:38532   */\n      dup4\n        /* \"#utility.yul\":38519:38536   */\n      add\n        /* \"#utility.yul\":38512:38559   */\n      mstore\n        /* \"#utility.yul\":38576:38707   */\n      tag_836\n        /* \"#utility.yul\":38702:38706   */\n      dup2\n        /* \"#utility.yul\":38576:38707   */\n      tag_473\n      jump\t// in\n    tag_836:\n        /* \"#utility.yul\":38568:38707   */\n      swap1\n      pop\n        /* \"#utility.yul\":38295:38714   */\n      swap2\n      swap1\n      pop\n      jump\t// out\n        /* \"#utility.yul\":38720:38893   */\n    tag_474:\n        /* \"#utility.yul\":38860:38885   */\n      0x496e76616c696420636f6d706c61696e7420696e646578000000000000000000\n        /* \"#utility.yul\":38856:38857   */\n      0x00\n        /* \"#utility.yul\":38848:38854   */\n      dup3\n        /* \"#utility.yul\":38844:38858   */\n      add\n        /* \"#utility.yul\":38837:38886   */\n      mstore\n        /* \"#utility.yul\":38720:38893   */\n      pop\n      jump\t// out\n        /* \"#utility.yul\":38899:39265   */\n    tag_475:\n        /* \"#utility.yul\":39041:39044   */\n      0x00\n        /* \"#utility.yul\":39062:39129   */\n      tag_839\n        /* \"#utility.yul\":39126:39128   */\n      0x17\n        /* \"#utility.yul\":39121:39124   */\n      dup4\n        /* \"#utility.yul\":39062:39129   */\n      tag_429\n      jump\t// in\n    tag_839:\n        /* \"#utility.yul\":39055:39129   */\n      swap2\n      pop\n        /* \"#utility.yul\":39138:39231   */\n      tag_840\n        /* \"#utility.yul\":39227:39230   */\n      dup3\n        /* \"#utility.yul\":39138:39231   */\n      tag_474\n      jump\t// in\n    tag_840:\n        /* \"#utility.yul\":39256:39258   */\n      0x20\n        /* \"#utility.yul\":39251:39254   */\n      dup3\n        /* \"#utility.yul\":39247:39259   */\n      add\n        /* \"#utility.yul\":39240:39259   */\n      swap1\n      pop\n        /* \"#utility.yul\":38899:39265   */\n      swap2\n      swap1\n      pop\n      jump\t// out\n        /* \"#utility.yul\":39271:39690   */\n    tag_297:\n        /* \"#utility.yul\":39437:39441   */\n      0x00\n        /* \"#utility.yul\":39475:39477   */\n      0x20\n        /* \"#utility.yul\":39464:39473   */\n      dup3\n        /* \"#utility.yul\":39460:39478   */\n      add\n        /* \"#utility.yul\":39452:39478   */\n      swap1\n      pop\n        /* \"#utility.yul\":39524:39533   */\n      dup2\n        /* \"#utility.yul\":39518:39522   */\n      dup2\n        /* \"#utility.yul\":39514:39534   */\n      sub\n        /* \"#utility.yul\":39510:39511   */\n      0x00\n        /* \"#utility.yul\":39499:39508   */\n      dup4\n        /* \"#utility.yul\":39495:39512   */\n      add\n        /* \"#utility.yul\":39488:39535   */\n      mstore\n        /* \"#utility.yul\":39552:39683   */\n      tag_842\n        /* \"#utility.yul\":39678:39682   */\n      dup2\n        /* \"#utility.yul\":39552:39683   */\n      tag_475\n      jump\t// in\n    tag_842:\n        /* \"#utility.yul\":39544:39683   */\n      swap1\n      pop\n        /* \"#utility.yul\":39271:39690   */\n      swap2\n      swap1\n      pop\n      jump\t// out\n        /* \"#utility.yul\":39696:39946   */\n    tag_476:\n        /* \"#utility.yul\":39836:39870   */\n      0x596f7520617265206e6f7420746865206f776e6572206f66207468652070726f\n        /* \"#utility.yul\":39832:39833   */\n      0x00\n        /* \"#utility.yul\":39824:39830   */\n      dup3\n        /* \"#utility.yul\":39820:39834   */\n      add\n        /* \"#utility.yul\":39813:39871   */\n      mstore\n        /* \"#utility.yul\":39905:39938   */\n      0x70657274792072656c6174656420746f207468697320636f6d706c61696e7400\n        /* \"#utility.yul\":39900:39902   */\n      0x20\n        /* \"#utility.yul\":39892:39898   */\n      dup3\n        /* \"#utility.yul\":39888:39903   */\n      add\n        /* \"#utility.yul\":39881:39939   */\n      mstore\n        /* \"#utility.yul\":39696:39946   */\n      pop\n      jump\t// out\n        /* \"#utility.yul\":39952:40318   */\n    tag_477:\n        /* \"#utility.yul\":40094:40097   */\n      0x00\n        /* \"#utility.yul\":40115:40182   */\n      tag_845\n        /* \"#utility.yul\":40179:40181   */\n      0x3f\n        /* \"#utility.yul\":40174:40177   */\n      dup4\n        /* \"#utility.yul\":40115:40182   */\n      tag_429\n      jump\t// in\n    tag_845:\n        /* \"#utility.yul\":40108:40182   */\n      swap2\n      pop\n        /* \"#utility.yul\":40191:40284   */\n      tag_846\n        /* \"#utility.yul\":40280:40283   */\n      dup3\n        /* \"#utility.yul\":40191:40284   */\n      tag_476\n      jump\t// in\n    tag_846:\n        /* \"#utility.yul\":40309:40311   */\n      0x40\n        /* \"#utility.yul\":40304:40307   */\n      dup3\n        /* \"#utility.yul\":40300:40312   */\n      add\n        /* \"#utility.yul\":40293:40312   */\n      swap1\n      pop\n        /* \"#utility.yul\":39952:40318   */\n      swap2\n      swap1\n      pop\n      jump\t// out\n        /* \"#utility.yul\":40324:40743   */\n    tag_303:\n        /* \"#utility.yul\":40490:40494   */\n      0x00\n        /* \"#utility.yul\":40528:40530   */\n      0x20\n        /* \"#utility.yul\":40517:40526   */\n      dup3\n        /* \"#utility.yul\":40513:40531   */\n      add\n        /* \"#utility.yul\":40505:40531   */\n      swap1\n      pop\n        /* \"#utility.yul\":40577:40586   */\n      dup2\n        /* \"#utility.yul\":40571:40575   */\n      dup2\n        /* \"#utility.yul\":40567:40587   */\n      sub\n        /* \"#utility.yul\":40563:40564   */\n      0x00\n        /* \"#utility.yul\":40552:40561   */\n      dup4\n        /* \"#utility.yul\":40548:40565   */\n      add\n        /* \"#utility.yul\":40541:40588   */\n      mstore\n        /* \"#utility.yul\":40605:40736   */\n      tag_848\n        /* \"#utility.yul\":40731:40735   */\n      dup2\n        /* \"#utility.yul\":40605:40736   */\n      tag_477\n      jump\t// in\n    tag_848:\n        /* \"#utility.yul\":40597:40736   */\n      swap1\n      pop\n        /* \"#utility.yul\":40324:40743   */\n      swap2\n      swap1\n      pop\n      jump\t// out\n        /* \"#utility.yul\":40749:40980   */\n    tag_478:\n        /* \"#utility.yul\":40889:40923   */\n      0x4f6e6c79206c616e646c6f7264732063616e20617070726f7665206561726c79\n        /* \"#utility.yul\":40885:40886   */\n      0x00\n        /* \"#utility.yul\":40877:40883   */\n      dup3\n        /* \"#utility.yul\":40873:40887   */\n      add\n        /* \"#utility.yul\":40866:40924   */\n      mstore\n        /* \"#utility.yul\":40958:40972   */\n      0x207465726d696e6174696f6e0000000000000000000000000000000000000000\n        /* \"#utility.yul\":40953:40955   */\n      0x20\n        /* \"#utility.yul\":40945:40951   */\n      dup3\n        /* \"#utility.yul\":40941:40956   */\n      add\n        /* \"#utility.yul\":40934:40973   */\n      mstore\n        /* \"#utility.yul\":40749:40980   */\n      pop\n      jump\t// out\n        /* \"#utility.yul\":40986:41352   */\n    tag_479:\n        /* \"#utility.yul\":41128:41131   */\n      0x00\n        /* \"#utility.yul\":41149:41216   */\n      tag_851\n        /* \"#utility.yul\":41213:41215   */\n      0x2c\n        /* \"#utility.yul\":41208:41211   */\n      dup4\n        /* \"#utility.yul\":41149:41216   */\n      tag_429\n      jump\t// in\n    tag_851:\n        /* \"#utility.yul\":41142:41216   */\n      swap2\n      pop\n        /* \"#utility.yul\":41225:41318   */\n      tag_852\n        /* \"#utility.yul\":41314:41317   */\n      dup3\n        /* \"#utility.yul\":41225:41318   */\n      tag_478\n      jump\t// in\n    tag_852:\n        /* \"#utility.yul\":41343:41345   */\n      0x40\n        /* \"#utility.yul\":41338:41341   */\n      dup3\n        /* \"#utility.yul\":41334:41346   */\n      add\n        /* \"#utility.yul\":41327:41346   */\n      swap1\n      pop\n        /* \"#utility.yul\":40986:41352   */\n      swap2\n      swap1\n      pop\n      jump\t// out\n        /* \"#utility.yul\":41358:41777   */\n    tag_308:\n        /* \"#utility.yul\":41524:41528   */\n      0x00\n        /* \"#utility.yul\":41562:41564   */\n      0x20\n        /* \"#utility.yul\":41551:41560   */\n      dup3\n        /* \"#utility.yul\":41547:41565   */\n      add\n        /* \"#utility.yul\":41539:41565   */\n      swap1\n      pop\n        /* \"#utility.yul\":41611:41620   */\n      dup2\n        /* \"#utility.yul\":41605:41609   */\n      dup2\n        /* \"#utility.yul\":41601:41621   */\n      sub\n        /* \"#utility.yul\":41597:41598   */\n      0x00\n        /* \"#utility.yul\":41586:41595   */\n      dup4\n        /* \"#utility.yul\":41582:41599   */\n      add\n        /* \"#utility.yul\":41575:41622   */\n      mstore\n        /* \"#utility.yul\":41639:41770   */\n      tag_854\n        /* \"#utility.yul\":41765:41769   */\n      dup2\n        /* \"#utility.yul\":41639:41770   */\n      tag_479\n      jump\t// in\n    tag_854:\n        /* \"#utility.yul\":41631:41770   */\n      swap1\n      pop\n        /* \"#utility.yul\":41358:41777   */\n      swap2\n      swap1\n      pop\n      jump\t// out\n        /* \"#utility.yul\":41783:41954   */\n    tag_480:\n        /* \"#utility.yul\":41923:41946   */\n      0x496e76616c6964207265717565737420696e6465780000000000000000000000\n        /* \"#utility.yul\":41919:41920   */\n      0x00\n        /* \"#utility.yul\":41911:41917   */\n      dup3\n        /* \"#utility.yul\":41907:41921   */\n      add\n        /* \"#utility.yul\":41900:41947   */\n      mstore\n        /* \"#utility.yul\":41783:41954   */\n      pop\n      jump\t// out\n        /* \"#utility.yul\":41960:42326   */\n    tag_481:\n        /* \"#utility.yul\":42102:42105   */\n      0x00\n        /* \"#utility.yul\":42123:42190   */\n      tag_857\n        /* \"#utility.yul\":42187:42189   */\n      0x15\n        /* \"#utility.yul\":42182:42185   */\n      dup4\n        /* \"#utility.yul\":42123:42190   */\n      tag_429\n      jump\t// in\n    tag_857:\n        /* \"#utility.yul\":42116:42190   */\n      swap2\n      pop\n        /* \"#utility.yul\":42199:42292   */\n      tag_858\n        /* \"#utility.yul\":42288:42291   */\n      dup3\n        /* \"#utility.yul\":42199:42292   */\n      tag_480\n      jump\t// in\n    tag_858:\n        /* \"#utility.yul\":42317:42319   */\n      0x20\n        /* \"#utility.yul\":42312:42315   */\n      dup3\n        /* \"#utility.yul\":42308:42320   */\n      add\n        /* \"#utility.yul\":42301:42320   */\n      swap1\n      pop\n        /* \"#utility.yul\":41960:42326   */\n      swap2\n      swap1\n      pop\n      jump\t// out\n        /* \"#utility.yul\":42332:42751   */\n    tag_311:\n        /* \"#utility.yul\":42498:42502   */\n      0x00\n        /* \"#utility.yul\":42536:42538   */\n      0x20\n        /* \"#utility.yul\":42525:42534   */\n      dup3\n        /* \"#utility.yul\":42521:42539   */\n      add\n        /* \"#utility.yul\":42513:42539   */\n      swap1\n      pop\n        /* \"#utility.yul\":42585:42594   */\n      dup2\n        /* \"#utility.yul\":42579:42583   */\n      dup2\n        /* \"#utility.yul\":42575:42595   */\n      sub\n        /* \"#utility.yul\":42571:42572   */\n      0x00\n        /* \"#utility.yul\":42560:42569   */\n      dup4\n        /* \"#utility.yul\":42556:42573   */\n      add\n        /* \"#utility.yul\":42549:42596   */\n      mstore\n        /* \"#utility.yul\":42613:42744   */\n      tag_860\n        /* \"#utility.yul\":42739:42743   */\n      dup2\n        /* \"#utility.yul\":42613:42744   */\n      tag_481\n      jump\t// in\n    tag_860:\n        /* \"#utility.yul\":42605:42744   */\n      swap1\n      pop\n        /* \"#utility.yul\":42332:42751   */\n      swap2\n      swap1\n      pop\n      jump\t// out\n        /* \"#utility.yul\":42757:42981   */\n    tag_482:\n        /* \"#utility.yul\":42897:42931   */\n      0x596f7520617265206e6f7420746865206f776e6572206f66207468652070726f\n        /* \"#utility.yul\":42893:42894   */\n      0x00\n        /* \"#utility.yul\":42885:42891   */\n      dup3\n        /* \"#utility.yul\":42881:42895   */\n      add\n        /* \"#utility.yul\":42874:42932   */\n      mstore\n        /* \"#utility.yul\":42966:42973   */\n      0x7065727479000000000000000000000000000000000000000000000000000000\n        /* \"#utility.yul\":42961:42963   */\n      0x20\n        /* \"#utility.yul\":42953:42959   */\n      dup3\n        /* \"#utility.yul\":42949:42964   */\n      add\n        /* \"#utility.yul\":42942:42974   */\n      mstore\n        /* \"#utility.yul\":42757:42981   */\n      pop\n      jump\t// out\n        /* \"#utility.yul\":42987:43353   */\n    tag_483:\n        /* \"#utility.yul\":43129:43132   */\n      0x00\n        /* \"#utility.yul\":43150:43217   */\n      tag_863\n        /* \"#utility.yul\":43214:43216   */\n      0x25\n        /* \"#utility.yul\":43209:43212   */\n      dup4\n        /* \"#utility.yul\":43150:43217   */\n      tag_429\n      jump\t// in\n    tag_863:\n        /* \"#utility.yul\":43143:43217   */\n      swap2\n      pop\n        /* \"#utility.yul\":43226:43319   */\n      tag_864\n        /* \"#utility.yul\":43315:43318   */\n      dup3\n        /* \"#utility.yul\":43226:43319   */\n      tag_482\n      jump\t// in\n    tag_864:\n        /* \"#utility.yul\":43344:43346   */\n      0x40\n        /* \"#utility.yul\":43339:43342   */\n      dup3\n        /* \"#utility.yul\":43335:43347   */\n      add\n        /* \"#utility.yul\":43328:43347   */\n      swap1\n      pop\n        /* \"#utility.yul\":42987:43353   */\n      swap2\n      swap1\n      pop\n      jump\t// out\n        /* \"#utility.yul\":43359:43778   */\n    tag_317:\n        /* \"#utility.yul\":43525:43529   */\n      0x00\n        /* \"#utility.yul\":43563:43565   */\n      0x20\n        /* \"#utility.yul\":43552:43561   */\n      dup3\n        /* \"#utility.yul\":43548:43566   */\n      add\n        /* \"#utility.yul\":43540:43566   */\n      swap1\n      pop\n        /* \"#utility.yul\":43612:43621   */\n      dup2\n        /* \"#utility.yul\":43606:43610   */\n      dup2\n        /* \"#utility.yul\":43602:43622   */\n      sub\n        /* \"#utility.yul\":43598:43599   */\n      0x00\n        /* \"#utility.yul\":43587:43596   */\n      dup4\n        /* \"#utility.yul\":43583:43600   */\n      add\n        /* \"#utility.yul\":43576:43623   */\n      mstore\n        /* \"#utility.yul\":43640:43771   */\n      tag_866\n        /* \"#utility.yul\":43766:43770   */\n      dup2\n        /* \"#utility.yul\":43640:43771   */\n      tag_483\n      jump\t// in\n    tag_866:\n        /* \"#utility.yul\":43632:43771   */\n      swap1\n      pop\n        /* \"#utility.yul\":43359:43778   */\n      swap2\n      swap1\n      pop\n      jump\t// out\n        /* \"#utility.yul\":43784:44006   */\n    tag_484:\n        /* \"#utility.yul\":43924:43958   */\n      0x4f6e6c79206c616e646c6f7264732063616e207465726d696e617465206c6561\n        /* \"#utility.yul\":43920:43921   */\n      0x00\n        /* \"#utility.yul\":43912:43918   */\n      dup3\n        /* \"#utility.yul\":43908:43922   */\n      add\n        /* \"#utility.yul\":43901:43959   */\n      mstore\n        /* \"#utility.yul\":43993:43998   */\n      0x7365730000000000000000000000000000000000000000000000000000000000\n        /* \"#utility.yul\":43988:43990   */\n      0x20\n        /* \"#utility.yul\":43980:43986   */\n      dup3\n        /* \"#utility.yul\":43976:43991   */\n      add\n        /* \"#utility.yul\":43969:43999   */\n      mstore\n        /* \"#utility.yul\":43784:44006   */\n      pop\n      jump\t// out\n        /* \"#utility.yul\":44012:44378   */\n    tag_485:\n        /* \"#utility.yul\":44154:44157   */\n      0x00\n        /* \"#utility.yul\":44175:44242   */\n      tag_869\n        /* \"#utility.yul\":44239:44241   */\n      0x23\n        /* \"#utility.yul\":44234:44237   */\n      dup4\n        /* \"#utility.yul\":44175:44242   */\n      tag_429\n      jump\t// in\n    tag_869:\n        /* \"#utility.yul\":44168:44242   */\n      swap2\n      pop\n        /* \"#utility.yul\":44251:44344   */\n      tag_870\n        /* \"#utility.yul\":44340:44343   */\n      dup3\n        /* \"#utility.yul\":44251:44344   */\n      tag_484\n      jump\t// in\n    tag_870:\n        /* \"#utility.yul\":44369:44371   */\n      0x40\n        /* \"#utility.yul\":44364:44367   */\n      dup3\n        /* \"#utility.yul\":44360:44372   */\n      add\n        /* \"#utility.yul\":44353:44372   */\n      swap1\n      pop\n        /* \"#utility.yul\":44012:44378   */\n      swap2\n      swap1\n      pop\n      jump\t// out\n        /* \"#utility.yul\":44384:44803   */\n    tag_355:\n        /* \"#utility.yul\":44550:44554   */\n      0x00\n        /* \"#utility.yul\":44588:44590   */\n      0x20\n        /* \"#utility.yul\":44577:44586   */\n      dup3\n        /* \"#utility.yul\":44573:44591   */\n      add\n        /* \"#utility.yul\":44565:44591   */\n      swap1\n      pop\n        /* \"#utility.yul\":44637:44646   */\n      dup2\n        /* \"#utility.yul\":44631:44635   */\n      dup2\n        /* \"#utility.yul\":44627:44647   */\n      sub\n        /* \"#utility.yul\":44623:44624   */\n      0x00\n        /* \"#utility.yul\":44612:44621   */\n      dup4\n        /* \"#utility.yul\":44608:44625   */\n      add\n        /* \"#utility.yul\":44601:44648   */\n      mstore\n        /* \"#utility.yul\":44665:44796   */\n      tag_872\n        /* \"#utility.yul\":44791:44795   */\n      dup2\n        /* \"#utility.yul\":44665:44796   */\n      tag_485\n      jump\t// in\n    tag_872:\n        /* \"#utility.yul\":44657:44796   */\n      swap1\n      pop\n        /* \"#utility.yul\":44384:44803   */\n      swap2\n      swap1\n      pop\n      jump\t// out\n\n    auxdata: 0xa264697066735822122095d652b0e221342ca1a734eb2ed02b3fb90f758c94ca3472aa8b66a36d63991264736f6c63430008160033\n}\n",
				"bytecode": {
					"linkReferences": {},
					"object": "608060405234801561000f575f80fd5b505f600381905550613e2c806100245f395ff3fe608060405234801561000f575f80fd5b5060043610610134575f3560e01c80634ea30b2f116100b6578063a87430ba1161007a578063a87430ba1461035d578063ac00eedc1461038f578063ae23d553146103ab578063cad140cf146103c7578063e4236d13146103fa578063fb1899ab1461041657610134565b80634ea30b2f1461025f578063635758771461029257806370acd52a146102c55780639f4216e8146102fa578063a05d098c1461032a57610134565b806313704eaf116100fd57806313704eaf146101ca57806316ef034c146101eb5780633317e3961461020757806333625e781461022357806335bdd1ee1461024357610134565b8062d8903314610138578063065520911461015657806306e723131461017457806307460b66146101905780631307430a146101ac575b5f80fd5b610140610434565b60405161014d9190612821565b60405180910390f35b61015e61043a565b60405161016b9190612852565b60405180910390f35b61018e600480360381019061018991906129e2565b610440565b005b6101aa60048036038101906101a59190612a3c565b610658565b005b6101b4610852565b6040516101c19190612852565b60405180910390f35b6101d2610858565b6040516101e29493929190612c9e565b60405180910390f35b61020560048036038101906102009190612d32565b610dcc565b005b610221600480360381019061021c9190612d9e565b610fc1565b005b61022b611233565b60405161023a93929190612dc9565b60405180910390f35b61025d60048036038101906102589190612e97565b6115e5565b005b61027960048036038101906102749190612efb565b611830565b6040516102899493929190612f7d565b60405180910390f35b6102ac60048036038101906102a79190612efb565b611996565b6040516102bc9493929190612fdd565b60405180910390f35b6102df60048036038101906102da9190612d9e565b6119fc565b6040516102f196959493929190613020565b60405180910390f35b610314600480360381019061030f9190612efb565b611b8b565b604051610321919061308d565b60405180910390f35b610344600480360381019061033f9190612efb565b611bc6565b60405161035494939291906130a6565b60405180910390f35b610377600480360381019061037291906130e9565b611c20565b60405161038693929190613114565b60405180910390f35b6103a960048036038101906103a49190613150565b611ce3565b005b6103c560048036038101906103c09190612efb565b611e94565b005b6103e160048036038101906103dc9190612d9e565b6120ae565b6040516103f19493929190613261565b60405180910390f35b610414600480360381019061040f91906132c0565b6124d2565b005b61041e6126ef565b60405161042b91906132fe565b60405180910390f35b60035481565b60055481565b5f803373ffffffffffffffffffffffffffffffffffffffff1673ffffffffffffffffffffffffffffffffffffffff1681526020019081526020015f205f015f9054906101000a900460ff166104ca576040517f08c379a00000000000000000000000000000000000000000000000000000000081526004016104c190613368565b60405180910390fd5b3373ffffffffffffffffffffffffffffffffffffffff1660015f8481526020019081526020015f206004015f9054906101000a900473ffffffffffffffffffffffffffffffffffffffff1673ffffffffffffffffffffffffffffffffffffffff161461056b576040517f08c379a0000000000000000000000000000000000000000000000000000000008152600401610562906133f6565b60405180910390fd5b600760405180608001604052803373ffffffffffffffffffffffffffffffffffffffff16815260200184815260200183815260200160405180602001604052805f815250815250908060018154018082558091505060019003905f5260205f2090600402015f909190919091505f820151815f015f6101000a81548173ffffffffffffffffffffffffffffffffffffffff021916908373ffffffffffffffffffffffffffffffffffffffff16021790555060208201518160010155604082015181600201908161063b919061360e565b506060820151816003019081610651919061360e565b5050505050565b5f803373ffffffffffffffffffffffffffffffffffffffff1673ffffffffffffffffffffffffffffffffffffffff1681526020019081526020015f205f0160019054906101000a900460ff166106e3576040517f08c379a00000000000000000000000000000000000000000000000000000000081526004016106da9061374d565b60405180910390fd5b6040518060c0016040528060035481526020018381526020018281526020013373ffffffffffffffffffffffffffffffffffffffff1681526020016001151581526020015f73ffffffffffffffffffffffffffffffffffffffff1681525060015f60035481526020019081526020015f205f820151815f01556020820151816001019081610771919061360e565b506040820151816002019081610787919061360e565b506060820151816003015f6101000a81548173ffffffffffffffffffffffffffffffffffffffff021916908373ffffffffffffffffffffffffffffffffffffffff16021790555060808201518160030160146101000a81548160ff02191690831515021790555060a0820151816004015f6101000a81548173ffffffffffffffffffffffffffffffffffffffff021916908373ffffffffffffffffffffffffffffffffffffffff16021790555090505060035f81548092919061084990613798565b91905055505050565b60045481565b6060806060805f60078054905067ffffffffffffffff81111561087e5761087d6128be565b5b6040519080825280602002602001820160405280156108ac5781602001602082028036833780820191505090505b5090505f60078054905067ffffffffffffffff8111156108cf576108ce6128be565b5b60405190808252806020026020018201604052801561090257816020015b60608152602001906001900390816108ed5790505b5090505f60078054905067ffffffffffffffff811115610925576109246128be565b5b60405190808252806020026020018201604052801561095857816020015b60608152602001906001900390816109435790505b5090505f60078054905067ffffffffffffffff81111561097b5761097a6128be565b5b6040519080825280602002602001820160405280156109ae57816020015b60608152602001906001900390816109995790505b5090505f5b600780549050811015610db5575f600782815481106109d5576109d46137df565b5b905f5260205f2090600402016040518060800160405290815f82015f9054906101000a900473ffffffffffffffffffffffffffffffffffffffff1673ffffffffffffffffffffffffffffffffffffffff1673ffffffffffffffffffffffffffffffffffffffff16815260200160018201548152602001600282018054610a5a90613441565b80601f0160208091040260200160405190810160405280929190818152602001828054610a8690613441565b8015610ad15780601f10610aa857610100808354040283529160200191610ad1565b820191905f5260205f20905b815481529060010190602001808311610ab457829003601f168201915b50505050508152602001600382018054610aea90613441565b80601f0160208091040260200160405190810160405280929190818152602001828054610b1690613441565b8015610b615780601f10610b3857610100808354040283529160200191610b61565b820191905f5260205f20905b815481529060010190602001808311610b4457829003601f168201915b50505050508152505090503373ffffffffffffffffffffffffffffffffffffffff16815f015173ffffffffffffffffffffffffffffffffffffffff1603610da7578060200151868381518110610bba57610bb96137df565b5b6020026020010181815250508060400151858381518110610bde57610bdd6137df565b5b60200260200101819052508060600151848381518110610c0157610c006137df565b5b60200260200101819052505f73ffffffffffffffffffffffffffffffffffffffff1660015f836020015181526020019081526020015f206003015f9054906101000a900473ffffffffffffffffffffffffffffffffffffffff1673ffffffffffffffffffffffffffffffffffffffff1614610d78575f8060015f846020015181526020019081526020015f206003015f9054906101000a900473ffffffffffffffffffffffffffffffffffffffff1673ffffffffffffffffffffffffffffffffffffffff1673ffffffffffffffffffffffffffffffffffffffff1681526020019081526020015f206001018054610cf790613441565b80601f0160208091040260200160405190810160405280929190818152602001828054610d2390613441565b8015610d6e5780601f10610d4557610100808354040283529160200191610d6e565b820191905f5260205f20905b815481529060010190602001808311610d5157829003601f168201915b5050505050610d88565b60405180602001604052805f8152505b838381518110610d9b57610d9a6137df565b5b60200260200101819052505b5080806001019150506109b3565b508383838397509750975097505050505090919293565b5f803373ffffffffffffffffffffffffffffffffffffffff1673ffffffffffffffffffffffffffffffffffffffff1681526020019081526020015f205f015f9054906101000a900460ff16158015610e6d57505f803373ffffffffffffffffffffffffffffffffffffffff1673ffffffffffffffffffffffffffffffffffffffff1681526020019081526020015f205f0160019054906101000a900460ff16155b610eac576040517f08c379a0000000000000000000000000000000000000000000000000000000008152600401610ea390613856565b60405180910390fd5b604051806060016040528083151581526020018215158152602001848152505f803373ffffffffffffffffffffffffffffffffffffffff1673ffffffffffffffffffffffffffffffffffffffff1681526020019081526020015f205f820151815f015f6101000a81548160ff0219169083151502179055506020820151815f0160016101000a81548160ff0219169083151502179055506040820151816001019081610f58919061360e565b50905050600233908060018154018082558091505060019003905f5260205f20015f9091909190916101000a81548173ffffffffffffffffffffffffffffffffffffffff021916908373ffffffffffffffffffffffffffffffffffffffff160217905550505050565b5f803373ffffffffffffffffffffffffffffffffffffffff1673ffffffffffffffffffffffffffffffffffffffff1681526020019081526020015f205f015f9054906101000a900460ff1661104b576040517f08c379a0000000000000000000000000000000000000000000000000000000008152600401611042906138e4565b60405180910390fd5b5f805b6006805490508110156111145782600682815481106110705761106f6137df565b5b905f5260205f2090600402015f01541480156110f957503373ffffffffffffffffffffffffffffffffffffffff16600682815481106110b2576110b16137df565b5b905f5260205f2090600402016001015f9054906101000a900473ffffffffffffffffffffffffffffffffffffffff1673ffffffffffffffffffffffffffffffffffffffff16145b156111075760019150611114565b808060010191505061104e565b5080611155576040517f08c379a000000000000000000000000000000000000000000000000000000000815260040161114c90613972565b60405180910390fd5b600860405180608001604052803373ffffffffffffffffffffffffffffffffffffffff1681526020018481526020014281526020015f1515815250908060018154018082558091505060019003905f5260205f2090600402015f909190919091505f820151815f015f6101000a81548173ffffffffffffffffffffffffffffffffffffffff021916908373ffffffffffffffffffffffffffffffffffffffff16021790555060208201518160010155604082015181600201556060820151816003015f6101000a81548160ff02191690831515021790555050505050565b60608060605f60078054905067ffffffffffffffff811115611258576112576128be565b5b6040519080825280602002602001820160405280156112865781602001602082028036833780820191505090505b5090505f60078054905067ffffffffffffffff8111156112a9576112a86128be565b5b6040519080825280602002602001820160405280156112dc57816020015b60608152602001906001900390816112c75790505b5090505f60078054905067ffffffffffffffff8111156112ff576112fe6128be565b5b60405190808252806020026020018201604052801561133257816020015b606081526020019060019003908161131d5790505b5090505f5b6007805490508110156115d3575f60078281548110611359576113586137df565b5b905f5260205f2090600402016040518060800160405290815f82015f9054906101000a900473ffffffffffffffffffffffffffffffffffffffff1673ffffffffffffffffffffffffffffffffffffffff1673ffffffffffffffffffffffffffffffffffffffff168152602001600182015481526020016002820180546113de90613441565b80601f016020809104026020016040519081016040528092919081815260200182805461140a90613441565b80156114555780601f1061142c57610100808354040283529160200191611455565b820191905f5260205f20905b81548152906001019060200180831161143857829003601f168201915b5050505050815260200160038201805461146e90613441565b80601f016020809104026020016040519081016040528092919081815260200182805461149a90613441565b80156114e55780601f106114bc576101008083540402835291602001916114e5565b820191905f5260205f20905b8154815290600101906020018083116114c857829003601f168201915b50505050508152505090503373ffffffffffffffffffffffffffffffffffffffff1660015f836020015181526020019081526020015f206003015f9054906101000a900473ffffffffffffffffffffffffffffffffffffffff1673ffffffffffffffffffffffffffffffffffffffff16036115c5578060200151858381518110611572576115716137df565b5b6020026020010181815250508060400151848381518110611596576115956137df565b5b602002602001018190525080606001518383815181106115b9576115b86137df565b5b60200260200101819052505b508080600101915050611337565b50828282955095509550505050909192565b5f808473ffffffffffffffffffffffffffffffffffffffff1673ffffffffffffffffffffffffffffffffffffffff1681526020019081526020015f205f015f9054906101000a900460ff16801561169a57503373ffffffffffffffffffffffffffffffffffffffff1660015f8681526020019081526020015f206003015f9054906101000a900473ffffffffffffffffffffffffffffffffffffffff1673ffffffffffffffffffffffffffffffffffffffff16145b6116d9576040517f08c379a00000000000000000000000000000000000000000000000000000000081526004016116d0906139da565b60405180910390fd5b60015f8581526020019081526020015f2060030160149054906101000a900460ff161561173b576040517f08c379a000000000000000000000000000000000000000000000000000000000815260040161173290613a42565b60405180910390fd5b600660405180608001604052808681526020018573ffffffffffffffffffffffffffffffffffffffff16815260200184815260200183815250908060018154018082558091505060019003905f5260205f2090600402015f909190919091505f820151815f01556020820151816001015f6101000a81548173ffffffffffffffffffffffffffffffffffffffff021916908373ffffffffffffffffffffffffffffffffffffffff160217905550604082015181600201556060820151816003015550506001805f8681526020019081526020015f2060030160146101000a81548160ff02191690831515021790555050505050565b6007818154811061183f575f80fd5b905f5260205f2090600402015f91509050805f015f9054906101000a900473ffffffffffffffffffffffffffffffffffffffff169080600101549080600201805461188990613441565b80601f01602080910402602001604051908101604052809291908181526020018280546118b590613441565b80156119005780601f106118d757610100808354040283529160200191611900565b820191905f5260205f20905b8154815290600101906020018083116118e357829003601f168201915b50505050509080600301805461191590613441565b80601f016020809104026020016040519081016040528092919081815260200182805461194190613441565b801561198c5780601f106119635761010080835404028352916020019161198c565b820191905f5260205f20905b81548152906001019060200180831161196f57829003601f168201915b5050505050905084565b600881815481106119a5575f80fd5b905f5260205f2090600402015f91509050805f015f9054906101000a900473ffffffffffffffffffffffffffffffffffffffff1690806001015490806002015490806003015f9054906101000a900460ff16905084565b6001602052805f5260405f205f91509050805f015490806001018054611a2190613441565b80601f0160208091040260200160405190810160405280929190818152602001828054611a4d90613441565b8015611a985780601f10611a6f57610100808354040283529160200191611a98565b820191905f5260205f20905b815481529060010190602001808311611a7b57829003601f168201915b505050505090806002018054611aad90613441565b80601f0160208091040260200160405190810160405280929190818152602001828054611ad990613441565b8015611b245780601f10611afb57610100808354040283529160200191611b24565b820191905f5260205f20905b815481529060010190602001808311611b0757829003601f168201915b505050505090806003015f9054906101000a900473ffffffffffffffffffffffffffffffffffffffff16908060030160149054906101000a900460ff1690806004015f9054906101000a900473ffffffffffffffffffffffffffffffffffffffff16905086565b60028181548110611b9a575f80fd5b905f5260205f20015f915054906101000a900473ffffffffffffffffffffffffffffffffffffffff1681565b60068181548110611bd5575f80fd5b905f5260205f2090600402015f91509050805f015490806001015f9054906101000a900473ffffffffffffffffffffffffffffffffffffffff16908060020154908060030154905084565b5f602052805f5260405f205f91509050805f015f9054906101000a900460ff1690805f0160019054906101000a900460ff1690806001018054611c6290613441565b80601f0160208091040260200160405190810160405280929190818152602001828054611c8e90613441565b8015611cd95780601f10611cb057610100808354040283529160200191611cd9565b820191905f5260205f20905b815481529060010190602001808311611cbc57829003601f168201915b5050505050905083565b5f803373ffffffffffffffffffffffffffffffffffffffff1673ffffffffffffffffffffffffffffffffffffffff1681526020019081526020015f205f0160019054906101000a900460ff16611d6e576040517f08c379a0000000000000000000000000000000000000000000000000000000008152600401611d6590613ad0565b60405180910390fd5b6007805490508210611db5576040517f08c379a0000000000000000000000000000000000000000000000000000000008152600401611dac90613b38565b60405180910390fd5b5f60078381548110611dca57611dc96137df565b5b905f5260205f20906004020190503373ffffffffffffffffffffffffffffffffffffffff1660015f836001015481526020019081526020015f206003015f9054906101000a900473ffffffffffffffffffffffffffffffffffffffff1673ffffffffffffffffffffffffffffffffffffffff1614611e7d576040517f08c379a0000000000000000000000000000000000000000000000000000000008152600401611e7490613bc6565b60405180910390fd5b81816003019081611e8e919061360e565b50505050565b5f803373ffffffffffffffffffffffffffffffffffffffff1673ffffffffffffffffffffffffffffffffffffffff1681526020019081526020015f205f0160019054906101000a900460ff16611f1f576040517f08c379a0000000000000000000000000000000000000000000000000000000008152600401611f1690613c54565b60405180910390fd5b6008805490508110611f66576040517f08c379a0000000000000000000000000000000000000000000000000000000008152600401611f5d90613cbc565b60405180910390fd5b5f60088281548110611f7b57611f7a6137df565b5b905f5260205f20906004020190503373ffffffffffffffffffffffffffffffffffffffff1660015f836001015481526020019081526020015f206003015f9054906101000a900473ffffffffffffffffffffffffffffffffffffffff1673ffffffffffffffffffffffffffffffffffffffff161461202e576040517f08c379a000000000000000000000000000000000000000000000000000000000815260040161202590613d4a565b60405180910390fd5b61205e8160010154825f015f9054906101000a900473ffffffffffffffffffffffffffffffffffffffff166124d2565b6001816003015f6101000a81548160ff0219169083151502179055506001805f836001015481526020019081526020015f2060030160146101000a81548160ff0219169083151502179055505050565b6060806060805f600167ffffffffffffffff8111156120d0576120cf6128be565b5b6040519080825280602002602001820160405280156120fe5781602001602082028036833780820191505090505b5090505f600167ffffffffffffffff81111561211d5761211c6128be565b5b60405190808252806020026020018201604052801561215057816020015b606081526020019060019003908161213b5790505b5090505f600167ffffffffffffffff81111561216f5761216e6128be565b5b6040519080825280602002602001820160405280156121a257816020015b606081526020019060019003908161218d5790505b5090505f600167ffffffffffffffff8111156121c1576121c06128be565b5b6040519080825280602002602001820160405280156121ef5781602001602082028036833780820191505090505b5090505f60015f8b81526020019081526020015f206040518060c00160405290815f820154815260200160018201805461222890613441565b80601f016020809104026020016040519081016040528092919081815260200182805461225490613441565b801561229f5780601f106122765761010080835404028352916020019161229f565b820191905f5260205f20905b81548152906001019060200180831161228257829003601f168201915b505050505081526020016002820180546122b890613441565b80601f01602080910402602001604051908101604052809291908181526020018280546122e490613441565b801561232f5780601f106123065761010080835404028352916020019161232f565b820191905f5260205f20905b81548152906001019060200180831161231257829003601f168201915b50505050508152602001600382015f9054906101000a900473ffffffffffffffffffffffffffffffffffffffff1673ffffffffffffffffffffffffffffffffffffffff1673ffffffffffffffffffffffffffffffffffffffff1681526020016003820160149054906101000a900460ff16151515158152602001600482015f9054906101000a900473ffffffffffffffffffffffffffffffffffffffff1673ffffffffffffffffffffffffffffffffffffffff1673ffffffffffffffffffffffffffffffffffffffff16815250509050805f0151855f81518110612416576124156137df565b5b6020026020010181815250508060200151845f8151811061243a576124396137df565b5b60200260200101819052508060400151835f8151811061245d5761245c6137df565b5b60200260200101819052508060600151825f815181106124805761247f6137df565b5b602002602001019073ffffffffffffffffffffffffffffffffffffffff16908173ffffffffffffffffffffffffffffffffffffffff168152505084848484985098509850985050505050509193509193565b5f803373ffffffffffffffffffffffffffffffffffffffff1673ffffffffffffffffffffffffffffffffffffffff1681526020019081526020015f205f0160019054906101000a900460ff1661255d576040517f08c379a000000000000000000000000000000000000000000000000000000000815260040161255490613dd8565b60405180910390fd5b3373ffffffffffffffffffffffffffffffffffffffff1660015f8481526020019081526020015f206003015f9054906101000a900473ffffffffffffffffffffffffffffffffffffffff1673ffffffffffffffffffffffffffffffffffffffff16146125fe576040517f08c379a00000000000000000000000000000000000000000000000000000000081526004016125f590613d4a565b60405180910390fd5b5f5b6006805490508110156126ea578260068281548110612622576126216137df565b5b905f5260205f2090600402015f01541480156126ab57508173ffffffffffffffffffffffffffffffffffffffff1660068281548110612664576126636137df565b5b905f5260205f2090600402016001015f9054906101000a900473ffffffffffffffffffffffffffffffffffffffff1673ffffffffffffffffffffffffffffffffffffffff16145b156126dd5742600682815481106126c5576126c46137df565b5b905f5260205f209060040201600301819055506126ea565b8080600101915050612600565b505050565b60605f60068054905067ffffffffffffffff811115612711576127106128be565b5b60405190808252806020026020018201604052801561273f5781602001602082028036833780820191505090505b5090505f5b6006805490508110156128015760015f60068381548110612768576127676137df565b5b905f5260205f2090600402015f015481526020019081526020015f206003015f9054906101000a900473ffffffffffffffffffffffffffffffffffffffff168282815181106127ba576127b96137df565b5b602002602001019073ffffffffffffffffffffffffffffffffffffffff16908173ffffffffffffffffffffffffffffffffffffffff16815250508080600101915050612744565b508091505090565b5f819050919050565b61281b81612809565b82525050565b5f6020820190506128345f830184612812565b92915050565b5f819050919050565b61284c8161283a565b82525050565b5f6020820190506128655f830184612843565b92915050565b5f604051905090565b5f80fd5b5f80fd5b61288581612809565b811461288f575f80fd5b50565b5f813590506128a08161287c565b92915050565b5f80fd5b5f80fd5b5f601f19601f8301169050919050565b7f4e487b71000000000000000000000000000000000000000000000000000000005f52604160045260245ffd5b6128f4826128ae565b810181811067ffffffffffffffff82111715612913576129126128be565b5b80604052505050565b5f61292561286b565b905061293182826128eb565b919050565b5f67ffffffffffffffff8211156129505761294f6128be565b5b612959826128ae565b9050602081019050919050565b828183375f83830152505050565b5f61298661298184612936565b61291c565b9050828152602081018484840111156129a2576129a16128aa565b5b6129ad848285612966565b509392505050565b5f82601f8301126129c9576129c86128a6565b5b81356129d9848260208601612974565b91505092915050565b5f80604083850312156129f8576129f7612874565b5b5f612a0585828601612892565b925050602083013567ffffffffffffffff811115612a2657612a25612878565b5b612a32858286016129b5565b9150509250929050565b5f8060408385031215612a5257612a51612874565b5b5f83013567ffffffffffffffff811115612a6f57612a6e612878565b5b612a7b858286016129b5565b925050602083013567ffffffffffffffff811115612a9c57612a9b612878565b5b612aa8858286016129b5565b9150509250929050565b5f81519050919050565b5f82825260208201905092915050565b5f819050602082019050919050565b612ae481612809565b82525050565b5f612af58383612adb565b60208301905092915050565b5f602082019050919050565b5f612b1782612ab2565b612b218185612abc565b9350612b2c83612acc565b805f5b83811015612b5c578151612b438882612aea565b9750612b4e83612b01565b925050600181019050612b2f565b5085935050505092915050565b5f81519050919050565b5f82825260208201905092915050565b5f819050602082019050919050565b5f81519050919050565b5f82825260208201905092915050565b5f5b83811015612bc9578082015181840152602081019050612bae565b5f8484015250505050565b5f612bde82612b92565b612be88185612b9c565b9350612bf8818560208601612bac565b612c01816128ae565b840191505092915050565b5f612c178383612bd4565b905092915050565b5f602082019050919050565b5f612c3582612b69565b612c3f8185612b73565b935083602082028501612c5185612b83565b805f5b85811015612c8c5784840389528151612c6d8582612c0c565b9450612c7883612c1f565b925060208a01995050600181019050612c54565b50829750879550505050505092915050565b5f6080820190508181035f830152612cb68187612b0d565b90508181036020830152612cca8186612c2b565b90508181036040830152612cde8185612c2b565b90508181036060830152612cf28184612c2b565b905095945050505050565b5f8115159050919050565b612d1181612cfd565b8114612d1b575f80fd5b50565b5f81359050612d2c81612d08565b92915050565b5f805f60608486031215612d4957612d48612874565b5b5f84013567ffffffffffffffff811115612d6657612d65612878565b5b612d72868287016129b5565b9350506020612d8386828701612d1e565b9250506040612d9486828701612d1e565b9150509250925092565b5f60208284031215612db357612db2612874565b5b5f612dc084828501612892565b91505092915050565b5f6060820190508181035f830152612de18186612b0d565b90508181036020830152612df58185612c2b565b90508181036040830152612e098184612c2b565b9050949350505050565b5f73ffffffffffffffffffffffffffffffffffffffff82169050919050565b5f612e3c82612e13565b9050919050565b612e4c81612e32565b8114612e56575f80fd5b50565b5f81359050612e6781612e43565b92915050565b612e768161283a565b8114612e80575f80fd5b50565b5f81359050612e9181612e6d565b92915050565b5f805f8060808587031215612eaf57612eae612874565b5b5f612ebc87828801612892565b9450506020612ecd87828801612e59565b9350506040612ede87828801612e83565b9250506060612eef87828801612e83565b91505092959194509250565b5f60208284031215612f1057612f0f612874565b5b5f612f1d84828501612e83565b91505092915050565b612f2f81612e32565b82525050565b5f82825260208201905092915050565b5f612f4f82612b92565b612f598185612f35565b9350612f69818560208601612bac565b612f72816128ae565b840191505092915050565b5f608082019050612f905f830187612f26565b612f9d6020830186612812565b8181036040830152612faf8185612f45565b90508181036060830152612fc38184612f45565b905095945050505050565b612fd781612cfd565b82525050565b5f608082019050612ff05f830187612f26565b612ffd6020830186612812565b61300a6040830185612843565b6130176060830184612fce565b95945050505050565b5f60c0820190506130335f830189612812565b81810360208301526130458188612f45565b905081810360408301526130598187612f45565b90506130686060830186612f26565b6130756080830185612fce565b61308260a0830184612f26565b979650505050505050565b5f6020820190506130a05f830184612f26565b92915050565b5f6080820190506130b95f830187612812565b6130c66020830186612f26565b6130d36040830185612843565b6130e06060830184612843565b95945050505050565b5f602082840312156130fe576130fd612874565b5b5f61310b84828501612e59565b91505092915050565b5f6060820190506131275f830186612fce565b6131346020830185612fce565b81810360408301526131468184612f45565b9050949350505050565b5f806040838503121561316657613165612874565b5b5f61317385828601612e83565b925050602083013567ffffffffffffffff81111561319457613193612878565b5b6131a0858286016129b5565b9150509250929050565b5f81519050919050565b5f82825260208201905092915050565b5f819050602082019050919050565b6131dc81612e32565b82525050565b5f6131ed83836131d3565b60208301905092915050565b5f602082019050919050565b5f61320f826131aa565b61321981856131b4565b9350613224836131c4565b805f5b8381101561325457815161323b88826131e2565b9750613246836131f9565b925050600181019050613227565b5085935050505092915050565b5f6080820190508181035f8301526132798187612b0d565b9050818103602083015261328d8186612c2b565b905081810360408301526132a18185612c2b565b905081810360608301526132b58184613205565b905095945050505050565b5f80604083850312156132d6576132d5612874565b5b5f6132e385828601612892565b92505060206132f485828601612e59565b9150509250929050565b5f6020820190508181035f8301526133168184613205565b905092915050565b7f6f6e6c792074656e616e74732063616e206d616b65206120636f6d706c61696e5f82015250565b5f613352602083612f35565b915061335d8261331e565b602082019050919050565b5f6020820190508181035f83015261337f81613346565b9050919050565b7f75736572732063616e206f6e6c7920636f6d706c61696e2061626f75742061205f8201527f7468656972206f776e2072656e7465642070726f706572747900000000000000602082015250565b5f6133e0603983612f35565b91506133eb82613386565b604082019050919050565b5f6020820190508181035f83015261340d816133d4565b9050919050565b7f4e487b71000000000000000000000000000000000000000000000000000000005f52602260045260245ffd5b5f600282049050600182168061345857607f821691505b60208210810361346b5761346a613414565b5b50919050565b5f819050815f5260205f209050919050565b5f6020601f8301049050919050565b5f82821b905092915050565b5f600883026134cd7fffffffffffffffffffffffffffffffffffffffffffffffffffffffffffffffff82613492565b6134d78683613492565b95508019841693508086168417925050509392505050565b5f819050919050565b5f61351261350d6135088461283a565b6134ef565b61283a565b9050919050565b5f819050919050565b61352b836134f8565b61353f61353782613519565b84845461349e565b825550505050565b5f90565b613553613547565b61355e818484613522565b505050565b5b81811015613581576135765f8261354b565b600181019050613564565b5050565b601f8211156135c65761359781613471565b6135a084613483565b810160208510156135af578190505b6135c36135bb85613483565b830182613563565b50505b505050565b5f82821c905092915050565b5f6135e65f19846008026135cb565b1980831691505092915050565b5f6135fe83836135d7565b9150826002028217905092915050565b61361782612b92565b67ffffffffffffffff8111156136305761362f6128be565b5b61363a8254613441565b613645828285613585565b5f60209050601f831160018114613676575f8415613664578287015190505b61366e85826135f3565b8655506136d5565b601f19841661368486613471565b5f5b828110156136ab57848901518255600182019150602085019450602081019050613686565b868310156136c857848901516136c4601f8916826135d7565b8355505b6001600288020188555050505b505050505050565b7f6f6e6c79204c616e646c6f7264732063616e206372656174652070726f7065725f8201527f7479000000000000000000000000000000000000000000000000000000000000602082015250565b5f613737602283612f35565b9150613742826136dd565b604082019050919050565b5f6020820190508181035f8301526137648161372b565b9050919050565b7f4e487b71000000000000000000000000000000000000000000000000000000005f52601160045260245ffd5b5f6137a282612809565b91507f7fffffffffffffffffffffffffffffffffffffffffffffffffffffffffffffff82036137d4576137d361376b565b5b600182019050919050565b7f4e487b71000000000000000000000000000000000000000000000000000000005f52603260045260245ffd5b7f5573657220616c726561647920657869737473000000000000000000000000005f82015250565b5f613840601383612f35565b915061384b8261380c565b602082019050919050565b5f6020820190508181035f83015261386d81613834565b9050919050565b7f4f6e6c792074656e616e74732063616e2072657175657374206561726c7920745f8201527f65726d696e6174696f6e00000000000000000000000000000000000000000000602082015250565b5f6138ce602a83612f35565b91506138d982613874565b604082019050919050565b5f6020820190508181035f8301526138fb816138c2565b9050919050565b7f596f7520646f206e6f7420686176652061206c6561736520666f7220746869735f8201527f2070726f70657274790000000000000000000000000000000000000000000000602082015250565b5f61395c602983612f35565b915061396782613902565b604082019050919050565b5f6020820190508181035f83015261398981613950565b9050919050565b7f496e76616c69642074656e616e74206f722070726f70657274790000000000005f82015250565b5f6139c4601a83612f35565b91506139cf82613990565b602082019050919050565b5f6020820190508181035f8301526139f1816139b8565b9050919050565b7f50726f7065727479206973206e6f742072656e7461626c6500000000000000005f82015250565b5f613a2c601883612f35565b9150613a37826139f8565b602082019050919050565b5f6020820190508181035f830152613a5981613a20565b9050919050565b7f6f6e6c79206c616e646c6f7264732063616e207265706c7920746f20636f6d705f8201527f6c61696e73000000000000000000000000000000000000000000000000000000602082015250565b5f613aba602583612f35565b9150613ac582613a60565b604082019050919050565b5f6020820190508181035f830152613ae781613aae565b9050919050565b7f496e76616c696420636f6d706c61696e7420696e6465780000000000000000005f82015250565b5f613b22601783612f35565b9150613b2d82613aee565b602082019050919050565b5f6020820190508181035f830152613b4f81613b16565b9050919050565b7f596f7520617265206e6f7420746865206f776e6572206f66207468652070726f5f8201527f70657274792072656c6174656420746f207468697320636f6d706c61696e7400602082015250565b5f613bb0603f83612f35565b9150613bbb82613b56565b604082019050919050565b5f6020820190508181035f830152613bdd81613ba4565b9050919050565b7f4f6e6c79206c616e646c6f7264732063616e20617070726f7665206561726c795f8201527f207465726d696e6174696f6e0000000000000000000000000000000000000000602082015250565b5f613c3e602c83612f35565b9150613c4982613be4565b604082019050919050565b5f6020820190508181035f830152613c6b81613c32565b9050919050565b7f496e76616c6964207265717565737420696e64657800000000000000000000005f82015250565b5f613ca6601583612f35565b9150613cb182613c72565b602082019050919050565b5f6020820190508181035f830152613cd381613c9a565b9050919050565b7f596f7520617265206e6f7420746865206f776e6572206f66207468652070726f5f8201527f7065727479000000000000000000000000000000000000000000000000000000602082015250565b5f613d34602583612f35565b9150613d3f82613cda565b604082019050919050565b5f6020820190508181035f830152613d6181613d28565b9050919050565b7f4f6e6c79206c616e646c6f7264732063616e207465726d696e617465206c65615f8201527f7365730000000000000000000000000000000000000000000000000000000000602082015250565b5f613dc2602383612f35565b9150613dcd82613d68565b604082019050919050565b5f6020820190508181035f830152613def81613db6565b905091905056fea264697066735822122095d652b0e221342ca1a734eb2ed02b3fb90f758c94ca3472aa8b66a36d63991264736f6c63430008160033",
					"opcodes": "PUSH1 0x80 PUSH1 0x40 MSTORE CALLVALUE DUP1 ISZERO PUSH2 0xF JUMPI PUSH0 DUP1 REVERT JUMPDEST POP PUSH0 PUSH1 0x3 DUP2 SWAP1 SSTORE POP PUSH2 0x3E2C DUP1 PUSH2 0x24 PUSH0 CODECOPY PUSH0 RETURN INVALID PUSH1 0x80 PUSH1 0x40 MSTORE CALLVALUE DUP1 ISZERO PUSH2 0xF JUMPI PUSH0 DUP1 REVERT JUMPDEST POP PUSH1 0x4 CALLDATASIZE LT PUSH2 0x134 JUMPI PUSH0 CALLDATALOAD PUSH1 0xE0 SHR DUP1 PUSH4 0x4EA30B2F GT PUSH2 0xB6 JUMPI DUP1 PUSH4 0xA87430BA GT PUSH2 0x7A JUMPI DUP1 PUSH4 0xA87430BA EQ PUSH2 0x35D JUMPI DUP1 PUSH4 0xAC00EEDC EQ PUSH2 0x38F JUMPI DUP1 PUSH4 0xAE23D553 EQ PUSH2 0x3AB JUMPI DUP1 PUSH4 0xCAD140CF EQ PUSH2 0x3C7 JUMPI DUP1 PUSH4 0xE4236D13 EQ PUSH2 0x3FA JUMPI DUP1 PUSH4 0xFB1899AB EQ PUSH2 0x416 JUMPI PUSH2 0x134 JUMP JUMPDEST DUP1 PUSH4 0x4EA30B2F EQ PUSH2 0x25F JUMPI DUP1 PUSH4 0x63575877 EQ PUSH2 0x292 JUMPI DUP1 PUSH4 0x70ACD52A EQ PUSH2 0x2C5 JUMPI DUP1 PUSH4 0x9F4216E8 EQ PUSH2 0x2FA JUMPI DUP1 PUSH4 0xA05D098C EQ PUSH2 0x32A JUMPI PUSH2 0x134 JUMP JUMPDEST DUP1 PUSH4 0x13704EAF GT PUSH2 0xFD JUMPI DUP1 PUSH4 0x13704EAF EQ PUSH2 0x1CA JUMPI DUP1 PUSH4 0x16EF034C EQ PUSH2 0x1EB JUMPI DUP1 PUSH4 0x3317E396 EQ PUSH2 0x207 JUMPI DUP1 PUSH4 0x33625E78 EQ PUSH2 0x223 JUMPI DUP1 PUSH4 0x35BDD1EE EQ PUSH2 0x243 JUMPI PUSH2 0x134 JUMP JUMPDEST DUP1 PUSH3 0xD89033 EQ PUSH2 0x138 JUMPI DUP1 PUSH4 0x6552091 EQ PUSH2 0x156 JUMPI DUP1 PUSH4 0x6E72313 EQ PUSH2 0x174 JUMPI DUP1 PUSH4 0x7460B66 EQ PUSH2 0x190 JUMPI DUP1 PUSH4 0x1307430A EQ PUSH2 0x1AC JUMPI JUMPDEST PUSH0 DUP1 REVERT JUMPDEST PUSH2 0x140 PUSH2 0x434 JUMP JUMPDEST PUSH1 0x40 MLOAD PUSH2 0x14D SWAP2 SWAP1 PUSH2 0x2821 JUMP JUMPDEST PUSH1 0x40 MLOAD DUP1 SWAP2 SUB SWAP1 RETURN JUMPDEST PUSH2 0x15E PUSH2 0x43A JUMP JUMPDEST PUSH1 0x40 MLOAD PUSH2 0x16B SWAP2 SWAP1 PUSH2 0x2852 JUMP JUMPDEST PUSH1 0x40 MLOAD DUP1 SWAP2 SUB SWAP1 RETURN JUMPDEST PUSH2 0x18E PUSH1 0x4 DUP1 CALLDATASIZE SUB DUP2 ADD SWAP1 PUSH2 0x189 SWAP2 SWAP1 PUSH2 0x29E2 JUMP JUMPDEST PUSH2 0x440 JUMP JUMPDEST STOP JUMPDEST PUSH2 0x1AA PUSH1 0x4 DUP1 CALLDATASIZE SUB DUP2 ADD SWAP1 PUSH2 0x1A5 SWAP2 SWAP1 PUSH2 0x2A3C JUMP JUMPDEST PUSH2 0x658 JUMP JUMPDEST STOP JUMPDEST PUSH2 0x1B4 PUSH2 0x852 JUMP JUMPDEST PUSH1 0x40 MLOAD PUSH2 0x1C1 SWAP2 SWAP1 PUSH2 0x2852 JUMP JUMPDEST PUSH1 0x40 MLOAD DUP1 SWAP2 SUB SWAP1 RETURN JUMPDEST PUSH2 0x1D2 PUSH2 0x858 JUMP JUMPDEST PUSH1 0x40 MLOAD PUSH2 0x1E2 SWAP5 SWAP4 SWAP3 SWAP2 SWAP1 PUSH2 0x2C9E JUMP JUMPDEST PUSH1 0x40 MLOAD DUP1 SWAP2 SUB SWAP1 RETURN JUMPDEST PUSH2 0x205 PUSH1 0x4 DUP1 CALLDATASIZE SUB DUP2 ADD SWAP1 PUSH2 0x200 SWAP2 SWAP1 PUSH2 0x2D32 JUMP JUMPDEST PUSH2 0xDCC JUMP JUMPDEST STOP JUMPDEST PUSH2 0x221 PUSH1 0x4 DUP1 CALLDATASIZE SUB DUP2 ADD SWAP1 PUSH2 0x21C SWAP2 SWAP1 PUSH2 0x2D9E JUMP JUMPDEST PUSH2 0xFC1 JUMP JUMPDEST STOP JUMPDEST PUSH2 0x22B PUSH2 0x1233 JUMP JUMPDEST PUSH1 0x40 MLOAD PUSH2 0x23A SWAP4 SWAP3 SWAP2 SWAP1 PUSH2 0x2DC9 JUMP JUMPDEST PUSH1 0x40 MLOAD DUP1 SWAP2 SUB SWAP1 RETURN JUMPDEST PUSH2 0x25D PUSH1 0x4 DUP1 CALLDATASIZE SUB DUP2 ADD SWAP1 PUSH2 0x258 SWAP2 SWAP1 PUSH2 0x2E97 JUMP JUMPDEST PUSH2 0x15E5 JUMP JUMPDEST STOP JUMPDEST PUSH2 0x279 PUSH1 0x4 DUP1 CALLDATASIZE SUB DUP2 ADD SWAP1 PUSH2 0x274 SWAP2 SWAP1 PUSH2 0x2EFB JUMP JUMPDEST PUSH2 0x1830 JUMP JUMPDEST PUSH1 0x40 MLOAD PUSH2 0x289 SWAP5 SWAP4 SWAP3 SWAP2 SWAP1 PUSH2 0x2F7D JUMP JUMPDEST PUSH1 0x40 MLOAD DUP1 SWAP2 SUB SWAP1 RETURN JUMPDEST PUSH2 0x2AC PUSH1 0x4 DUP1 CALLDATASIZE SUB DUP2 ADD SWAP1 PUSH2 0x2A7 SWAP2 SWAP1 PUSH2 0x2EFB JUMP JUMPDEST PUSH2 0x1996 JUMP JUMPDEST PUSH1 0x40 MLOAD PUSH2 0x2BC SWAP5 SWAP4 SWAP3 SWAP2 SWAP1 PUSH2 0x2FDD JUMP JUMPDEST PUSH1 0x40 MLOAD DUP1 SWAP2 SUB SWAP1 RETURN JUMPDEST PUSH2 0x2DF PUSH1 0x4 DUP1 CALLDATASIZE SUB DUP2 ADD SWAP1 PUSH2 0x2DA SWAP2 SWAP1 PUSH2 0x2D9E JUMP JUMPDEST PUSH2 0x19FC JUMP JUMPDEST PUSH1 0x40 MLOAD PUSH2 0x2F1 SWAP7 SWAP6 SWAP5 SWAP4 SWAP3 SWAP2 SWAP1 PUSH2 0x3020 JUMP JUMPDEST PUSH1 0x40 MLOAD DUP1 SWAP2 SUB SWAP1 RETURN JUMPDEST PUSH2 0x314 PUSH1 0x4 DUP1 CALLDATASIZE SUB DUP2 ADD SWAP1 PUSH2 0x30F SWAP2 SWAP1 PUSH2 0x2EFB JUMP JUMPDEST PUSH2 0x1B8B JUMP JUMPDEST PUSH1 0x40 MLOAD PUSH2 0x321 SWAP2 SWAP1 PUSH2 0x308D JUMP JUMPDEST PUSH1 0x40 MLOAD DUP1 SWAP2 SUB SWAP1 RETURN JUMPDEST PUSH2 0x344 PUSH1 0x4 DUP1 CALLDATASIZE SUB DUP2 ADD SWAP1 PUSH2 0x33F SWAP2 SWAP1 PUSH2 0x2EFB JUMP JUMPDEST PUSH2 0x1BC6 JUMP JUMPDEST PUSH1 0x40 MLOAD PUSH2 0x354 SWAP5 SWAP4 SWAP3 SWAP2 SWAP1 PUSH2 0x30A6 JUMP JUMPDEST PUSH1 0x40 MLOAD DUP1 SWAP2 SUB SWAP1 RETURN JUMPDEST PUSH2 0x377 PUSH1 0x4 DUP1 CALLDATASIZE SUB DUP2 ADD SWAP1 PUSH2 0x372 SWAP2 SWAP1 PUSH2 0x30E9 JUMP JUMPDEST PUSH2 0x1C20 JUMP JUMPDEST PUSH1 0x40 MLOAD PUSH2 0x386 SWAP4 SWAP3 SWAP2 SWAP1 PUSH2 0x3114 JUMP JUMPDEST PUSH1 0x40 MLOAD DUP1 SWAP2 SUB SWAP1 RETURN JUMPDEST PUSH2 0x3A9 PUSH1 0x4 DUP1 CALLDATASIZE SUB DUP2 ADD SWAP1 PUSH2 0x3A4 SWAP2 SWAP1 PUSH2 0x3150 JUMP JUMPDEST PUSH2 0x1CE3 JUMP JUMPDEST STOP JUMPDEST PUSH2 0x3C5 PUSH1 0x4 DUP1 CALLDATASIZE SUB DUP2 ADD SWAP1 PUSH2 0x3C0 SWAP2 SWAP1 PUSH2 0x2EFB JUMP JUMPDEST PUSH2 0x1E94 JUMP JUMPDEST STOP JUMPDEST PUSH2 0x3E1 PUSH1 0x4 DUP1 CALLDATASIZE SUB DUP2 ADD SWAP1 PUSH2 0x3DC SWAP2 SWAP1 PUSH2 0x2D9E JUMP JUMPDEST PUSH2 0x20AE JUMP JUMPDEST PUSH1 0x40 MLOAD PUSH2 0x3F1 SWAP5 SWAP4 SWAP3 SWAP2 SWAP1 PUSH2 0x3261 JUMP JUMPDEST PUSH1 0x40 MLOAD DUP1 SWAP2 SUB SWAP1 RETURN JUMPDEST PUSH2 0x414 PUSH1 0x4 DUP1 CALLDATASIZE SUB DUP2 ADD SWAP1 PUSH2 0x40F SWAP2 SWAP1 PUSH2 0x32C0 JUMP JUMPDEST PUSH2 0x24D2 JUMP JUMPDEST STOP JUMPDEST PUSH2 0x41E PUSH2 0x26EF JUMP JUMPDEST PUSH1 0x40 MLOAD PUSH2 0x42B SWAP2 SWAP1 PUSH2 0x32FE JUMP JUMPDEST PUSH1 0x40 MLOAD DUP1 SWAP2 SUB SWAP1 RETURN JUMPDEST PUSH1 0x3 SLOAD DUP2 JUMP JUMPDEST PUSH1 0x5 SLOAD DUP2 JUMP JUMPDEST PUSH0 DUP1 CALLER PUSH20 0xFFFFFFFFFFFFFFFFFFFFFFFFFFFFFFFFFFFFFFFF AND PUSH20 0xFFFFFFFFFFFFFFFFFFFFFFFFFFFFFFFFFFFFFFFF AND DUP2 MSTORE PUSH1 0x20 ADD SWAP1 DUP2 MSTORE PUSH1 0x20 ADD PUSH0 KECCAK256 PUSH0 ADD PUSH0 SWAP1 SLOAD SWAP1 PUSH2 0x100 EXP SWAP1 DIV PUSH1 0xFF AND PUSH2 0x4CA JUMPI PUSH1 0x40 MLOAD PUSH32 0x8C379A000000000000000000000000000000000000000000000000000000000 DUP2 MSTORE PUSH1 0x4 ADD PUSH2 0x4C1 SWAP1 PUSH2 0x3368 JUMP JUMPDEST PUSH1 0x40 MLOAD DUP1 SWAP2 SUB SWAP1 REVERT JUMPDEST CALLER PUSH20 0xFFFFFFFFFFFFFFFFFFFFFFFFFFFFFFFFFFFFFFFF AND PUSH1 0x1 PUSH0 DUP5 DUP2 MSTORE PUSH1 0x20 ADD SWAP1 DUP2 MSTORE PUSH1 0x20 ADD PUSH0 KECCAK256 PUSH1 0x4 ADD PUSH0 SWAP1 SLOAD SWAP1 PUSH2 0x100 EXP SWAP1 DIV PUSH20 0xFFFFFFFFFFFFFFFFFFFFFFFFFFFFFFFFFFFFFFFF AND PUSH20 0xFFFFFFFFFFFFFFFFFFFFFFFFFFFFFFFFFFFFFFFF AND EQ PUSH2 0x56B JUMPI PUSH1 0x40 MLOAD PUSH32 0x8C379A000000000000000000000000000000000000000000000000000000000 DUP2 MSTORE PUSH1 0x4 ADD PUSH2 0x562 SWAP1 PUSH2 0x33F6 JUMP JUMPDEST PUSH1 0x40 MLOAD DUP1 SWAP2 SUB SWAP1 REVERT JUMPDEST PUSH1 0x7 PUSH1 0x40 MLOAD DUP1 PUSH1 0x80 ADD PUSH1 0x40 MSTORE DUP1 CALLER PUSH20 0xFFFFFFFFFFFFFFFFFFFFFFFFFFFFFFFFFFFFFFFF AND DUP2 MSTORE PUSH1 0x20 ADD DUP5 DUP2 MSTORE PUSH1 0x20 ADD DUP4 DUP2 MSTORE PUSH1 0x20 ADD PUSH1 0x40 MLOAD DUP1 PUSH1 0x20 ADD PUSH1 0x40 MSTORE DUP1 PUSH0 DUP2 MSTORE POP DUP2 MSTORE POP SWAP1 DUP1 PUSH1 0x1 DUP2 SLOAD ADD DUP1 DUP3 SSTORE DUP1 SWAP2 POP POP PUSH1 0x1 SWAP1 SUB SWAP1 PUSH0 MSTORE PUSH1 0x20 PUSH0 KECCAK256 SWAP1 PUSH1 0x4 MUL ADD PUSH0 SWAP1 SWAP2 SWAP1 SWAP2 SWAP1 SWAP2 POP PUSH0 DUP3 ADD MLOAD DUP2 PUSH0 ADD PUSH0 PUSH2 0x100 EXP DUP2 SLOAD DUP2 PUSH20 0xFFFFFFFFFFFFFFFFFFFFFFFFFFFFFFFFFFFFFFFF MUL NOT AND SWAP1 DUP4 PUSH20 0xFFFFFFFFFFFFFFFFFFFFFFFFFFFFFFFFFFFFFFFF AND MUL OR SWAP1 SSTORE POP PUSH1 0x20 DUP3 ADD MLOAD DUP2 PUSH1 0x1 ADD SSTORE PUSH1 0x40 DUP3 ADD MLOAD DUP2 PUSH1 0x2 ADD SWAP1 DUP2 PUSH2 0x63B SWAP2 SWAP1 PUSH2 0x360E JUMP JUMPDEST POP PUSH1 0x60 DUP3 ADD MLOAD DUP2 PUSH1 0x3 ADD SWAP1 DUP2 PUSH2 0x651 SWAP2 SWAP1 PUSH2 0x360E JUMP JUMPDEST POP POP POP POP POP JUMP JUMPDEST PUSH0 DUP1 CALLER PUSH20 0xFFFFFFFFFFFFFFFFFFFFFFFFFFFFFFFFFFFFFFFF AND PUSH20 0xFFFFFFFFFFFFFFFFFFFFFFFFFFFFFFFFFFFFFFFF AND DUP2 MSTORE PUSH1 0x20 ADD SWAP1 DUP2 MSTORE PUSH1 0x20 ADD PUSH0 KECCAK256 PUSH0 ADD PUSH1 0x1 SWAP1 SLOAD SWAP1 PUSH2 0x100 EXP SWAP1 DIV PUSH1 0xFF AND PUSH2 0x6E3 JUMPI PUSH1 0x40 MLOAD PUSH32 0x8C379A000000000000000000000000000000000000000000000000000000000 DUP2 MSTORE PUSH1 0x4 ADD PUSH2 0x6DA SWAP1 PUSH2 0x374D JUMP JUMPDEST PUSH1 0x40 MLOAD DUP1 SWAP2 SUB SWAP1 REVERT JUMPDEST PUSH1 0x40 MLOAD DUP1 PUSH1 0xC0 ADD PUSH1 0x40 MSTORE DUP1 PUSH1 0x3 SLOAD DUP2 MSTORE PUSH1 0x20 ADD DUP4 DUP2 MSTORE PUSH1 0x20 ADD DUP3 DUP2 MSTORE PUSH1 0x20 ADD CALLER PUSH20 0xFFFFFFFFFFFFFFFFFFFFFFFFFFFFFFFFFFFFFFFF AND DUP2 MSTORE PUSH1 0x20 ADD PUSH1 0x1 ISZERO ISZERO DUP2 MSTORE PUSH1 0x20 ADD PUSH0 PUSH20 0xFFFFFFFFFFFFFFFFFFFFFFFFFFFFFFFFFFFFFFFF AND DUP2 MSTORE POP PUSH1 0x1 PUSH0 PUSH1 0x3 SLOAD DUP2 MSTORE PUSH1 0x20 ADD SWAP1 DUP2 MSTORE PUSH1 0x20 ADD PUSH0 KECCAK256 PUSH0 DUP3 ADD MLOAD DUP2 PUSH0 ADD SSTORE PUSH1 0x20 DUP3 ADD MLOAD DUP2 PUSH1 0x1 ADD SWAP1 DUP2 PUSH2 0x771 SWAP2 SWAP1 PUSH2 0x360E JUMP JUMPDEST POP PUSH1 0x40 DUP3 ADD MLOAD DUP2 PUSH1 0x2 ADD SWAP1 DUP2 PUSH2 0x787 SWAP2 SWAP1 PUSH2 0x360E JUMP JUMPDEST POP PUSH1 0x60 DUP3 ADD MLOAD DUP2 PUSH1 0x3 ADD PUSH0 PUSH2 0x100 EXP DUP2 SLOAD DUP2 PUSH20 0xFFFFFFFFFFFFFFFFFFFFFFFFFFFFFFFFFFFFFFFF MUL NOT AND SWAP1 DUP4 PUSH20 0xFFFFFFFFFFFFFFFFFFFFFFFFFFFFFFFFFFFFFFFF AND MUL OR SWAP1 SSTORE POP PUSH1 0x80 DUP3 ADD MLOAD DUP2 PUSH1 0x3 ADD PUSH1 0x14 PUSH2 0x100 EXP DUP2 SLOAD DUP2 PUSH1 0xFF MUL NOT AND SWAP1 DUP4 ISZERO ISZERO MUL OR SWAP1 SSTORE POP PUSH1 0xA0 DUP3 ADD MLOAD DUP2 PUSH1 0x4 ADD PUSH0 PUSH2 0x100 EXP DUP2 SLOAD DUP2 PUSH20 0xFFFFFFFFFFFFFFFFFFFFFFFFFFFFFFFFFFFFFFFF MUL NOT AND SWAP1 DUP4 PUSH20 0xFFFFFFFFFFFFFFFFFFFFFFFFFFFFFFFFFFFFFFFF AND MUL OR SWAP1 SSTORE POP SWAP1 POP POP PUSH1 0x3 PUSH0 DUP2 SLOAD DUP1 SWAP3 SWAP2 SWAP1 PUSH2 0x849 SWAP1 PUSH2 0x3798 JUMP JUMPDEST SWAP2 SWAP1 POP SSTORE POP POP POP JUMP JUMPDEST PUSH1 0x4 SLOAD DUP2 JUMP JUMPDEST PUSH1 0x60 DUP1 PUSH1 0x60 DUP1 PUSH0 PUSH1 0x7 DUP1 SLOAD SWAP1 POP PUSH8 0xFFFFFFFFFFFFFFFF DUP2 GT ISZERO PUSH2 0x87E JUMPI PUSH2 0x87D PUSH2 0x28BE JUMP JUMPDEST JUMPDEST PUSH1 0x40 MLOAD SWAP1 DUP1 DUP3 MSTORE DUP1 PUSH1 0x20 MUL PUSH1 0x20 ADD DUP3 ADD PUSH1 0x40 MSTORE DUP1 ISZERO PUSH2 0x8AC JUMPI DUP2 PUSH1 0x20 ADD PUSH1 0x20 DUP3 MUL DUP1 CALLDATASIZE DUP4 CALLDATACOPY DUP1 DUP3 ADD SWAP2 POP POP SWAP1 POP JUMPDEST POP SWAP1 POP PUSH0 PUSH1 0x7 DUP1 SLOAD SWAP1 POP PUSH8 0xFFFFFFFFFFFFFFFF DUP2 GT ISZERO PUSH2 0x8CF JUMPI PUSH2 0x8CE PUSH2 0x28BE JUMP JUMPDEST JUMPDEST PUSH1 0x40 MLOAD SWAP1 DUP1 DUP3 MSTORE DUP1 PUSH1 0x20 MUL PUSH1 0x20 ADD DUP3 ADD PUSH1 0x40 MSTORE DUP1 ISZERO PUSH2 0x902 JUMPI DUP2 PUSH1 0x20 ADD JUMPDEST PUSH1 0x60 DUP2 MSTORE PUSH1 0x20 ADD SWAP1 PUSH1 0x1 SWAP1 SUB SWAP1 DUP2 PUSH2 0x8ED JUMPI SWAP1 POP JUMPDEST POP SWAP1 POP PUSH0 PUSH1 0x7 DUP1 SLOAD SWAP1 POP PUSH8 0xFFFFFFFFFFFFFFFF DUP2 GT ISZERO PUSH2 0x925 JUMPI PUSH2 0x924 PUSH2 0x28BE JUMP JUMPDEST JUMPDEST PUSH1 0x40 MLOAD SWAP1 DUP1 DUP3 MSTORE DUP1 PUSH1 0x20 MUL PUSH1 0x20 ADD DUP3 ADD PUSH1 0x40 MSTORE DUP1 ISZERO PUSH2 0x958 JUMPI DUP2 PUSH1 0x20 ADD JUMPDEST PUSH1 0x60 DUP2 MSTORE PUSH1 0x20 ADD SWAP1 PUSH1 0x1 SWAP1 SUB SWAP1 DUP2 PUSH2 0x943 JUMPI SWAP1 POP JUMPDEST POP SWAP1 POP PUSH0 PUSH1 0x7 DUP1 SLOAD SWAP1 POP PUSH8 0xFFFFFFFFFFFFFFFF DUP2 GT ISZERO PUSH2 0x97B JUMPI PUSH2 0x97A PUSH2 0x28BE JUMP JUMPDEST JUMPDEST PUSH1 0x40 MLOAD SWAP1 DUP1 DUP3 MSTORE DUP1 PUSH1 0x20 MUL PUSH1 0x20 ADD DUP3 ADD PUSH1 0x40 MSTORE DUP1 ISZERO PUSH2 0x9AE JUMPI DUP2 PUSH1 0x20 ADD JUMPDEST PUSH1 0x60 DUP2 MSTORE PUSH1 0x20 ADD SWAP1 PUSH1 0x1 SWAP1 SUB SWAP1 DUP2 PUSH2 0x999 JUMPI SWAP1 POP JUMPDEST POP SWAP1 POP PUSH0 JUMPDEST PUSH1 0x7 DUP1 SLOAD SWAP1 POP DUP2 LT ISZERO PUSH2 0xDB5 JUMPI PUSH0 PUSH1 0x7 DUP3 DUP2 SLOAD DUP2 LT PUSH2 0x9D5 JUMPI PUSH2 0x9D4 PUSH2 0x37DF JUMP JUMPDEST JUMPDEST SWAP1 PUSH0 MSTORE PUSH1 0x20 PUSH0 KECCAK256 SWAP1 PUSH1 0x4 MUL ADD PUSH1 0x40 MLOAD DUP1 PUSH1 0x80 ADD PUSH1 0x40 MSTORE SWAP1 DUP2 PUSH0 DUP3 ADD PUSH0 SWAP1 SLOAD SWAP1 PUSH2 0x100 EXP SWAP1 DIV PUSH20 0xFFFFFFFFFFFFFFFFFFFFFFFFFFFFFFFFFFFFFFFF AND PUSH20 0xFFFFFFFFFFFFFFFFFFFFFFFFFFFFFFFFFFFFFFFF AND PUSH20 0xFFFFFFFFFFFFFFFFFFFFFFFFFFFFFFFFFFFFFFFF AND DUP2 MSTORE PUSH1 0x20 ADD PUSH1 0x1 DUP3 ADD SLOAD DUP2 MSTORE PUSH1 0x20 ADD PUSH1 0x2 DUP3 ADD DUP1 SLOAD PUSH2 0xA5A SWAP1 PUSH2 0x3441 JUMP JUMPDEST DUP1 PUSH1 0x1F ADD PUSH1 0x20 DUP1 SWAP2 DIV MUL PUSH1 0x20 ADD PUSH1 0x40 MLOAD SWAP1 DUP2 ADD PUSH1 0x40 MSTORE DUP1 SWAP3 SWAP2 SWAP1 DUP2 DUP2 MSTORE PUSH1 0x20 ADD DUP3 DUP1 SLOAD PUSH2 0xA86 SWAP1 PUSH2 0x3441 JUMP JUMPDEST DUP1 ISZERO PUSH2 0xAD1 JUMPI DUP1 PUSH1 0x1F LT PUSH2 0xAA8 JUMPI PUSH2 0x100 DUP1 DUP4 SLOAD DIV MUL DUP4 MSTORE SWAP2 PUSH1 0x20 ADD SWAP2 PUSH2 0xAD1 JUMP JUMPDEST DUP3 ADD SWAP2 SWAP1 PUSH0 MSTORE PUSH1 0x20 PUSH0 KECCAK256 SWAP1 JUMPDEST DUP2 SLOAD DUP2 MSTORE SWAP1 PUSH1 0x1 ADD SWAP1 PUSH1 0x20 ADD DUP1 DUP4 GT PUSH2 0xAB4 JUMPI DUP3 SWAP1 SUB PUSH1 0x1F AND DUP3 ADD SWAP2 JUMPDEST POP POP POP POP POP DUP2 MSTORE PUSH1 0x20 ADD PUSH1 0x3 DUP3 ADD DUP1 SLOAD PUSH2 0xAEA SWAP1 PUSH2 0x3441 JUMP JUMPDEST DUP1 PUSH1 0x1F ADD PUSH1 0x20 DUP1 SWAP2 DIV MUL PUSH1 0x20 ADD PUSH1 0x40 MLOAD SWAP1 DUP2 ADD PUSH1 0x40 MSTORE DUP1 SWAP3 SWAP2 SWAP1 DUP2 DUP2 MSTORE PUSH1 0x20 ADD DUP3 DUP1 SLOAD PUSH2 0xB16 SWAP1 PUSH2 0x3441 JUMP JUMPDEST DUP1 ISZERO PUSH2 0xB61 JUMPI DUP1 PUSH1 0x1F LT PUSH2 0xB38 JUMPI PUSH2 0x100 DUP1 DUP4 SLOAD DIV MUL DUP4 MSTORE SWAP2 PUSH1 0x20 ADD SWAP2 PUSH2 0xB61 JUMP JUMPDEST DUP3 ADD SWAP2 SWAP1 PUSH0 MSTORE PUSH1 0x20 PUSH0 KECCAK256 SWAP1 JUMPDEST DUP2 SLOAD DUP2 MSTORE SWAP1 PUSH1 0x1 ADD SWAP1 PUSH1 0x20 ADD DUP1 DUP4 GT PUSH2 0xB44 JUMPI DUP3 SWAP1 SUB PUSH1 0x1F AND DUP3 ADD SWAP2 JUMPDEST POP POP POP POP POP DUP2 MSTORE POP POP SWAP1 POP CALLER PUSH20 0xFFFFFFFFFFFFFFFFFFFFFFFFFFFFFFFFFFFFFFFF AND DUP2 PUSH0 ADD MLOAD PUSH20 0xFFFFFFFFFFFFFFFFFFFFFFFFFFFFFFFFFFFFFFFF AND SUB PUSH2 0xDA7 JUMPI DUP1 PUSH1 0x20 ADD MLOAD DUP7 DUP4 DUP2 MLOAD DUP2 LT PUSH2 0xBBA JUMPI PUSH2 0xBB9 PUSH2 0x37DF JUMP JUMPDEST JUMPDEST PUSH1 0x20 MUL PUSH1 0x20 ADD ADD DUP2 DUP2 MSTORE POP POP DUP1 PUSH1 0x40 ADD MLOAD DUP6 DUP4 DUP2 MLOAD DUP2 LT PUSH2 0xBDE JUMPI PUSH2 0xBDD PUSH2 0x37DF JUMP JUMPDEST JUMPDEST PUSH1 0x20 MUL PUSH1 0x20 ADD ADD DUP2 SWAP1 MSTORE POP DUP1 PUSH1 0x60 ADD MLOAD DUP5 DUP4 DUP2 MLOAD DUP2 LT PUSH2 0xC01 JUMPI PUSH2 0xC00 PUSH2 0x37DF JUMP JUMPDEST JUMPDEST PUSH1 0x20 MUL PUSH1 0x20 ADD ADD DUP2 SWAP1 MSTORE POP PUSH0 PUSH20 0xFFFFFFFFFFFFFFFFFFFFFFFFFFFFFFFFFFFFFFFF AND PUSH1 0x1 PUSH0 DUP4 PUSH1 0x20 ADD MLOAD DUP2 MSTORE PUSH1 0x20 ADD SWAP1 DUP2 MSTORE PUSH1 0x20 ADD PUSH0 KECCAK256 PUSH1 0x3 ADD PUSH0 SWAP1 SLOAD SWAP1 PUSH2 0x100 EXP SWAP1 DIV PUSH20 0xFFFFFFFFFFFFFFFFFFFFFFFFFFFFFFFFFFFFFFFF AND PUSH20 0xFFFFFFFFFFFFFFFFFFFFFFFFFFFFFFFFFFFFFFFF AND EQ PUSH2 0xD78 JUMPI PUSH0 DUP1 PUSH1 0x1 PUSH0 DUP5 PUSH1 0x20 ADD MLOAD DUP2 MSTORE PUSH1 0x20 ADD SWAP1 DUP2 MSTORE PUSH1 0x20 ADD PUSH0 KECCAK256 PUSH1 0x3 ADD PUSH0 SWAP1 SLOAD SWAP1 PUSH2 0x100 EXP SWAP1 DIV PUSH20 0xFFFFFFFFFFFFFFFFFFFFFFFFFFFFFFFFFFFFFFFF AND PUSH20 0xFFFFFFFFFFFFFFFFFFFFFFFFFFFFFFFFFFFFFFFF AND PUSH20 0xFFFFFFFFFFFFFFFFFFFFFFFFFFFFFFFFFFFFFFFF AND DUP2 MSTORE PUSH1 0x20 ADD SWAP1 DUP2 MSTORE PUSH1 0x20 ADD PUSH0 KECCAK256 PUSH1 0x1 ADD DUP1 SLOAD PUSH2 0xCF7 SWAP1 PUSH2 0x3441 JUMP JUMPDEST DUP1 PUSH1 0x1F ADD PUSH1 0x20 DUP1 SWAP2 DIV MUL PUSH1 0x20 ADD PUSH1 0x40 MLOAD SWAP1 DUP2 ADD PUSH1 0x40 MSTORE DUP1 SWAP3 SWAP2 SWAP1 DUP2 DUP2 MSTORE PUSH1 0x20 ADD DUP3 DUP1 SLOAD PUSH2 0xD23 SWAP1 PUSH2 0x3441 JUMP JUMPDEST DUP1 ISZERO PUSH2 0xD6E JUMPI DUP1 PUSH1 0x1F LT PUSH2 0xD45 JUMPI PUSH2 0x100 DUP1 DUP4 SLOAD DIV MUL DUP4 MSTORE SWAP2 PUSH1 0x20 ADD SWAP2 PUSH2 0xD6E JUMP JUMPDEST DUP3 ADD SWAP2 SWAP1 PUSH0 MSTORE PUSH1 0x20 PUSH0 KECCAK256 SWAP1 JUMPDEST DUP2 SLOAD DUP2 MSTORE SWAP1 PUSH1 0x1 ADD SWAP1 PUSH1 0x20 ADD DUP1 DUP4 GT PUSH2 0xD51 JUMPI DUP3 SWAP1 SUB PUSH1 0x1F AND DUP3 ADD SWAP2 JUMPDEST POP POP POP POP POP PUSH2 0xD88 JUMP JUMPDEST PUSH1 0x40 MLOAD DUP1 PUSH1 0x20 ADD PUSH1 0x40 MSTORE DUP1 PUSH0 DUP2 MSTORE POP JUMPDEST DUP4 DUP4 DUP2 MLOAD DUP2 LT PUSH2 0xD9B JUMPI PUSH2 0xD9A PUSH2 0x37DF JUMP JUMPDEST JUMPDEST PUSH1 0x20 MUL PUSH1 0x20 ADD ADD DUP2 SWAP1 MSTORE POP JUMPDEST POP DUP1 DUP1 PUSH1 0x1 ADD SWAP2 POP POP PUSH2 0x9B3 JUMP JUMPDEST POP DUP4 DUP4 DUP4 DUP4 SWAP8 POP SWAP8 POP SWAP8 POP SWAP8 POP POP POP POP POP SWAP1 SWAP2 SWAP3 SWAP4 JUMP JUMPDEST PUSH0 DUP1 CALLER PUSH20 0xFFFFFFFFFFFFFFFFFFFFFFFFFFFFFFFFFFFFFFFF AND PUSH20 0xFFFFFFFFFFFFFFFFFFFFFFFFFFFFFFFFFFFFFFFF AND DUP2 MSTORE PUSH1 0x20 ADD SWAP1 DUP2 MSTORE PUSH1 0x20 ADD PUSH0 KECCAK256 PUSH0 ADD PUSH0 SWAP1 SLOAD SWAP1 PUSH2 0x100 EXP SWAP1 DIV PUSH1 0xFF AND ISZERO DUP1 ISZERO PUSH2 0xE6D JUMPI POP PUSH0 DUP1 CALLER PUSH20 0xFFFFFFFFFFFFFFFFFFFFFFFFFFFFFFFFFFFFFFFF AND PUSH20 0xFFFFFFFFFFFFFFFFFFFFFFFFFFFFFFFFFFFFFFFF AND DUP2 MSTORE PUSH1 0x20 ADD SWAP1 DUP2 MSTORE PUSH1 0x20 ADD PUSH0 KECCAK256 PUSH0 ADD PUSH1 0x1 SWAP1 SLOAD SWAP1 PUSH2 0x100 EXP SWAP1 DIV PUSH1 0xFF AND ISZERO JUMPDEST PUSH2 0xEAC JUMPI PUSH1 0x40 MLOAD PUSH32 0x8C379A000000000000000000000000000000000000000000000000000000000 DUP2 MSTORE PUSH1 0x4 ADD PUSH2 0xEA3 SWAP1 PUSH2 0x3856 JUMP JUMPDEST PUSH1 0x40 MLOAD DUP1 SWAP2 SUB SWAP1 REVERT JUMPDEST PUSH1 0x40 MLOAD DUP1 PUSH1 0x60 ADD PUSH1 0x40 MSTORE DUP1 DUP4 ISZERO ISZERO DUP2 MSTORE PUSH1 0x20 ADD DUP3 ISZERO ISZERO DUP2 MSTORE PUSH1 0x20 ADD DUP5 DUP2 MSTORE POP PUSH0 DUP1 CALLER PUSH20 0xFFFFFFFFFFFFFFFFFFFFFFFFFFFFFFFFFFFFFFFF AND PUSH20 0xFFFFFFFFFFFFFFFFFFFFFFFFFFFFFFFFFFFFFFFF AND DUP2 MSTORE PUSH1 0x20 ADD SWAP1 DUP2 MSTORE PUSH1 0x20 ADD PUSH0 KECCAK256 PUSH0 DUP3 ADD MLOAD DUP2 PUSH0 ADD PUSH0 PUSH2 0x100 EXP DUP2 SLOAD DUP2 PUSH1 0xFF MUL NOT AND SWAP1 DUP4 ISZERO ISZERO MUL OR SWAP1 SSTORE POP PUSH1 0x20 DUP3 ADD MLOAD DUP2 PUSH0 ADD PUSH1 0x1 PUSH2 0x100 EXP DUP2 SLOAD DUP2 PUSH1 0xFF MUL NOT AND SWAP1 DUP4 ISZERO ISZERO MUL OR SWAP1 SSTORE POP PUSH1 0x40 DUP3 ADD MLOAD DUP2 PUSH1 0x1 ADD SWAP1 DUP2 PUSH2 0xF58 SWAP2 SWAP1 PUSH2 0x360E JUMP JUMPDEST POP SWAP1 POP POP PUSH1 0x2 CALLER SWAP1 DUP1 PUSH1 0x1 DUP2 SLOAD ADD DUP1 DUP3 SSTORE DUP1 SWAP2 POP POP PUSH1 0x1 SWAP1 SUB SWAP1 PUSH0 MSTORE PUSH1 0x20 PUSH0 KECCAK256 ADD PUSH0 SWAP1 SWAP2 SWAP1 SWAP2 SWAP1 SWAP2 PUSH2 0x100 EXP DUP2 SLOAD DUP2 PUSH20 0xFFFFFFFFFFFFFFFFFFFFFFFFFFFFFFFFFFFFFFFF MUL NOT AND SWAP1 DUP4 PUSH20 0xFFFFFFFFFFFFFFFFFFFFFFFFFFFFFFFFFFFFFFFF AND MUL OR SWAP1 SSTORE POP POP POP POP JUMP JUMPDEST PUSH0 DUP1 CALLER PUSH20 0xFFFFFFFFFFFFFFFFFFFFFFFFFFFFFFFFFFFFFFFF AND PUSH20 0xFFFFFFFFFFFFFFFFFFFFFFFFFFFFFFFFFFFFFFFF AND DUP2 MSTORE PUSH1 0x20 ADD SWAP1 DUP2 MSTORE PUSH1 0x20 ADD PUSH0 KECCAK256 PUSH0 ADD PUSH0 SWAP1 SLOAD SWAP1 PUSH2 0x100 EXP SWAP1 DIV PUSH1 0xFF AND PUSH2 0x104B JUMPI PUSH1 0x40 MLOAD PUSH32 0x8C379A000000000000000000000000000000000000000000000000000000000 DUP2 MSTORE PUSH1 0x4 ADD PUSH2 0x1042 SWAP1 PUSH2 0x38E4 JUMP JUMPDEST PUSH1 0x40 MLOAD DUP1 SWAP2 SUB SWAP1 REVERT JUMPDEST PUSH0 DUP1 JUMPDEST PUSH1 0x6 DUP1 SLOAD SWAP1 POP DUP2 LT ISZERO PUSH2 0x1114 JUMPI DUP3 PUSH1 0x6 DUP3 DUP2 SLOAD DUP2 LT PUSH2 0x1070 JUMPI PUSH2 0x106F PUSH2 0x37DF JUMP JUMPDEST JUMPDEST SWAP1 PUSH0 MSTORE PUSH1 0x20 PUSH0 KECCAK256 SWAP1 PUSH1 0x4 MUL ADD PUSH0 ADD SLOAD EQ DUP1 ISZERO PUSH2 0x10F9 JUMPI POP CALLER PUSH20 0xFFFFFFFFFFFFFFFFFFFFFFFFFFFFFFFFFFFFFFFF AND PUSH1 0x6 DUP3 DUP2 SLOAD DUP2 LT PUSH2 0x10B2 JUMPI PUSH2 0x10B1 PUSH2 0x37DF JUMP JUMPDEST JUMPDEST SWAP1 PUSH0 MSTORE PUSH1 0x20 PUSH0 KECCAK256 SWAP1 PUSH1 0x4 MUL ADD PUSH1 0x1 ADD PUSH0 SWAP1 SLOAD SWAP1 PUSH2 0x100 EXP SWAP1 DIV PUSH20 0xFFFFFFFFFFFFFFFFFFFFFFFFFFFFFFFFFFFFFFFF AND PUSH20 0xFFFFFFFFFFFFFFFFFFFFFFFFFFFFFFFFFFFFFFFF AND EQ JUMPDEST ISZERO PUSH2 0x1107 JUMPI PUSH1 0x1 SWAP2 POP PUSH2 0x1114 JUMP JUMPDEST DUP1 DUP1 PUSH1 0x1 ADD SWAP2 POP POP PUSH2 0x104E JUMP JUMPDEST POP DUP1 PUSH2 0x1155 JUMPI PUSH1 0x40 MLOAD PUSH32 0x8C379A000000000000000000000000000000000000000000000000000000000 DUP2 MSTORE PUSH1 0x4 ADD PUSH2 0x114C SWAP1 PUSH2 0x3972 JUMP JUMPDEST PUSH1 0x40 MLOAD DUP1 SWAP2 SUB SWAP1 REVERT JUMPDEST PUSH1 0x8 PUSH1 0x40 MLOAD DUP1 PUSH1 0x80 ADD PUSH1 0x40 MSTORE DUP1 CALLER PUSH20 0xFFFFFFFFFFFFFFFFFFFFFFFFFFFFFFFFFFFFFFFF AND DUP2 MSTORE PUSH1 0x20 ADD DUP5 DUP2 MSTORE PUSH1 0x20 ADD TIMESTAMP DUP2 MSTORE PUSH1 0x20 ADD PUSH0 ISZERO ISZERO DUP2 MSTORE POP SWAP1 DUP1 PUSH1 0x1 DUP2 SLOAD ADD DUP1 DUP3 SSTORE DUP1 SWAP2 POP POP PUSH1 0x1 SWAP1 SUB SWAP1 PUSH0 MSTORE PUSH1 0x20 PUSH0 KECCAK256 SWAP1 PUSH1 0x4 MUL ADD PUSH0 SWAP1 SWAP2 SWAP1 SWAP2 SWAP1 SWAP2 POP PUSH0 DUP3 ADD MLOAD DUP2 PUSH0 ADD PUSH0 PUSH2 0x100 EXP DUP2 SLOAD DUP2 PUSH20 0xFFFFFFFFFFFFFFFFFFFFFFFFFFFFFFFFFFFFFFFF MUL NOT AND SWAP1 DUP4 PUSH20 0xFFFFFFFFFFFFFFFFFFFFFFFFFFFFFFFFFFFFFFFF AND MUL OR SWAP1 SSTORE POP PUSH1 0x20 DUP3 ADD MLOAD DUP2 PUSH1 0x1 ADD SSTORE PUSH1 0x40 DUP3 ADD MLOAD DUP2 PUSH1 0x2 ADD SSTORE PUSH1 0x60 DUP3 ADD MLOAD DUP2 PUSH1 0x3 ADD PUSH0 PUSH2 0x100 EXP DUP2 SLOAD DUP2 PUSH1 0xFF MUL NOT AND SWAP1 DUP4 ISZERO ISZERO MUL OR SWAP1 SSTORE POP POP POP POP POP JUMP JUMPDEST PUSH1 0x60 DUP1 PUSH1 0x60 PUSH0 PUSH1 0x7 DUP1 SLOAD SWAP1 POP PUSH8 0xFFFFFFFFFFFFFFFF DUP2 GT ISZERO PUSH2 0x1258 JUMPI PUSH2 0x1257 PUSH2 0x28BE JUMP JUMPDEST JUMPDEST PUSH1 0x40 MLOAD SWAP1 DUP1 DUP3 MSTORE DUP1 PUSH1 0x20 MUL PUSH1 0x20 ADD DUP3 ADD PUSH1 0x40 MSTORE DUP1 ISZERO PUSH2 0x1286 JUMPI DUP2 PUSH1 0x20 ADD PUSH1 0x20 DUP3 MUL DUP1 CALLDATASIZE DUP4 CALLDATACOPY DUP1 DUP3 ADD SWAP2 POP POP SWAP1 POP JUMPDEST POP SWAP1 POP PUSH0 PUSH1 0x7 DUP1 SLOAD SWAP1 POP PUSH8 0xFFFFFFFFFFFFFFFF DUP2 GT ISZERO PUSH2 0x12A9 JUMPI PUSH2 0x12A8 PUSH2 0x28BE JUMP JUMPDEST JUMPDEST PUSH1 0x40 MLOAD SWAP1 DUP1 DUP3 MSTORE DUP1 PUSH1 0x20 MUL PUSH1 0x20 ADD DUP3 ADD PUSH1 0x40 MSTORE DUP1 ISZERO PUSH2 0x12DC JUMPI DUP2 PUSH1 0x20 ADD JUMPDEST PUSH1 0x60 DUP2 MSTORE PUSH1 0x20 ADD SWAP1 PUSH1 0x1 SWAP1 SUB SWAP1 DUP2 PUSH2 0x12C7 JUMPI SWAP1 POP JUMPDEST POP SWAP1 POP PUSH0 PUSH1 0x7 DUP1 SLOAD SWAP1 POP PUSH8 0xFFFFFFFFFFFFFFFF DUP2 GT ISZERO PUSH2 0x12FF JUMPI PUSH2 0x12FE PUSH2 0x28BE JUMP JUMPDEST JUMPDEST PUSH1 0x40 MLOAD SWAP1 DUP1 DUP3 MSTORE DUP1 PUSH1 0x20 MUL PUSH1 0x20 ADD DUP3 ADD PUSH1 0x40 MSTORE DUP1 ISZERO PUSH2 0x1332 JUMPI DUP2 PUSH1 0x20 ADD JUMPDEST PUSH1 0x60 DUP2 MSTORE PUSH1 0x20 ADD SWAP1 PUSH1 0x1 SWAP1 SUB SWAP1 DUP2 PUSH2 0x131D JUMPI SWAP1 POP JUMPDEST POP SWAP1 POP PUSH0 JUMPDEST PUSH1 0x7 DUP1 SLOAD SWAP1 POP DUP2 LT ISZERO PUSH2 0x15D3 JUMPI PUSH0 PUSH1 0x7 DUP3 DUP2 SLOAD DUP2 LT PUSH2 0x1359 JUMPI PUSH2 0x1358 PUSH2 0x37DF JUMP JUMPDEST JUMPDEST SWAP1 PUSH0 MSTORE PUSH1 0x20 PUSH0 KECCAK256 SWAP1 PUSH1 0x4 MUL ADD PUSH1 0x40 MLOAD DUP1 PUSH1 0x80 ADD PUSH1 0x40 MSTORE SWAP1 DUP2 PUSH0 DUP3 ADD PUSH0 SWAP1 SLOAD SWAP1 PUSH2 0x100 EXP SWAP1 DIV PUSH20 0xFFFFFFFFFFFFFFFFFFFFFFFFFFFFFFFFFFFFFFFF AND PUSH20 0xFFFFFFFFFFFFFFFFFFFFFFFFFFFFFFFFFFFFFFFF AND PUSH20 0xFFFFFFFFFFFFFFFFFFFFFFFFFFFFFFFFFFFFFFFF AND DUP2 MSTORE PUSH1 0x20 ADD PUSH1 0x1 DUP3 ADD SLOAD DUP2 MSTORE PUSH1 0x20 ADD PUSH1 0x2 DUP3 ADD DUP1 SLOAD PUSH2 0x13DE SWAP1 PUSH2 0x3441 JUMP JUMPDEST DUP1 PUSH1 0x1F ADD PUSH1 0x20 DUP1 SWAP2 DIV MUL PUSH1 0x20 ADD PUSH1 0x40 MLOAD SWAP1 DUP2 ADD PUSH1 0x40 MSTORE DUP1 SWAP3 SWAP2 SWAP1 DUP2 DUP2 MSTORE PUSH1 0x20 ADD DUP3 DUP1 SLOAD PUSH2 0x140A SWAP1 PUSH2 0x3441 JUMP JUMPDEST DUP1 ISZERO PUSH2 0x1455 JUMPI DUP1 PUSH1 0x1F LT PUSH2 0x142C JUMPI PUSH2 0x100 DUP1 DUP4 SLOAD DIV MUL DUP4 MSTORE SWAP2 PUSH1 0x20 ADD SWAP2 PUSH2 0x1455 JUMP JUMPDEST DUP3 ADD SWAP2 SWAP1 PUSH0 MSTORE PUSH1 0x20 PUSH0 KECCAK256 SWAP1 JUMPDEST DUP2 SLOAD DUP2 MSTORE SWAP1 PUSH1 0x1 ADD SWAP1 PUSH1 0x20 ADD DUP1 DUP4 GT PUSH2 0x1438 JUMPI DUP3 SWAP1 SUB PUSH1 0x1F AND DUP3 ADD SWAP2 JUMPDEST POP POP POP POP POP DUP2 MSTORE PUSH1 0x20 ADD PUSH1 0x3 DUP3 ADD DUP1 SLOAD PUSH2 0x146E SWAP1 PUSH2 0x3441 JUMP JUMPDEST DUP1 PUSH1 0x1F ADD PUSH1 0x20 DUP1 SWAP2 DIV MUL PUSH1 0x20 ADD PUSH1 0x40 MLOAD SWAP1 DUP2 ADD PUSH1 0x40 MSTORE DUP1 SWAP3 SWAP2 SWAP1 DUP2 DUP2 MSTORE PUSH1 0x20 ADD DUP3 DUP1 SLOAD PUSH2 0x149A SWAP1 PUSH2 0x3441 JUMP JUMPDEST DUP1 ISZERO PUSH2 0x14E5 JUMPI DUP1 PUSH1 0x1F LT PUSH2 0x14BC JUMPI PUSH2 0x100 DUP1 DUP4 SLOAD DIV MUL DUP4 MSTORE SWAP2 PUSH1 0x20 ADD SWAP2 PUSH2 0x14E5 JUMP JUMPDEST DUP3 ADD SWAP2 SWAP1 PUSH0 MSTORE PUSH1 0x20 PUSH0 KECCAK256 SWAP1 JUMPDEST DUP2 SLOAD DUP2 MSTORE SWAP1 PUSH1 0x1 ADD SWAP1 PUSH1 0x20 ADD DUP1 DUP4 GT PUSH2 0x14C8 JUMPI DUP3 SWAP1 SUB PUSH1 0x1F AND DUP3 ADD SWAP2 JUMPDEST POP POP POP POP POP DUP2 MSTORE POP POP SWAP1 POP CALLER PUSH20 0xFFFFFFFFFFFFFFFFFFFFFFFFFFFFFFFFFFFFFFFF AND PUSH1 0x1 PUSH0 DUP4 PUSH1 0x20 ADD MLOAD DUP2 MSTORE PUSH1 0x20 ADD SWAP1 DUP2 MSTORE PUSH1 0x20 ADD PUSH0 KECCAK256 PUSH1 0x3 ADD PUSH0 SWAP1 SLOAD SWAP1 PUSH2 0x100 EXP SWAP1 DIV PUSH20 0xFFFFFFFFFFFFFFFFFFFFFFFFFFFFFFFFFFFFFFFF AND PUSH20 0xFFFFFFFFFFFFFFFFFFFFFFFFFFFFFFFFFFFFFFFF AND SUB PUSH2 0x15C5 JUMPI DUP1 PUSH1 0x20 ADD MLOAD DUP6 DUP4 DUP2 MLOAD DUP2 LT PUSH2 0x1572 JUMPI PUSH2 0x1571 PUSH2 0x37DF JUMP JUMPDEST JUMPDEST PUSH1 0x20 MUL PUSH1 0x20 ADD ADD DUP2 DUP2 MSTORE POP POP DUP1 PUSH1 0x40 ADD MLOAD DUP5 DUP4 DUP2 MLOAD DUP2 LT PUSH2 0x1596 JUMPI PUSH2 0x1595 PUSH2 0x37DF JUMP JUMPDEST JUMPDEST PUSH1 0x20 MUL PUSH1 0x20 ADD ADD DUP2 SWAP1 MSTORE POP DUP1 PUSH1 0x60 ADD MLOAD DUP4 DUP4 DUP2 MLOAD DUP2 LT PUSH2 0x15B9 JUMPI PUSH2 0x15B8 PUSH2 0x37DF JUMP JUMPDEST JUMPDEST PUSH1 0x20 MUL PUSH1 0x20 ADD ADD DUP2 SWAP1 MSTORE POP JUMPDEST POP DUP1 DUP1 PUSH1 0x1 ADD SWAP2 POP POP PUSH2 0x1337 JUMP JUMPDEST POP DUP3 DUP3 DUP3 SWAP6 POP SWAP6 POP SWAP6 POP POP POP POP SWAP1 SWAP2 SWAP3 JUMP JUMPDEST PUSH0 DUP1 DUP5 PUSH20 0xFFFFFFFFFFFFFFFFFFFFFFFFFFFFFFFFFFFFFFFF AND PUSH20 0xFFFFFFFFFFFFFFFFFFFFFFFFFFFFFFFFFFFFFFFF AND DUP2 MSTORE PUSH1 0x20 ADD SWAP1 DUP2 MSTORE PUSH1 0x20 ADD PUSH0 KECCAK256 PUSH0 ADD PUSH0 SWAP1 SLOAD SWAP1 PUSH2 0x100 EXP SWAP1 DIV PUSH1 0xFF AND DUP1 ISZERO PUSH2 0x169A JUMPI POP CALLER PUSH20 0xFFFFFFFFFFFFFFFFFFFFFFFFFFFFFFFFFFFFFFFF AND PUSH1 0x1 PUSH0 DUP7 DUP2 MSTORE PUSH1 0x20 ADD SWAP1 DUP2 MSTORE PUSH1 0x20 ADD PUSH0 KECCAK256 PUSH1 0x3 ADD PUSH0 SWAP1 SLOAD SWAP1 PUSH2 0x100 EXP SWAP1 DIV PUSH20 0xFFFFFFFFFFFFFFFFFFFFFFFFFFFFFFFFFFFFFFFF AND PUSH20 0xFFFFFFFFFFFFFFFFFFFFFFFFFFFFFFFFFFFFFFFF AND EQ JUMPDEST PUSH2 0x16D9 JUMPI PUSH1 0x40 MLOAD PUSH32 0x8C379A000000000000000000000000000000000000000000000000000000000 DUP2 MSTORE PUSH1 0x4 ADD PUSH2 0x16D0 SWAP1 PUSH2 0x39DA JUMP JUMPDEST PUSH1 0x40 MLOAD DUP1 SWAP2 SUB SWAP1 REVERT JUMPDEST PUSH1 0x1 PUSH0 DUP6 DUP2 MSTORE PUSH1 0x20 ADD SWAP1 DUP2 MSTORE PUSH1 0x20 ADD PUSH0 KECCAK256 PUSH1 0x3 ADD PUSH1 0x14 SWAP1 SLOAD SWAP1 PUSH2 0x100 EXP SWAP1 DIV PUSH1 0xFF AND ISZERO PUSH2 0x173B JUMPI PUSH1 0x40 MLOAD PUSH32 0x8C379A000000000000000000000000000000000000000000000000000000000 DUP2 MSTORE PUSH1 0x4 ADD PUSH2 0x1732 SWAP1 PUSH2 0x3A42 JUMP JUMPDEST PUSH1 0x40 MLOAD DUP1 SWAP2 SUB SWAP1 REVERT JUMPDEST PUSH1 0x6 PUSH1 0x40 MLOAD DUP1 PUSH1 0x80 ADD PUSH1 0x40 MSTORE DUP1 DUP7 DUP2 MSTORE PUSH1 0x20 ADD DUP6 PUSH20 0xFFFFFFFFFFFFFFFFFFFFFFFFFFFFFFFFFFFFFFFF AND DUP2 MSTORE PUSH1 0x20 ADD DUP5 DUP2 MSTORE PUSH1 0x20 ADD DUP4 DUP2 MSTORE POP SWAP1 DUP1 PUSH1 0x1 DUP2 SLOAD ADD DUP1 DUP3 SSTORE DUP1 SWAP2 POP POP PUSH1 0x1 SWAP1 SUB SWAP1 PUSH0 MSTORE PUSH1 0x20 PUSH0 KECCAK256 SWAP1 PUSH1 0x4 MUL ADD PUSH0 SWAP1 SWAP2 SWAP1 SWAP2 SWAP1 SWAP2 POP PUSH0 DUP3 ADD MLOAD DUP2 PUSH0 ADD SSTORE PUSH1 0x20 DUP3 ADD MLOAD DUP2 PUSH1 0x1 ADD PUSH0 PUSH2 0x100 EXP DUP2 SLOAD DUP2 PUSH20 0xFFFFFFFFFFFFFFFFFFFFFFFFFFFFFFFFFFFFFFFF MUL NOT AND SWAP1 DUP4 PUSH20 0xFFFFFFFFFFFFFFFFFFFFFFFFFFFFFFFFFFFFFFFF AND MUL OR SWAP1 SSTORE POP PUSH1 0x40 DUP3 ADD MLOAD DUP2 PUSH1 0x2 ADD SSTORE PUSH1 0x60 DUP3 ADD MLOAD DUP2 PUSH1 0x3 ADD SSTORE POP POP PUSH1 0x1 DUP1 PUSH0 DUP7 DUP2 MSTORE PUSH1 0x20 ADD SWAP1 DUP2 MSTORE PUSH1 0x20 ADD PUSH0 KECCAK256 PUSH1 0x3 ADD PUSH1 0x14 PUSH2 0x100 EXP DUP2 SLOAD DUP2 PUSH1 0xFF MUL NOT AND SWAP1 DUP4 ISZERO ISZERO MUL OR SWAP1 SSTORE POP POP POP POP POP JUMP JUMPDEST PUSH1 0x7 DUP2 DUP2 SLOAD DUP2 LT PUSH2 0x183F JUMPI PUSH0 DUP1 REVERT JUMPDEST SWAP1 PUSH0 MSTORE PUSH1 0x20 PUSH0 KECCAK256 SWAP1 PUSH1 0x4 MUL ADD PUSH0 SWAP2 POP SWAP1 POP DUP1 PUSH0 ADD PUSH0 SWAP1 SLOAD SWAP1 PUSH2 0x100 EXP SWAP1 DIV PUSH20 0xFFFFFFFFFFFFFFFFFFFFFFFFFFFFFFFFFFFFFFFF AND SWAP1 DUP1 PUSH1 0x1 ADD SLOAD SWAP1 DUP1 PUSH1 0x2 ADD DUP1 SLOAD PUSH2 0x1889 SWAP1 PUSH2 0x3441 JUMP JUMPDEST DUP1 PUSH1 0x1F ADD PUSH1 0x20 DUP1 SWAP2 DIV MUL PUSH1 0x20 ADD PUSH1 0x40 MLOAD SWAP1 DUP2 ADD PUSH1 0x40 MSTORE DUP1 SWAP3 SWAP2 SWAP1 DUP2 DUP2 MSTORE PUSH1 0x20 ADD DUP3 DUP1 SLOAD PUSH2 0x18B5 SWAP1 PUSH2 0x3441 JUMP JUMPDEST DUP1 ISZERO PUSH2 0x1900 JUMPI DUP1 PUSH1 0x1F LT PUSH2 0x18D7 JUMPI PUSH2 0x100 DUP1 DUP4 SLOAD DIV MUL DUP4 MSTORE SWAP2 PUSH1 0x20 ADD SWAP2 PUSH2 0x1900 JUMP JUMPDEST DUP3 ADD SWAP2 SWAP1 PUSH0 MSTORE PUSH1 0x20 PUSH0 KECCAK256 SWAP1 JUMPDEST DUP2 SLOAD DUP2 MSTORE SWAP1 PUSH1 0x1 ADD SWAP1 PUSH1 0x20 ADD DUP1 DUP4 GT PUSH2 0x18E3 JUMPI DUP3 SWAP1 SUB PUSH1 0x1F AND DUP3 ADD SWAP2 JUMPDEST POP POP POP POP POP SWAP1 DUP1 PUSH1 0x3 ADD DUP1 SLOAD PUSH2 0x1915 SWAP1 PUSH2 0x3441 JUMP JUMPDEST DUP1 PUSH1 0x1F ADD PUSH1 0x20 DUP1 SWAP2 DIV MUL PUSH1 0x20 ADD PUSH1 0x40 MLOAD SWAP1 DUP2 ADD PUSH1 0x40 MSTORE DUP1 SWAP3 SWAP2 SWAP1 DUP2 DUP2 MSTORE PUSH1 0x20 ADD DUP3 DUP1 SLOAD PUSH2 0x1941 SWAP1 PUSH2 0x3441 JUMP JUMPDEST DUP1 ISZERO PUSH2 0x198C JUMPI DUP1 PUSH1 0x1F LT PUSH2 0x1963 JUMPI PUSH2 0x100 DUP1 DUP4 SLOAD DIV MUL DUP4 MSTORE SWAP2 PUSH1 0x20 ADD SWAP2 PUSH2 0x198C JUMP JUMPDEST DUP3 ADD SWAP2 SWAP1 PUSH0 MSTORE PUSH1 0x20 PUSH0 KECCAK256 SWAP1 JUMPDEST DUP2 SLOAD DUP2 MSTORE SWAP1 PUSH1 0x1 ADD SWAP1 PUSH1 0x20 ADD DUP1 DUP4 GT PUSH2 0x196F JUMPI DUP3 SWAP1 SUB PUSH1 0x1F AND DUP3 ADD SWAP2 JUMPDEST POP POP POP POP POP SWAP1 POP DUP5 JUMP JUMPDEST PUSH1 0x8 DUP2 DUP2 SLOAD DUP2 LT PUSH2 0x19A5 JUMPI PUSH0 DUP1 REVERT JUMPDEST SWAP1 PUSH0 MSTORE PUSH1 0x20 PUSH0 KECCAK256 SWAP1 PUSH1 0x4 MUL ADD PUSH0 SWAP2 POP SWAP1 POP DUP1 PUSH0 ADD PUSH0 SWAP1 SLOAD SWAP1 PUSH2 0x100 EXP SWAP1 DIV PUSH20 0xFFFFFFFFFFFFFFFFFFFFFFFFFFFFFFFFFFFFFFFF AND SWAP1 DUP1 PUSH1 0x1 ADD SLOAD SWAP1 DUP1 PUSH1 0x2 ADD SLOAD SWAP1 DUP1 PUSH1 0x3 ADD PUSH0 SWAP1 SLOAD SWAP1 PUSH2 0x100 EXP SWAP1 DIV PUSH1 0xFF AND SWAP1 POP DUP5 JUMP JUMPDEST PUSH1 0x1 PUSH1 0x20 MSTORE DUP1 PUSH0 MSTORE PUSH1 0x40 PUSH0 KECCAK256 PUSH0 SWAP2 POP SWAP1 POP DUP1 PUSH0 ADD SLOAD SWAP1 DUP1 PUSH1 0x1 ADD DUP1 SLOAD PUSH2 0x1A21 SWAP1 PUSH2 0x3441 JUMP JUMPDEST DUP1 PUSH1 0x1F ADD PUSH1 0x20 DUP1 SWAP2 DIV MUL PUSH1 0x20 ADD PUSH1 0x40 MLOAD SWAP1 DUP2 ADD PUSH1 0x40 MSTORE DUP1 SWAP3 SWAP2 SWAP1 DUP2 DUP2 MSTORE PUSH1 0x20 ADD DUP3 DUP1 SLOAD PUSH2 0x1A4D SWAP1 PUSH2 0x3441 JUMP JUMPDEST DUP1 ISZERO PUSH2 0x1A98 JUMPI DUP1 PUSH1 0x1F LT PUSH2 0x1A6F JUMPI PUSH2 0x100 DUP1 DUP4 SLOAD DIV MUL DUP4 MSTORE SWAP2 PUSH1 0x20 ADD SWAP2 PUSH2 0x1A98 JUMP JUMPDEST DUP3 ADD SWAP2 SWAP1 PUSH0 MSTORE PUSH1 0x20 PUSH0 KECCAK256 SWAP1 JUMPDEST DUP2 SLOAD DUP2 MSTORE SWAP1 PUSH1 0x1 ADD SWAP1 PUSH1 0x20 ADD DUP1 DUP4 GT PUSH2 0x1A7B JUMPI DUP3 SWAP1 SUB PUSH1 0x1F AND DUP3 ADD SWAP2 JUMPDEST POP POP POP POP POP SWAP1 DUP1 PUSH1 0x2 ADD DUP1 SLOAD PUSH2 0x1AAD SWAP1 PUSH2 0x3441 JUMP JUMPDEST DUP1 PUSH1 0x1F ADD PUSH1 0x20 DUP1 SWAP2 DIV MUL PUSH1 0x20 ADD PUSH1 0x40 MLOAD SWAP1 DUP2 ADD PUSH1 0x40 MSTORE DUP1 SWAP3 SWAP2 SWAP1 DUP2 DUP2 MSTORE PUSH1 0x20 ADD DUP3 DUP1 SLOAD PUSH2 0x1AD9 SWAP1 PUSH2 0x3441 JUMP JUMPDEST DUP1 ISZERO PUSH2 0x1B24 JUMPI DUP1 PUSH1 0x1F LT PUSH2 0x1AFB JUMPI PUSH2 0x100 DUP1 DUP4 SLOAD DIV MUL DUP4 MSTORE SWAP2 PUSH1 0x20 ADD SWAP2 PUSH2 0x1B24 JUMP JUMPDEST DUP3 ADD SWAP2 SWAP1 PUSH0 MSTORE PUSH1 0x20 PUSH0 KECCAK256 SWAP1 JUMPDEST DUP2 SLOAD DUP2 MSTORE SWAP1 PUSH1 0x1 ADD SWAP1 PUSH1 0x20 ADD DUP1 DUP4 GT PUSH2 0x1B07 JUMPI DUP3 SWAP1 SUB PUSH1 0x1F AND DUP3 ADD SWAP2 JUMPDEST POP POP POP POP POP SWAP1 DUP1 PUSH1 0x3 ADD PUSH0 SWAP1 SLOAD SWAP1 PUSH2 0x100 EXP SWAP1 DIV PUSH20 0xFFFFFFFFFFFFFFFFFFFFFFFFFFFFFFFFFFFFFFFF AND SWAP1 DUP1 PUSH1 0x3 ADD PUSH1 0x14 SWAP1 SLOAD SWAP1 PUSH2 0x100 EXP SWAP1 DIV PUSH1 0xFF AND SWAP1 DUP1 PUSH1 0x4 ADD PUSH0 SWAP1 SLOAD SWAP1 PUSH2 0x100 EXP SWAP1 DIV PUSH20 0xFFFFFFFFFFFFFFFFFFFFFFFFFFFFFFFFFFFFFFFF AND SWAP1 POP DUP7 JUMP JUMPDEST PUSH1 0x2 DUP2 DUP2 SLOAD DUP2 LT PUSH2 0x1B9A JUMPI PUSH0 DUP1 REVERT JUMPDEST SWAP1 PUSH0 MSTORE PUSH1 0x20 PUSH0 KECCAK256 ADD PUSH0 SWAP2 POP SLOAD SWAP1 PUSH2 0x100 EXP SWAP1 DIV PUSH20 0xFFFFFFFFFFFFFFFFFFFFFFFFFFFFFFFFFFFFFFFF AND DUP2 JUMP JUMPDEST PUSH1 0x6 DUP2 DUP2 SLOAD DUP2 LT PUSH2 0x1BD5 JUMPI PUSH0 DUP1 REVERT JUMPDEST SWAP1 PUSH0 MSTORE PUSH1 0x20 PUSH0 KECCAK256 SWAP1 PUSH1 0x4 MUL ADD PUSH0 SWAP2 POP SWAP1 POP DUP1 PUSH0 ADD SLOAD SWAP1 DUP1 PUSH1 0x1 ADD PUSH0 SWAP1 SLOAD SWAP1 PUSH2 0x100 EXP SWAP1 DIV PUSH20 0xFFFFFFFFFFFFFFFFFFFFFFFFFFFFFFFFFFFFFFFF AND SWAP1 DUP1 PUSH1 0x2 ADD SLOAD SWAP1 DUP1 PUSH1 0x3 ADD SLOAD SWAP1 POP DUP5 JUMP JUMPDEST PUSH0 PUSH1 0x20 MSTORE DUP1 PUSH0 MSTORE PUSH1 0x40 PUSH0 KECCAK256 PUSH0 SWAP2 POP SWAP1 POP DUP1 PUSH0 ADD PUSH0 SWAP1 SLOAD SWAP1 PUSH2 0x100 EXP SWAP1 DIV PUSH1 0xFF AND SWAP1 DUP1 PUSH0 ADD PUSH1 0x1 SWAP1 SLOAD SWAP1 PUSH2 0x100 EXP SWAP1 DIV PUSH1 0xFF AND SWAP1 DUP1 PUSH1 0x1 ADD DUP1 SLOAD PUSH2 0x1C62 SWAP1 PUSH2 0x3441 JUMP JUMPDEST DUP1 PUSH1 0x1F ADD PUSH1 0x20 DUP1 SWAP2 DIV MUL PUSH1 0x20 ADD PUSH1 0x40 MLOAD SWAP1 DUP2 ADD PUSH1 0x40 MSTORE DUP1 SWAP3 SWAP2 SWAP1 DUP2 DUP2 MSTORE PUSH1 0x20 ADD DUP3 DUP1 SLOAD PUSH2 0x1C8E SWAP1 PUSH2 0x3441 JUMP JUMPDEST DUP1 ISZERO PUSH2 0x1CD9 JUMPI DUP1 PUSH1 0x1F LT PUSH2 0x1CB0 JUMPI PUSH2 0x100 DUP1 DUP4 SLOAD DIV MUL DUP4 MSTORE SWAP2 PUSH1 0x20 ADD SWAP2 PUSH2 0x1CD9 JUMP JUMPDEST DUP3 ADD SWAP2 SWAP1 PUSH0 MSTORE PUSH1 0x20 PUSH0 KECCAK256 SWAP1 JUMPDEST DUP2 SLOAD DUP2 MSTORE SWAP1 PUSH1 0x1 ADD SWAP1 PUSH1 0x20 ADD DUP1 DUP4 GT PUSH2 0x1CBC JUMPI DUP3 SWAP1 SUB PUSH1 0x1F AND DUP3 ADD SWAP2 JUMPDEST POP POP POP POP POP SWAP1 POP DUP4 JUMP JUMPDEST PUSH0 DUP1 CALLER PUSH20 0xFFFFFFFFFFFFFFFFFFFFFFFFFFFFFFFFFFFFFFFF AND PUSH20 0xFFFFFFFFFFFFFFFFFFFFFFFFFFFFFFFFFFFFFFFF AND DUP2 MSTORE PUSH1 0x20 ADD SWAP1 DUP2 MSTORE PUSH1 0x20 ADD PUSH0 KECCAK256 PUSH0 ADD PUSH1 0x1 SWAP1 SLOAD SWAP1 PUSH2 0x100 EXP SWAP1 DIV PUSH1 0xFF AND PUSH2 0x1D6E JUMPI PUSH1 0x40 MLOAD PUSH32 0x8C379A000000000000000000000000000000000000000000000000000000000 DUP2 MSTORE PUSH1 0x4 ADD PUSH2 0x1D65 SWAP1 PUSH2 0x3AD0 JUMP JUMPDEST PUSH1 0x40 MLOAD DUP1 SWAP2 SUB SWAP1 REVERT JUMPDEST PUSH1 0x7 DUP1 SLOAD SWAP1 POP DUP3 LT PUSH2 0x1DB5 JUMPI PUSH1 0x40 MLOAD PUSH32 0x8C379A000000000000000000000000000000000000000000000000000000000 DUP2 MSTORE PUSH1 0x4 ADD PUSH2 0x1DAC SWAP1 PUSH2 0x3B38 JUMP JUMPDEST PUSH1 0x40 MLOAD DUP1 SWAP2 SUB SWAP1 REVERT JUMPDEST PUSH0 PUSH1 0x7 DUP4 DUP2 SLOAD DUP2 LT PUSH2 0x1DCA JUMPI PUSH2 0x1DC9 PUSH2 0x37DF JUMP JUMPDEST JUMPDEST SWAP1 PUSH0 MSTORE PUSH1 0x20 PUSH0 KECCAK256 SWAP1 PUSH1 0x4 MUL ADD SWAP1 POP CALLER PUSH20 0xFFFFFFFFFFFFFFFFFFFFFFFFFFFFFFFFFFFFFFFF AND PUSH1 0x1 PUSH0 DUP4 PUSH1 0x1 ADD SLOAD DUP2 MSTORE PUSH1 0x20 ADD SWAP1 DUP2 MSTORE PUSH1 0x20 ADD PUSH0 KECCAK256 PUSH1 0x3 ADD PUSH0 SWAP1 SLOAD SWAP1 PUSH2 0x100 EXP SWAP1 DIV PUSH20 0xFFFFFFFFFFFFFFFFFFFFFFFFFFFFFFFFFFFFFFFF AND PUSH20 0xFFFFFFFFFFFFFFFFFFFFFFFFFFFFFFFFFFFFFFFF AND EQ PUSH2 0x1E7D JUMPI PUSH1 0x40 MLOAD PUSH32 0x8C379A000000000000000000000000000000000000000000000000000000000 DUP2 MSTORE PUSH1 0x4 ADD PUSH2 0x1E74 SWAP1 PUSH2 0x3BC6 JUMP JUMPDEST PUSH1 0x40 MLOAD DUP1 SWAP2 SUB SWAP1 REVERT JUMPDEST DUP2 DUP2 PUSH1 0x3 ADD SWAP1 DUP2 PUSH2 0x1E8E SWAP2 SWAP1 PUSH2 0x360E JUMP JUMPDEST POP POP POP POP JUMP JUMPDEST PUSH0 DUP1 CALLER PUSH20 0xFFFFFFFFFFFFFFFFFFFFFFFFFFFFFFFFFFFFFFFF AND PUSH20 0xFFFFFFFFFFFFFFFFFFFFFFFFFFFFFFFFFFFFFFFF AND DUP2 MSTORE PUSH1 0x20 ADD SWAP1 DUP2 MSTORE PUSH1 0x20 ADD PUSH0 KECCAK256 PUSH0 ADD PUSH1 0x1 SWAP1 SLOAD SWAP1 PUSH2 0x100 EXP SWAP1 DIV PUSH1 0xFF AND PUSH2 0x1F1F JUMPI PUSH1 0x40 MLOAD PUSH32 0x8C379A000000000000000000000000000000000000000000000000000000000 DUP2 MSTORE PUSH1 0x4 ADD PUSH2 0x1F16 SWAP1 PUSH2 0x3C54 JUMP JUMPDEST PUSH1 0x40 MLOAD DUP1 SWAP2 SUB SWAP1 REVERT JUMPDEST PUSH1 0x8 DUP1 SLOAD SWAP1 POP DUP2 LT PUSH2 0x1F66 JUMPI PUSH1 0x40 MLOAD PUSH32 0x8C379A000000000000000000000000000000000000000000000000000000000 DUP2 MSTORE PUSH1 0x4 ADD PUSH2 0x1F5D SWAP1 PUSH2 0x3CBC JUMP JUMPDEST PUSH1 0x40 MLOAD DUP1 SWAP2 SUB SWAP1 REVERT JUMPDEST PUSH0 PUSH1 0x8 DUP3 DUP2 SLOAD DUP2 LT PUSH2 0x1F7B JUMPI PUSH2 0x1F7A PUSH2 0x37DF JUMP JUMPDEST JUMPDEST SWAP1 PUSH0 MSTORE PUSH1 0x20 PUSH0 KECCAK256 SWAP1 PUSH1 0x4 MUL ADD SWAP1 POP CALLER PUSH20 0xFFFFFFFFFFFFFFFFFFFFFFFFFFFFFFFFFFFFFFFF AND PUSH1 0x1 PUSH0 DUP4 PUSH1 0x1 ADD SLOAD DUP2 MSTORE PUSH1 0x20 ADD SWAP1 DUP2 MSTORE PUSH1 0x20 ADD PUSH0 KECCAK256 PUSH1 0x3 ADD PUSH0 SWAP1 SLOAD SWAP1 PUSH2 0x100 EXP SWAP1 DIV PUSH20 0xFFFFFFFFFFFFFFFFFFFFFFFFFFFFFFFFFFFFFFFF AND PUSH20 0xFFFFFFFFFFFFFFFFFFFFFFFFFFFFFFFFFFFFFFFF AND EQ PUSH2 0x202E JUMPI PUSH1 0x40 MLOAD PUSH32 0x8C379A000000000000000000000000000000000000000000000000000000000 DUP2 MSTORE PUSH1 0x4 ADD PUSH2 0x2025 SWAP1 PUSH2 0x3D4A JUMP JUMPDEST PUSH1 0x40 MLOAD DUP1 SWAP2 SUB SWAP1 REVERT JUMPDEST PUSH2 0x205E DUP2 PUSH1 0x1 ADD SLOAD DUP3 PUSH0 ADD PUSH0 SWAP1 SLOAD SWAP1 PUSH2 0x100 EXP SWAP1 DIV PUSH20 0xFFFFFFFFFFFFFFFFFFFFFFFFFFFFFFFFFFFFFFFF AND PUSH2 0x24D2 JUMP JUMPDEST PUSH1 0x1 DUP2 PUSH1 0x3 ADD PUSH0 PUSH2 0x100 EXP DUP2 SLOAD DUP2 PUSH1 0xFF MUL NOT AND SWAP1 DUP4 ISZERO ISZERO MUL OR SWAP1 SSTORE POP PUSH1 0x1 DUP1 PUSH0 DUP4 PUSH1 0x1 ADD SLOAD DUP2 MSTORE PUSH1 0x20 ADD SWAP1 DUP2 MSTORE PUSH1 0x20 ADD PUSH0 KECCAK256 PUSH1 0x3 ADD PUSH1 0x14 PUSH2 0x100 EXP DUP2 SLOAD DUP2 PUSH1 0xFF MUL NOT AND SWAP1 DUP4 ISZERO ISZERO MUL OR SWAP1 SSTORE POP POP POP JUMP JUMPDEST PUSH1 0x60 DUP1 PUSH1 0x60 DUP1 PUSH0 PUSH1 0x1 PUSH8 0xFFFFFFFFFFFFFFFF DUP2 GT ISZERO PUSH2 0x20D0 JUMPI PUSH2 0x20CF PUSH2 0x28BE JUMP JUMPDEST JUMPDEST PUSH1 0x40 MLOAD SWAP1 DUP1 DUP3 MSTORE DUP1 PUSH1 0x20 MUL PUSH1 0x20 ADD DUP3 ADD PUSH1 0x40 MSTORE DUP1 ISZERO PUSH2 0x20FE JUMPI DUP2 PUSH1 0x20 ADD PUSH1 0x20 DUP3 MUL DUP1 CALLDATASIZE DUP4 CALLDATACOPY DUP1 DUP3 ADD SWAP2 POP POP SWAP1 POP JUMPDEST POP SWAP1 POP PUSH0 PUSH1 0x1 PUSH8 0xFFFFFFFFFFFFFFFF DUP2 GT ISZERO PUSH2 0x211D JUMPI PUSH2 0x211C PUSH2 0x28BE JUMP JUMPDEST JUMPDEST PUSH1 0x40 MLOAD SWAP1 DUP1 DUP3 MSTORE DUP1 PUSH1 0x20 MUL PUSH1 0x20 ADD DUP3 ADD PUSH1 0x40 MSTORE DUP1 ISZERO PUSH2 0x2150 JUMPI DUP2 PUSH1 0x20 ADD JUMPDEST PUSH1 0x60 DUP2 MSTORE PUSH1 0x20 ADD SWAP1 PUSH1 0x1 SWAP1 SUB SWAP1 DUP2 PUSH2 0x213B JUMPI SWAP1 POP JUMPDEST POP SWAP1 POP PUSH0 PUSH1 0x1 PUSH8 0xFFFFFFFFFFFFFFFF DUP2 GT ISZERO PUSH2 0x216F JUMPI PUSH2 0x216E PUSH2 0x28BE JUMP JUMPDEST JUMPDEST PUSH1 0x40 MLOAD SWAP1 DUP1 DUP3 MSTORE DUP1 PUSH1 0x20 MUL PUSH1 0x20 ADD DUP3 ADD PUSH1 0x40 MSTORE DUP1 ISZERO PUSH2 0x21A2 JUMPI DUP2 PUSH1 0x20 ADD JUMPDEST PUSH1 0x60 DUP2 MSTORE PUSH1 0x20 ADD SWAP1 PUSH1 0x1 SWAP1 SUB SWAP1 DUP2 PUSH2 0x218D JUMPI SWAP1 POP JUMPDEST POP SWAP1 POP PUSH0 PUSH1 0x1 PUSH8 0xFFFFFFFFFFFFFFFF DUP2 GT ISZERO PUSH2 0x21C1 JUMPI PUSH2 0x21C0 PUSH2 0x28BE JUMP JUMPDEST JUMPDEST PUSH1 0x40 MLOAD SWAP1 DUP1 DUP3 MSTORE DUP1 PUSH1 0x20 MUL PUSH1 0x20 ADD DUP3 ADD PUSH1 0x40 MSTORE DUP1 ISZERO PUSH2 0x21EF JUMPI DUP2 PUSH1 0x20 ADD PUSH1 0x20 DUP3 MUL DUP1 CALLDATASIZE DUP4 CALLDATACOPY DUP1 DUP3 ADD SWAP2 POP POP SWAP1 POP JUMPDEST POP SWAP1 POP PUSH0 PUSH1 0x1 PUSH0 DUP12 DUP2 MSTORE PUSH1 0x20 ADD SWAP1 DUP2 MSTORE PUSH1 0x20 ADD PUSH0 KECCAK256 PUSH1 0x40 MLOAD DUP1 PUSH1 0xC0 ADD PUSH1 0x40 MSTORE SWAP1 DUP2 PUSH0 DUP3 ADD SLOAD DUP2 MSTORE PUSH1 0x20 ADD PUSH1 0x1 DUP3 ADD DUP1 SLOAD PUSH2 0x2228 SWAP1 PUSH2 0x3441 JUMP JUMPDEST DUP1 PUSH1 0x1F ADD PUSH1 0x20 DUP1 SWAP2 DIV MUL PUSH1 0x20 ADD PUSH1 0x40 MLOAD SWAP1 DUP2 ADD PUSH1 0x40 MSTORE DUP1 SWAP3 SWAP2 SWAP1 DUP2 DUP2 MSTORE PUSH1 0x20 ADD DUP3 DUP1 SLOAD PUSH2 0x2254 SWAP1 PUSH2 0x3441 JUMP JUMPDEST DUP1 ISZERO PUSH2 0x229F JUMPI DUP1 PUSH1 0x1F LT PUSH2 0x2276 JUMPI PUSH2 0x100 DUP1 DUP4 SLOAD DIV MUL DUP4 MSTORE SWAP2 PUSH1 0x20 ADD SWAP2 PUSH2 0x229F JUMP JUMPDEST DUP3 ADD SWAP2 SWAP1 PUSH0 MSTORE PUSH1 0x20 PUSH0 KECCAK256 SWAP1 JUMPDEST DUP2 SLOAD DUP2 MSTORE SWAP1 PUSH1 0x1 ADD SWAP1 PUSH1 0x20 ADD DUP1 DUP4 GT PUSH2 0x2282 JUMPI DUP3 SWAP1 SUB PUSH1 0x1F AND DUP3 ADD SWAP2 JUMPDEST POP POP POP POP POP DUP2 MSTORE PUSH1 0x20 ADD PUSH1 0x2 DUP3 ADD DUP1 SLOAD PUSH2 0x22B8 SWAP1 PUSH2 0x3441 JUMP JUMPDEST DUP1 PUSH1 0x1F ADD PUSH1 0x20 DUP1 SWAP2 DIV MUL PUSH1 0x20 ADD PUSH1 0x40 MLOAD SWAP1 DUP2 ADD PUSH1 0x40 MSTORE DUP1 SWAP3 SWAP2 SWAP1 DUP2 DUP2 MSTORE PUSH1 0x20 ADD DUP3 DUP1 SLOAD PUSH2 0x22E4 SWAP1 PUSH2 0x3441 JUMP JUMPDEST DUP1 ISZERO PUSH2 0x232F JUMPI DUP1 PUSH1 0x1F LT PUSH2 0x2306 JUMPI PUSH2 0x100 DUP1 DUP4 SLOAD DIV MUL DUP4 MSTORE SWAP2 PUSH1 0x20 ADD SWAP2 PUSH2 0x232F JUMP JUMPDEST DUP3 ADD SWAP2 SWAP1 PUSH0 MSTORE PUSH1 0x20 PUSH0 KECCAK256 SWAP1 JUMPDEST DUP2 SLOAD DUP2 MSTORE SWAP1 PUSH1 0x1 ADD SWAP1 PUSH1 0x20 ADD DUP1 DUP4 GT PUSH2 0x2312 JUMPI DUP3 SWAP1 SUB PUSH1 0x1F AND DUP3 ADD SWAP2 JUMPDEST POP POP POP POP POP DUP2 MSTORE PUSH1 0x20 ADD PUSH1 0x3 DUP3 ADD PUSH0 SWAP1 SLOAD SWAP1 PUSH2 0x100 EXP SWAP1 DIV PUSH20 0xFFFFFFFFFFFFFFFFFFFFFFFFFFFFFFFFFFFFFFFF AND PUSH20 0xFFFFFFFFFFFFFFFFFFFFFFFFFFFFFFFFFFFFFFFF AND PUSH20 0xFFFFFFFFFFFFFFFFFFFFFFFFFFFFFFFFFFFFFFFF AND DUP2 MSTORE PUSH1 0x20 ADD PUSH1 0x3 DUP3 ADD PUSH1 0x14 SWAP1 SLOAD SWAP1 PUSH2 0x100 EXP SWAP1 DIV PUSH1 0xFF AND ISZERO ISZERO ISZERO ISZERO DUP2 MSTORE PUSH1 0x20 ADD PUSH1 0x4 DUP3 ADD PUSH0 SWAP1 SLOAD SWAP1 PUSH2 0x100 EXP SWAP1 DIV PUSH20 0xFFFFFFFFFFFFFFFFFFFFFFFFFFFFFFFFFFFFFFFF AND PUSH20 0xFFFFFFFFFFFFFFFFFFFFFFFFFFFFFFFFFFFFFFFF AND PUSH20 0xFFFFFFFFFFFFFFFFFFFFFFFFFFFFFFFFFFFFFFFF AND DUP2 MSTORE POP POP SWAP1 POP DUP1 PUSH0 ADD MLOAD DUP6 PUSH0 DUP2 MLOAD DUP2 LT PUSH2 0x2416 JUMPI PUSH2 0x2415 PUSH2 0x37DF JUMP JUMPDEST JUMPDEST PUSH1 0x20 MUL PUSH1 0x20 ADD ADD DUP2 DUP2 MSTORE POP POP DUP1 PUSH1 0x20 ADD MLOAD DUP5 PUSH0 DUP2 MLOAD DUP2 LT PUSH2 0x243A JUMPI PUSH2 0x2439 PUSH2 0x37DF JUMP JUMPDEST JUMPDEST PUSH1 0x20 MUL PUSH1 0x20 ADD ADD DUP2 SWAP1 MSTORE POP DUP1 PUSH1 0x40 ADD MLOAD DUP4 PUSH0 DUP2 MLOAD DUP2 LT PUSH2 0x245D JUMPI PUSH2 0x245C PUSH2 0x37DF JUMP JUMPDEST JUMPDEST PUSH1 0x20 MUL PUSH1 0x20 ADD ADD DUP2 SWAP1 MSTORE POP DUP1 PUSH1 0x60 ADD MLOAD DUP3 PUSH0 DUP2 MLOAD DUP2 LT PUSH2 0x2480 JUMPI PUSH2 0x247F PUSH2 0x37DF JUMP JUMPDEST JUMPDEST PUSH1 0x20 MUL PUSH1 0x20 ADD ADD SWAP1 PUSH20 0xFFFFFFFFFFFFFFFFFFFFFFFFFFFFFFFFFFFFFFFF AND SWAP1 DUP2 PUSH20 0xFFFFFFFFFFFFFFFFFFFFFFFFFFFFFFFFFFFFFFFF AND DUP2 MSTORE POP POP DUP5 DUP5 DUP5 DUP5 SWAP9 POP SWAP9 POP SWAP9 POP SWAP9 POP POP POP POP POP POP SWAP2 SWAP4 POP SWAP2 SWAP4 JUMP JUMPDEST PUSH0 DUP1 CALLER PUSH20 0xFFFFFFFFFFFFFFFFFFFFFFFFFFFFFFFFFFFFFFFF AND PUSH20 0xFFFFFFFFFFFFFFFFFFFFFFFFFFFFFFFFFFFFFFFF AND DUP2 MSTORE PUSH1 0x20 ADD SWAP1 DUP2 MSTORE PUSH1 0x20 ADD PUSH0 KECCAK256 PUSH0 ADD PUSH1 0x1 SWAP1 SLOAD SWAP1 PUSH2 0x100 EXP SWAP1 DIV PUSH1 0xFF AND PUSH2 0x255D JUMPI PUSH1 0x40 MLOAD PUSH32 0x8C379A000000000000000000000000000000000000000000000000000000000 DUP2 MSTORE PUSH1 0x4 ADD PUSH2 0x2554 SWAP1 PUSH2 0x3DD8 JUMP JUMPDEST PUSH1 0x40 MLOAD DUP1 SWAP2 SUB SWAP1 REVERT JUMPDEST CALLER PUSH20 0xFFFFFFFFFFFFFFFFFFFFFFFFFFFFFFFFFFFFFFFF AND PUSH1 0x1 PUSH0 DUP5 DUP2 MSTORE PUSH1 0x20 ADD SWAP1 DUP2 MSTORE PUSH1 0x20 ADD PUSH0 KECCAK256 PUSH1 0x3 ADD PUSH0 SWAP1 SLOAD SWAP1 PUSH2 0x100 EXP SWAP1 DIV PUSH20 0xFFFFFFFFFFFFFFFFFFFFFFFFFFFFFFFFFFFFFFFF AND PUSH20 0xFFFFFFFFFFFFFFFFFFFFFFFFFFFFFFFFFFFFFFFF AND EQ PUSH2 0x25FE JUMPI PUSH1 0x40 MLOAD PUSH32 0x8C379A000000000000000000000000000000000000000000000000000000000 DUP2 MSTORE PUSH1 0x4 ADD PUSH2 0x25F5 SWAP1 PUSH2 0x3D4A JUMP JUMPDEST PUSH1 0x40 MLOAD DUP1 SWAP2 SUB SWAP1 REVERT JUMPDEST PUSH0 JUMPDEST PUSH1 0x6 DUP1 SLOAD SWAP1 POP DUP2 LT ISZERO PUSH2 0x26EA JUMPI DUP3 PUSH1 0x6 DUP3 DUP2 SLOAD DUP2 LT PUSH2 0x2622 JUMPI PUSH2 0x2621 PUSH2 0x37DF JUMP JUMPDEST JUMPDEST SWAP1 PUSH0 MSTORE PUSH1 0x20 PUSH0 KECCAK256 SWAP1 PUSH1 0x4 MUL ADD PUSH0 ADD SLOAD EQ DUP1 ISZERO PUSH2 0x26AB JUMPI POP DUP2 PUSH20 0xFFFFFFFFFFFFFFFFFFFFFFFFFFFFFFFFFFFFFFFF AND PUSH1 0x6 DUP3 DUP2 SLOAD DUP2 LT PUSH2 0x2664 JUMPI PUSH2 0x2663 PUSH2 0x37DF JUMP JUMPDEST JUMPDEST SWAP1 PUSH0 MSTORE PUSH1 0x20 PUSH0 KECCAK256 SWAP1 PUSH1 0x4 MUL ADD PUSH1 0x1 ADD PUSH0 SWAP1 SLOAD SWAP1 PUSH2 0x100 EXP SWAP1 DIV PUSH20 0xFFFFFFFFFFFFFFFFFFFFFFFFFFFFFFFFFFFFFFFF AND PUSH20 0xFFFFFFFFFFFFFFFFFFFFFFFFFFFFFFFFFFFFFFFF AND EQ JUMPDEST ISZERO PUSH2 0x26DD JUMPI TIMESTAMP PUSH1 0x6 DUP3 DUP2 SLOAD DUP2 LT PUSH2 0x26C5 JUMPI PUSH2 0x26C4 PUSH2 0x37DF JUMP JUMPDEST JUMPDEST SWAP1 PUSH0 MSTORE PUSH1 0x20 PUSH0 KECCAK256 SWAP1 PUSH1 0x4 MUL ADD PUSH1 0x3 ADD DUP2 SWAP1 SSTORE POP PUSH2 0x26EA JUMP JUMPDEST DUP1 DUP1 PUSH1 0x1 ADD SWAP2 POP POP PUSH2 0x2600 JUMP JUMPDEST POP POP POP JUMP JUMPDEST PUSH1 0x60 PUSH0 PUSH1 0x6 DUP1 SLOAD SWAP1 POP PUSH8 0xFFFFFFFFFFFFFFFF DUP2 GT ISZERO PUSH2 0x2711 JUMPI PUSH2 0x2710 PUSH2 0x28BE JUMP JUMPDEST JUMPDEST PUSH1 0x40 MLOAD SWAP1 DUP1 DUP3 MSTORE DUP1 PUSH1 0x20 MUL PUSH1 0x20 ADD DUP3 ADD PUSH1 0x40 MSTORE DUP1 ISZERO PUSH2 0x273F JUMPI DUP2 PUSH1 0x20 ADD PUSH1 0x20 DUP3 MUL DUP1 CALLDATASIZE DUP4 CALLDATACOPY DUP1 DUP3 ADD SWAP2 POP POP SWAP1 POP JUMPDEST POP SWAP1 POP PUSH0 JUMPDEST PUSH1 0x6 DUP1 SLOAD SWAP1 POP DUP2 LT ISZERO PUSH2 0x2801 JUMPI PUSH1 0x1 PUSH0 PUSH1 0x6 DUP4 DUP2 SLOAD DUP2 LT PUSH2 0x2768 JUMPI PUSH2 0x2767 PUSH2 0x37DF JUMP JUMPDEST JUMPDEST SWAP1 PUSH0 MSTORE PUSH1 0x20 PUSH0 KECCAK256 SWAP1 PUSH1 0x4 MUL ADD PUSH0 ADD SLOAD DUP2 MSTORE PUSH1 0x20 ADD SWAP1 DUP2 MSTORE PUSH1 0x20 ADD PUSH0 KECCAK256 PUSH1 0x3 ADD PUSH0 SWAP1 SLOAD SWAP1 PUSH2 0x100 EXP SWAP1 DIV PUSH20 0xFFFFFFFFFFFFFFFFFFFFFFFFFFFFFFFFFFFFFFFF AND DUP3 DUP3 DUP2 MLOAD DUP2 LT PUSH2 0x27BA JUMPI PUSH2 0x27B9 PUSH2 0x37DF JUMP JUMPDEST JUMPDEST PUSH1 0x20 MUL PUSH1 0x20 ADD ADD SWAP1 PUSH20 0xFFFFFFFFFFFFFFFFFFFFFFFFFFFFFFFFFFFFFFFF AND SWAP1 DUP2 PUSH20 0xFFFFFFFFFFFFFFFFFFFFFFFFFFFFFFFFFFFFFFFF AND DUP2 MSTORE POP POP DUP1 DUP1 PUSH1 0x1 ADD SWAP2 POP POP PUSH2 0x2744 JUMP JUMPDEST POP DUP1 SWAP2 POP POP SWAP1 JUMP JUMPDEST PUSH0 DUP2 SWAP1 POP SWAP2 SWAP1 POP JUMP JUMPDEST PUSH2 0x281B DUP2 PUSH2 0x2809 JUMP JUMPDEST DUP3 MSTORE POP POP JUMP JUMPDEST PUSH0 PUSH1 0x20 DUP3 ADD SWAP1 POP PUSH2 0x2834 PUSH0 DUP4 ADD DUP5 PUSH2 0x2812 JUMP JUMPDEST SWAP3 SWAP2 POP POP JUMP JUMPDEST PUSH0 DUP2 SWAP1 POP SWAP2 SWAP1 POP JUMP JUMPDEST PUSH2 0x284C DUP2 PUSH2 0x283A JUMP JUMPDEST DUP3 MSTORE POP POP JUMP JUMPDEST PUSH0 PUSH1 0x20 DUP3 ADD SWAP1 POP PUSH2 0x2865 PUSH0 DUP4 ADD DUP5 PUSH2 0x2843 JUMP JUMPDEST SWAP3 SWAP2 POP POP JUMP JUMPDEST PUSH0 PUSH1 0x40 MLOAD SWAP1 POP SWAP1 JUMP JUMPDEST PUSH0 DUP1 REVERT JUMPDEST PUSH0 DUP1 REVERT JUMPDEST PUSH2 0x2885 DUP2 PUSH2 0x2809 JUMP JUMPDEST DUP2 EQ PUSH2 0x288F JUMPI PUSH0 DUP1 REVERT JUMPDEST POP JUMP JUMPDEST PUSH0 DUP2 CALLDATALOAD SWAP1 POP PUSH2 0x28A0 DUP2 PUSH2 0x287C JUMP JUMPDEST SWAP3 SWAP2 POP POP JUMP JUMPDEST PUSH0 DUP1 REVERT JUMPDEST PUSH0 DUP1 REVERT JUMPDEST PUSH0 PUSH1 0x1F NOT PUSH1 0x1F DUP4 ADD AND SWAP1 POP SWAP2 SWAP1 POP JUMP JUMPDEST PUSH32 0x4E487B7100000000000000000000000000000000000000000000000000000000 PUSH0 MSTORE PUSH1 0x41 PUSH1 0x4 MSTORE PUSH1 0x24 PUSH0 REVERT JUMPDEST PUSH2 0x28F4 DUP3 PUSH2 0x28AE JUMP JUMPDEST DUP2 ADD DUP2 DUP2 LT PUSH8 0xFFFFFFFFFFFFFFFF DUP3 GT OR ISZERO PUSH2 0x2913 JUMPI PUSH2 0x2912 PUSH2 0x28BE JUMP JUMPDEST JUMPDEST DUP1 PUSH1 0x40 MSTORE POP POP POP JUMP JUMPDEST PUSH0 PUSH2 0x2925 PUSH2 0x286B JUMP JUMPDEST SWAP1 POP PUSH2 0x2931 DUP3 DUP3 PUSH2 0x28EB JUMP JUMPDEST SWAP2 SWAP1 POP JUMP JUMPDEST PUSH0 PUSH8 0xFFFFFFFFFFFFFFFF DUP3 GT ISZERO PUSH2 0x2950 JUMPI PUSH2 0x294F PUSH2 0x28BE JUMP JUMPDEST JUMPDEST PUSH2 0x2959 DUP3 PUSH2 0x28AE JUMP JUMPDEST SWAP1 POP PUSH1 0x20 DUP2 ADD SWAP1 POP SWAP2 SWAP1 POP JUMP JUMPDEST DUP3 DUP2 DUP4 CALLDATACOPY PUSH0 DUP4 DUP4 ADD MSTORE POP POP POP JUMP JUMPDEST PUSH0 PUSH2 0x2986 PUSH2 0x2981 DUP5 PUSH2 0x2936 JUMP JUMPDEST PUSH2 0x291C JUMP JUMPDEST SWAP1 POP DUP3 DUP2 MSTORE PUSH1 0x20 DUP2 ADD DUP5 DUP5 DUP5 ADD GT ISZERO PUSH2 0x29A2 JUMPI PUSH2 0x29A1 PUSH2 0x28AA JUMP JUMPDEST JUMPDEST PUSH2 0x29AD DUP5 DUP3 DUP6 PUSH2 0x2966 JUMP JUMPDEST POP SWAP4 SWAP3 POP POP POP JUMP JUMPDEST PUSH0 DUP3 PUSH1 0x1F DUP4 ADD SLT PUSH2 0x29C9 JUMPI PUSH2 0x29C8 PUSH2 0x28A6 JUMP JUMPDEST JUMPDEST DUP2 CALLDATALOAD PUSH2 0x29D9 DUP5 DUP3 PUSH1 0x20 DUP7 ADD PUSH2 0x2974 JUMP JUMPDEST SWAP2 POP POP SWAP3 SWAP2 POP POP JUMP JUMPDEST PUSH0 DUP1 PUSH1 0x40 DUP4 DUP6 SUB SLT ISZERO PUSH2 0x29F8 JUMPI PUSH2 0x29F7 PUSH2 0x2874 JUMP JUMPDEST JUMPDEST PUSH0 PUSH2 0x2A05 DUP6 DUP3 DUP7 ADD PUSH2 0x2892 JUMP JUMPDEST SWAP3 POP POP PUSH1 0x20 DUP4 ADD CALLDATALOAD PUSH8 0xFFFFFFFFFFFFFFFF DUP2 GT ISZERO PUSH2 0x2A26 JUMPI PUSH2 0x2A25 PUSH2 0x2878 JUMP JUMPDEST JUMPDEST PUSH2 0x2A32 DUP6 DUP3 DUP7 ADD PUSH2 0x29B5 JUMP JUMPDEST SWAP2 POP POP SWAP3 POP SWAP3 SWAP1 POP JUMP JUMPDEST PUSH0 DUP1 PUSH1 0x40 DUP4 DUP6 SUB SLT ISZERO PUSH2 0x2A52 JUMPI PUSH2 0x2A51 PUSH2 0x2874 JUMP JUMPDEST JUMPDEST PUSH0 DUP4 ADD CALLDATALOAD PUSH8 0xFFFFFFFFFFFFFFFF DUP2 GT ISZERO PUSH2 0x2A6F JUMPI PUSH2 0x2A6E PUSH2 0x2878 JUMP JUMPDEST JUMPDEST PUSH2 0x2A7B DUP6 DUP3 DUP7 ADD PUSH2 0x29B5 JUMP JUMPDEST SWAP3 POP POP PUSH1 0x20 DUP4 ADD CALLDATALOAD PUSH8 0xFFFFFFFFFFFFFFFF DUP2 GT ISZERO PUSH2 0x2A9C JUMPI PUSH2 0x2A9B PUSH2 0x2878 JUMP JUMPDEST JUMPDEST PUSH2 0x2AA8 DUP6 DUP3 DUP7 ADD PUSH2 0x29B5 JUMP JUMPDEST SWAP2 POP POP SWAP3 POP SWAP3 SWAP1 POP JUMP JUMPDEST PUSH0 DUP2 MLOAD SWAP1 POP SWAP2 SWAP1 POP JUMP JUMPDEST PUSH0 DUP3 DUP3 MSTORE PUSH1 0x20 DUP3 ADD SWAP1 POP SWAP3 SWAP2 POP POP JUMP JUMPDEST PUSH0 DUP2 SWAP1 POP PUSH1 0x20 DUP3 ADD SWAP1 POP SWAP2 SWAP1 POP JUMP JUMPDEST PUSH2 0x2AE4 DUP2 PUSH2 0x2809 JUMP JUMPDEST DUP3 MSTORE POP POP JUMP JUMPDEST PUSH0 PUSH2 0x2AF5 DUP4 DUP4 PUSH2 0x2ADB JUMP JUMPDEST PUSH1 0x20 DUP4 ADD SWAP1 POP SWAP3 SWAP2 POP POP JUMP JUMPDEST PUSH0 PUSH1 0x20 DUP3 ADD SWAP1 POP SWAP2 SWAP1 POP JUMP JUMPDEST PUSH0 PUSH2 0x2B17 DUP3 PUSH2 0x2AB2 JUMP JUMPDEST PUSH2 0x2B21 DUP2 DUP6 PUSH2 0x2ABC JUMP JUMPDEST SWAP4 POP PUSH2 0x2B2C DUP4 PUSH2 0x2ACC JUMP JUMPDEST DUP1 PUSH0 JUMPDEST DUP4 DUP2 LT ISZERO PUSH2 0x2B5C JUMPI DUP2 MLOAD PUSH2 0x2B43 DUP9 DUP3 PUSH2 0x2AEA JUMP JUMPDEST SWAP8 POP PUSH2 0x2B4E DUP4 PUSH2 0x2B01 JUMP JUMPDEST SWAP3 POP POP PUSH1 0x1 DUP2 ADD SWAP1 POP PUSH2 0x2B2F JUMP JUMPDEST POP DUP6 SWAP4 POP POP POP POP SWAP3 SWAP2 POP POP JUMP JUMPDEST PUSH0 DUP2 MLOAD SWAP1 POP SWAP2 SWAP1 POP JUMP JUMPDEST PUSH0 DUP3 DUP3 MSTORE PUSH1 0x20 DUP3 ADD SWAP1 POP SWAP3 SWAP2 POP POP JUMP JUMPDEST PUSH0 DUP2 SWAP1 POP PUSH1 0x20 DUP3 ADD SWAP1 POP SWAP2 SWAP1 POP JUMP JUMPDEST PUSH0 DUP2 MLOAD SWAP1 POP SWAP2 SWAP1 POP JUMP JUMPDEST PUSH0 DUP3 DUP3 MSTORE PUSH1 0x20 DUP3 ADD SWAP1 POP SWAP3 SWAP2 POP POP JUMP JUMPDEST PUSH0 JUMPDEST DUP4 DUP2 LT ISZERO PUSH2 0x2BC9 JUMPI DUP1 DUP3 ADD MLOAD DUP2 DUP5 ADD MSTORE PUSH1 0x20 DUP2 ADD SWAP1 POP PUSH2 0x2BAE JUMP JUMPDEST PUSH0 DUP5 DUP5 ADD MSTORE POP POP POP POP JUMP JUMPDEST PUSH0 PUSH2 0x2BDE DUP3 PUSH2 0x2B92 JUMP JUMPDEST PUSH2 0x2BE8 DUP2 DUP6 PUSH2 0x2B9C JUMP JUMPDEST SWAP4 POP PUSH2 0x2BF8 DUP2 DUP6 PUSH1 0x20 DUP7 ADD PUSH2 0x2BAC JUMP JUMPDEST PUSH2 0x2C01 DUP2 PUSH2 0x28AE JUMP JUMPDEST DUP5 ADD SWAP2 POP POP SWAP3 SWAP2 POP POP JUMP JUMPDEST PUSH0 PUSH2 0x2C17 DUP4 DUP4 PUSH2 0x2BD4 JUMP JUMPDEST SWAP1 POP SWAP3 SWAP2 POP POP JUMP JUMPDEST PUSH0 PUSH1 0x20 DUP3 ADD SWAP1 POP SWAP2 SWAP1 POP JUMP JUMPDEST PUSH0 PUSH2 0x2C35 DUP3 PUSH2 0x2B69 JUMP JUMPDEST PUSH2 0x2C3F DUP2 DUP6 PUSH2 0x2B73 JUMP JUMPDEST SWAP4 POP DUP4 PUSH1 0x20 DUP3 MUL DUP6 ADD PUSH2 0x2C51 DUP6 PUSH2 0x2B83 JUMP JUMPDEST DUP1 PUSH0 JUMPDEST DUP6 DUP2 LT ISZERO PUSH2 0x2C8C JUMPI DUP5 DUP5 SUB DUP10 MSTORE DUP2 MLOAD PUSH2 0x2C6D DUP6 DUP3 PUSH2 0x2C0C JUMP JUMPDEST SWAP5 POP PUSH2 0x2C78 DUP4 PUSH2 0x2C1F JUMP JUMPDEST SWAP3 POP PUSH1 0x20 DUP11 ADD SWAP10 POP POP PUSH1 0x1 DUP2 ADD SWAP1 POP PUSH2 0x2C54 JUMP JUMPDEST POP DUP3 SWAP8 POP DUP8 SWAP6 POP POP POP POP POP POP SWAP3 SWAP2 POP POP JUMP JUMPDEST PUSH0 PUSH1 0x80 DUP3 ADD SWAP1 POP DUP2 DUP2 SUB PUSH0 DUP4 ADD MSTORE PUSH2 0x2CB6 DUP2 DUP8 PUSH2 0x2B0D JUMP JUMPDEST SWAP1 POP DUP2 DUP2 SUB PUSH1 0x20 DUP4 ADD MSTORE PUSH2 0x2CCA DUP2 DUP7 PUSH2 0x2C2B JUMP JUMPDEST SWAP1 POP DUP2 DUP2 SUB PUSH1 0x40 DUP4 ADD MSTORE PUSH2 0x2CDE DUP2 DUP6 PUSH2 0x2C2B JUMP JUMPDEST SWAP1 POP DUP2 DUP2 SUB PUSH1 0x60 DUP4 ADD MSTORE PUSH2 0x2CF2 DUP2 DUP5 PUSH2 0x2C2B JUMP JUMPDEST SWAP1 POP SWAP6 SWAP5 POP POP POP POP POP JUMP JUMPDEST PUSH0 DUP2 ISZERO ISZERO SWAP1 POP SWAP2 SWAP1 POP JUMP JUMPDEST PUSH2 0x2D11 DUP2 PUSH2 0x2CFD JUMP JUMPDEST DUP2 EQ PUSH2 0x2D1B JUMPI PUSH0 DUP1 REVERT JUMPDEST POP JUMP JUMPDEST PUSH0 DUP2 CALLDATALOAD SWAP1 POP PUSH2 0x2D2C DUP2 PUSH2 0x2D08 JUMP JUMPDEST SWAP3 SWAP2 POP POP JUMP JUMPDEST PUSH0 DUP1 PUSH0 PUSH1 0x60 DUP5 DUP7 SUB SLT ISZERO PUSH2 0x2D49 JUMPI PUSH2 0x2D48 PUSH2 0x2874 JUMP JUMPDEST JUMPDEST PUSH0 DUP5 ADD CALLDATALOAD PUSH8 0xFFFFFFFFFFFFFFFF DUP2 GT ISZERO PUSH2 0x2D66 JUMPI PUSH2 0x2D65 PUSH2 0x2878 JUMP JUMPDEST JUMPDEST PUSH2 0x2D72 DUP7 DUP3 DUP8 ADD PUSH2 0x29B5 JUMP JUMPDEST SWAP4 POP POP PUSH1 0x20 PUSH2 0x2D83 DUP7 DUP3 DUP8 ADD PUSH2 0x2D1E JUMP JUMPDEST SWAP3 POP POP PUSH1 0x40 PUSH2 0x2D94 DUP7 DUP3 DUP8 ADD PUSH2 0x2D1E JUMP JUMPDEST SWAP2 POP POP SWAP3 POP SWAP3 POP SWAP3 JUMP JUMPDEST PUSH0 PUSH1 0x20 DUP3 DUP5 SUB SLT ISZERO PUSH2 0x2DB3 JUMPI PUSH2 0x2DB2 PUSH2 0x2874 JUMP JUMPDEST JUMPDEST PUSH0 PUSH2 0x2DC0 DUP5 DUP3 DUP6 ADD PUSH2 0x2892 JUMP JUMPDEST SWAP2 POP POP SWAP3 SWAP2 POP POP JUMP JUMPDEST PUSH0 PUSH1 0x60 DUP3 ADD SWAP1 POP DUP2 DUP2 SUB PUSH0 DUP4 ADD MSTORE PUSH2 0x2DE1 DUP2 DUP7 PUSH2 0x2B0D JUMP JUMPDEST SWAP1 POP DUP2 DUP2 SUB PUSH1 0x20 DUP4 ADD MSTORE PUSH2 0x2DF5 DUP2 DUP6 PUSH2 0x2C2B JUMP JUMPDEST SWAP1 POP DUP2 DUP2 SUB PUSH1 0x40 DUP4 ADD MSTORE PUSH2 0x2E09 DUP2 DUP5 PUSH2 0x2C2B JUMP JUMPDEST SWAP1 POP SWAP5 SWAP4 POP POP POP POP JUMP JUMPDEST PUSH0 PUSH20 0xFFFFFFFFFFFFFFFFFFFFFFFFFFFFFFFFFFFFFFFF DUP3 AND SWAP1 POP SWAP2 SWAP1 POP JUMP JUMPDEST PUSH0 PUSH2 0x2E3C DUP3 PUSH2 0x2E13 JUMP JUMPDEST SWAP1 POP SWAP2 SWAP1 POP JUMP JUMPDEST PUSH2 0x2E4C DUP2 PUSH2 0x2E32 JUMP JUMPDEST DUP2 EQ PUSH2 0x2E56 JUMPI PUSH0 DUP1 REVERT JUMPDEST POP JUMP JUMPDEST PUSH0 DUP2 CALLDATALOAD SWAP1 POP PUSH2 0x2E67 DUP2 PUSH2 0x2E43 JUMP JUMPDEST SWAP3 SWAP2 POP POP JUMP JUMPDEST PUSH2 0x2E76 DUP2 PUSH2 0x283A JUMP JUMPDEST DUP2 EQ PUSH2 0x2E80 JUMPI PUSH0 DUP1 REVERT JUMPDEST POP JUMP JUMPDEST PUSH0 DUP2 CALLDATALOAD SWAP1 POP PUSH2 0x2E91 DUP2 PUSH2 0x2E6D JUMP JUMPDEST SWAP3 SWAP2 POP POP JUMP JUMPDEST PUSH0 DUP1 PUSH0 DUP1 PUSH1 0x80 DUP6 DUP8 SUB SLT ISZERO PUSH2 0x2EAF JUMPI PUSH2 0x2EAE PUSH2 0x2874 JUMP JUMPDEST JUMPDEST PUSH0 PUSH2 0x2EBC DUP8 DUP3 DUP9 ADD PUSH2 0x2892 JUMP JUMPDEST SWAP5 POP POP PUSH1 0x20 PUSH2 0x2ECD DUP8 DUP3 DUP9 ADD PUSH2 0x2E59 JUMP JUMPDEST SWAP4 POP POP PUSH1 0x40 PUSH2 0x2EDE DUP8 DUP3 DUP9 ADD PUSH2 0x2E83 JUMP JUMPDEST SWAP3 POP POP PUSH1 0x60 PUSH2 0x2EEF DUP8 DUP3 DUP9 ADD PUSH2 0x2E83 JUMP JUMPDEST SWAP2 POP POP SWAP3 SWAP6 SWAP2 SWAP5 POP SWAP3 POP JUMP JUMPDEST PUSH0 PUSH1 0x20 DUP3 DUP5 SUB SLT ISZERO PUSH2 0x2F10 JUMPI PUSH2 0x2F0F PUSH2 0x2874 JUMP JUMPDEST JUMPDEST PUSH0 PUSH2 0x2F1D DUP5 DUP3 DUP6 ADD PUSH2 0x2E83 JUMP JUMPDEST SWAP2 POP POP SWAP3 SWAP2 POP POP JUMP JUMPDEST PUSH2 0x2F2F DUP2 PUSH2 0x2E32 JUMP JUMPDEST DUP3 MSTORE POP POP JUMP JUMPDEST PUSH0 DUP3 DUP3 MSTORE PUSH1 0x20 DUP3 ADD SWAP1 POP SWAP3 SWAP2 POP POP JUMP JUMPDEST PUSH0 PUSH2 0x2F4F DUP3 PUSH2 0x2B92 JUMP JUMPDEST PUSH2 0x2F59 DUP2 DUP6 PUSH2 0x2F35 JUMP JUMPDEST SWAP4 POP PUSH2 0x2F69 DUP2 DUP6 PUSH1 0x20 DUP7 ADD PUSH2 0x2BAC JUMP JUMPDEST PUSH2 0x2F72 DUP2 PUSH2 0x28AE JUMP JUMPDEST DUP5 ADD SWAP2 POP POP SWAP3 SWAP2 POP POP JUMP JUMPDEST PUSH0 PUSH1 0x80 DUP3 ADD SWAP1 POP PUSH2 0x2F90 PUSH0 DUP4 ADD DUP8 PUSH2 0x2F26 JUMP JUMPDEST PUSH2 0x2F9D PUSH1 0x20 DUP4 ADD DUP7 PUSH2 0x2812 JUMP JUMPDEST DUP2 DUP2 SUB PUSH1 0x40 DUP4 ADD MSTORE PUSH2 0x2FAF DUP2 DUP6 PUSH2 0x2F45 JUMP JUMPDEST SWAP1 POP DUP2 DUP2 SUB PUSH1 0x60 DUP4 ADD MSTORE PUSH2 0x2FC3 DUP2 DUP5 PUSH2 0x2F45 JUMP JUMPDEST SWAP1 POP SWAP6 SWAP5 POP POP POP POP POP JUMP JUMPDEST PUSH2 0x2FD7 DUP2 PUSH2 0x2CFD JUMP JUMPDEST DUP3 MSTORE POP POP JUMP JUMPDEST PUSH0 PUSH1 0x80 DUP3 ADD SWAP1 POP PUSH2 0x2FF0 PUSH0 DUP4 ADD DUP8 PUSH2 0x2F26 JUMP JUMPDEST PUSH2 0x2FFD PUSH1 0x20 DUP4 ADD DUP7 PUSH2 0x2812 JUMP JUMPDEST PUSH2 0x300A PUSH1 0x40 DUP4 ADD DUP6 PUSH2 0x2843 JUMP JUMPDEST PUSH2 0x3017 PUSH1 0x60 DUP4 ADD DUP5 PUSH2 0x2FCE JUMP JUMPDEST SWAP6 SWAP5 POP POP POP POP POP JUMP JUMPDEST PUSH0 PUSH1 0xC0 DUP3 ADD SWAP1 POP PUSH2 0x3033 PUSH0 DUP4 ADD DUP10 PUSH2 0x2812 JUMP JUMPDEST DUP2 DUP2 SUB PUSH1 0x20 DUP4 ADD MSTORE PUSH2 0x3045 DUP2 DUP9 PUSH2 0x2F45 JUMP JUMPDEST SWAP1 POP DUP2 DUP2 SUB PUSH1 0x40 DUP4 ADD MSTORE PUSH2 0x3059 DUP2 DUP8 PUSH2 0x2F45 JUMP JUMPDEST SWAP1 POP PUSH2 0x3068 PUSH1 0x60 DUP4 ADD DUP7 PUSH2 0x2F26 JUMP JUMPDEST PUSH2 0x3075 PUSH1 0x80 DUP4 ADD DUP6 PUSH2 0x2FCE JUMP JUMPDEST PUSH2 0x3082 PUSH1 0xA0 DUP4 ADD DUP5 PUSH2 0x2F26 JUMP JUMPDEST SWAP8 SWAP7 POP POP POP POP POP POP POP JUMP JUMPDEST PUSH0 PUSH1 0x20 DUP3 ADD SWAP1 POP PUSH2 0x30A0 PUSH0 DUP4 ADD DUP5 PUSH2 0x2F26 JUMP JUMPDEST SWAP3 SWAP2 POP POP JUMP JUMPDEST PUSH0 PUSH1 0x80 DUP3 ADD SWAP1 POP PUSH2 0x30B9 PUSH0 DUP4 ADD DUP8 PUSH2 0x2812 JUMP JUMPDEST PUSH2 0x30C6 PUSH1 0x20 DUP4 ADD DUP7 PUSH2 0x2F26 JUMP JUMPDEST PUSH2 0x30D3 PUSH1 0x40 DUP4 ADD DUP6 PUSH2 0x2843 JUMP JUMPDEST PUSH2 0x30E0 PUSH1 0x60 DUP4 ADD DUP5 PUSH2 0x2843 JUMP JUMPDEST SWAP6 SWAP5 POP POP POP POP POP JUMP JUMPDEST PUSH0 PUSH1 0x20 DUP3 DUP5 SUB SLT ISZERO PUSH2 0x30FE JUMPI PUSH2 0x30FD PUSH2 0x2874 JUMP JUMPDEST JUMPDEST PUSH0 PUSH2 0x310B DUP5 DUP3 DUP6 ADD PUSH2 0x2E59 JUMP JUMPDEST SWAP2 POP POP SWAP3 SWAP2 POP POP JUMP JUMPDEST PUSH0 PUSH1 0x60 DUP3 ADD SWAP1 POP PUSH2 0x3127 PUSH0 DUP4 ADD DUP7 PUSH2 0x2FCE JUMP JUMPDEST PUSH2 0x3134 PUSH1 0x20 DUP4 ADD DUP6 PUSH2 0x2FCE JUMP JUMPDEST DUP2 DUP2 SUB PUSH1 0x40 DUP4 ADD MSTORE PUSH2 0x3146 DUP2 DUP5 PUSH2 0x2F45 JUMP JUMPDEST SWAP1 POP SWAP5 SWAP4 POP POP POP POP JUMP JUMPDEST PUSH0 DUP1 PUSH1 0x40 DUP4 DUP6 SUB SLT ISZERO PUSH2 0x3166 JUMPI PUSH2 0x3165 PUSH2 0x2874 JUMP JUMPDEST JUMPDEST PUSH0 PUSH2 0x3173 DUP6 DUP3 DUP7 ADD PUSH2 0x2E83 JUMP JUMPDEST SWAP3 POP POP PUSH1 0x20 DUP4 ADD CALLDATALOAD PUSH8 0xFFFFFFFFFFFFFFFF DUP2 GT ISZERO PUSH2 0x3194 JUMPI PUSH2 0x3193 PUSH2 0x2878 JUMP JUMPDEST JUMPDEST PUSH2 0x31A0 DUP6 DUP3 DUP7 ADD PUSH2 0x29B5 JUMP JUMPDEST SWAP2 POP POP SWAP3 POP SWAP3 SWAP1 POP JUMP JUMPDEST PUSH0 DUP2 MLOAD SWAP1 POP SWAP2 SWAP1 POP JUMP JUMPDEST PUSH0 DUP3 DUP3 MSTORE PUSH1 0x20 DUP3 ADD SWAP1 POP SWAP3 SWAP2 POP POP JUMP JUMPDEST PUSH0 DUP2 SWAP1 POP PUSH1 0x20 DUP3 ADD SWAP1 POP SWAP2 SWAP1 POP JUMP JUMPDEST PUSH2 0x31DC DUP2 PUSH2 0x2E32 JUMP JUMPDEST DUP3 MSTORE POP POP JUMP JUMPDEST PUSH0 PUSH2 0x31ED DUP4 DUP4 PUSH2 0x31D3 JUMP JUMPDEST PUSH1 0x20 DUP4 ADD SWAP1 POP SWAP3 SWAP2 POP POP JUMP JUMPDEST PUSH0 PUSH1 0x20 DUP3 ADD SWAP1 POP SWAP2 SWAP1 POP JUMP JUMPDEST PUSH0 PUSH2 0x320F DUP3 PUSH2 0x31AA JUMP JUMPDEST PUSH2 0x3219 DUP2 DUP6 PUSH2 0x31B4 JUMP JUMPDEST SWAP4 POP PUSH2 0x3224 DUP4 PUSH2 0x31C4 JUMP JUMPDEST DUP1 PUSH0 JUMPDEST DUP4 DUP2 LT ISZERO PUSH2 0x3254 JUMPI DUP2 MLOAD PUSH2 0x323B DUP9 DUP3 PUSH2 0x31E2 JUMP JUMPDEST SWAP8 POP PUSH2 0x3246 DUP4 PUSH2 0x31F9 JUMP JUMPDEST SWAP3 POP POP PUSH1 0x1 DUP2 ADD SWAP1 POP PUSH2 0x3227 JUMP JUMPDEST POP DUP6 SWAP4 POP POP POP POP SWAP3 SWAP2 POP POP JUMP JUMPDEST PUSH0 PUSH1 0x80 DUP3 ADD SWAP1 POP DUP2 DUP2 SUB PUSH0 DUP4 ADD MSTORE PUSH2 0x3279 DUP2 DUP8 PUSH2 0x2B0D JUMP JUMPDEST SWAP1 POP DUP2 DUP2 SUB PUSH1 0x20 DUP4 ADD MSTORE PUSH2 0x328D DUP2 DUP7 PUSH2 0x2C2B JUMP JUMPDEST SWAP1 POP DUP2 DUP2 SUB PUSH1 0x40 DUP4 ADD MSTORE PUSH2 0x32A1 DUP2 DUP6 PUSH2 0x2C2B JUMP JUMPDEST SWAP1 POP DUP2 DUP2 SUB PUSH1 0x60 DUP4 ADD MSTORE PUSH2 0x32B5 DUP2 DUP5 PUSH2 0x3205 JUMP JUMPDEST SWAP1 POP SWAP6 SWAP5 POP POP POP POP POP JUMP JUMPDEST PUSH0 DUP1 PUSH1 0x40 DUP4 DUP6 SUB SLT ISZERO PUSH2 0x32D6 JUMPI PUSH2 0x32D5 PUSH2 0x2874 JUMP JUMPDEST JUMPDEST PUSH0 PUSH2 0x32E3 DUP6 DUP3 DUP7 ADD PUSH2 0x2892 JUMP JUMPDEST SWAP3 POP POP PUSH1 0x20 PUSH2 0x32F4 DUP6 DUP3 DUP7 ADD PUSH2 0x2E59 JUMP JUMPDEST SWAP2 POP POP SWAP3 POP SWAP3 SWAP1 POP JUMP JUMPDEST PUSH0 PUSH1 0x20 DUP3 ADD SWAP1 POP DUP2 DUP2 SUB PUSH0 DUP4 ADD MSTORE PUSH2 0x3316 DUP2 DUP5 PUSH2 0x3205 JUMP JUMPDEST SWAP1 POP SWAP3 SWAP2 POP POP JUMP JUMPDEST PUSH32 0x6F6E6C792074656E616E74732063616E206D616B65206120636F6D706C61696E PUSH0 DUP3 ADD MSTORE POP JUMP JUMPDEST PUSH0 PUSH2 0x3352 PUSH1 0x20 DUP4 PUSH2 0x2F35 JUMP JUMPDEST SWAP2 POP PUSH2 0x335D DUP3 PUSH2 0x331E JUMP JUMPDEST PUSH1 0x20 DUP3 ADD SWAP1 POP SWAP2 SWAP1 POP JUMP JUMPDEST PUSH0 PUSH1 0x20 DUP3 ADD SWAP1 POP DUP2 DUP2 SUB PUSH0 DUP4 ADD MSTORE PUSH2 0x337F DUP2 PUSH2 0x3346 JUMP JUMPDEST SWAP1 POP SWAP2 SWAP1 POP JUMP JUMPDEST PUSH32 0x75736572732063616E206F6E6C7920636F6D706C61696E2061626F7574206120 PUSH0 DUP3 ADD MSTORE PUSH32 0x7468656972206F776E2072656E7465642070726F706572747900000000000000 PUSH1 0x20 DUP3 ADD MSTORE POP JUMP JUMPDEST PUSH0 PUSH2 0x33E0 PUSH1 0x39 DUP4 PUSH2 0x2F35 JUMP JUMPDEST SWAP2 POP PUSH2 0x33EB DUP3 PUSH2 0x3386 JUMP JUMPDEST PUSH1 0x40 DUP3 ADD SWAP1 POP SWAP2 SWAP1 POP JUMP JUMPDEST PUSH0 PUSH1 0x20 DUP3 ADD SWAP1 POP DUP2 DUP2 SUB PUSH0 DUP4 ADD MSTORE PUSH2 0x340D DUP2 PUSH2 0x33D4 JUMP JUMPDEST SWAP1 POP SWAP2 SWAP1 POP JUMP JUMPDEST PUSH32 0x4E487B7100000000000000000000000000000000000000000000000000000000 PUSH0 MSTORE PUSH1 0x22 PUSH1 0x4 MSTORE PUSH1 0x24 PUSH0 REVERT JUMPDEST PUSH0 PUSH1 0x2 DUP3 DIV SWAP1 POP PUSH1 0x1 DUP3 AND DUP1 PUSH2 0x3458 JUMPI PUSH1 0x7F DUP3 AND SWAP2 POP JUMPDEST PUSH1 0x20 DUP3 LT DUP2 SUB PUSH2 0x346B JUMPI PUSH2 0x346A PUSH2 0x3414 JUMP JUMPDEST JUMPDEST POP SWAP2 SWAP1 POP JUMP JUMPDEST PUSH0 DUP2 SWAP1 POP DUP2 PUSH0 MSTORE PUSH1 0x20 PUSH0 KECCAK256 SWAP1 POP SWAP2 SWAP1 POP JUMP JUMPDEST PUSH0 PUSH1 0x20 PUSH1 0x1F DUP4 ADD DIV SWAP1 POP SWAP2 SWAP1 POP JUMP JUMPDEST PUSH0 DUP3 DUP3 SHL SWAP1 POP SWAP3 SWAP2 POP POP JUMP JUMPDEST PUSH0 PUSH1 0x8 DUP4 MUL PUSH2 0x34CD PUSH32 0xFFFFFFFFFFFFFFFFFFFFFFFFFFFFFFFFFFFFFFFFFFFFFFFFFFFFFFFFFFFFFFFF DUP3 PUSH2 0x3492 JUMP JUMPDEST PUSH2 0x34D7 DUP7 DUP4 PUSH2 0x3492 JUMP JUMPDEST SWAP6 POP DUP1 NOT DUP5 AND SWAP4 POP DUP1 DUP7 AND DUP5 OR SWAP3 POP POP POP SWAP4 SWAP3 POP POP POP JUMP JUMPDEST PUSH0 DUP2 SWAP1 POP SWAP2 SWAP1 POP JUMP JUMPDEST PUSH0 PUSH2 0x3512 PUSH2 0x350D PUSH2 0x3508 DUP5 PUSH2 0x283A JUMP JUMPDEST PUSH2 0x34EF JUMP JUMPDEST PUSH2 0x283A JUMP JUMPDEST SWAP1 POP SWAP2 SWAP1 POP JUMP JUMPDEST PUSH0 DUP2 SWAP1 POP SWAP2 SWAP1 POP JUMP JUMPDEST PUSH2 0x352B DUP4 PUSH2 0x34F8 JUMP JUMPDEST PUSH2 0x353F PUSH2 0x3537 DUP3 PUSH2 0x3519 JUMP JUMPDEST DUP5 DUP5 SLOAD PUSH2 0x349E JUMP JUMPDEST DUP3 SSTORE POP POP POP POP JUMP JUMPDEST PUSH0 SWAP1 JUMP JUMPDEST PUSH2 0x3553 PUSH2 0x3547 JUMP JUMPDEST PUSH2 0x355E DUP2 DUP5 DUP5 PUSH2 0x3522 JUMP JUMPDEST POP POP POP JUMP JUMPDEST JUMPDEST DUP2 DUP2 LT ISZERO PUSH2 0x3581 JUMPI PUSH2 0x3576 PUSH0 DUP3 PUSH2 0x354B JUMP JUMPDEST PUSH1 0x1 DUP2 ADD SWAP1 POP PUSH2 0x3564 JUMP JUMPDEST POP POP JUMP JUMPDEST PUSH1 0x1F DUP3 GT ISZERO PUSH2 0x35C6 JUMPI PUSH2 0x3597 DUP2 PUSH2 0x3471 JUMP JUMPDEST PUSH2 0x35A0 DUP5 PUSH2 0x3483 JUMP JUMPDEST DUP2 ADD PUSH1 0x20 DUP6 LT ISZERO PUSH2 0x35AF JUMPI DUP2 SWAP1 POP JUMPDEST PUSH2 0x35C3 PUSH2 0x35BB DUP6 PUSH2 0x3483 JUMP JUMPDEST DUP4 ADD DUP3 PUSH2 0x3563 JUMP JUMPDEST POP POP JUMPDEST POP POP POP JUMP JUMPDEST PUSH0 DUP3 DUP3 SHR SWAP1 POP SWAP3 SWAP2 POP POP JUMP JUMPDEST PUSH0 PUSH2 0x35E6 PUSH0 NOT DUP5 PUSH1 0x8 MUL PUSH2 0x35CB JUMP JUMPDEST NOT DUP1 DUP4 AND SWAP2 POP POP SWAP3 SWAP2 POP POP JUMP JUMPDEST PUSH0 PUSH2 0x35FE DUP4 DUP4 PUSH2 0x35D7 JUMP JUMPDEST SWAP2 POP DUP3 PUSH1 0x2 MUL DUP3 OR SWAP1 POP SWAP3 SWAP2 POP POP JUMP JUMPDEST PUSH2 0x3617 DUP3 PUSH2 0x2B92 JUMP JUMPDEST PUSH8 0xFFFFFFFFFFFFFFFF DUP2 GT ISZERO PUSH2 0x3630 JUMPI PUSH2 0x362F PUSH2 0x28BE JUMP JUMPDEST JUMPDEST PUSH2 0x363A DUP3 SLOAD PUSH2 0x3441 JUMP JUMPDEST PUSH2 0x3645 DUP3 DUP3 DUP6 PUSH2 0x3585 JUMP JUMPDEST PUSH0 PUSH1 0x20 SWAP1 POP PUSH1 0x1F DUP4 GT PUSH1 0x1 DUP2 EQ PUSH2 0x3676 JUMPI PUSH0 DUP5 ISZERO PUSH2 0x3664 JUMPI DUP3 DUP8 ADD MLOAD SWAP1 POP JUMPDEST PUSH2 0x366E DUP6 DUP3 PUSH2 0x35F3 JUMP JUMPDEST DUP7 SSTORE POP PUSH2 0x36D5 JUMP JUMPDEST PUSH1 0x1F NOT DUP5 AND PUSH2 0x3684 DUP7 PUSH2 0x3471 JUMP JUMPDEST PUSH0 JUMPDEST DUP3 DUP2 LT ISZERO PUSH2 0x36AB JUMPI DUP5 DUP10 ADD MLOAD DUP3 SSTORE PUSH1 0x1 DUP3 ADD SWAP2 POP PUSH1 0x20 DUP6 ADD SWAP5 POP PUSH1 0x20 DUP2 ADD SWAP1 POP PUSH2 0x3686 JUMP JUMPDEST DUP7 DUP4 LT ISZERO PUSH2 0x36C8 JUMPI DUP5 DUP10 ADD MLOAD PUSH2 0x36C4 PUSH1 0x1F DUP10 AND DUP3 PUSH2 0x35D7 JUMP JUMPDEST DUP4 SSTORE POP JUMPDEST PUSH1 0x1 PUSH1 0x2 DUP9 MUL ADD DUP9 SSTORE POP POP POP JUMPDEST POP POP POP POP POP POP JUMP JUMPDEST PUSH32 0x6F6E6C79204C616E646C6F7264732063616E206372656174652070726F706572 PUSH0 DUP3 ADD MSTORE PUSH32 0x7479000000000000000000000000000000000000000000000000000000000000 PUSH1 0x20 DUP3 ADD MSTORE POP JUMP JUMPDEST PUSH0 PUSH2 0x3737 PUSH1 0x22 DUP4 PUSH2 0x2F35 JUMP JUMPDEST SWAP2 POP PUSH2 0x3742 DUP3 PUSH2 0x36DD JUMP JUMPDEST PUSH1 0x40 DUP3 ADD SWAP1 POP SWAP2 SWAP1 POP JUMP JUMPDEST PUSH0 PUSH1 0x20 DUP3 ADD SWAP1 POP DUP2 DUP2 SUB PUSH0 DUP4 ADD MSTORE PUSH2 0x3764 DUP2 PUSH2 0x372B JUMP JUMPDEST SWAP1 POP SWAP2 SWAP1 POP JUMP JUMPDEST PUSH32 0x4E487B7100000000000000000000000000000000000000000000000000000000 PUSH0 MSTORE PUSH1 0x11 PUSH1 0x4 MSTORE PUSH1 0x24 PUSH0 REVERT JUMPDEST PUSH0 PUSH2 0x37A2 DUP3 PUSH2 0x2809 JUMP JUMPDEST SWAP2 POP PUSH32 0x7FFFFFFFFFFFFFFFFFFFFFFFFFFFFFFFFFFFFFFFFFFFFFFFFFFFFFFFFFFFFFFF DUP3 SUB PUSH2 0x37D4 JUMPI PUSH2 0x37D3 PUSH2 0x376B JUMP JUMPDEST JUMPDEST PUSH1 0x1 DUP3 ADD SWAP1 POP SWAP2 SWAP1 POP JUMP JUMPDEST PUSH32 0x4E487B7100000000000000000000000000000000000000000000000000000000 PUSH0 MSTORE PUSH1 0x32 PUSH1 0x4 MSTORE PUSH1 0x24 PUSH0 REVERT JUMPDEST PUSH32 0x5573657220616C72656164792065786973747300000000000000000000000000 PUSH0 DUP3 ADD MSTORE POP JUMP JUMPDEST PUSH0 PUSH2 0x3840 PUSH1 0x13 DUP4 PUSH2 0x2F35 JUMP JUMPDEST SWAP2 POP PUSH2 0x384B DUP3 PUSH2 0x380C JUMP JUMPDEST PUSH1 0x20 DUP3 ADD SWAP1 POP SWAP2 SWAP1 POP JUMP JUMPDEST PUSH0 PUSH1 0x20 DUP3 ADD SWAP1 POP DUP2 DUP2 SUB PUSH0 DUP4 ADD MSTORE PUSH2 0x386D DUP2 PUSH2 0x3834 JUMP JUMPDEST SWAP1 POP SWAP2 SWAP1 POP JUMP JUMPDEST PUSH32 0x4F6E6C792074656E616E74732063616E2072657175657374206561726C792074 PUSH0 DUP3 ADD MSTORE PUSH32 0x65726D696E6174696F6E00000000000000000000000000000000000000000000 PUSH1 0x20 DUP3 ADD MSTORE POP JUMP JUMPDEST PUSH0 PUSH2 0x38CE PUSH1 0x2A DUP4 PUSH2 0x2F35 JUMP JUMPDEST SWAP2 POP PUSH2 0x38D9 DUP3 PUSH2 0x3874 JUMP JUMPDEST PUSH1 0x40 DUP3 ADD SWAP1 POP SWAP2 SWAP1 POP JUMP JUMPDEST PUSH0 PUSH1 0x20 DUP3 ADD SWAP1 POP DUP2 DUP2 SUB PUSH0 DUP4 ADD MSTORE PUSH2 0x38FB DUP2 PUSH2 0x38C2 JUMP JUMPDEST SWAP1 POP SWAP2 SWAP1 POP JUMP JUMPDEST PUSH32 0x596F7520646F206E6F7420686176652061206C6561736520666F722074686973 PUSH0 DUP3 ADD MSTORE PUSH32 0x2070726F70657274790000000000000000000000000000000000000000000000 PUSH1 0x20 DUP3 ADD MSTORE POP JUMP JUMPDEST PUSH0 PUSH2 0x395C PUSH1 0x29 DUP4 PUSH2 0x2F35 JUMP JUMPDEST SWAP2 POP PUSH2 0x3967 DUP3 PUSH2 0x3902 JUMP JUMPDEST PUSH1 0x40 DUP3 ADD SWAP1 POP SWAP2 SWAP1 POP JUMP JUMPDEST PUSH0 PUSH1 0x20 DUP3 ADD SWAP1 POP DUP2 DUP2 SUB PUSH0 DUP4 ADD MSTORE PUSH2 0x3989 DUP2 PUSH2 0x3950 JUMP JUMPDEST SWAP1 POP SWAP2 SWAP1 POP JUMP JUMPDEST PUSH32 0x496E76616C69642074656E616E74206F722070726F7065727479000000000000 PUSH0 DUP3 ADD MSTORE POP JUMP JUMPDEST PUSH0 PUSH2 0x39C4 PUSH1 0x1A DUP4 PUSH2 0x2F35 JUMP JUMPDEST SWAP2 POP PUSH2 0x39CF DUP3 PUSH2 0x3990 JUMP JUMPDEST PUSH1 0x20 DUP3 ADD SWAP1 POP SWAP2 SWAP1 POP JUMP JUMPDEST PUSH0 PUSH1 0x20 DUP3 ADD SWAP1 POP DUP2 DUP2 SUB PUSH0 DUP4 ADD MSTORE PUSH2 0x39F1 DUP2 PUSH2 0x39B8 JUMP JUMPDEST SWAP1 POP SWAP2 SWAP1 POP JUMP JUMPDEST PUSH32 0x50726F7065727479206973206E6F742072656E7461626C650000000000000000 PUSH0 DUP3 ADD MSTORE POP JUMP JUMPDEST PUSH0 PUSH2 0x3A2C PUSH1 0x18 DUP4 PUSH2 0x2F35 JUMP JUMPDEST SWAP2 POP PUSH2 0x3A37 DUP3 PUSH2 0x39F8 JUMP JUMPDEST PUSH1 0x20 DUP3 ADD SWAP1 POP SWAP2 SWAP1 POP JUMP JUMPDEST PUSH0 PUSH1 0x20 DUP3 ADD SWAP1 POP DUP2 DUP2 SUB PUSH0 DUP4 ADD MSTORE PUSH2 0x3A59 DUP2 PUSH2 0x3A20 JUMP JUMPDEST SWAP1 POP SWAP2 SWAP1 POP JUMP JUMPDEST PUSH32 0x6F6E6C79206C616E646C6F7264732063616E207265706C7920746F20636F6D70 PUSH0 DUP3 ADD MSTORE PUSH32 0x6C61696E73000000000000000000000000000000000000000000000000000000 PUSH1 0x20 DUP3 ADD MSTORE POP JUMP JUMPDEST PUSH0 PUSH2 0x3ABA PUSH1 0x25 DUP4 PUSH2 0x2F35 JUMP JUMPDEST SWAP2 POP PUSH2 0x3AC5 DUP3 PUSH2 0x3A60 JUMP JUMPDEST PUSH1 0x40 DUP3 ADD SWAP1 POP SWAP2 SWAP1 POP JUMP JUMPDEST PUSH0 PUSH1 0x20 DUP3 ADD SWAP1 POP DUP2 DUP2 SUB PUSH0 DUP4 ADD MSTORE PUSH2 0x3AE7 DUP2 PUSH2 0x3AAE JUMP JUMPDEST SWAP1 POP SWAP2 SWAP1 POP JUMP JUMPDEST PUSH32 0x496E76616C696420636F6D706C61696E7420696E646578000000000000000000 PUSH0 DUP3 ADD MSTORE POP JUMP JUMPDEST PUSH0 PUSH2 0x3B22 PUSH1 0x17 DUP4 PUSH2 0x2F35 JUMP JUMPDEST SWAP2 POP PUSH2 0x3B2D DUP3 PUSH2 0x3AEE JUMP JUMPDEST PUSH1 0x20 DUP3 ADD SWAP1 POP SWAP2 SWAP1 POP JUMP JUMPDEST PUSH0 PUSH1 0x20 DUP3 ADD SWAP1 POP DUP2 DUP2 SUB PUSH0 DUP4 ADD MSTORE PUSH2 0x3B4F DUP2 PUSH2 0x3B16 JUMP JUMPDEST SWAP1 POP SWAP2 SWAP1 POP JUMP JUMPDEST PUSH32 0x596F7520617265206E6F7420746865206F776E6572206F66207468652070726F PUSH0 DUP3 ADD MSTORE PUSH32 0x70657274792072656C6174656420746F207468697320636F6D706C61696E7400 PUSH1 0x20 DUP3 ADD MSTORE POP JUMP JUMPDEST PUSH0 PUSH2 0x3BB0 PUSH1 0x3F DUP4 PUSH2 0x2F35 JUMP JUMPDEST SWAP2 POP PUSH2 0x3BBB DUP3 PUSH2 0x3B56 JUMP JUMPDEST PUSH1 0x40 DUP3 ADD SWAP1 POP SWAP2 SWAP1 POP JUMP JUMPDEST PUSH0 PUSH1 0x20 DUP3 ADD SWAP1 POP DUP2 DUP2 SUB PUSH0 DUP4 ADD MSTORE PUSH2 0x3BDD DUP2 PUSH2 0x3BA4 JUMP JUMPDEST SWAP1 POP SWAP2 SWAP1 POP JUMP JUMPDEST PUSH32 0x4F6E6C79206C616E646C6F7264732063616E20617070726F7665206561726C79 PUSH0 DUP3 ADD MSTORE PUSH32 0x207465726D696E6174696F6E0000000000000000000000000000000000000000 PUSH1 0x20 DUP3 ADD MSTORE POP JUMP JUMPDEST PUSH0 PUSH2 0x3C3E PUSH1 0x2C DUP4 PUSH2 0x2F35 JUMP JUMPDEST SWAP2 POP PUSH2 0x3C49 DUP3 PUSH2 0x3BE4 JUMP JUMPDEST PUSH1 0x40 DUP3 ADD SWAP1 POP SWAP2 SWAP1 POP JUMP JUMPDEST PUSH0 PUSH1 0x20 DUP3 ADD SWAP1 POP DUP2 DUP2 SUB PUSH0 DUP4 ADD MSTORE PUSH2 0x3C6B DUP2 PUSH2 0x3C32 JUMP JUMPDEST SWAP1 POP SWAP2 SWAP1 POP JUMP JUMPDEST PUSH32 0x496E76616C6964207265717565737420696E6465780000000000000000000000 PUSH0 DUP3 ADD MSTORE POP JUMP JUMPDEST PUSH0 PUSH2 0x3CA6 PUSH1 0x15 DUP4 PUSH2 0x2F35 JUMP JUMPDEST SWAP2 POP PUSH2 0x3CB1 DUP3 PUSH2 0x3C72 JUMP JUMPDEST PUSH1 0x20 DUP3 ADD SWAP1 POP SWAP2 SWAP1 POP JUMP JUMPDEST PUSH0 PUSH1 0x20 DUP3 ADD SWAP1 POP DUP2 DUP2 SUB PUSH0 DUP4 ADD MSTORE PUSH2 0x3CD3 DUP2 PUSH2 0x3C9A JUMP JUMPDEST SWAP1 POP SWAP2 SWAP1 POP JUMP JUMPDEST PUSH32 0x596F7520617265206E6F7420746865206F776E6572206F66207468652070726F PUSH0 DUP3 ADD MSTORE PUSH32 0x7065727479000000000000000000000000000000000000000000000000000000 PUSH1 0x20 DUP3 ADD MSTORE POP JUMP JUMPDEST PUSH0 PUSH2 0x3D34 PUSH1 0x25 DUP4 PUSH2 0x2F35 JUMP JUMPDEST SWAP2 POP PUSH2 0x3D3F DUP3 PUSH2 0x3CDA JUMP JUMPDEST PUSH1 0x40 DUP3 ADD SWAP1 POP SWAP2 SWAP1 POP JUMP JUMPDEST PUSH0 PUSH1 0x20 DUP3 ADD SWAP1 POP DUP2 DUP2 SUB PUSH0 DUP4 ADD MSTORE PUSH2 0x3D61 DUP2 PUSH2 0x3D28 JUMP JUMPDEST SWAP1 POP SWAP2 SWAP1 POP JUMP JUMPDEST PUSH32 0x4F6E6C79206C616E646C6F7264732063616E207465726D696E617465206C6561 PUSH0 DUP3 ADD MSTORE PUSH32 0x7365730000000000000000000000000000000000000000000000000000000000 PUSH1 0x20 DUP3 ADD MSTORE POP JUMP JUMPDEST PUSH0 PUSH2 0x3DC2 PUSH1 0x23 DUP4 PUSH2 0x2F35 JUMP JUMPDEST SWAP2 POP PUSH2 0x3DCD DUP3 PUSH2 0x3D68 JUMP JUMPDEST PUSH1 0x40 DUP3 ADD SWAP1 POP SWAP2 SWAP1 POP JUMP JUMPDEST PUSH0 PUSH1 0x20 DUP3 ADD SWAP1 POP DUP2 DUP2 SUB PUSH0 DUP4 ADD MSTORE PUSH2 0x3DEF DUP2 PUSH2 0x3DB6 JUMP JUMPDEST SWAP1 POP SWAP2 SWAP1 POP JUMP INVALID LOG2 PUSH5 0x6970667358 0x22 SLT KECCAK256 SWAP6 0xD6 MSTORE 0xB0 0xE2 0x21 CALLVALUE 0x2C LOG1 0xA7 CALLVALUE 0xEB 0x2E 0xD0 0x2B EXTCODEHASH 0xB9 0xF PUSH22 0x8C94CA3472AA8B66A36D63991264736F6C6343000816 STOP CALLER "
				},
				"gasEstimates": {
					"creation": {
						"codeDepositCost": "3183200",
						"executionCost": "8534",
						"totalCost": "3191734"
					},
					"external": {
						"approveEarlyTermination(uint256)": "infinite",
						"complains(uint256)": "infinite",
						"createProperty(string,string)": "infinite",
						"createRent(int256,address,uint256,uint256)": "infinite",
						"createUser(string,bool,bool)": "infinite",
						"earlyTerminationRequests(uint256)": "infinite",
						"getLandlordComplaints()": "infinite",
						"getProperties(int256)": "infinite",
						"getTenantsComplains()": "infinite",
						"landlordCount()": "2471",
						"makeComplain(int256,string)": "infinite",
						"properties(int256)": "infinite",
						"propertyIdCounter()": "2449",
						"rentedProperties()": "infinite",
						"rents(uint256)": "infinite",
						"replyTheComplain(uint256,string)": "infinite",
						"requestEarlyTermination(int256)": "infinite",
						"tenantCount()": "2537",
						"terminateRent(int256,address)": "infinite",
						"userList(uint256)": "5033",
						"users(address)": "infinite"
					}
				},
				"methodIdentifiers": {
					"approveEarlyTermination(uint256)": "ae23d553",
					"complains(uint256)": "4ea30b2f",
					"createProperty(string,string)": "07460b66",
					"createRent(int256,address,uint256,uint256)": "35bdd1ee",
					"createUser(string,bool,bool)": "16ef034c",
					"earlyTerminationRequests(uint256)": "63575877",
					"getLandlordComplaints()": "33625e78",
					"getProperties(int256)": "cad140cf",
					"getTenantsComplains()": "13704eaf",
					"landlordCount()": "06552091",
					"makeComplain(int256,string)": "06e72313",
					"properties(int256)": "70acd52a",
					"propertyIdCounter()": "00d89033",
					"rentedProperties()": "fb1899ab",
					"rents(uint256)": "a05d098c",
					"replyTheComplain(uint256,string)": "ac00eedc",
					"requestEarlyTermination(int256)": "3317e396",
					"tenantCount()": "1307430a",
					"terminateRent(int256,address)": "e4236d13",
					"userList(uint256)": "9f4216e8",
					"users(address)": "a87430ba"
				}
			},
			"storageLayout": {
				"storage": [
					{
						"astId": 53,
						"contract": "contracts/PropertyTrade.sol:PropertyManagment",
						"label": "users",
						"offset": 0,
						"slot": "0",
						"type": "t_mapping(t_address,t_struct(User)8_storage)"
					},
					{
						"astId": 58,
						"contract": "contracts/PropertyTrade.sol:PropertyManagment",
						"label": "properties",
						"offset": 0,
						"slot": "1",
						"type": "t_mapping(t_int256,t_struct(Property)21_storage)"
					},
					{
						"astId": 61,
						"contract": "contracts/PropertyTrade.sol:PropertyManagment",
						"label": "userList",
						"offset": 0,
						"slot": "2",
						"type": "t_array(t_address)dyn_storage"
					},
					{
						"astId": 63,
						"contract": "contracts/PropertyTrade.sol:PropertyManagment",
						"label": "propertyIdCounter",
						"offset": 0,
						"slot": "3",
						"type": "t_int256"
					},
					{
						"astId": 65,
						"contract": "contracts/PropertyTrade.sol:PropertyManagment",
						"label": "tenantCount",
						"offset": 0,
						"slot": "4",
						"type": "t_uint256"
					},
					{
						"astId": 67,
						"contract": "contracts/PropertyTrade.sol:PropertyManagment",
						"label": "landlordCount",
						"offset": 0,
						"slot": "5",
						"type": "t_uint256"
					},
					{
						"astId": 71,
						"contract": "contracts/PropertyTrade.sol:PropertyManagment",
						"label": "rents",
						"offset": 0,
						"slot": "6",
						"type": "t_array(t_struct(Rent)30_storage)dyn_storage"
					},
					{
						"astId": 75,
						"contract": "contracts/PropertyTrade.sol:PropertyManagment",
						"label": "complains",
						"offset": 0,
						"slot": "7",
						"type": "t_array(t_struct(Complain)39_storage)dyn_storage"
					},
					{
						"astId": 79,
						"contract": "contracts/PropertyTrade.sol:PropertyManagment",
						"label": "earlyTerminationRequests",
						"offset": 0,
						"slot": "8",
						"type": "t_array(t_struct(EarlyTermination)48_storage)dyn_storage"
					}
				],
				"types": {
					"t_address": {
						"encoding": "inplace",
						"label": "address",
						"numberOfBytes": "20"
					},
					"t_array(t_address)dyn_storage": {
						"base": "t_address",
						"encoding": "dynamic_array",
						"label": "address[]",
						"numberOfBytes": "32"
					},
					"t_array(t_struct(Complain)39_storage)dyn_storage": {
						"base": "t_struct(Complain)39_storage",
						"encoding": "dynamic_array",
						"label": "struct PropertyManagment.Complain[]",
						"numberOfBytes": "32"
					},
					"t_array(t_struct(EarlyTermination)48_storage)dyn_storage": {
						"base": "t_struct(EarlyTermination)48_storage",
						"encoding": "dynamic_array",
						"label": "struct PropertyManagment.EarlyTermination[]",
						"numberOfBytes": "32"
					},
					"t_array(t_struct(Rent)30_storage)dyn_storage": {
						"base": "t_struct(Rent)30_storage",
						"encoding": "dynamic_array",
						"label": "struct PropertyManagment.Rent[]",
						"numberOfBytes": "32"
					},
					"t_bool": {
						"encoding": "inplace",
						"label": "bool",
						"numberOfBytes": "1"
					},
					"t_int256": {
						"encoding": "inplace",
						"label": "int256",
						"numberOfBytes": "32"
					},
					"t_mapping(t_address,t_struct(User)8_storage)": {
						"encoding": "mapping",
						"key": "t_address",
						"label": "mapping(address => struct PropertyManagment.User)",
						"numberOfBytes": "32",
						"value": "t_struct(User)8_storage"
					},
					"t_mapping(t_int256,t_struct(Property)21_storage)": {
						"encoding": "mapping",
						"key": "t_int256",
						"label": "mapping(int256 => struct PropertyManagment.Property)",
						"numberOfBytes": "32",
						"value": "t_struct(Property)21_storage"
					},
					"t_string_storage": {
						"encoding": "bytes",
						"label": "string",
						"numberOfBytes": "32"
					},
					"t_struct(Complain)39_storage": {
						"encoding": "inplace",
						"label": "struct PropertyManagment.Complain",
						"members": [
							{
								"astId": 32,
								"contract": "contracts/PropertyTrade.sol:PropertyManagment",
								"label": "user",
								"offset": 0,
								"slot": "0",
								"type": "t_address"
							},
							{
								"astId": 34,
								"contract": "contracts/PropertyTrade.sol:PropertyManagment",
								"label": "rentalId",
								"offset": 0,
								"slot": "1",
								"type": "t_int256"
							},
							{
								"astId": 36,
								"contract": "contracts/PropertyTrade.sol:PropertyManagment",
								"label": "text",
								"offset": 0,
								"slot": "2",
								"type": "t_string_storage"
							},
							{
								"astId": 38,
								"contract": "contracts/PropertyTrade.sol:PropertyManagment",
								"label": "reply",
								"offset": 0,
								"slot": "3",
								"type": "t_string_storage"
							}
						],
						"numberOfBytes": "128"
					},
					"t_struct(EarlyTermination)48_storage": {
						"encoding": "inplace",
						"label": "struct PropertyManagment.EarlyTermination",
						"members": [
							{
								"astId": 41,
								"contract": "contracts/PropertyTrade.sol:PropertyManagment",
								"label": "tenant",
								"offset": 0,
								"slot": "0",
								"type": "t_address"
							},
							{
								"astId": 43,
								"contract": "contracts/PropertyTrade.sol:PropertyManagment",
								"label": "rentalId",
								"offset": 0,
								"slot": "1",
								"type": "t_int256"
							},
							{
								"astId": 45,
								"contract": "contracts/PropertyTrade.sol:PropertyManagment",
								"label": "requestTime",
								"offset": 0,
								"slot": "2",
								"type": "t_uint256"
							},
							{
								"astId": 47,
								"contract": "contracts/PropertyTrade.sol:PropertyManagment",
								"label": "isApproved",
								"offset": 0,
								"slot": "3",
								"type": "t_bool"
							}
						],
						"numberOfBytes": "128"
					},
					"t_struct(Property)21_storage": {
						"encoding": "inplace",
						"label": "struct PropertyManagment.Property",
						"members": [
							{
								"astId": 10,
								"contract": "contracts/PropertyTrade.sol:PropertyManagment",
								"label": "id",
								"offset": 0,
								"slot": "0",
								"type": "t_int256"
							},
							{
								"astId": 12,
								"contract": "contracts/PropertyTrade.sol:PropertyManagment",
								"label": "location",
								"offset": 0,
								"slot": "1",
								"type": "t_string_storage"
							},
							{
								"astId": 14,
								"contract": "contracts/PropertyTrade.sol:PropertyManagment",
								"label": "description",
								"offset": 0,
								"slot": "2",
								"type": "t_string_storage"
							},
							{
								"astId": 16,
								"contract": "contracts/PropertyTrade.sol:PropertyManagment",
								"label": "owner",
								"offset": 0,
								"slot": "3",
								"type": "t_address"
							},
							{
								"astId": 18,
								"contract": "contracts/PropertyTrade.sol:PropertyManagment",
								"label": "isRented",
								"offset": 20,
								"slot": "3",
								"type": "t_bool"
							},
							{
								"astId": 20,
								"contract": "contracts/PropertyTrade.sol:PropertyManagment",
								"label": "tenant",
								"offset": 0,
								"slot": "4",
								"type": "t_address"
							}
						],
						"numberOfBytes": "160"
					},
					"t_struct(Rent)30_storage": {
						"encoding": "inplace",
						"label": "struct PropertyManagment.Rent",
						"members": [
							{
								"astId": 23,
								"contract": "contracts/PropertyTrade.sol:PropertyManagment",
								"label": "rentalId",
								"offset": 0,
								"slot": "0",
								"type": "t_int256"
							},
							{
								"astId": 25,
								"contract": "contracts/PropertyTrade.sol:PropertyManagment",
								"label": "tenant",
								"offset": 0,
								"slot": "1",
								"type": "t_address"
							},
							{
								"astId": 27,
								"contract": "contracts/PropertyTrade.sol:PropertyManagment",
								"label": "startDate",
								"offset": 0,
								"slot": "2",
								"type": "t_uint256"
							},
							{
								"astId": 29,
								"contract": "contracts/PropertyTrade.sol:PropertyManagment",
								"label": "endDate",
								"offset": 0,
								"slot": "3",
								"type": "t_uint256"
							}
						],
						"numberOfBytes": "128"
					},
					"t_struct(User)8_storage": {
						"encoding": "inplace",
						"label": "struct PropertyManagment.User",
						"members": [
							{
								"astId": 3,
								"contract": "contracts/PropertyTrade.sol:PropertyManagment",
								"label": "isTenant",
								"offset": 0,
								"slot": "0",
								"type": "t_bool"
							},
							{
								"astId": 5,
								"contract": "contracts/PropertyTrade.sol:PropertyManagment",
								"label": "isLandlord",
								"offset": 1,
								"slot": "0",
								"type": "t_bool"
							},
							{
								"astId": 7,
								"contract": "contracts/PropertyTrade.sol:PropertyManagment",
								"label": "name",
								"offset": 0,
								"slot": "1",
								"type": "t_string_storage"
							}
						],
						"numberOfBytes": "64"
					},
					"t_uint256": {
						"encoding": "inplace",
						"label": "uint256",
						"numberOfBytes": "32"
					}
				}
			},
			"userdoc": {
				"kind": "user",
				"methods": {},
				"version": 1
			}
		}
	}
}