{
	"contracts/PropertyManagment.sol": {
		"PropertyManagement": {
			"abi": [
				{
					"inputs": [],
					"stateMutability": "nonpayable",
					"type": "constructor"
				},
				{
					"anonymous": false,
					"inputs": [
						{
							"indexed": true,
							"internalType": "address",
							"name": "tenantAddress",
							"type": "address"
						},
						{
							"indexed": true,
							"internalType": "address",
							"name": "propertyAddress",
							"type": "address"
						}
					],
					"name": "ContractTerminated",
					"type": "event"
				},
				{
					"anonymous": false,
					"inputs": [
						{
							"indexed": true,
							"internalType": "address",
							"name": "propertyAddress",
							"type": "address"
						},
						{
							"indexed": true,
							"internalType": "address",
							"name": "landlord",
							"type": "address"
						}
					],
					"name": "PropertyRegistered",
					"type": "event"
				},
				{
					"anonymous": false,
					"inputs": [
						{
							"indexed": true,
							"internalType": "address",
							"name": "tenantAddress",
							"type": "address"
						},
						{
							"indexed": true,
							"internalType": "address",
							"name": "propertyAddress",
							"type": "address"
						}
					],
					"name": "TenantApproved",
					"type": "event"
				},
				{
					"inputs": [
						{
							"internalType": "address",
							"name": "_propertyAddress",
							"type": "address"
						},
						{
							"internalType": "address",
							"name": "_tenantAddress",
							"type": "address"
						},
						{
							"internalType": "uint256",
							"name": "_startDate",
							"type": "uint256"
						},
						{
							"internalType": "uint256",
							"name": "_endDate",
							"type": "uint256"
						}
					],
					"name": "approveTenant",
					"outputs": [],
					"stateMutability": "nonpayable",
					"type": "function"
				},
				{
					"inputs": [
						{
							"internalType": "address",
							"name": "_tenantAddress",
							"type": "address"
						}
					],
					"name": "confirmTermination",
					"outputs": [],
					"stateMutability": "nonpayable",
					"type": "function"
				},
				{
					"inputs": [
						{
							"internalType": "address",
							"name": "_propertyAddress",
							"type": "address"
						}
					],
					"name": "getPropertyDetails",
					"outputs": [
						{
							"internalType": "address",
							"name": "",
							"type": "address"
						},
						{
							"internalType": "string",
							"name": "",
							"type": "string"
						},
						{
							"internalType": "uint256",
							"name": "",
							"type": "uint256"
						}
					],
					"stateMutability": "view",
					"type": "function"
				},
				{
					"inputs": [
						{
							"internalType": "address",
							"name": "_tenantAddress",
							"type": "address"
						}
					],
					"name": "getTenantDetails",
					"outputs": [
						{
							"internalType": "address",
							"name": "",
							"type": "address"
						},
						{
							"internalType": "address",
							"name": "",
							"type": "address"
						},
						{
							"internalType": "uint256",
							"name": "",
							"type": "uint256"
						},
						{
							"internalType": "uint256",
							"name": "",
							"type": "uint256"
						},
						{
							"internalType": "bool",
							"name": "",
							"type": "bool"
						},
						{
							"internalType": "bool",
							"name": "",
							"type": "bool"
						}
					],
					"stateMutability": "view",
					"type": "function"
				},
				{
					"inputs": [],
					"name": "owner",
					"outputs": [
						{
							"internalType": "address",
							"name": "",
							"type": "address"
						}
					],
					"stateMutability": "view",
					"type": "function"
				},
				{
					"inputs": [
						{
							"internalType": "address",
							"name": "",
							"type": "address"
						}
					],
					"name": "properties",
					"outputs": [
						{
							"internalType": "address",
							"name": "landlord",
							"type": "address"
						},
						{
							"internalType": "string",
							"name": "location",
							"type": "string"
						},
						{
							"internalType": "uint256",
							"name": "rentAmount",
							"type": "uint256"
						}
					],
					"stateMutability": "view",
					"type": "function"
				},
				{
					"inputs": [
						{
							"internalType": "string",
							"name": "_location",
							"type": "string"
						},
						{
							"internalType": "uint256",
							"name": "_rentAmount",
							"type": "uint256"
						}
					],
					"name": "registerProperty",
					"outputs": [],
					"stateMutability": "nonpayable",
					"type": "function"
				},
				{
					"inputs": [],
					"name": "requestContractTermination",
					"outputs": [],
					"stateMutability": "nonpayable",
					"type": "function"
				},
				{
					"inputs": [
						{
							"internalType": "address",
							"name": "",
							"type": "address"
						}
					],
					"name": "tenants",
					"outputs": [
						{
							"internalType": "address",
							"name": "tenantAddress",
							"type": "address"
						},
						{
							"internalType": "address",
							"name": "propertyAddress",
							"type": "address"
						},
						{
							"internalType": "uint256",
							"name": "rentStartDate",
							"type": "uint256"
						},
						{
							"internalType": "uint256",
							"name": "rentEndDate",
							"type": "uint256"
						},
						{
							"internalType": "bool",
							"name": "isTerminated",
							"type": "bool"
						},
						{
							"internalType": "bool",
							"name": "landlordConsent",
							"type": "bool"
						}
					],
					"stateMutability": "view",
					"type": "function"
				}
			],
			"devdoc": {
				"kind": "dev",
				"methods": {},
				"version": 1
			},
			"evm": {
				"assembly": "    /* \"contracts/PropertyManagment.sol\":27:3247  contract PropertyManagement {... */\n  mstore(0x40, 0x80)\n    /* \"contracts/PropertyManagment.sol\":1008:1059  constructor() {... */\n  callvalue\n  dup1\n  iszero\n  tag_1\n  jumpi\n  0x00\n  dup1\n  revert\ntag_1:\n  pop\n    /* \"contracts/PropertyManagment.sol\":1041:1051  msg.sender */\n  caller\n    /* \"contracts/PropertyManagment.sol\":1033:1038  owner */\n  0x00\n  dup1\n    /* \"contracts/PropertyManagment.sol\":1033:1051  owner = msg.sender */\n  0x0100\n  exp\n  dup2\n  sload\n  dup2\n  0xffffffffffffffffffffffffffffffffffffffff\n  mul\n  not\n  and\n  swap1\n  dup4\n  0xffffffffffffffffffffffffffffffffffffffff\n  and\n  mul\n  or\n  swap1\n  sstore\n  pop\n    /* \"contracts/PropertyManagment.sol\":27:3247  contract PropertyManagement {... */\n  dataSize(sub_0)\n  dup1\n  dataOffset(sub_0)\n  0x00\n  codecopy\n  0x00\n  return\nstop\n\nsub_0: assembly {\n        /* \"contracts/PropertyManagment.sol\":27:3247  contract PropertyManagement {... */\n      mstore(0x40, 0x80)\n      callvalue\n      dup1\n      iszero\n      tag_1\n      jumpi\n      0x00\n      dup1\n      revert\n    tag_1:\n      pop\n      jumpi(tag_2, lt(calldatasize, 0x04))\n      shr(0xe0, calldataload(0x00))\n      dup1\n      0x7c539718\n      gt\n      tag_12\n      jumpi\n      dup1\n      0x7c539718\n      eq\n      tag_7\n      jumpi\n      dup1\n      0x8da5cb5b\n      eq\n      tag_8\n      jumpi\n      dup1\n      0xa00d7d40\n      eq\n      tag_9\n      jumpi\n      dup1\n      0xa67d6ead\n      eq\n      tag_10\n      jumpi\n      dup1\n      0xfd9153a3\n      eq\n      tag_11\n      jumpi\n      jump(tag_2)\n    tag_12:\n      dup1\n      0x021e00b0\n      eq\n      tag_3\n      jumpi\n      dup1\n      0x041dcffa\n      eq\n      tag_4\n      jumpi\n      dup1\n      0x25ec77d7\n      eq\n      tag_5\n      jumpi\n      dup1\n      0x26a12fb8\n      eq\n      tag_6\n      jumpi\n    tag_2:\n      0x00\n      dup1\n      revert\n        /* \"contracts/PropertyManagment.sol\":2642:2901  function getPropertyDetails(address _propertyAddress) public view returns (address, string memory, uint256) {... */\n    tag_3:\n      tag_13\n      0x04\n      dup1\n      calldatasize\n      sub\n      dup2\n      add\n      swap1\n      tag_14\n      swap2\n      swap1\n      tag_15\n      jump\t// in\n    tag_14:\n      tag_16\n      jump\t// in\n    tag_13:\n      mload(0x40)\n      tag_17\n      swap4\n      swap3\n      swap2\n      swap1\n      tag_18\n      jump\t// in\n    tag_17:\n      mload(0x40)\n      dup1\n      swap2\n      sub\n      swap1\n      return\n        /* \"contracts/PropertyManagment.sol\":2068:2634  function confirmTermination(address _tenantAddress) public {... */\n    tag_4:\n      tag_19\n      0x04\n      dup1\n      calldatasize\n      sub\n      dup2\n      add\n      swap1\n      tag_20\n      swap2\n      swap1\n      tag_15\n      jump\t// in\n    tag_20:\n      tag_21\n      jump\t// in\n    tag_19:\n      stop\n        /* \"contracts/PropertyManagment.sol\":240:286  mapping(address => Property) public properties */\n    tag_5:\n      tag_22\n      0x04\n      dup1\n      calldatasize\n      sub\n      dup2\n      add\n      swap1\n      tag_23\n      swap2\n      swap1\n      tag_15\n      jump\t// in\n    tag_23:\n      tag_24\n      jump\t// in\n    tag_22:\n      mload(0x40)\n      tag_25\n      swap4\n      swap3\n      swap2\n      swap1\n      tag_18\n      jump\t// in\n    tag_25:\n      mload(0x40)\n      dup1\n      swap2\n      sub\n      swap1\n      return\n        /* \"contracts/PropertyManagment.sol\":2909:3244  function getTenantDetails(address _tenantAddress) public view returns (address, address, uint256, uint256, bool, bool) {... */\n    tag_6:\n      tag_26\n      0x04\n      dup1\n      calldatasize\n      sub\n      dup2\n      add\n      swap1\n      tag_27\n      swap2\n      swap1\n      tag_15\n      jump\t// in\n    tag_27:\n      tag_28\n      jump\t// in\n    tag_26:\n      mload(0x40)\n      tag_29\n      swap7\n      swap6\n      swap5\n      swap4\n      swap3\n      swap2\n      swap1\n      tag_30\n      jump\t// in\n    tag_29:\n      mload(0x40)\n      dup1\n      swap2\n      sub\n      swap1\n      return\n        /* \"contracts/PropertyManagment.sol\":1067:1388  function registerProperty(string memory _location, uint256 _rentAmount) public {... */\n    tag_7:\n      tag_31\n      0x04\n      dup1\n      calldatasize\n      sub\n      dup2\n      add\n      swap1\n      tag_32\n      swap2\n      swap1\n      tag_33\n      jump\t// in\n    tag_32:\n      tag_34\n      jump\t// in\n    tag_31:\n      stop\n        /* \"contracts/PropertyManagment.sol\":62:82  address public owner */\n    tag_8:\n      tag_35\n      tag_36\n      jump\t// in\n    tag_35:\n      mload(0x40)\n      tag_37\n      swap2\n      swap1\n      tag_38\n      jump\t// in\n    tag_37:\n      mload(0x40)\n      dup1\n      swap2\n      sub\n      swap1\n      return\n        /* \"contracts/PropertyManagment.sol\":1804:2060  function requestContractTermination() public {... */\n    tag_9:\n      tag_39\n      tag_40\n      jump\t// in\n    tag_39:\n      stop\n        /* \"contracts/PropertyManagment.sol\":1396:1796  function approveTenant(address _propertyAddress, address _tenantAddress, uint256 _startDate, uint256 _endDate) public {... */\n    tag_10:\n      tag_41\n      0x04\n      dup1\n      calldatasize\n      sub\n      dup2\n      add\n      swap1\n      tag_42\n      swap2\n      swap1\n      tag_43\n      jump\t// in\n    tag_42:\n      tag_44\n      jump\t// in\n    tag_41:\n      stop\n        /* \"contracts/PropertyManagment.sol\":545:586  mapping(address => Tenant) public tenants */\n    tag_11:\n      tag_45\n      0x04\n      dup1\n      calldatasize\n      sub\n      dup2\n      add\n      swap1\n      tag_46\n      swap2\n      swap1\n      tag_15\n      jump\t// in\n    tag_46:\n      tag_47\n      jump\t// in\n    tag_45:\n      mload(0x40)\n      tag_48\n      swap7\n      swap6\n      swap5\n      swap4\n      swap3\n      swap2\n      swap1\n      tag_30\n      jump\t// in\n    tag_48:\n      mload(0x40)\n      dup1\n      swap2\n      sub\n      swap1\n      return\n        /* \"contracts/PropertyManagment.sol\":2642:2901  function getPropertyDetails(address _propertyAddress) public view returns (address, string memory, uint256) {... */\n    tag_16:\n        /* \"contracts/PropertyManagment.sol\":2717:2724  address */\n      0x00\n        /* \"contracts/PropertyManagment.sol\":2726:2739  string memory */\n      0x60\n        /* \"contracts/PropertyManagment.sol\":2741:2748  uint256 */\n      0x00\n        /* \"contracts/PropertyManagment.sol\":2761:2785  Property memory property */\n      dup1\n        /* \"contracts/PropertyManagment.sol\":2788:2798  properties */\n      0x01\n        /* \"contracts/PropertyManagment.sol\":2788:2816  properties[_propertyAddress] */\n      0x00\n        /* \"contracts/PropertyManagment.sol\":2799:2815  _propertyAddress */\n      dup7\n        /* \"contracts/PropertyManagment.sol\":2788:2816  properties[_propertyAddress] */\n      0xffffffffffffffffffffffffffffffffffffffff\n      and\n      0xffffffffffffffffffffffffffffffffffffffff\n      and\n      dup2\n      mstore\n      0x20\n      add\n      swap1\n      dup2\n      mstore\n      0x20\n      add\n      0x00\n      keccak256\n        /* \"contracts/PropertyManagment.sol\":2761:2816  Property memory property = properties[_propertyAddress] */\n      mload(0x40)\n      dup1\n      0x60\n      add\n      0x40\n      mstore\n      swap1\n      dup2\n      0x00\n      dup3\n      add\n      0x00\n      swap1\n      sload\n      swap1\n      0x0100\n      exp\n      swap1\n      div\n      0xffffffffffffffffffffffffffffffffffffffff\n      and\n      0xffffffffffffffffffffffffffffffffffffffff\n      and\n      0xffffffffffffffffffffffffffffffffffffffff\n      and\n      dup2\n      mstore\n      0x20\n      add\n      0x01\n      dup3\n      add\n      dup1\n      sload\n      tag_50\n      swap1\n      tag_51\n      jump\t// in\n    tag_50:\n      dup1\n      0x1f\n      add\n      0x20\n      dup1\n      swap2\n      div\n      mul\n      0x20\n      add\n      mload(0x40)\n      swap1\n      dup2\n      add\n      0x40\n      mstore\n      dup1\n      swap3\n      swap2\n      swap1\n      dup2\n      dup2\n      mstore\n      0x20\n      add\n      dup3\n      dup1\n      sload\n      tag_52\n      swap1\n      tag_51\n      jump\t// in\n    tag_52:\n      dup1\n      iszero\n      tag_53\n      jumpi\n      dup1\n      0x1f\n      lt\n      tag_54\n      jumpi\n      0x0100\n      dup1\n      dup4\n      sload\n      div\n      mul\n      dup4\n      mstore\n      swap2\n      0x20\n      add\n      swap2\n      jump(tag_53)\n    tag_54:\n      dup3\n      add\n      swap2\n      swap1\n      0x00\n      mstore\n      keccak256(0x00, 0x20)\n      swap1\n    tag_55:\n      dup2\n      sload\n      dup2\n      mstore\n      swap1\n      0x01\n      add\n      swap1\n      0x20\n      add\n      dup1\n      dup4\n      gt\n      tag_55\n      jumpi\n      dup3\n      swap1\n      sub\n      0x1f\n      and\n      dup3\n      add\n      swap2\n    tag_53:\n      pop\n      pop\n      pop\n      pop\n      pop\n      dup2\n      mstore\n      0x20\n      add\n      0x02\n      dup3\n      add\n      sload\n      dup2\n      mstore\n      pop\n      pop\n      swap1\n      pop\n        /* \"contracts/PropertyManagment.sol\":2835:2843  property */\n      dup1\n        /* \"contracts/PropertyManagment.sol\":2835:2852  property.landlord */\n      0x00\n      add\n      mload\n        /* \"contracts/PropertyManagment.sol\":2854:2862  property */\n      dup2\n        /* \"contracts/PropertyManagment.sol\":2854:2871  property.location */\n      0x20\n      add\n      mload\n        /* \"contracts/PropertyManagment.sol\":2873:2881  property */\n      dup3\n        /* \"contracts/PropertyManagment.sol\":2873:2892  property.rentAmount */\n      0x40\n      add\n      mload\n        /* \"contracts/PropertyManagment.sol\":2827:2893  return (property.landlord, property.location, property.rentAmount) */\n      swap4\n      pop\n      swap4\n      pop\n      swap4\n      pop\n      pop\n        /* \"contracts/PropertyManagment.sol\":2642:2901  function getPropertyDetails(address _propertyAddress) public view returns (address, string memory, uint256) {... */\n      swap2\n      swap4\n      swap1\n      swap3\n      pop\n      jump\t// out\n        /* \"contracts/PropertyManagment.sol\":2068:2634  function confirmTermination(address _tenantAddress) public {... */\n    tag_21:\n        /* \"contracts/PropertyManagment.sol\":2206:2216  msg.sender */\n      caller\n        /* \"contracts/PropertyManagment.sol\":2146:2216  properties[tenants[msg.sender].propertyAddress].landlord == msg.sender */\n      0xffffffffffffffffffffffffffffffffffffffff\n      and\n        /* \"contracts/PropertyManagment.sol\":2146:2156  properties */\n      0x01\n        /* \"contracts/PropertyManagment.sol\":2146:2193  properties[tenants[msg.sender].propertyAddress] */\n      0x00\n        /* \"contracts/PropertyManagment.sol\":2157:2164  tenants */\n      0x02\n        /* \"contracts/PropertyManagment.sol\":2157:2176  tenants[msg.sender] */\n      0x00\n        /* \"contracts/PropertyManagment.sol\":2165:2175  msg.sender */\n      caller\n        /* \"contracts/PropertyManagment.sol\":2157:2176  tenants[msg.sender] */\n      0xffffffffffffffffffffffffffffffffffffffff\n      and\n      0xffffffffffffffffffffffffffffffffffffffff\n      and\n      dup2\n      mstore\n      0x20\n      add\n      swap1\n      dup2\n      mstore\n      0x20\n      add\n      0x00\n      keccak256\n        /* \"contracts/PropertyManagment.sol\":2157:2192  tenants[msg.sender].propertyAddress */\n      0x01\n      add\n      0x00\n      swap1\n      sload\n      swap1\n      0x0100\n      exp\n      swap1\n      div\n      0xffffffffffffffffffffffffffffffffffffffff\n      and\n        /* \"contracts/PropertyManagment.sol\":2146:2193  properties[tenants[msg.sender].propertyAddress] */\n      0xffffffffffffffffffffffffffffffffffffffff\n      and\n      0xffffffffffffffffffffffffffffffffffffffff\n      and\n      dup2\n      mstore\n      0x20\n      add\n      swap1\n      dup2\n      mstore\n      0x20\n      add\n      0x00\n      keccak256\n        /* \"contracts/PropertyManagment.sol\":2146:2202  properties[tenants[msg.sender].propertyAddress].landlord */\n      0x00\n      add\n      0x00\n      swap1\n      sload\n      swap1\n      0x0100\n      exp\n      swap1\n      div\n      0xffffffffffffffffffffffffffffffffffffffff\n      and\n        /* \"contracts/PropertyManagment.sol\":2146:2216  properties[tenants[msg.sender].propertyAddress].landlord == msg.sender */\n      0xffffffffffffffffffffffffffffffffffffffff\n      and\n      eq\n        /* \"contracts/PropertyManagment.sol\":2138:2243  require(properties[tenants[msg.sender].propertyAddress].landlord == msg.sender, \"Not the property owner\") */\n      tag_57\n      jumpi\n      mload(0x40)\n      0x08c379a000000000000000000000000000000000000000000000000000000000\n      dup2\n      mstore\n      0x04\n      add\n      tag_58\n      swap1\n      tag_59\n      jump\t// in\n    tag_58:\n      mload(0x40)\n      dup1\n      swap2\n      sub\n      swap1\n      revert\n    tag_57:\n        /* \"contracts/PropertyManagment.sol\":2262:2269  tenants */\n      0x02\n        /* \"contracts/PropertyManagment.sol\":2262:2285  tenants[_tenantAddress] */\n      0x00\n        /* \"contracts/PropertyManagment.sol\":2270:2284  _tenantAddress */\n      dup3\n        /* \"contracts/PropertyManagment.sol\":2262:2285  tenants[_tenantAddress] */\n      0xffffffffffffffffffffffffffffffffffffffff\n      and\n      0xffffffffffffffffffffffffffffffffffffffff\n      and\n      dup2\n      mstore\n      0x20\n      add\n      swap1\n      dup2\n      mstore\n      0x20\n      add\n      0x00\n      keccak256\n        /* \"contracts/PropertyManagment.sol\":2262:2298  tenants[_tenantAddress].isTerminated */\n      0x04\n      add\n      0x00\n      swap1\n      sload\n      swap1\n      0x0100\n      exp\n      swap1\n      div\n      0xff\n      and\n        /* \"contracts/PropertyManagment.sol\":2254:2339  require(tenants[_tenantAddress].isTerminated, \"Tenant has not requested termination\") */\n      tag_60\n      jumpi\n      mload(0x40)\n      0x08c379a000000000000000000000000000000000000000000000000000000000\n      dup2\n      mstore\n      0x04\n      add\n      tag_61\n      swap1\n      tag_62\n      jump\t// in\n    tag_61:\n      mload(0x40)\n      dup1\n      swap2\n      sub\n      swap1\n      revert\n    tag_60:\n        /* \"contracts/PropertyManagment.sol\":2352:2373  Tenant storage tenant */\n      0x00\n        /* \"contracts/PropertyManagment.sol\":2376:2383  tenants */\n      0x02\n        /* \"contracts/PropertyManagment.sol\":2376:2399  tenants[_tenantAddress] */\n      0x00\n        /* \"contracts/PropertyManagment.sol\":2384:2398  _tenantAddress */\n      dup4\n        /* \"contracts/PropertyManagment.sol\":2376:2399  tenants[_tenantAddress] */\n      0xffffffffffffffffffffffffffffffffffffffff\n      and\n      0xffffffffffffffffffffffffffffffffffffffff\n      and\n      dup2\n      mstore\n      0x20\n      add\n      swap1\n      dup2\n      mstore\n      0x20\n      add\n      0x00\n      keccak256\n        /* \"contracts/PropertyManagment.sol\":2352:2399  Tenant storage tenant = tenants[_tenantAddress] */\n      swap1\n      pop\n        /* \"contracts/PropertyManagment.sol\":2435:2439  true */\n      0x01\n        /* \"contracts/PropertyManagment.sol\":2410:2416  tenant */\n      dup2\n        /* \"contracts/PropertyManagment.sol\":2410:2432  tenant.landlordConsent */\n      0x04\n      add\n      0x01\n        /* \"contracts/PropertyManagment.sol\":2410:2439  tenant.landlordConsent = true */\n      0x0100\n      exp\n      dup2\n      sload\n      dup2\n      0xff\n      mul\n      not\n      and\n      swap1\n      dup4\n      iszero\n      iszero\n      mul\n      or\n      swap1\n      sstore\n      pop\n        /* \"contracts/PropertyManagment.sol\":2456:2462  tenant */\n      dup1\n        /* \"contracts/PropertyManagment.sol\":2456:2478  tenant.landlordConsent */\n      0x04\n      add\n      0x01\n      swap1\n      sload\n      swap1\n      0x0100\n      exp\n      swap1\n      div\n      0xff\n      and\n        /* \"contracts/PropertyManagment.sol\":2452:2627  if (tenant.landlordConsent) {... */\n      iszero\n      tag_63\n      jumpi\n        /* \"contracts/PropertyManagment.sol\":2592:2598  tenant */\n      dup1\n        /* \"contracts/PropertyManagment.sol\":2592:2614  tenant.propertyAddress */\n      0x01\n      add\n      0x00\n      swap1\n      sload\n      swap1\n      0x0100\n      exp\n      swap1\n      div\n      0xffffffffffffffffffffffffffffffffffffffff\n      and\n        /* \"contracts/PropertyManagment.sol\":2557:2615  ContractTerminated(_tenantAddress, tenant.propertyAddress) */\n      0xffffffffffffffffffffffffffffffffffffffff\n      and\n        /* \"contracts/PropertyManagment.sol\":2576:2590  _tenantAddress */\n      dup3\n        /* \"contracts/PropertyManagment.sol\":2557:2615  ContractTerminated(_tenantAddress, tenant.propertyAddress) */\n      0xffffffffffffffffffffffffffffffffffffffff\n      and\n      0x9014317036a91f047fad688c0ee149a303811891885264d3f63cc00ecd62dce8\n      mload(0x40)\n      mload(0x40)\n      dup1\n      swap2\n      sub\n      swap1\n      log3\n        /* \"contracts/PropertyManagment.sol\":2452:2627  if (tenant.landlordConsent) {... */\n    tag_63:\n        /* \"contracts/PropertyManagment.sol\":2127:2634  {... */\n      pop\n        /* \"contracts/PropertyManagment.sol\":2068:2634  function confirmTermination(address _tenantAddress) public {... */\n      pop\n      jump\t// out\n        /* \"contracts/PropertyManagment.sol\":240:286  mapping(address => Property) public properties */\n    tag_24:\n      mstore(0x20, 0x01)\n      dup1\n      0x00\n      mstore\n      keccak256(0x00, 0x40)\n      0x00\n      swap2\n      pop\n      swap1\n      pop\n      dup1\n      0x00\n      add\n      0x00\n      swap1\n      sload\n      swap1\n      0x0100\n      exp\n      swap1\n      div\n      0xffffffffffffffffffffffffffffffffffffffff\n      and\n      swap1\n      dup1\n      0x01\n      add\n      dup1\n      sload\n      tag_64\n      swap1\n      tag_51\n      jump\t// in\n    tag_64:\n      dup1\n      0x1f\n      add\n      0x20\n      dup1\n      swap2\n      div\n      mul\n      0x20\n      add\n      mload(0x40)\n      swap1\n      dup2\n      add\n      0x40\n      mstore\n      dup1\n      swap3\n      swap2\n      swap1\n      dup2\n      dup2\n      mstore\n      0x20\n      add\n      dup3\n      dup1\n      sload\n      tag_65\n      swap1\n      tag_51\n      jump\t// in\n    tag_65:\n      dup1\n      iszero\n      tag_66\n      jumpi\n      dup1\n      0x1f\n      lt\n      tag_67\n      jumpi\n      0x0100\n      dup1\n      dup4\n      sload\n      div\n      mul\n      dup4\n      mstore\n      swap2\n      0x20\n      add\n      swap2\n      jump(tag_66)\n    tag_67:\n      dup3\n      add\n      swap2\n      swap1\n      0x00\n      mstore\n      keccak256(0x00, 0x20)\n      swap1\n    tag_68:\n      dup2\n      sload\n      dup2\n      mstore\n      swap1\n      0x01\n      add\n      swap1\n      0x20\n      add\n      dup1\n      dup4\n      gt\n      tag_68\n      jumpi\n      dup3\n      swap1\n      sub\n      0x1f\n      and\n      dup3\n      add\n      swap2\n    tag_66:\n      pop\n      pop\n      pop\n      pop\n      pop\n      swap1\n      dup1\n      0x02\n      add\n      sload\n      swap1\n      pop\n      dup4\n      jump\t// out\n        /* \"contracts/PropertyManagment.sol\":2909:3244  function getTenantDetails(address _tenantAddress) public view returns (address, address, uint256, uint256, bool, bool) {... */\n    tag_28:\n        /* \"contracts/PropertyManagment.sol\":2980:2987  address */\n      0x00\n        /* \"contracts/PropertyManagment.sol\":2989:2996  address */\n      dup1\n        /* \"contracts/PropertyManagment.sol\":2998:3005  uint256 */\n      0x00\n        /* \"contracts/PropertyManagment.sol\":3007:3014  uint256 */\n      dup1\n        /* \"contracts/PropertyManagment.sol\":3016:3020  bool */\n      0x00\n        /* \"contracts/PropertyManagment.sol\":3022:3026  bool */\n      dup1\n        /* \"contracts/PropertyManagment.sol\":3039:3059  Tenant memory tenant */\n      0x00\n        /* \"contracts/PropertyManagment.sol\":3062:3069  tenants */\n      0x02\n        /* \"contracts/PropertyManagment.sol\":3062:3085  tenants[_tenantAddress] */\n      0x00\n        /* \"contracts/PropertyManagment.sol\":3070:3084  _tenantAddress */\n      dup10\n        /* \"contracts/PropertyManagment.sol\":3062:3085  tenants[_tenantAddress] */\n      0xffffffffffffffffffffffffffffffffffffffff\n      and\n      0xffffffffffffffffffffffffffffffffffffffff\n      and\n      dup2\n      mstore\n      0x20\n      add\n      swap1\n      dup2\n      mstore\n      0x20\n      add\n      0x00\n      keccak256\n        /* \"contracts/PropertyManagment.sol\":3039:3085  Tenant memory tenant = tenants[_tenantAddress] */\n      mload(0x40)\n      dup1\n      0xc0\n      add\n      0x40\n      mstore\n      swap1\n      dup2\n      0x00\n      dup3\n      add\n      0x00\n      swap1\n      sload\n      swap1\n      0x0100\n      exp\n      swap1\n      div\n      0xffffffffffffffffffffffffffffffffffffffff\n      and\n      0xffffffffffffffffffffffffffffffffffffffff\n      and\n      0xffffffffffffffffffffffffffffffffffffffff\n      and\n      dup2\n      mstore\n      0x20\n      add\n      0x01\n      dup3\n      add\n      0x00\n      swap1\n      sload\n      swap1\n      0x0100\n      exp\n      swap1\n      div\n      0xffffffffffffffffffffffffffffffffffffffff\n      and\n      0xffffffffffffffffffffffffffffffffffffffff\n      and\n      0xffffffffffffffffffffffffffffffffffffffff\n      and\n      dup2\n      mstore\n      0x20\n      add\n      0x02\n      dup3\n      add\n      sload\n      dup2\n      mstore\n      0x20\n      add\n      0x03\n      dup3\n      add\n      sload\n      dup2\n      mstore\n      0x20\n      add\n      0x04\n      dup3\n      add\n      0x00\n      swap1\n      sload\n      swap1\n      0x0100\n      exp\n      swap1\n      div\n      0xff\n      and\n      iszero\n      iszero\n      iszero\n      iszero\n      dup2\n      mstore\n      0x20\n      add\n      0x04\n      dup3\n      add\n      0x01\n      swap1\n      sload\n      swap1\n      0x0100\n      exp\n      swap1\n      div\n      0xff\n      and\n      iszero\n      iszero\n      iszero\n      iszero\n      dup2\n      mstore\n      pop\n      pop\n      swap1\n      pop\n        /* \"contracts/PropertyManagment.sol\":3104:3110  tenant */\n      dup1\n        /* \"contracts/PropertyManagment.sol\":3104:3124  tenant.tenantAddress */\n      0x00\n      add\n      mload\n        /* \"contracts/PropertyManagment.sol\":3126:3132  tenant */\n      dup2\n        /* \"contracts/PropertyManagment.sol\":3126:3148  tenant.propertyAddress */\n      0x20\n      add\n      mload\n        /* \"contracts/PropertyManagment.sol\":3150:3156  tenant */\n      dup3\n        /* \"contracts/PropertyManagment.sol\":3150:3170  tenant.rentStartDate */\n      0x40\n      add\n      mload\n        /* \"contracts/PropertyManagment.sol\":3172:3178  tenant */\n      dup4\n        /* \"contracts/PropertyManagment.sol\":3172:3190  tenant.rentEndDate */\n      0x60\n      add\n      mload\n        /* \"contracts/PropertyManagment.sol\":3192:3198  tenant */\n      dup5\n        /* \"contracts/PropertyManagment.sol\":3192:3211  tenant.isTerminated */\n      0x80\n      add\n      mload\n        /* \"contracts/PropertyManagment.sol\":3213:3219  tenant */\n      dup6\n        /* \"contracts/PropertyManagment.sol\":3213:3235  tenant.landlordConsent */\n      0xa0\n      add\n      mload\n        /* \"contracts/PropertyManagment.sol\":3096:3236  return (tenant.tenantAddress, tenant.propertyAddress, tenant.rentStartDate, tenant.rentEndDate, tenant.isTerminated, tenant.landlordConsent) */\n      swap7\n      pop\n      swap7\n      pop\n      swap7\n      pop\n      swap7\n      pop\n      swap7\n      pop\n      swap7\n      pop\n      pop\n        /* \"contracts/PropertyManagment.sol\":2909:3244  function getTenantDetails(address _tenantAddress) public view returns (address, address, uint256, uint256, bool, bool) {... */\n      swap2\n      swap4\n      swap6\n      pop\n      swap2\n      swap4\n      swap6\n      jump\t// out\n        /* \"contracts/PropertyManagment.sol\":1067:1388  function registerProperty(string memory _location, uint256 _rentAmount) public {... */\n    tag_34:\n        /* \"contracts/PropertyManagment.sol\":1208:1209  0 */\n      0x00\n        /* \"contracts/PropertyManagment.sol\":1165:1210  properties[msg.sender].landlord == address(0) */\n      0xffffffffffffffffffffffffffffffffffffffff\n      and\n        /* \"contracts/PropertyManagment.sol\":1165:1175  properties */\n      0x01\n        /* \"contracts/PropertyManagment.sol\":1165:1187  properties[msg.sender] */\n      0x00\n        /* \"contracts/PropertyManagment.sol\":1176:1186  msg.sender */\n      caller\n        /* \"contracts/PropertyManagment.sol\":1165:1187  properties[msg.sender] */\n      0xffffffffffffffffffffffffffffffffffffffff\n      and\n      0xffffffffffffffffffffffffffffffffffffffff\n      and\n      dup2\n      mstore\n      0x20\n      add\n      swap1\n      dup2\n      mstore\n      0x20\n      add\n      0x00\n      keccak256\n        /* \"contracts/PropertyManagment.sol\":1165:1196  properties[msg.sender].landlord */\n      0x00\n      add\n      0x00\n      swap1\n      sload\n      swap1\n      0x0100\n      exp\n      swap1\n      div\n      0xffffffffffffffffffffffffffffffffffffffff\n      and\n        /* \"contracts/PropertyManagment.sol\":1165:1210  properties[msg.sender].landlord == address(0) */\n      0xffffffffffffffffffffffffffffffffffffffff\n      and\n      eq\n        /* \"contracts/PropertyManagment.sol\":1157:1242  require(properties[msg.sender].landlord == address(0), \"Property already registered\") */\n      tag_71\n      jumpi\n      mload(0x40)\n      0x08c379a000000000000000000000000000000000000000000000000000000000\n      dup2\n      mstore\n      0x04\n      add\n      tag_72\n      swap1\n      tag_73\n      jump\t// in\n    tag_72:\n      mload(0x40)\n      dup1\n      swap2\n      sub\n      swap1\n      revert\n    tag_71:\n        /* \"contracts/PropertyManagment.sol\":1278:1322  Property(msg.sender, _location, _rentAmount) */\n      mload(0x40)\n      dup1\n      0x60\n      add\n      0x40\n      mstore\n      dup1\n        /* \"contracts/PropertyManagment.sol\":1287:1297  msg.sender */\n      caller\n        /* \"contracts/PropertyManagment.sol\":1278:1322  Property(msg.sender, _location, _rentAmount) */\n      0xffffffffffffffffffffffffffffffffffffffff\n      and\n      dup2\n      mstore\n      0x20\n      add\n        /* \"contracts/PropertyManagment.sol\":1299:1308  _location */\n      dup4\n        /* \"contracts/PropertyManagment.sol\":1278:1322  Property(msg.sender, _location, _rentAmount) */\n      dup2\n      mstore\n      0x20\n      add\n        /* \"contracts/PropertyManagment.sol\":1310:1321  _rentAmount */\n      dup3\n        /* \"contracts/PropertyManagment.sol\":1278:1322  Property(msg.sender, _location, _rentAmount) */\n      dup2\n      mstore\n      pop\n        /* \"contracts/PropertyManagment.sol\":1253:1263  properties */\n      0x01\n        /* \"contracts/PropertyManagment.sol\":1253:1275  properties[msg.sender] */\n      0x00\n        /* \"contracts/PropertyManagment.sol\":1264:1274  msg.sender */\n      caller\n        /* \"contracts/PropertyManagment.sol\":1253:1275  properties[msg.sender] */\n      0xffffffffffffffffffffffffffffffffffffffff\n      and\n      0xffffffffffffffffffffffffffffffffffffffff\n      and\n      dup2\n      mstore\n      0x20\n      add\n      swap1\n      dup2\n      mstore\n      0x20\n      add\n      0x00\n      keccak256\n        /* \"contracts/PropertyManagment.sol\":1253:1322  properties[msg.sender] = Property(msg.sender, _location, _rentAmount) */\n      0x00\n      dup3\n      add\n      mload\n      dup2\n      0x00\n      add\n      exp(0x0100, 0x00)\n      dup2\n      sload\n      dup2\n      0xffffffffffffffffffffffffffffffffffffffff\n      mul\n      not\n      and\n      swap1\n      dup4\n      0xffffffffffffffffffffffffffffffffffffffff\n      and\n      mul\n      or\n      swap1\n      sstore\n      pop\n      0x20\n      dup3\n      add\n      mload\n      dup2\n      0x01\n      add\n      swap1\n      dup2\n      tag_74\n      swap2\n      swap1\n      tag_75\n      jump\t// in\n    tag_74:\n      pop\n      0x40\n      dup3\n      add\n      mload\n      dup2\n      0x02\n      add\n      sstore\n      swap1\n      pop\n      pop\n        /* \"contracts/PropertyManagment.sol\":1369:1379  msg.sender */\n      caller\n        /* \"contracts/PropertyManagment.sol\":1338:1380  PropertyRegistered(msg.sender, msg.sender) */\n      0xffffffffffffffffffffffffffffffffffffffff\n      and\n        /* \"contracts/PropertyManagment.sol\":1357:1367  msg.sender */\n      caller\n        /* \"contracts/PropertyManagment.sol\":1338:1380  PropertyRegistered(msg.sender, msg.sender) */\n      0xffffffffffffffffffffffffffffffffffffffff\n      and\n      0x0bd76f27e1208c8a9e9a5f16a40ed097af527a3d0f72e7010cab9ef3222609ea\n      mload(0x40)\n      mload(0x40)\n      dup1\n      swap2\n      sub\n      swap1\n      log3\n        /* \"contracts/PropertyManagment.sol\":1067:1388  function registerProperty(string memory _location, uint256 _rentAmount) public {... */\n      pop\n      pop\n      jump\t// out\n        /* \"contracts/PropertyManagment.sol\":62:82  address public owner */\n    tag_36:\n      0x00\n      dup1\n      sload\n      swap1\n      0x0100\n      exp\n      swap1\n      div\n      0xffffffffffffffffffffffffffffffffffffffff\n      and\n      dup2\n      jump\t// out\n        /* \"contracts/PropertyManagment.sol\":1804:2060  function requestContractTermination() public {... */\n    tag_40:\n        /* \"contracts/PropertyManagment.sol\":1860:1881  Tenant storage tenant */\n      0x00\n        /* \"contracts/PropertyManagment.sol\":1884:1891  tenants */\n      0x02\n        /* \"contracts/PropertyManagment.sol\":1884:1903  tenants[msg.sender] */\n      0x00\n        /* \"contracts/PropertyManagment.sol\":1892:1902  msg.sender */\n      caller\n        /* \"contracts/PropertyManagment.sol\":1884:1903  tenants[msg.sender] */\n      0xffffffffffffffffffffffffffffffffffffffff\n      and\n      0xffffffffffffffffffffffffffffffffffffffff\n      and\n      dup2\n      mstore\n      0x20\n      add\n      swap1\n      dup2\n      mstore\n      0x20\n      add\n      0x00\n      keccak256\n        /* \"contracts/PropertyManagment.sol\":1860:1903  Tenant storage tenant = tenants[msg.sender] */\n      swap1\n      pop\n        /* \"contracts/PropertyManagment.sol\":1923:1929  tenant */\n      dup1\n        /* \"contracts/PropertyManagment.sol\":1923:1942  tenant.isTerminated */\n      0x04\n      add\n      0x00\n      swap1\n      sload\n      swap1\n      0x0100\n      exp\n      swap1\n      div\n      0xff\n      and\n        /* \"contracts/PropertyManagment.sol\":1922:1942  !tenant.isTerminated */\n      iszero\n        /* \"contracts/PropertyManagment.sol\":1914:1974  require(!tenant.isTerminated, \"Contract already terminated\") */\n      tag_77\n      jumpi\n      mload(0x40)\n      0x08c379a000000000000000000000000000000000000000000000000000000000\n      dup2\n      mstore\n      0x04\n      add\n      tag_78\n      swap1\n      tag_79\n      jump\t// in\n    tag_78:\n      mload(0x40)\n      dup1\n      swap2\n      sub\n      swap1\n      revert\n    tag_77:\n        /* \"contracts/PropertyManagment.sol\":2007:2011  true */\n      0x01\n        /* \"contracts/PropertyManagment.sol\":1985:1991  tenant */\n      dup2\n        /* \"contracts/PropertyManagment.sol\":1985:2004  tenant.isTerminated */\n      0x04\n      add\n      0x00\n        /* \"contracts/PropertyManagment.sol\":1985:2011  tenant.isTerminated = true */\n      0x0100\n      exp\n      dup2\n      sload\n      dup2\n      0xff\n      mul\n      not\n      and\n      swap1\n      dup4\n      iszero\n      iszero\n      mul\n      or\n      swap1\n      sstore\n      pop\n        /* \"contracts/PropertyManagment.sol\":2047:2052  false */\n      0x00\n        /* \"contracts/PropertyManagment.sol\":2022:2028  tenant */\n      dup2\n        /* \"contracts/PropertyManagment.sol\":2022:2044  tenant.landlordConsent */\n      0x04\n      add\n      0x01\n        /* \"contracts/PropertyManagment.sol\":2022:2052  tenant.landlordConsent = false */\n      0x0100\n      exp\n      dup2\n      sload\n      dup2\n      0xff\n      mul\n      not\n      and\n      swap1\n      dup4\n      iszero\n      iszero\n      mul\n      or\n      swap1\n      sstore\n      pop\n        /* \"contracts/PropertyManagment.sol\":1849:2060  {... */\n      pop\n        /* \"contracts/PropertyManagment.sol\":1804:2060  function requestContractTermination() public {... */\n      jump\t// out\n        /* \"contracts/PropertyManagment.sol\":1396:1796  function approveTenant(address _propertyAddress, address _tenantAddress, uint256 _startDate, uint256 _endDate) public {... */\n    tag_44:\n        /* \"contracts/PropertyManagment.sol\":1574:1584  msg.sender */\n      caller\n        /* \"contracts/PropertyManagment.sol\":1533:1584  properties[_propertyAddress].landlord == msg.sender */\n      0xffffffffffffffffffffffffffffffffffffffff\n      and\n        /* \"contracts/PropertyManagment.sol\":1533:1543  properties */\n      0x01\n        /* \"contracts/PropertyManagment.sol\":1533:1561  properties[_propertyAddress] */\n      0x00\n        /* \"contracts/PropertyManagment.sol\":1544:1560  _propertyAddress */\n      dup7\n        /* \"contracts/PropertyManagment.sol\":1533:1561  properties[_propertyAddress] */\n      0xffffffffffffffffffffffffffffffffffffffff\n      and\n      0xffffffffffffffffffffffffffffffffffffffff\n      and\n      dup2\n      mstore\n      0x20\n      add\n      swap1\n      dup2\n      mstore\n      0x20\n      add\n      0x00\n      keccak256\n        /* \"contracts/PropertyManagment.sol\":1533:1570  properties[_propertyAddress].landlord */\n      0x00\n      add\n      0x00\n      swap1\n      sload\n      swap1\n      0x0100\n      exp\n      swap1\n      div\n      0xffffffffffffffffffffffffffffffffffffffff\n      and\n        /* \"contracts/PropertyManagment.sol\":1533:1584  properties[_propertyAddress].landlord == msg.sender */\n      0xffffffffffffffffffffffffffffffffffffffff\n      and\n      eq\n        /* \"contracts/PropertyManagment.sol\":1525:1611  require(properties[_propertyAddress].landlord == msg.sender, \"Not the property owner\") */\n      tag_81\n      jumpi\n      mload(0x40)\n      0x08c379a000000000000000000000000000000000000000000000000000000000\n      dup2\n      mstore\n      0x04\n      add\n      tag_82\n      swap1\n      tag_59\n      jump\t// in\n    tag_82:\n      mload(0x40)\n      dup1\n      swap2\n      sub\n      swap1\n      revert\n    tag_81:\n        /* \"contracts/PropertyManagment.sol\":1648:1724  Tenant(_tenantAddress, _propertyAddress, _startDate, _endDate, false, false) */\n      mload(0x40)\n      dup1\n      0xc0\n      add\n      0x40\n      mstore\n      dup1\n        /* \"contracts/PropertyManagment.sol\":1655:1669  _tenantAddress */\n      dup5\n        /* \"contracts/PropertyManagment.sol\":1648:1724  Tenant(_tenantAddress, _propertyAddress, _startDate, _endDate, false, false) */\n      0xffffffffffffffffffffffffffffffffffffffff\n      and\n      dup2\n      mstore\n      0x20\n      add\n        /* \"contracts/PropertyManagment.sol\":1671:1687  _propertyAddress */\n      dup6\n        /* \"contracts/PropertyManagment.sol\":1648:1724  Tenant(_tenantAddress, _propertyAddress, _startDate, _endDate, false, false) */\n      0xffffffffffffffffffffffffffffffffffffffff\n      and\n      dup2\n      mstore\n      0x20\n      add\n        /* \"contracts/PropertyManagment.sol\":1689:1699  _startDate */\n      dup4\n        /* \"contracts/PropertyManagment.sol\":1648:1724  Tenant(_tenantAddress, _propertyAddress, _startDate, _endDate, false, false) */\n      dup2\n      mstore\n      0x20\n      add\n        /* \"contracts/PropertyManagment.sol\":1701:1709  _endDate */\n      dup3\n        /* \"contracts/PropertyManagment.sol\":1648:1724  Tenant(_tenantAddress, _propertyAddress, _startDate, _endDate, false, false) */\n      dup2\n      mstore\n      0x20\n      add\n        /* \"contracts/PropertyManagment.sol\":1711:1716  false */\n      0x00\n        /* \"contracts/PropertyManagment.sol\":1648:1724  Tenant(_tenantAddress, _propertyAddress, _startDate, _endDate, false, false) */\n      iszero\n      iszero\n      dup2\n      mstore\n      0x20\n      add\n        /* \"contracts/PropertyManagment.sol\":1718:1723  false */\n      0x00\n        /* \"contracts/PropertyManagment.sol\":1648:1724  Tenant(_tenantAddress, _propertyAddress, _startDate, _endDate, false, false) */\n      iszero\n      iszero\n      dup2\n      mstore\n      pop\n        /* \"contracts/PropertyManagment.sol\":1622:1629  tenants */\n      0x02\n        /* \"contracts/PropertyManagment.sol\":1622:1645  tenants[_tenantAddress] */\n      0x00\n        /* \"contracts/PropertyManagment.sol\":1630:1644  _tenantAddress */\n      dup6\n        /* \"contracts/PropertyManagment.sol\":1622:1645  tenants[_tenantAddress] */\n      0xffffffffffffffffffffffffffffffffffffffff\n      and\n      0xffffffffffffffffffffffffffffffffffffffff\n      and\n      dup2\n      mstore\n      0x20\n      add\n      swap1\n      dup2\n      mstore\n      0x20\n      add\n      0x00\n      keccak256\n        /* \"contracts/PropertyManagment.sol\":1622:1724  tenants[_tenantAddress] = Tenant(_tenantAddress, _propertyAddress, _startDate, _endDate, false, false) */\n      0x00\n      dup3\n      add\n      mload\n      dup2\n      0x00\n      add\n      exp(0x0100, 0x00)\n      dup2\n      sload\n      dup2\n      0xffffffffffffffffffffffffffffffffffffffff\n      mul\n      not\n      and\n      swap1\n      dup4\n      0xffffffffffffffffffffffffffffffffffffffff\n      and\n      mul\n      or\n      swap1\n      sstore\n      pop\n      0x20\n      dup3\n      add\n      mload\n      dup2\n      0x01\n      add\n      exp(0x0100, 0x00)\n      dup2\n      sload\n      dup2\n      0xffffffffffffffffffffffffffffffffffffffff\n      mul\n      not\n      and\n      swap1\n      dup4\n      0xffffffffffffffffffffffffffffffffffffffff\n      and\n      mul\n      or\n      swap1\n      sstore\n      pop\n      0x40\n      dup3\n      add\n      mload\n      dup2\n      0x02\n      add\n      sstore\n      0x60\n      dup3\n      add\n      mload\n      dup2\n      0x03\n      add\n      sstore\n      0x80\n      dup3\n      add\n      mload\n      dup2\n      0x04\n      add\n      exp(0x0100, 0x00)\n      dup2\n      sload\n      dup2\n      0xff\n      mul\n      not\n      and\n      swap1\n      dup4\n      iszero\n      iszero\n      mul\n      or\n      swap1\n      sstore\n      pop\n      0xa0\n      dup3\n      add\n      mload\n      dup2\n      0x04\n      add\n      exp(0x0100, 0x01)\n      dup2\n      sload\n      dup2\n      0xff\n      mul\n      not\n      and\n      swap1\n      dup4\n      iszero\n      iszero\n      mul\n      or\n      swap1\n      sstore\n      pop\n      swap1\n      pop\n      pop\n        /* \"contracts/PropertyManagment.sol\":1771:1787  _propertyAddress */\n      dup4\n        /* \"contracts/PropertyManagment.sol\":1740:1788  TenantApproved(_tenantAddress, _propertyAddress) */\n      0xffffffffffffffffffffffffffffffffffffffff\n      and\n        /* \"contracts/PropertyManagment.sol\":1755:1769  _tenantAddress */\n      dup4\n        /* \"contracts/PropertyManagment.sol\":1740:1788  TenantApproved(_tenantAddress, _propertyAddress) */\n      0xffffffffffffffffffffffffffffffffffffffff\n      and\n      0x7dcfa7e41768e0150f76eee8f7c57fe4ab9677539af958eeda0e00b8a5cf2d67\n      mload(0x40)\n      mload(0x40)\n      dup1\n      swap2\n      sub\n      swap1\n      log3\n        /* \"contracts/PropertyManagment.sol\":1396:1796  function approveTenant(address _propertyAddress, address _tenantAddress, uint256 _startDate, uint256 _endDate) public {... */\n      pop\n      pop\n      pop\n      pop\n      jump\t// out\n        /* \"contracts/PropertyManagment.sol\":545:586  mapping(address => Tenant) public tenants */\n    tag_47:\n      mstore(0x20, 0x02)\n      dup1\n      0x00\n      mstore\n      keccak256(0x00, 0x40)\n      0x00\n      swap2\n      pop\n      swap1\n      pop\n      dup1\n      0x00\n      add\n      0x00\n      swap1\n      sload\n      swap1\n      0x0100\n      exp\n      swap1\n      div\n      0xffffffffffffffffffffffffffffffffffffffff\n      and\n      swap1\n      dup1\n      0x01\n      add\n      0x00\n      swap1\n      sload\n      swap1\n      0x0100\n      exp\n      swap1\n      div\n      0xffffffffffffffffffffffffffffffffffffffff\n      and\n      swap1\n      dup1\n      0x02\n      add\n      sload\n      swap1\n      dup1\n      0x03\n      add\n      sload\n      swap1\n      dup1\n      0x04\n      add\n      0x00\n      swap1\n      sload\n      swap1\n      0x0100\n      exp\n      swap1\n      div\n      0xff\n      and\n      swap1\n      dup1\n      0x04\n      add\n      0x01\n      swap1\n      sload\n      swap1\n      0x0100\n      exp\n      swap1\n      div\n      0xff\n      and\n      swap1\n      pop\n      dup7\n      jump\t// out\n        /* \"#utility.yul\":7:82   */\n    tag_83:\n        /* \"#utility.yul\":40:46   */\n      0x00\n        /* \"#utility.yul\":73:75   */\n      0x40\n        /* \"#utility.yul\":67:76   */\n      mload\n        /* \"#utility.yul\":57:76   */\n      swap1\n      pop\n        /* \"#utility.yul\":7:82   */\n      swap1\n      jump\t// out\n        /* \"#utility.yul\":88:205   */\n    tag_84:\n        /* \"#utility.yul\":197:198   */\n      0x00\n        /* \"#utility.yul\":194:195   */\n      dup1\n        /* \"#utility.yul\":187:199   */\n      revert\n        /* \"#utility.yul\":211:328   */\n    tag_85:\n        /* \"#utility.yul\":320:321   */\n      0x00\n        /* \"#utility.yul\":317:318   */\n      dup1\n        /* \"#utility.yul\":310:322   */\n      revert\n        /* \"#utility.yul\":334:460   */\n    tag_86:\n        /* \"#utility.yul\":371:378   */\n      0x00\n        /* \"#utility.yul\":411:453   */\n      0xffffffffffffffffffffffffffffffffffffffff\n        /* \"#utility.yul\":404:409   */\n      dup3\n        /* \"#utility.yul\":400:454   */\n      and\n        /* \"#utility.yul\":389:454   */\n      swap1\n      pop\n        /* \"#utility.yul\":334:460   */\n      swap2\n      swap1\n      pop\n      jump\t// out\n        /* \"#utility.yul\":466:562   */\n    tag_87:\n        /* \"#utility.yul\":503:510   */\n      0x00\n        /* \"#utility.yul\":532:556   */\n      tag_141\n        /* \"#utility.yul\":550:555   */\n      dup3\n        /* \"#utility.yul\":532:556   */\n      tag_86\n      jump\t// in\n    tag_141:\n        /* \"#utility.yul\":521:556   */\n      swap1\n      pop\n        /* \"#utility.yul\":466:562   */\n      swap2\n      swap1\n      pop\n      jump\t// out\n        /* \"#utility.yul\":568:690   */\n    tag_88:\n        /* \"#utility.yul\":641:665   */\n      tag_143\n        /* \"#utility.yul\":659:664   */\n      dup2\n        /* \"#utility.yul\":641:665   */\n      tag_87\n      jump\t// in\n    tag_143:\n        /* \"#utility.yul\":634:639   */\n      dup2\n        /* \"#utility.yul\":631:666   */\n      eq\n        /* \"#utility.yul\":621:684   */\n      tag_144\n      jumpi\n        /* \"#utility.yul\":680:681   */\n      0x00\n        /* \"#utility.yul\":677:678   */\n      dup1\n        /* \"#utility.yul\":670:682   */\n      revert\n        /* \"#utility.yul\":621:684   */\n    tag_144:\n        /* \"#utility.yul\":568:690   */\n      pop\n      jump\t// out\n        /* \"#utility.yul\":696:835   */\n    tag_89:\n        /* \"#utility.yul\":742:747   */\n      0x00\n        /* \"#utility.yul\":780:786   */\n      dup2\n        /* \"#utility.yul\":767:787   */\n      calldataload\n        /* \"#utility.yul\":758:787   */\n      swap1\n      pop\n        /* \"#utility.yul\":796:829   */\n      tag_146\n        /* \"#utility.yul\":823:828   */\n      dup2\n        /* \"#utility.yul\":796:829   */\n      tag_88\n      jump\t// in\n    tag_146:\n        /* \"#utility.yul\":696:835   */\n      swap3\n      swap2\n      pop\n      pop\n      jump\t// out\n        /* \"#utility.yul\":841:1170   */\n    tag_15:\n        /* \"#utility.yul\":900:906   */\n      0x00\n        /* \"#utility.yul\":949:951   */\n      0x20\n        /* \"#utility.yul\":937:946   */\n      dup3\n        /* \"#utility.yul\":928:935   */\n      dup5\n        /* \"#utility.yul\":924:947   */\n      sub\n        /* \"#utility.yul\":920:952   */\n      slt\n        /* \"#utility.yul\":917:1036   */\n      iszero\n      tag_148\n      jumpi\n        /* \"#utility.yul\":955:1034   */\n      tag_149\n      tag_84\n      jump\t// in\n    tag_149:\n        /* \"#utility.yul\":917:1036   */\n    tag_148:\n        /* \"#utility.yul\":1075:1076   */\n      0x00\n        /* \"#utility.yul\":1100:1153   */\n      tag_150\n        /* \"#utility.yul\":1145:1152   */\n      dup5\n        /* \"#utility.yul\":1136:1142   */\n      dup3\n        /* \"#utility.yul\":1125:1134   */\n      dup6\n        /* \"#utility.yul\":1121:1143   */\n      add\n        /* \"#utility.yul\":1100:1153   */\n      tag_89\n      jump\t// in\n    tag_150:\n        /* \"#utility.yul\":1090:1153   */\n      swap2\n      pop\n        /* \"#utility.yul\":1046:1163   */\n      pop\n        /* \"#utility.yul\":841:1170   */\n      swap3\n      swap2\n      pop\n      pop\n      jump\t// out\n        /* \"#utility.yul\":1176:1294   */\n    tag_90:\n        /* \"#utility.yul\":1263:1287   */\n      tag_152\n        /* \"#utility.yul\":1281:1286   */\n      dup2\n        /* \"#utility.yul\":1263:1287   */\n      tag_87\n      jump\t// in\n    tag_152:\n        /* \"#utility.yul\":1258:1261   */\n      dup3\n        /* \"#utility.yul\":1251:1288   */\n      mstore\n        /* \"#utility.yul\":1176:1294   */\n      pop\n      pop\n      jump\t// out\n        /* \"#utility.yul\":1300:1399   */\n    tag_91:\n        /* \"#utility.yul\":1352:1358   */\n      0x00\n        /* \"#utility.yul\":1386:1391   */\n      dup2\n        /* \"#utility.yul\":1380:1392   */\n      mload\n        /* \"#utility.yul\":1370:1392   */\n      swap1\n      pop\n        /* \"#utility.yul\":1300:1399   */\n      swap2\n      swap1\n      pop\n      jump\t// out\n        /* \"#utility.yul\":1405:1574   */\n    tag_92:\n        /* \"#utility.yul\":1489:1500   */\n      0x00\n        /* \"#utility.yul\":1523:1529   */\n      dup3\n        /* \"#utility.yul\":1518:1521   */\n      dup3\n        /* \"#utility.yul\":1511:1530   */\n      mstore\n        /* \"#utility.yul\":1563:1567   */\n      0x20\n        /* \"#utility.yul\":1558:1561   */\n      dup3\n        /* \"#utility.yul\":1554:1568   */\n      add\n        /* \"#utility.yul\":1539:1568   */\n      swap1\n      pop\n        /* \"#utility.yul\":1405:1574   */\n      swap3\n      swap2\n      pop\n      pop\n      jump\t// out\n        /* \"#utility.yul\":1580:1826   */\n    tag_93:\n        /* \"#utility.yul\":1661:1662   */\n      0x00\n        /* \"#utility.yul\":1671:1784   */\n    tag_156:\n        /* \"#utility.yul\":1685:1691   */\n      dup4\n        /* \"#utility.yul\":1682:1683   */\n      dup2\n        /* \"#utility.yul\":1679:1692   */\n      lt\n        /* \"#utility.yul\":1671:1784   */\n      iszero\n      tag_158\n      jumpi\n        /* \"#utility.yul\":1770:1771   */\n      dup1\n        /* \"#utility.yul\":1765:1768   */\n      dup3\n        /* \"#utility.yul\":1761:1772   */\n      add\n        /* \"#utility.yul\":1755:1773   */\n      mload\n        /* \"#utility.yul\":1751:1752   */\n      dup2\n        /* \"#utility.yul\":1746:1749   */\n      dup5\n        /* \"#utility.yul\":1742:1753   */\n      add\n        /* \"#utility.yul\":1735:1774   */\n      mstore\n        /* \"#utility.yul\":1707:1709   */\n      0x20\n        /* \"#utility.yul\":1704:1705   */\n      dup2\n        /* \"#utility.yul\":1700:1710   */\n      add\n        /* \"#utility.yul\":1695:1710   */\n      swap1\n      pop\n        /* \"#utility.yul\":1671:1784   */\n      jump(tag_156)\n    tag_158:\n        /* \"#utility.yul\":1818:1819   */\n      0x00\n        /* \"#utility.yul\":1809:1815   */\n      dup5\n        /* \"#utility.yul\":1804:1807   */\n      dup5\n        /* \"#utility.yul\":1800:1816   */\n      add\n        /* \"#utility.yul\":1793:1820   */\n      mstore\n        /* \"#utility.yul\":1642:1826   */\n      pop\n        /* \"#utility.yul\":1580:1826   */\n      pop\n      pop\n      pop\n      jump\t// out\n        /* \"#utility.yul\":1832:1934   */\n    tag_94:\n        /* \"#utility.yul\":1873:1879   */\n      0x00\n        /* \"#utility.yul\":1924:1926   */\n      0x1f\n        /* \"#utility.yul\":1920:1927   */\n      not\n        /* \"#utility.yul\":1915:1917   */\n      0x1f\n        /* \"#utility.yul\":1908:1913   */\n      dup4\n        /* \"#utility.yul\":1904:1918   */\n      add\n        /* \"#utility.yul\":1900:1928   */\n      and\n        /* \"#utility.yul\":1890:1928   */\n      swap1\n      pop\n        /* \"#utility.yul\":1832:1934   */\n      swap2\n      swap1\n      pop\n      jump\t// out\n        /* \"#utility.yul\":1940:2317   */\n    tag_95:\n        /* \"#utility.yul\":2028:2031   */\n      0x00\n        /* \"#utility.yul\":2056:2095   */\n      tag_161\n        /* \"#utility.yul\":2089:2094   */\n      dup3\n        /* \"#utility.yul\":2056:2095   */\n      tag_91\n      jump\t// in\n    tag_161:\n        /* \"#utility.yul\":2111:2182   */\n      tag_162\n        /* \"#utility.yul\":2175:2181   */\n      dup2\n        /* \"#utility.yul\":2170:2173   */\n      dup6\n        /* \"#utility.yul\":2111:2182   */\n      tag_92\n      jump\t// in\n    tag_162:\n        /* \"#utility.yul\":2104:2182   */\n      swap4\n      pop\n        /* \"#utility.yul\":2191:2256   */\n      tag_163\n        /* \"#utility.yul\":2249:2255   */\n      dup2\n        /* \"#utility.yul\":2244:2247   */\n      dup6\n        /* \"#utility.yul\":2237:2241   */\n      0x20\n        /* \"#utility.yul\":2230:2235   */\n      dup7\n        /* \"#utility.yul\":2226:2242   */\n      add\n        /* \"#utility.yul\":2191:2256   */\n      tag_93\n      jump\t// in\n    tag_163:\n        /* \"#utility.yul\":2281:2310   */\n      tag_164\n        /* \"#utility.yul\":2303:2309   */\n      dup2\n        /* \"#utility.yul\":2281:2310   */\n      tag_94\n      jump\t// in\n    tag_164:\n        /* \"#utility.yul\":2276:2279   */\n      dup5\n        /* \"#utility.yul\":2272:2311   */\n      add\n        /* \"#utility.yul\":2265:2311   */\n      swap2\n      pop\n        /* \"#utility.yul\":2032:2317   */\n      pop\n        /* \"#utility.yul\":1940:2317   */\n      swap3\n      swap2\n      pop\n      pop\n      jump\t// out\n        /* \"#utility.yul\":2323:2400   */\n    tag_96:\n        /* \"#utility.yul\":2360:2367   */\n      0x00\n        /* \"#utility.yul\":2389:2394   */\n      dup2\n        /* \"#utility.yul\":2378:2394   */\n      swap1\n      pop\n        /* \"#utility.yul\":2323:2400   */\n      swap2\n      swap1\n      pop\n      jump\t// out\n        /* \"#utility.yul\":2406:2524   */\n    tag_97:\n        /* \"#utility.yul\":2493:2517   */\n      tag_167\n        /* \"#utility.yul\":2511:2516   */\n      dup2\n        /* \"#utility.yul\":2493:2517   */\n      tag_96\n      jump\t// in\n    tag_167:\n        /* \"#utility.yul\":2488:2491   */\n      dup3\n        /* \"#utility.yul\":2481:2518   */\n      mstore\n        /* \"#utility.yul\":2406:2524   */\n      pop\n      pop\n      jump\t// out\n        /* \"#utility.yul\":2530:3063   */\n    tag_18:\n        /* \"#utility.yul\":2699:2703   */\n      0x00\n        /* \"#utility.yul\":2737:2739   */\n      0x60\n        /* \"#utility.yul\":2726:2735   */\n      dup3\n        /* \"#utility.yul\":2722:2740   */\n      add\n        /* \"#utility.yul\":2714:2740   */\n      swap1\n      pop\n        /* \"#utility.yul\":2750:2821   */\n      tag_169\n        /* \"#utility.yul\":2818:2819   */\n      0x00\n        /* \"#utility.yul\":2807:2816   */\n      dup4\n        /* \"#utility.yul\":2803:2820   */\n      add\n        /* \"#utility.yul\":2794:2800   */\n      dup7\n        /* \"#utility.yul\":2750:2821   */\n      tag_90\n      jump\t// in\n    tag_169:\n        /* \"#utility.yul\":2868:2877   */\n      dup2\n        /* \"#utility.yul\":2862:2866   */\n      dup2\n        /* \"#utility.yul\":2858:2878   */\n      sub\n        /* \"#utility.yul\":2853:2855   */\n      0x20\n        /* \"#utility.yul\":2842:2851   */\n      dup4\n        /* \"#utility.yul\":2838:2856   */\n      add\n        /* \"#utility.yul\":2831:2879   */\n      mstore\n        /* \"#utility.yul\":2896:2974   */\n      tag_170\n        /* \"#utility.yul\":2969:2973   */\n      dup2\n        /* \"#utility.yul\":2960:2966   */\n      dup6\n        /* \"#utility.yul\":2896:2974   */\n      tag_95\n      jump\t// in\n    tag_170:\n        /* \"#utility.yul\":2888:2974   */\n      swap1\n      pop\n        /* \"#utility.yul\":2984:3056   */\n      tag_171\n        /* \"#utility.yul\":3052:3054   */\n      0x40\n        /* \"#utility.yul\":3041:3050   */\n      dup4\n        /* \"#utility.yul\":3037:3055   */\n      add\n        /* \"#utility.yul\":3028:3034   */\n      dup5\n        /* \"#utility.yul\":2984:3056   */\n      tag_97\n      jump\t// in\n    tag_171:\n        /* \"#utility.yul\":2530:3063   */\n      swap5\n      swap4\n      pop\n      pop\n      pop\n      pop\n      jump\t// out\n        /* \"#utility.yul\":3069:3159   */\n    tag_98:\n        /* \"#utility.yul\":3103:3110   */\n      0x00\n        /* \"#utility.yul\":3146:3151   */\n      dup2\n        /* \"#utility.yul\":3139:3152   */\n      iszero\n        /* \"#utility.yul\":3132:3153   */\n      iszero\n        /* \"#utility.yul\":3121:3153   */\n      swap1\n      pop\n        /* \"#utility.yul\":3069:3159   */\n      swap2\n      swap1\n      pop\n      jump\t// out\n        /* \"#utility.yul\":3165:3274   */\n    tag_99:\n        /* \"#utility.yul\":3246:3267   */\n      tag_174\n        /* \"#utility.yul\":3261:3266   */\n      dup2\n        /* \"#utility.yul\":3246:3267   */\n      tag_98\n      jump\t// in\n    tag_174:\n        /* \"#utility.yul\":3241:3244   */\n      dup3\n        /* \"#utility.yul\":3234:3268   */\n      mstore\n        /* \"#utility.yul\":3165:3274   */\n      pop\n      pop\n      jump\t// out\n        /* \"#utility.yul\":3280:4031   */\n    tag_30:\n        /* \"#utility.yul\":3501:3505   */\n      0x00\n        /* \"#utility.yul\":3539:3542   */\n      0xc0\n        /* \"#utility.yul\":3528:3537   */\n      dup3\n        /* \"#utility.yul\":3524:3543   */\n      add\n        /* \"#utility.yul\":3516:3543   */\n      swap1\n      pop\n        /* \"#utility.yul\":3553:3624   */\n      tag_176\n        /* \"#utility.yul\":3621:3622   */\n      0x00\n        /* \"#utility.yul\":3610:3619   */\n      dup4\n        /* \"#utility.yul\":3606:3623   */\n      add\n        /* \"#utility.yul\":3597:3603   */\n      dup10\n        /* \"#utility.yul\":3553:3624   */\n      tag_90\n      jump\t// in\n    tag_176:\n        /* \"#utility.yul\":3634:3706   */\n      tag_177\n        /* \"#utility.yul\":3702:3704   */\n      0x20\n        /* \"#utility.yul\":3691:3700   */\n      dup4\n        /* \"#utility.yul\":3687:3705   */\n      add\n        /* \"#utility.yul\":3678:3684   */\n      dup9\n        /* \"#utility.yul\":3634:3706   */\n      tag_90\n      jump\t// in\n    tag_177:\n        /* \"#utility.yul\":3716:3788   */\n      tag_178\n        /* \"#utility.yul\":3784:3786   */\n      0x40\n        /* \"#utility.yul\":3773:3782   */\n      dup4\n        /* \"#utility.yul\":3769:3787   */\n      add\n        /* \"#utility.yul\":3760:3766   */\n      dup8\n        /* \"#utility.yul\":3716:3788   */\n      tag_97\n      jump\t// in\n    tag_178:\n        /* \"#utility.yul\":3798:3870   */\n      tag_179\n        /* \"#utility.yul\":3866:3868   */\n      0x60\n        /* \"#utility.yul\":3855:3864   */\n      dup4\n        /* \"#utility.yul\":3851:3869   */\n      add\n        /* \"#utility.yul\":3842:3848   */\n      dup7\n        /* \"#utility.yul\":3798:3870   */\n      tag_97\n      jump\t// in\n    tag_179:\n        /* \"#utility.yul\":3880:3947   */\n      tag_180\n        /* \"#utility.yul\":3942:3945   */\n      0x80\n        /* \"#utility.yul\":3931:3940   */\n      dup4\n        /* \"#utility.yul\":3927:3946   */\n      add\n        /* \"#utility.yul\":3918:3924   */\n      dup6\n        /* \"#utility.yul\":3880:3947   */\n      tag_99\n      jump\t// in\n    tag_180:\n        /* \"#utility.yul\":3957:4024   */\n      tag_181\n        /* \"#utility.yul\":4019:4022   */\n      0xa0\n        /* \"#utility.yul\":4008:4017   */\n      dup4\n        /* \"#utility.yul\":4004:4023   */\n      add\n        /* \"#utility.yul\":3995:4001   */\n      dup5\n        /* \"#utility.yul\":3957:4024   */\n      tag_99\n      jump\t// in\n    tag_181:\n        /* \"#utility.yul\":3280:4031   */\n      swap8\n      swap7\n      pop\n      pop\n      pop\n      pop\n      pop\n      pop\n      pop\n      jump\t// out\n        /* \"#utility.yul\":4037:4154   */\n    tag_100:\n        /* \"#utility.yul\":4146:4147   */\n      0x00\n        /* \"#utility.yul\":4143:4144   */\n      dup1\n        /* \"#utility.yul\":4136:4148   */\n      revert\n        /* \"#utility.yul\":4160:4277   */\n    tag_101:\n        /* \"#utility.yul\":4269:4270   */\n      0x00\n        /* \"#utility.yul\":4266:4267   */\n      dup1\n        /* \"#utility.yul\":4259:4271   */\n      revert\n        /* \"#utility.yul\":4283:4463   */\n    tag_102:\n        /* \"#utility.yul\":4331:4408   */\n      0x4e487b7100000000000000000000000000000000000000000000000000000000\n        /* \"#utility.yul\":4328:4329   */\n      0x00\n        /* \"#utility.yul\":4321:4409   */\n      mstore\n        /* \"#utility.yul\":4428:4432   */\n      0x41\n        /* \"#utility.yul\":4425:4426   */\n      0x04\n        /* \"#utility.yul\":4418:4433   */\n      mstore\n        /* \"#utility.yul\":4452:4456   */\n      0x24\n        /* \"#utility.yul\":4449:4450   */\n      0x00\n        /* \"#utility.yul\":4442:4457   */\n      revert\n        /* \"#utility.yul\":4469:4750   */\n    tag_103:\n        /* \"#utility.yul\":4552:4579   */\n      tag_186\n        /* \"#utility.yul\":4574:4578   */\n      dup3\n        /* \"#utility.yul\":4552:4579   */\n      tag_94\n      jump\t// in\n    tag_186:\n        /* \"#utility.yul\":4544:4550   */\n      dup2\n        /* \"#utility.yul\":4540:4580   */\n      add\n        /* \"#utility.yul\":4682:4688   */\n      dup2\n        /* \"#utility.yul\":4670:4680   */\n      dup2\n        /* \"#utility.yul\":4667:4689   */\n      lt\n        /* \"#utility.yul\":4646:4664   */\n      0xffffffffffffffff\n        /* \"#utility.yul\":4634:4644   */\n      dup3\n        /* \"#utility.yul\":4631:4665   */\n      gt\n        /* \"#utility.yul\":4628:4690   */\n      or\n        /* \"#utility.yul\":4625:4713   */\n      iszero\n      tag_187\n      jumpi\n        /* \"#utility.yul\":4693:4711   */\n      tag_188\n      tag_102\n      jump\t// in\n    tag_188:\n        /* \"#utility.yul\":4625:4713   */\n    tag_187:\n        /* \"#utility.yul\":4733:4743   */\n      dup1\n        /* \"#utility.yul\":4729:4731   */\n      0x40\n        /* \"#utility.yul\":4722:4744   */\n      mstore\n        /* \"#utility.yul\":4512:4750   */\n      pop\n        /* \"#utility.yul\":4469:4750   */\n      pop\n      pop\n      jump\t// out\n        /* \"#utility.yul\":4756:4885   */\n    tag_104:\n        /* \"#utility.yul\":4790:4796   */\n      0x00\n        /* \"#utility.yul\":4817:4837   */\n      tag_190\n      tag_83\n      jump\t// in\n    tag_190:\n        /* \"#utility.yul\":4807:4837   */\n      swap1\n      pop\n        /* \"#utility.yul\":4846:4879   */\n      tag_191\n        /* \"#utility.yul\":4874:4878   */\n      dup3\n        /* \"#utility.yul\":4866:4872   */\n      dup3\n        /* \"#utility.yul\":4846:4879   */\n      tag_103\n      jump\t// in\n    tag_191:\n        /* \"#utility.yul\":4756:4885   */\n      swap2\n      swap1\n      pop\n      jump\t// out\n        /* \"#utility.yul\":4891:5199   */\n    tag_105:\n        /* \"#utility.yul\":4953:4957   */\n      0x00\n        /* \"#utility.yul\":5043:5061   */\n      0xffffffffffffffff\n        /* \"#utility.yul\":5035:5041   */\n      dup3\n        /* \"#utility.yul\":5032:5062   */\n      gt\n        /* \"#utility.yul\":5029:5085   */\n      iszero\n      tag_193\n      jumpi\n        /* \"#utility.yul\":5065:5083   */\n      tag_194\n      tag_102\n      jump\t// in\n    tag_194:\n        /* \"#utility.yul\":5029:5085   */\n    tag_193:\n        /* \"#utility.yul\":5103:5132   */\n      tag_195\n        /* \"#utility.yul\":5125:5131   */\n      dup3\n        /* \"#utility.yul\":5103:5132   */\n      tag_94\n      jump\t// in\n    tag_195:\n        /* \"#utility.yul\":5095:5132   */\n      swap1\n      pop\n        /* \"#utility.yul\":5187:5191   */\n      0x20\n        /* \"#utility.yul\":5181:5185   */\n      dup2\n        /* \"#utility.yul\":5177:5192   */\n      add\n        /* \"#utility.yul\":5169:5192   */\n      swap1\n      pop\n        /* \"#utility.yul\":4891:5199   */\n      swap2\n      swap1\n      pop\n      jump\t// out\n        /* \"#utility.yul\":5205:5351   */\n    tag_106:\n        /* \"#utility.yul\":5302:5308   */\n      dup3\n        /* \"#utility.yul\":5297:5300   */\n      dup2\n        /* \"#utility.yul\":5292:5295   */\n      dup4\n        /* \"#utility.yul\":5279:5309   */\n      calldatacopy\n        /* \"#utility.yul\":5343:5344   */\n      0x00\n        /* \"#utility.yul\":5334:5340   */\n      dup4\n        /* \"#utility.yul\":5329:5332   */\n      dup4\n        /* \"#utility.yul\":5325:5341   */\n      add\n        /* \"#utility.yul\":5318:5345   */\n      mstore\n        /* \"#utility.yul\":5205:5351   */\n      pop\n      pop\n      pop\n      jump\t// out\n        /* \"#utility.yul\":5357:5782   */\n    tag_107:\n        /* \"#utility.yul\":5435:5440   */\n      0x00\n        /* \"#utility.yul\":5460:5526   */\n      tag_198\n        /* \"#utility.yul\":5476:5525   */\n      tag_199\n        /* \"#utility.yul\":5518:5524   */\n      dup5\n        /* \"#utility.yul\":5476:5525   */\n      tag_105\n      jump\t// in\n    tag_199:\n        /* \"#utility.yul\":5460:5526   */\n      tag_104\n      jump\t// in\n    tag_198:\n        /* \"#utility.yul\":5451:5526   */\n      swap1\n      pop\n        /* \"#utility.yul\":5549:5555   */\n      dup3\n        /* \"#utility.yul\":5542:5547   */\n      dup2\n        /* \"#utility.yul\":5535:5556   */\n      mstore\n        /* \"#utility.yul\":5587:5591   */\n      0x20\n        /* \"#utility.yul\":5580:5585   */\n      dup2\n        /* \"#utility.yul\":5576:5592   */\n      add\n        /* \"#utility.yul\":5625:5628   */\n      dup5\n        /* \"#utility.yul\":5616:5622   */\n      dup5\n        /* \"#utility.yul\":5611:5614   */\n      dup5\n        /* \"#utility.yul\":5607:5623   */\n      add\n        /* \"#utility.yul\":5604:5629   */\n      gt\n        /* \"#utility.yul\":5601:5713   */\n      iszero\n      tag_200\n      jumpi\n        /* \"#utility.yul\":5632:5711   */\n      tag_201\n      tag_101\n      jump\t// in\n    tag_201:\n        /* \"#utility.yul\":5601:5713   */\n    tag_200:\n        /* \"#utility.yul\":5722:5776   */\n      tag_202\n        /* \"#utility.yul\":5769:5775   */\n      dup5\n        /* \"#utility.yul\":5764:5767   */\n      dup3\n        /* \"#utility.yul\":5759:5762   */\n      dup6\n        /* \"#utility.yul\":5722:5776   */\n      tag_106\n      jump\t// in\n    tag_202:\n        /* \"#utility.yul\":5441:5782   */\n      pop\n        /* \"#utility.yul\":5357:5782   */\n      swap4\n      swap3\n      pop\n      pop\n      pop\n      jump\t// out\n        /* \"#utility.yul\":5802:6142   */\n    tag_108:\n        /* \"#utility.yul\":5858:5863   */\n      0x00\n        /* \"#utility.yul\":5907:5910   */\n      dup3\n        /* \"#utility.yul\":5900:5904   */\n      0x1f\n        /* \"#utility.yul\":5892:5898   */\n      dup4\n        /* \"#utility.yul\":5888:5905   */\n      add\n        /* \"#utility.yul\":5884:5911   */\n      slt\n        /* \"#utility.yul\":5874:5996   */\n      tag_204\n      jumpi\n        /* \"#utility.yul\":5915:5994   */\n      tag_205\n      tag_100\n      jump\t// in\n    tag_205:\n        /* \"#utility.yul\":5874:5996   */\n    tag_204:\n        /* \"#utility.yul\":6032:6038   */\n      dup2\n        /* \"#utility.yul\":6019:6039   */\n      calldataload\n        /* \"#utility.yul\":6057:6136   */\n      tag_206\n        /* \"#utility.yul\":6132:6135   */\n      dup5\n        /* \"#utility.yul\":6124:6130   */\n      dup3\n        /* \"#utility.yul\":6117:6121   */\n      0x20\n        /* \"#utility.yul\":6109:6115   */\n      dup7\n        /* \"#utility.yul\":6105:6122   */\n      add\n        /* \"#utility.yul\":6057:6136   */\n      tag_107\n      jump\t// in\n    tag_206:\n        /* \"#utility.yul\":6048:6136   */\n      swap2\n      pop\n        /* \"#utility.yul\":5864:6142   */\n      pop\n        /* \"#utility.yul\":5802:6142   */\n      swap3\n      swap2\n      pop\n      pop\n      jump\t// out\n        /* \"#utility.yul\":6148:6270   */\n    tag_109:\n        /* \"#utility.yul\":6221:6245   */\n      tag_208\n        /* \"#utility.yul\":6239:6244   */\n      dup2\n        /* \"#utility.yul\":6221:6245   */\n      tag_96\n      jump\t// in\n    tag_208:\n        /* \"#utility.yul\":6214:6219   */\n      dup2\n        /* \"#utility.yul\":6211:6246   */\n      eq\n        /* \"#utility.yul\":6201:6264   */\n      tag_209\n      jumpi\n        /* \"#utility.yul\":6260:6261   */\n      0x00\n        /* \"#utility.yul\":6257:6258   */\n      dup1\n        /* \"#utility.yul\":6250:6262   */\n      revert\n        /* \"#utility.yul\":6201:6264   */\n    tag_209:\n        /* \"#utility.yul\":6148:6270   */\n      pop\n      jump\t// out\n        /* \"#utility.yul\":6276:6415   */\n    tag_110:\n        /* \"#utility.yul\":6322:6327   */\n      0x00\n        /* \"#utility.yul\":6360:6366   */\n      dup2\n        /* \"#utility.yul\":6347:6367   */\n      calldataload\n        /* \"#utility.yul\":6338:6367   */\n      swap1\n      pop\n        /* \"#utility.yul\":6376:6409   */\n      tag_211\n        /* \"#utility.yul\":6403:6408   */\n      dup2\n        /* \"#utility.yul\":6376:6409   */\n      tag_109\n      jump\t// in\n    tag_211:\n        /* \"#utility.yul\":6276:6415   */\n      swap3\n      swap2\n      pop\n      pop\n      jump\t// out\n        /* \"#utility.yul\":6421:7075   */\n    tag_33:\n        /* \"#utility.yul\":6499:6505   */\n      0x00\n        /* \"#utility.yul\":6507:6513   */\n      dup1\n        /* \"#utility.yul\":6556:6558   */\n      0x40\n        /* \"#utility.yul\":6544:6553   */\n      dup4\n        /* \"#utility.yul\":6535:6542   */\n      dup6\n        /* \"#utility.yul\":6531:6554   */\n      sub\n        /* \"#utility.yul\":6527:6559   */\n      slt\n        /* \"#utility.yul\":6524:6643   */\n      iszero\n      tag_213\n      jumpi\n        /* \"#utility.yul\":6562:6641   */\n      tag_214\n      tag_84\n      jump\t// in\n    tag_214:\n        /* \"#utility.yul\":6524:6643   */\n    tag_213:\n        /* \"#utility.yul\":6710:6711   */\n      0x00\n        /* \"#utility.yul\":6699:6708   */\n      dup4\n        /* \"#utility.yul\":6695:6712   */\n      add\n        /* \"#utility.yul\":6682:6713   */\n      calldataload\n        /* \"#utility.yul\":6740:6758   */\n      0xffffffffffffffff\n        /* \"#utility.yul\":6732:6738   */\n      dup2\n        /* \"#utility.yul\":6729:6759   */\n      gt\n        /* \"#utility.yul\":6726:6843   */\n      iszero\n      tag_215\n      jumpi\n        /* \"#utility.yul\":6762:6841   */\n      tag_216\n      tag_85\n      jump\t// in\n    tag_216:\n        /* \"#utility.yul\":6726:6843   */\n    tag_215:\n        /* \"#utility.yul\":6867:6930   */\n      tag_217\n        /* \"#utility.yul\":6922:6929   */\n      dup6\n        /* \"#utility.yul\":6913:6919   */\n      dup3\n        /* \"#utility.yul\":6902:6911   */\n      dup7\n        /* \"#utility.yul\":6898:6920   */\n      add\n        /* \"#utility.yul\":6867:6930   */\n      tag_108\n      jump\t// in\n    tag_217:\n        /* \"#utility.yul\":6857:6930   */\n      swap3\n      pop\n        /* \"#utility.yul\":6653:6940   */\n      pop\n        /* \"#utility.yul\":6979:6981   */\n      0x20\n        /* \"#utility.yul\":7005:7058   */\n      tag_218\n        /* \"#utility.yul\":7050:7057   */\n      dup6\n        /* \"#utility.yul\":7041:7047   */\n      dup3\n        /* \"#utility.yul\":7030:7039   */\n      dup7\n        /* \"#utility.yul\":7026:7048   */\n      add\n        /* \"#utility.yul\":7005:7058   */\n      tag_110\n      jump\t// in\n    tag_218:\n        /* \"#utility.yul\":6995:7058   */\n      swap2\n      pop\n        /* \"#utility.yul\":6950:7068   */\n      pop\n        /* \"#utility.yul\":6421:7075   */\n      swap3\n      pop\n      swap3\n      swap1\n      pop\n      jump\t// out\n        /* \"#utility.yul\":7081:7303   */\n    tag_38:\n        /* \"#utility.yul\":7174:7178   */\n      0x00\n        /* \"#utility.yul\":7212:7214   */\n      0x20\n        /* \"#utility.yul\":7201:7210   */\n      dup3\n        /* \"#utility.yul\":7197:7215   */\n      add\n        /* \"#utility.yul\":7189:7215   */\n      swap1\n      pop\n        /* \"#utility.yul\":7225:7296   */\n      tag_220\n        /* \"#utility.yul\":7293:7294   */\n      0x00\n        /* \"#utility.yul\":7282:7291   */\n      dup4\n        /* \"#utility.yul\":7278:7295   */\n      add\n        /* \"#utility.yul\":7269:7275   */\n      dup5\n        /* \"#utility.yul\":7225:7296   */\n      tag_90\n      jump\t// in\n    tag_220:\n        /* \"#utility.yul\":7081:7303   */\n      swap3\n      swap2\n      pop\n      pop\n      jump\t// out\n        /* \"#utility.yul\":7309:8074   */\n    tag_43:\n        /* \"#utility.yul\":7395:7401   */\n      0x00\n        /* \"#utility.yul\":7403:7409   */\n      dup1\n        /* \"#utility.yul\":7411:7417   */\n      0x00\n        /* \"#utility.yul\":7419:7425   */\n      dup1\n        /* \"#utility.yul\":7468:7471   */\n      0x80\n        /* \"#utility.yul\":7456:7465   */\n      dup6\n        /* \"#utility.yul\":7447:7454   */\n      dup8\n        /* \"#utility.yul\":7443:7466   */\n      sub\n        /* \"#utility.yul\":7439:7472   */\n      slt\n        /* \"#utility.yul\":7436:7556   */\n      iszero\n      tag_222\n      jumpi\n        /* \"#utility.yul\":7475:7554   */\n      tag_223\n      tag_84\n      jump\t// in\n    tag_223:\n        /* \"#utility.yul\":7436:7556   */\n    tag_222:\n        /* \"#utility.yul\":7595:7596   */\n      0x00\n        /* \"#utility.yul\":7620:7673   */\n      tag_224\n        /* \"#utility.yul\":7665:7672   */\n      dup8\n        /* \"#utility.yul\":7656:7662   */\n      dup3\n        /* \"#utility.yul\":7645:7654   */\n      dup9\n        /* \"#utility.yul\":7641:7663   */\n      add\n        /* \"#utility.yul\":7620:7673   */\n      tag_89\n      jump\t// in\n    tag_224:\n        /* \"#utility.yul\":7610:7673   */\n      swap5\n      pop\n        /* \"#utility.yul\":7566:7683   */\n      pop\n        /* \"#utility.yul\":7722:7724   */\n      0x20\n        /* \"#utility.yul\":7748:7801   */\n      tag_225\n        /* \"#utility.yul\":7793:7800   */\n      dup8\n        /* \"#utility.yul\":7784:7790   */\n      dup3\n        /* \"#utility.yul\":7773:7782   */\n      dup9\n        /* \"#utility.yul\":7769:7791   */\n      add\n        /* \"#utility.yul\":7748:7801   */\n      tag_89\n      jump\t// in\n    tag_225:\n        /* \"#utility.yul\":7738:7801   */\n      swap4\n      pop\n        /* \"#utility.yul\":7693:7811   */\n      pop\n        /* \"#utility.yul\":7850:7852   */\n      0x40\n        /* \"#utility.yul\":7876:7929   */\n      tag_226\n        /* \"#utility.yul\":7921:7928   */\n      dup8\n        /* \"#utility.yul\":7912:7918   */\n      dup3\n        /* \"#utility.yul\":7901:7910   */\n      dup9\n        /* \"#utility.yul\":7897:7919   */\n      add\n        /* \"#utility.yul\":7876:7929   */\n      tag_110\n      jump\t// in\n    tag_226:\n        /* \"#utility.yul\":7866:7929   */\n      swap3\n      pop\n        /* \"#utility.yul\":7821:7939   */\n      pop\n        /* \"#utility.yul\":7978:7980   */\n      0x60\n        /* \"#utility.yul\":8004:8057   */\n      tag_227\n        /* \"#utility.yul\":8049:8056   */\n      dup8\n        /* \"#utility.yul\":8040:8046   */\n      dup3\n        /* \"#utility.yul\":8029:8038   */\n      dup9\n        /* \"#utility.yul\":8025:8047   */\n      add\n        /* \"#utility.yul\":8004:8057   */\n      tag_110\n      jump\t// in\n    tag_227:\n        /* \"#utility.yul\":7994:8057   */\n      swap2\n      pop\n        /* \"#utility.yul\":7949:8067   */\n      pop\n        /* \"#utility.yul\":7309:8074   */\n      swap3\n      swap6\n      swap2\n      swap5\n      pop\n      swap3\n      pop\n      jump\t// out\n        /* \"#utility.yul\":8080:8260   */\n    tag_111:\n        /* \"#utility.yul\":8128:8205   */\n      0x4e487b7100000000000000000000000000000000000000000000000000000000\n        /* \"#utility.yul\":8125:8126   */\n      0x00\n        /* \"#utility.yul\":8118:8206   */\n      mstore\n        /* \"#utility.yul\":8225:8229   */\n      0x22\n        /* \"#utility.yul\":8222:8223   */\n      0x04\n        /* \"#utility.yul\":8215:8230   */\n      mstore\n        /* \"#utility.yul\":8249:8253   */\n      0x24\n        /* \"#utility.yul\":8246:8247   */\n      0x00\n        /* \"#utility.yul\":8239:8254   */\n      revert\n        /* \"#utility.yul\":8266:8586   */\n    tag_51:\n        /* \"#utility.yul\":8310:8316   */\n      0x00\n        /* \"#utility.yul\":8347:8348   */\n      0x02\n        /* \"#utility.yul\":8341:8345   */\n      dup3\n        /* \"#utility.yul\":8337:8349   */\n      div\n        /* \"#utility.yul\":8327:8349   */\n      swap1\n      pop\n        /* \"#utility.yul\":8394:8395   */\n      0x01\n        /* \"#utility.yul\":8388:8392   */\n      dup3\n        /* \"#utility.yul\":8384:8396   */\n      and\n        /* \"#utility.yul\":8415:8433   */\n      dup1\n        /* \"#utility.yul\":8405:8486   */\n      tag_230\n      jumpi\n        /* \"#utility.yul\":8471:8475   */\n      0x7f\n        /* \"#utility.yul\":8463:8469   */\n      dup3\n        /* \"#utility.yul\":8459:8476   */\n      and\n        /* \"#utility.yul\":8449:8476   */\n      swap2\n      pop\n        /* \"#utility.yul\":8405:8486   */\n    tag_230:\n        /* \"#utility.yul\":8533:8535   */\n      0x20\n        /* \"#utility.yul\":8525:8531   */\n      dup3\n        /* \"#utility.yul\":8522:8536   */\n      lt\n        /* \"#utility.yul\":8502:8520   */\n      dup2\n        /* \"#utility.yul\":8499:8537   */\n      sub\n        /* \"#utility.yul\":8496:8580   */\n      tag_231\n      jumpi\n        /* \"#utility.yul\":8552:8570   */\n      tag_232\n      tag_111\n      jump\t// in\n    tag_232:\n        /* \"#utility.yul\":8496:8580   */\n    tag_231:\n        /* \"#utility.yul\":8317:8586   */\n      pop\n        /* \"#utility.yul\":8266:8586   */\n      swap2\n      swap1\n      pop\n      jump\t// out\n        /* \"#utility.yul\":8592:8764   */\n    tag_112:\n        /* \"#utility.yul\":8732:8756   */\n      0x4e6f74207468652070726f7065727479206f776e657200000000000000000000\n        /* \"#utility.yul\":8728:8729   */\n      0x00\n        /* \"#utility.yul\":8720:8726   */\n      dup3\n        /* \"#utility.yul\":8716:8730   */\n      add\n        /* \"#utility.yul\":8709:8757   */\n      mstore\n        /* \"#utility.yul\":8592:8764   */\n      pop\n      jump\t// out\n        /* \"#utility.yul\":8770:9136   */\n    tag_113:\n        /* \"#utility.yul\":8912:8915   */\n      0x00\n        /* \"#utility.yul\":8933:9000   */\n      tag_235\n        /* \"#utility.yul\":8997:8999   */\n      0x16\n        /* \"#utility.yul\":8992:8995   */\n      dup4\n        /* \"#utility.yul\":8933:9000   */\n      tag_92\n      jump\t// in\n    tag_235:\n        /* \"#utility.yul\":8926:9000   */\n      swap2\n      pop\n        /* \"#utility.yul\":9009:9102   */\n      tag_236\n        /* \"#utility.yul\":9098:9101   */\n      dup3\n        /* \"#utility.yul\":9009:9102   */\n      tag_112\n      jump\t// in\n    tag_236:\n        /* \"#utility.yul\":9127:9129   */\n      0x20\n        /* \"#utility.yul\":9122:9125   */\n      dup3\n        /* \"#utility.yul\":9118:9130   */\n      add\n        /* \"#utility.yul\":9111:9130   */\n      swap1\n      pop\n        /* \"#utility.yul\":8770:9136   */\n      swap2\n      swap1\n      pop\n      jump\t// out\n        /* \"#utility.yul\":9142:9561   */\n    tag_59:\n        /* \"#utility.yul\":9308:9312   */\n      0x00\n        /* \"#utility.yul\":9346:9348   */\n      0x20\n        /* \"#utility.yul\":9335:9344   */\n      dup3\n        /* \"#utility.yul\":9331:9349   */\n      add\n        /* \"#utility.yul\":9323:9349   */\n      swap1\n      pop\n        /* \"#utility.yul\":9395:9404   */\n      dup2\n        /* \"#utility.yul\":9389:9393   */\n      dup2\n        /* \"#utility.yul\":9385:9405   */\n      sub\n        /* \"#utility.yul\":9381:9382   */\n      0x00\n        /* \"#utility.yul\":9370:9379   */\n      dup4\n        /* \"#utility.yul\":9366:9383   */\n      add\n        /* \"#utility.yul\":9359:9406   */\n      mstore\n        /* \"#utility.yul\":9423:9554   */\n      tag_238\n        /* \"#utility.yul\":9549:9553   */\n      dup2\n        /* \"#utility.yul\":9423:9554   */\n      tag_113\n      jump\t// in\n    tag_238:\n        /* \"#utility.yul\":9415:9554   */\n      swap1\n      pop\n        /* \"#utility.yul\":9142:9561   */\n      swap2\n      swap1\n      pop\n      jump\t// out\n        /* \"#utility.yul\":9567:9790   */\n    tag_114:\n        /* \"#utility.yul\":9707:9741   */\n      0x54656e616e7420686173206e6f7420726571756573746564207465726d696e61\n        /* \"#utility.yul\":9703:9704   */\n      0x00\n        /* \"#utility.yul\":9695:9701   */\n      dup3\n        /* \"#utility.yul\":9691:9705   */\n      add\n        /* \"#utility.yul\":9684:9742   */\n      mstore\n        /* \"#utility.yul\":9776:9782   */\n      0x74696f6e00000000000000000000000000000000000000000000000000000000\n        /* \"#utility.yul\":9771:9773   */\n      0x20\n        /* \"#utility.yul\":9763:9769   */\n      dup3\n        /* \"#utility.yul\":9759:9774   */\n      add\n        /* \"#utility.yul\":9752:9783   */\n      mstore\n        /* \"#utility.yul\":9567:9790   */\n      pop\n      jump\t// out\n        /* \"#utility.yul\":9796:10162   */\n    tag_115:\n        /* \"#utility.yul\":9938:9941   */\n      0x00\n        /* \"#utility.yul\":9959:10026   */\n      tag_241\n        /* \"#utility.yul\":10023:10025   */\n      0x24\n        /* \"#utility.yul\":10018:10021   */\n      dup4\n        /* \"#utility.yul\":9959:10026   */\n      tag_92\n      jump\t// in\n    tag_241:\n        /* \"#utility.yul\":9952:10026   */\n      swap2\n      pop\n        /* \"#utility.yul\":10035:10128   */\n      tag_242\n        /* \"#utility.yul\":10124:10127   */\n      dup3\n        /* \"#utility.yul\":10035:10128   */\n      tag_114\n      jump\t// in\n    tag_242:\n        /* \"#utility.yul\":10153:10155   */\n      0x40\n        /* \"#utility.yul\":10148:10151   */\n      dup3\n        /* \"#utility.yul\":10144:10156   */\n      add\n        /* \"#utility.yul\":10137:10156   */\n      swap1\n      pop\n        /* \"#utility.yul\":9796:10162   */\n      swap2\n      swap1\n      pop\n      jump\t// out\n        /* \"#utility.yul\":10168:10587   */\n    tag_62:\n        /* \"#utility.yul\":10334:10338   */\n      0x00\n        /* \"#utility.yul\":10372:10374   */\n      0x20\n        /* \"#utility.yul\":10361:10370   */\n      dup3\n        /* \"#utility.yul\":10357:10375   */\n      add\n        /* \"#utility.yul\":10349:10375   */\n      swap1\n      pop\n        /* \"#utility.yul\":10421:10430   */\n      dup2\n        /* \"#utility.yul\":10415:10419   */\n      dup2\n        /* \"#utility.yul\":10411:10431   */\n      sub\n        /* \"#utility.yul\":10407:10408   */\n      0x00\n        /* \"#utility.yul\":10396:10405   */\n      dup4\n        /* \"#utility.yul\":10392:10409   */\n      add\n        /* \"#utility.yul\":10385:10432   */\n      mstore\n        /* \"#utility.yul\":10449:10580   */\n      tag_244\n        /* \"#utility.yul\":10575:10579   */\n      dup2\n        /* \"#utility.yul\":10449:10580   */\n      tag_115\n      jump\t// in\n    tag_244:\n        /* \"#utility.yul\":10441:10580   */\n      swap1\n      pop\n        /* \"#utility.yul\":10168:10587   */\n      swap2\n      swap1\n      pop\n      jump\t// out\n        /* \"#utility.yul\":10593:10770   */\n    tag_116:\n        /* \"#utility.yul\":10733:10762   */\n      0x50726f706572747920616c726561647920726567697374657265640000000000\n        /* \"#utility.yul\":10729:10730   */\n      0x00\n        /* \"#utility.yul\":10721:10727   */\n      dup3\n        /* \"#utility.yul\":10717:10731   */\n      add\n        /* \"#utility.yul\":10710:10763   */\n      mstore\n        /* \"#utility.yul\":10593:10770   */\n      pop\n      jump\t// out\n        /* \"#utility.yul\":10776:11142   */\n    tag_117:\n        /* \"#utility.yul\":10918:10921   */\n      0x00\n        /* \"#utility.yul\":10939:11006   */\n      tag_247\n        /* \"#utility.yul\":11003:11005   */\n      0x1b\n        /* \"#utility.yul\":10998:11001   */\n      dup4\n        /* \"#utility.yul\":10939:11006   */\n      tag_92\n      jump\t// in\n    tag_247:\n        /* \"#utility.yul\":10932:11006   */\n      swap2\n      pop\n        /* \"#utility.yul\":11015:11108   */\n      tag_248\n        /* \"#utility.yul\":11104:11107   */\n      dup3\n        /* \"#utility.yul\":11015:11108   */\n      tag_116\n      jump\t// in\n    tag_248:\n        /* \"#utility.yul\":11133:11135   */\n      0x20\n        /* \"#utility.yul\":11128:11131   */\n      dup3\n        /* \"#utility.yul\":11124:11136   */\n      add\n        /* \"#utility.yul\":11117:11136   */\n      swap1\n      pop\n        /* \"#utility.yul\":10776:11142   */\n      swap2\n      swap1\n      pop\n      jump\t// out\n        /* \"#utility.yul\":11148:11567   */\n    tag_73:\n        /* \"#utility.yul\":11314:11318   */\n      0x00\n        /* \"#utility.yul\":11352:11354   */\n      0x20\n        /* \"#utility.yul\":11341:11350   */\n      dup3\n        /* \"#utility.yul\":11337:11355   */\n      add\n        /* \"#utility.yul\":11329:11355   */\n      swap1\n      pop\n        /* \"#utility.yul\":11401:11410   */\n      dup2\n        /* \"#utility.yul\":11395:11399   */\n      dup2\n        /* \"#utility.yul\":11391:11411   */\n      sub\n        /* \"#utility.yul\":11387:11388   */\n      0x00\n        /* \"#utility.yul\":11376:11385   */\n      dup4\n        /* \"#utility.yul\":11372:11389   */\n      add\n        /* \"#utility.yul\":11365:11412   */\n      mstore\n        /* \"#utility.yul\":11429:11560   */\n      tag_250\n        /* \"#utility.yul\":11555:11559   */\n      dup2\n        /* \"#utility.yul\":11429:11560   */\n      tag_117\n      jump\t// in\n    tag_250:\n        /* \"#utility.yul\":11421:11560   */\n      swap1\n      pop\n        /* \"#utility.yul\":11148:11567   */\n      swap2\n      swap1\n      pop\n      jump\t// out\n        /* \"#utility.yul\":11573:11714   */\n    tag_118:\n        /* \"#utility.yul\":11622:11626   */\n      0x00\n        /* \"#utility.yul\":11645:11648   */\n      dup2\n        /* \"#utility.yul\":11637:11648   */\n      swap1\n      pop\n        /* \"#utility.yul\":11668:11671   */\n      dup2\n        /* \"#utility.yul\":11665:11666   */\n      0x00\n        /* \"#utility.yul\":11658:11672   */\n      mstore\n        /* \"#utility.yul\":11702:11706   */\n      0x20\n        /* \"#utility.yul\":11699:11700   */\n      0x00\n        /* \"#utility.yul\":11689:11707   */\n      keccak256\n        /* \"#utility.yul\":11681:11707   */\n      swap1\n      pop\n        /* \"#utility.yul\":11573:11714   */\n      swap2\n      swap1\n      pop\n      jump\t// out\n        /* \"#utility.yul\":11720:11813   */\n    tag_119:\n        /* \"#utility.yul\":11757:11763   */\n      0x00\n        /* \"#utility.yul\":11804:11806   */\n      0x20\n        /* \"#utility.yul\":11799:11801   */\n      0x1f\n        /* \"#utility.yul\":11792:11797   */\n      dup4\n        /* \"#utility.yul\":11788:11802   */\n      add\n        /* \"#utility.yul\":11784:11807   */\n      div\n        /* \"#utility.yul\":11774:11807   */\n      swap1\n      pop\n        /* \"#utility.yul\":11720:11813   */\n      swap2\n      swap1\n      pop\n      jump\t// out\n        /* \"#utility.yul\":11819:11926   */\n    tag_120:\n        /* \"#utility.yul\":11863:11871   */\n      0x00\n        /* \"#utility.yul\":11913:11918   */\n      dup3\n        /* \"#utility.yul\":11907:11911   */\n      dup3\n        /* \"#utility.yul\":11903:11919   */\n      shl\n        /* \"#utility.yul\":11882:11919   */\n      swap1\n      pop\n        /* \"#utility.yul\":11819:11926   */\n      swap3\n      swap2\n      pop\n      pop\n      jump\t// out\n        /* \"#utility.yul\":11932:12325   */\n    tag_121:\n        /* \"#utility.yul\":12001:12007   */\n      0x00\n        /* \"#utility.yul\":12051:12052   */\n      0x08\n        /* \"#utility.yul\":12039:12049   */\n      dup4\n        /* \"#utility.yul\":12035:12053   */\n      mul\n        /* \"#utility.yul\":12074:12171   */\n      tag_255\n        /* \"#utility.yul\":12104:12170   */\n      0xffffffffffffffffffffffffffffffffffffffffffffffffffffffffffffffff\n        /* \"#utility.yul\":12093:12102   */\n      dup3\n        /* \"#utility.yul\":12074:12171   */\n      tag_120\n      jump\t// in\n    tag_255:\n        /* \"#utility.yul\":12192:12231   */\n      tag_256\n        /* \"#utility.yul\":12222:12230   */\n      dup7\n        /* \"#utility.yul\":12211:12220   */\n      dup4\n        /* \"#utility.yul\":12192:12231   */\n      tag_120\n      jump\t// in\n    tag_256:\n        /* \"#utility.yul\":12180:12231   */\n      swap6\n      pop\n        /* \"#utility.yul\":12264:12268   */\n      dup1\n        /* \"#utility.yul\":12260:12269   */\n      not\n        /* \"#utility.yul\":12253:12258   */\n      dup5\n        /* \"#utility.yul\":12249:12270   */\n      and\n        /* \"#utility.yul\":12240:12270   */\n      swap4\n      pop\n        /* \"#utility.yul\":12313:12317   */\n      dup1\n        /* \"#utility.yul\":12303:12311   */\n      dup7\n        /* \"#utility.yul\":12299:12318   */\n      and\n        /* \"#utility.yul\":12292:12297   */\n      dup5\n        /* \"#utility.yul\":12289:12319   */\n      or\n        /* \"#utility.yul\":12279:12319   */\n      swap3\n      pop\n        /* \"#utility.yul\":12008:12325   */\n      pop\n      pop\n        /* \"#utility.yul\":11932:12325   */\n      swap4\n      swap3\n      pop\n      pop\n      pop\n      jump\t// out\n        /* \"#utility.yul\":12331:12391   */\n    tag_122:\n        /* \"#utility.yul\":12359:12362   */\n      0x00\n        /* \"#utility.yul\":12380:12385   */\n      dup2\n        /* \"#utility.yul\":12373:12385   */\n      swap1\n      pop\n        /* \"#utility.yul\":12331:12391   */\n      swap2\n      swap1\n      pop\n      jump\t// out\n        /* \"#utility.yul\":12397:12539   */\n    tag_123:\n        /* \"#utility.yul\":12447:12456   */\n      0x00\n        /* \"#utility.yul\":12480:12533   */\n      tag_259\n        /* \"#utility.yul\":12498:12532   */\n      tag_260\n        /* \"#utility.yul\":12507:12531   */\n      tag_261\n        /* \"#utility.yul\":12525:12530   */\n      dup5\n        /* \"#utility.yul\":12507:12531   */\n      tag_96\n      jump\t// in\n    tag_261:\n        /* \"#utility.yul\":12498:12532   */\n      tag_122\n      jump\t// in\n    tag_260:\n        /* \"#utility.yul\":12480:12533   */\n      tag_96\n      jump\t// in\n    tag_259:\n        /* \"#utility.yul\":12467:12533   */\n      swap1\n      pop\n        /* \"#utility.yul\":12397:12539   */\n      swap2\n      swap1\n      pop\n      jump\t// out\n        /* \"#utility.yul\":12545:12620   */\n    tag_124:\n        /* \"#utility.yul\":12588:12591   */\n      0x00\n        /* \"#utility.yul\":12609:12614   */\n      dup2\n        /* \"#utility.yul\":12602:12614   */\n      swap1\n      pop\n        /* \"#utility.yul\":12545:12620   */\n      swap2\n      swap1\n      pop\n      jump\t// out\n        /* \"#utility.yul\":12626:12895   */\n    tag_125:\n        /* \"#utility.yul\":12736:12775   */\n      tag_264\n        /* \"#utility.yul\":12767:12774   */\n      dup4\n        /* \"#utility.yul\":12736:12775   */\n      tag_123\n      jump\t// in\n    tag_264:\n        /* \"#utility.yul\":12797:12888   */\n      tag_265\n        /* \"#utility.yul\":12846:12887   */\n      tag_266\n        /* \"#utility.yul\":12870:12886   */\n      dup3\n        /* \"#utility.yul\":12846:12887   */\n      tag_124\n      jump\t// in\n    tag_266:\n        /* \"#utility.yul\":12838:12844   */\n      dup5\n        /* \"#utility.yul\":12831:12835   */\n      dup5\n        /* \"#utility.yul\":12825:12836   */\n      sload\n        /* \"#utility.yul\":12797:12888   */\n      tag_121\n      jump\t// in\n    tag_265:\n        /* \"#utility.yul\":12791:12795   */\n      dup3\n        /* \"#utility.yul\":12784:12889   */\n      sstore\n        /* \"#utility.yul\":12702:12895   */\n      pop\n        /* \"#utility.yul\":12626:12895   */\n      pop\n      pop\n      pop\n      jump\t// out\n        /* \"#utility.yul\":12901:12974   */\n    tag_126:\n        /* \"#utility.yul\":12946:12949   */\n      0x00\n        /* \"#utility.yul\":12901:12974   */\n      swap1\n      jump\t// out\n        /* \"#utility.yul\":12980:13169   */\n    tag_127:\n        /* \"#utility.yul\":13057:13089   */\n      tag_269\n      tag_126\n      jump\t// in\n    tag_269:\n        /* \"#utility.yul\":13098:13163   */\n      tag_270\n        /* \"#utility.yul\":13156:13162   */\n      dup2\n        /* \"#utility.yul\":13148:13154   */\n      dup5\n        /* \"#utility.yul\":13142:13146   */\n      dup5\n        /* \"#utility.yul\":13098:13163   */\n      tag_125\n      jump\t// in\n    tag_270:\n        /* \"#utility.yul\":13033:13169   */\n      pop\n        /* \"#utility.yul\":12980:13169   */\n      pop\n      pop\n      jump\t// out\n        /* \"#utility.yul\":13175:13361   */\n    tag_128:\n        /* \"#utility.yul\":13235:13355   */\n    tag_272:\n        /* \"#utility.yul\":13252:13255   */\n      dup2\n        /* \"#utility.yul\":13245:13250   */\n      dup2\n        /* \"#utility.yul\":13242:13256   */\n      lt\n        /* \"#utility.yul\":13235:13355   */\n      iszero\n      tag_274\n      jumpi\n        /* \"#utility.yul\":13306:13345   */\n      tag_275\n        /* \"#utility.yul\":13343:13344   */\n      0x00\n        /* \"#utility.yul\":13336:13341   */\n      dup3\n        /* \"#utility.yul\":13306:13345   */\n      tag_127\n      jump\t// in\n    tag_275:\n        /* \"#utility.yul\":13279:13280   */\n      0x01\n        /* \"#utility.yul\":13272:13277   */\n      dup2\n        /* \"#utility.yul\":13268:13281   */\n      add\n        /* \"#utility.yul\":13259:13281   */\n      swap1\n      pop\n        /* \"#utility.yul\":13235:13355   */\n      jump(tag_272)\n    tag_274:\n        /* \"#utility.yul\":13175:13361   */\n      pop\n      pop\n      jump\t// out\n        /* \"#utility.yul\":13367:13910   */\n    tag_129:\n        /* \"#utility.yul\":13468:13470   */\n      0x1f\n        /* \"#utility.yul\":13463:13466   */\n      dup3\n        /* \"#utility.yul\":13460:13471   */\n      gt\n        /* \"#utility.yul\":13457:13903   */\n      iszero\n      tag_277\n      jumpi\n        /* \"#utility.yul\":13502:13540   */\n      tag_278\n        /* \"#utility.yul\":13534:13539   */\n      dup2\n        /* \"#utility.yul\":13502:13540   */\n      tag_118\n      jump\t// in\n    tag_278:\n        /* \"#utility.yul\":13586:13615   */\n      tag_279\n        /* \"#utility.yul\":13604:13614   */\n      dup5\n        /* \"#utility.yul\":13586:13615   */\n      tag_119\n      jump\t// in\n    tag_279:\n        /* \"#utility.yul\":13576:13584   */\n      dup2\n        /* \"#utility.yul\":13572:13616   */\n      add\n        /* \"#utility.yul\":13769:13771   */\n      0x20\n        /* \"#utility.yul\":13757:13767   */\n      dup6\n        /* \"#utility.yul\":13754:13772   */\n      lt\n        /* \"#utility.yul\":13751:13800   */\n      iszero\n      tag_280\n      jumpi\n        /* \"#utility.yul\":13790:13798   */\n      dup2\n        /* \"#utility.yul\":13775:13798   */\n      swap1\n      pop\n        /* \"#utility.yul\":13751:13800   */\n    tag_280:\n        /* \"#utility.yul\":13813:13893   */\n      tag_281\n        /* \"#utility.yul\":13869:13891   */\n      tag_282\n        /* \"#utility.yul\":13887:13890   */\n      dup6\n        /* \"#utility.yul\":13869:13891   */\n      tag_119\n      jump\t// in\n    tag_282:\n        /* \"#utility.yul\":13859:13867   */\n      dup4\n        /* \"#utility.yul\":13855:13892   */\n      add\n        /* \"#utility.yul\":13842:13853   */\n      dup3\n        /* \"#utility.yul\":13813:13893   */\n      tag_128\n      jump\t// in\n    tag_281:\n        /* \"#utility.yul\":13472:13903   */\n      pop\n      pop\n        /* \"#utility.yul\":13457:13903   */\n    tag_277:\n        /* \"#utility.yul\":13367:13910   */\n      pop\n      pop\n      pop\n      jump\t// out\n        /* \"#utility.yul\":13916:14033   */\n    tag_130:\n        /* \"#utility.yul\":13970:13978   */\n      0x00\n        /* \"#utility.yul\":14020:14025   */\n      dup3\n        /* \"#utility.yul\":14014:14018   */\n      dup3\n        /* \"#utility.yul\":14010:14026   */\n      shr\n        /* \"#utility.yul\":13989:14026   */\n      swap1\n      pop\n        /* \"#utility.yul\":13916:14033   */\n      swap3\n      swap2\n      pop\n      pop\n      jump\t// out\n        /* \"#utility.yul\":14039:14208   */\n    tag_131:\n        /* \"#utility.yul\":14083:14089   */\n      0x00\n        /* \"#utility.yul\":14116:14167   */\n      tag_285\n        /* \"#utility.yul\":14164:14165   */\n      0x00\n        /* \"#utility.yul\":14160:14166   */\n      not\n        /* \"#utility.yul\":14152:14157   */\n      dup5\n        /* \"#utility.yul\":14149:14150   */\n      0x08\n        /* \"#utility.yul\":14145:14158   */\n      mul\n        /* \"#utility.yul\":14116:14167   */\n      tag_130\n      jump\t// in\n    tag_285:\n        /* \"#utility.yul\":14112:14168   */\n      not\n        /* \"#utility.yul\":14197:14201   */\n      dup1\n        /* \"#utility.yul\":14191:14195   */\n      dup4\n        /* \"#utility.yul\":14187:14202   */\n      and\n        /* \"#utility.yul\":14177:14202   */\n      swap2\n      pop\n        /* \"#utility.yul\":14090:14208   */\n      pop\n        /* \"#utility.yul\":14039:14208   */\n      swap3\n      swap2\n      pop\n      pop\n      jump\t// out\n        /* \"#utility.yul\":14213:14508   */\n    tag_132:\n        /* \"#utility.yul\":14289:14293   */\n      0x00\n        /* \"#utility.yul\":14435:14464   */\n      tag_287\n        /* \"#utility.yul\":14460:14463   */\n      dup4\n        /* \"#utility.yul\":14454:14458   */\n      dup4\n        /* \"#utility.yul\":14435:14464   */\n      tag_131\n      jump\t// in\n    tag_287:\n        /* \"#utility.yul\":14427:14464   */\n      swap2\n      pop\n        /* \"#utility.yul\":14497:14500   */\n      dup3\n        /* \"#utility.yul\":14494:14495   */\n      0x02\n        /* \"#utility.yul\":14490:14501   */\n      mul\n        /* \"#utility.yul\":14484:14488   */\n      dup3\n        /* \"#utility.yul\":14481:14502   */\n      or\n        /* \"#utility.yul\":14473:14502   */\n      swap1\n      pop\n        /* \"#utility.yul\":14213:14508   */\n      swap3\n      swap2\n      pop\n      pop\n      jump\t// out\n        /* \"#utility.yul\":14513:15908   */\n    tag_75:\n        /* \"#utility.yul\":14630:14667   */\n      tag_289\n        /* \"#utility.yul\":14663:14666   */\n      dup3\n        /* \"#utility.yul\":14630:14667   */\n      tag_91\n      jump\t// in\n    tag_289:\n        /* \"#utility.yul\":14732:14750   */\n      0xffffffffffffffff\n        /* \"#utility.yul\":14724:14730   */\n      dup2\n        /* \"#utility.yul\":14721:14751   */\n      gt\n        /* \"#utility.yul\":14718:14774   */\n      iszero\n      tag_290\n      jumpi\n        /* \"#utility.yul\":14754:14772   */\n      tag_291\n      tag_102\n      jump\t// in\n    tag_291:\n        /* \"#utility.yul\":14718:14774   */\n    tag_290:\n        /* \"#utility.yul\":14798:14836   */\n      tag_292\n        /* \"#utility.yul\":14830:14834   */\n      dup3\n        /* \"#utility.yul\":14824:14835   */\n      sload\n        /* \"#utility.yul\":14798:14836   */\n      tag_51\n      jump\t// in\n    tag_292:\n        /* \"#utility.yul\":14883:14950   */\n      tag_293\n        /* \"#utility.yul\":14943:14949   */\n      dup3\n        /* \"#utility.yul\":14935:14941   */\n      dup3\n        /* \"#utility.yul\":14929:14933   */\n      dup6\n        /* \"#utility.yul\":14883:14950   */\n      tag_129\n      jump\t// in\n    tag_293:\n        /* \"#utility.yul\":14977:14978   */\n      0x00\n        /* \"#utility.yul\":15001:15005   */\n      0x20\n        /* \"#utility.yul\":14988:15005   */\n      swap1\n      pop\n        /* \"#utility.yul\":15033:15035   */\n      0x1f\n        /* \"#utility.yul\":15025:15031   */\n      dup4\n        /* \"#utility.yul\":15022:15036   */\n      gt\n        /* \"#utility.yul\":15050:15051   */\n      0x01\n        /* \"#utility.yul\":15045:15663   */\n      dup2\n      eq\n      tag_295\n      jumpi\n        /* \"#utility.yul\":15707:15708   */\n      0x00\n        /* \"#utility.yul\":15724:15730   */\n      dup5\n        /* \"#utility.yul\":15721:15798   */\n      iszero\n      tag_296\n      jumpi\n        /* \"#utility.yul\":15773:15782   */\n      dup3\n        /* \"#utility.yul\":15768:15771   */\n      dup8\n        /* \"#utility.yul\":15764:15783   */\n      add\n        /* \"#utility.yul\":15758:15784   */\n      mload\n        /* \"#utility.yul\":15749:15784   */\n      swap1\n      pop\n        /* \"#utility.yul\":15721:15798   */\n    tag_296:\n        /* \"#utility.yul\":15824:15891   */\n      tag_297\n        /* \"#utility.yul\":15884:15890   */\n      dup6\n        /* \"#utility.yul\":15877:15882   */\n      dup3\n        /* \"#utility.yul\":15824:15891   */\n      tag_132\n      jump\t// in\n    tag_297:\n        /* \"#utility.yul\":15818:15822   */\n      dup7\n        /* \"#utility.yul\":15811:15892   */\n      sstore\n        /* \"#utility.yul\":15680:15902   */\n      pop\n        /* \"#utility.yul\":15015:15902   */\n      jump(tag_294)\n        /* \"#utility.yul\":15045:15663   */\n    tag_295:\n        /* \"#utility.yul\":15097:15101   */\n      0x1f\n        /* \"#utility.yul\":15093:15102   */\n      not\n        /* \"#utility.yul\":15085:15091   */\n      dup5\n        /* \"#utility.yul\":15081:15103   */\n      and\n        /* \"#utility.yul\":15131:15168   */\n      tag_298\n        /* \"#utility.yul\":15163:15167   */\n      dup7\n        /* \"#utility.yul\":15131:15168   */\n      tag_118\n      jump\t// in\n    tag_298:\n        /* \"#utility.yul\":15190:15191   */\n      0x00\n        /* \"#utility.yul\":15204:15412   */\n    tag_299:\n        /* \"#utility.yul\":15218:15225   */\n      dup3\n        /* \"#utility.yul\":15215:15216   */\n      dup2\n        /* \"#utility.yul\":15212:15226   */\n      lt\n        /* \"#utility.yul\":15204:15412   */\n      iszero\n      tag_301\n      jumpi\n        /* \"#utility.yul\":15297:15306   */\n      dup5\n        /* \"#utility.yul\":15292:15295   */\n      dup10\n        /* \"#utility.yul\":15288:15307   */\n      add\n        /* \"#utility.yul\":15282:15308   */\n      mload\n        /* \"#utility.yul\":15274:15280   */\n      dup3\n        /* \"#utility.yul\":15267:15309   */\n      sstore\n        /* \"#utility.yul\":15348:15349   */\n      0x01\n        /* \"#utility.yul\":15340:15346   */\n      dup3\n        /* \"#utility.yul\":15336:15350   */\n      add\n        /* \"#utility.yul\":15326:15350   */\n      swap2\n      pop\n        /* \"#utility.yul\":15395:15397   */\n      0x20\n        /* \"#utility.yul\":15384:15393   */\n      dup6\n        /* \"#utility.yul\":15380:15398   */\n      add\n        /* \"#utility.yul\":15367:15398   */\n      swap5\n      pop\n        /* \"#utility.yul\":15241:15245   */\n      0x20\n        /* \"#utility.yul\":15238:15239   */\n      dup2\n        /* \"#utility.yul\":15234:15246   */\n      add\n        /* \"#utility.yul\":15229:15246   */\n      swap1\n      pop\n        /* \"#utility.yul\":15204:15412   */\n      jump(tag_299)\n    tag_301:\n        /* \"#utility.yul\":15440:15446   */\n      dup7\n        /* \"#utility.yul\":15431:15438   */\n      dup4\n        /* \"#utility.yul\":15428:15447   */\n      lt\n        /* \"#utility.yul\":15425:15604   */\n      iszero\n      tag_302\n      jumpi\n        /* \"#utility.yul\":15498:15507   */\n      dup5\n        /* \"#utility.yul\":15493:15496   */\n      dup10\n        /* \"#utility.yul\":15489:15508   */\n      add\n        /* \"#utility.yul\":15483:15509   */\n      mload\n        /* \"#utility.yul\":15541:15589   */\n      tag_303\n        /* \"#utility.yul\":15583:15587   */\n      0x1f\n        /* \"#utility.yul\":15575:15581   */\n      dup10\n        /* \"#utility.yul\":15571:15588   */\n      and\n        /* \"#utility.yul\":15560:15569   */\n      dup3\n        /* \"#utility.yul\":15541:15589   */\n      tag_131\n      jump\t// in\n    tag_303:\n        /* \"#utility.yul\":15533:15539   */\n      dup4\n        /* \"#utility.yul\":15526:15590   */\n      sstore\n        /* \"#utility.yul\":15448:15604   */\n      pop\n        /* \"#utility.yul\":15425:15604   */\n    tag_302:\n        /* \"#utility.yul\":15650:15651   */\n      0x01\n        /* \"#utility.yul\":15646:15647   */\n      0x02\n        /* \"#utility.yul\":15638:15644   */\n      dup9\n        /* \"#utility.yul\":15634:15648   */\n      mul\n        /* \"#utility.yul\":15630:15652   */\n      add\n        /* \"#utility.yul\":15624:15628   */\n      dup9\n        /* \"#utility.yul\":15617:15653   */\n      sstore\n        /* \"#utility.yul\":15052:15663   */\n      pop\n      pop\n      pop\n        /* \"#utility.yul\":15015:15902   */\n    tag_294:\n      pop\n        /* \"#utility.yul\":14605:15908   */\n      pop\n      pop\n      pop\n        /* \"#utility.yul\":14513:15908   */\n      pop\n      pop\n      jump\t// out\n        /* \"#utility.yul\":15914:16091   */\n    tag_133:\n        /* \"#utility.yul\":16054:16083   */\n      0x436f6e747261637420616c7265616479207465726d696e617465640000000000\n        /* \"#utility.yul\":16050:16051   */\n      0x00\n        /* \"#utility.yul\":16042:16048   */\n      dup3\n        /* \"#utility.yul\":16038:16052   */\n      add\n        /* \"#utility.yul\":16031:16084   */\n      mstore\n        /* \"#utility.yul\":15914:16091   */\n      pop\n      jump\t// out\n        /* \"#utility.yul\":16097:16463   */\n    tag_134:\n        /* \"#utility.yul\":16239:16242   */\n      0x00\n        /* \"#utility.yul\":16260:16327   */\n      tag_306\n        /* \"#utility.yul\":16324:16326   */\n      0x1b\n        /* \"#utility.yul\":16319:16322   */\n      dup4\n        /* \"#utility.yul\":16260:16327   */\n      tag_92\n      jump\t// in\n    tag_306:\n        /* \"#utility.yul\":16253:16327   */\n      swap2\n      pop\n        /* \"#utility.yul\":16336:16429   */\n      tag_307\n        /* \"#utility.yul\":16425:16428   */\n      dup3\n        /* \"#utility.yul\":16336:16429   */\n      tag_133\n      jump\t// in\n    tag_307:\n        /* \"#utility.yul\":16454:16456   */\n      0x20\n        /* \"#utility.yul\":16449:16452   */\n      dup3\n        /* \"#utility.yul\":16445:16457   */\n      add\n        /* \"#utility.yul\":16438:16457   */\n      swap1\n      pop\n        /* \"#utility.yul\":16097:16463   */\n      swap2\n      swap1\n      pop\n      jump\t// out\n        /* \"#utility.yul\":16469:16888   */\n    tag_79:\n        /* \"#utility.yul\":16635:16639   */\n      0x00\n        /* \"#utility.yul\":16673:16675   */\n      0x20\n        /* \"#utility.yul\":16662:16671   */\n      dup3\n        /* \"#utility.yul\":16658:16676   */\n      add\n        /* \"#utility.yul\":16650:16676   */\n      swap1\n      pop\n        /* \"#utility.yul\":16722:16731   */\n      dup2\n        /* \"#utility.yul\":16716:16720   */\n      dup2\n        /* \"#utility.yul\":16712:16732   */\n      sub\n        /* \"#utility.yul\":16708:16709   */\n      0x00\n        /* \"#utility.yul\":16697:16706   */\n      dup4\n        /* \"#utility.yul\":16693:16710   */\n      add\n        /* \"#utility.yul\":16686:16733   */\n      mstore\n        /* \"#utility.yul\":16750:16881   */\n      tag_309\n        /* \"#utility.yul\":16876:16880   */\n      dup2\n        /* \"#utility.yul\":16750:16881   */\n      tag_134\n      jump\t// in\n    tag_309:\n        /* \"#utility.yul\":16742:16881   */\n      swap1\n      pop\n        /* \"#utility.yul\":16469:16888   */\n      swap2\n      swap1\n      pop\n      jump\t// out\n\n    auxdata: 0xa264697066735822122003139b7d421f023418bd23c7933f49ada4e5bba76378df71d77f379ecd4efdb064736f6c63430008170033\n}\n",
				"bytecode": {
					"linkReferences": {},
					"object": "608060405234801561000f575f80fd5b50335f806101000a81548173ffffffffffffffffffffffffffffffffffffffff021916908373ffffffffffffffffffffffffffffffffffffffff1602179055506117378061005c5f395ff3fe608060405234801561000f575f80fd5b5060043610610091575f3560e01c80637c539718116100645780637c5397181461014a5780638da5cb5b14610166578063a00d7d4014610184578063a67d6ead1461018e578063fd9153a3146101aa57610091565b8063021e00b014610095578063041dcffa146100c757806325ec77d7146100e357806326a12fb814610115575b5f80fd5b6100af60048036038101906100aa9190610eb4565b6101df565b6040516100be93929190610f90565b60405180910390f35b6100e160048036038101906100dc9190610eb4565b610338565b005b6100fd60048036038101906100f89190610eb4565b6105e5565b60405161010c93929190610f90565b60405180910390f35b61012f600480360381019061012a9190610eb4565b6106b0565b60405161014196959493929190610fe6565b60405180910390f35b610164600480360381019061015f919061119b565b610826565b005b61016e610a25565b60405161017b91906111f5565b60405180910390f35b61018c610a48565b005b6101a860048036038101906101a3919061120e565b610b14565b005b6101c460048036038101906101bf9190610eb4565b610dba565b6040516101d696959493929190610fe6565b60405180910390f35b5f60605f8060015f8673ffffffffffffffffffffffffffffffffffffffff1673ffffffffffffffffffffffffffffffffffffffff1681526020019081526020015f206040518060600160405290815f82015f9054906101000a900473ffffffffffffffffffffffffffffffffffffffff1673ffffffffffffffffffffffffffffffffffffffff1673ffffffffffffffffffffffffffffffffffffffff1681526020016001820180546102909061129f565b80601f01602080910402602001604051908101604052809291908181526020018280546102bc9061129f565b80156103075780601f106102de57610100808354040283529160200191610307565b820191905f5260205f20905b8154815290600101906020018083116102ea57829003601f168201915b505050505081526020016002820154815250509050805f015181602001518260400151935093509350509193909250565b3373ffffffffffffffffffffffffffffffffffffffff1660015f60025f3373ffffffffffffffffffffffffffffffffffffffff1673ffffffffffffffffffffffffffffffffffffffff1681526020019081526020015f206001015f9054906101000a900473ffffffffffffffffffffffffffffffffffffffff1673ffffffffffffffffffffffffffffffffffffffff1673ffffffffffffffffffffffffffffffffffffffff1681526020019081526020015f205f015f9054906101000a900473ffffffffffffffffffffffffffffffffffffffff1673ffffffffffffffffffffffffffffffffffffffff1614610463576040517f08c379a000000000000000000000000000000000000000000000000000000000815260040161045a90611319565b60405180910390fd5b60025f8273ffffffffffffffffffffffffffffffffffffffff1673ffffffffffffffffffffffffffffffffffffffff1681526020019081526020015f206004015f9054906101000a900460ff166104ef576040517f08c379a00000000000000000000000000000000000000000000000000000000081526004016104e6906113a7565b60405180910390fd5b5f60025f8373ffffffffffffffffffffffffffffffffffffffff1673ffffffffffffffffffffffffffffffffffffffff1681526020019081526020015f20905060018160040160016101000a81548160ff0219169083151502179055508060040160019054906101000a900460ff16156105e157806001015f9054906101000a900473ffffffffffffffffffffffffffffffffffffffff1673ffffffffffffffffffffffffffffffffffffffff168273ffffffffffffffffffffffffffffffffffffffff167f9014317036a91f047fad688c0ee149a303811891885264d3f63cc00ecd62dce860405160405180910390a35b5050565b6001602052805f5260405f205f91509050805f015f9054906101000a900473ffffffffffffffffffffffffffffffffffffffff16908060010180546106299061129f565b80601f01602080910402602001604051908101604052809291908181526020018280546106559061129f565b80156106a05780601f10610677576101008083540402835291602001916106a0565b820191905f5260205f20905b81548152906001019060200180831161068357829003601f168201915b5050505050908060020154905083565b5f805f805f805f60025f8973ffffffffffffffffffffffffffffffffffffffff1673ffffffffffffffffffffffffffffffffffffffff1681526020019081526020015f206040518060c00160405290815f82015f9054906101000a900473ffffffffffffffffffffffffffffffffffffffff1673ffffffffffffffffffffffffffffffffffffffff1673ffffffffffffffffffffffffffffffffffffffff168152602001600182015f9054906101000a900473ffffffffffffffffffffffffffffffffffffffff1673ffffffffffffffffffffffffffffffffffffffff1673ffffffffffffffffffffffffffffffffffffffff1681526020016002820154815260200160038201548152602001600482015f9054906101000a900460ff161515151581526020016004820160019054906101000a900460ff1615151515815250509050805f015181602001518260400151836060015184608001518560a001519650965096509650965096505091939550919395565b5f73ffffffffffffffffffffffffffffffffffffffff1660015f3373ffffffffffffffffffffffffffffffffffffffff1673ffffffffffffffffffffffffffffffffffffffff1681526020019081526020015f205f015f9054906101000a900473ffffffffffffffffffffffffffffffffffffffff1673ffffffffffffffffffffffffffffffffffffffff16146108f2576040517f08c379a00000000000000000000000000000000000000000000000000000000081526004016108e99061140f565b60405180910390fd5b60405180606001604052803373ffffffffffffffffffffffffffffffffffffffff1681526020018381526020018281525060015f3373ffffffffffffffffffffffffffffffffffffffff1673ffffffffffffffffffffffffffffffffffffffff1681526020019081526020015f205f820151815f015f6101000a81548173ffffffffffffffffffffffffffffffffffffffff021916908373ffffffffffffffffffffffffffffffffffffffff16021790555060208201518160010190816109b991906115ca565b50604082015181600201559050503373ffffffffffffffffffffffffffffffffffffffff163373ffffffffffffffffffffffffffffffffffffffff167f0bd76f27e1208c8a9e9a5f16a40ed097af527a3d0f72e7010cab9ef3222609ea60405160405180910390a35050565b5f8054906101000a900473ffffffffffffffffffffffffffffffffffffffff1681565b5f60025f3373ffffffffffffffffffffffffffffffffffffffff1673ffffffffffffffffffffffffffffffffffffffff1681526020019081526020015f209050806004015f9054906101000a900460ff1615610ad9576040517f08c379a0000000000000000000000000000000000000000000000000000000008152600401610ad0906116e3565b60405180910390fd5b6001816004015f6101000a81548160ff0219169083151502179055505f8160040160016101000a81548160ff02191690831515021790555050565b3373ffffffffffffffffffffffffffffffffffffffff1660015f8673ffffffffffffffffffffffffffffffffffffffff1673ffffffffffffffffffffffffffffffffffffffff1681526020019081526020015f205f015f9054906101000a900473ffffffffffffffffffffffffffffffffffffffff1673ffffffffffffffffffffffffffffffffffffffff1614610be0576040517f08c379a0000000000000000000000000000000000000000000000000000000008152600401610bd790611319565b60405180910390fd5b6040518060c001604052808473ffffffffffffffffffffffffffffffffffffffff1681526020018573ffffffffffffffffffffffffffffffffffffffff1681526020018381526020018281526020015f151581526020015f151581525060025f8573ffffffffffffffffffffffffffffffffffffffff1673ffffffffffffffffffffffffffffffffffffffff1681526020019081526020015f205f820151815f015f6101000a81548173ffffffffffffffffffffffffffffffffffffffff021916908373ffffffffffffffffffffffffffffffffffffffff1602179055506020820151816001015f6101000a81548173ffffffffffffffffffffffffffffffffffffffff021916908373ffffffffffffffffffffffffffffffffffffffff16021790555060408201518160020155606082015181600301556080820151816004015f6101000a81548160ff02191690831515021790555060a08201518160040160016101000a81548160ff0219169083151502179055509050508373ffffffffffffffffffffffffffffffffffffffff168373ffffffffffffffffffffffffffffffffffffffff167f7dcfa7e41768e0150f76eee8f7c57fe4ab9677539af958eeda0e00b8a5cf2d6760405160405180910390a350505050565b6002602052805f5260405f205f91509050805f015f9054906101000a900473ffffffffffffffffffffffffffffffffffffffff1690806001015f9054906101000a900473ffffffffffffffffffffffffffffffffffffffff1690806002015490806003015490806004015f9054906101000a900460ff16908060040160019054906101000a900460ff16905086565b5f604051905090565b5f80fd5b5f80fd5b5f73ffffffffffffffffffffffffffffffffffffffff82169050919050565b5f610e8382610e5a565b9050919050565b610e9381610e79565b8114610e9d575f80fd5b50565b5f81359050610eae81610e8a565b92915050565b5f60208284031215610ec957610ec8610e52565b5b5f610ed684828501610ea0565b91505092915050565b610ee881610e79565b82525050565b5f81519050919050565b5f82825260208201905092915050565b5f5b83811015610f25578082015181840152602081019050610f0a565b5f8484015250505050565b5f601f19601f8301169050919050565b5f610f4a82610eee565b610f548185610ef8565b9350610f64818560208601610f08565b610f6d81610f30565b840191505092915050565b5f819050919050565b610f8a81610f78565b82525050565b5f606082019050610fa35f830186610edf565b8181036020830152610fb58185610f40565b9050610fc46040830184610f81565b949350505050565b5f8115159050919050565b610fe081610fcc565b82525050565b5f60c082019050610ff95f830189610edf565b6110066020830188610edf565b6110136040830187610f81565b6110206060830186610f81565b61102d6080830185610fd7565b61103a60a0830184610fd7565b979650505050505050565b5f80fd5b5f80fd5b7f4e487b71000000000000000000000000000000000000000000000000000000005f52604160045260245ffd5b61108382610f30565b810181811067ffffffffffffffff821117156110a2576110a161104d565b5b80604052505050565b5f6110b4610e49565b90506110c0828261107a565b919050565b5f67ffffffffffffffff8211156110df576110de61104d565b5b6110e882610f30565b9050602081019050919050565b828183375f83830152505050565b5f611115611110846110c5565b6110ab565b90508281526020810184848401111561113157611130611049565b5b61113c8482856110f5565b509392505050565b5f82601f83011261115857611157611045565b5b8135611168848260208601611103565b91505092915050565b61117a81610f78565b8114611184575f80fd5b50565b5f8135905061119581611171565b92915050565b5f80604083850312156111b1576111b0610e52565b5b5f83013567ffffffffffffffff8111156111ce576111cd610e56565b5b6111da85828601611144565b92505060206111eb85828601611187565b9150509250929050565b5f6020820190506112085f830184610edf565b92915050565b5f805f806080858703121561122657611225610e52565b5b5f61123387828801610ea0565b945050602061124487828801610ea0565b935050604061125587828801611187565b925050606061126687828801611187565b91505092959194509250565b7f4e487b71000000000000000000000000000000000000000000000000000000005f52602260045260245ffd5b5f60028204905060018216806112b657607f821691505b6020821081036112c9576112c8611272565b5b50919050565b7f4e6f74207468652070726f7065727479206f776e6572000000000000000000005f82015250565b5f611303601683610ef8565b915061130e826112cf565b602082019050919050565b5f6020820190508181035f830152611330816112f7565b9050919050565b7f54656e616e7420686173206e6f7420726571756573746564207465726d696e615f8201527f74696f6e00000000000000000000000000000000000000000000000000000000602082015250565b5f611391602483610ef8565b915061139c82611337565b604082019050919050565b5f6020820190508181035f8301526113be81611385565b9050919050565b7f50726f706572747920616c7265616479207265676973746572656400000000005f82015250565b5f6113f9601b83610ef8565b9150611404826113c5565b602082019050919050565b5f6020820190508181035f830152611426816113ed565b9050919050565b5f819050815f5260205f209050919050565b5f6020601f8301049050919050565b5f82821b905092915050565b5f600883026114897fffffffffffffffffffffffffffffffffffffffffffffffffffffffffffffffff8261144e565b611493868361144e565b95508019841693508086168417925050509392505050565b5f819050919050565b5f6114ce6114c96114c484610f78565b6114ab565b610f78565b9050919050565b5f819050919050565b6114e7836114b4565b6114fb6114f3826114d5565b84845461145a565b825550505050565b5f90565b61150f611503565b61151a8184846114de565b505050565b5b8181101561153d576115325f82611507565b600181019050611520565b5050565b601f821115611582576115538161142d565b61155c8461143f565b8101602085101561156b578190505b61157f6115778561143f565b83018261151f565b50505b505050565b5f82821c905092915050565b5f6115a25f1984600802611587565b1980831691505092915050565b5f6115ba8383611593565b9150826002028217905092915050565b6115d382610eee565b67ffffffffffffffff8111156115ec576115eb61104d565b5b6115f6825461129f565b611601828285611541565b5f60209050601f831160018114611632575f8415611620578287015190505b61162a85826115af565b865550611691565b601f1984166116408661142d565b5f5b8281101561166757848901518255600182019150602085019450602081019050611642565b868310156116845784890151611680601f891682611593565b8355505b6001600288020188555050505b505050505050565b7f436f6e747261637420616c7265616479207465726d696e6174656400000000005f82015250565b5f6116cd601b83610ef8565b91506116d882611699565b602082019050919050565b5f6020820190508181035f8301526116fa816116c1565b905091905056fea264697066735822122003139b7d421f023418bd23c7933f49ada4e5bba76378df71d77f379ecd4efdb064736f6c63430008170033",
					"opcodes": "PUSH1 0x80 PUSH1 0x40 MSTORE CALLVALUE DUP1 ISZERO PUSH2 0xF JUMPI PUSH0 DUP1 REVERT JUMPDEST POP CALLER PUSH0 DUP1 PUSH2 0x100 EXP DUP2 SLOAD DUP2 PUSH20 0xFFFFFFFFFFFFFFFFFFFFFFFFFFFFFFFFFFFFFFFF MUL NOT AND SWAP1 DUP4 PUSH20 0xFFFFFFFFFFFFFFFFFFFFFFFFFFFFFFFFFFFFFFFF AND MUL OR SWAP1 SSTORE POP PUSH2 0x1737 DUP1 PUSH2 0x5C PUSH0 CODECOPY PUSH0 RETURN INVALID PUSH1 0x80 PUSH1 0x40 MSTORE CALLVALUE DUP1 ISZERO PUSH2 0xF JUMPI PUSH0 DUP1 REVERT JUMPDEST POP PUSH1 0x4 CALLDATASIZE LT PUSH2 0x91 JUMPI PUSH0 CALLDATALOAD PUSH1 0xE0 SHR DUP1 PUSH4 0x7C539718 GT PUSH2 0x64 JUMPI DUP1 PUSH4 0x7C539718 EQ PUSH2 0x14A JUMPI DUP1 PUSH4 0x8DA5CB5B EQ PUSH2 0x166 JUMPI DUP1 PUSH4 0xA00D7D40 EQ PUSH2 0x184 JUMPI DUP1 PUSH4 0xA67D6EAD EQ PUSH2 0x18E JUMPI DUP1 PUSH4 0xFD9153A3 EQ PUSH2 0x1AA JUMPI PUSH2 0x91 JUMP JUMPDEST DUP1 PUSH4 0x21E00B0 EQ PUSH2 0x95 JUMPI DUP1 PUSH4 0x41DCFFA EQ PUSH2 0xC7 JUMPI DUP1 PUSH4 0x25EC77D7 EQ PUSH2 0xE3 JUMPI DUP1 PUSH4 0x26A12FB8 EQ PUSH2 0x115 JUMPI JUMPDEST PUSH0 DUP1 REVERT JUMPDEST PUSH2 0xAF PUSH1 0x4 DUP1 CALLDATASIZE SUB DUP2 ADD SWAP1 PUSH2 0xAA SWAP2 SWAP1 PUSH2 0xEB4 JUMP JUMPDEST PUSH2 0x1DF JUMP JUMPDEST PUSH1 0x40 MLOAD PUSH2 0xBE SWAP4 SWAP3 SWAP2 SWAP1 PUSH2 0xF90 JUMP JUMPDEST PUSH1 0x40 MLOAD DUP1 SWAP2 SUB SWAP1 RETURN JUMPDEST PUSH2 0xE1 PUSH1 0x4 DUP1 CALLDATASIZE SUB DUP2 ADD SWAP1 PUSH2 0xDC SWAP2 SWAP1 PUSH2 0xEB4 JUMP JUMPDEST PUSH2 0x338 JUMP JUMPDEST STOP JUMPDEST PUSH2 0xFD PUSH1 0x4 DUP1 CALLDATASIZE SUB DUP2 ADD SWAP1 PUSH2 0xF8 SWAP2 SWAP1 PUSH2 0xEB4 JUMP JUMPDEST PUSH2 0x5E5 JUMP JUMPDEST PUSH1 0x40 MLOAD PUSH2 0x10C SWAP4 SWAP3 SWAP2 SWAP1 PUSH2 0xF90 JUMP JUMPDEST PUSH1 0x40 MLOAD DUP1 SWAP2 SUB SWAP1 RETURN JUMPDEST PUSH2 0x12F PUSH1 0x4 DUP1 CALLDATASIZE SUB DUP2 ADD SWAP1 PUSH2 0x12A SWAP2 SWAP1 PUSH2 0xEB4 JUMP JUMPDEST PUSH2 0x6B0 JUMP JUMPDEST PUSH1 0x40 MLOAD PUSH2 0x141 SWAP7 SWAP6 SWAP5 SWAP4 SWAP3 SWAP2 SWAP1 PUSH2 0xFE6 JUMP JUMPDEST PUSH1 0x40 MLOAD DUP1 SWAP2 SUB SWAP1 RETURN JUMPDEST PUSH2 0x164 PUSH1 0x4 DUP1 CALLDATASIZE SUB DUP2 ADD SWAP1 PUSH2 0x15F SWAP2 SWAP1 PUSH2 0x119B JUMP JUMPDEST PUSH2 0x826 JUMP JUMPDEST STOP JUMPDEST PUSH2 0x16E PUSH2 0xA25 JUMP JUMPDEST PUSH1 0x40 MLOAD PUSH2 0x17B SWAP2 SWAP1 PUSH2 0x11F5 JUMP JUMPDEST PUSH1 0x40 MLOAD DUP1 SWAP2 SUB SWAP1 RETURN JUMPDEST PUSH2 0x18C PUSH2 0xA48 JUMP JUMPDEST STOP JUMPDEST PUSH2 0x1A8 PUSH1 0x4 DUP1 CALLDATASIZE SUB DUP2 ADD SWAP1 PUSH2 0x1A3 SWAP2 SWAP1 PUSH2 0x120E JUMP JUMPDEST PUSH2 0xB14 JUMP JUMPDEST STOP JUMPDEST PUSH2 0x1C4 PUSH1 0x4 DUP1 CALLDATASIZE SUB DUP2 ADD SWAP1 PUSH2 0x1BF SWAP2 SWAP1 PUSH2 0xEB4 JUMP JUMPDEST PUSH2 0xDBA JUMP JUMPDEST PUSH1 0x40 MLOAD PUSH2 0x1D6 SWAP7 SWAP6 SWAP5 SWAP4 SWAP3 SWAP2 SWAP1 PUSH2 0xFE6 JUMP JUMPDEST PUSH1 0x40 MLOAD DUP1 SWAP2 SUB SWAP1 RETURN JUMPDEST PUSH0 PUSH1 0x60 PUSH0 DUP1 PUSH1 0x1 PUSH0 DUP7 PUSH20 0xFFFFFFFFFFFFFFFFFFFFFFFFFFFFFFFFFFFFFFFF AND PUSH20 0xFFFFFFFFFFFFFFFFFFFFFFFFFFFFFFFFFFFFFFFF AND DUP2 MSTORE PUSH1 0x20 ADD SWAP1 DUP2 MSTORE PUSH1 0x20 ADD PUSH0 KECCAK256 PUSH1 0x40 MLOAD DUP1 PUSH1 0x60 ADD PUSH1 0x40 MSTORE SWAP1 DUP2 PUSH0 DUP3 ADD PUSH0 SWAP1 SLOAD SWAP1 PUSH2 0x100 EXP SWAP1 DIV PUSH20 0xFFFFFFFFFFFFFFFFFFFFFFFFFFFFFFFFFFFFFFFF AND PUSH20 0xFFFFFFFFFFFFFFFFFFFFFFFFFFFFFFFFFFFFFFFF AND PUSH20 0xFFFFFFFFFFFFFFFFFFFFFFFFFFFFFFFFFFFFFFFF AND DUP2 MSTORE PUSH1 0x20 ADD PUSH1 0x1 DUP3 ADD DUP1 SLOAD PUSH2 0x290 SWAP1 PUSH2 0x129F JUMP JUMPDEST DUP1 PUSH1 0x1F ADD PUSH1 0x20 DUP1 SWAP2 DIV MUL PUSH1 0x20 ADD PUSH1 0x40 MLOAD SWAP1 DUP2 ADD PUSH1 0x40 MSTORE DUP1 SWAP3 SWAP2 SWAP1 DUP2 DUP2 MSTORE PUSH1 0x20 ADD DUP3 DUP1 SLOAD PUSH2 0x2BC SWAP1 PUSH2 0x129F JUMP JUMPDEST DUP1 ISZERO PUSH2 0x307 JUMPI DUP1 PUSH1 0x1F LT PUSH2 0x2DE JUMPI PUSH2 0x100 DUP1 DUP4 SLOAD DIV MUL DUP4 MSTORE SWAP2 PUSH1 0x20 ADD SWAP2 PUSH2 0x307 JUMP JUMPDEST DUP3 ADD SWAP2 SWAP1 PUSH0 MSTORE PUSH1 0x20 PUSH0 KECCAK256 SWAP1 JUMPDEST DUP2 SLOAD DUP2 MSTORE SWAP1 PUSH1 0x1 ADD SWAP1 PUSH1 0x20 ADD DUP1 DUP4 GT PUSH2 0x2EA JUMPI DUP3 SWAP1 SUB PUSH1 0x1F AND DUP3 ADD SWAP2 JUMPDEST POP POP POP POP POP DUP2 MSTORE PUSH1 0x20 ADD PUSH1 0x2 DUP3 ADD SLOAD DUP2 MSTORE POP POP SWAP1 POP DUP1 PUSH0 ADD MLOAD DUP2 PUSH1 0x20 ADD MLOAD DUP3 PUSH1 0x40 ADD MLOAD SWAP4 POP SWAP4 POP SWAP4 POP POP SWAP2 SWAP4 SWAP1 SWAP3 POP JUMP JUMPDEST CALLER PUSH20 0xFFFFFFFFFFFFFFFFFFFFFFFFFFFFFFFFFFFFFFFF AND PUSH1 0x1 PUSH0 PUSH1 0x2 PUSH0 CALLER PUSH20 0xFFFFFFFFFFFFFFFFFFFFFFFFFFFFFFFFFFFFFFFF AND PUSH20 0xFFFFFFFFFFFFFFFFFFFFFFFFFFFFFFFFFFFFFFFF AND DUP2 MSTORE PUSH1 0x20 ADD SWAP1 DUP2 MSTORE PUSH1 0x20 ADD PUSH0 KECCAK256 PUSH1 0x1 ADD PUSH0 SWAP1 SLOAD SWAP1 PUSH2 0x100 EXP SWAP1 DIV PUSH20 0xFFFFFFFFFFFFFFFFFFFFFFFFFFFFFFFFFFFFFFFF AND PUSH20 0xFFFFFFFFFFFFFFFFFFFFFFFFFFFFFFFFFFFFFFFF AND PUSH20 0xFFFFFFFFFFFFFFFFFFFFFFFFFFFFFFFFFFFFFFFF AND DUP2 MSTORE PUSH1 0x20 ADD SWAP1 DUP2 MSTORE PUSH1 0x20 ADD PUSH0 KECCAK256 PUSH0 ADD PUSH0 SWAP1 SLOAD SWAP1 PUSH2 0x100 EXP SWAP1 DIV PUSH20 0xFFFFFFFFFFFFFFFFFFFFFFFFFFFFFFFFFFFFFFFF AND PUSH20 0xFFFFFFFFFFFFFFFFFFFFFFFFFFFFFFFFFFFFFFFF AND EQ PUSH2 0x463 JUMPI PUSH1 0x40 MLOAD PUSH32 0x8C379A000000000000000000000000000000000000000000000000000000000 DUP2 MSTORE PUSH1 0x4 ADD PUSH2 0x45A SWAP1 PUSH2 0x1319 JUMP JUMPDEST PUSH1 0x40 MLOAD DUP1 SWAP2 SUB SWAP1 REVERT JUMPDEST PUSH1 0x2 PUSH0 DUP3 PUSH20 0xFFFFFFFFFFFFFFFFFFFFFFFFFFFFFFFFFFFFFFFF AND PUSH20 0xFFFFFFFFFFFFFFFFFFFFFFFFFFFFFFFFFFFFFFFF AND DUP2 MSTORE PUSH1 0x20 ADD SWAP1 DUP2 MSTORE PUSH1 0x20 ADD PUSH0 KECCAK256 PUSH1 0x4 ADD PUSH0 SWAP1 SLOAD SWAP1 PUSH2 0x100 EXP SWAP1 DIV PUSH1 0xFF AND PUSH2 0x4EF JUMPI PUSH1 0x40 MLOAD PUSH32 0x8C379A000000000000000000000000000000000000000000000000000000000 DUP2 MSTORE PUSH1 0x4 ADD PUSH2 0x4E6 SWAP1 PUSH2 0x13A7 JUMP JUMPDEST PUSH1 0x40 MLOAD DUP1 SWAP2 SUB SWAP1 REVERT JUMPDEST PUSH0 PUSH1 0x2 PUSH0 DUP4 PUSH20 0xFFFFFFFFFFFFFFFFFFFFFFFFFFFFFFFFFFFFFFFF AND PUSH20 0xFFFFFFFFFFFFFFFFFFFFFFFFFFFFFFFFFFFFFFFF AND DUP2 MSTORE PUSH1 0x20 ADD SWAP1 DUP2 MSTORE PUSH1 0x20 ADD PUSH0 KECCAK256 SWAP1 POP PUSH1 0x1 DUP2 PUSH1 0x4 ADD PUSH1 0x1 PUSH2 0x100 EXP DUP2 SLOAD DUP2 PUSH1 0xFF MUL NOT AND SWAP1 DUP4 ISZERO ISZERO MUL OR SWAP1 SSTORE POP DUP1 PUSH1 0x4 ADD PUSH1 0x1 SWAP1 SLOAD SWAP1 PUSH2 0x100 EXP SWAP1 DIV PUSH1 0xFF AND ISZERO PUSH2 0x5E1 JUMPI DUP1 PUSH1 0x1 ADD PUSH0 SWAP1 SLOAD SWAP1 PUSH2 0x100 EXP SWAP1 DIV PUSH20 0xFFFFFFFFFFFFFFFFFFFFFFFFFFFFFFFFFFFFFFFF AND PUSH20 0xFFFFFFFFFFFFFFFFFFFFFFFFFFFFFFFFFFFFFFFF AND DUP3 PUSH20 0xFFFFFFFFFFFFFFFFFFFFFFFFFFFFFFFFFFFFFFFF AND PUSH32 0x9014317036A91F047FAD688C0EE149A303811891885264D3F63CC00ECD62DCE8 PUSH1 0x40 MLOAD PUSH1 0x40 MLOAD DUP1 SWAP2 SUB SWAP1 LOG3 JUMPDEST POP POP JUMP JUMPDEST PUSH1 0x1 PUSH1 0x20 MSTORE DUP1 PUSH0 MSTORE PUSH1 0x40 PUSH0 KECCAK256 PUSH0 SWAP2 POP SWAP1 POP DUP1 PUSH0 ADD PUSH0 SWAP1 SLOAD SWAP1 PUSH2 0x100 EXP SWAP1 DIV PUSH20 0xFFFFFFFFFFFFFFFFFFFFFFFFFFFFFFFFFFFFFFFF AND SWAP1 DUP1 PUSH1 0x1 ADD DUP1 SLOAD PUSH2 0x629 SWAP1 PUSH2 0x129F JUMP JUMPDEST DUP1 PUSH1 0x1F ADD PUSH1 0x20 DUP1 SWAP2 DIV MUL PUSH1 0x20 ADD PUSH1 0x40 MLOAD SWAP1 DUP2 ADD PUSH1 0x40 MSTORE DUP1 SWAP3 SWAP2 SWAP1 DUP2 DUP2 MSTORE PUSH1 0x20 ADD DUP3 DUP1 SLOAD PUSH2 0x655 SWAP1 PUSH2 0x129F JUMP JUMPDEST DUP1 ISZERO PUSH2 0x6A0 JUMPI DUP1 PUSH1 0x1F LT PUSH2 0x677 JUMPI PUSH2 0x100 DUP1 DUP4 SLOAD DIV MUL DUP4 MSTORE SWAP2 PUSH1 0x20 ADD SWAP2 PUSH2 0x6A0 JUMP JUMPDEST DUP3 ADD SWAP2 SWAP1 PUSH0 MSTORE PUSH1 0x20 PUSH0 KECCAK256 SWAP1 JUMPDEST DUP2 SLOAD DUP2 MSTORE SWAP1 PUSH1 0x1 ADD SWAP1 PUSH1 0x20 ADD DUP1 DUP4 GT PUSH2 0x683 JUMPI DUP3 SWAP1 SUB PUSH1 0x1F AND DUP3 ADD SWAP2 JUMPDEST POP POP POP POP POP SWAP1 DUP1 PUSH1 0x2 ADD SLOAD SWAP1 POP DUP4 JUMP JUMPDEST PUSH0 DUP1 PUSH0 DUP1 PUSH0 DUP1 PUSH0 PUSH1 0x2 PUSH0 DUP10 PUSH20 0xFFFFFFFFFFFFFFFFFFFFFFFFFFFFFFFFFFFFFFFF AND PUSH20 0xFFFFFFFFFFFFFFFFFFFFFFFFFFFFFFFFFFFFFFFF AND DUP2 MSTORE PUSH1 0x20 ADD SWAP1 DUP2 MSTORE PUSH1 0x20 ADD PUSH0 KECCAK256 PUSH1 0x40 MLOAD DUP1 PUSH1 0xC0 ADD PUSH1 0x40 MSTORE SWAP1 DUP2 PUSH0 DUP3 ADD PUSH0 SWAP1 SLOAD SWAP1 PUSH2 0x100 EXP SWAP1 DIV PUSH20 0xFFFFFFFFFFFFFFFFFFFFFFFFFFFFFFFFFFFFFFFF AND PUSH20 0xFFFFFFFFFFFFFFFFFFFFFFFFFFFFFFFFFFFFFFFF AND PUSH20 0xFFFFFFFFFFFFFFFFFFFFFFFFFFFFFFFFFFFFFFFF AND DUP2 MSTORE PUSH1 0x20 ADD PUSH1 0x1 DUP3 ADD PUSH0 SWAP1 SLOAD SWAP1 PUSH2 0x100 EXP SWAP1 DIV PUSH20 0xFFFFFFFFFFFFFFFFFFFFFFFFFFFFFFFFFFFFFFFF AND PUSH20 0xFFFFFFFFFFFFFFFFFFFFFFFFFFFFFFFFFFFFFFFF AND PUSH20 0xFFFFFFFFFFFFFFFFFFFFFFFFFFFFFFFFFFFFFFFF AND DUP2 MSTORE PUSH1 0x20 ADD PUSH1 0x2 DUP3 ADD SLOAD DUP2 MSTORE PUSH1 0x20 ADD PUSH1 0x3 DUP3 ADD SLOAD DUP2 MSTORE PUSH1 0x20 ADD PUSH1 0x4 DUP3 ADD PUSH0 SWAP1 SLOAD SWAP1 PUSH2 0x100 EXP SWAP1 DIV PUSH1 0xFF AND ISZERO ISZERO ISZERO ISZERO DUP2 MSTORE PUSH1 0x20 ADD PUSH1 0x4 DUP3 ADD PUSH1 0x1 SWAP1 SLOAD SWAP1 PUSH2 0x100 EXP SWAP1 DIV PUSH1 0xFF AND ISZERO ISZERO ISZERO ISZERO DUP2 MSTORE POP POP SWAP1 POP DUP1 PUSH0 ADD MLOAD DUP2 PUSH1 0x20 ADD MLOAD DUP3 PUSH1 0x40 ADD MLOAD DUP4 PUSH1 0x60 ADD MLOAD DUP5 PUSH1 0x80 ADD MLOAD DUP6 PUSH1 0xA0 ADD MLOAD SWAP7 POP SWAP7 POP SWAP7 POP SWAP7 POP SWAP7 POP SWAP7 POP POP SWAP2 SWAP4 SWAP6 POP SWAP2 SWAP4 SWAP6 JUMP JUMPDEST PUSH0 PUSH20 0xFFFFFFFFFFFFFFFFFFFFFFFFFFFFFFFFFFFFFFFF AND PUSH1 0x1 PUSH0 CALLER PUSH20 0xFFFFFFFFFFFFFFFFFFFFFFFFFFFFFFFFFFFFFFFF AND PUSH20 0xFFFFFFFFFFFFFFFFFFFFFFFFFFFFFFFFFFFFFFFF AND DUP2 MSTORE PUSH1 0x20 ADD SWAP1 DUP2 MSTORE PUSH1 0x20 ADD PUSH0 KECCAK256 PUSH0 ADD PUSH0 SWAP1 SLOAD SWAP1 PUSH2 0x100 EXP SWAP1 DIV PUSH20 0xFFFFFFFFFFFFFFFFFFFFFFFFFFFFFFFFFFFFFFFF AND PUSH20 0xFFFFFFFFFFFFFFFFFFFFFFFFFFFFFFFFFFFFFFFF AND EQ PUSH2 0x8F2 JUMPI PUSH1 0x40 MLOAD PUSH32 0x8C379A000000000000000000000000000000000000000000000000000000000 DUP2 MSTORE PUSH1 0x4 ADD PUSH2 0x8E9 SWAP1 PUSH2 0x140F JUMP JUMPDEST PUSH1 0x40 MLOAD DUP1 SWAP2 SUB SWAP1 REVERT JUMPDEST PUSH1 0x40 MLOAD DUP1 PUSH1 0x60 ADD PUSH1 0x40 MSTORE DUP1 CALLER PUSH20 0xFFFFFFFFFFFFFFFFFFFFFFFFFFFFFFFFFFFFFFFF AND DUP2 MSTORE PUSH1 0x20 ADD DUP4 DUP2 MSTORE PUSH1 0x20 ADD DUP3 DUP2 MSTORE POP PUSH1 0x1 PUSH0 CALLER PUSH20 0xFFFFFFFFFFFFFFFFFFFFFFFFFFFFFFFFFFFFFFFF AND PUSH20 0xFFFFFFFFFFFFFFFFFFFFFFFFFFFFFFFFFFFFFFFF AND DUP2 MSTORE PUSH1 0x20 ADD SWAP1 DUP2 MSTORE PUSH1 0x20 ADD PUSH0 KECCAK256 PUSH0 DUP3 ADD MLOAD DUP2 PUSH0 ADD PUSH0 PUSH2 0x100 EXP DUP2 SLOAD DUP2 PUSH20 0xFFFFFFFFFFFFFFFFFFFFFFFFFFFFFFFFFFFFFFFF MUL NOT AND SWAP1 DUP4 PUSH20 0xFFFFFFFFFFFFFFFFFFFFFFFFFFFFFFFFFFFFFFFF AND MUL OR SWAP1 SSTORE POP PUSH1 0x20 DUP3 ADD MLOAD DUP2 PUSH1 0x1 ADD SWAP1 DUP2 PUSH2 0x9B9 SWAP2 SWAP1 PUSH2 0x15CA JUMP JUMPDEST POP PUSH1 0x40 DUP3 ADD MLOAD DUP2 PUSH1 0x2 ADD SSTORE SWAP1 POP POP CALLER PUSH20 0xFFFFFFFFFFFFFFFFFFFFFFFFFFFFFFFFFFFFFFFF AND CALLER PUSH20 0xFFFFFFFFFFFFFFFFFFFFFFFFFFFFFFFFFFFFFFFF AND PUSH32 0xBD76F27E1208C8A9E9A5F16A40ED097AF527A3D0F72E7010CAB9EF3222609EA PUSH1 0x40 MLOAD PUSH1 0x40 MLOAD DUP1 SWAP2 SUB SWAP1 LOG3 POP POP JUMP JUMPDEST PUSH0 DUP1 SLOAD SWAP1 PUSH2 0x100 EXP SWAP1 DIV PUSH20 0xFFFFFFFFFFFFFFFFFFFFFFFFFFFFFFFFFFFFFFFF AND DUP2 JUMP JUMPDEST PUSH0 PUSH1 0x2 PUSH0 CALLER PUSH20 0xFFFFFFFFFFFFFFFFFFFFFFFFFFFFFFFFFFFFFFFF AND PUSH20 0xFFFFFFFFFFFFFFFFFFFFFFFFFFFFFFFFFFFFFFFF AND DUP2 MSTORE PUSH1 0x20 ADD SWAP1 DUP2 MSTORE PUSH1 0x20 ADD PUSH0 KECCAK256 SWAP1 POP DUP1 PUSH1 0x4 ADD PUSH0 SWAP1 SLOAD SWAP1 PUSH2 0x100 EXP SWAP1 DIV PUSH1 0xFF AND ISZERO PUSH2 0xAD9 JUMPI PUSH1 0x40 MLOAD PUSH32 0x8C379A000000000000000000000000000000000000000000000000000000000 DUP2 MSTORE PUSH1 0x4 ADD PUSH2 0xAD0 SWAP1 PUSH2 0x16E3 JUMP JUMPDEST PUSH1 0x40 MLOAD DUP1 SWAP2 SUB SWAP1 REVERT JUMPDEST PUSH1 0x1 DUP2 PUSH1 0x4 ADD PUSH0 PUSH2 0x100 EXP DUP2 SLOAD DUP2 PUSH1 0xFF MUL NOT AND SWAP1 DUP4 ISZERO ISZERO MUL OR SWAP1 SSTORE POP PUSH0 DUP2 PUSH1 0x4 ADD PUSH1 0x1 PUSH2 0x100 EXP DUP2 SLOAD DUP2 PUSH1 0xFF MUL NOT AND SWAP1 DUP4 ISZERO ISZERO MUL OR SWAP1 SSTORE POP POP JUMP JUMPDEST CALLER PUSH20 0xFFFFFFFFFFFFFFFFFFFFFFFFFFFFFFFFFFFFFFFF AND PUSH1 0x1 PUSH0 DUP7 PUSH20 0xFFFFFFFFFFFFFFFFFFFFFFFFFFFFFFFFFFFFFFFF AND PUSH20 0xFFFFFFFFFFFFFFFFFFFFFFFFFFFFFFFFFFFFFFFF AND DUP2 MSTORE PUSH1 0x20 ADD SWAP1 DUP2 MSTORE PUSH1 0x20 ADD PUSH0 KECCAK256 PUSH0 ADD PUSH0 SWAP1 SLOAD SWAP1 PUSH2 0x100 EXP SWAP1 DIV PUSH20 0xFFFFFFFFFFFFFFFFFFFFFFFFFFFFFFFFFFFFFFFF AND PUSH20 0xFFFFFFFFFFFFFFFFFFFFFFFFFFFFFFFFFFFFFFFF AND EQ PUSH2 0xBE0 JUMPI PUSH1 0x40 MLOAD PUSH32 0x8C379A000000000000000000000000000000000000000000000000000000000 DUP2 MSTORE PUSH1 0x4 ADD PUSH2 0xBD7 SWAP1 PUSH2 0x1319 JUMP JUMPDEST PUSH1 0x40 MLOAD DUP1 SWAP2 SUB SWAP1 REVERT JUMPDEST PUSH1 0x40 MLOAD DUP1 PUSH1 0xC0 ADD PUSH1 0x40 MSTORE DUP1 DUP5 PUSH20 0xFFFFFFFFFFFFFFFFFFFFFFFFFFFFFFFFFFFFFFFF AND DUP2 MSTORE PUSH1 0x20 ADD DUP6 PUSH20 0xFFFFFFFFFFFFFFFFFFFFFFFFFFFFFFFFFFFFFFFF AND DUP2 MSTORE PUSH1 0x20 ADD DUP4 DUP2 MSTORE PUSH1 0x20 ADD DUP3 DUP2 MSTORE PUSH1 0x20 ADD PUSH0 ISZERO ISZERO DUP2 MSTORE PUSH1 0x20 ADD PUSH0 ISZERO ISZERO DUP2 MSTORE POP PUSH1 0x2 PUSH0 DUP6 PUSH20 0xFFFFFFFFFFFFFFFFFFFFFFFFFFFFFFFFFFFFFFFF AND PUSH20 0xFFFFFFFFFFFFFFFFFFFFFFFFFFFFFFFFFFFFFFFF AND DUP2 MSTORE PUSH1 0x20 ADD SWAP1 DUP2 MSTORE PUSH1 0x20 ADD PUSH0 KECCAK256 PUSH0 DUP3 ADD MLOAD DUP2 PUSH0 ADD PUSH0 PUSH2 0x100 EXP DUP2 SLOAD DUP2 PUSH20 0xFFFFFFFFFFFFFFFFFFFFFFFFFFFFFFFFFFFFFFFF MUL NOT AND SWAP1 DUP4 PUSH20 0xFFFFFFFFFFFFFFFFFFFFFFFFFFFFFFFFFFFFFFFF AND MUL OR SWAP1 SSTORE POP PUSH1 0x20 DUP3 ADD MLOAD DUP2 PUSH1 0x1 ADD PUSH0 PUSH2 0x100 EXP DUP2 SLOAD DUP2 PUSH20 0xFFFFFFFFFFFFFFFFFFFFFFFFFFFFFFFFFFFFFFFF MUL NOT AND SWAP1 DUP4 PUSH20 0xFFFFFFFFFFFFFFFFFFFFFFFFFFFFFFFFFFFFFFFF AND MUL OR SWAP1 SSTORE POP PUSH1 0x40 DUP3 ADD MLOAD DUP2 PUSH1 0x2 ADD SSTORE PUSH1 0x60 DUP3 ADD MLOAD DUP2 PUSH1 0x3 ADD SSTORE PUSH1 0x80 DUP3 ADD MLOAD DUP2 PUSH1 0x4 ADD PUSH0 PUSH2 0x100 EXP DUP2 SLOAD DUP2 PUSH1 0xFF MUL NOT AND SWAP1 DUP4 ISZERO ISZERO MUL OR SWAP1 SSTORE POP PUSH1 0xA0 DUP3 ADD MLOAD DUP2 PUSH1 0x4 ADD PUSH1 0x1 PUSH2 0x100 EXP DUP2 SLOAD DUP2 PUSH1 0xFF MUL NOT AND SWAP1 DUP4 ISZERO ISZERO MUL OR SWAP1 SSTORE POP SWAP1 POP POP DUP4 PUSH20 0xFFFFFFFFFFFFFFFFFFFFFFFFFFFFFFFFFFFFFFFF AND DUP4 PUSH20 0xFFFFFFFFFFFFFFFFFFFFFFFFFFFFFFFFFFFFFFFF AND PUSH32 0x7DCFA7E41768E0150F76EEE8F7C57FE4AB9677539AF958EEDA0E00B8A5CF2D67 PUSH1 0x40 MLOAD PUSH1 0x40 MLOAD DUP1 SWAP2 SUB SWAP1 LOG3 POP POP POP POP JUMP JUMPDEST PUSH1 0x2 PUSH1 0x20 MSTORE DUP1 PUSH0 MSTORE PUSH1 0x40 PUSH0 KECCAK256 PUSH0 SWAP2 POP SWAP1 POP DUP1 PUSH0 ADD PUSH0 SWAP1 SLOAD SWAP1 PUSH2 0x100 EXP SWAP1 DIV PUSH20 0xFFFFFFFFFFFFFFFFFFFFFFFFFFFFFFFFFFFFFFFF AND SWAP1 DUP1 PUSH1 0x1 ADD PUSH0 SWAP1 SLOAD SWAP1 PUSH2 0x100 EXP SWAP1 DIV PUSH20 0xFFFFFFFFFFFFFFFFFFFFFFFFFFFFFFFFFFFFFFFF AND SWAP1 DUP1 PUSH1 0x2 ADD SLOAD SWAP1 DUP1 PUSH1 0x3 ADD SLOAD SWAP1 DUP1 PUSH1 0x4 ADD PUSH0 SWAP1 SLOAD SWAP1 PUSH2 0x100 EXP SWAP1 DIV PUSH1 0xFF AND SWAP1 DUP1 PUSH1 0x4 ADD PUSH1 0x1 SWAP1 SLOAD SWAP1 PUSH2 0x100 EXP SWAP1 DIV PUSH1 0xFF AND SWAP1 POP DUP7 JUMP JUMPDEST PUSH0 PUSH1 0x40 MLOAD SWAP1 POP SWAP1 JUMP JUMPDEST PUSH0 DUP1 REVERT JUMPDEST PUSH0 DUP1 REVERT JUMPDEST PUSH0 PUSH20 0xFFFFFFFFFFFFFFFFFFFFFFFFFFFFFFFFFFFFFFFF DUP3 AND SWAP1 POP SWAP2 SWAP1 POP JUMP JUMPDEST PUSH0 PUSH2 0xE83 DUP3 PUSH2 0xE5A JUMP JUMPDEST SWAP1 POP SWAP2 SWAP1 POP JUMP JUMPDEST PUSH2 0xE93 DUP2 PUSH2 0xE79 JUMP JUMPDEST DUP2 EQ PUSH2 0xE9D JUMPI PUSH0 DUP1 REVERT JUMPDEST POP JUMP JUMPDEST PUSH0 DUP2 CALLDATALOAD SWAP1 POP PUSH2 0xEAE DUP2 PUSH2 0xE8A JUMP JUMPDEST SWAP3 SWAP2 POP POP JUMP JUMPDEST PUSH0 PUSH1 0x20 DUP3 DUP5 SUB SLT ISZERO PUSH2 0xEC9 JUMPI PUSH2 0xEC8 PUSH2 0xE52 JUMP JUMPDEST JUMPDEST PUSH0 PUSH2 0xED6 DUP5 DUP3 DUP6 ADD PUSH2 0xEA0 JUMP JUMPDEST SWAP2 POP POP SWAP3 SWAP2 POP POP JUMP JUMPDEST PUSH2 0xEE8 DUP2 PUSH2 0xE79 JUMP JUMPDEST DUP3 MSTORE POP POP JUMP JUMPDEST PUSH0 DUP2 MLOAD SWAP1 POP SWAP2 SWAP1 POP JUMP JUMPDEST PUSH0 DUP3 DUP3 MSTORE PUSH1 0x20 DUP3 ADD SWAP1 POP SWAP3 SWAP2 POP POP JUMP JUMPDEST PUSH0 JUMPDEST DUP4 DUP2 LT ISZERO PUSH2 0xF25 JUMPI DUP1 DUP3 ADD MLOAD DUP2 DUP5 ADD MSTORE PUSH1 0x20 DUP2 ADD SWAP1 POP PUSH2 0xF0A JUMP JUMPDEST PUSH0 DUP5 DUP5 ADD MSTORE POP POP POP POP JUMP JUMPDEST PUSH0 PUSH1 0x1F NOT PUSH1 0x1F DUP4 ADD AND SWAP1 POP SWAP2 SWAP1 POP JUMP JUMPDEST PUSH0 PUSH2 0xF4A DUP3 PUSH2 0xEEE JUMP JUMPDEST PUSH2 0xF54 DUP2 DUP6 PUSH2 0xEF8 JUMP JUMPDEST SWAP4 POP PUSH2 0xF64 DUP2 DUP6 PUSH1 0x20 DUP7 ADD PUSH2 0xF08 JUMP JUMPDEST PUSH2 0xF6D DUP2 PUSH2 0xF30 JUMP JUMPDEST DUP5 ADD SWAP2 POP POP SWAP3 SWAP2 POP POP JUMP JUMPDEST PUSH0 DUP2 SWAP1 POP SWAP2 SWAP1 POP JUMP JUMPDEST PUSH2 0xF8A DUP2 PUSH2 0xF78 JUMP JUMPDEST DUP3 MSTORE POP POP JUMP JUMPDEST PUSH0 PUSH1 0x60 DUP3 ADD SWAP1 POP PUSH2 0xFA3 PUSH0 DUP4 ADD DUP7 PUSH2 0xEDF JUMP JUMPDEST DUP2 DUP2 SUB PUSH1 0x20 DUP4 ADD MSTORE PUSH2 0xFB5 DUP2 DUP6 PUSH2 0xF40 JUMP JUMPDEST SWAP1 POP PUSH2 0xFC4 PUSH1 0x40 DUP4 ADD DUP5 PUSH2 0xF81 JUMP JUMPDEST SWAP5 SWAP4 POP POP POP POP JUMP JUMPDEST PUSH0 DUP2 ISZERO ISZERO SWAP1 POP SWAP2 SWAP1 POP JUMP JUMPDEST PUSH2 0xFE0 DUP2 PUSH2 0xFCC JUMP JUMPDEST DUP3 MSTORE POP POP JUMP JUMPDEST PUSH0 PUSH1 0xC0 DUP3 ADD SWAP1 POP PUSH2 0xFF9 PUSH0 DUP4 ADD DUP10 PUSH2 0xEDF JUMP JUMPDEST PUSH2 0x1006 PUSH1 0x20 DUP4 ADD DUP9 PUSH2 0xEDF JUMP JUMPDEST PUSH2 0x1013 PUSH1 0x40 DUP4 ADD DUP8 PUSH2 0xF81 JUMP JUMPDEST PUSH2 0x1020 PUSH1 0x60 DUP4 ADD DUP7 PUSH2 0xF81 JUMP JUMPDEST PUSH2 0x102D PUSH1 0x80 DUP4 ADD DUP6 PUSH2 0xFD7 JUMP JUMPDEST PUSH2 0x103A PUSH1 0xA0 DUP4 ADD DUP5 PUSH2 0xFD7 JUMP JUMPDEST SWAP8 SWAP7 POP POP POP POP POP POP POP JUMP JUMPDEST PUSH0 DUP1 REVERT JUMPDEST PUSH0 DUP1 REVERT JUMPDEST PUSH32 0x4E487B7100000000000000000000000000000000000000000000000000000000 PUSH0 MSTORE PUSH1 0x41 PUSH1 0x4 MSTORE PUSH1 0x24 PUSH0 REVERT JUMPDEST PUSH2 0x1083 DUP3 PUSH2 0xF30 JUMP JUMPDEST DUP2 ADD DUP2 DUP2 LT PUSH8 0xFFFFFFFFFFFFFFFF DUP3 GT OR ISZERO PUSH2 0x10A2 JUMPI PUSH2 0x10A1 PUSH2 0x104D JUMP JUMPDEST JUMPDEST DUP1 PUSH1 0x40 MSTORE POP POP POP JUMP JUMPDEST PUSH0 PUSH2 0x10B4 PUSH2 0xE49 JUMP JUMPDEST SWAP1 POP PUSH2 0x10C0 DUP3 DUP3 PUSH2 0x107A JUMP JUMPDEST SWAP2 SWAP1 POP JUMP JUMPDEST PUSH0 PUSH8 0xFFFFFFFFFFFFFFFF DUP3 GT ISZERO PUSH2 0x10DF JUMPI PUSH2 0x10DE PUSH2 0x104D JUMP JUMPDEST JUMPDEST PUSH2 0x10E8 DUP3 PUSH2 0xF30 JUMP JUMPDEST SWAP1 POP PUSH1 0x20 DUP2 ADD SWAP1 POP SWAP2 SWAP1 POP JUMP JUMPDEST DUP3 DUP2 DUP4 CALLDATACOPY PUSH0 DUP4 DUP4 ADD MSTORE POP POP POP JUMP JUMPDEST PUSH0 PUSH2 0x1115 PUSH2 0x1110 DUP5 PUSH2 0x10C5 JUMP JUMPDEST PUSH2 0x10AB JUMP JUMPDEST SWAP1 POP DUP3 DUP2 MSTORE PUSH1 0x20 DUP2 ADD DUP5 DUP5 DUP5 ADD GT ISZERO PUSH2 0x1131 JUMPI PUSH2 0x1130 PUSH2 0x1049 JUMP JUMPDEST JUMPDEST PUSH2 0x113C DUP5 DUP3 DUP6 PUSH2 0x10F5 JUMP JUMPDEST POP SWAP4 SWAP3 POP POP POP JUMP JUMPDEST PUSH0 DUP3 PUSH1 0x1F DUP4 ADD SLT PUSH2 0x1158 JUMPI PUSH2 0x1157 PUSH2 0x1045 JUMP JUMPDEST JUMPDEST DUP2 CALLDATALOAD PUSH2 0x1168 DUP5 DUP3 PUSH1 0x20 DUP7 ADD PUSH2 0x1103 JUMP JUMPDEST SWAP2 POP POP SWAP3 SWAP2 POP POP JUMP JUMPDEST PUSH2 0x117A DUP2 PUSH2 0xF78 JUMP JUMPDEST DUP2 EQ PUSH2 0x1184 JUMPI PUSH0 DUP1 REVERT JUMPDEST POP JUMP JUMPDEST PUSH0 DUP2 CALLDATALOAD SWAP1 POP PUSH2 0x1195 DUP2 PUSH2 0x1171 JUMP JUMPDEST SWAP3 SWAP2 POP POP JUMP JUMPDEST PUSH0 DUP1 PUSH1 0x40 DUP4 DUP6 SUB SLT ISZERO PUSH2 0x11B1 JUMPI PUSH2 0x11B0 PUSH2 0xE52 JUMP JUMPDEST JUMPDEST PUSH0 DUP4 ADD CALLDATALOAD PUSH8 0xFFFFFFFFFFFFFFFF DUP2 GT ISZERO PUSH2 0x11CE JUMPI PUSH2 0x11CD PUSH2 0xE56 JUMP JUMPDEST JUMPDEST PUSH2 0x11DA DUP6 DUP3 DUP7 ADD PUSH2 0x1144 JUMP JUMPDEST SWAP3 POP POP PUSH1 0x20 PUSH2 0x11EB DUP6 DUP3 DUP7 ADD PUSH2 0x1187 JUMP JUMPDEST SWAP2 POP POP SWAP3 POP SWAP3 SWAP1 POP JUMP JUMPDEST PUSH0 PUSH1 0x20 DUP3 ADD SWAP1 POP PUSH2 0x1208 PUSH0 DUP4 ADD DUP5 PUSH2 0xEDF JUMP JUMPDEST SWAP3 SWAP2 POP POP JUMP JUMPDEST PUSH0 DUP1 PUSH0 DUP1 PUSH1 0x80 DUP6 DUP8 SUB SLT ISZERO PUSH2 0x1226 JUMPI PUSH2 0x1225 PUSH2 0xE52 JUMP JUMPDEST JUMPDEST PUSH0 PUSH2 0x1233 DUP8 DUP3 DUP9 ADD PUSH2 0xEA0 JUMP JUMPDEST SWAP5 POP POP PUSH1 0x20 PUSH2 0x1244 DUP8 DUP3 DUP9 ADD PUSH2 0xEA0 JUMP JUMPDEST SWAP4 POP POP PUSH1 0x40 PUSH2 0x1255 DUP8 DUP3 DUP9 ADD PUSH2 0x1187 JUMP JUMPDEST SWAP3 POP POP PUSH1 0x60 PUSH2 0x1266 DUP8 DUP3 DUP9 ADD PUSH2 0x1187 JUMP JUMPDEST SWAP2 POP POP SWAP3 SWAP6 SWAP2 SWAP5 POP SWAP3 POP JUMP JUMPDEST PUSH32 0x4E487B7100000000000000000000000000000000000000000000000000000000 PUSH0 MSTORE PUSH1 0x22 PUSH1 0x4 MSTORE PUSH1 0x24 PUSH0 REVERT JUMPDEST PUSH0 PUSH1 0x2 DUP3 DIV SWAP1 POP PUSH1 0x1 DUP3 AND DUP1 PUSH2 0x12B6 JUMPI PUSH1 0x7F DUP3 AND SWAP2 POP JUMPDEST PUSH1 0x20 DUP3 LT DUP2 SUB PUSH2 0x12C9 JUMPI PUSH2 0x12C8 PUSH2 0x1272 JUMP JUMPDEST JUMPDEST POP SWAP2 SWAP1 POP JUMP JUMPDEST PUSH32 0x4E6F74207468652070726F7065727479206F776E657200000000000000000000 PUSH0 DUP3 ADD MSTORE POP JUMP JUMPDEST PUSH0 PUSH2 0x1303 PUSH1 0x16 DUP4 PUSH2 0xEF8 JUMP JUMPDEST SWAP2 POP PUSH2 0x130E DUP3 PUSH2 0x12CF JUMP JUMPDEST PUSH1 0x20 DUP3 ADD SWAP1 POP SWAP2 SWAP1 POP JUMP JUMPDEST PUSH0 PUSH1 0x20 DUP3 ADD SWAP1 POP DUP2 DUP2 SUB PUSH0 DUP4 ADD MSTORE PUSH2 0x1330 DUP2 PUSH2 0x12F7 JUMP JUMPDEST SWAP1 POP SWAP2 SWAP1 POP JUMP JUMPDEST PUSH32 0x54656E616E7420686173206E6F7420726571756573746564207465726D696E61 PUSH0 DUP3 ADD MSTORE PUSH32 0x74696F6E00000000000000000000000000000000000000000000000000000000 PUSH1 0x20 DUP3 ADD MSTORE POP JUMP JUMPDEST PUSH0 PUSH2 0x1391 PUSH1 0x24 DUP4 PUSH2 0xEF8 JUMP JUMPDEST SWAP2 POP PUSH2 0x139C DUP3 PUSH2 0x1337 JUMP JUMPDEST PUSH1 0x40 DUP3 ADD SWAP1 POP SWAP2 SWAP1 POP JUMP JUMPDEST PUSH0 PUSH1 0x20 DUP3 ADD SWAP1 POP DUP2 DUP2 SUB PUSH0 DUP4 ADD MSTORE PUSH2 0x13BE DUP2 PUSH2 0x1385 JUMP JUMPDEST SWAP1 POP SWAP2 SWAP1 POP JUMP JUMPDEST PUSH32 0x50726F706572747920616C726561647920726567697374657265640000000000 PUSH0 DUP3 ADD MSTORE POP JUMP JUMPDEST PUSH0 PUSH2 0x13F9 PUSH1 0x1B DUP4 PUSH2 0xEF8 JUMP JUMPDEST SWAP2 POP PUSH2 0x1404 DUP3 PUSH2 0x13C5 JUMP JUMPDEST PUSH1 0x20 DUP3 ADD SWAP1 POP SWAP2 SWAP1 POP JUMP JUMPDEST PUSH0 PUSH1 0x20 DUP3 ADD SWAP1 POP DUP2 DUP2 SUB PUSH0 DUP4 ADD MSTORE PUSH2 0x1426 DUP2 PUSH2 0x13ED JUMP JUMPDEST SWAP1 POP SWAP2 SWAP1 POP JUMP JUMPDEST PUSH0 DUP2 SWAP1 POP DUP2 PUSH0 MSTORE PUSH1 0x20 PUSH0 KECCAK256 SWAP1 POP SWAP2 SWAP1 POP JUMP JUMPDEST PUSH0 PUSH1 0x20 PUSH1 0x1F DUP4 ADD DIV SWAP1 POP SWAP2 SWAP1 POP JUMP JUMPDEST PUSH0 DUP3 DUP3 SHL SWAP1 POP SWAP3 SWAP2 POP POP JUMP JUMPDEST PUSH0 PUSH1 0x8 DUP4 MUL PUSH2 0x1489 PUSH32 0xFFFFFFFFFFFFFFFFFFFFFFFFFFFFFFFFFFFFFFFFFFFFFFFFFFFFFFFFFFFFFFFF DUP3 PUSH2 0x144E JUMP JUMPDEST PUSH2 0x1493 DUP7 DUP4 PUSH2 0x144E JUMP JUMPDEST SWAP6 POP DUP1 NOT DUP5 AND SWAP4 POP DUP1 DUP7 AND DUP5 OR SWAP3 POP POP POP SWAP4 SWAP3 POP POP POP JUMP JUMPDEST PUSH0 DUP2 SWAP1 POP SWAP2 SWAP1 POP JUMP JUMPDEST PUSH0 PUSH2 0x14CE PUSH2 0x14C9 PUSH2 0x14C4 DUP5 PUSH2 0xF78 JUMP JUMPDEST PUSH2 0x14AB JUMP JUMPDEST PUSH2 0xF78 JUMP JUMPDEST SWAP1 POP SWAP2 SWAP1 POP JUMP JUMPDEST PUSH0 DUP2 SWAP1 POP SWAP2 SWAP1 POP JUMP JUMPDEST PUSH2 0x14E7 DUP4 PUSH2 0x14B4 JUMP JUMPDEST PUSH2 0x14FB PUSH2 0x14F3 DUP3 PUSH2 0x14D5 JUMP JUMPDEST DUP5 DUP5 SLOAD PUSH2 0x145A JUMP JUMPDEST DUP3 SSTORE POP POP POP POP JUMP JUMPDEST PUSH0 SWAP1 JUMP JUMPDEST PUSH2 0x150F PUSH2 0x1503 JUMP JUMPDEST PUSH2 0x151A DUP2 DUP5 DUP5 PUSH2 0x14DE JUMP JUMPDEST POP POP POP JUMP JUMPDEST JUMPDEST DUP2 DUP2 LT ISZERO PUSH2 0x153D JUMPI PUSH2 0x1532 PUSH0 DUP3 PUSH2 0x1507 JUMP JUMPDEST PUSH1 0x1 DUP2 ADD SWAP1 POP PUSH2 0x1520 JUMP JUMPDEST POP POP JUMP JUMPDEST PUSH1 0x1F DUP3 GT ISZERO PUSH2 0x1582 JUMPI PUSH2 0x1553 DUP2 PUSH2 0x142D JUMP JUMPDEST PUSH2 0x155C DUP5 PUSH2 0x143F JUMP JUMPDEST DUP2 ADD PUSH1 0x20 DUP6 LT ISZERO PUSH2 0x156B JUMPI DUP2 SWAP1 POP JUMPDEST PUSH2 0x157F PUSH2 0x1577 DUP6 PUSH2 0x143F JUMP JUMPDEST DUP4 ADD DUP3 PUSH2 0x151F JUMP JUMPDEST POP POP JUMPDEST POP POP POP JUMP JUMPDEST PUSH0 DUP3 DUP3 SHR SWAP1 POP SWAP3 SWAP2 POP POP JUMP JUMPDEST PUSH0 PUSH2 0x15A2 PUSH0 NOT DUP5 PUSH1 0x8 MUL PUSH2 0x1587 JUMP JUMPDEST NOT DUP1 DUP4 AND SWAP2 POP POP SWAP3 SWAP2 POP POP JUMP JUMPDEST PUSH0 PUSH2 0x15BA DUP4 DUP4 PUSH2 0x1593 JUMP JUMPDEST SWAP2 POP DUP3 PUSH1 0x2 MUL DUP3 OR SWAP1 POP SWAP3 SWAP2 POP POP JUMP JUMPDEST PUSH2 0x15D3 DUP3 PUSH2 0xEEE JUMP JUMPDEST PUSH8 0xFFFFFFFFFFFFFFFF DUP2 GT ISZERO PUSH2 0x15EC JUMPI PUSH2 0x15EB PUSH2 0x104D JUMP JUMPDEST JUMPDEST PUSH2 0x15F6 DUP3 SLOAD PUSH2 0x129F JUMP JUMPDEST PUSH2 0x1601 DUP3 DUP3 DUP6 PUSH2 0x1541 JUMP JUMPDEST PUSH0 PUSH1 0x20 SWAP1 POP PUSH1 0x1F DUP4 GT PUSH1 0x1 DUP2 EQ PUSH2 0x1632 JUMPI PUSH0 DUP5 ISZERO PUSH2 0x1620 JUMPI DUP3 DUP8 ADD MLOAD SWAP1 POP JUMPDEST PUSH2 0x162A DUP6 DUP3 PUSH2 0x15AF JUMP JUMPDEST DUP7 SSTORE POP PUSH2 0x1691 JUMP JUMPDEST PUSH1 0x1F NOT DUP5 AND PUSH2 0x1640 DUP7 PUSH2 0x142D JUMP JUMPDEST PUSH0 JUMPDEST DUP3 DUP2 LT ISZERO PUSH2 0x1667 JUMPI DUP5 DUP10 ADD MLOAD DUP3 SSTORE PUSH1 0x1 DUP3 ADD SWAP2 POP PUSH1 0x20 DUP6 ADD SWAP5 POP PUSH1 0x20 DUP2 ADD SWAP1 POP PUSH2 0x1642 JUMP JUMPDEST DUP7 DUP4 LT ISZERO PUSH2 0x1684 JUMPI DUP5 DUP10 ADD MLOAD PUSH2 0x1680 PUSH1 0x1F DUP10 AND DUP3 PUSH2 0x1593 JUMP JUMPDEST DUP4 SSTORE POP JUMPDEST PUSH1 0x1 PUSH1 0x2 DUP9 MUL ADD DUP9 SSTORE POP POP POP JUMPDEST POP POP POP POP POP POP JUMP JUMPDEST PUSH32 0x436F6E747261637420616C7265616479207465726D696E617465640000000000 PUSH0 DUP3 ADD MSTORE POP JUMP JUMPDEST PUSH0 PUSH2 0x16CD PUSH1 0x1B DUP4 PUSH2 0xEF8 JUMP JUMPDEST SWAP2 POP PUSH2 0x16D8 DUP3 PUSH2 0x1699 JUMP JUMPDEST PUSH1 0x20 DUP3 ADD SWAP1 POP SWAP2 SWAP1 POP JUMP JUMPDEST PUSH0 PUSH1 0x20 DUP3 ADD SWAP1 POP DUP2 DUP2 SUB PUSH0 DUP4 ADD MSTORE PUSH2 0x16FA DUP2 PUSH2 0x16C1 JUMP JUMPDEST SWAP1 POP SWAP2 SWAP1 POP JUMP INVALID LOG2 PUSH5 0x6970667358 0x22 SLT KECCAK256 SUB SGT SWAP12 PUSH30 0x421F023418BD23C7933F49ADA4E5BBA76378DF71D77F379ECD4EFDB06473 PUSH16 0x6C634300081700330000000000000000 "
				},
				"gasEstimates": {
					"creation": {
						"codeDepositCost": "1188600",
						"executionCost": "25497",
						"totalCost": "1214097"
					},
					"external": {
						"approveTenant(address,address,uint256,uint256)": "infinite",
						"confirmTermination(address)": "37529",
						"getPropertyDetails(address)": "infinite",
						"getTenantDetails(address)": "infinite",
						"owner()": "2527",
						"properties(address)": "infinite",
						"registerProperty(string,uint256)": "infinite",
						"requestContractTermination()": "51041",
						"tenants(address)": "infinite"
					}
				},
				"methodIdentifiers": {
					"approveTenant(address,address,uint256,uint256)": "a67d6ead",
					"confirmTermination(address)": "041dcffa",
					"getPropertyDetails(address)": "021e00b0",
					"getTenantDetails(address)": "26a12fb8",
					"owner()": "8da5cb5b",
					"properties(address)": "25ec77d7",
					"registerProperty(string,uint256)": "7c539718",
					"requestContractTermination()": "a00d7d40",
					"tenants(address)": "fd9153a3"
				}
			},
			"storageLayout": {
				"storage": [
					{
						"astId": 3,
						"contract": "contracts/PropertyManagment.sol:PropertyManagement",
						"label": "owner",
						"offset": 0,
						"slot": "0",
						"type": "t_address"
					},
					{
						"astId": 15,
						"contract": "contracts/PropertyManagment.sol:PropertyManagement",
						"label": "properties",
						"offset": 0,
						"slot": "1",
						"type": "t_mapping(t_address,t_struct(Property)10_storage)"
					},
					{
						"astId": 33,
						"contract": "contracts/PropertyManagment.sol:PropertyManagement",
						"label": "tenants",
						"offset": 0,
						"slot": "2",
						"type": "t_mapping(t_address,t_struct(Tenant)28_storage)"
					}
				],
				"types": {
					"t_address": {
						"encoding": "inplace",
						"label": "address",
						"numberOfBytes": "20"
					},
					"t_bool": {
						"encoding": "inplace",
						"label": "bool",
						"numberOfBytes": "1"
					},
					"t_mapping(t_address,t_struct(Property)10_storage)": {
						"encoding": "mapping",
						"key": "t_address",
						"label": "mapping(address => struct PropertyManagement.Property)",
						"numberOfBytes": "32",
						"value": "t_struct(Property)10_storage"
					},
					"t_mapping(t_address,t_struct(Tenant)28_storage)": {
						"encoding": "mapping",
						"key": "t_address",
						"label": "mapping(address => struct PropertyManagement.Tenant)",
						"numberOfBytes": "32",
						"value": "t_struct(Tenant)28_storage"
					},
					"t_string_storage": {
						"encoding": "bytes",
						"label": "string",
						"numberOfBytes": "32"
					},
					"t_struct(Property)10_storage": {
						"encoding": "inplace",
						"label": "struct PropertyManagement.Property",
						"members": [
							{
								"astId": 5,
								"contract": "contracts/PropertyManagment.sol:PropertyManagement",
								"label": "landlord",
								"offset": 0,
								"slot": "0",
								"type": "t_address"
							},
							{
								"astId": 7,
								"contract": "contracts/PropertyManagment.sol:PropertyManagement",
								"label": "location",
								"offset": 0,
								"slot": "1",
								"type": "t_string_storage"
							},
							{
								"astId": 9,
								"contract": "contracts/PropertyManagment.sol:PropertyManagement",
								"label": "rentAmount",
								"offset": 0,
								"slot": "2",
								"type": "t_uint256"
							}
						],
						"numberOfBytes": "96"
					},
					"t_struct(Tenant)28_storage": {
						"encoding": "inplace",
						"label": "struct PropertyManagement.Tenant",
						"members": [
							{
								"astId": 17,
								"contract": "contracts/PropertyManagment.sol:PropertyManagement",
								"label": "tenantAddress",
								"offset": 0,
								"slot": "0",
								"type": "t_address"
							},
							{
								"astId": 19,
								"contract": "contracts/PropertyManagment.sol:PropertyManagement",
								"label": "propertyAddress",
								"offset": 0,
								"slot": "1",
								"type": "t_address"
							},
							{
								"astId": 21,
								"contract": "contracts/PropertyManagment.sol:PropertyManagement",
								"label": "rentStartDate",
								"offset": 0,
								"slot": "2",
								"type": "t_uint256"
							},
							{
								"astId": 23,
								"contract": "contracts/PropertyManagment.sol:PropertyManagement",
								"label": "rentEndDate",
								"offset": 0,
								"slot": "3",
								"type": "t_uint256"
							},
							{
								"astId": 25,
								"contract": "contracts/PropertyManagment.sol:PropertyManagement",
								"label": "isTerminated",
								"offset": 0,
								"slot": "4",
								"type": "t_bool"
							},
							{
								"astId": 27,
								"contract": "contracts/PropertyManagment.sol:PropertyManagement",
								"label": "landlordConsent",
								"offset": 1,
								"slot": "4",
								"type": "t_bool"
							}
						],
						"numberOfBytes": "160"
					},
					"t_uint256": {
						"encoding": "inplace",
						"label": "uint256",
						"numberOfBytes": "32"
					}
				}
			},
			"userdoc": {
				"kind": "user",
				"methods": {},
				"version": 1
			}
		}
	}
}