{
	"contracts/PropertyManagement.sol": {
		"PropertyManagement": {
			"abi": [
				{
					"inputs": [],
					"stateMutability": "nonpayable",
					"type": "constructor"
				},
				{
					"anonymous": false,
					"inputs": [
						{
							"indexed": true,
							"internalType": "address",
							"name": "tenantAddress",
							"type": "address"
						},
						{
							"indexed": true,
							"internalType": "address",
							"name": "propertyAddress",
							"type": "address"
						}
					],
					"name": "ContractTerminated",
					"type": "event"
				},
				{
					"anonymous": false,
					"inputs": [
						{
							"indexed": true,
							"internalType": "address",
							"name": "propertyAddress",
							"type": "address"
						},
						{
							"indexed": true,
							"internalType": "address",
							"name": "landlord",
							"type": "address"
						}
					],
					"name": "PropertyRegistered",
					"type": "event"
				},
				{
					"anonymous": false,
					"inputs": [
						{
							"indexed": true,
							"internalType": "address",
							"name": "tenantAddress",
							"type": "address"
						},
						{
							"indexed": true,
							"internalType": "address",
							"name": "propertyAddress",
							"type": "address"
						}
					],
					"name": "TenantApproved",
					"type": "event"
				},
				{
					"inputs": [
						{
							"internalType": "string",
							"name": "_location",
							"type": "string"
						},
						{
							"internalType": "uint256",
							"name": "_rentAmount",
							"type": "uint256"
						}
					],
					"name": "addProperty",
					"outputs": [],
					"stateMutability": "nonpayable",
					"type": "function"
				},
				{
					"inputs": [
						{
							"internalType": "address",
							"name": "_propertyAddress",
							"type": "address"
						},
						{
							"internalType": "address",
							"name": "_tenantAddress",
							"type": "address"
						},
						{
							"internalType": "uint256",
							"name": "_startDate",
							"type": "uint256"
						},
						{
							"internalType": "uint256",
							"name": "_endDate",
							"type": "uint256"
						}
					],
					"name": "approveTenant",
					"outputs": [],
					"stateMutability": "nonpayable",
					"type": "function"
				},
				{
					"inputs": [
						{
							"internalType": "address",
							"name": "_tenantAddress",
							"type": "address"
						}
					],
					"name": "confirmTermination",
					"outputs": [],
					"stateMutability": "nonpayable",
					"type": "function"
				},
				{
					"inputs": [],
					"name": "getPropertyCount",
					"outputs": [
						{
							"internalType": "uint256",
							"name": "",
							"type": "uint256"
						}
					],
					"stateMutability": "view",
					"type": "function"
				},
				{
					"inputs": [
						{
							"internalType": "uint256",
							"name": "_propertyIndex",
							"type": "uint256"
						}
					],
					"name": "getPropertyDetails",
					"outputs": [
						{
							"internalType": "address",
							"name": "",
							"type": "address"
						},
						{
							"internalType": "address",
							"name": "",
							"type": "address"
						},
						{
							"internalType": "string",
							"name": "",
							"type": "string"
						},
						{
							"internalType": "uint256",
							"name": "",
							"type": "uint256"
						}
					],
					"stateMutability": "view",
					"type": "function"
				},
				{
					"inputs": [
						{
							"internalType": "address",
							"name": "_propertyAddress",
							"type": "address"
						},
						{
							"internalType": "address",
							"name": "_tenantAddress",
							"type": "address"
						}
					],
					"name": "getTenantDetails",
					"outputs": [
						{
							"internalType": "address",
							"name": "",
							"type": "address"
						},
						{
							"internalType": "address",
							"name": "",
							"type": "address"
						},
						{
							"internalType": "uint256",
							"name": "",
							"type": "uint256"
						},
						{
							"internalType": "uint256",
							"name": "",
							"type": "uint256"
						},
						{
							"internalType": "bool",
							"name": "",
							"type": "bool"
						},
						{
							"internalType": "bool",
							"name": "",
							"type": "bool"
						}
					],
					"stateMutability": "view",
					"type": "function"
				},
				{
					"inputs": [],
					"name": "owner",
					"outputs": [
						{
							"internalType": "address",
							"name": "",
							"type": "address"
						}
					],
					"stateMutability": "view",
					"type": "function"
				},
				{
					"inputs": [
						{
							"internalType": "address",
							"name": "",
							"type": "address"
						},
						{
							"internalType": "uint256",
							"name": "",
							"type": "uint256"
						}
					],
					"name": "properties",
					"outputs": [
						{
							"internalType": "address",
							"name": "ownerAddress",
							"type": "address"
						},
						{
							"internalType": "address",
							"name": "landlord",
							"type": "address"
						},
						{
							"internalType": "string",
							"name": "location",
							"type": "string"
						},
						{
							"internalType": "uint256",
							"name": "rentAmount",
							"type": "uint256"
						}
					],
					"stateMutability": "view",
					"type": "function"
				},
				{
					"inputs": [
						{
							"internalType": "address",
							"name": "",
							"type": "address"
						},
						{
							"internalType": "address",
							"name": "",
							"type": "address"
						}
					],
					"name": "propertyTenants",
					"outputs": [
						{
							"internalType": "address",
							"name": "tenantAddress",
							"type": "address"
						},
						{
							"internalType": "address",
							"name": "propertyAddress",
							"type": "address"
						},
						{
							"internalType": "uint256",
							"name": "rentStartDate",
							"type": "uint256"
						},
						{
							"internalType": "uint256",
							"name": "rentEndDate",
							"type": "uint256"
						},
						{
							"internalType": "bool",
							"name": "isTerminated",
							"type": "bool"
						},
						{
							"internalType": "bool",
							"name": "landlordConsent",
							"type": "bool"
						}
					],
					"stateMutability": "view",
					"type": "function"
				},
				{
					"inputs": [
						{
							"internalType": "string",
							"name": "_location",
							"type": "string"
						},
						{
							"internalType": "uint256",
							"name": "_rentAmount",
							"type": "uint256"
						}
					],
					"name": "registerProperty",
					"outputs": [],
					"stateMutability": "nonpayable",
					"type": "function"
				},
				{
					"inputs": [
						{
							"internalType": "address",
							"name": "_propertyAddress",
							"type": "address"
						}
					],
					"name": "requestContractTermination",
					"outputs": [],
					"stateMutability": "nonpayable",
					"type": "function"
				}
			],
			"devdoc": {
				"kind": "dev",
				"methods": {},
				"version": 1
			},
			"evm": {
				"assembly": "    /* \"contracts/PropertyManagement.sol\":60:4634  contract PropertyManagement {... */\n  mstore(0x40, 0x80)\n    /* \"contracts/PropertyManagement.sol\":1032:1083  constructor() {... */\n  callvalue\n  dup1\n  iszero\n  tag_1\n  jumpi\n  0x00\n  dup1\n  revert\ntag_1:\n  pop\n    /* \"contracts/PropertyManagement.sol\":1065:1075  msg.sender */\n  caller\n    /* \"contracts/PropertyManagement.sol\":1057:1062  owner */\n  0x00\n  dup1\n    /* \"contracts/PropertyManagement.sol\":1057:1075  owner = msg.sender */\n  0x0100\n  exp\n  dup2\n  sload\n  dup2\n  0xffffffffffffffffffffffffffffffffffffffff\n  mul\n  not\n  and\n  swap1\n  dup4\n  0xffffffffffffffffffffffffffffffffffffffff\n  and\n  mul\n  or\n  swap1\n  sstore\n  pop\n    /* \"contracts/PropertyManagement.sol\":60:4634  contract PropertyManagement {... */\n  dataSize(sub_0)\n  dup1\n  dataOffset(sub_0)\n  0x00\n  codecopy\n  0x00\n  return\nstop\n\nsub_0: assembly {\n        /* \"contracts/PropertyManagement.sol\":60:4634  contract PropertyManagement {... */\n      mstore(0x40, 0x80)\n      callvalue\n      dup1\n      iszero\n      tag_1\n      jumpi\n      0x00\n      dup1\n      revert\n    tag_1:\n      pop\n      jumpi(tag_2, lt(calldatasize, 0x04))\n      shr(0xe0, calldataload(0x00))\n      dup1\n      0x7c539718\n      gt\n      tag_14\n      jumpi\n      dup1\n      0x7c539718\n      eq\n      tag_8\n      jumpi\n      dup1\n      0x8da5cb5b\n      eq\n      tag_9\n      jumpi\n      dup1\n      0xa67d6ead\n      eq\n      tag_10\n      jumpi\n      dup1\n      0xc5788c20\n      eq\n      tag_11\n      jumpi\n      dup1\n      0xd8be1a92\n      eq\n      tag_12\n      jumpi\n      dup1\n      0xf54e1aef\n      eq\n      tag_13\n      jumpi\n      jump(tag_2)\n    tag_14:\n      dup1\n      0x041dcffa\n      eq\n      tag_3\n      jumpi\n      dup1\n      0x126dbe43\n      eq\n      tag_4\n      jumpi\n      dup1\n      0x14bfcdd7\n      eq\n      tag_5\n      jumpi\n      dup1\n      0x5710214d\n      eq\n      tag_6\n      jumpi\n      dup1\n      0x7326b901\n      eq\n      tag_7\n      jumpi\n    tag_2:\n      0x00\n      dup1\n      revert\n        /* \"contracts/PropertyManagement.sol\":2499:3461  function confirmTermination(address _tenantAddress) public {... */\n    tag_3:\n      tag_15\n      0x04\n      dup1\n      calldatasize\n      sub\n      dup2\n      add\n      swap1\n      tag_16\n      swap2\n      swap1\n      tag_17\n      jump\t// in\n    tag_16:\n      tag_18\n      jump\t// in\n    tag_15:\n      stop\n        /* \"contracts/PropertyManagement.sol\":3843:4234  function getPropertyDetails(uint256 _propertyIndex) public view returns (address, address, string memory, uint256) {... */\n    tag_4:\n      tag_19\n      0x04\n      dup1\n      calldatasize\n      sub\n      dup2\n      add\n      swap1\n      tag_20\n      swap2\n      swap1\n      tag_21\n      jump\t// in\n    tag_20:\n      tag_22\n      jump\t// in\n    tag_19:\n      mload(0x40)\n      tag_23\n      swap5\n      swap4\n      swap3\n      swap2\n      swap1\n      tag_24\n      jump\t// in\n    tag_23:\n      mload(0x40)\n      dup1\n      swap2\n      sub\n      swap1\n      return\n        /* \"contracts/PropertyManagement.sol\":486:534  mapping(address => Property[]) public properties */\n    tag_5:\n      tag_25\n      0x04\n      dup1\n      calldatasize\n      sub\n      dup2\n      add\n      swap1\n      tag_26\n      swap2\n      swap1\n      tag_27\n      jump\t// in\n    tag_26:\n      tag_28\n      jump\t// in\n    tag_25:\n      mload(0x40)\n      tag_29\n      swap5\n      swap4\n      swap3\n      swap2\n      swap1\n      tag_24\n      jump\t// in\n    tag_29:\n      mload(0x40)\n      dup1\n      swap2\n      sub\n      swap1\n      return\n        /* \"contracts/PropertyManagement.sol\":541:610  mapping(address => mapping(address => Tenant)) public propertyTenants */\n    tag_6:\n      tag_30\n      0x04\n      dup1\n      calldatasize\n      sub\n      dup2\n      add\n      swap1\n      tag_31\n      swap2\n      swap1\n      tag_32\n      jump\t// in\n    tag_31:\n      tag_33\n      jump\t// in\n    tag_30:\n      mload(0x40)\n      tag_34\n      swap7\n      swap6\n      swap5\n      swap4\n      swap3\n      swap2\n      swap1\n      tag_35\n      jump\t// in\n    tag_34:\n      mload(0x40)\n      dup1\n      swap2\n      sub\n      swap1\n      return\n        /* \"contracts/PropertyManagement.sol\":3723:3836  function getPropertyCount() public view returns (uint256) {... */\n    tag_7:\n      tag_36\n      tag_37\n      jump\t// in\n    tag_36:\n      mload(0x40)\n      tag_38\n      swap2\n      swap1\n      tag_39\n      jump\t// in\n    tag_38:\n      mload(0x40)\n      dup1\n      swap2\n      sub\n      swap1\n      return\n        /* \"contracts/PropertyManagement.sol\":1091:1470  function registerProperty(string memory _location, uint256 _rentAmount) public {... */\n    tag_8:\n      tag_40\n      0x04\n      dup1\n      calldatasize\n      sub\n      dup2\n      add\n      swap1\n      tag_41\n      swap2\n      swap1\n      tag_42\n      jump\t// in\n    tag_41:\n      tag_43\n      jump\t// in\n    tag_40:\n      stop\n        /* \"contracts/PropertyManagement.sol\":95:115  address public owner */\n    tag_9:\n      tag_44\n      tag_45\n      jump\t// in\n    tag_44:\n      mload(0x40)\n      tag_46\n      swap2\n      swap1\n      tag_47\n      jump\t// in\n    tag_46:\n      mload(0x40)\n      dup1\n      swap2\n      sub\n      swap1\n      return\n        /* \"contracts/PropertyManagement.sol\":1480:2176  function approveTenant(address _propertyAddress, address _tenantAddress, uint256 _startDate, uint256 _endDate) public {... */\n    tag_10:\n      tag_48\n      0x04\n      dup1\n      calldatasize\n      sub\n      dup2\n      add\n      swap1\n      tag_49\n      swap2\n      swap1\n      tag_50\n      jump\t// in\n    tag_49:\n      tag_51\n      jump\t// in\n    tag_48:\n      stop\n        /* \"contracts/PropertyManagement.sol\":2186:2492  function requestContractTermination(address _propertyAddress) public {... */\n    tag_11:\n      tag_52\n      0x04\n      dup1\n      calldatasize\n      sub\n      dup2\n      add\n      swap1\n      tag_53\n      swap2\n      swap1\n      tag_17\n      jump\t// in\n    tag_53:\n      tag_54\n      jump\t// in\n    tag_52:\n      stop\n        /* \"contracts/PropertyManagement.sol\":4244:4631  function getTenantDetails(address _propertyAddress, address _tenantAddress) public view returns (address, address, uint256, uint256, bool, bool) {... */\n    tag_12:\n      tag_55\n      0x04\n      dup1\n      calldatasize\n      sub\n      dup2\n      add\n      swap1\n      tag_56\n      swap2\n      swap1\n      tag_32\n      jump\t// in\n    tag_56:\n      tag_57\n      jump\t// in\n    tag_55:\n      mload(0x40)\n      tag_58\n      swap7\n      swap6\n      swap5\n      swap4\n      swap3\n      swap2\n      swap1\n      tag_35\n      jump\t// in\n    tag_58:\n      mload(0x40)\n      dup1\n      swap2\n      sub\n      swap1\n      return\n        /* \"contracts/PropertyManagement.sol\":3478:3714  function addProperty(string memory _location, uint256 _rentAmount) public {... */\n    tag_13:\n      tag_59\n      0x04\n      dup1\n      calldatasize\n      sub\n      dup2\n      add\n      swap1\n      tag_60\n      swap2\n      swap1\n      tag_42\n      jump\t// in\n    tag_60:\n      tag_61\n      jump\t// in\n    tag_59:\n      stop\n        /* \"contracts/PropertyManagement.sol\":2499:3461  function confirmTermination(address _tenantAddress) public {... */\n    tag_18:\n        /* \"contracts/PropertyManagement.sol\":2569:2602  Property[] storage userProperties */\n      0x00\n        /* \"contracts/PropertyManagement.sol\":2605:2615  properties */\n      0x01\n        /* \"contracts/PropertyManagement.sol\":2605:2627  properties[msg.sender] */\n      0x00\n        /* \"contracts/PropertyManagement.sol\":2616:2626  msg.sender */\n      caller\n        /* \"contracts/PropertyManagement.sol\":2605:2627  properties[msg.sender] */\n      0xffffffffffffffffffffffffffffffffffffffff\n      and\n      0xffffffffffffffffffffffffffffffffffffffff\n      and\n      dup2\n      mstore\n      0x20\n      add\n      swap1\n      dup2\n      mstore\n      0x20\n      add\n      0x00\n      keccak256\n        /* \"contracts/PropertyManagement.sol\":2569:2627  Property[] storage userProperties = properties[msg.sender] */\n      swap1\n      pop\n        /* \"contracts/PropertyManagement.sol\":2638:2650  bool isOwner */\n      0x00\n        /* \"contracts/PropertyManagement.sol\":2669:2692  address propertyAddress */\n      dup1\n        /* \"contracts/PropertyManagement.sol\":2710:2716  uint i */\n      dup1\n        /* \"contracts/PropertyManagement.sol\":2719:2720  0 */\n      0x00\n        /* \"contracts/PropertyManagement.sol\":2710:2720  uint i = 0 */\n      swap1\n      pop\n        /* \"contracts/PropertyManagement.sol\":2705:3030  for (uint i = 0; i < userProperties.length; i++) {... */\n    tag_63:\n        /* \"contracts/PropertyManagement.sol\":2726:2740  userProperties */\n      dup4\n        /* \"contracts/PropertyManagement.sol\":2726:2747  userProperties.length */\n      dup1\n      sload\n      swap1\n      pop\n        /* \"contracts/PropertyManagement.sol\":2722:2723  i */\n      dup2\n        /* \"contracts/PropertyManagement.sol\":2722:2747  i < userProperties.length */\n      lt\n        /* \"contracts/PropertyManagement.sol\":2705:3030  for (uint i = 0; i < userProperties.length; i++) {... */\n      iszero\n      tag_64\n      jumpi\n        /* \"contracts/PropertyManagement.sol\":2807:2817  msg.sender */\n      caller\n        /* \"contracts/PropertyManagement.sol\":2773:2817  userProperties[i].ownerAddress == msg.sender */\n      0xffffffffffffffffffffffffffffffffffffffff\n      and\n        /* \"contracts/PropertyManagement.sol\":2773:2787  userProperties */\n      dup5\n        /* \"contracts/PropertyManagement.sol\":2788:2789  i */\n      dup3\n        /* \"contracts/PropertyManagement.sol\":2773:2790  userProperties[i] */\n      dup2\n      sload\n      dup2\n      lt\n      tag_66\n      jumpi\n      tag_67\n      tag_68\n      jump\t// in\n    tag_67:\n    tag_66:\n      swap1\n      0x00\n      mstore\n      keccak256(0x00, 0x20)\n      swap1\n      0x04\n      mul\n      add\n        /* \"contracts/PropertyManagement.sol\":2773:2803  userProperties[i].ownerAddress */\n      0x00\n      add\n      0x00\n      swap1\n      sload\n      swap1\n      0x0100\n      exp\n      swap1\n      div\n      0xffffffffffffffffffffffffffffffffffffffff\n      and\n        /* \"contracts/PropertyManagement.sol\":2773:2817  userProperties[i].ownerAddress == msg.sender */\n      0xffffffffffffffffffffffffffffffffffffffff\n      and\n      sub\n        /* \"contracts/PropertyManagement.sol\":2769:3019  if (userProperties[i].ownerAddress == msg.sender) {... */\n      tag_70\n      jumpi\n        /* \"contracts/PropertyManagement.sol\":2864:2878  userProperties */\n      dup4\n        /* \"contracts/PropertyManagement.sol\":2879:2880  i */\n      dup2\n        /* \"contracts/PropertyManagement.sol\":2864:2881  userProperties[i] */\n      dup2\n      sload\n      dup2\n      lt\n      tag_71\n      jumpi\n      tag_72\n      tag_68\n      jump\t// in\n    tag_72:\n    tag_71:\n      swap1\n      0x00\n      mstore\n      keccak256(0x00, 0x20)\n      swap1\n      0x04\n      mul\n      add\n        /* \"contracts/PropertyManagement.sol\":2864:2890  userProperties[i].landlord */\n      0x01\n      add\n      0x00\n      swap1\n      sload\n      swap1\n      0x0100\n      exp\n      swap1\n      div\n      0xffffffffffffffffffffffffffffffffffffffff\n      and\n        /* \"contracts/PropertyManagement.sol\":2838:2891  propertyAddress = address(userProperties[i].landlord) */\n      swap2\n      pop\n        /* \"contracts/PropertyManagement.sol\":2975:2979  true */\n      0x01\n        /* \"contracts/PropertyManagement.sol\":2965:2979  isOwner = true */\n      swap3\n      pop\n        /* \"contracts/PropertyManagement.sol\":2998:3003  break */\n      jump(tag_64)\n        /* \"contracts/PropertyManagement.sol\":2769:3019  if (userProperties[i].ownerAddress == msg.sender) {... */\n    tag_70:\n        /* \"contracts/PropertyManagement.sol\":2749:2752  i++ */\n      dup1\n      dup1\n      0x01\n      add\n      swap2\n      pop\n      pop\n        /* \"contracts/PropertyManagement.sol\":2705:3030  for (uint i = 0; i < userProperties.length; i++) {... */\n      jump(tag_63)\n    tag_64:\n      pop\n        /* \"contracts/PropertyManagement.sol\":3050:3057  isOwner */\n      dup2\n        /* \"contracts/PropertyManagement.sol\":3042:3084  require(isOwner, \"Not the property owner\") */\n      tag_74\n      jumpi\n      mload(0x40)\n      0x08c379a000000000000000000000000000000000000000000000000000000000\n      dup2\n      mstore\n      0x04\n      add\n      tag_75\n      swap1\n      tag_76\n      jump\t// in\n    tag_75:\n      mload(0x40)\n      dup1\n      swap2\n      sub\n      swap1\n      revert\n    tag_74:\n        /* \"contracts/PropertyManagement.sol\":3103:3118  propertyTenants */\n      0x02\n        /* \"contracts/PropertyManagement.sol\":3103:3135  propertyTenants[propertyAddress] */\n      0x00\n        /* \"contracts/PropertyManagement.sol\":3119:3134  propertyAddress */\n      dup3\n        /* \"contracts/PropertyManagement.sol\":3103:3135  propertyTenants[propertyAddress] */\n      0xffffffffffffffffffffffffffffffffffffffff\n      and\n      0xffffffffffffffffffffffffffffffffffffffff\n      and\n      dup2\n      mstore\n      0x20\n      add\n      swap1\n      dup2\n      mstore\n      0x20\n      add\n      0x00\n      keccak256\n        /* \"contracts/PropertyManagement.sol\":3103:3151  propertyTenants[propertyAddress][_tenantAddress] */\n      0x00\n        /* \"contracts/PropertyManagement.sol\":3136:3150  _tenantAddress */\n      dup6\n        /* \"contracts/PropertyManagement.sol\":3103:3151  propertyTenants[propertyAddress][_tenantAddress] */\n      0xffffffffffffffffffffffffffffffffffffffff\n      and\n      0xffffffffffffffffffffffffffffffffffffffff\n      and\n      dup2\n      mstore\n      0x20\n      add\n      swap1\n      dup2\n      mstore\n      0x20\n      add\n      0x00\n      keccak256\n        /* \"contracts/PropertyManagement.sol\":3103:3164  propertyTenants[propertyAddress][_tenantAddress].isTerminated */\n      0x04\n      add\n      0x00\n      swap1\n      sload\n      swap1\n      0x0100\n      exp\n      swap1\n      div\n      0xff\n      and\n        /* \"contracts/PropertyManagement.sol\":3095:3205  require(propertyTenants[propertyAddress][_tenantAddress].isTerminated, \"Tenant has not requested termination\") */\n      tag_77\n      jumpi\n      mload(0x40)\n      0x08c379a000000000000000000000000000000000000000000000000000000000\n      dup2\n      mstore\n      0x04\n      add\n      tag_78\n      swap1\n      tag_79\n      jump\t// in\n    tag_78:\n      mload(0x40)\n      dup1\n      swap2\n      sub\n      swap1\n      revert\n    tag_77:\n        /* \"contracts/PropertyManagement.sol\":3218:3239  Tenant storage tenant */\n      0x00\n        /* \"contracts/PropertyManagement.sol\":3242:3257  propertyTenants */\n      0x02\n        /* \"contracts/PropertyManagement.sol\":3242:3274  propertyTenants[propertyAddress] */\n      0x00\n        /* \"contracts/PropertyManagement.sol\":3258:3273  propertyAddress */\n      dup4\n        /* \"contracts/PropertyManagement.sol\":3242:3274  propertyTenants[propertyAddress] */\n      0xffffffffffffffffffffffffffffffffffffffff\n      and\n      0xffffffffffffffffffffffffffffffffffffffff\n      and\n      dup2\n      mstore\n      0x20\n      add\n      swap1\n      dup2\n      mstore\n      0x20\n      add\n      0x00\n      keccak256\n        /* \"contracts/PropertyManagement.sol\":3242:3290  propertyTenants[propertyAddress][_tenantAddress] */\n      0x00\n        /* \"contracts/PropertyManagement.sol\":3275:3289  _tenantAddress */\n      dup7\n        /* \"contracts/PropertyManagement.sol\":3242:3290  propertyTenants[propertyAddress][_tenantAddress] */\n      0xffffffffffffffffffffffffffffffffffffffff\n      and\n      0xffffffffffffffffffffffffffffffffffffffff\n      and\n      dup2\n      mstore\n      0x20\n      add\n      swap1\n      dup2\n      mstore\n      0x20\n      add\n      0x00\n      keccak256\n        /* \"contracts/PropertyManagement.sol\":3218:3290  Tenant storage tenant = propertyTenants[propertyAddress][_tenantAddress] */\n      swap1\n      pop\n        /* \"contracts/PropertyManagement.sol\":3326:3330  true */\n      0x01\n        /* \"contracts/PropertyManagement.sol\":3301:3307  tenant */\n      dup2\n        /* \"contracts/PropertyManagement.sol\":3301:3323  tenant.landlordConsent */\n      0x04\n      add\n      0x01\n        /* \"contracts/PropertyManagement.sol\":3301:3330  tenant.landlordConsent = true */\n      0x0100\n      exp\n      dup2\n      sload\n      dup2\n      0xff\n      mul\n      not\n      and\n      swap1\n      dup4\n      iszero\n      iszero\n      mul\n      or\n      swap1\n      sstore\n      pop\n        /* \"contracts/PropertyManagement.sol\":3347:3353  tenant */\n      dup1\n        /* \"contracts/PropertyManagement.sol\":3347:3369  tenant.landlordConsent */\n      0x04\n      add\n      0x01\n      swap1\n      sload\n      swap1\n      0x0100\n      exp\n      swap1\n      div\n      0xff\n      and\n        /* \"contracts/PropertyManagement.sol\":3343:3454  if (tenant.landlordConsent) {... */\n      iszero\n      tag_80\n      jumpi\n        /* \"contracts/PropertyManagement.sol\":3426:3441  propertyAddress */\n      dup2\n        /* \"contracts/PropertyManagement.sol\":3391:3442  ContractTerminated(_tenantAddress, propertyAddress) */\n      0xffffffffffffffffffffffffffffffffffffffff\n      and\n        /* \"contracts/PropertyManagement.sol\":3410:3424  _tenantAddress */\n      dup6\n        /* \"contracts/PropertyManagement.sol\":3391:3442  ContractTerminated(_tenantAddress, propertyAddress) */\n      0xffffffffffffffffffffffffffffffffffffffff\n      and\n      0x9014317036a91f047fad688c0ee149a303811891885264d3f63cc00ecd62dce8\n      mload(0x40)\n      mload(0x40)\n      dup1\n      swap2\n      sub\n      swap1\n      log3\n        /* \"contracts/PropertyManagement.sol\":3343:3454  if (tenant.landlordConsent) {... */\n    tag_80:\n        /* \"contracts/PropertyManagement.sol\":2558:3461  {... */\n      pop\n      pop\n      pop\n      pop\n        /* \"contracts/PropertyManagement.sol\":2499:3461  function confirmTermination(address _tenantAddress) public {... */\n      pop\n      jump\t// out\n        /* \"contracts/PropertyManagement.sol\":3843:4234  function getPropertyDetails(uint256 _propertyIndex) public view returns (address, address, string memory, uint256) {... */\n    tag_22:\n        /* \"contracts/PropertyManagement.sol\":3916:3923  address */\n      0x00\n        /* \"contracts/PropertyManagement.sol\":3925:3932  address */\n      dup1\n        /* \"contracts/PropertyManagement.sol\":3934:3947  string memory */\n      0x60\n        /* \"contracts/PropertyManagement.sol\":3949:3956  uint256 */\n      0x00\n        /* \"contracts/PropertyManagement.sol\":3994:4004  properties */\n      0x01\n        /* \"contracts/PropertyManagement.sol\":3994:4016  properties[msg.sender] */\n      0x00\n        /* \"contracts/PropertyManagement.sol\":4005:4015  msg.sender */\n      caller\n        /* \"contracts/PropertyManagement.sol\":3994:4016  properties[msg.sender] */\n      0xffffffffffffffffffffffffffffffffffffffff\n      and\n      0xffffffffffffffffffffffffffffffffffffffff\n      and\n      dup2\n      mstore\n      0x20\n      add\n      swap1\n      dup2\n      mstore\n      0x20\n      add\n      0x00\n      keccak256\n        /* \"contracts/PropertyManagement.sol\":3994:4023  properties[msg.sender].length */\n      dup1\n      sload\n      swap1\n      pop\n        /* \"contracts/PropertyManagement.sol\":3977:3991  _propertyIndex */\n      dup6\n        /* \"contracts/PropertyManagement.sol\":3977:4023  _propertyIndex < properties[msg.sender].length */\n      lt\n        /* \"contracts/PropertyManagement.sol\":3969:4050  require(_propertyIndex < properties[msg.sender].length, \"Invalid property index\") */\n      tag_82\n      jumpi\n      mload(0x40)\n      0x08c379a000000000000000000000000000000000000000000000000000000000\n      dup2\n      mstore\n      0x04\n      add\n      tag_83\n      swap1\n      tag_84\n      jump\t// in\n    tag_83:\n      mload(0x40)\n      dup1\n      swap2\n      sub\n      swap1\n      revert\n    tag_82:\n        /* \"contracts/PropertyManagement.sol\":4061:4085  Property memory property */\n      0x00\n        /* \"contracts/PropertyManagement.sol\":4088:4098  properties */\n      0x01\n        /* \"contracts/PropertyManagement.sol\":4088:4110  properties[msg.sender] */\n      0x00\n        /* \"contracts/PropertyManagement.sol\":4099:4109  msg.sender */\n      caller\n        /* \"contracts/PropertyManagement.sol\":4088:4110  properties[msg.sender] */\n      0xffffffffffffffffffffffffffffffffffffffff\n      and\n      0xffffffffffffffffffffffffffffffffffffffff\n      and\n      dup2\n      mstore\n      0x20\n      add\n      swap1\n      dup2\n      mstore\n      0x20\n      add\n      0x00\n      keccak256\n        /* \"contracts/PropertyManagement.sol\":4111:4125  _propertyIndex */\n      dup7\n        /* \"contracts/PropertyManagement.sol\":4088:4126  properties[msg.sender][_propertyIndex] */\n      dup2\n      sload\n      dup2\n      lt\n      tag_85\n      jumpi\n      tag_86\n      tag_68\n      jump\t// in\n    tag_86:\n    tag_85:\n      swap1\n      0x00\n      mstore\n      keccak256(0x00, 0x20)\n      swap1\n      0x04\n      mul\n      add\n        /* \"contracts/PropertyManagement.sol\":4061:4126  Property memory property = properties[msg.sender][_propertyIndex] */\n      mload(0x40)\n      dup1\n      0x80\n      add\n      0x40\n      mstore\n      swap1\n      dup2\n      0x00\n      dup3\n      add\n      0x00\n      swap1\n      sload\n      swap1\n      0x0100\n      exp\n      swap1\n      div\n      0xffffffffffffffffffffffffffffffffffffffff\n      and\n      0xffffffffffffffffffffffffffffffffffffffff\n      and\n      0xffffffffffffffffffffffffffffffffffffffff\n      and\n      dup2\n      mstore\n      0x20\n      add\n      0x01\n      dup3\n      add\n      0x00\n      swap1\n      sload\n      swap1\n      0x0100\n      exp\n      swap1\n      div\n      0xffffffffffffffffffffffffffffffffffffffff\n      and\n      0xffffffffffffffffffffffffffffffffffffffff\n      and\n      0xffffffffffffffffffffffffffffffffffffffff\n      and\n      dup2\n      mstore\n      0x20\n      add\n      0x02\n      dup3\n      add\n      dup1\n      sload\n      tag_88\n      swap1\n      tag_89\n      jump\t// in\n    tag_88:\n      dup1\n      0x1f\n      add\n      0x20\n      dup1\n      swap2\n      div\n      mul\n      0x20\n      add\n      mload(0x40)\n      swap1\n      dup2\n      add\n      0x40\n      mstore\n      dup1\n      swap3\n      swap2\n      swap1\n      dup2\n      dup2\n      mstore\n      0x20\n      add\n      dup3\n      dup1\n      sload\n      tag_90\n      swap1\n      tag_89\n      jump\t// in\n    tag_90:\n      dup1\n      iszero\n      tag_91\n      jumpi\n      dup1\n      0x1f\n      lt\n      tag_92\n      jumpi\n      0x0100\n      dup1\n      dup4\n      sload\n      div\n      mul\n      dup4\n      mstore\n      swap2\n      0x20\n      add\n      swap2\n      jump(tag_91)\n    tag_92:\n      dup3\n      add\n      swap2\n      swap1\n      0x00\n      mstore\n      keccak256(0x00, 0x20)\n      swap1\n    tag_93:\n      dup2\n      sload\n      dup2\n      mstore\n      swap1\n      0x01\n      add\n      swap1\n      0x20\n      add\n      dup1\n      dup4\n      gt\n      tag_93\n      jumpi\n      dup3\n      swap1\n      sub\n      0x1f\n      and\n      dup3\n      add\n      swap2\n    tag_91:\n      pop\n      pop\n      pop\n      pop\n      pop\n      dup2\n      mstore\n      0x20\n      add\n      0x03\n      dup3\n      add\n      sload\n      dup2\n      mstore\n      pop\n      pop\n      swap1\n      pop\n        /* \"contracts/PropertyManagement.sol\":4145:4153  property */\n      dup1\n        /* \"contracts/PropertyManagement.sol\":4145:4166  property.ownerAddress */\n      0x00\n      add\n      mload\n        /* \"contracts/PropertyManagement.sol\":4168:4176  property */\n      dup2\n        /* \"contracts/PropertyManagement.sol\":4168:4185  property.landlord */\n      0x20\n      add\n      mload\n        /* \"contracts/PropertyManagement.sol\":4187:4195  property */\n      dup3\n        /* \"contracts/PropertyManagement.sol\":4187:4204  property.location */\n      0x40\n      add\n      mload\n        /* \"contracts/PropertyManagement.sol\":4206:4214  property */\n      dup4\n        /* \"contracts/PropertyManagement.sol\":4206:4225  property.rentAmount */\n      0x60\n      add\n      mload\n        /* \"contracts/PropertyManagement.sol\":4137:4226  return (property.ownerAddress, property.landlord, property.location, property.rentAmount) */\n      swap5\n      pop\n      swap5\n      pop\n      swap5\n      pop\n      swap5\n      pop\n      pop\n        /* \"contracts/PropertyManagement.sol\":3843:4234  function getPropertyDetails(uint256 _propertyIndex) public view returns (address, address, string memory, uint256) {... */\n      swap2\n      swap4\n      pop\n      swap2\n      swap4\n      jump\t// out\n        /* \"contracts/PropertyManagement.sol\":486:534  mapping(address => Property[]) public properties */\n    tag_28:\n      mstore(0x20, 0x01)\n      dup2\n      0x00\n      mstore\n      keccak256(0x00, 0x40)\n      dup2\n      dup2\n      sload\n      dup2\n      lt\n      tag_94\n      jumpi\n      0x00\n      dup1\n      revert\n    tag_94:\n      swap1\n      0x00\n      mstore\n      keccak256(0x00, 0x20)\n      swap1\n      0x04\n      mul\n      add\n      0x00\n      swap2\n      pop\n      swap2\n      pop\n      pop\n      dup1\n      0x00\n      add\n      0x00\n      swap1\n      sload\n      swap1\n      0x0100\n      exp\n      swap1\n      div\n      0xffffffffffffffffffffffffffffffffffffffff\n      and\n      swap1\n      dup1\n      0x01\n      add\n      0x00\n      swap1\n      sload\n      swap1\n      0x0100\n      exp\n      swap1\n      div\n      0xffffffffffffffffffffffffffffffffffffffff\n      and\n      swap1\n      dup1\n      0x02\n      add\n      dup1\n      sload\n      tag_96\n      swap1\n      tag_89\n      jump\t// in\n    tag_96:\n      dup1\n      0x1f\n      add\n      0x20\n      dup1\n      swap2\n      div\n      mul\n      0x20\n      add\n      mload(0x40)\n      swap1\n      dup2\n      add\n      0x40\n      mstore\n      dup1\n      swap3\n      swap2\n      swap1\n      dup2\n      dup2\n      mstore\n      0x20\n      add\n      dup3\n      dup1\n      sload\n      tag_97\n      swap1\n      tag_89\n      jump\t// in\n    tag_97:\n      dup1\n      iszero\n      tag_98\n      jumpi\n      dup1\n      0x1f\n      lt\n      tag_99\n      jumpi\n      0x0100\n      dup1\n      dup4\n      sload\n      div\n      mul\n      dup4\n      mstore\n      swap2\n      0x20\n      add\n      swap2\n      jump(tag_98)\n    tag_99:\n      dup3\n      add\n      swap2\n      swap1\n      0x00\n      mstore\n      keccak256(0x00, 0x20)\n      swap1\n    tag_100:\n      dup2\n      sload\n      dup2\n      mstore\n      swap1\n      0x01\n      add\n      swap1\n      0x20\n      add\n      dup1\n      dup4\n      gt\n      tag_100\n      jumpi\n      dup3\n      swap1\n      sub\n      0x1f\n      and\n      dup3\n      add\n      swap2\n    tag_98:\n      pop\n      pop\n      pop\n      pop\n      pop\n      swap1\n      dup1\n      0x03\n      add\n      sload\n      swap1\n      pop\n      dup5\n      jump\t// out\n        /* \"contracts/PropertyManagement.sol\":541:610  mapping(address => mapping(address => Tenant)) public propertyTenants */\n    tag_33:\n      mstore(0x20, 0x02)\n      dup2\n      0x00\n      mstore\n      mstore(0x20, keccak256(0x00, 0x40))\n      dup1\n      0x00\n      mstore\n      keccak256(0x00, 0x40)\n      0x00\n      swap2\n      pop\n      swap2\n      pop\n      pop\n      dup1\n      0x00\n      add\n      0x00\n      swap1\n      sload\n      swap1\n      0x0100\n      exp\n      swap1\n      div\n      0xffffffffffffffffffffffffffffffffffffffff\n      and\n      swap1\n      dup1\n      0x01\n      add\n      0x00\n      swap1\n      sload\n      swap1\n      0x0100\n      exp\n      swap1\n      div\n      0xffffffffffffffffffffffffffffffffffffffff\n      and\n      swap1\n      dup1\n      0x02\n      add\n      sload\n      swap1\n      dup1\n      0x03\n      add\n      sload\n      swap1\n      dup1\n      0x04\n      add\n      0x00\n      swap1\n      sload\n      swap1\n      0x0100\n      exp\n      swap1\n      div\n      0xff\n      and\n      swap1\n      dup1\n      0x04\n      add\n      0x01\n      swap1\n      sload\n      swap1\n      0x0100\n      exp\n      swap1\n      div\n      0xff\n      and\n      swap1\n      pop\n      dup7\n      jump\t// out\n        /* \"contracts/PropertyManagement.sol\":3723:3836  function getPropertyCount() public view returns (uint256) {... */\n    tag_37:\n        /* \"contracts/PropertyManagement.sol\":3772:3779  uint256 */\n      0x00\n        /* \"contracts/PropertyManagement.sol\":3799:3809  properties */\n      0x01\n        /* \"contracts/PropertyManagement.sol\":3799:3821  properties[msg.sender] */\n      0x00\n        /* \"contracts/PropertyManagement.sol\":3810:3820  msg.sender */\n      caller\n        /* \"contracts/PropertyManagement.sol\":3799:3821  properties[msg.sender] */\n      0xffffffffffffffffffffffffffffffffffffffff\n      and\n      0xffffffffffffffffffffffffffffffffffffffff\n      and\n      dup2\n      mstore\n      0x20\n      add\n      swap1\n      dup2\n      mstore\n      0x20\n      add\n      0x00\n      keccak256\n        /* \"contracts/PropertyManagement.sol\":3799:3828  properties[msg.sender].length */\n      dup1\n      sload\n      swap1\n      pop\n        /* \"contracts/PropertyManagement.sol\":3792:3828  return properties[msg.sender].length */\n      swap1\n      pop\n        /* \"contracts/PropertyManagement.sol\":3723:3836  function getPropertyCount() public view returns (uint256) {... */\n      swap1\n      jump\t// out\n        /* \"contracts/PropertyManagement.sol\":1091:1470  function registerProperty(string memory _location, uint256 _rentAmount) public {... */\n    tag_43:\n        /* \"contracts/PropertyManagement.sol\":1181:1214  Property[] storage userProperties */\n      0x00\n        /* \"contracts/PropertyManagement.sol\":1217:1227  properties */\n      0x01\n        /* \"contracts/PropertyManagement.sol\":1217:1239  properties[msg.sender] */\n      0x00\n        /* \"contracts/PropertyManagement.sol\":1228:1238  msg.sender */\n      caller\n        /* \"contracts/PropertyManagement.sol\":1217:1239  properties[msg.sender] */\n      0xffffffffffffffffffffffffffffffffffffffff\n      and\n      0xffffffffffffffffffffffffffffffffffffffff\n      and\n      dup2\n      mstore\n      0x20\n      add\n      swap1\n      dup2\n      mstore\n      0x20\n      add\n      0x00\n      keccak256\n        /* \"contracts/PropertyManagement.sol\":1181:1239  Property[] storage userProperties = properties[msg.sender] */\n      swap1\n      pop\n        /* \"contracts/PropertyManagement.sol\":1283:1284  0 */\n      0x00\n        /* \"contracts/PropertyManagement.sol\":1258:1272  userProperties */\n      dup2\n        /* \"contracts/PropertyManagement.sol\":1258:1279  userProperties.length */\n      dup1\n      sload\n      swap1\n      pop\n        /* \"contracts/PropertyManagement.sol\":1258:1284  userProperties.length == 0 */\n      eq\n        /* \"contracts/PropertyManagement.sol\":1250:1316  require(userProperties.length == 0, \"Property already registered\") */\n      tag_103\n      jumpi\n      mload(0x40)\n      0x08c379a000000000000000000000000000000000000000000000000000000000\n      dup2\n      mstore\n      0x04\n      add\n      tag_104\n      swap1\n      tag_105\n      jump\t// in\n    tag_104:\n      mload(0x40)\n      dup1\n      swap2\n      sub\n      swap1\n      revert\n    tag_103:\n        /* \"contracts/PropertyManagement.sol\":1327:1341  userProperties */\n      dup1\n        /* \"contracts/PropertyManagement.sol\":1347:1403  Property(msg.sender, msg.sender, _location, _rentAmount) */\n      mload(0x40)\n      dup1\n      0x80\n      add\n      0x40\n      mstore\n      dup1\n        /* \"contracts/PropertyManagement.sol\":1356:1366  msg.sender */\n      caller\n        /* \"contracts/PropertyManagement.sol\":1347:1403  Property(msg.sender, msg.sender, _location, _rentAmount) */\n      0xffffffffffffffffffffffffffffffffffffffff\n      and\n      dup2\n      mstore\n      0x20\n      add\n        /* \"contracts/PropertyManagement.sol\":1368:1378  msg.sender */\n      caller\n        /* \"contracts/PropertyManagement.sol\":1347:1403  Property(msg.sender, msg.sender, _location, _rentAmount) */\n      0xffffffffffffffffffffffffffffffffffffffff\n      and\n      dup2\n      mstore\n      0x20\n      add\n        /* \"contracts/PropertyManagement.sol\":1380:1389  _location */\n      dup6\n        /* \"contracts/PropertyManagement.sol\":1347:1403  Property(msg.sender, msg.sender, _location, _rentAmount) */\n      dup2\n      mstore\n      0x20\n      add\n        /* \"contracts/PropertyManagement.sol\":1391:1402  _rentAmount */\n      dup5\n        /* \"contracts/PropertyManagement.sol\":1347:1403  Property(msg.sender, msg.sender, _location, _rentAmount) */\n      dup2\n      mstore\n      pop\n        /* \"contracts/PropertyManagement.sol\":1327:1404  userProperties.push(Property(msg.sender, msg.sender, _location, _rentAmount)) */\n      swap1\n      dup1\n      0x01\n      dup2\n      sload\n      add\n      dup1\n      dup3\n      sstore\n      dup1\n      swap2\n      pop\n      pop\n      0x01\n      swap1\n      sub\n      swap1\n      0x00\n      mstore\n      keccak256(0x00, 0x20)\n      swap1\n      0x04\n      mul\n      add\n      0x00\n      swap1\n      swap2\n      swap1\n      swap2\n      swap1\n      swap2\n      pop\n      0x00\n      dup3\n      add\n      mload\n      dup2\n      0x00\n      add\n      exp(0x0100, 0x00)\n      dup2\n      sload\n      dup2\n      0xffffffffffffffffffffffffffffffffffffffff\n      mul\n      not\n      and\n      swap1\n      dup4\n      0xffffffffffffffffffffffffffffffffffffffff\n      and\n      mul\n      or\n      swap1\n      sstore\n      pop\n      0x20\n      dup3\n      add\n      mload\n      dup2\n      0x01\n      add\n      exp(0x0100, 0x00)\n      dup2\n      sload\n      dup2\n      0xffffffffffffffffffffffffffffffffffffffff\n      mul\n      not\n      and\n      swap1\n      dup4\n      0xffffffffffffffffffffffffffffffffffffffff\n      and\n      mul\n      or\n      swap1\n      sstore\n      pop\n      0x40\n      dup3\n      add\n      mload\n      dup2\n      0x02\n      add\n      swap1\n      dup2\n      tag_107\n      swap2\n      swap1\n      tag_108\n      jump\t// in\n    tag_107:\n      pop\n      0x60\n      dup3\n      add\n      mload\n      dup2\n      0x03\n      add\n      sstore\n      pop\n      pop\n        /* \"contracts/PropertyManagement.sol\":1451:1461  msg.sender */\n      caller\n        /* \"contracts/PropertyManagement.sol\":1420:1462  PropertyRegistered(msg.sender, msg.sender) */\n      0xffffffffffffffffffffffffffffffffffffffff\n      and\n        /* \"contracts/PropertyManagement.sol\":1439:1449  msg.sender */\n      caller\n        /* \"contracts/PropertyManagement.sol\":1420:1462  PropertyRegistered(msg.sender, msg.sender) */\n      0xffffffffffffffffffffffffffffffffffffffff\n      and\n      0x0bd76f27e1208c8a9e9a5f16a40ed097af527a3d0f72e7010cab9ef3222609ea\n      mload(0x40)\n      mload(0x40)\n      dup1\n      swap2\n      sub\n      swap1\n      log3\n        /* \"contracts/PropertyManagement.sol\":1170:1470  {... */\n      pop\n        /* \"contracts/PropertyManagement.sol\":1091:1470  function registerProperty(string memory _location, uint256 _rentAmount) public {... */\n      pop\n      pop\n      jump\t// out\n        /* \"contracts/PropertyManagement.sol\":95:115  address public owner */\n    tag_45:\n      0x00\n      dup1\n      sload\n      swap1\n      0x0100\n      exp\n      swap1\n      div\n      0xffffffffffffffffffffffffffffffffffffffff\n      and\n      dup2\n      jump\t// out\n        /* \"contracts/PropertyManagement.sol\":1480:2176  function approveTenant(address _propertyAddress, address _tenantAddress, uint256 _startDate, uint256 _endDate) public {... */\n    tag_51:\n        /* \"contracts/PropertyManagement.sol\":1609:1642  Property[] storage userProperties */\n      0x00\n        /* \"contracts/PropertyManagement.sol\":1645:1655  properties */\n      0x01\n        /* \"contracts/PropertyManagement.sol\":1645:1667  properties[msg.sender] */\n      0x00\n        /* \"contracts/PropertyManagement.sol\":1656:1666  msg.sender */\n      caller\n        /* \"contracts/PropertyManagement.sol\":1645:1667  properties[msg.sender] */\n      0xffffffffffffffffffffffffffffffffffffffff\n      and\n      0xffffffffffffffffffffffffffffffffffffffff\n      and\n      dup2\n      mstore\n      0x20\n      add\n      swap1\n      dup2\n      mstore\n      0x20\n      add\n      0x00\n      keccak256\n        /* \"contracts/PropertyManagement.sol\":1609:1667  Property[] storage userProperties = properties[msg.sender] */\n      swap1\n      pop\n        /* \"contracts/PropertyManagement.sol\":1680:1692  bool isOwner */\n      0x00\n        /* \"contracts/PropertyManagement.sol\":1716:1722  uint i */\n      dup1\n        /* \"contracts/PropertyManagement.sol\":1711:1909  for (uint i = 0; i < userProperties.length; i++) {... */\n    tag_110:\n        /* \"contracts/PropertyManagement.sol\":1732:1746  userProperties */\n      dup3\n        /* \"contracts/PropertyManagement.sol\":1732:1753  userProperties.length */\n      dup1\n      sload\n      swap1\n      pop\n        /* \"contracts/PropertyManagement.sol\":1728:1729  i */\n      dup2\n        /* \"contracts/PropertyManagement.sol\":1728:1753  i < userProperties.length */\n      lt\n        /* \"contracts/PropertyManagement.sol\":1711:1909  for (uint i = 0; i < userProperties.length; i++) {... */\n      iszero\n      tag_111\n      jumpi\n        /* \"contracts/PropertyManagement.sol\":1813:1823  msg.sender */\n      caller\n        /* \"contracts/PropertyManagement.sol\":1779:1823  userProperties[i].ownerAddress == msg.sender */\n      0xffffffffffffffffffffffffffffffffffffffff\n      and\n        /* \"contracts/PropertyManagement.sol\":1779:1793  userProperties */\n      dup4\n        /* \"contracts/PropertyManagement.sol\":1794:1795  i */\n      dup3\n        /* \"contracts/PropertyManagement.sol\":1779:1796  userProperties[i] */\n      dup2\n      sload\n      dup2\n      lt\n      tag_113\n      jumpi\n      tag_114\n      tag_68\n      jump\t// in\n    tag_114:\n    tag_113:\n      swap1\n      0x00\n      mstore\n      keccak256(0x00, 0x20)\n      swap1\n      0x04\n      mul\n      add\n        /* \"contracts/PropertyManagement.sol\":1779:1809  userProperties[i].ownerAddress */\n      0x00\n      add\n      0x00\n      swap1\n      sload\n      swap1\n      0x0100\n      exp\n      swap1\n      div\n      0xffffffffffffffffffffffffffffffffffffffff\n      and\n        /* \"contracts/PropertyManagement.sol\":1779:1823  userProperties[i].ownerAddress == msg.sender */\n      0xffffffffffffffffffffffffffffffffffffffff\n      and\n      sub\n        /* \"contracts/PropertyManagement.sol\":1775:1898  if (userProperties[i].ownerAddress == msg.sender) {... */\n      tag_116\n      jumpi\n        /* \"contracts/PropertyManagement.sol\":1854:1858  true */\n      0x01\n        /* \"contracts/PropertyManagement.sol\":1844:1858  isOwner = true */\n      swap2\n      pop\n        /* \"contracts/PropertyManagement.sol\":1877:1882  break */\n      jump(tag_111)\n        /* \"contracts/PropertyManagement.sol\":1775:1898  if (userProperties[i].ownerAddress == msg.sender) {... */\n    tag_116:\n        /* \"contracts/PropertyManagement.sol\":1755:1758  i++ */\n      dup1\n      dup1\n      0x01\n      add\n      swap2\n      pop\n      pop\n        /* \"contracts/PropertyManagement.sol\":1711:1909  for (uint i = 0; i < userProperties.length; i++) {... */\n      jump(tag_110)\n    tag_111:\n      pop\n        /* \"contracts/PropertyManagement.sol\":1929:1936  isOwner */\n      dup1\n        /* \"contracts/PropertyManagement.sol\":1921:1963  require(isOwner, \"Not the property owner\") */\n      tag_117\n      jumpi\n      mload(0x40)\n      0x08c379a000000000000000000000000000000000000000000000000000000000\n      dup2\n      mstore\n      0x04\n      add\n      tag_118\n      swap1\n      tag_76\n      jump\t// in\n    tag_118:\n      mload(0x40)\n      dup1\n      swap2\n      sub\n      swap1\n      revert\n    tag_117:\n        /* \"contracts/PropertyManagement.sol\":2028:2104  Tenant(_tenantAddress, _propertyAddress, _startDate, _endDate, false, false) */\n      mload(0x40)\n      dup1\n      0xc0\n      add\n      0x40\n      mstore\n      dup1\n        /* \"contracts/PropertyManagement.sol\":2035:2049  _tenantAddress */\n      dup7\n        /* \"contracts/PropertyManagement.sol\":2028:2104  Tenant(_tenantAddress, _propertyAddress, _startDate, _endDate, false, false) */\n      0xffffffffffffffffffffffffffffffffffffffff\n      and\n      dup2\n      mstore\n      0x20\n      add\n        /* \"contracts/PropertyManagement.sol\":2051:2067  _propertyAddress */\n      dup8\n        /* \"contracts/PropertyManagement.sol\":2028:2104  Tenant(_tenantAddress, _propertyAddress, _startDate, _endDate, false, false) */\n      0xffffffffffffffffffffffffffffffffffffffff\n      and\n      dup2\n      mstore\n      0x20\n      add\n        /* \"contracts/PropertyManagement.sol\":2069:2079  _startDate */\n      dup6\n        /* \"contracts/PropertyManagement.sol\":2028:2104  Tenant(_tenantAddress, _propertyAddress, _startDate, _endDate, false, false) */\n      dup2\n      mstore\n      0x20\n      add\n        /* \"contracts/PropertyManagement.sol\":2081:2089  _endDate */\n      dup5\n        /* \"contracts/PropertyManagement.sol\":2028:2104  Tenant(_tenantAddress, _propertyAddress, _startDate, _endDate, false, false) */\n      dup2\n      mstore\n      0x20\n      add\n        /* \"contracts/PropertyManagement.sol\":2091:2096  false */\n      0x00\n        /* \"contracts/PropertyManagement.sol\":2028:2104  Tenant(_tenantAddress, _propertyAddress, _startDate, _endDate, false, false) */\n      iszero\n      iszero\n      dup2\n      mstore\n      0x20\n      add\n        /* \"contracts/PropertyManagement.sol\":2098:2103  false */\n      0x00\n        /* \"contracts/PropertyManagement.sol\":2028:2104  Tenant(_tenantAddress, _propertyAddress, _startDate, _endDate, false, false) */\n      iszero\n      iszero\n      dup2\n      mstore\n      pop\n        /* \"contracts/PropertyManagement.sol\":1976:1991  propertyTenants */\n      0x02\n        /* \"contracts/PropertyManagement.sol\":1976:2009  propertyTenants[_propertyAddress] */\n      0x00\n        /* \"contracts/PropertyManagement.sol\":1992:2008  _propertyAddress */\n      dup9\n        /* \"contracts/PropertyManagement.sol\":1976:2009  propertyTenants[_propertyAddress] */\n      0xffffffffffffffffffffffffffffffffffffffff\n      and\n      0xffffffffffffffffffffffffffffffffffffffff\n      and\n      dup2\n      mstore\n      0x20\n      add\n      swap1\n      dup2\n      mstore\n      0x20\n      add\n      0x00\n      keccak256\n        /* \"contracts/PropertyManagement.sol\":1976:2025  propertyTenants[_propertyAddress][_tenantAddress] */\n      0x00\n        /* \"contracts/PropertyManagement.sol\":2010:2024  _tenantAddress */\n      dup8\n        /* \"contracts/PropertyManagement.sol\":1976:2025  propertyTenants[_propertyAddress][_tenantAddress] */\n      0xffffffffffffffffffffffffffffffffffffffff\n      and\n      0xffffffffffffffffffffffffffffffffffffffff\n      and\n      dup2\n      mstore\n      0x20\n      add\n      swap1\n      dup2\n      mstore\n      0x20\n      add\n      0x00\n      keccak256\n        /* \"contracts/PropertyManagement.sol\":1976:2104  propertyTenants[_propertyAddress][_tenantAddress] = Tenant(_tenantAddress, _propertyAddress, _startDate, _endDate, false, false) */\n      0x00\n      dup3\n      add\n      mload\n      dup2\n      0x00\n      add\n      exp(0x0100, 0x00)\n      dup2\n      sload\n      dup2\n      0xffffffffffffffffffffffffffffffffffffffff\n      mul\n      not\n      and\n      swap1\n      dup4\n      0xffffffffffffffffffffffffffffffffffffffff\n      and\n      mul\n      or\n      swap1\n      sstore\n      pop\n      0x20\n      dup3\n      add\n      mload\n      dup2\n      0x01\n      add\n      exp(0x0100, 0x00)\n      dup2\n      sload\n      dup2\n      0xffffffffffffffffffffffffffffffffffffffff\n      mul\n      not\n      and\n      swap1\n      dup4\n      0xffffffffffffffffffffffffffffffffffffffff\n      and\n      mul\n      or\n      swap1\n      sstore\n      pop\n      0x40\n      dup3\n      add\n      mload\n      dup2\n      0x02\n      add\n      sstore\n      0x60\n      dup3\n      add\n      mload\n      dup2\n      0x03\n      add\n      sstore\n      0x80\n      dup3\n      add\n      mload\n      dup2\n      0x04\n      add\n      exp(0x0100, 0x00)\n      dup2\n      sload\n      dup2\n      0xff\n      mul\n      not\n      and\n      swap1\n      dup4\n      iszero\n      iszero\n      mul\n      or\n      swap1\n      sstore\n      pop\n      0xa0\n      dup3\n      add\n      mload\n      dup2\n      0x04\n      add\n      exp(0x0100, 0x01)\n      dup2\n      sload\n      dup2\n      0xff\n      mul\n      not\n      and\n      swap1\n      dup4\n      iszero\n      iszero\n      mul\n      or\n      swap1\n      sstore\n      pop\n      swap1\n      pop\n      pop\n        /* \"contracts/PropertyManagement.sol\":2151:2167  _propertyAddress */\n      dup6\n        /* \"contracts/PropertyManagement.sol\":2120:2168  TenantApproved(_tenantAddress, _propertyAddress) */\n      0xffffffffffffffffffffffffffffffffffffffff\n      and\n        /* \"contracts/PropertyManagement.sol\":2135:2149  _tenantAddress */\n      dup6\n        /* \"contracts/PropertyManagement.sol\":2120:2168  TenantApproved(_tenantAddress, _propertyAddress) */\n      0xffffffffffffffffffffffffffffffffffffffff\n      and\n      0x7dcfa7e41768e0150f76eee8f7c57fe4ab9677539af958eeda0e00b8a5cf2d67\n      mload(0x40)\n      mload(0x40)\n      dup1\n      swap2\n      sub\n      swap1\n      log3\n        /* \"contracts/PropertyManagement.sol\":1598:2176  {... */\n      pop\n      pop\n        /* \"contracts/PropertyManagement.sol\":1480:2176  function approveTenant(address _propertyAddress, address _tenantAddress, uint256 _startDate, uint256 _endDate) public {... */\n      pop\n      pop\n      pop\n      pop\n      jump\t// out\n        /* \"contracts/PropertyManagement.sol\":2186:2492  function requestContractTermination(address _propertyAddress) public {... */\n    tag_54:\n        /* \"contracts/PropertyManagement.sol\":2266:2287  Tenant storage tenant */\n      0x00\n        /* \"contracts/PropertyManagement.sol\":2290:2305  propertyTenants */\n      0x02\n        /* \"contracts/PropertyManagement.sol\":2290:2323  propertyTenants[_propertyAddress] */\n      0x00\n        /* \"contracts/PropertyManagement.sol\":2306:2322  _propertyAddress */\n      dup4\n        /* \"contracts/PropertyManagement.sol\":2290:2323  propertyTenants[_propertyAddress] */\n      0xffffffffffffffffffffffffffffffffffffffff\n      and\n      0xffffffffffffffffffffffffffffffffffffffff\n      and\n      dup2\n      mstore\n      0x20\n      add\n      swap1\n      dup2\n      mstore\n      0x20\n      add\n      0x00\n      keccak256\n        /* \"contracts/PropertyManagement.sol\":2290:2335  propertyTenants[_propertyAddress][msg.sender] */\n      0x00\n        /* \"contracts/PropertyManagement.sol\":2324:2334  msg.sender */\n      caller\n        /* \"contracts/PropertyManagement.sol\":2290:2335  propertyTenants[_propertyAddress][msg.sender] */\n      0xffffffffffffffffffffffffffffffffffffffff\n      and\n      0xffffffffffffffffffffffffffffffffffffffff\n      and\n      dup2\n      mstore\n      0x20\n      add\n      swap1\n      dup2\n      mstore\n      0x20\n      add\n      0x00\n      keccak256\n        /* \"contracts/PropertyManagement.sol\":2266:2335  Tenant storage tenant = propertyTenants[_propertyAddress][msg.sender] */\n      swap1\n      pop\n        /* \"contracts/PropertyManagement.sol\":2355:2361  tenant */\n      dup1\n        /* \"contracts/PropertyManagement.sol\":2355:2374  tenant.isTerminated */\n      0x04\n      add\n      0x00\n      swap1\n      sload\n      swap1\n      0x0100\n      exp\n      swap1\n      div\n      0xff\n      and\n        /* \"contracts/PropertyManagement.sol\":2354:2374  !tenant.isTerminated */\n      iszero\n        /* \"contracts/PropertyManagement.sol\":2346:2406  require(!tenant.isTerminated, \"Contract already terminated\") */\n      tag_120\n      jumpi\n      mload(0x40)\n      0x08c379a000000000000000000000000000000000000000000000000000000000\n      dup2\n      mstore\n      0x04\n      add\n      tag_121\n      swap1\n      tag_122\n      jump\t// in\n    tag_121:\n      mload(0x40)\n      dup1\n      swap2\n      sub\n      swap1\n      revert\n    tag_120:\n        /* \"contracts/PropertyManagement.sol\":2439:2443  true */\n      0x01\n        /* \"contracts/PropertyManagement.sol\":2417:2423  tenant */\n      dup2\n        /* \"contracts/PropertyManagement.sol\":2417:2436  tenant.isTerminated */\n      0x04\n      add\n      0x00\n        /* \"contracts/PropertyManagement.sol\":2417:2443  tenant.isTerminated = true */\n      0x0100\n      exp\n      dup2\n      sload\n      dup2\n      0xff\n      mul\n      not\n      and\n      swap1\n      dup4\n      iszero\n      iszero\n      mul\n      or\n      swap1\n      sstore\n      pop\n        /* \"contracts/PropertyManagement.sol\":2479:2484  false */\n      0x00\n        /* \"contracts/PropertyManagement.sol\":2454:2460  tenant */\n      dup2\n        /* \"contracts/PropertyManagement.sol\":2454:2476  tenant.landlordConsent */\n      0x04\n      add\n      0x01\n        /* \"contracts/PropertyManagement.sol\":2454:2484  tenant.landlordConsent = false */\n      0x0100\n      exp\n      dup2\n      sload\n      dup2\n      0xff\n      mul\n      not\n      and\n      swap1\n      dup4\n      iszero\n      iszero\n      mul\n      or\n      swap1\n      sstore\n      pop\n        /* \"contracts/PropertyManagement.sol\":2255:2492  {... */\n      pop\n        /* \"contracts/PropertyManagement.sol\":2186:2492  function requestContractTermination(address _propertyAddress) public {... */\n      pop\n      jump\t// out\n        /* \"contracts/PropertyManagement.sol\":4244:4631  function getTenantDetails(address _propertyAddress, address _tenantAddress) public view returns (address, address, uint256, uint256, bool, bool) {... */\n    tag_57:\n        /* \"contracts/PropertyManagement.sol\":4341:4348  address */\n      0x00\n        /* \"contracts/PropertyManagement.sol\":4350:4357  address */\n      dup1\n        /* \"contracts/PropertyManagement.sol\":4359:4366  uint256 */\n      0x00\n        /* \"contracts/PropertyManagement.sol\":4368:4375  uint256 */\n      dup1\n        /* \"contracts/PropertyManagement.sol\":4377:4381  bool */\n      0x00\n        /* \"contracts/PropertyManagement.sol\":4383:4387  bool */\n      dup1\n        /* \"contracts/PropertyManagement.sol\":4400:4420  Tenant memory tenant */\n      0x00\n        /* \"contracts/PropertyManagement.sol\":4423:4438  propertyTenants */\n      0x02\n        /* \"contracts/PropertyManagement.sol\":4423:4456  propertyTenants[_propertyAddress] */\n      0x00\n        /* \"contracts/PropertyManagement.sol\":4439:4455  _propertyAddress */\n      dup11\n        /* \"contracts/PropertyManagement.sol\":4423:4456  propertyTenants[_propertyAddress] */\n      0xffffffffffffffffffffffffffffffffffffffff\n      and\n      0xffffffffffffffffffffffffffffffffffffffff\n      and\n      dup2\n      mstore\n      0x20\n      add\n      swap1\n      dup2\n      mstore\n      0x20\n      add\n      0x00\n      keccak256\n        /* \"contracts/PropertyManagement.sol\":4423:4472  propertyTenants[_propertyAddress][_tenantAddress] */\n      0x00\n        /* \"contracts/PropertyManagement.sol\":4457:4471  _tenantAddress */\n      dup10\n        /* \"contracts/PropertyManagement.sol\":4423:4472  propertyTenants[_propertyAddress][_tenantAddress] */\n      0xffffffffffffffffffffffffffffffffffffffff\n      and\n      0xffffffffffffffffffffffffffffffffffffffff\n      and\n      dup2\n      mstore\n      0x20\n      add\n      swap1\n      dup2\n      mstore\n      0x20\n      add\n      0x00\n      keccak256\n        /* \"contracts/PropertyManagement.sol\":4400:4472  Tenant memory tenant = propertyTenants[_propertyAddress][_tenantAddress] */\n      mload(0x40)\n      dup1\n      0xc0\n      add\n      0x40\n      mstore\n      swap1\n      dup2\n      0x00\n      dup3\n      add\n      0x00\n      swap1\n      sload\n      swap1\n      0x0100\n      exp\n      swap1\n      div\n      0xffffffffffffffffffffffffffffffffffffffff\n      and\n      0xffffffffffffffffffffffffffffffffffffffff\n      and\n      0xffffffffffffffffffffffffffffffffffffffff\n      and\n      dup2\n      mstore\n      0x20\n      add\n      0x01\n      dup3\n      add\n      0x00\n      swap1\n      sload\n      swap1\n      0x0100\n      exp\n      swap1\n      div\n      0xffffffffffffffffffffffffffffffffffffffff\n      and\n      0xffffffffffffffffffffffffffffffffffffffff\n      and\n      0xffffffffffffffffffffffffffffffffffffffff\n      and\n      dup2\n      mstore\n      0x20\n      add\n      0x02\n      dup3\n      add\n      sload\n      dup2\n      mstore\n      0x20\n      add\n      0x03\n      dup3\n      add\n      sload\n      dup2\n      mstore\n      0x20\n      add\n      0x04\n      dup3\n      add\n      0x00\n      swap1\n      sload\n      swap1\n      0x0100\n      exp\n      swap1\n      div\n      0xff\n      and\n      iszero\n      iszero\n      iszero\n      iszero\n      dup2\n      mstore\n      0x20\n      add\n      0x04\n      dup3\n      add\n      0x01\n      swap1\n      sload\n      swap1\n      0x0100\n      exp\n      swap1\n      div\n      0xff\n      and\n      iszero\n      iszero\n      iszero\n      iszero\n      dup2\n      mstore\n      pop\n      pop\n      swap1\n      pop\n        /* \"contracts/PropertyManagement.sol\":4491:4497  tenant */\n      dup1\n        /* \"contracts/PropertyManagement.sol\":4491:4511  tenant.tenantAddress */\n      0x00\n      add\n      mload\n        /* \"contracts/PropertyManagement.sol\":4513:4519  tenant */\n      dup2\n        /* \"contracts/PropertyManagement.sol\":4513:4535  tenant.propertyAddress */\n      0x20\n      add\n      mload\n        /* \"contracts/PropertyManagement.sol\":4537:4543  tenant */\n      dup3\n        /* \"contracts/PropertyManagement.sol\":4537:4557  tenant.rentStartDate */\n      0x40\n      add\n      mload\n        /* \"contracts/PropertyManagement.sol\":4559:4565  tenant */\n      dup4\n        /* \"contracts/PropertyManagement.sol\":4559:4577  tenant.rentEndDate */\n      0x60\n      add\n      mload\n        /* \"contracts/PropertyManagement.sol\":4579:4585  tenant */\n      dup5\n        /* \"contracts/PropertyManagement.sol\":4579:4598  tenant.isTerminated */\n      0x80\n      add\n      mload\n        /* \"contracts/PropertyManagement.sol\":4600:4606  tenant */\n      dup6\n        /* \"contracts/PropertyManagement.sol\":4600:4622  tenant.landlordConsent */\n      0xa0\n      add\n      mload\n        /* \"contracts/PropertyManagement.sol\":4483:4623  return (tenant.tenantAddress, tenant.propertyAddress, tenant.rentStartDate, tenant.rentEndDate, tenant.isTerminated, tenant.landlordConsent) */\n      swap7\n      pop\n      swap7\n      pop\n      swap7\n      pop\n      swap7\n      pop\n      swap7\n      pop\n      swap7\n      pop\n      pop\n        /* \"contracts/PropertyManagement.sol\":4244:4631  function getTenantDetails(address _propertyAddress, address _tenantAddress) public view returns (address, address, uint256, uint256, bool, bool) {... */\n      swap3\n      swap6\n      pop\n      swap3\n      swap6\n      pop\n      swap3\n      swap6\n      jump\t// out\n        /* \"contracts/PropertyManagement.sol\":3478:3714  function addProperty(string memory _location, uint256 _rentAmount) public {... */\n    tag_61:\n        /* \"contracts/PropertyManagement.sol\":3563:3573  properties */\n      0x01\n        /* \"contracts/PropertyManagement.sol\":3563:3585  properties[msg.sender] */\n      0x00\n        /* \"contracts/PropertyManagement.sol\":3574:3584  msg.sender */\n      caller\n        /* \"contracts/PropertyManagement.sol\":3563:3585  properties[msg.sender] */\n      0xffffffffffffffffffffffffffffffffffffffff\n      and\n      0xffffffffffffffffffffffffffffffffffffffff\n      and\n      dup2\n      mstore\n      0x20\n      add\n      swap1\n      dup2\n      mstore\n      0x20\n      add\n      0x00\n      keccak256\n        /* \"contracts/PropertyManagement.sol\":3591:3647  Property(msg.sender, msg.sender, _location, _rentAmount) */\n      mload(0x40)\n      dup1\n      0x80\n      add\n      0x40\n      mstore\n      dup1\n        /* \"contracts/PropertyManagement.sol\":3600:3610  msg.sender */\n      caller\n        /* \"contracts/PropertyManagement.sol\":3591:3647  Property(msg.sender, msg.sender, _location, _rentAmount) */\n      0xffffffffffffffffffffffffffffffffffffffff\n      and\n      dup2\n      mstore\n      0x20\n      add\n        /* \"contracts/PropertyManagement.sol\":3612:3622  msg.sender */\n      caller\n        /* \"contracts/PropertyManagement.sol\":3591:3647  Property(msg.sender, msg.sender, _location, _rentAmount) */\n      0xffffffffffffffffffffffffffffffffffffffff\n      and\n      dup2\n      mstore\n      0x20\n      add\n        /* \"contracts/PropertyManagement.sol\":3624:3633  _location */\n      dup5\n        /* \"contracts/PropertyManagement.sol\":3591:3647  Property(msg.sender, msg.sender, _location, _rentAmount) */\n      dup2\n      mstore\n      0x20\n      add\n        /* \"contracts/PropertyManagement.sol\":3635:3646  _rentAmount */\n      dup4\n        /* \"contracts/PropertyManagement.sol\":3591:3647  Property(msg.sender, msg.sender, _location, _rentAmount) */\n      dup2\n      mstore\n      pop\n        /* \"contracts/PropertyManagement.sol\":3563:3648  properties[msg.sender].push(Property(msg.sender, msg.sender, _location, _rentAmount)) */\n      swap1\n      dup1\n      0x01\n      dup2\n      sload\n      add\n      dup1\n      dup3\n      sstore\n      dup1\n      swap2\n      pop\n      pop\n      0x01\n      swap1\n      sub\n      swap1\n      0x00\n      mstore\n      keccak256(0x00, 0x20)\n      swap1\n      0x04\n      mul\n      add\n      0x00\n      swap1\n      swap2\n      swap1\n      swap2\n      swap1\n      swap2\n      pop\n      0x00\n      dup3\n      add\n      mload\n      dup2\n      0x00\n      add\n      exp(0x0100, 0x00)\n      dup2\n      sload\n      dup2\n      0xffffffffffffffffffffffffffffffffffffffff\n      mul\n      not\n      and\n      swap1\n      dup4\n      0xffffffffffffffffffffffffffffffffffffffff\n      and\n      mul\n      or\n      swap1\n      sstore\n      pop\n      0x20\n      dup3\n      add\n      mload\n      dup2\n      0x01\n      add\n      exp(0x0100, 0x00)\n      dup2\n      sload\n      dup2\n      0xffffffffffffffffffffffffffffffffffffffff\n      mul\n      not\n      and\n      swap1\n      dup4\n      0xffffffffffffffffffffffffffffffffffffffff\n      and\n      mul\n      or\n      swap1\n      sstore\n      pop\n      0x40\n      dup3\n      add\n      mload\n      dup2\n      0x02\n      add\n      swap1\n      dup2\n      tag_126\n      swap2\n      swap1\n      tag_108\n      jump\t// in\n    tag_126:\n      pop\n      0x60\n      dup3\n      add\n      mload\n      dup2\n      0x03\n      add\n      sstore\n      pop\n      pop\n        /* \"contracts/PropertyManagement.sol\":3695:3705  msg.sender */\n      caller\n        /* \"contracts/PropertyManagement.sol\":3664:3706  PropertyRegistered(msg.sender, msg.sender) */\n      0xffffffffffffffffffffffffffffffffffffffff\n      and\n        /* \"contracts/PropertyManagement.sol\":3683:3693  msg.sender */\n      caller\n        /* \"contracts/PropertyManagement.sol\":3664:3706  PropertyRegistered(msg.sender, msg.sender) */\n      0xffffffffffffffffffffffffffffffffffffffff\n      and\n      0x0bd76f27e1208c8a9e9a5f16a40ed097af527a3d0f72e7010cab9ef3222609ea\n      mload(0x40)\n      mload(0x40)\n      dup1\n      swap2\n      sub\n      swap1\n      log3\n        /* \"contracts/PropertyManagement.sol\":3478:3714  function addProperty(string memory _location, uint256 _rentAmount) public {... */\n      pop\n      pop\n      jump\t// out\n        /* \"#utility.yul\":7:82   */\n    tag_127:\n        /* \"#utility.yul\":40:46   */\n      0x00\n        /* \"#utility.yul\":73:75   */\n      0x40\n        /* \"#utility.yul\":67:76   */\n      mload\n        /* \"#utility.yul\":57:76   */\n      swap1\n      pop\n        /* \"#utility.yul\":7:82   */\n      swap1\n      jump\t// out\n        /* \"#utility.yul\":88:205   */\n    tag_128:\n        /* \"#utility.yul\":197:198   */\n      0x00\n        /* \"#utility.yul\":194:195   */\n      dup1\n        /* \"#utility.yul\":187:199   */\n      revert\n        /* \"#utility.yul\":211:328   */\n    tag_129:\n        /* \"#utility.yul\":320:321   */\n      0x00\n        /* \"#utility.yul\":317:318   */\n      dup1\n        /* \"#utility.yul\":310:322   */\n      revert\n        /* \"#utility.yul\":334:460   */\n    tag_130:\n        /* \"#utility.yul\":371:378   */\n      0x00\n        /* \"#utility.yul\":411:453   */\n      0xffffffffffffffffffffffffffffffffffffffff\n        /* \"#utility.yul\":404:409   */\n      dup3\n        /* \"#utility.yul\":400:454   */\n      and\n        /* \"#utility.yul\":389:454   */\n      swap1\n      pop\n        /* \"#utility.yul\":334:460   */\n      swap2\n      swap1\n      pop\n      jump\t// out\n        /* \"#utility.yul\":466:562   */\n    tag_131:\n        /* \"#utility.yul\":503:510   */\n      0x00\n        /* \"#utility.yul\":532:556   */\n      tag_187\n        /* \"#utility.yul\":550:555   */\n      dup3\n        /* \"#utility.yul\":532:556   */\n      tag_130\n      jump\t// in\n    tag_187:\n        /* \"#utility.yul\":521:556   */\n      swap1\n      pop\n        /* \"#utility.yul\":466:562   */\n      swap2\n      swap1\n      pop\n      jump\t// out\n        /* \"#utility.yul\":568:690   */\n    tag_132:\n        /* \"#utility.yul\":641:665   */\n      tag_189\n        /* \"#utility.yul\":659:664   */\n      dup2\n        /* \"#utility.yul\":641:665   */\n      tag_131\n      jump\t// in\n    tag_189:\n        /* \"#utility.yul\":634:639   */\n      dup2\n        /* \"#utility.yul\":631:666   */\n      eq\n        /* \"#utility.yul\":621:684   */\n      tag_190\n      jumpi\n        /* \"#utility.yul\":680:681   */\n      0x00\n        /* \"#utility.yul\":677:678   */\n      dup1\n        /* \"#utility.yul\":670:682   */\n      revert\n        /* \"#utility.yul\":621:684   */\n    tag_190:\n        /* \"#utility.yul\":568:690   */\n      pop\n      jump\t// out\n        /* \"#utility.yul\":696:835   */\n    tag_133:\n        /* \"#utility.yul\":742:747   */\n      0x00\n        /* \"#utility.yul\":780:786   */\n      dup2\n        /* \"#utility.yul\":767:787   */\n      calldataload\n        /* \"#utility.yul\":758:787   */\n      swap1\n      pop\n        /* \"#utility.yul\":796:829   */\n      tag_192\n        /* \"#utility.yul\":823:828   */\n      dup2\n        /* \"#utility.yul\":796:829   */\n      tag_132\n      jump\t// in\n    tag_192:\n        /* \"#utility.yul\":696:835   */\n      swap3\n      swap2\n      pop\n      pop\n      jump\t// out\n        /* \"#utility.yul\":841:1170   */\n    tag_17:\n        /* \"#utility.yul\":900:906   */\n      0x00\n        /* \"#utility.yul\":949:951   */\n      0x20\n        /* \"#utility.yul\":937:946   */\n      dup3\n        /* \"#utility.yul\":928:935   */\n      dup5\n        /* \"#utility.yul\":924:947   */\n      sub\n        /* \"#utility.yul\":920:952   */\n      slt\n        /* \"#utility.yul\":917:1036   */\n      iszero\n      tag_194\n      jumpi\n        /* \"#utility.yul\":955:1034   */\n      tag_195\n      tag_128\n      jump\t// in\n    tag_195:\n        /* \"#utility.yul\":917:1036   */\n    tag_194:\n        /* \"#utility.yul\":1075:1076   */\n      0x00\n        /* \"#utility.yul\":1100:1153   */\n      tag_196\n        /* \"#utility.yul\":1145:1152   */\n      dup5\n        /* \"#utility.yul\":1136:1142   */\n      dup3\n        /* \"#utility.yul\":1125:1134   */\n      dup6\n        /* \"#utility.yul\":1121:1143   */\n      add\n        /* \"#utility.yul\":1100:1153   */\n      tag_133\n      jump\t// in\n    tag_196:\n        /* \"#utility.yul\":1090:1153   */\n      swap2\n      pop\n        /* \"#utility.yul\":1046:1163   */\n      pop\n        /* \"#utility.yul\":841:1170   */\n      swap3\n      swap2\n      pop\n      pop\n      jump\t// out\n        /* \"#utility.yul\":1176:1253   */\n    tag_134:\n        /* \"#utility.yul\":1213:1220   */\n      0x00\n        /* \"#utility.yul\":1242:1247   */\n      dup2\n        /* \"#utility.yul\":1231:1247   */\n      swap1\n      pop\n        /* \"#utility.yul\":1176:1253   */\n      swap2\n      swap1\n      pop\n      jump\t// out\n        /* \"#utility.yul\":1259:1381   */\n    tag_135:\n        /* \"#utility.yul\":1332:1356   */\n      tag_199\n        /* \"#utility.yul\":1350:1355   */\n      dup2\n        /* \"#utility.yul\":1332:1356   */\n      tag_134\n      jump\t// in\n    tag_199:\n        /* \"#utility.yul\":1325:1330   */\n      dup2\n        /* \"#utility.yul\":1322:1357   */\n      eq\n        /* \"#utility.yul\":1312:1375   */\n      tag_200\n      jumpi\n        /* \"#utility.yul\":1371:1372   */\n      0x00\n        /* \"#utility.yul\":1368:1369   */\n      dup1\n        /* \"#utility.yul\":1361:1373   */\n      revert\n        /* \"#utility.yul\":1312:1375   */\n    tag_200:\n        /* \"#utility.yul\":1259:1381   */\n      pop\n      jump\t// out\n        /* \"#utility.yul\":1387:1526   */\n    tag_136:\n        /* \"#utility.yul\":1433:1438   */\n      0x00\n        /* \"#utility.yul\":1471:1477   */\n      dup2\n        /* \"#utility.yul\":1458:1478   */\n      calldataload\n        /* \"#utility.yul\":1449:1478   */\n      swap1\n      pop\n        /* \"#utility.yul\":1487:1520   */\n      tag_202\n        /* \"#utility.yul\":1514:1519   */\n      dup2\n        /* \"#utility.yul\":1487:1520   */\n      tag_135\n      jump\t// in\n    tag_202:\n        /* \"#utility.yul\":1387:1526   */\n      swap3\n      swap2\n      pop\n      pop\n      jump\t// out\n        /* \"#utility.yul\":1532:1861   */\n    tag_21:\n        /* \"#utility.yul\":1591:1597   */\n      0x00\n        /* \"#utility.yul\":1640:1642   */\n      0x20\n        /* \"#utility.yul\":1628:1637   */\n      dup3\n        /* \"#utility.yul\":1619:1626   */\n      dup5\n        /* \"#utility.yul\":1615:1638   */\n      sub\n        /* \"#utility.yul\":1611:1643   */\n      slt\n        /* \"#utility.yul\":1608:1727   */\n      iszero\n      tag_204\n      jumpi\n        /* \"#utility.yul\":1646:1725   */\n      tag_205\n      tag_128\n      jump\t// in\n    tag_205:\n        /* \"#utility.yul\":1608:1727   */\n    tag_204:\n        /* \"#utility.yul\":1766:1767   */\n      0x00\n        /* \"#utility.yul\":1791:1844   */\n      tag_206\n        /* \"#utility.yul\":1836:1843   */\n      dup5\n        /* \"#utility.yul\":1827:1833   */\n      dup3\n        /* \"#utility.yul\":1816:1825   */\n      dup6\n        /* \"#utility.yul\":1812:1834   */\n      add\n        /* \"#utility.yul\":1791:1844   */\n      tag_136\n      jump\t// in\n    tag_206:\n        /* \"#utility.yul\":1781:1844   */\n      swap2\n      pop\n        /* \"#utility.yul\":1737:1854   */\n      pop\n        /* \"#utility.yul\":1532:1861   */\n      swap3\n      swap2\n      pop\n      pop\n      jump\t// out\n        /* \"#utility.yul\":1867:1985   */\n    tag_137:\n        /* \"#utility.yul\":1954:1978   */\n      tag_208\n        /* \"#utility.yul\":1972:1977   */\n      dup2\n        /* \"#utility.yul\":1954:1978   */\n      tag_131\n      jump\t// in\n    tag_208:\n        /* \"#utility.yul\":1949:1952   */\n      dup3\n        /* \"#utility.yul\":1942:1979   */\n      mstore\n        /* \"#utility.yul\":1867:1985   */\n      pop\n      pop\n      jump\t// out\n        /* \"#utility.yul\":1991:2090   */\n    tag_138:\n        /* \"#utility.yul\":2043:2049   */\n      0x00\n        /* \"#utility.yul\":2077:2082   */\n      dup2\n        /* \"#utility.yul\":2071:2083   */\n      mload\n        /* \"#utility.yul\":2061:2083   */\n      swap1\n      pop\n        /* \"#utility.yul\":1991:2090   */\n      swap2\n      swap1\n      pop\n      jump\t// out\n        /* \"#utility.yul\":2096:2265   */\n    tag_139:\n        /* \"#utility.yul\":2180:2191   */\n      0x00\n        /* \"#utility.yul\":2214:2220   */\n      dup3\n        /* \"#utility.yul\":2209:2212   */\n      dup3\n        /* \"#utility.yul\":2202:2221   */\n      mstore\n        /* \"#utility.yul\":2254:2258   */\n      0x20\n        /* \"#utility.yul\":2249:2252   */\n      dup3\n        /* \"#utility.yul\":2245:2259   */\n      add\n        /* \"#utility.yul\":2230:2259   */\n      swap1\n      pop\n        /* \"#utility.yul\":2096:2265   */\n      swap3\n      swap2\n      pop\n      pop\n      jump\t// out\n        /* \"#utility.yul\":2271:2517   */\n    tag_140:\n        /* \"#utility.yul\":2352:2353   */\n      0x00\n        /* \"#utility.yul\":2362:2475   */\n    tag_212:\n        /* \"#utility.yul\":2376:2382   */\n      dup4\n        /* \"#utility.yul\":2373:2374   */\n      dup2\n        /* \"#utility.yul\":2370:2383   */\n      lt\n        /* \"#utility.yul\":2362:2475   */\n      iszero\n      tag_214\n      jumpi\n        /* \"#utility.yul\":2461:2462   */\n      dup1\n        /* \"#utility.yul\":2456:2459   */\n      dup3\n        /* \"#utility.yul\":2452:2463   */\n      add\n        /* \"#utility.yul\":2446:2464   */\n      mload\n        /* \"#utility.yul\":2442:2443   */\n      dup2\n        /* \"#utility.yul\":2437:2440   */\n      dup5\n        /* \"#utility.yul\":2433:2444   */\n      add\n        /* \"#utility.yul\":2426:2465   */\n      mstore\n        /* \"#utility.yul\":2398:2400   */\n      0x20\n        /* \"#utility.yul\":2395:2396   */\n      dup2\n        /* \"#utility.yul\":2391:2401   */\n      add\n        /* \"#utility.yul\":2386:2401   */\n      swap1\n      pop\n        /* \"#utility.yul\":2362:2475   */\n      jump(tag_212)\n    tag_214:\n        /* \"#utility.yul\":2509:2510   */\n      0x00\n        /* \"#utility.yul\":2500:2506   */\n      dup5\n        /* \"#utility.yul\":2495:2498   */\n      dup5\n        /* \"#utility.yul\":2491:2507   */\n      add\n        /* \"#utility.yul\":2484:2511   */\n      mstore\n        /* \"#utility.yul\":2333:2517   */\n      pop\n        /* \"#utility.yul\":2271:2517   */\n      pop\n      pop\n      pop\n      jump\t// out\n        /* \"#utility.yul\":2523:2625   */\n    tag_141:\n        /* \"#utility.yul\":2564:2570   */\n      0x00\n        /* \"#utility.yul\":2615:2617   */\n      0x1f\n        /* \"#utility.yul\":2611:2618   */\n      not\n        /* \"#utility.yul\":2606:2608   */\n      0x1f\n        /* \"#utility.yul\":2599:2604   */\n      dup4\n        /* \"#utility.yul\":2595:2609   */\n      add\n        /* \"#utility.yul\":2591:2619   */\n      and\n        /* \"#utility.yul\":2581:2619   */\n      swap1\n      pop\n        /* \"#utility.yul\":2523:2625   */\n      swap2\n      swap1\n      pop\n      jump\t// out\n        /* \"#utility.yul\":2631:3008   */\n    tag_142:\n        /* \"#utility.yul\":2719:2722   */\n      0x00\n        /* \"#utility.yul\":2747:2786   */\n      tag_217\n        /* \"#utility.yul\":2780:2785   */\n      dup3\n        /* \"#utility.yul\":2747:2786   */\n      tag_138\n      jump\t// in\n    tag_217:\n        /* \"#utility.yul\":2802:2873   */\n      tag_218\n        /* \"#utility.yul\":2866:2872   */\n      dup2\n        /* \"#utility.yul\":2861:2864   */\n      dup6\n        /* \"#utility.yul\":2802:2873   */\n      tag_139\n      jump\t// in\n    tag_218:\n        /* \"#utility.yul\":2795:2873   */\n      swap4\n      pop\n        /* \"#utility.yul\":2882:2947   */\n      tag_219\n        /* \"#utility.yul\":2940:2946   */\n      dup2\n        /* \"#utility.yul\":2935:2938   */\n      dup6\n        /* \"#utility.yul\":2928:2932   */\n      0x20\n        /* \"#utility.yul\":2921:2926   */\n      dup7\n        /* \"#utility.yul\":2917:2933   */\n      add\n        /* \"#utility.yul\":2882:2947   */\n      tag_140\n      jump\t// in\n    tag_219:\n        /* \"#utility.yul\":2972:3001   */\n      tag_220\n        /* \"#utility.yul\":2994:3000   */\n      dup2\n        /* \"#utility.yul\":2972:3001   */\n      tag_141\n      jump\t// in\n    tag_220:\n        /* \"#utility.yul\":2967:2970   */\n      dup5\n        /* \"#utility.yul\":2963:3002   */\n      add\n        /* \"#utility.yul\":2956:3002   */\n      swap2\n      pop\n        /* \"#utility.yul\":2723:3008   */\n      pop\n        /* \"#utility.yul\":2631:3008   */\n      swap3\n      swap2\n      pop\n      pop\n      jump\t// out\n        /* \"#utility.yul\":3014:3132   */\n    tag_143:\n        /* \"#utility.yul\":3101:3125   */\n      tag_222\n        /* \"#utility.yul\":3119:3124   */\n      dup2\n        /* \"#utility.yul\":3101:3125   */\n      tag_134\n      jump\t// in\n    tag_222:\n        /* \"#utility.yul\":3096:3099   */\n      dup3\n        /* \"#utility.yul\":3089:3126   */\n      mstore\n        /* \"#utility.yul\":3014:3132   */\n      pop\n      pop\n      jump\t// out\n        /* \"#utility.yul\":3138:3782   */\n    tag_24:\n        /* \"#utility.yul\":3335:3339   */\n      0x00\n        /* \"#utility.yul\":3373:3376   */\n      0x80\n        /* \"#utility.yul\":3362:3371   */\n      dup3\n        /* \"#utility.yul\":3358:3377   */\n      add\n        /* \"#utility.yul\":3350:3377   */\n      swap1\n      pop\n        /* \"#utility.yul\":3387:3458   */\n      tag_224\n        /* \"#utility.yul\":3455:3456   */\n      0x00\n        /* \"#utility.yul\":3444:3453   */\n      dup4\n        /* \"#utility.yul\":3440:3457   */\n      add\n        /* \"#utility.yul\":3431:3437   */\n      dup8\n        /* \"#utility.yul\":3387:3458   */\n      tag_137\n      jump\t// in\n    tag_224:\n        /* \"#utility.yul\":3468:3540   */\n      tag_225\n        /* \"#utility.yul\":3536:3538   */\n      0x20\n        /* \"#utility.yul\":3525:3534   */\n      dup4\n        /* \"#utility.yul\":3521:3539   */\n      add\n        /* \"#utility.yul\":3512:3518   */\n      dup7\n        /* \"#utility.yul\":3468:3540   */\n      tag_137\n      jump\t// in\n    tag_225:\n        /* \"#utility.yul\":3587:3596   */\n      dup2\n        /* \"#utility.yul\":3581:3585   */\n      dup2\n        /* \"#utility.yul\":3577:3597   */\n      sub\n        /* \"#utility.yul\":3572:3574   */\n      0x40\n        /* \"#utility.yul\":3561:3570   */\n      dup4\n        /* \"#utility.yul\":3557:3575   */\n      add\n        /* \"#utility.yul\":3550:3598   */\n      mstore\n        /* \"#utility.yul\":3615:3693   */\n      tag_226\n        /* \"#utility.yul\":3688:3692   */\n      dup2\n        /* \"#utility.yul\":3679:3685   */\n      dup6\n        /* \"#utility.yul\":3615:3693   */\n      tag_142\n      jump\t// in\n    tag_226:\n        /* \"#utility.yul\":3607:3693   */\n      swap1\n      pop\n        /* \"#utility.yul\":3703:3775   */\n      tag_227\n        /* \"#utility.yul\":3771:3773   */\n      0x60\n        /* \"#utility.yul\":3760:3769   */\n      dup4\n        /* \"#utility.yul\":3756:3774   */\n      add\n        /* \"#utility.yul\":3747:3753   */\n      dup5\n        /* \"#utility.yul\":3703:3775   */\n      tag_143\n      jump\t// in\n    tag_227:\n        /* \"#utility.yul\":3138:3782   */\n      swap6\n      swap5\n      pop\n      pop\n      pop\n      pop\n      pop\n      jump\t// out\n        /* \"#utility.yul\":3788:4262   */\n    tag_27:\n        /* \"#utility.yul\":3856:3862   */\n      0x00\n        /* \"#utility.yul\":3864:3870   */\n      dup1\n        /* \"#utility.yul\":3913:3915   */\n      0x40\n        /* \"#utility.yul\":3901:3910   */\n      dup4\n        /* \"#utility.yul\":3892:3899   */\n      dup6\n        /* \"#utility.yul\":3888:3911   */\n      sub\n        /* \"#utility.yul\":3884:3916   */\n      slt\n        /* \"#utility.yul\":3881:4000   */\n      iszero\n      tag_229\n      jumpi\n        /* \"#utility.yul\":3919:3998   */\n      tag_230\n      tag_128\n      jump\t// in\n    tag_230:\n        /* \"#utility.yul\":3881:4000   */\n    tag_229:\n        /* \"#utility.yul\":4039:4040   */\n      0x00\n        /* \"#utility.yul\":4064:4117   */\n      tag_231\n        /* \"#utility.yul\":4109:4116   */\n      dup6\n        /* \"#utility.yul\":4100:4106   */\n      dup3\n        /* \"#utility.yul\":4089:4098   */\n      dup7\n        /* \"#utility.yul\":4085:4107   */\n      add\n        /* \"#utility.yul\":4064:4117   */\n      tag_133\n      jump\t// in\n    tag_231:\n        /* \"#utility.yul\":4054:4117   */\n      swap3\n      pop\n        /* \"#utility.yul\":4010:4127   */\n      pop\n        /* \"#utility.yul\":4166:4168   */\n      0x20\n        /* \"#utility.yul\":4192:4245   */\n      tag_232\n        /* \"#utility.yul\":4237:4244   */\n      dup6\n        /* \"#utility.yul\":4228:4234   */\n      dup3\n        /* \"#utility.yul\":4217:4226   */\n      dup7\n        /* \"#utility.yul\":4213:4235   */\n      add\n        /* \"#utility.yul\":4192:4245   */\n      tag_136\n      jump\t// in\n    tag_232:\n        /* \"#utility.yul\":4182:4245   */\n      swap2\n      pop\n        /* \"#utility.yul\":4137:4255   */\n      pop\n        /* \"#utility.yul\":3788:4262   */\n      swap3\n      pop\n      swap3\n      swap1\n      pop\n      jump\t// out\n        /* \"#utility.yul\":4268:4742   */\n    tag_32:\n        /* \"#utility.yul\":4336:4342   */\n      0x00\n        /* \"#utility.yul\":4344:4350   */\n      dup1\n        /* \"#utility.yul\":4393:4395   */\n      0x40\n        /* \"#utility.yul\":4381:4390   */\n      dup4\n        /* \"#utility.yul\":4372:4379   */\n      dup6\n        /* \"#utility.yul\":4368:4391   */\n      sub\n        /* \"#utility.yul\":4364:4396   */\n      slt\n        /* \"#utility.yul\":4361:4480   */\n      iszero\n      tag_234\n      jumpi\n        /* \"#utility.yul\":4399:4478   */\n      tag_235\n      tag_128\n      jump\t// in\n    tag_235:\n        /* \"#utility.yul\":4361:4480   */\n    tag_234:\n        /* \"#utility.yul\":4519:4520   */\n      0x00\n        /* \"#utility.yul\":4544:4597   */\n      tag_236\n        /* \"#utility.yul\":4589:4596   */\n      dup6\n        /* \"#utility.yul\":4580:4586   */\n      dup3\n        /* \"#utility.yul\":4569:4578   */\n      dup7\n        /* \"#utility.yul\":4565:4587   */\n      add\n        /* \"#utility.yul\":4544:4597   */\n      tag_133\n      jump\t// in\n    tag_236:\n        /* \"#utility.yul\":4534:4597   */\n      swap3\n      pop\n        /* \"#utility.yul\":4490:4607   */\n      pop\n        /* \"#utility.yul\":4646:4648   */\n      0x20\n        /* \"#utility.yul\":4672:4725   */\n      tag_237\n        /* \"#utility.yul\":4717:4724   */\n      dup6\n        /* \"#utility.yul\":4708:4714   */\n      dup3\n        /* \"#utility.yul\":4697:4706   */\n      dup7\n        /* \"#utility.yul\":4693:4715   */\n      add\n        /* \"#utility.yul\":4672:4725   */\n      tag_133\n      jump\t// in\n    tag_237:\n        /* \"#utility.yul\":4662:4725   */\n      swap2\n      pop\n        /* \"#utility.yul\":4617:4735   */\n      pop\n        /* \"#utility.yul\":4268:4742   */\n      swap3\n      pop\n      swap3\n      swap1\n      pop\n      jump\t// out\n        /* \"#utility.yul\":4748:4838   */\n    tag_144:\n        /* \"#utility.yul\":4782:4789   */\n      0x00\n        /* \"#utility.yul\":4825:4830   */\n      dup2\n        /* \"#utility.yul\":4818:4831   */\n      iszero\n        /* \"#utility.yul\":4811:4832   */\n      iszero\n        /* \"#utility.yul\":4800:4832   */\n      swap1\n      pop\n        /* \"#utility.yul\":4748:4838   */\n      swap2\n      swap1\n      pop\n      jump\t// out\n        /* \"#utility.yul\":4844:4953   */\n    tag_145:\n        /* \"#utility.yul\":4925:4946   */\n      tag_240\n        /* \"#utility.yul\":4940:4945   */\n      dup2\n        /* \"#utility.yul\":4925:4946   */\n      tag_144\n      jump\t// in\n    tag_240:\n        /* \"#utility.yul\":4920:4923   */\n      dup3\n        /* \"#utility.yul\":4913:4947   */\n      mstore\n        /* \"#utility.yul\":4844:4953   */\n      pop\n      pop\n      jump\t// out\n        /* \"#utility.yul\":4959:5710   */\n    tag_35:\n        /* \"#utility.yul\":5180:5184   */\n      0x00\n        /* \"#utility.yul\":5218:5221   */\n      0xc0\n        /* \"#utility.yul\":5207:5216   */\n      dup3\n        /* \"#utility.yul\":5203:5222   */\n      add\n        /* \"#utility.yul\":5195:5222   */\n      swap1\n      pop\n        /* \"#utility.yul\":5232:5303   */\n      tag_242\n        /* \"#utility.yul\":5300:5301   */\n      0x00\n        /* \"#utility.yul\":5289:5298   */\n      dup4\n        /* \"#utility.yul\":5285:5302   */\n      add\n        /* \"#utility.yul\":5276:5282   */\n      dup10\n        /* \"#utility.yul\":5232:5303   */\n      tag_137\n      jump\t// in\n    tag_242:\n        /* \"#utility.yul\":5313:5385   */\n      tag_243\n        /* \"#utility.yul\":5381:5383   */\n      0x20\n        /* \"#utility.yul\":5370:5379   */\n      dup4\n        /* \"#utility.yul\":5366:5384   */\n      add\n        /* \"#utility.yul\":5357:5363   */\n      dup9\n        /* \"#utility.yul\":5313:5385   */\n      tag_137\n      jump\t// in\n    tag_243:\n        /* \"#utility.yul\":5395:5467   */\n      tag_244\n        /* \"#utility.yul\":5463:5465   */\n      0x40\n        /* \"#utility.yul\":5452:5461   */\n      dup4\n        /* \"#utility.yul\":5448:5466   */\n      add\n        /* \"#utility.yul\":5439:5445   */\n      dup8\n        /* \"#utility.yul\":5395:5467   */\n      tag_143\n      jump\t// in\n    tag_244:\n        /* \"#utility.yul\":5477:5549   */\n      tag_245\n        /* \"#utility.yul\":5545:5547   */\n      0x60\n        /* \"#utility.yul\":5534:5543   */\n      dup4\n        /* \"#utility.yul\":5530:5548   */\n      add\n        /* \"#utility.yul\":5521:5527   */\n      dup7\n        /* \"#utility.yul\":5477:5549   */\n      tag_143\n      jump\t// in\n    tag_245:\n        /* \"#utility.yul\":5559:5626   */\n      tag_246\n        /* \"#utility.yul\":5621:5624   */\n      0x80\n        /* \"#utility.yul\":5610:5619   */\n      dup4\n        /* \"#utility.yul\":5606:5625   */\n      add\n        /* \"#utility.yul\":5597:5603   */\n      dup6\n        /* \"#utility.yul\":5559:5626   */\n      tag_145\n      jump\t// in\n    tag_246:\n        /* \"#utility.yul\":5636:5703   */\n      tag_247\n        /* \"#utility.yul\":5698:5701   */\n      0xa0\n        /* \"#utility.yul\":5687:5696   */\n      dup4\n        /* \"#utility.yul\":5683:5702   */\n      add\n        /* \"#utility.yul\":5674:5680   */\n      dup5\n        /* \"#utility.yul\":5636:5703   */\n      tag_145\n      jump\t// in\n    tag_247:\n        /* \"#utility.yul\":4959:5710   */\n      swap8\n      swap7\n      pop\n      pop\n      pop\n      pop\n      pop\n      pop\n      pop\n      jump\t// out\n        /* \"#utility.yul\":5716:5938   */\n    tag_39:\n        /* \"#utility.yul\":5809:5813   */\n      0x00\n        /* \"#utility.yul\":5847:5849   */\n      0x20\n        /* \"#utility.yul\":5836:5845   */\n      dup3\n        /* \"#utility.yul\":5832:5850   */\n      add\n        /* \"#utility.yul\":5824:5850   */\n      swap1\n      pop\n        /* \"#utility.yul\":5860:5931   */\n      tag_249\n        /* \"#utility.yul\":5928:5929   */\n      0x00\n        /* \"#utility.yul\":5917:5926   */\n      dup4\n        /* \"#utility.yul\":5913:5930   */\n      add\n        /* \"#utility.yul\":5904:5910   */\n      dup5\n        /* \"#utility.yul\":5860:5931   */\n      tag_143\n      jump\t// in\n    tag_249:\n        /* \"#utility.yul\":5716:5938   */\n      swap3\n      swap2\n      pop\n      pop\n      jump\t// out\n        /* \"#utility.yul\":5944:6061   */\n    tag_146:\n        /* \"#utility.yul\":6053:6054   */\n      0x00\n        /* \"#utility.yul\":6050:6051   */\n      dup1\n        /* \"#utility.yul\":6043:6055   */\n      revert\n        /* \"#utility.yul\":6067:6184   */\n    tag_147:\n        /* \"#utility.yul\":6176:6177   */\n      0x00\n        /* \"#utility.yul\":6173:6174   */\n      dup1\n        /* \"#utility.yul\":6166:6178   */\n      revert\n        /* \"#utility.yul\":6190:6370   */\n    tag_148:\n        /* \"#utility.yul\":6238:6315   */\n      0x4e487b7100000000000000000000000000000000000000000000000000000000\n        /* \"#utility.yul\":6235:6236   */\n      0x00\n        /* \"#utility.yul\":6228:6316   */\n      mstore\n        /* \"#utility.yul\":6335:6339   */\n      0x41\n        /* \"#utility.yul\":6332:6333   */\n      0x04\n        /* \"#utility.yul\":6325:6340   */\n      mstore\n        /* \"#utility.yul\":6359:6363   */\n      0x24\n        /* \"#utility.yul\":6356:6357   */\n      0x00\n        /* \"#utility.yul\":6349:6364   */\n      revert\n        /* \"#utility.yul\":6376:6657   */\n    tag_149:\n        /* \"#utility.yul\":6459:6486   */\n      tag_254\n        /* \"#utility.yul\":6481:6485   */\n      dup3\n        /* \"#utility.yul\":6459:6486   */\n      tag_141\n      jump\t// in\n    tag_254:\n        /* \"#utility.yul\":6451:6457   */\n      dup2\n        /* \"#utility.yul\":6447:6487   */\n      add\n        /* \"#utility.yul\":6589:6595   */\n      dup2\n        /* \"#utility.yul\":6577:6587   */\n      dup2\n        /* \"#utility.yul\":6574:6596   */\n      lt\n        /* \"#utility.yul\":6553:6571   */\n      0xffffffffffffffff\n        /* \"#utility.yul\":6541:6551   */\n      dup3\n        /* \"#utility.yul\":6538:6572   */\n      gt\n        /* \"#utility.yul\":6535:6597   */\n      or\n        /* \"#utility.yul\":6532:6620   */\n      iszero\n      tag_255\n      jumpi\n        /* \"#utility.yul\":6600:6618   */\n      tag_256\n      tag_148\n      jump\t// in\n    tag_256:\n        /* \"#utility.yul\":6532:6620   */\n    tag_255:\n        /* \"#utility.yul\":6640:6650   */\n      dup1\n        /* \"#utility.yul\":6636:6638   */\n      0x40\n        /* \"#utility.yul\":6629:6651   */\n      mstore\n        /* \"#utility.yul\":6419:6657   */\n      pop\n        /* \"#utility.yul\":6376:6657   */\n      pop\n      pop\n      jump\t// out\n        /* \"#utility.yul\":6663:6792   */\n    tag_150:\n        /* \"#utility.yul\":6697:6703   */\n      0x00\n        /* \"#utility.yul\":6724:6744   */\n      tag_258\n      tag_127\n      jump\t// in\n    tag_258:\n        /* \"#utility.yul\":6714:6744   */\n      swap1\n      pop\n        /* \"#utility.yul\":6753:6786   */\n      tag_259\n        /* \"#utility.yul\":6781:6785   */\n      dup3\n        /* \"#utility.yul\":6773:6779   */\n      dup3\n        /* \"#utility.yul\":6753:6786   */\n      tag_149\n      jump\t// in\n    tag_259:\n        /* \"#utility.yul\":6663:6792   */\n      swap2\n      swap1\n      pop\n      jump\t// out\n        /* \"#utility.yul\":6798:7106   */\n    tag_151:\n        /* \"#utility.yul\":6860:6864   */\n      0x00\n        /* \"#utility.yul\":6950:6968   */\n      0xffffffffffffffff\n        /* \"#utility.yul\":6942:6948   */\n      dup3\n        /* \"#utility.yul\":6939:6969   */\n      gt\n        /* \"#utility.yul\":6936:6992   */\n      iszero\n      tag_261\n      jumpi\n        /* \"#utility.yul\":6972:6990   */\n      tag_262\n      tag_148\n      jump\t// in\n    tag_262:\n        /* \"#utility.yul\":6936:6992   */\n    tag_261:\n        /* \"#utility.yul\":7010:7039   */\n      tag_263\n        /* \"#utility.yul\":7032:7038   */\n      dup3\n        /* \"#utility.yul\":7010:7039   */\n      tag_141\n      jump\t// in\n    tag_263:\n        /* \"#utility.yul\":7002:7039   */\n      swap1\n      pop\n        /* \"#utility.yul\":7094:7098   */\n      0x20\n        /* \"#utility.yul\":7088:7092   */\n      dup2\n        /* \"#utility.yul\":7084:7099   */\n      add\n        /* \"#utility.yul\":7076:7099   */\n      swap1\n      pop\n        /* \"#utility.yul\":6798:7106   */\n      swap2\n      swap1\n      pop\n      jump\t// out\n        /* \"#utility.yul\":7112:7258   */\n    tag_152:\n        /* \"#utility.yul\":7209:7215   */\n      dup3\n        /* \"#utility.yul\":7204:7207   */\n      dup2\n        /* \"#utility.yul\":7199:7202   */\n      dup4\n        /* \"#utility.yul\":7186:7216   */\n      calldatacopy\n        /* \"#utility.yul\":7250:7251   */\n      0x00\n        /* \"#utility.yul\":7241:7247   */\n      dup4\n        /* \"#utility.yul\":7236:7239   */\n      dup4\n        /* \"#utility.yul\":7232:7248   */\n      add\n        /* \"#utility.yul\":7225:7252   */\n      mstore\n        /* \"#utility.yul\":7112:7258   */\n      pop\n      pop\n      pop\n      jump\t// out\n        /* \"#utility.yul\":7264:7689   */\n    tag_153:\n        /* \"#utility.yul\":7342:7347   */\n      0x00\n        /* \"#utility.yul\":7367:7433   */\n      tag_266\n        /* \"#utility.yul\":7383:7432   */\n      tag_267\n        /* \"#utility.yul\":7425:7431   */\n      dup5\n        /* \"#utility.yul\":7383:7432   */\n      tag_151\n      jump\t// in\n    tag_267:\n        /* \"#utility.yul\":7367:7433   */\n      tag_150\n      jump\t// in\n    tag_266:\n        /* \"#utility.yul\":7358:7433   */\n      swap1\n      pop\n        /* \"#utility.yul\":7456:7462   */\n      dup3\n        /* \"#utility.yul\":7449:7454   */\n      dup2\n        /* \"#utility.yul\":7442:7463   */\n      mstore\n        /* \"#utility.yul\":7494:7498   */\n      0x20\n        /* \"#utility.yul\":7487:7492   */\n      dup2\n        /* \"#utility.yul\":7483:7499   */\n      add\n        /* \"#utility.yul\":7532:7535   */\n      dup5\n        /* \"#utility.yul\":7523:7529   */\n      dup5\n        /* \"#utility.yul\":7518:7521   */\n      dup5\n        /* \"#utility.yul\":7514:7530   */\n      add\n        /* \"#utility.yul\":7511:7536   */\n      gt\n        /* \"#utility.yul\":7508:7620   */\n      iszero\n      tag_268\n      jumpi\n        /* \"#utility.yul\":7539:7618   */\n      tag_269\n      tag_147\n      jump\t// in\n    tag_269:\n        /* \"#utility.yul\":7508:7620   */\n    tag_268:\n        /* \"#utility.yul\":7629:7683   */\n      tag_270\n        /* \"#utility.yul\":7676:7682   */\n      dup5\n        /* \"#utility.yul\":7671:7674   */\n      dup3\n        /* \"#utility.yul\":7666:7669   */\n      dup6\n        /* \"#utility.yul\":7629:7683   */\n      tag_152\n      jump\t// in\n    tag_270:\n        /* \"#utility.yul\":7348:7689   */\n      pop\n        /* \"#utility.yul\":7264:7689   */\n      swap4\n      swap3\n      pop\n      pop\n      pop\n      jump\t// out\n        /* \"#utility.yul\":7709:8049   */\n    tag_154:\n        /* \"#utility.yul\":7765:7770   */\n      0x00\n        /* \"#utility.yul\":7814:7817   */\n      dup3\n        /* \"#utility.yul\":7807:7811   */\n      0x1f\n        /* \"#utility.yul\":7799:7805   */\n      dup4\n        /* \"#utility.yul\":7795:7812   */\n      add\n        /* \"#utility.yul\":7791:7818   */\n      slt\n        /* \"#utility.yul\":7781:7903   */\n      tag_272\n      jumpi\n        /* \"#utility.yul\":7822:7901   */\n      tag_273\n      tag_146\n      jump\t// in\n    tag_273:\n        /* \"#utility.yul\":7781:7903   */\n    tag_272:\n        /* \"#utility.yul\":7939:7945   */\n      dup2\n        /* \"#utility.yul\":7926:7946   */\n      calldataload\n        /* \"#utility.yul\":7964:8043   */\n      tag_274\n        /* \"#utility.yul\":8039:8042   */\n      dup5\n        /* \"#utility.yul\":8031:8037   */\n      dup3\n        /* \"#utility.yul\":8024:8028   */\n      0x20\n        /* \"#utility.yul\":8016:8022   */\n      dup7\n        /* \"#utility.yul\":8012:8029   */\n      add\n        /* \"#utility.yul\":7964:8043   */\n      tag_153\n      jump\t// in\n    tag_274:\n        /* \"#utility.yul\":7955:8043   */\n      swap2\n      pop\n        /* \"#utility.yul\":7771:8049   */\n      pop\n        /* \"#utility.yul\":7709:8049   */\n      swap3\n      swap2\n      pop\n      pop\n      jump\t// out\n        /* \"#utility.yul\":8055:8709   */\n    tag_42:\n        /* \"#utility.yul\":8133:8139   */\n      0x00\n        /* \"#utility.yul\":8141:8147   */\n      dup1\n        /* \"#utility.yul\":8190:8192   */\n      0x40\n        /* \"#utility.yul\":8178:8187   */\n      dup4\n        /* \"#utility.yul\":8169:8176   */\n      dup6\n        /* \"#utility.yul\":8165:8188   */\n      sub\n        /* \"#utility.yul\":8161:8193   */\n      slt\n        /* \"#utility.yul\":8158:8277   */\n      iszero\n      tag_276\n      jumpi\n        /* \"#utility.yul\":8196:8275   */\n      tag_277\n      tag_128\n      jump\t// in\n    tag_277:\n        /* \"#utility.yul\":8158:8277   */\n    tag_276:\n        /* \"#utility.yul\":8344:8345   */\n      0x00\n        /* \"#utility.yul\":8333:8342   */\n      dup4\n        /* \"#utility.yul\":8329:8346   */\n      add\n        /* \"#utility.yul\":8316:8347   */\n      calldataload\n        /* \"#utility.yul\":8374:8392   */\n      0xffffffffffffffff\n        /* \"#utility.yul\":8366:8372   */\n      dup2\n        /* \"#utility.yul\":8363:8393   */\n      gt\n        /* \"#utility.yul\":8360:8477   */\n      iszero\n      tag_278\n      jumpi\n        /* \"#utility.yul\":8396:8475   */\n      tag_279\n      tag_129\n      jump\t// in\n    tag_279:\n        /* \"#utility.yul\":8360:8477   */\n    tag_278:\n        /* \"#utility.yul\":8501:8564   */\n      tag_280\n        /* \"#utility.yul\":8556:8563   */\n      dup6\n        /* \"#utility.yul\":8547:8553   */\n      dup3\n        /* \"#utility.yul\":8536:8545   */\n      dup7\n        /* \"#utility.yul\":8532:8554   */\n      add\n        /* \"#utility.yul\":8501:8564   */\n      tag_154\n      jump\t// in\n    tag_280:\n        /* \"#utility.yul\":8491:8564   */\n      swap3\n      pop\n        /* \"#utility.yul\":8287:8574   */\n      pop\n        /* \"#utility.yul\":8613:8615   */\n      0x20\n        /* \"#utility.yul\":8639:8692   */\n      tag_281\n        /* \"#utility.yul\":8684:8691   */\n      dup6\n        /* \"#utility.yul\":8675:8681   */\n      dup3\n        /* \"#utility.yul\":8664:8673   */\n      dup7\n        /* \"#utility.yul\":8660:8682   */\n      add\n        /* \"#utility.yul\":8639:8692   */\n      tag_136\n      jump\t// in\n    tag_281:\n        /* \"#utility.yul\":8629:8692   */\n      swap2\n      pop\n        /* \"#utility.yul\":8584:8702   */\n      pop\n        /* \"#utility.yul\":8055:8709   */\n      swap3\n      pop\n      swap3\n      swap1\n      pop\n      jump\t// out\n        /* \"#utility.yul\":8715:8937   */\n    tag_47:\n        /* \"#utility.yul\":8808:8812   */\n      0x00\n        /* \"#utility.yul\":8846:8848   */\n      0x20\n        /* \"#utility.yul\":8835:8844   */\n      dup3\n        /* \"#utility.yul\":8831:8849   */\n      add\n        /* \"#utility.yul\":8823:8849   */\n      swap1\n      pop\n        /* \"#utility.yul\":8859:8930   */\n      tag_283\n        /* \"#utility.yul\":8927:8928   */\n      0x00\n        /* \"#utility.yul\":8916:8925   */\n      dup4\n        /* \"#utility.yul\":8912:8929   */\n      add\n        /* \"#utility.yul\":8903:8909   */\n      dup5\n        /* \"#utility.yul\":8859:8930   */\n      tag_137\n      jump\t// in\n    tag_283:\n        /* \"#utility.yul\":8715:8937   */\n      swap3\n      swap2\n      pop\n      pop\n      jump\t// out\n        /* \"#utility.yul\":8943:9708   */\n    tag_50:\n        /* \"#utility.yul\":9029:9035   */\n      0x00\n        /* \"#utility.yul\":9037:9043   */\n      dup1\n        /* \"#utility.yul\":9045:9051   */\n      0x00\n        /* \"#utility.yul\":9053:9059   */\n      dup1\n        /* \"#utility.yul\":9102:9105   */\n      0x80\n        /* \"#utility.yul\":9090:9099   */\n      dup6\n        /* \"#utility.yul\":9081:9088   */\n      dup8\n        /* \"#utility.yul\":9077:9100   */\n      sub\n        /* \"#utility.yul\":9073:9106   */\n      slt\n        /* \"#utility.yul\":9070:9190   */\n      iszero\n      tag_285\n      jumpi\n        /* \"#utility.yul\":9109:9188   */\n      tag_286\n      tag_128\n      jump\t// in\n    tag_286:\n        /* \"#utility.yul\":9070:9190   */\n    tag_285:\n        /* \"#utility.yul\":9229:9230   */\n      0x00\n        /* \"#utility.yul\":9254:9307   */\n      tag_287\n        /* \"#utility.yul\":9299:9306   */\n      dup8\n        /* \"#utility.yul\":9290:9296   */\n      dup3\n        /* \"#utility.yul\":9279:9288   */\n      dup9\n        /* \"#utility.yul\":9275:9297   */\n      add\n        /* \"#utility.yul\":9254:9307   */\n      tag_133\n      jump\t// in\n    tag_287:\n        /* \"#utility.yul\":9244:9307   */\n      swap5\n      pop\n        /* \"#utility.yul\":9200:9317   */\n      pop\n        /* \"#utility.yul\":9356:9358   */\n      0x20\n        /* \"#utility.yul\":9382:9435   */\n      tag_288\n        /* \"#utility.yul\":9427:9434   */\n      dup8\n        /* \"#utility.yul\":9418:9424   */\n      dup3\n        /* \"#utility.yul\":9407:9416   */\n      dup9\n        /* \"#utility.yul\":9403:9425   */\n      add\n        /* \"#utility.yul\":9382:9435   */\n      tag_133\n      jump\t// in\n    tag_288:\n        /* \"#utility.yul\":9372:9435   */\n      swap4\n      pop\n        /* \"#utility.yul\":9327:9445   */\n      pop\n        /* \"#utility.yul\":9484:9486   */\n      0x40\n        /* \"#utility.yul\":9510:9563   */\n      tag_289\n        /* \"#utility.yul\":9555:9562   */\n      dup8\n        /* \"#utility.yul\":9546:9552   */\n      dup3\n        /* \"#utility.yul\":9535:9544   */\n      dup9\n        /* \"#utility.yul\":9531:9553   */\n      add\n        /* \"#utility.yul\":9510:9563   */\n      tag_136\n      jump\t// in\n    tag_289:\n        /* \"#utility.yul\":9500:9563   */\n      swap3\n      pop\n        /* \"#utility.yul\":9455:9573   */\n      pop\n        /* \"#utility.yul\":9612:9614   */\n      0x60\n        /* \"#utility.yul\":9638:9691   */\n      tag_290\n        /* \"#utility.yul\":9683:9690   */\n      dup8\n        /* \"#utility.yul\":9674:9680   */\n      dup3\n        /* \"#utility.yul\":9663:9672   */\n      dup9\n        /* \"#utility.yul\":9659:9681   */\n      add\n        /* \"#utility.yul\":9638:9691   */\n      tag_136\n      jump\t// in\n    tag_290:\n        /* \"#utility.yul\":9628:9691   */\n      swap2\n      pop\n        /* \"#utility.yul\":9583:9701   */\n      pop\n        /* \"#utility.yul\":8943:9708   */\n      swap3\n      swap6\n      swap2\n      swap5\n      pop\n      swap3\n      pop\n      jump\t// out\n        /* \"#utility.yul\":9714:9894   */\n    tag_68:\n        /* \"#utility.yul\":9762:9839   */\n      0x4e487b7100000000000000000000000000000000000000000000000000000000\n        /* \"#utility.yul\":9759:9760   */\n      0x00\n        /* \"#utility.yul\":9752:9840   */\n      mstore\n        /* \"#utility.yul\":9859:9863   */\n      0x32\n        /* \"#utility.yul\":9856:9857   */\n      0x04\n        /* \"#utility.yul\":9849:9864   */\n      mstore\n        /* \"#utility.yul\":9883:9887   */\n      0x24\n        /* \"#utility.yul\":9880:9881   */\n      0x00\n        /* \"#utility.yul\":9873:9888   */\n      revert\n        /* \"#utility.yul\":9900:10072   */\n    tag_155:\n        /* \"#utility.yul\":10040:10064   */\n      0x4e6f74207468652070726f7065727479206f776e657200000000000000000000\n        /* \"#utility.yul\":10036:10037   */\n      0x00\n        /* \"#utility.yul\":10028:10034   */\n      dup3\n        /* \"#utility.yul\":10024:10038   */\n      add\n        /* \"#utility.yul\":10017:10065   */\n      mstore\n        /* \"#utility.yul\":9900:10072   */\n      pop\n      jump\t// out\n        /* \"#utility.yul\":10078:10444   */\n    tag_156:\n        /* \"#utility.yul\":10220:10223   */\n      0x00\n        /* \"#utility.yul\":10241:10308   */\n      tag_294\n        /* \"#utility.yul\":10305:10307   */\n      0x16\n        /* \"#utility.yul\":10300:10303   */\n      dup4\n        /* \"#utility.yul\":10241:10308   */\n      tag_139\n      jump\t// in\n    tag_294:\n        /* \"#utility.yul\":10234:10308   */\n      swap2\n      pop\n        /* \"#utility.yul\":10317:10410   */\n      tag_295\n        /* \"#utility.yul\":10406:10409   */\n      dup3\n        /* \"#utility.yul\":10317:10410   */\n      tag_155\n      jump\t// in\n    tag_295:\n        /* \"#utility.yul\":10435:10437   */\n      0x20\n        /* \"#utility.yul\":10430:10433   */\n      dup3\n        /* \"#utility.yul\":10426:10438   */\n      add\n        /* \"#utility.yul\":10419:10438   */\n      swap1\n      pop\n        /* \"#utility.yul\":10078:10444   */\n      swap2\n      swap1\n      pop\n      jump\t// out\n        /* \"#utility.yul\":10450:10869   */\n    tag_76:\n        /* \"#utility.yul\":10616:10620   */\n      0x00\n        /* \"#utility.yul\":10654:10656   */\n      0x20\n        /* \"#utility.yul\":10643:10652   */\n      dup3\n        /* \"#utility.yul\":10639:10657   */\n      add\n        /* \"#utility.yul\":10631:10657   */\n      swap1\n      pop\n        /* \"#utility.yul\":10703:10712   */\n      dup2\n        /* \"#utility.yul\":10697:10701   */\n      dup2\n        /* \"#utility.yul\":10693:10713   */\n      sub\n        /* \"#utility.yul\":10689:10690   */\n      0x00\n        /* \"#utility.yul\":10678:10687   */\n      dup4\n        /* \"#utility.yul\":10674:10691   */\n      add\n        /* \"#utility.yul\":10667:10714   */\n      mstore\n        /* \"#utility.yul\":10731:10862   */\n      tag_297\n        /* \"#utility.yul\":10857:10861   */\n      dup2\n        /* \"#utility.yul\":10731:10862   */\n      tag_156\n      jump\t// in\n    tag_297:\n        /* \"#utility.yul\":10723:10862   */\n      swap1\n      pop\n        /* \"#utility.yul\":10450:10869   */\n      swap2\n      swap1\n      pop\n      jump\t// out\n        /* \"#utility.yul\":10875:11098   */\n    tag_157:\n        /* \"#utility.yul\":11015:11049   */\n      0x54656e616e7420686173206e6f7420726571756573746564207465726d696e61\n        /* \"#utility.yul\":11011:11012   */\n      0x00\n        /* \"#utility.yul\":11003:11009   */\n      dup3\n        /* \"#utility.yul\":10999:11013   */\n      add\n        /* \"#utility.yul\":10992:11050   */\n      mstore\n        /* \"#utility.yul\":11084:11090   */\n      0x74696f6e00000000000000000000000000000000000000000000000000000000\n        /* \"#utility.yul\":11079:11081   */\n      0x20\n        /* \"#utility.yul\":11071:11077   */\n      dup3\n        /* \"#utility.yul\":11067:11082   */\n      add\n        /* \"#utility.yul\":11060:11091   */\n      mstore\n        /* \"#utility.yul\":10875:11098   */\n      pop\n      jump\t// out\n        /* \"#utility.yul\":11104:11470   */\n    tag_158:\n        /* \"#utility.yul\":11246:11249   */\n      0x00\n        /* \"#utility.yul\":11267:11334   */\n      tag_300\n        /* \"#utility.yul\":11331:11333   */\n      0x24\n        /* \"#utility.yul\":11326:11329   */\n      dup4\n        /* \"#utility.yul\":11267:11334   */\n      tag_139\n      jump\t// in\n    tag_300:\n        /* \"#utility.yul\":11260:11334   */\n      swap2\n      pop\n        /* \"#utility.yul\":11343:11436   */\n      tag_301\n        /* \"#utility.yul\":11432:11435   */\n      dup3\n        /* \"#utility.yul\":11343:11436   */\n      tag_157\n      jump\t// in\n    tag_301:\n        /* \"#utility.yul\":11461:11463   */\n      0x40\n        /* \"#utility.yul\":11456:11459   */\n      dup3\n        /* \"#utility.yul\":11452:11464   */\n      add\n        /* \"#utility.yul\":11445:11464   */\n      swap1\n      pop\n        /* \"#utility.yul\":11104:11470   */\n      swap2\n      swap1\n      pop\n      jump\t// out\n        /* \"#utility.yul\":11476:11895   */\n    tag_79:\n        /* \"#utility.yul\":11642:11646   */\n      0x00\n        /* \"#utility.yul\":11680:11682   */\n      0x20\n        /* \"#utility.yul\":11669:11678   */\n      dup3\n        /* \"#utility.yul\":11665:11683   */\n      add\n        /* \"#utility.yul\":11657:11683   */\n      swap1\n      pop\n        /* \"#utility.yul\":11729:11738   */\n      dup2\n        /* \"#utility.yul\":11723:11727   */\n      dup2\n        /* \"#utility.yul\":11719:11739   */\n      sub\n        /* \"#utility.yul\":11715:11716   */\n      0x00\n        /* \"#utility.yul\":11704:11713   */\n      dup4\n        /* \"#utility.yul\":11700:11717   */\n      add\n        /* \"#utility.yul\":11693:11740   */\n      mstore\n        /* \"#utility.yul\":11757:11888   */\n      tag_303\n        /* \"#utility.yul\":11883:11887   */\n      dup2\n        /* \"#utility.yul\":11757:11888   */\n      tag_158\n      jump\t// in\n    tag_303:\n        /* \"#utility.yul\":11749:11888   */\n      swap1\n      pop\n        /* \"#utility.yul\":11476:11895   */\n      swap2\n      swap1\n      pop\n      jump\t// out\n        /* \"#utility.yul\":11901:12073   */\n    tag_159:\n        /* \"#utility.yul\":12041:12065   */\n      0x496e76616c69642070726f706572747920696e64657800000000000000000000\n        /* \"#utility.yul\":12037:12038   */\n      0x00\n        /* \"#utility.yul\":12029:12035   */\n      dup3\n        /* \"#utility.yul\":12025:12039   */\n      add\n        /* \"#utility.yul\":12018:12066   */\n      mstore\n        /* \"#utility.yul\":11901:12073   */\n      pop\n      jump\t// out\n        /* \"#utility.yul\":12079:12445   */\n    tag_160:\n        /* \"#utility.yul\":12221:12224   */\n      0x00\n        /* \"#utility.yul\":12242:12309   */\n      tag_306\n        /* \"#utility.yul\":12306:12308   */\n      0x16\n        /* \"#utility.yul\":12301:12304   */\n      dup4\n        /* \"#utility.yul\":12242:12309   */\n      tag_139\n      jump\t// in\n    tag_306:\n        /* \"#utility.yul\":12235:12309   */\n      swap2\n      pop\n        /* \"#utility.yul\":12318:12411   */\n      tag_307\n        /* \"#utility.yul\":12407:12410   */\n      dup3\n        /* \"#utility.yul\":12318:12411   */\n      tag_159\n      jump\t// in\n    tag_307:\n        /* \"#utility.yul\":12436:12438   */\n      0x20\n        /* \"#utility.yul\":12431:12434   */\n      dup3\n        /* \"#utility.yul\":12427:12439   */\n      add\n        /* \"#utility.yul\":12420:12439   */\n      swap1\n      pop\n        /* \"#utility.yul\":12079:12445   */\n      swap2\n      swap1\n      pop\n      jump\t// out\n        /* \"#utility.yul\":12451:12870   */\n    tag_84:\n        /* \"#utility.yul\":12617:12621   */\n      0x00\n        /* \"#utility.yul\":12655:12657   */\n      0x20\n        /* \"#utility.yul\":12644:12653   */\n      dup3\n        /* \"#utility.yul\":12640:12658   */\n      add\n        /* \"#utility.yul\":12632:12658   */\n      swap1\n      pop\n        /* \"#utility.yul\":12704:12713   */\n      dup2\n        /* \"#utility.yul\":12698:12702   */\n      dup2\n        /* \"#utility.yul\":12694:12714   */\n      sub\n        /* \"#utility.yul\":12690:12691   */\n      0x00\n        /* \"#utility.yul\":12679:12688   */\n      dup4\n        /* \"#utility.yul\":12675:12692   */\n      add\n        /* \"#utility.yul\":12668:12715   */\n      mstore\n        /* \"#utility.yul\":12732:12863   */\n      tag_309\n        /* \"#utility.yul\":12858:12862   */\n      dup2\n        /* \"#utility.yul\":12732:12863   */\n      tag_160\n      jump\t// in\n    tag_309:\n        /* \"#utility.yul\":12724:12863   */\n      swap1\n      pop\n        /* \"#utility.yul\":12451:12870   */\n      swap2\n      swap1\n      pop\n      jump\t// out\n        /* \"#utility.yul\":12876:13056   */\n    tag_161:\n        /* \"#utility.yul\":12924:13001   */\n      0x4e487b7100000000000000000000000000000000000000000000000000000000\n        /* \"#utility.yul\":12921:12922   */\n      0x00\n        /* \"#utility.yul\":12914:13002   */\n      mstore\n        /* \"#utility.yul\":13021:13025   */\n      0x22\n        /* \"#utility.yul\":13018:13019   */\n      0x04\n        /* \"#utility.yul\":13011:13026   */\n      mstore\n        /* \"#utility.yul\":13045:13049   */\n      0x24\n        /* \"#utility.yul\":13042:13043   */\n      0x00\n        /* \"#utility.yul\":13035:13050   */\n      revert\n        /* \"#utility.yul\":13062:13382   */\n    tag_89:\n        /* \"#utility.yul\":13106:13112   */\n      0x00\n        /* \"#utility.yul\":13143:13144   */\n      0x02\n        /* \"#utility.yul\":13137:13141   */\n      dup3\n        /* \"#utility.yul\":13133:13145   */\n      div\n        /* \"#utility.yul\":13123:13145   */\n      swap1\n      pop\n        /* \"#utility.yul\":13190:13191   */\n      0x01\n        /* \"#utility.yul\":13184:13188   */\n      dup3\n        /* \"#utility.yul\":13180:13192   */\n      and\n        /* \"#utility.yul\":13211:13229   */\n      dup1\n        /* \"#utility.yul\":13201:13282   */\n      tag_312\n      jumpi\n        /* \"#utility.yul\":13267:13271   */\n      0x7f\n        /* \"#utility.yul\":13259:13265   */\n      dup3\n        /* \"#utility.yul\":13255:13272   */\n      and\n        /* \"#utility.yul\":13245:13272   */\n      swap2\n      pop\n        /* \"#utility.yul\":13201:13282   */\n    tag_312:\n        /* \"#utility.yul\":13329:13331   */\n      0x20\n        /* \"#utility.yul\":13321:13327   */\n      dup3\n        /* \"#utility.yul\":13318:13332   */\n      lt\n        /* \"#utility.yul\":13298:13316   */\n      dup2\n        /* \"#utility.yul\":13295:13333   */\n      sub\n        /* \"#utility.yul\":13292:13376   */\n      tag_313\n      jumpi\n        /* \"#utility.yul\":13348:13366   */\n      tag_314\n      tag_161\n      jump\t// in\n    tag_314:\n        /* \"#utility.yul\":13292:13376   */\n    tag_313:\n        /* \"#utility.yul\":13113:13382   */\n      pop\n        /* \"#utility.yul\":13062:13382   */\n      swap2\n      swap1\n      pop\n      jump\t// out\n        /* \"#utility.yul\":13388:13565   */\n    tag_162:\n        /* \"#utility.yul\":13528:13557   */\n      0x50726f706572747920616c726561647920726567697374657265640000000000\n        /* \"#utility.yul\":13524:13525   */\n      0x00\n        /* \"#utility.yul\":13516:13522   */\n      dup3\n        /* \"#utility.yul\":13512:13526   */\n      add\n        /* \"#utility.yul\":13505:13558   */\n      mstore\n        /* \"#utility.yul\":13388:13565   */\n      pop\n      jump\t// out\n        /* \"#utility.yul\":13571:13937   */\n    tag_163:\n        /* \"#utility.yul\":13713:13716   */\n      0x00\n        /* \"#utility.yul\":13734:13801   */\n      tag_317\n        /* \"#utility.yul\":13798:13800   */\n      0x1b\n        /* \"#utility.yul\":13793:13796   */\n      dup4\n        /* \"#utility.yul\":13734:13801   */\n      tag_139\n      jump\t// in\n    tag_317:\n        /* \"#utility.yul\":13727:13801   */\n      swap2\n      pop\n        /* \"#utility.yul\":13810:13903   */\n      tag_318\n        /* \"#utility.yul\":13899:13902   */\n      dup3\n        /* \"#utility.yul\":13810:13903   */\n      tag_162\n      jump\t// in\n    tag_318:\n        /* \"#utility.yul\":13928:13930   */\n      0x20\n        /* \"#utility.yul\":13923:13926   */\n      dup3\n        /* \"#utility.yul\":13919:13931   */\n      add\n        /* \"#utility.yul\":13912:13931   */\n      swap1\n      pop\n        /* \"#utility.yul\":13571:13937   */\n      swap2\n      swap1\n      pop\n      jump\t// out\n        /* \"#utility.yul\":13943:14362   */\n    tag_105:\n        /* \"#utility.yul\":14109:14113   */\n      0x00\n        /* \"#utility.yul\":14147:14149   */\n      0x20\n        /* \"#utility.yul\":14136:14145   */\n      dup3\n        /* \"#utility.yul\":14132:14150   */\n      add\n        /* \"#utility.yul\":14124:14150   */\n      swap1\n      pop\n        /* \"#utility.yul\":14196:14205   */\n      dup2\n        /* \"#utility.yul\":14190:14194   */\n      dup2\n        /* \"#utility.yul\":14186:14206   */\n      sub\n        /* \"#utility.yul\":14182:14183   */\n      0x00\n        /* \"#utility.yul\":14171:14180   */\n      dup4\n        /* \"#utility.yul\":14167:14184   */\n      add\n        /* \"#utility.yul\":14160:14207   */\n      mstore\n        /* \"#utility.yul\":14224:14355   */\n      tag_320\n        /* \"#utility.yul\":14350:14354   */\n      dup2\n        /* \"#utility.yul\":14224:14355   */\n      tag_163\n      jump\t// in\n    tag_320:\n        /* \"#utility.yul\":14216:14355   */\n      swap1\n      pop\n        /* \"#utility.yul\":13943:14362   */\n      swap2\n      swap1\n      pop\n      jump\t// out\n        /* \"#utility.yul\":14368:14509   */\n    tag_164:\n        /* \"#utility.yul\":14417:14421   */\n      0x00\n        /* \"#utility.yul\":14440:14443   */\n      dup2\n        /* \"#utility.yul\":14432:14443   */\n      swap1\n      pop\n        /* \"#utility.yul\":14463:14466   */\n      dup2\n        /* \"#utility.yul\":14460:14461   */\n      0x00\n        /* \"#utility.yul\":14453:14467   */\n      mstore\n        /* \"#utility.yul\":14497:14501   */\n      0x20\n        /* \"#utility.yul\":14494:14495   */\n      0x00\n        /* \"#utility.yul\":14484:14502   */\n      keccak256\n        /* \"#utility.yul\":14476:14502   */\n      swap1\n      pop\n        /* \"#utility.yul\":14368:14509   */\n      swap2\n      swap1\n      pop\n      jump\t// out\n        /* \"#utility.yul\":14515:14608   */\n    tag_165:\n        /* \"#utility.yul\":14552:14558   */\n      0x00\n        /* \"#utility.yul\":14599:14601   */\n      0x20\n        /* \"#utility.yul\":14594:14596   */\n      0x1f\n        /* \"#utility.yul\":14587:14592   */\n      dup4\n        /* \"#utility.yul\":14583:14597   */\n      add\n        /* \"#utility.yul\":14579:14602   */\n      div\n        /* \"#utility.yul\":14569:14602   */\n      swap1\n      pop\n        /* \"#utility.yul\":14515:14608   */\n      swap2\n      swap1\n      pop\n      jump\t// out\n        /* \"#utility.yul\":14614:14721   */\n    tag_166:\n        /* \"#utility.yul\":14658:14666   */\n      0x00\n        /* \"#utility.yul\":14708:14713   */\n      dup3\n        /* \"#utility.yul\":14702:14706   */\n      dup3\n        /* \"#utility.yul\":14698:14714   */\n      shl\n        /* \"#utility.yul\":14677:14714   */\n      swap1\n      pop\n        /* \"#utility.yul\":14614:14721   */\n      swap3\n      swap2\n      pop\n      pop\n      jump\t// out\n        /* \"#utility.yul\":14727:15120   */\n    tag_167:\n        /* \"#utility.yul\":14796:14802   */\n      0x00\n        /* \"#utility.yul\":14846:14847   */\n      0x08\n        /* \"#utility.yul\":14834:14844   */\n      dup4\n        /* \"#utility.yul\":14830:14848   */\n      mul\n        /* \"#utility.yul\":14869:14966   */\n      tag_325\n        /* \"#utility.yul\":14899:14965   */\n      0xffffffffffffffffffffffffffffffffffffffffffffffffffffffffffffffff\n        /* \"#utility.yul\":14888:14897   */\n      dup3\n        /* \"#utility.yul\":14869:14966   */\n      tag_166\n      jump\t// in\n    tag_325:\n        /* \"#utility.yul\":14987:15026   */\n      tag_326\n        /* \"#utility.yul\":15017:15025   */\n      dup7\n        /* \"#utility.yul\":15006:15015   */\n      dup4\n        /* \"#utility.yul\":14987:15026   */\n      tag_166\n      jump\t// in\n    tag_326:\n        /* \"#utility.yul\":14975:15026   */\n      swap6\n      pop\n        /* \"#utility.yul\":15059:15063   */\n      dup1\n        /* \"#utility.yul\":15055:15064   */\n      not\n        /* \"#utility.yul\":15048:15053   */\n      dup5\n        /* \"#utility.yul\":15044:15065   */\n      and\n        /* \"#utility.yul\":15035:15065   */\n      swap4\n      pop\n        /* \"#utility.yul\":15108:15112   */\n      dup1\n        /* \"#utility.yul\":15098:15106   */\n      dup7\n        /* \"#utility.yul\":15094:15113   */\n      and\n        /* \"#utility.yul\":15087:15092   */\n      dup5\n        /* \"#utility.yul\":15084:15114   */\n      or\n        /* \"#utility.yul\":15074:15114   */\n      swap3\n      pop\n        /* \"#utility.yul\":14803:15120   */\n      pop\n      pop\n        /* \"#utility.yul\":14727:15120   */\n      swap4\n      swap3\n      pop\n      pop\n      pop\n      jump\t// out\n        /* \"#utility.yul\":15126:15186   */\n    tag_168:\n        /* \"#utility.yul\":15154:15157   */\n      0x00\n        /* \"#utility.yul\":15175:15180   */\n      dup2\n        /* \"#utility.yul\":15168:15180   */\n      swap1\n      pop\n        /* \"#utility.yul\":15126:15186   */\n      swap2\n      swap1\n      pop\n      jump\t// out\n        /* \"#utility.yul\":15192:15334   */\n    tag_169:\n        /* \"#utility.yul\":15242:15251   */\n      0x00\n        /* \"#utility.yul\":15275:15328   */\n      tag_329\n        /* \"#utility.yul\":15293:15327   */\n      tag_330\n        /* \"#utility.yul\":15302:15326   */\n      tag_331\n        /* \"#utility.yul\":15320:15325   */\n      dup5\n        /* \"#utility.yul\":15302:15326   */\n      tag_134\n      jump\t// in\n    tag_331:\n        /* \"#utility.yul\":15293:15327   */\n      tag_168\n      jump\t// in\n    tag_330:\n        /* \"#utility.yul\":15275:15328   */\n      tag_134\n      jump\t// in\n    tag_329:\n        /* \"#utility.yul\":15262:15328   */\n      swap1\n      pop\n        /* \"#utility.yul\":15192:15334   */\n      swap2\n      swap1\n      pop\n      jump\t// out\n        /* \"#utility.yul\":15340:15415   */\n    tag_170:\n        /* \"#utility.yul\":15383:15386   */\n      0x00\n        /* \"#utility.yul\":15404:15409   */\n      dup2\n        /* \"#utility.yul\":15397:15409   */\n      swap1\n      pop\n        /* \"#utility.yul\":15340:15415   */\n      swap2\n      swap1\n      pop\n      jump\t// out\n        /* \"#utility.yul\":15421:15690   */\n    tag_171:\n        /* \"#utility.yul\":15531:15570   */\n      tag_334\n        /* \"#utility.yul\":15562:15569   */\n      dup4\n        /* \"#utility.yul\":15531:15570   */\n      tag_169\n      jump\t// in\n    tag_334:\n        /* \"#utility.yul\":15592:15683   */\n      tag_335\n        /* \"#utility.yul\":15641:15682   */\n      tag_336\n        /* \"#utility.yul\":15665:15681   */\n      dup3\n        /* \"#utility.yul\":15641:15682   */\n      tag_170\n      jump\t// in\n    tag_336:\n        /* \"#utility.yul\":15633:15639   */\n      dup5\n        /* \"#utility.yul\":15626:15630   */\n      dup5\n        /* \"#utility.yul\":15620:15631   */\n      sload\n        /* \"#utility.yul\":15592:15683   */\n      tag_167\n      jump\t// in\n    tag_335:\n        /* \"#utility.yul\":15586:15590   */\n      dup3\n        /* \"#utility.yul\":15579:15684   */\n      sstore\n        /* \"#utility.yul\":15497:15690   */\n      pop\n        /* \"#utility.yul\":15421:15690   */\n      pop\n      pop\n      pop\n      jump\t// out\n        /* \"#utility.yul\":15696:15769   */\n    tag_172:\n        /* \"#utility.yul\":15741:15744   */\n      0x00\n        /* \"#utility.yul\":15696:15769   */\n      swap1\n      jump\t// out\n        /* \"#utility.yul\":15775:15964   */\n    tag_173:\n        /* \"#utility.yul\":15852:15884   */\n      tag_339\n      tag_172\n      jump\t// in\n    tag_339:\n        /* \"#utility.yul\":15893:15958   */\n      tag_340\n        /* \"#utility.yul\":15951:15957   */\n      dup2\n        /* \"#utility.yul\":15943:15949   */\n      dup5\n        /* \"#utility.yul\":15937:15941   */\n      dup5\n        /* \"#utility.yul\":15893:15958   */\n      tag_171\n      jump\t// in\n    tag_340:\n        /* \"#utility.yul\":15828:15964   */\n      pop\n        /* \"#utility.yul\":15775:15964   */\n      pop\n      pop\n      jump\t// out\n        /* \"#utility.yul\":15970:16156   */\n    tag_174:\n        /* \"#utility.yul\":16030:16150   */\n    tag_342:\n        /* \"#utility.yul\":16047:16050   */\n      dup2\n        /* \"#utility.yul\":16040:16045   */\n      dup2\n        /* \"#utility.yul\":16037:16051   */\n      lt\n        /* \"#utility.yul\":16030:16150   */\n      iszero\n      tag_344\n      jumpi\n        /* \"#utility.yul\":16101:16140   */\n      tag_345\n        /* \"#utility.yul\":16138:16139   */\n      0x00\n        /* \"#utility.yul\":16131:16136   */\n      dup3\n        /* \"#utility.yul\":16101:16140   */\n      tag_173\n      jump\t// in\n    tag_345:\n        /* \"#utility.yul\":16074:16075   */\n      0x01\n        /* \"#utility.yul\":16067:16072   */\n      dup2\n        /* \"#utility.yul\":16063:16076   */\n      add\n        /* \"#utility.yul\":16054:16076   */\n      swap1\n      pop\n        /* \"#utility.yul\":16030:16150   */\n      jump(tag_342)\n    tag_344:\n        /* \"#utility.yul\":15970:16156   */\n      pop\n      pop\n      jump\t// out\n        /* \"#utility.yul\":16162:16705   */\n    tag_175:\n        /* \"#utility.yul\":16263:16265   */\n      0x1f\n        /* \"#utility.yul\":16258:16261   */\n      dup3\n        /* \"#utility.yul\":16255:16266   */\n      gt\n        /* \"#utility.yul\":16252:16698   */\n      iszero\n      tag_347\n      jumpi\n        /* \"#utility.yul\":16297:16335   */\n      tag_348\n        /* \"#utility.yul\":16329:16334   */\n      dup2\n        /* \"#utility.yul\":16297:16335   */\n      tag_164\n      jump\t// in\n    tag_348:\n        /* \"#utility.yul\":16381:16410   */\n      tag_349\n        /* \"#utility.yul\":16399:16409   */\n      dup5\n        /* \"#utility.yul\":16381:16410   */\n      tag_165\n      jump\t// in\n    tag_349:\n        /* \"#utility.yul\":16371:16379   */\n      dup2\n        /* \"#utility.yul\":16367:16411   */\n      add\n        /* \"#utility.yul\":16564:16566   */\n      0x20\n        /* \"#utility.yul\":16552:16562   */\n      dup6\n        /* \"#utility.yul\":16549:16567   */\n      lt\n        /* \"#utility.yul\":16546:16595   */\n      iszero\n      tag_350\n      jumpi\n        /* \"#utility.yul\":16585:16593   */\n      dup2\n        /* \"#utility.yul\":16570:16593   */\n      swap1\n      pop\n        /* \"#utility.yul\":16546:16595   */\n    tag_350:\n        /* \"#utility.yul\":16608:16688   */\n      tag_351\n        /* \"#utility.yul\":16664:16686   */\n      tag_352\n        /* \"#utility.yul\":16682:16685   */\n      dup6\n        /* \"#utility.yul\":16664:16686   */\n      tag_165\n      jump\t// in\n    tag_352:\n        /* \"#utility.yul\":16654:16662   */\n      dup4\n        /* \"#utility.yul\":16650:16687   */\n      add\n        /* \"#utility.yul\":16637:16648   */\n      dup3\n        /* \"#utility.yul\":16608:16688   */\n      tag_174\n      jump\t// in\n    tag_351:\n        /* \"#utility.yul\":16267:16698   */\n      pop\n      pop\n        /* \"#utility.yul\":16252:16698   */\n    tag_347:\n        /* \"#utility.yul\":16162:16705   */\n      pop\n      pop\n      pop\n      jump\t// out\n        /* \"#utility.yul\":16711:16828   */\n    tag_176:\n        /* \"#utility.yul\":16765:16773   */\n      0x00\n        /* \"#utility.yul\":16815:16820   */\n      dup3\n        /* \"#utility.yul\":16809:16813   */\n      dup3\n        /* \"#utility.yul\":16805:16821   */\n      shr\n        /* \"#utility.yul\":16784:16821   */\n      swap1\n      pop\n        /* \"#utility.yul\":16711:16828   */\n      swap3\n      swap2\n      pop\n      pop\n      jump\t// out\n        /* \"#utility.yul\":16834:17003   */\n    tag_177:\n        /* \"#utility.yul\":16878:16884   */\n      0x00\n        /* \"#utility.yul\":16911:16962   */\n      tag_355\n        /* \"#utility.yul\":16959:16960   */\n      0x00\n        /* \"#utility.yul\":16955:16961   */\n      not\n        /* \"#utility.yul\":16947:16952   */\n      dup5\n        /* \"#utility.yul\":16944:16945   */\n      0x08\n        /* \"#utility.yul\":16940:16953   */\n      mul\n        /* \"#utility.yul\":16911:16962   */\n      tag_176\n      jump\t// in\n    tag_355:\n        /* \"#utility.yul\":16907:16963   */\n      not\n        /* \"#utility.yul\":16992:16996   */\n      dup1\n        /* \"#utility.yul\":16986:16990   */\n      dup4\n        /* \"#utility.yul\":16982:16997   */\n      and\n        /* \"#utility.yul\":16972:16997   */\n      swap2\n      pop\n        /* \"#utility.yul\":16885:17003   */\n      pop\n        /* \"#utility.yul\":16834:17003   */\n      swap3\n      swap2\n      pop\n      pop\n      jump\t// out\n        /* \"#utility.yul\":17008:17303   */\n    tag_178:\n        /* \"#utility.yul\":17084:17088   */\n      0x00\n        /* \"#utility.yul\":17230:17259   */\n      tag_357\n        /* \"#utility.yul\":17255:17258   */\n      dup4\n        /* \"#utility.yul\":17249:17253   */\n      dup4\n        /* \"#utility.yul\":17230:17259   */\n      tag_177\n      jump\t// in\n    tag_357:\n        /* \"#utility.yul\":17222:17259   */\n      swap2\n      pop\n        /* \"#utility.yul\":17292:17295   */\n      dup3\n        /* \"#utility.yul\":17289:17290   */\n      0x02\n        /* \"#utility.yul\":17285:17296   */\n      mul\n        /* \"#utility.yul\":17279:17283   */\n      dup3\n        /* \"#utility.yul\":17276:17297   */\n      or\n        /* \"#utility.yul\":17268:17297   */\n      swap1\n      pop\n        /* \"#utility.yul\":17008:17303   */\n      swap3\n      swap2\n      pop\n      pop\n      jump\t// out\n        /* \"#utility.yul\":17308:18703   */\n    tag_108:\n        /* \"#utility.yul\":17425:17462   */\n      tag_359\n        /* \"#utility.yul\":17458:17461   */\n      dup3\n        /* \"#utility.yul\":17425:17462   */\n      tag_138\n      jump\t// in\n    tag_359:\n        /* \"#utility.yul\":17527:17545   */\n      0xffffffffffffffff\n        /* \"#utility.yul\":17519:17525   */\n      dup2\n        /* \"#utility.yul\":17516:17546   */\n      gt\n        /* \"#utility.yul\":17513:17569   */\n      iszero\n      tag_360\n      jumpi\n        /* \"#utility.yul\":17549:17567   */\n      tag_361\n      tag_148\n      jump\t// in\n    tag_361:\n        /* \"#utility.yul\":17513:17569   */\n    tag_360:\n        /* \"#utility.yul\":17593:17631   */\n      tag_362\n        /* \"#utility.yul\":17625:17629   */\n      dup3\n        /* \"#utility.yul\":17619:17630   */\n      sload\n        /* \"#utility.yul\":17593:17631   */\n      tag_89\n      jump\t// in\n    tag_362:\n        /* \"#utility.yul\":17678:17745   */\n      tag_363\n        /* \"#utility.yul\":17738:17744   */\n      dup3\n        /* \"#utility.yul\":17730:17736   */\n      dup3\n        /* \"#utility.yul\":17724:17728   */\n      dup6\n        /* \"#utility.yul\":17678:17745   */\n      tag_175\n      jump\t// in\n    tag_363:\n        /* \"#utility.yul\":17772:17773   */\n      0x00\n        /* \"#utility.yul\":17796:17800   */\n      0x20\n        /* \"#utility.yul\":17783:17800   */\n      swap1\n      pop\n        /* \"#utility.yul\":17828:17830   */\n      0x1f\n        /* \"#utility.yul\":17820:17826   */\n      dup4\n        /* \"#utility.yul\":17817:17831   */\n      gt\n        /* \"#utility.yul\":17845:17846   */\n      0x01\n        /* \"#utility.yul\":17840:18458   */\n      dup2\n      eq\n      tag_365\n      jumpi\n        /* \"#utility.yul\":18502:18503   */\n      0x00\n        /* \"#utility.yul\":18519:18525   */\n      dup5\n        /* \"#utility.yul\":18516:18593   */\n      iszero\n      tag_366\n      jumpi\n        /* \"#utility.yul\":18568:18577   */\n      dup3\n        /* \"#utility.yul\":18563:18566   */\n      dup8\n        /* \"#utility.yul\":18559:18578   */\n      add\n        /* \"#utility.yul\":18553:18579   */\n      mload\n        /* \"#utility.yul\":18544:18579   */\n      swap1\n      pop\n        /* \"#utility.yul\":18516:18593   */\n    tag_366:\n        /* \"#utility.yul\":18619:18686   */\n      tag_367\n        /* \"#utility.yul\":18679:18685   */\n      dup6\n        /* \"#utility.yul\":18672:18677   */\n      dup3\n        /* \"#utility.yul\":18619:18686   */\n      tag_178\n      jump\t// in\n    tag_367:\n        /* \"#utility.yul\":18613:18617   */\n      dup7\n        /* \"#utility.yul\":18606:18687   */\n      sstore\n        /* \"#utility.yul\":18475:18697   */\n      pop\n        /* \"#utility.yul\":17810:18697   */\n      jump(tag_364)\n        /* \"#utility.yul\":17840:18458   */\n    tag_365:\n        /* \"#utility.yul\":17892:17896   */\n      0x1f\n        /* \"#utility.yul\":17888:17897   */\n      not\n        /* \"#utility.yul\":17880:17886   */\n      dup5\n        /* \"#utility.yul\":17876:17898   */\n      and\n        /* \"#utility.yul\":17926:17963   */\n      tag_368\n        /* \"#utility.yul\":17958:17962   */\n      dup7\n        /* \"#utility.yul\":17926:17963   */\n      tag_164\n      jump\t// in\n    tag_368:\n        /* \"#utility.yul\":17985:17986   */\n      0x00\n        /* \"#utility.yul\":17999:18207   */\n    tag_369:\n        /* \"#utility.yul\":18013:18020   */\n      dup3\n        /* \"#utility.yul\":18010:18011   */\n      dup2\n        /* \"#utility.yul\":18007:18021   */\n      lt\n        /* \"#utility.yul\":17999:18207   */\n      iszero\n      tag_371\n      jumpi\n        /* \"#utility.yul\":18092:18101   */\n      dup5\n        /* \"#utility.yul\":18087:18090   */\n      dup10\n        /* \"#utility.yul\":18083:18102   */\n      add\n        /* \"#utility.yul\":18077:18103   */\n      mload\n        /* \"#utility.yul\":18069:18075   */\n      dup3\n        /* \"#utility.yul\":18062:18104   */\n      sstore\n        /* \"#utility.yul\":18143:18144   */\n      0x01\n        /* \"#utility.yul\":18135:18141   */\n      dup3\n        /* \"#utility.yul\":18131:18145   */\n      add\n        /* \"#utility.yul\":18121:18145   */\n      swap2\n      pop\n        /* \"#utility.yul\":18190:18192   */\n      0x20\n        /* \"#utility.yul\":18179:18188   */\n      dup6\n        /* \"#utility.yul\":18175:18193   */\n      add\n        /* \"#utility.yul\":18162:18193   */\n      swap5\n      pop\n        /* \"#utility.yul\":18036:18040   */\n      0x20\n        /* \"#utility.yul\":18033:18034   */\n      dup2\n        /* \"#utility.yul\":18029:18041   */\n      add\n        /* \"#utility.yul\":18024:18041   */\n      swap1\n      pop\n        /* \"#utility.yul\":17999:18207   */\n      jump(tag_369)\n    tag_371:\n        /* \"#utility.yul\":18235:18241   */\n      dup7\n        /* \"#utility.yul\":18226:18233   */\n      dup4\n        /* \"#utility.yul\":18223:18242   */\n      lt\n        /* \"#utility.yul\":18220:18399   */\n      iszero\n      tag_372\n      jumpi\n        /* \"#utility.yul\":18293:18302   */\n      dup5\n        /* \"#utility.yul\":18288:18291   */\n      dup10\n        /* \"#utility.yul\":18284:18303   */\n      add\n        /* \"#utility.yul\":18278:18304   */\n      mload\n        /* \"#utility.yul\":18336:18384   */\n      tag_373\n        /* \"#utility.yul\":18378:18382   */\n      0x1f\n        /* \"#utility.yul\":18370:18376   */\n      dup10\n        /* \"#utility.yul\":18366:18383   */\n      and\n        /* \"#utility.yul\":18355:18364   */\n      dup3\n        /* \"#utility.yul\":18336:18384   */\n      tag_177\n      jump\t// in\n    tag_373:\n        /* \"#utility.yul\":18328:18334   */\n      dup4\n        /* \"#utility.yul\":18321:18385   */\n      sstore\n        /* \"#utility.yul\":18243:18399   */\n      pop\n        /* \"#utility.yul\":18220:18399   */\n    tag_372:\n        /* \"#utility.yul\":18445:18446   */\n      0x01\n        /* \"#utility.yul\":18441:18442   */\n      0x02\n        /* \"#utility.yul\":18433:18439   */\n      dup9\n        /* \"#utility.yul\":18429:18443   */\n      mul\n        /* \"#utility.yul\":18425:18447   */\n      add\n        /* \"#utility.yul\":18419:18423   */\n      dup9\n        /* \"#utility.yul\":18412:18448   */\n      sstore\n        /* \"#utility.yul\":17847:18458   */\n      pop\n      pop\n      pop\n        /* \"#utility.yul\":17810:18697   */\n    tag_364:\n      pop\n        /* \"#utility.yul\":17400:18703   */\n      pop\n      pop\n      pop\n        /* \"#utility.yul\":17308:18703   */\n      pop\n      pop\n      jump\t// out\n        /* \"#utility.yul\":18709:18886   */\n    tag_179:\n        /* \"#utility.yul\":18849:18878   */\n      0x436f6e747261637420616c7265616479207465726d696e617465640000000000\n        /* \"#utility.yul\":18845:18846   */\n      0x00\n        /* \"#utility.yul\":18837:18843   */\n      dup3\n        /* \"#utility.yul\":18833:18847   */\n      add\n        /* \"#utility.yul\":18826:18879   */\n      mstore\n        /* \"#utility.yul\":18709:18886   */\n      pop\n      jump\t// out\n        /* \"#utility.yul\":18892:19258   */\n    tag_180:\n        /* \"#utility.yul\":19034:19037   */\n      0x00\n        /* \"#utility.yul\":19055:19122   */\n      tag_376\n        /* \"#utility.yul\":19119:19121   */\n      0x1b\n        /* \"#utility.yul\":19114:19117   */\n      dup4\n        /* \"#utility.yul\":19055:19122   */\n      tag_139\n      jump\t// in\n    tag_376:\n        /* \"#utility.yul\":19048:19122   */\n      swap2\n      pop\n        /* \"#utility.yul\":19131:19224   */\n      tag_377\n        /* \"#utility.yul\":19220:19223   */\n      dup3\n        /* \"#utility.yul\":19131:19224   */\n      tag_179\n      jump\t// in\n    tag_377:\n        /* \"#utility.yul\":19249:19251   */\n      0x20\n        /* \"#utility.yul\":19244:19247   */\n      dup3\n        /* \"#utility.yul\":19240:19252   */\n      add\n        /* \"#utility.yul\":19233:19252   */\n      swap1\n      pop\n        /* \"#utility.yul\":18892:19258   */\n      swap2\n      swap1\n      pop\n      jump\t// out\n        /* \"#utility.yul\":19264:19683   */\n    tag_122:\n        /* \"#utility.yul\":19430:19434   */\n      0x00\n        /* \"#utility.yul\":19468:19470   */\n      0x20\n        /* \"#utility.yul\":19457:19466   */\n      dup3\n        /* \"#utility.yul\":19453:19471   */\n      add\n        /* \"#utility.yul\":19445:19471   */\n      swap1\n      pop\n        /* \"#utility.yul\":19517:19526   */\n      dup2\n        /* \"#utility.yul\":19511:19515   */\n      dup2\n        /* \"#utility.yul\":19507:19527   */\n      sub\n        /* \"#utility.yul\":19503:19504   */\n      0x00\n        /* \"#utility.yul\":19492:19501   */\n      dup4\n        /* \"#utility.yul\":19488:19505   */\n      add\n        /* \"#utility.yul\":19481:19528   */\n      mstore\n        /* \"#utility.yul\":19545:19676   */\n      tag_379\n        /* \"#utility.yul\":19671:19675   */\n      dup2\n        /* \"#utility.yul\":19545:19676   */\n      tag_180\n      jump\t// in\n    tag_379:\n        /* \"#utility.yul\":19537:19676   */\n      swap1\n      pop\n        /* \"#utility.yul\":19264:19683   */\n      swap2\n      swap1\n      pop\n      jump\t// out\n\n    auxdata: 0xa264697066735822122028c2948b892da6bdfa8014c1425cef067b8bb90187436d48071b19e647d5847564736f6c63430008160033\n}\n",
				"bytecode": {
					"linkReferences": {},
					"object": "608060405234801561000f575f80fd5b50335f806101000a81548173ffffffffffffffffffffffffffffffffffffffff021916908373ffffffffffffffffffffffffffffffffffffffff160217905550611dda8061005c5f395ff3fe608060405234801561000f575f80fd5b50600436106100a7575f3560e01c80637c5397181161006f5780637c539718146101805780638da5cb5b1461019c578063a67d6ead146101ba578063c5788c20146101d6578063d8be1a92146101f2578063f54e1aef14610227576100a7565b8063041dcffa146100ab578063126dbe43146100c757806314bfcdd7146100fa5780635710214d1461012d5780637326b90114610162575b5f80fd5b6100c560048036038101906100c091906113f4565b610243565b005b6100e160048036038101906100dc9190611452565b61057c565b6040516100f19493929190611525565b60405180910390f35b610114600480360381019061010f919061156f565b6107d2565b6040516101249493929190611525565b60405180910390f35b610147600480360381019061014291906115ad565b6108dc565b60405161015996959493929190611605565b60405180910390f35b61016a610976565b6040516101779190611664565b60405180910390f35b61019a600480360381019061019591906117a9565b6109bd565b005b6101a4610bc2565b6040516101b19190611803565b60405180910390f35b6101d460048036038101906101cf919061181c565b610be5565b005b6101f060048036038101906101eb91906113f4565b610f15565b005b61020c600480360381019061020791906115ad565b61101d565b60405161021e96959493929190611605565b60405180910390f35b610241600480360381019061023c91906117a9565b6111cf565b005b5f60015f3373ffffffffffffffffffffffffffffffffffffffff1673ffffffffffffffffffffffffffffffffffffffff1681526020019081526020015f2090505f80805f90505b8380549050811015610363573373ffffffffffffffffffffffffffffffffffffffff168482815481106102c0576102bf611880565b5b905f5260205f2090600402015f015f9054906101000a900473ffffffffffffffffffffffffffffffffffffffff1673ffffffffffffffffffffffffffffffffffffffff16036103565783818154811061031c5761031b611880565b5b905f5260205f2090600402016001015f9054906101000a900473ffffffffffffffffffffffffffffffffffffffff16915060019250610363565b808060010191505061028a565b50816103a4576040517f08c379a000000000000000000000000000000000000000000000000000000000815260040161039b906118f7565b60405180910390fd5b60025f8273ffffffffffffffffffffffffffffffffffffffff1673ffffffffffffffffffffffffffffffffffffffff1681526020019081526020015f205f8573ffffffffffffffffffffffffffffffffffffffff1673ffffffffffffffffffffffffffffffffffffffff1681526020019081526020015f206004015f9054906101000a900460ff1661046b576040517f08c379a000000000000000000000000000000000000000000000000000000000815260040161046290611985565b60405180910390fd5b5f60025f8373ffffffffffffffffffffffffffffffffffffffff1673ffffffffffffffffffffffffffffffffffffffff1681526020019081526020015f205f8673ffffffffffffffffffffffffffffffffffffffff1673ffffffffffffffffffffffffffffffffffffffff1681526020019081526020015f20905060018160040160016101000a81548160ff0219169083151502179055508060040160019054906101000a900460ff1615610575578173ffffffffffffffffffffffffffffffffffffffff168573ffffffffffffffffffffffffffffffffffffffff167f9014317036a91f047fad688c0ee149a303811891885264d3f63cc00ecd62dce860405160405180910390a35b5050505050565b5f8060605f60015f3373ffffffffffffffffffffffffffffffffffffffff1673ffffffffffffffffffffffffffffffffffffffff1681526020019081526020015f20805490508510610603576040517f08c379a00000000000000000000000000000000000000000000000000000000081526004016105fa906119ed565b60405180910390fd5b5f60015f3373ffffffffffffffffffffffffffffffffffffffff1673ffffffffffffffffffffffffffffffffffffffff1681526020019081526020015f20868154811061065357610652611880565b5b905f5260205f2090600402016040518060800160405290815f82015f9054906101000a900473ffffffffffffffffffffffffffffffffffffffff1673ffffffffffffffffffffffffffffffffffffffff1673ffffffffffffffffffffffffffffffffffffffff168152602001600182015f9054906101000a900473ffffffffffffffffffffffffffffffffffffffff1673ffffffffffffffffffffffffffffffffffffffff1673ffffffffffffffffffffffffffffffffffffffff16815260200160028201805461072390611a38565b80601f016020809104026020016040519081016040528092919081815260200182805461074f90611a38565b801561079a5780601f106107715761010080835404028352916020019161079a565b820191905f5260205f20905b81548152906001019060200180831161077d57829003601f168201915b505050505081526020016003820154815250509050805f01518160200151826040015183606001519450945094509450509193509193565b6001602052815f5260405f2081815481106107eb575f80fd5b905f5260205f2090600402015f9150915050805f015f9054906101000a900473ffffffffffffffffffffffffffffffffffffffff1690806001015f9054906101000a900473ffffffffffffffffffffffffffffffffffffffff169080600201805461085590611a38565b80601f016020809104026020016040519081016040528092919081815260200182805461088190611a38565b80156108cc5780601f106108a3576101008083540402835291602001916108cc565b820191905f5260205f20905b8154815290600101906020018083116108af57829003601f168201915b5050505050908060030154905084565b6002602052815f5260405f20602052805f5260405f205f9150915050805f015f9054906101000a900473ffffffffffffffffffffffffffffffffffffffff1690806001015f9054906101000a900473ffffffffffffffffffffffffffffffffffffffff1690806002015490806003015490806004015f9054906101000a900460ff16908060040160019054906101000a900460ff16905086565b5f60015f3373ffffffffffffffffffffffffffffffffffffffff1673ffffffffffffffffffffffffffffffffffffffff1681526020019081526020015f2080549050905090565b5f60015f3373ffffffffffffffffffffffffffffffffffffffff1673ffffffffffffffffffffffffffffffffffffffff1681526020019081526020015f2090505f818054905014610a43576040517f08c379a0000000000000000000000000000000000000000000000000000000008152600401610a3a90611ab2565b60405180910390fd5b8060405180608001604052803373ffffffffffffffffffffffffffffffffffffffff1681526020013373ffffffffffffffffffffffffffffffffffffffff16815260200185815260200184815250908060018154018082558091505060019003905f5260205f2090600402015f909190919091505f820151815f015f6101000a81548173ffffffffffffffffffffffffffffffffffffffff021916908373ffffffffffffffffffffffffffffffffffffffff1602179055506020820151816001015f6101000a81548173ffffffffffffffffffffffffffffffffffffffff021916908373ffffffffffffffffffffffffffffffffffffffff1602179055506040820151816002019081610b569190611c6d565b506060820151816003015550503373ffffffffffffffffffffffffffffffffffffffff163373ffffffffffffffffffffffffffffffffffffffff167f0bd76f27e1208c8a9e9a5f16a40ed097af527a3d0f72e7010cab9ef3222609ea60405160405180910390a3505050565b5f8054906101000a900473ffffffffffffffffffffffffffffffffffffffff1681565b5f60015f3373ffffffffffffffffffffffffffffffffffffffff1673ffffffffffffffffffffffffffffffffffffffff1681526020019081526020015f2090505f805b8280549050811015610cbd573373ffffffffffffffffffffffffffffffffffffffff16838281548110610c5e57610c5d611880565b5b905f5260205f2090600402015f015f9054906101000a900473ffffffffffffffffffffffffffffffffffffffff1673ffffffffffffffffffffffffffffffffffffffff1603610cb05760019150610cbd565b8080600101915050610c28565b5080610cfe576040517f08c379a0000000000000000000000000000000000000000000000000000000008152600401610cf5906118f7565b60405180910390fd5b6040518060c001604052808673ffffffffffffffffffffffffffffffffffffffff1681526020018773ffffffffffffffffffffffffffffffffffffffff1681526020018581526020018481526020015f151581526020015f151581525060025f8873ffffffffffffffffffffffffffffffffffffffff1673ffffffffffffffffffffffffffffffffffffffff1681526020019081526020015f205f8773ffffffffffffffffffffffffffffffffffffffff1673ffffffffffffffffffffffffffffffffffffffff1681526020019081526020015f205f820151815f015f6101000a81548173ffffffffffffffffffffffffffffffffffffffff021916908373ffffffffffffffffffffffffffffffffffffffff1602179055506020820151816001015f6101000a81548173ffffffffffffffffffffffffffffffffffffffff021916908373ffffffffffffffffffffffffffffffffffffffff16021790555060408201518160020155606082015181600301556080820151816004015f6101000a81548160ff02191690831515021790555060a08201518160040160016101000a81548160ff0219169083151502179055509050508573ffffffffffffffffffffffffffffffffffffffff168573ffffffffffffffffffffffffffffffffffffffff167f7dcfa7e41768e0150f76eee8f7c57fe4ab9677539af958eeda0e00b8a5cf2d6760405160405180910390a3505050505050565b5f60025f8373ffffffffffffffffffffffffffffffffffffffff1673ffffffffffffffffffffffffffffffffffffffff1681526020019081526020015f205f3373ffffffffffffffffffffffffffffffffffffffff1673ffffffffffffffffffffffffffffffffffffffff1681526020019081526020015f209050806004015f9054906101000a900460ff1615610fe1576040517f08c379a0000000000000000000000000000000000000000000000000000000008152600401610fd890611d86565b60405180910390fd5b6001816004015f6101000a81548160ff0219169083151502179055505f8160040160016101000a81548160ff0219169083151502179055505050565b5f805f805f805f60025f8a73ffffffffffffffffffffffffffffffffffffffff1673ffffffffffffffffffffffffffffffffffffffff1681526020019081526020015f205f8973ffffffffffffffffffffffffffffffffffffffff1673ffffffffffffffffffffffffffffffffffffffff1681526020019081526020015f206040518060c00160405290815f82015f9054906101000a900473ffffffffffffffffffffffffffffffffffffffff1673ffffffffffffffffffffffffffffffffffffffff1673ffffffffffffffffffffffffffffffffffffffff168152602001600182015f9054906101000a900473ffffffffffffffffffffffffffffffffffffffff1673ffffffffffffffffffffffffffffffffffffffff1673ffffffffffffffffffffffffffffffffffffffff1681526020016002820154815260200160038201548152602001600482015f9054906101000a900460ff161515151581526020016004820160019054906101000a900460ff1615151515815250509050805f015181602001518260400151836060015184608001518560a00151965096509650965096509650509295509295509295565b60015f3373ffffffffffffffffffffffffffffffffffffffff1673ffffffffffffffffffffffffffffffffffffffff1681526020019081526020015f2060405180608001604052803373ffffffffffffffffffffffffffffffffffffffff1681526020013373ffffffffffffffffffffffffffffffffffffffff16815260200184815260200183815250908060018154018082558091505060019003905f5260205f2090600402015f909190919091505f820151815f015f6101000a81548173ffffffffffffffffffffffffffffffffffffffff021916908373ffffffffffffffffffffffffffffffffffffffff1602179055506020820151816001015f6101000a81548173ffffffffffffffffffffffffffffffffffffffff021916908373ffffffffffffffffffffffffffffffffffffffff160217905550604082015181600201908161131e9190611c6d565b506060820151816003015550503373ffffffffffffffffffffffffffffffffffffffff163373ffffffffffffffffffffffffffffffffffffffff167f0bd76f27e1208c8a9e9a5f16a40ed097af527a3d0f72e7010cab9ef3222609ea60405160405180910390a35050565b5f604051905090565b5f80fd5b5f80fd5b5f73ffffffffffffffffffffffffffffffffffffffff82169050919050565b5f6113c38261139a565b9050919050565b6113d3816113b9565b81146113dd575f80fd5b50565b5f813590506113ee816113ca565b92915050565b5f6020828403121561140957611408611392565b5b5f611416848285016113e0565b91505092915050565b5f819050919050565b6114318161141f565b811461143b575f80fd5b50565b5f8135905061144c81611428565b92915050565b5f6020828403121561146757611466611392565b5b5f6114748482850161143e565b91505092915050565b611486816113b9565b82525050565b5f81519050919050565b5f82825260208201905092915050565b5f5b838110156114c35780820151818401526020810190506114a8565b5f8484015250505050565b5f601f19601f8301169050919050565b5f6114e88261148c565b6114f28185611496565b93506115028185602086016114a6565b61150b816114ce565b840191505092915050565b61151f8161141f565b82525050565b5f6080820190506115385f83018761147d565b611545602083018661147d565b818103604083015261155781856114de565b90506115666060830184611516565b95945050505050565b5f806040838503121561158557611584611392565b5b5f611592858286016113e0565b92505060206115a38582860161143e565b9150509250929050565b5f80604083850312156115c3576115c2611392565b5b5f6115d0858286016113e0565b92505060206115e1858286016113e0565b9150509250929050565b5f8115159050919050565b6115ff816115eb565b82525050565b5f60c0820190506116185f83018961147d565b611625602083018861147d565b6116326040830187611516565b61163f6060830186611516565b61164c60808301856115f6565b61165960a08301846115f6565b979650505050505050565b5f6020820190506116775f830184611516565b92915050565b5f80fd5b5f80fd5b7f4e487b71000000000000000000000000000000000000000000000000000000005f52604160045260245ffd5b6116bb826114ce565b810181811067ffffffffffffffff821117156116da576116d9611685565b5b80604052505050565b5f6116ec611389565b90506116f882826116b2565b919050565b5f67ffffffffffffffff82111561171757611716611685565b5b611720826114ce565b9050602081019050919050565b828183375f83830152505050565b5f61174d611748846116fd565b6116e3565b90508281526020810184848401111561176957611768611681565b5b61177484828561172d565b509392505050565b5f82601f8301126117905761178f61167d565b5b81356117a084826020860161173b565b91505092915050565b5f80604083850312156117bf576117be611392565b5b5f83013567ffffffffffffffff8111156117dc576117db611396565b5b6117e88582860161177c565b92505060206117f98582860161143e565b9150509250929050565b5f6020820190506118165f83018461147d565b92915050565b5f805f806080858703121561183457611833611392565b5b5f611841878288016113e0565b9450506020611852878288016113e0565b93505060406118638782880161143e565b92505060606118748782880161143e565b91505092959194509250565b7f4e487b71000000000000000000000000000000000000000000000000000000005f52603260045260245ffd5b7f4e6f74207468652070726f7065727479206f776e6572000000000000000000005f82015250565b5f6118e1601683611496565b91506118ec826118ad565b602082019050919050565b5f6020820190508181035f83015261190e816118d5565b9050919050565b7f54656e616e7420686173206e6f7420726571756573746564207465726d696e615f8201527f74696f6e00000000000000000000000000000000000000000000000000000000602082015250565b5f61196f602483611496565b915061197a82611915565b604082019050919050565b5f6020820190508181035f83015261199c81611963565b9050919050565b7f496e76616c69642070726f706572747920696e646578000000000000000000005f82015250565b5f6119d7601683611496565b91506119e2826119a3565b602082019050919050565b5f6020820190508181035f830152611a04816119cb565b9050919050565b7f4e487b71000000000000000000000000000000000000000000000000000000005f52602260045260245ffd5b5f6002820490506001821680611a4f57607f821691505b602082108103611a6257611a61611a0b565b5b50919050565b7f50726f706572747920616c7265616479207265676973746572656400000000005f82015250565b5f611a9c601b83611496565b9150611aa782611a68565b602082019050919050565b5f6020820190508181035f830152611ac981611a90565b9050919050565b5f819050815f5260205f209050919050565b5f6020601f8301049050919050565b5f82821b905092915050565b5f60088302611b2c7fffffffffffffffffffffffffffffffffffffffffffffffffffffffffffffffff82611af1565b611b368683611af1565b95508019841693508086168417925050509392505050565b5f819050919050565b5f611b71611b6c611b678461141f565b611b4e565b61141f565b9050919050565b5f819050919050565b611b8a83611b57565b611b9e611b9682611b78565b848454611afd565b825550505050565b5f90565b611bb2611ba6565b611bbd818484611b81565b505050565b5b81811015611be057611bd55f82611baa565b600181019050611bc3565b5050565b601f821115611c2557611bf681611ad0565b611bff84611ae2565b81016020851015611c0e578190505b611c22611c1a85611ae2565b830182611bc2565b50505b505050565b5f82821c905092915050565b5f611c455f1984600802611c2a565b1980831691505092915050565b5f611c5d8383611c36565b9150826002028217905092915050565b611c768261148c565b67ffffffffffffffff811115611c8f57611c8e611685565b5b611c998254611a38565b611ca4828285611be4565b5f60209050601f831160018114611cd5575f8415611cc3578287015190505b611ccd8582611c52565b865550611d34565b601f198416611ce386611ad0565b5f5b82811015611d0a57848901518255600182019150602085019450602081019050611ce5565b86831015611d275784890151611d23601f891682611c36565b8355505b6001600288020188555050505b505050505050565b7f436f6e747261637420616c7265616479207465726d696e6174656400000000005f82015250565b5f611d70601b83611496565b9150611d7b82611d3c565b602082019050919050565b5f6020820190508181035f830152611d9d81611d64565b905091905056fea264697066735822122028c2948b892da6bdfa8014c1425cef067b8bb90187436d48071b19e647d5847564736f6c63430008160033",
					"opcodes": "PUSH1 0x80 PUSH1 0x40 MSTORE CALLVALUE DUP1 ISZERO PUSH2 0xF JUMPI PUSH0 DUP1 REVERT JUMPDEST POP CALLER PUSH0 DUP1 PUSH2 0x100 EXP DUP2 SLOAD DUP2 PUSH20 0xFFFFFFFFFFFFFFFFFFFFFFFFFFFFFFFFFFFFFFFF MUL NOT AND SWAP1 DUP4 PUSH20 0xFFFFFFFFFFFFFFFFFFFFFFFFFFFFFFFFFFFFFFFF AND MUL OR SWAP1 SSTORE POP PUSH2 0x1DDA DUP1 PUSH2 0x5C PUSH0 CODECOPY PUSH0 RETURN INVALID PUSH1 0x80 PUSH1 0x40 MSTORE CALLVALUE DUP1 ISZERO PUSH2 0xF JUMPI PUSH0 DUP1 REVERT JUMPDEST POP PUSH1 0x4 CALLDATASIZE LT PUSH2 0xA7 JUMPI PUSH0 CALLDATALOAD PUSH1 0xE0 SHR DUP1 PUSH4 0x7C539718 GT PUSH2 0x6F JUMPI DUP1 PUSH4 0x7C539718 EQ PUSH2 0x180 JUMPI DUP1 PUSH4 0x8DA5CB5B EQ PUSH2 0x19C JUMPI DUP1 PUSH4 0xA67D6EAD EQ PUSH2 0x1BA JUMPI DUP1 PUSH4 0xC5788C20 EQ PUSH2 0x1D6 JUMPI DUP1 PUSH4 0xD8BE1A92 EQ PUSH2 0x1F2 JUMPI DUP1 PUSH4 0xF54E1AEF EQ PUSH2 0x227 JUMPI PUSH2 0xA7 JUMP JUMPDEST DUP1 PUSH4 0x41DCFFA EQ PUSH2 0xAB JUMPI DUP1 PUSH4 0x126DBE43 EQ PUSH2 0xC7 JUMPI DUP1 PUSH4 0x14BFCDD7 EQ PUSH2 0xFA JUMPI DUP1 PUSH4 0x5710214D EQ PUSH2 0x12D JUMPI DUP1 PUSH4 0x7326B901 EQ PUSH2 0x162 JUMPI JUMPDEST PUSH0 DUP1 REVERT JUMPDEST PUSH2 0xC5 PUSH1 0x4 DUP1 CALLDATASIZE SUB DUP2 ADD SWAP1 PUSH2 0xC0 SWAP2 SWAP1 PUSH2 0x13F4 JUMP JUMPDEST PUSH2 0x243 JUMP JUMPDEST STOP JUMPDEST PUSH2 0xE1 PUSH1 0x4 DUP1 CALLDATASIZE SUB DUP2 ADD SWAP1 PUSH2 0xDC SWAP2 SWAP1 PUSH2 0x1452 JUMP JUMPDEST PUSH2 0x57C JUMP JUMPDEST PUSH1 0x40 MLOAD PUSH2 0xF1 SWAP5 SWAP4 SWAP3 SWAP2 SWAP1 PUSH2 0x1525 JUMP JUMPDEST PUSH1 0x40 MLOAD DUP1 SWAP2 SUB SWAP1 RETURN JUMPDEST PUSH2 0x114 PUSH1 0x4 DUP1 CALLDATASIZE SUB DUP2 ADD SWAP1 PUSH2 0x10F SWAP2 SWAP1 PUSH2 0x156F JUMP JUMPDEST PUSH2 0x7D2 JUMP JUMPDEST PUSH1 0x40 MLOAD PUSH2 0x124 SWAP5 SWAP4 SWAP3 SWAP2 SWAP1 PUSH2 0x1525 JUMP JUMPDEST PUSH1 0x40 MLOAD DUP1 SWAP2 SUB SWAP1 RETURN JUMPDEST PUSH2 0x147 PUSH1 0x4 DUP1 CALLDATASIZE SUB DUP2 ADD SWAP1 PUSH2 0x142 SWAP2 SWAP1 PUSH2 0x15AD JUMP JUMPDEST PUSH2 0x8DC JUMP JUMPDEST PUSH1 0x40 MLOAD PUSH2 0x159 SWAP7 SWAP6 SWAP5 SWAP4 SWAP3 SWAP2 SWAP1 PUSH2 0x1605 JUMP JUMPDEST PUSH1 0x40 MLOAD DUP1 SWAP2 SUB SWAP1 RETURN JUMPDEST PUSH2 0x16A PUSH2 0x976 JUMP JUMPDEST PUSH1 0x40 MLOAD PUSH2 0x177 SWAP2 SWAP1 PUSH2 0x1664 JUMP JUMPDEST PUSH1 0x40 MLOAD DUP1 SWAP2 SUB SWAP1 RETURN JUMPDEST PUSH2 0x19A PUSH1 0x4 DUP1 CALLDATASIZE SUB DUP2 ADD SWAP1 PUSH2 0x195 SWAP2 SWAP1 PUSH2 0x17A9 JUMP JUMPDEST PUSH2 0x9BD JUMP JUMPDEST STOP JUMPDEST PUSH2 0x1A4 PUSH2 0xBC2 JUMP JUMPDEST PUSH1 0x40 MLOAD PUSH2 0x1B1 SWAP2 SWAP1 PUSH2 0x1803 JUMP JUMPDEST PUSH1 0x40 MLOAD DUP1 SWAP2 SUB SWAP1 RETURN JUMPDEST PUSH2 0x1D4 PUSH1 0x4 DUP1 CALLDATASIZE SUB DUP2 ADD SWAP1 PUSH2 0x1CF SWAP2 SWAP1 PUSH2 0x181C JUMP JUMPDEST PUSH2 0xBE5 JUMP JUMPDEST STOP JUMPDEST PUSH2 0x1F0 PUSH1 0x4 DUP1 CALLDATASIZE SUB DUP2 ADD SWAP1 PUSH2 0x1EB SWAP2 SWAP1 PUSH2 0x13F4 JUMP JUMPDEST PUSH2 0xF15 JUMP JUMPDEST STOP JUMPDEST PUSH2 0x20C PUSH1 0x4 DUP1 CALLDATASIZE SUB DUP2 ADD SWAP1 PUSH2 0x207 SWAP2 SWAP1 PUSH2 0x15AD JUMP JUMPDEST PUSH2 0x101D JUMP JUMPDEST PUSH1 0x40 MLOAD PUSH2 0x21E SWAP7 SWAP6 SWAP5 SWAP4 SWAP3 SWAP2 SWAP1 PUSH2 0x1605 JUMP JUMPDEST PUSH1 0x40 MLOAD DUP1 SWAP2 SUB SWAP1 RETURN JUMPDEST PUSH2 0x241 PUSH1 0x4 DUP1 CALLDATASIZE SUB DUP2 ADD SWAP1 PUSH2 0x23C SWAP2 SWAP1 PUSH2 0x17A9 JUMP JUMPDEST PUSH2 0x11CF JUMP JUMPDEST STOP JUMPDEST PUSH0 PUSH1 0x1 PUSH0 CALLER PUSH20 0xFFFFFFFFFFFFFFFFFFFFFFFFFFFFFFFFFFFFFFFF AND PUSH20 0xFFFFFFFFFFFFFFFFFFFFFFFFFFFFFFFFFFFFFFFF AND DUP2 MSTORE PUSH1 0x20 ADD SWAP1 DUP2 MSTORE PUSH1 0x20 ADD PUSH0 KECCAK256 SWAP1 POP PUSH0 DUP1 DUP1 PUSH0 SWAP1 POP JUMPDEST DUP4 DUP1 SLOAD SWAP1 POP DUP2 LT ISZERO PUSH2 0x363 JUMPI CALLER PUSH20 0xFFFFFFFFFFFFFFFFFFFFFFFFFFFFFFFFFFFFFFFF AND DUP5 DUP3 DUP2 SLOAD DUP2 LT PUSH2 0x2C0 JUMPI PUSH2 0x2BF PUSH2 0x1880 JUMP JUMPDEST JUMPDEST SWAP1 PUSH0 MSTORE PUSH1 0x20 PUSH0 KECCAK256 SWAP1 PUSH1 0x4 MUL ADD PUSH0 ADD PUSH0 SWAP1 SLOAD SWAP1 PUSH2 0x100 EXP SWAP1 DIV PUSH20 0xFFFFFFFFFFFFFFFFFFFFFFFFFFFFFFFFFFFFFFFF AND PUSH20 0xFFFFFFFFFFFFFFFFFFFFFFFFFFFFFFFFFFFFFFFF AND SUB PUSH2 0x356 JUMPI DUP4 DUP2 DUP2 SLOAD DUP2 LT PUSH2 0x31C JUMPI PUSH2 0x31B PUSH2 0x1880 JUMP JUMPDEST JUMPDEST SWAP1 PUSH0 MSTORE PUSH1 0x20 PUSH0 KECCAK256 SWAP1 PUSH1 0x4 MUL ADD PUSH1 0x1 ADD PUSH0 SWAP1 SLOAD SWAP1 PUSH2 0x100 EXP SWAP1 DIV PUSH20 0xFFFFFFFFFFFFFFFFFFFFFFFFFFFFFFFFFFFFFFFF AND SWAP2 POP PUSH1 0x1 SWAP3 POP PUSH2 0x363 JUMP JUMPDEST DUP1 DUP1 PUSH1 0x1 ADD SWAP2 POP POP PUSH2 0x28A JUMP JUMPDEST POP DUP2 PUSH2 0x3A4 JUMPI PUSH1 0x40 MLOAD PUSH32 0x8C379A000000000000000000000000000000000000000000000000000000000 DUP2 MSTORE PUSH1 0x4 ADD PUSH2 0x39B SWAP1 PUSH2 0x18F7 JUMP JUMPDEST PUSH1 0x40 MLOAD DUP1 SWAP2 SUB SWAP1 REVERT JUMPDEST PUSH1 0x2 PUSH0 DUP3 PUSH20 0xFFFFFFFFFFFFFFFFFFFFFFFFFFFFFFFFFFFFFFFF AND PUSH20 0xFFFFFFFFFFFFFFFFFFFFFFFFFFFFFFFFFFFFFFFF AND DUP2 MSTORE PUSH1 0x20 ADD SWAP1 DUP2 MSTORE PUSH1 0x20 ADD PUSH0 KECCAK256 PUSH0 DUP6 PUSH20 0xFFFFFFFFFFFFFFFFFFFFFFFFFFFFFFFFFFFFFFFF AND PUSH20 0xFFFFFFFFFFFFFFFFFFFFFFFFFFFFFFFFFFFFFFFF AND DUP2 MSTORE PUSH1 0x20 ADD SWAP1 DUP2 MSTORE PUSH1 0x20 ADD PUSH0 KECCAK256 PUSH1 0x4 ADD PUSH0 SWAP1 SLOAD SWAP1 PUSH2 0x100 EXP SWAP1 DIV PUSH1 0xFF AND PUSH2 0x46B JUMPI PUSH1 0x40 MLOAD PUSH32 0x8C379A000000000000000000000000000000000000000000000000000000000 DUP2 MSTORE PUSH1 0x4 ADD PUSH2 0x462 SWAP1 PUSH2 0x1985 JUMP JUMPDEST PUSH1 0x40 MLOAD DUP1 SWAP2 SUB SWAP1 REVERT JUMPDEST PUSH0 PUSH1 0x2 PUSH0 DUP4 PUSH20 0xFFFFFFFFFFFFFFFFFFFFFFFFFFFFFFFFFFFFFFFF AND PUSH20 0xFFFFFFFFFFFFFFFFFFFFFFFFFFFFFFFFFFFFFFFF AND DUP2 MSTORE PUSH1 0x20 ADD SWAP1 DUP2 MSTORE PUSH1 0x20 ADD PUSH0 KECCAK256 PUSH0 DUP7 PUSH20 0xFFFFFFFFFFFFFFFFFFFFFFFFFFFFFFFFFFFFFFFF AND PUSH20 0xFFFFFFFFFFFFFFFFFFFFFFFFFFFFFFFFFFFFFFFF AND DUP2 MSTORE PUSH1 0x20 ADD SWAP1 DUP2 MSTORE PUSH1 0x20 ADD PUSH0 KECCAK256 SWAP1 POP PUSH1 0x1 DUP2 PUSH1 0x4 ADD PUSH1 0x1 PUSH2 0x100 EXP DUP2 SLOAD DUP2 PUSH1 0xFF MUL NOT AND SWAP1 DUP4 ISZERO ISZERO MUL OR SWAP1 SSTORE POP DUP1 PUSH1 0x4 ADD PUSH1 0x1 SWAP1 SLOAD SWAP1 PUSH2 0x100 EXP SWAP1 DIV PUSH1 0xFF AND ISZERO PUSH2 0x575 JUMPI DUP2 PUSH20 0xFFFFFFFFFFFFFFFFFFFFFFFFFFFFFFFFFFFFFFFF AND DUP6 PUSH20 0xFFFFFFFFFFFFFFFFFFFFFFFFFFFFFFFFFFFFFFFF AND PUSH32 0x9014317036A91F047FAD688C0EE149A303811891885264D3F63CC00ECD62DCE8 PUSH1 0x40 MLOAD PUSH1 0x40 MLOAD DUP1 SWAP2 SUB SWAP1 LOG3 JUMPDEST POP POP POP POP POP JUMP JUMPDEST PUSH0 DUP1 PUSH1 0x60 PUSH0 PUSH1 0x1 PUSH0 CALLER PUSH20 0xFFFFFFFFFFFFFFFFFFFFFFFFFFFFFFFFFFFFFFFF AND PUSH20 0xFFFFFFFFFFFFFFFFFFFFFFFFFFFFFFFFFFFFFFFF AND DUP2 MSTORE PUSH1 0x20 ADD SWAP1 DUP2 MSTORE PUSH1 0x20 ADD PUSH0 KECCAK256 DUP1 SLOAD SWAP1 POP DUP6 LT PUSH2 0x603 JUMPI PUSH1 0x40 MLOAD PUSH32 0x8C379A000000000000000000000000000000000000000000000000000000000 DUP2 MSTORE PUSH1 0x4 ADD PUSH2 0x5FA SWAP1 PUSH2 0x19ED JUMP JUMPDEST PUSH1 0x40 MLOAD DUP1 SWAP2 SUB SWAP1 REVERT JUMPDEST PUSH0 PUSH1 0x1 PUSH0 CALLER PUSH20 0xFFFFFFFFFFFFFFFFFFFFFFFFFFFFFFFFFFFFFFFF AND PUSH20 0xFFFFFFFFFFFFFFFFFFFFFFFFFFFFFFFFFFFFFFFF AND DUP2 MSTORE PUSH1 0x20 ADD SWAP1 DUP2 MSTORE PUSH1 0x20 ADD PUSH0 KECCAK256 DUP7 DUP2 SLOAD DUP2 LT PUSH2 0x653 JUMPI PUSH2 0x652 PUSH2 0x1880 JUMP JUMPDEST JUMPDEST SWAP1 PUSH0 MSTORE PUSH1 0x20 PUSH0 KECCAK256 SWAP1 PUSH1 0x4 MUL ADD PUSH1 0x40 MLOAD DUP1 PUSH1 0x80 ADD PUSH1 0x40 MSTORE SWAP1 DUP2 PUSH0 DUP3 ADD PUSH0 SWAP1 SLOAD SWAP1 PUSH2 0x100 EXP SWAP1 DIV PUSH20 0xFFFFFFFFFFFFFFFFFFFFFFFFFFFFFFFFFFFFFFFF AND PUSH20 0xFFFFFFFFFFFFFFFFFFFFFFFFFFFFFFFFFFFFFFFF AND PUSH20 0xFFFFFFFFFFFFFFFFFFFFFFFFFFFFFFFFFFFFFFFF AND DUP2 MSTORE PUSH1 0x20 ADD PUSH1 0x1 DUP3 ADD PUSH0 SWAP1 SLOAD SWAP1 PUSH2 0x100 EXP SWAP1 DIV PUSH20 0xFFFFFFFFFFFFFFFFFFFFFFFFFFFFFFFFFFFFFFFF AND PUSH20 0xFFFFFFFFFFFFFFFFFFFFFFFFFFFFFFFFFFFFFFFF AND PUSH20 0xFFFFFFFFFFFFFFFFFFFFFFFFFFFFFFFFFFFFFFFF AND DUP2 MSTORE PUSH1 0x20 ADD PUSH1 0x2 DUP3 ADD DUP1 SLOAD PUSH2 0x723 SWAP1 PUSH2 0x1A38 JUMP JUMPDEST DUP1 PUSH1 0x1F ADD PUSH1 0x20 DUP1 SWAP2 DIV MUL PUSH1 0x20 ADD PUSH1 0x40 MLOAD SWAP1 DUP2 ADD PUSH1 0x40 MSTORE DUP1 SWAP3 SWAP2 SWAP1 DUP2 DUP2 MSTORE PUSH1 0x20 ADD DUP3 DUP1 SLOAD PUSH2 0x74F SWAP1 PUSH2 0x1A38 JUMP JUMPDEST DUP1 ISZERO PUSH2 0x79A JUMPI DUP1 PUSH1 0x1F LT PUSH2 0x771 JUMPI PUSH2 0x100 DUP1 DUP4 SLOAD DIV MUL DUP4 MSTORE SWAP2 PUSH1 0x20 ADD SWAP2 PUSH2 0x79A JUMP JUMPDEST DUP3 ADD SWAP2 SWAP1 PUSH0 MSTORE PUSH1 0x20 PUSH0 KECCAK256 SWAP1 JUMPDEST DUP2 SLOAD DUP2 MSTORE SWAP1 PUSH1 0x1 ADD SWAP1 PUSH1 0x20 ADD DUP1 DUP4 GT PUSH2 0x77D JUMPI DUP3 SWAP1 SUB PUSH1 0x1F AND DUP3 ADD SWAP2 JUMPDEST POP POP POP POP POP DUP2 MSTORE PUSH1 0x20 ADD PUSH1 0x3 DUP3 ADD SLOAD DUP2 MSTORE POP POP SWAP1 POP DUP1 PUSH0 ADD MLOAD DUP2 PUSH1 0x20 ADD MLOAD DUP3 PUSH1 0x40 ADD MLOAD DUP4 PUSH1 0x60 ADD MLOAD SWAP5 POP SWAP5 POP SWAP5 POP SWAP5 POP POP SWAP2 SWAP4 POP SWAP2 SWAP4 JUMP JUMPDEST PUSH1 0x1 PUSH1 0x20 MSTORE DUP2 PUSH0 MSTORE PUSH1 0x40 PUSH0 KECCAK256 DUP2 DUP2 SLOAD DUP2 LT PUSH2 0x7EB JUMPI PUSH0 DUP1 REVERT JUMPDEST SWAP1 PUSH0 MSTORE PUSH1 0x20 PUSH0 KECCAK256 SWAP1 PUSH1 0x4 MUL ADD PUSH0 SWAP2 POP SWAP2 POP POP DUP1 PUSH0 ADD PUSH0 SWAP1 SLOAD SWAP1 PUSH2 0x100 EXP SWAP1 DIV PUSH20 0xFFFFFFFFFFFFFFFFFFFFFFFFFFFFFFFFFFFFFFFF AND SWAP1 DUP1 PUSH1 0x1 ADD PUSH0 SWAP1 SLOAD SWAP1 PUSH2 0x100 EXP SWAP1 DIV PUSH20 0xFFFFFFFFFFFFFFFFFFFFFFFFFFFFFFFFFFFFFFFF AND SWAP1 DUP1 PUSH1 0x2 ADD DUP1 SLOAD PUSH2 0x855 SWAP1 PUSH2 0x1A38 JUMP JUMPDEST DUP1 PUSH1 0x1F ADD PUSH1 0x20 DUP1 SWAP2 DIV MUL PUSH1 0x20 ADD PUSH1 0x40 MLOAD SWAP1 DUP2 ADD PUSH1 0x40 MSTORE DUP1 SWAP3 SWAP2 SWAP1 DUP2 DUP2 MSTORE PUSH1 0x20 ADD DUP3 DUP1 SLOAD PUSH2 0x881 SWAP1 PUSH2 0x1A38 JUMP JUMPDEST DUP1 ISZERO PUSH2 0x8CC JUMPI DUP1 PUSH1 0x1F LT PUSH2 0x8A3 JUMPI PUSH2 0x100 DUP1 DUP4 SLOAD DIV MUL DUP4 MSTORE SWAP2 PUSH1 0x20 ADD SWAP2 PUSH2 0x8CC JUMP JUMPDEST DUP3 ADD SWAP2 SWAP1 PUSH0 MSTORE PUSH1 0x20 PUSH0 KECCAK256 SWAP1 JUMPDEST DUP2 SLOAD DUP2 MSTORE SWAP1 PUSH1 0x1 ADD SWAP1 PUSH1 0x20 ADD DUP1 DUP4 GT PUSH2 0x8AF JUMPI DUP3 SWAP1 SUB PUSH1 0x1F AND DUP3 ADD SWAP2 JUMPDEST POP POP POP POP POP SWAP1 DUP1 PUSH1 0x3 ADD SLOAD SWAP1 POP DUP5 JUMP JUMPDEST PUSH1 0x2 PUSH1 0x20 MSTORE DUP2 PUSH0 MSTORE PUSH1 0x40 PUSH0 KECCAK256 PUSH1 0x20 MSTORE DUP1 PUSH0 MSTORE PUSH1 0x40 PUSH0 KECCAK256 PUSH0 SWAP2 POP SWAP2 POP POP DUP1 PUSH0 ADD PUSH0 SWAP1 SLOAD SWAP1 PUSH2 0x100 EXP SWAP1 DIV PUSH20 0xFFFFFFFFFFFFFFFFFFFFFFFFFFFFFFFFFFFFFFFF AND SWAP1 DUP1 PUSH1 0x1 ADD PUSH0 SWAP1 SLOAD SWAP1 PUSH2 0x100 EXP SWAP1 DIV PUSH20 0xFFFFFFFFFFFFFFFFFFFFFFFFFFFFFFFFFFFFFFFF AND SWAP1 DUP1 PUSH1 0x2 ADD SLOAD SWAP1 DUP1 PUSH1 0x3 ADD SLOAD SWAP1 DUP1 PUSH1 0x4 ADD PUSH0 SWAP1 SLOAD SWAP1 PUSH2 0x100 EXP SWAP1 DIV PUSH1 0xFF AND SWAP1 DUP1 PUSH1 0x4 ADD PUSH1 0x1 SWAP1 SLOAD SWAP1 PUSH2 0x100 EXP SWAP1 DIV PUSH1 0xFF AND SWAP1 POP DUP7 JUMP JUMPDEST PUSH0 PUSH1 0x1 PUSH0 CALLER PUSH20 0xFFFFFFFFFFFFFFFFFFFFFFFFFFFFFFFFFFFFFFFF AND PUSH20 0xFFFFFFFFFFFFFFFFFFFFFFFFFFFFFFFFFFFFFFFF AND DUP2 MSTORE PUSH1 0x20 ADD SWAP1 DUP2 MSTORE PUSH1 0x20 ADD PUSH0 KECCAK256 DUP1 SLOAD SWAP1 POP SWAP1 POP SWAP1 JUMP JUMPDEST PUSH0 PUSH1 0x1 PUSH0 CALLER PUSH20 0xFFFFFFFFFFFFFFFFFFFFFFFFFFFFFFFFFFFFFFFF AND PUSH20 0xFFFFFFFFFFFFFFFFFFFFFFFFFFFFFFFFFFFFFFFF AND DUP2 MSTORE PUSH1 0x20 ADD SWAP1 DUP2 MSTORE PUSH1 0x20 ADD PUSH0 KECCAK256 SWAP1 POP PUSH0 DUP2 DUP1 SLOAD SWAP1 POP EQ PUSH2 0xA43 JUMPI PUSH1 0x40 MLOAD PUSH32 0x8C379A000000000000000000000000000000000000000000000000000000000 DUP2 MSTORE PUSH1 0x4 ADD PUSH2 0xA3A SWAP1 PUSH2 0x1AB2 JUMP JUMPDEST PUSH1 0x40 MLOAD DUP1 SWAP2 SUB SWAP1 REVERT JUMPDEST DUP1 PUSH1 0x40 MLOAD DUP1 PUSH1 0x80 ADD PUSH1 0x40 MSTORE DUP1 CALLER PUSH20 0xFFFFFFFFFFFFFFFFFFFFFFFFFFFFFFFFFFFFFFFF AND DUP2 MSTORE PUSH1 0x20 ADD CALLER PUSH20 0xFFFFFFFFFFFFFFFFFFFFFFFFFFFFFFFFFFFFFFFF AND DUP2 MSTORE PUSH1 0x20 ADD DUP6 DUP2 MSTORE PUSH1 0x20 ADD DUP5 DUP2 MSTORE POP SWAP1 DUP1 PUSH1 0x1 DUP2 SLOAD ADD DUP1 DUP3 SSTORE DUP1 SWAP2 POP POP PUSH1 0x1 SWAP1 SUB SWAP1 PUSH0 MSTORE PUSH1 0x20 PUSH0 KECCAK256 SWAP1 PUSH1 0x4 MUL ADD PUSH0 SWAP1 SWAP2 SWAP1 SWAP2 SWAP1 SWAP2 POP PUSH0 DUP3 ADD MLOAD DUP2 PUSH0 ADD PUSH0 PUSH2 0x100 EXP DUP2 SLOAD DUP2 PUSH20 0xFFFFFFFFFFFFFFFFFFFFFFFFFFFFFFFFFFFFFFFF MUL NOT AND SWAP1 DUP4 PUSH20 0xFFFFFFFFFFFFFFFFFFFFFFFFFFFFFFFFFFFFFFFF AND MUL OR SWAP1 SSTORE POP PUSH1 0x20 DUP3 ADD MLOAD DUP2 PUSH1 0x1 ADD PUSH0 PUSH2 0x100 EXP DUP2 SLOAD DUP2 PUSH20 0xFFFFFFFFFFFFFFFFFFFFFFFFFFFFFFFFFFFFFFFF MUL NOT AND SWAP1 DUP4 PUSH20 0xFFFFFFFFFFFFFFFFFFFFFFFFFFFFFFFFFFFFFFFF AND MUL OR SWAP1 SSTORE POP PUSH1 0x40 DUP3 ADD MLOAD DUP2 PUSH1 0x2 ADD SWAP1 DUP2 PUSH2 0xB56 SWAP2 SWAP1 PUSH2 0x1C6D JUMP JUMPDEST POP PUSH1 0x60 DUP3 ADD MLOAD DUP2 PUSH1 0x3 ADD SSTORE POP POP CALLER PUSH20 0xFFFFFFFFFFFFFFFFFFFFFFFFFFFFFFFFFFFFFFFF AND CALLER PUSH20 0xFFFFFFFFFFFFFFFFFFFFFFFFFFFFFFFFFFFFFFFF AND PUSH32 0xBD76F27E1208C8A9E9A5F16A40ED097AF527A3D0F72E7010CAB9EF3222609EA PUSH1 0x40 MLOAD PUSH1 0x40 MLOAD DUP1 SWAP2 SUB SWAP1 LOG3 POP POP POP JUMP JUMPDEST PUSH0 DUP1 SLOAD SWAP1 PUSH2 0x100 EXP SWAP1 DIV PUSH20 0xFFFFFFFFFFFFFFFFFFFFFFFFFFFFFFFFFFFFFFFF AND DUP2 JUMP JUMPDEST PUSH0 PUSH1 0x1 PUSH0 CALLER PUSH20 0xFFFFFFFFFFFFFFFFFFFFFFFFFFFFFFFFFFFFFFFF AND PUSH20 0xFFFFFFFFFFFFFFFFFFFFFFFFFFFFFFFFFFFFFFFF AND DUP2 MSTORE PUSH1 0x20 ADD SWAP1 DUP2 MSTORE PUSH1 0x20 ADD PUSH0 KECCAK256 SWAP1 POP PUSH0 DUP1 JUMPDEST DUP3 DUP1 SLOAD SWAP1 POP DUP2 LT ISZERO PUSH2 0xCBD JUMPI CALLER PUSH20 0xFFFFFFFFFFFFFFFFFFFFFFFFFFFFFFFFFFFFFFFF AND DUP4 DUP3 DUP2 SLOAD DUP2 LT PUSH2 0xC5E JUMPI PUSH2 0xC5D PUSH2 0x1880 JUMP JUMPDEST JUMPDEST SWAP1 PUSH0 MSTORE PUSH1 0x20 PUSH0 KECCAK256 SWAP1 PUSH1 0x4 MUL ADD PUSH0 ADD PUSH0 SWAP1 SLOAD SWAP1 PUSH2 0x100 EXP SWAP1 DIV PUSH20 0xFFFFFFFFFFFFFFFFFFFFFFFFFFFFFFFFFFFFFFFF AND PUSH20 0xFFFFFFFFFFFFFFFFFFFFFFFFFFFFFFFFFFFFFFFF AND SUB PUSH2 0xCB0 JUMPI PUSH1 0x1 SWAP2 POP PUSH2 0xCBD JUMP JUMPDEST DUP1 DUP1 PUSH1 0x1 ADD SWAP2 POP POP PUSH2 0xC28 JUMP JUMPDEST POP DUP1 PUSH2 0xCFE JUMPI PUSH1 0x40 MLOAD PUSH32 0x8C379A000000000000000000000000000000000000000000000000000000000 DUP2 MSTORE PUSH1 0x4 ADD PUSH2 0xCF5 SWAP1 PUSH2 0x18F7 JUMP JUMPDEST PUSH1 0x40 MLOAD DUP1 SWAP2 SUB SWAP1 REVERT JUMPDEST PUSH1 0x40 MLOAD DUP1 PUSH1 0xC0 ADD PUSH1 0x40 MSTORE DUP1 DUP7 PUSH20 0xFFFFFFFFFFFFFFFFFFFFFFFFFFFFFFFFFFFFFFFF AND DUP2 MSTORE PUSH1 0x20 ADD DUP8 PUSH20 0xFFFFFFFFFFFFFFFFFFFFFFFFFFFFFFFFFFFFFFFF AND DUP2 MSTORE PUSH1 0x20 ADD DUP6 DUP2 MSTORE PUSH1 0x20 ADD DUP5 DUP2 MSTORE PUSH1 0x20 ADD PUSH0 ISZERO ISZERO DUP2 MSTORE PUSH1 0x20 ADD PUSH0 ISZERO ISZERO DUP2 MSTORE POP PUSH1 0x2 PUSH0 DUP9 PUSH20 0xFFFFFFFFFFFFFFFFFFFFFFFFFFFFFFFFFFFFFFFF AND PUSH20 0xFFFFFFFFFFFFFFFFFFFFFFFFFFFFFFFFFFFFFFFF AND DUP2 MSTORE PUSH1 0x20 ADD SWAP1 DUP2 MSTORE PUSH1 0x20 ADD PUSH0 KECCAK256 PUSH0 DUP8 PUSH20 0xFFFFFFFFFFFFFFFFFFFFFFFFFFFFFFFFFFFFFFFF AND PUSH20 0xFFFFFFFFFFFFFFFFFFFFFFFFFFFFFFFFFFFFFFFF AND DUP2 MSTORE PUSH1 0x20 ADD SWAP1 DUP2 MSTORE PUSH1 0x20 ADD PUSH0 KECCAK256 PUSH0 DUP3 ADD MLOAD DUP2 PUSH0 ADD PUSH0 PUSH2 0x100 EXP DUP2 SLOAD DUP2 PUSH20 0xFFFFFFFFFFFFFFFFFFFFFFFFFFFFFFFFFFFFFFFF MUL NOT AND SWAP1 DUP4 PUSH20 0xFFFFFFFFFFFFFFFFFFFFFFFFFFFFFFFFFFFFFFFF AND MUL OR SWAP1 SSTORE POP PUSH1 0x20 DUP3 ADD MLOAD DUP2 PUSH1 0x1 ADD PUSH0 PUSH2 0x100 EXP DUP2 SLOAD DUP2 PUSH20 0xFFFFFFFFFFFFFFFFFFFFFFFFFFFFFFFFFFFFFFFF MUL NOT AND SWAP1 DUP4 PUSH20 0xFFFFFFFFFFFFFFFFFFFFFFFFFFFFFFFFFFFFFFFF AND MUL OR SWAP1 SSTORE POP PUSH1 0x40 DUP3 ADD MLOAD DUP2 PUSH1 0x2 ADD SSTORE PUSH1 0x60 DUP3 ADD MLOAD DUP2 PUSH1 0x3 ADD SSTORE PUSH1 0x80 DUP3 ADD MLOAD DUP2 PUSH1 0x4 ADD PUSH0 PUSH2 0x100 EXP DUP2 SLOAD DUP2 PUSH1 0xFF MUL NOT AND SWAP1 DUP4 ISZERO ISZERO MUL OR SWAP1 SSTORE POP PUSH1 0xA0 DUP3 ADD MLOAD DUP2 PUSH1 0x4 ADD PUSH1 0x1 PUSH2 0x100 EXP DUP2 SLOAD DUP2 PUSH1 0xFF MUL NOT AND SWAP1 DUP4 ISZERO ISZERO MUL OR SWAP1 SSTORE POP SWAP1 POP POP DUP6 PUSH20 0xFFFFFFFFFFFFFFFFFFFFFFFFFFFFFFFFFFFFFFFF AND DUP6 PUSH20 0xFFFFFFFFFFFFFFFFFFFFFFFFFFFFFFFFFFFFFFFF AND PUSH32 0x7DCFA7E41768E0150F76EEE8F7C57FE4AB9677539AF958EEDA0E00B8A5CF2D67 PUSH1 0x40 MLOAD PUSH1 0x40 MLOAD DUP1 SWAP2 SUB SWAP1 LOG3 POP POP POP POP POP POP JUMP JUMPDEST PUSH0 PUSH1 0x2 PUSH0 DUP4 PUSH20 0xFFFFFFFFFFFFFFFFFFFFFFFFFFFFFFFFFFFFFFFF AND PUSH20 0xFFFFFFFFFFFFFFFFFFFFFFFFFFFFFFFFFFFFFFFF AND DUP2 MSTORE PUSH1 0x20 ADD SWAP1 DUP2 MSTORE PUSH1 0x20 ADD PUSH0 KECCAK256 PUSH0 CALLER PUSH20 0xFFFFFFFFFFFFFFFFFFFFFFFFFFFFFFFFFFFFFFFF AND PUSH20 0xFFFFFFFFFFFFFFFFFFFFFFFFFFFFFFFFFFFFFFFF AND DUP2 MSTORE PUSH1 0x20 ADD SWAP1 DUP2 MSTORE PUSH1 0x20 ADD PUSH0 KECCAK256 SWAP1 POP DUP1 PUSH1 0x4 ADD PUSH0 SWAP1 SLOAD SWAP1 PUSH2 0x100 EXP SWAP1 DIV PUSH1 0xFF AND ISZERO PUSH2 0xFE1 JUMPI PUSH1 0x40 MLOAD PUSH32 0x8C379A000000000000000000000000000000000000000000000000000000000 DUP2 MSTORE PUSH1 0x4 ADD PUSH2 0xFD8 SWAP1 PUSH2 0x1D86 JUMP JUMPDEST PUSH1 0x40 MLOAD DUP1 SWAP2 SUB SWAP1 REVERT JUMPDEST PUSH1 0x1 DUP2 PUSH1 0x4 ADD PUSH0 PUSH2 0x100 EXP DUP2 SLOAD DUP2 PUSH1 0xFF MUL NOT AND SWAP1 DUP4 ISZERO ISZERO MUL OR SWAP1 SSTORE POP PUSH0 DUP2 PUSH1 0x4 ADD PUSH1 0x1 PUSH2 0x100 EXP DUP2 SLOAD DUP2 PUSH1 0xFF MUL NOT AND SWAP1 DUP4 ISZERO ISZERO MUL OR SWAP1 SSTORE POP POP POP JUMP JUMPDEST PUSH0 DUP1 PUSH0 DUP1 PUSH0 DUP1 PUSH0 PUSH1 0x2 PUSH0 DUP11 PUSH20 0xFFFFFFFFFFFFFFFFFFFFFFFFFFFFFFFFFFFFFFFF AND PUSH20 0xFFFFFFFFFFFFFFFFFFFFFFFFFFFFFFFFFFFFFFFF AND DUP2 MSTORE PUSH1 0x20 ADD SWAP1 DUP2 MSTORE PUSH1 0x20 ADD PUSH0 KECCAK256 PUSH0 DUP10 PUSH20 0xFFFFFFFFFFFFFFFFFFFFFFFFFFFFFFFFFFFFFFFF AND PUSH20 0xFFFFFFFFFFFFFFFFFFFFFFFFFFFFFFFFFFFFFFFF AND DUP2 MSTORE PUSH1 0x20 ADD SWAP1 DUP2 MSTORE PUSH1 0x20 ADD PUSH0 KECCAK256 PUSH1 0x40 MLOAD DUP1 PUSH1 0xC0 ADD PUSH1 0x40 MSTORE SWAP1 DUP2 PUSH0 DUP3 ADD PUSH0 SWAP1 SLOAD SWAP1 PUSH2 0x100 EXP SWAP1 DIV PUSH20 0xFFFFFFFFFFFFFFFFFFFFFFFFFFFFFFFFFFFFFFFF AND PUSH20 0xFFFFFFFFFFFFFFFFFFFFFFFFFFFFFFFFFFFFFFFF AND PUSH20 0xFFFFFFFFFFFFFFFFFFFFFFFFFFFFFFFFFFFFFFFF AND DUP2 MSTORE PUSH1 0x20 ADD PUSH1 0x1 DUP3 ADD PUSH0 SWAP1 SLOAD SWAP1 PUSH2 0x100 EXP SWAP1 DIV PUSH20 0xFFFFFFFFFFFFFFFFFFFFFFFFFFFFFFFFFFFFFFFF AND PUSH20 0xFFFFFFFFFFFFFFFFFFFFFFFFFFFFFFFFFFFFFFFF AND PUSH20 0xFFFFFFFFFFFFFFFFFFFFFFFFFFFFFFFFFFFFFFFF AND DUP2 MSTORE PUSH1 0x20 ADD PUSH1 0x2 DUP3 ADD SLOAD DUP2 MSTORE PUSH1 0x20 ADD PUSH1 0x3 DUP3 ADD SLOAD DUP2 MSTORE PUSH1 0x20 ADD PUSH1 0x4 DUP3 ADD PUSH0 SWAP1 SLOAD SWAP1 PUSH2 0x100 EXP SWAP1 DIV PUSH1 0xFF AND ISZERO ISZERO ISZERO ISZERO DUP2 MSTORE PUSH1 0x20 ADD PUSH1 0x4 DUP3 ADD PUSH1 0x1 SWAP1 SLOAD SWAP1 PUSH2 0x100 EXP SWAP1 DIV PUSH1 0xFF AND ISZERO ISZERO ISZERO ISZERO DUP2 MSTORE POP POP SWAP1 POP DUP1 PUSH0 ADD MLOAD DUP2 PUSH1 0x20 ADD MLOAD DUP3 PUSH1 0x40 ADD MLOAD DUP4 PUSH1 0x60 ADD MLOAD DUP5 PUSH1 0x80 ADD MLOAD DUP6 PUSH1 0xA0 ADD MLOAD SWAP7 POP SWAP7 POP SWAP7 POP SWAP7 POP SWAP7 POP SWAP7 POP POP SWAP3 SWAP6 POP SWAP3 SWAP6 POP SWAP3 SWAP6 JUMP JUMPDEST PUSH1 0x1 PUSH0 CALLER PUSH20 0xFFFFFFFFFFFFFFFFFFFFFFFFFFFFFFFFFFFFFFFF AND PUSH20 0xFFFFFFFFFFFFFFFFFFFFFFFFFFFFFFFFFFFFFFFF AND DUP2 MSTORE PUSH1 0x20 ADD SWAP1 DUP2 MSTORE PUSH1 0x20 ADD PUSH0 KECCAK256 PUSH1 0x40 MLOAD DUP1 PUSH1 0x80 ADD PUSH1 0x40 MSTORE DUP1 CALLER PUSH20 0xFFFFFFFFFFFFFFFFFFFFFFFFFFFFFFFFFFFFFFFF AND DUP2 MSTORE PUSH1 0x20 ADD CALLER PUSH20 0xFFFFFFFFFFFFFFFFFFFFFFFFFFFFFFFFFFFFFFFF AND DUP2 MSTORE PUSH1 0x20 ADD DUP5 DUP2 MSTORE PUSH1 0x20 ADD DUP4 DUP2 MSTORE POP SWAP1 DUP1 PUSH1 0x1 DUP2 SLOAD ADD DUP1 DUP3 SSTORE DUP1 SWAP2 POP POP PUSH1 0x1 SWAP1 SUB SWAP1 PUSH0 MSTORE PUSH1 0x20 PUSH0 KECCAK256 SWAP1 PUSH1 0x4 MUL ADD PUSH0 SWAP1 SWAP2 SWAP1 SWAP2 SWAP1 SWAP2 POP PUSH0 DUP3 ADD MLOAD DUP2 PUSH0 ADD PUSH0 PUSH2 0x100 EXP DUP2 SLOAD DUP2 PUSH20 0xFFFFFFFFFFFFFFFFFFFFFFFFFFFFFFFFFFFFFFFF MUL NOT AND SWAP1 DUP4 PUSH20 0xFFFFFFFFFFFFFFFFFFFFFFFFFFFFFFFFFFFFFFFF AND MUL OR SWAP1 SSTORE POP PUSH1 0x20 DUP3 ADD MLOAD DUP2 PUSH1 0x1 ADD PUSH0 PUSH2 0x100 EXP DUP2 SLOAD DUP2 PUSH20 0xFFFFFFFFFFFFFFFFFFFFFFFFFFFFFFFFFFFFFFFF MUL NOT AND SWAP1 DUP4 PUSH20 0xFFFFFFFFFFFFFFFFFFFFFFFFFFFFFFFFFFFFFFFF AND MUL OR SWAP1 SSTORE POP PUSH1 0x40 DUP3 ADD MLOAD DUP2 PUSH1 0x2 ADD SWAP1 DUP2 PUSH2 0x131E SWAP2 SWAP1 PUSH2 0x1C6D JUMP JUMPDEST POP PUSH1 0x60 DUP3 ADD MLOAD DUP2 PUSH1 0x3 ADD SSTORE POP POP CALLER PUSH20 0xFFFFFFFFFFFFFFFFFFFFFFFFFFFFFFFFFFFFFFFF AND CALLER PUSH20 0xFFFFFFFFFFFFFFFFFFFFFFFFFFFFFFFFFFFFFFFF AND PUSH32 0xBD76F27E1208C8A9E9A5F16A40ED097AF527A3D0F72E7010CAB9EF3222609EA PUSH1 0x40 MLOAD PUSH1 0x40 MLOAD DUP1 SWAP2 SUB SWAP1 LOG3 POP POP JUMP JUMPDEST PUSH0 PUSH1 0x40 MLOAD SWAP1 POP SWAP1 JUMP JUMPDEST PUSH0 DUP1 REVERT JUMPDEST PUSH0 DUP1 REVERT JUMPDEST PUSH0 PUSH20 0xFFFFFFFFFFFFFFFFFFFFFFFFFFFFFFFFFFFFFFFF DUP3 AND SWAP1 POP SWAP2 SWAP1 POP JUMP JUMPDEST PUSH0 PUSH2 0x13C3 DUP3 PUSH2 0x139A JUMP JUMPDEST SWAP1 POP SWAP2 SWAP1 POP JUMP JUMPDEST PUSH2 0x13D3 DUP2 PUSH2 0x13B9 JUMP JUMPDEST DUP2 EQ PUSH2 0x13DD JUMPI PUSH0 DUP1 REVERT JUMPDEST POP JUMP JUMPDEST PUSH0 DUP2 CALLDATALOAD SWAP1 POP PUSH2 0x13EE DUP2 PUSH2 0x13CA JUMP JUMPDEST SWAP3 SWAP2 POP POP JUMP JUMPDEST PUSH0 PUSH1 0x20 DUP3 DUP5 SUB SLT ISZERO PUSH2 0x1409 JUMPI PUSH2 0x1408 PUSH2 0x1392 JUMP JUMPDEST JUMPDEST PUSH0 PUSH2 0x1416 DUP5 DUP3 DUP6 ADD PUSH2 0x13E0 JUMP JUMPDEST SWAP2 POP POP SWAP3 SWAP2 POP POP JUMP JUMPDEST PUSH0 DUP2 SWAP1 POP SWAP2 SWAP1 POP JUMP JUMPDEST PUSH2 0x1431 DUP2 PUSH2 0x141F JUMP JUMPDEST DUP2 EQ PUSH2 0x143B JUMPI PUSH0 DUP1 REVERT JUMPDEST POP JUMP JUMPDEST PUSH0 DUP2 CALLDATALOAD SWAP1 POP PUSH2 0x144C DUP2 PUSH2 0x1428 JUMP JUMPDEST SWAP3 SWAP2 POP POP JUMP JUMPDEST PUSH0 PUSH1 0x20 DUP3 DUP5 SUB SLT ISZERO PUSH2 0x1467 JUMPI PUSH2 0x1466 PUSH2 0x1392 JUMP JUMPDEST JUMPDEST PUSH0 PUSH2 0x1474 DUP5 DUP3 DUP6 ADD PUSH2 0x143E JUMP JUMPDEST SWAP2 POP POP SWAP3 SWAP2 POP POP JUMP JUMPDEST PUSH2 0x1486 DUP2 PUSH2 0x13B9 JUMP JUMPDEST DUP3 MSTORE POP POP JUMP JUMPDEST PUSH0 DUP2 MLOAD SWAP1 POP SWAP2 SWAP1 POP JUMP JUMPDEST PUSH0 DUP3 DUP3 MSTORE PUSH1 0x20 DUP3 ADD SWAP1 POP SWAP3 SWAP2 POP POP JUMP JUMPDEST PUSH0 JUMPDEST DUP4 DUP2 LT ISZERO PUSH2 0x14C3 JUMPI DUP1 DUP3 ADD MLOAD DUP2 DUP5 ADD MSTORE PUSH1 0x20 DUP2 ADD SWAP1 POP PUSH2 0x14A8 JUMP JUMPDEST PUSH0 DUP5 DUP5 ADD MSTORE POP POP POP POP JUMP JUMPDEST PUSH0 PUSH1 0x1F NOT PUSH1 0x1F DUP4 ADD AND SWAP1 POP SWAP2 SWAP1 POP JUMP JUMPDEST PUSH0 PUSH2 0x14E8 DUP3 PUSH2 0x148C JUMP JUMPDEST PUSH2 0x14F2 DUP2 DUP6 PUSH2 0x1496 JUMP JUMPDEST SWAP4 POP PUSH2 0x1502 DUP2 DUP6 PUSH1 0x20 DUP7 ADD PUSH2 0x14A6 JUMP JUMPDEST PUSH2 0x150B DUP2 PUSH2 0x14CE JUMP JUMPDEST DUP5 ADD SWAP2 POP POP SWAP3 SWAP2 POP POP JUMP JUMPDEST PUSH2 0x151F DUP2 PUSH2 0x141F JUMP JUMPDEST DUP3 MSTORE POP POP JUMP JUMPDEST PUSH0 PUSH1 0x80 DUP3 ADD SWAP1 POP PUSH2 0x1538 PUSH0 DUP4 ADD DUP8 PUSH2 0x147D JUMP JUMPDEST PUSH2 0x1545 PUSH1 0x20 DUP4 ADD DUP7 PUSH2 0x147D JUMP JUMPDEST DUP2 DUP2 SUB PUSH1 0x40 DUP4 ADD MSTORE PUSH2 0x1557 DUP2 DUP6 PUSH2 0x14DE JUMP JUMPDEST SWAP1 POP PUSH2 0x1566 PUSH1 0x60 DUP4 ADD DUP5 PUSH2 0x1516 JUMP JUMPDEST SWAP6 SWAP5 POP POP POP POP POP JUMP JUMPDEST PUSH0 DUP1 PUSH1 0x40 DUP4 DUP6 SUB SLT ISZERO PUSH2 0x1585 JUMPI PUSH2 0x1584 PUSH2 0x1392 JUMP JUMPDEST JUMPDEST PUSH0 PUSH2 0x1592 DUP6 DUP3 DUP7 ADD PUSH2 0x13E0 JUMP JUMPDEST SWAP3 POP POP PUSH1 0x20 PUSH2 0x15A3 DUP6 DUP3 DUP7 ADD PUSH2 0x143E JUMP JUMPDEST SWAP2 POP POP SWAP3 POP SWAP3 SWAP1 POP JUMP JUMPDEST PUSH0 DUP1 PUSH1 0x40 DUP4 DUP6 SUB SLT ISZERO PUSH2 0x15C3 JUMPI PUSH2 0x15C2 PUSH2 0x1392 JUMP JUMPDEST JUMPDEST PUSH0 PUSH2 0x15D0 DUP6 DUP3 DUP7 ADD PUSH2 0x13E0 JUMP JUMPDEST SWAP3 POP POP PUSH1 0x20 PUSH2 0x15E1 DUP6 DUP3 DUP7 ADD PUSH2 0x13E0 JUMP JUMPDEST SWAP2 POP POP SWAP3 POP SWAP3 SWAP1 POP JUMP JUMPDEST PUSH0 DUP2 ISZERO ISZERO SWAP1 POP SWAP2 SWAP1 POP JUMP JUMPDEST PUSH2 0x15FF DUP2 PUSH2 0x15EB JUMP JUMPDEST DUP3 MSTORE POP POP JUMP JUMPDEST PUSH0 PUSH1 0xC0 DUP3 ADD SWAP1 POP PUSH2 0x1618 PUSH0 DUP4 ADD DUP10 PUSH2 0x147D JUMP JUMPDEST PUSH2 0x1625 PUSH1 0x20 DUP4 ADD DUP9 PUSH2 0x147D JUMP JUMPDEST PUSH2 0x1632 PUSH1 0x40 DUP4 ADD DUP8 PUSH2 0x1516 JUMP JUMPDEST PUSH2 0x163F PUSH1 0x60 DUP4 ADD DUP7 PUSH2 0x1516 JUMP JUMPDEST PUSH2 0x164C PUSH1 0x80 DUP4 ADD DUP6 PUSH2 0x15F6 JUMP JUMPDEST PUSH2 0x1659 PUSH1 0xA0 DUP4 ADD DUP5 PUSH2 0x15F6 JUMP JUMPDEST SWAP8 SWAP7 POP POP POP POP POP POP POP JUMP JUMPDEST PUSH0 PUSH1 0x20 DUP3 ADD SWAP1 POP PUSH2 0x1677 PUSH0 DUP4 ADD DUP5 PUSH2 0x1516 JUMP JUMPDEST SWAP3 SWAP2 POP POP JUMP JUMPDEST PUSH0 DUP1 REVERT JUMPDEST PUSH0 DUP1 REVERT JUMPDEST PUSH32 0x4E487B7100000000000000000000000000000000000000000000000000000000 PUSH0 MSTORE PUSH1 0x41 PUSH1 0x4 MSTORE PUSH1 0x24 PUSH0 REVERT JUMPDEST PUSH2 0x16BB DUP3 PUSH2 0x14CE JUMP JUMPDEST DUP2 ADD DUP2 DUP2 LT PUSH8 0xFFFFFFFFFFFFFFFF DUP3 GT OR ISZERO PUSH2 0x16DA JUMPI PUSH2 0x16D9 PUSH2 0x1685 JUMP JUMPDEST JUMPDEST DUP1 PUSH1 0x40 MSTORE POP POP POP JUMP JUMPDEST PUSH0 PUSH2 0x16EC PUSH2 0x1389 JUMP JUMPDEST SWAP1 POP PUSH2 0x16F8 DUP3 DUP3 PUSH2 0x16B2 JUMP JUMPDEST SWAP2 SWAP1 POP JUMP JUMPDEST PUSH0 PUSH8 0xFFFFFFFFFFFFFFFF DUP3 GT ISZERO PUSH2 0x1717 JUMPI PUSH2 0x1716 PUSH2 0x1685 JUMP JUMPDEST JUMPDEST PUSH2 0x1720 DUP3 PUSH2 0x14CE JUMP JUMPDEST SWAP1 POP PUSH1 0x20 DUP2 ADD SWAP1 POP SWAP2 SWAP1 POP JUMP JUMPDEST DUP3 DUP2 DUP4 CALLDATACOPY PUSH0 DUP4 DUP4 ADD MSTORE POP POP POP JUMP JUMPDEST PUSH0 PUSH2 0x174D PUSH2 0x1748 DUP5 PUSH2 0x16FD JUMP JUMPDEST PUSH2 0x16E3 JUMP JUMPDEST SWAP1 POP DUP3 DUP2 MSTORE PUSH1 0x20 DUP2 ADD DUP5 DUP5 DUP5 ADD GT ISZERO PUSH2 0x1769 JUMPI PUSH2 0x1768 PUSH2 0x1681 JUMP JUMPDEST JUMPDEST PUSH2 0x1774 DUP5 DUP3 DUP6 PUSH2 0x172D JUMP JUMPDEST POP SWAP4 SWAP3 POP POP POP JUMP JUMPDEST PUSH0 DUP3 PUSH1 0x1F DUP4 ADD SLT PUSH2 0x1790 JUMPI PUSH2 0x178F PUSH2 0x167D JUMP JUMPDEST JUMPDEST DUP2 CALLDATALOAD PUSH2 0x17A0 DUP5 DUP3 PUSH1 0x20 DUP7 ADD PUSH2 0x173B JUMP JUMPDEST SWAP2 POP POP SWAP3 SWAP2 POP POP JUMP JUMPDEST PUSH0 DUP1 PUSH1 0x40 DUP4 DUP6 SUB SLT ISZERO PUSH2 0x17BF JUMPI PUSH2 0x17BE PUSH2 0x1392 JUMP JUMPDEST JUMPDEST PUSH0 DUP4 ADD CALLDATALOAD PUSH8 0xFFFFFFFFFFFFFFFF DUP2 GT ISZERO PUSH2 0x17DC JUMPI PUSH2 0x17DB PUSH2 0x1396 JUMP JUMPDEST JUMPDEST PUSH2 0x17E8 DUP6 DUP3 DUP7 ADD PUSH2 0x177C JUMP JUMPDEST SWAP3 POP POP PUSH1 0x20 PUSH2 0x17F9 DUP6 DUP3 DUP7 ADD PUSH2 0x143E JUMP JUMPDEST SWAP2 POP POP SWAP3 POP SWAP3 SWAP1 POP JUMP JUMPDEST PUSH0 PUSH1 0x20 DUP3 ADD SWAP1 POP PUSH2 0x1816 PUSH0 DUP4 ADD DUP5 PUSH2 0x147D JUMP JUMPDEST SWAP3 SWAP2 POP POP JUMP JUMPDEST PUSH0 DUP1 PUSH0 DUP1 PUSH1 0x80 DUP6 DUP8 SUB SLT ISZERO PUSH2 0x1834 JUMPI PUSH2 0x1833 PUSH2 0x1392 JUMP JUMPDEST JUMPDEST PUSH0 PUSH2 0x1841 DUP8 DUP3 DUP9 ADD PUSH2 0x13E0 JUMP JUMPDEST SWAP5 POP POP PUSH1 0x20 PUSH2 0x1852 DUP8 DUP3 DUP9 ADD PUSH2 0x13E0 JUMP JUMPDEST SWAP4 POP POP PUSH1 0x40 PUSH2 0x1863 DUP8 DUP3 DUP9 ADD PUSH2 0x143E JUMP JUMPDEST SWAP3 POP POP PUSH1 0x60 PUSH2 0x1874 DUP8 DUP3 DUP9 ADD PUSH2 0x143E JUMP JUMPDEST SWAP2 POP POP SWAP3 SWAP6 SWAP2 SWAP5 POP SWAP3 POP JUMP JUMPDEST PUSH32 0x4E487B7100000000000000000000000000000000000000000000000000000000 PUSH0 MSTORE PUSH1 0x32 PUSH1 0x4 MSTORE PUSH1 0x24 PUSH0 REVERT JUMPDEST PUSH32 0x4E6F74207468652070726F7065727479206F776E657200000000000000000000 PUSH0 DUP3 ADD MSTORE POP JUMP JUMPDEST PUSH0 PUSH2 0x18E1 PUSH1 0x16 DUP4 PUSH2 0x1496 JUMP JUMPDEST SWAP2 POP PUSH2 0x18EC DUP3 PUSH2 0x18AD JUMP JUMPDEST PUSH1 0x20 DUP3 ADD SWAP1 POP SWAP2 SWAP1 POP JUMP JUMPDEST PUSH0 PUSH1 0x20 DUP3 ADD SWAP1 POP DUP2 DUP2 SUB PUSH0 DUP4 ADD MSTORE PUSH2 0x190E DUP2 PUSH2 0x18D5 JUMP JUMPDEST SWAP1 POP SWAP2 SWAP1 POP JUMP JUMPDEST PUSH32 0x54656E616E7420686173206E6F7420726571756573746564207465726D696E61 PUSH0 DUP3 ADD MSTORE PUSH32 0x74696F6E00000000000000000000000000000000000000000000000000000000 PUSH1 0x20 DUP3 ADD MSTORE POP JUMP JUMPDEST PUSH0 PUSH2 0x196F PUSH1 0x24 DUP4 PUSH2 0x1496 JUMP JUMPDEST SWAP2 POP PUSH2 0x197A DUP3 PUSH2 0x1915 JUMP JUMPDEST PUSH1 0x40 DUP3 ADD SWAP1 POP SWAP2 SWAP1 POP JUMP JUMPDEST PUSH0 PUSH1 0x20 DUP3 ADD SWAP1 POP DUP2 DUP2 SUB PUSH0 DUP4 ADD MSTORE PUSH2 0x199C DUP2 PUSH2 0x1963 JUMP JUMPDEST SWAP1 POP SWAP2 SWAP1 POP JUMP JUMPDEST PUSH32 0x496E76616C69642070726F706572747920696E64657800000000000000000000 PUSH0 DUP3 ADD MSTORE POP JUMP JUMPDEST PUSH0 PUSH2 0x19D7 PUSH1 0x16 DUP4 PUSH2 0x1496 JUMP JUMPDEST SWAP2 POP PUSH2 0x19E2 DUP3 PUSH2 0x19A3 JUMP JUMPDEST PUSH1 0x20 DUP3 ADD SWAP1 POP SWAP2 SWAP1 POP JUMP JUMPDEST PUSH0 PUSH1 0x20 DUP3 ADD SWAP1 POP DUP2 DUP2 SUB PUSH0 DUP4 ADD MSTORE PUSH2 0x1A04 DUP2 PUSH2 0x19CB JUMP JUMPDEST SWAP1 POP SWAP2 SWAP1 POP JUMP JUMPDEST PUSH32 0x4E487B7100000000000000000000000000000000000000000000000000000000 PUSH0 MSTORE PUSH1 0x22 PUSH1 0x4 MSTORE PUSH1 0x24 PUSH0 REVERT JUMPDEST PUSH0 PUSH1 0x2 DUP3 DIV SWAP1 POP PUSH1 0x1 DUP3 AND DUP1 PUSH2 0x1A4F JUMPI PUSH1 0x7F DUP3 AND SWAP2 POP JUMPDEST PUSH1 0x20 DUP3 LT DUP2 SUB PUSH2 0x1A62 JUMPI PUSH2 0x1A61 PUSH2 0x1A0B JUMP JUMPDEST JUMPDEST POP SWAP2 SWAP1 POP JUMP JUMPDEST PUSH32 0x50726F706572747920616C726561647920726567697374657265640000000000 PUSH0 DUP3 ADD MSTORE POP JUMP JUMPDEST PUSH0 PUSH2 0x1A9C PUSH1 0x1B DUP4 PUSH2 0x1496 JUMP JUMPDEST SWAP2 POP PUSH2 0x1AA7 DUP3 PUSH2 0x1A68 JUMP JUMPDEST PUSH1 0x20 DUP3 ADD SWAP1 POP SWAP2 SWAP1 POP JUMP JUMPDEST PUSH0 PUSH1 0x20 DUP3 ADD SWAP1 POP DUP2 DUP2 SUB PUSH0 DUP4 ADD MSTORE PUSH2 0x1AC9 DUP2 PUSH2 0x1A90 JUMP JUMPDEST SWAP1 POP SWAP2 SWAP1 POP JUMP JUMPDEST PUSH0 DUP2 SWAP1 POP DUP2 PUSH0 MSTORE PUSH1 0x20 PUSH0 KECCAK256 SWAP1 POP SWAP2 SWAP1 POP JUMP JUMPDEST PUSH0 PUSH1 0x20 PUSH1 0x1F DUP4 ADD DIV SWAP1 POP SWAP2 SWAP1 POP JUMP JUMPDEST PUSH0 DUP3 DUP3 SHL SWAP1 POP SWAP3 SWAP2 POP POP JUMP JUMPDEST PUSH0 PUSH1 0x8 DUP4 MUL PUSH2 0x1B2C PUSH32 0xFFFFFFFFFFFFFFFFFFFFFFFFFFFFFFFFFFFFFFFFFFFFFFFFFFFFFFFFFFFFFFFF DUP3 PUSH2 0x1AF1 JUMP JUMPDEST PUSH2 0x1B36 DUP7 DUP4 PUSH2 0x1AF1 JUMP JUMPDEST SWAP6 POP DUP1 NOT DUP5 AND SWAP4 POP DUP1 DUP7 AND DUP5 OR SWAP3 POP POP POP SWAP4 SWAP3 POP POP POP JUMP JUMPDEST PUSH0 DUP2 SWAP1 POP SWAP2 SWAP1 POP JUMP JUMPDEST PUSH0 PUSH2 0x1B71 PUSH2 0x1B6C PUSH2 0x1B67 DUP5 PUSH2 0x141F JUMP JUMPDEST PUSH2 0x1B4E JUMP JUMPDEST PUSH2 0x141F JUMP JUMPDEST SWAP1 POP SWAP2 SWAP1 POP JUMP JUMPDEST PUSH0 DUP2 SWAP1 POP SWAP2 SWAP1 POP JUMP JUMPDEST PUSH2 0x1B8A DUP4 PUSH2 0x1B57 JUMP JUMPDEST PUSH2 0x1B9E PUSH2 0x1B96 DUP3 PUSH2 0x1B78 JUMP JUMPDEST DUP5 DUP5 SLOAD PUSH2 0x1AFD JUMP JUMPDEST DUP3 SSTORE POP POP POP POP JUMP JUMPDEST PUSH0 SWAP1 JUMP JUMPDEST PUSH2 0x1BB2 PUSH2 0x1BA6 JUMP JUMPDEST PUSH2 0x1BBD DUP2 DUP5 DUP5 PUSH2 0x1B81 JUMP JUMPDEST POP POP POP JUMP JUMPDEST JUMPDEST DUP2 DUP2 LT ISZERO PUSH2 0x1BE0 JUMPI PUSH2 0x1BD5 PUSH0 DUP3 PUSH2 0x1BAA JUMP JUMPDEST PUSH1 0x1 DUP2 ADD SWAP1 POP PUSH2 0x1BC3 JUMP JUMPDEST POP POP JUMP JUMPDEST PUSH1 0x1F DUP3 GT ISZERO PUSH2 0x1C25 JUMPI PUSH2 0x1BF6 DUP2 PUSH2 0x1AD0 JUMP JUMPDEST PUSH2 0x1BFF DUP5 PUSH2 0x1AE2 JUMP JUMPDEST DUP2 ADD PUSH1 0x20 DUP6 LT ISZERO PUSH2 0x1C0E JUMPI DUP2 SWAP1 POP JUMPDEST PUSH2 0x1C22 PUSH2 0x1C1A DUP6 PUSH2 0x1AE2 JUMP JUMPDEST DUP4 ADD DUP3 PUSH2 0x1BC2 JUMP JUMPDEST POP POP JUMPDEST POP POP POP JUMP JUMPDEST PUSH0 DUP3 DUP3 SHR SWAP1 POP SWAP3 SWAP2 POP POP JUMP JUMPDEST PUSH0 PUSH2 0x1C45 PUSH0 NOT DUP5 PUSH1 0x8 MUL PUSH2 0x1C2A JUMP JUMPDEST NOT DUP1 DUP4 AND SWAP2 POP POP SWAP3 SWAP2 POP POP JUMP JUMPDEST PUSH0 PUSH2 0x1C5D DUP4 DUP4 PUSH2 0x1C36 JUMP JUMPDEST SWAP2 POP DUP3 PUSH1 0x2 MUL DUP3 OR SWAP1 POP SWAP3 SWAP2 POP POP JUMP JUMPDEST PUSH2 0x1C76 DUP3 PUSH2 0x148C JUMP JUMPDEST PUSH8 0xFFFFFFFFFFFFFFFF DUP2 GT ISZERO PUSH2 0x1C8F JUMPI PUSH2 0x1C8E PUSH2 0x1685 JUMP JUMPDEST JUMPDEST PUSH2 0x1C99 DUP3 SLOAD PUSH2 0x1A38 JUMP JUMPDEST PUSH2 0x1CA4 DUP3 DUP3 DUP6 PUSH2 0x1BE4 JUMP JUMPDEST PUSH0 PUSH1 0x20 SWAP1 POP PUSH1 0x1F DUP4 GT PUSH1 0x1 DUP2 EQ PUSH2 0x1CD5 JUMPI PUSH0 DUP5 ISZERO PUSH2 0x1CC3 JUMPI DUP3 DUP8 ADD MLOAD SWAP1 POP JUMPDEST PUSH2 0x1CCD DUP6 DUP3 PUSH2 0x1C52 JUMP JUMPDEST DUP7 SSTORE POP PUSH2 0x1D34 JUMP JUMPDEST PUSH1 0x1F NOT DUP5 AND PUSH2 0x1CE3 DUP7 PUSH2 0x1AD0 JUMP JUMPDEST PUSH0 JUMPDEST DUP3 DUP2 LT ISZERO PUSH2 0x1D0A JUMPI DUP5 DUP10 ADD MLOAD DUP3 SSTORE PUSH1 0x1 DUP3 ADD SWAP2 POP PUSH1 0x20 DUP6 ADD SWAP5 POP PUSH1 0x20 DUP2 ADD SWAP1 POP PUSH2 0x1CE5 JUMP JUMPDEST DUP7 DUP4 LT ISZERO PUSH2 0x1D27 JUMPI DUP5 DUP10 ADD MLOAD PUSH2 0x1D23 PUSH1 0x1F DUP10 AND DUP3 PUSH2 0x1C36 JUMP JUMPDEST DUP4 SSTORE POP JUMPDEST PUSH1 0x1 PUSH1 0x2 DUP9 MUL ADD DUP9 SSTORE POP POP POP JUMPDEST POP POP POP POP POP POP JUMP JUMPDEST PUSH32 0x436F6E747261637420616C7265616479207465726D696E617465640000000000 PUSH0 DUP3 ADD MSTORE POP JUMP JUMPDEST PUSH0 PUSH2 0x1D70 PUSH1 0x1B DUP4 PUSH2 0x1496 JUMP JUMPDEST SWAP2 POP PUSH2 0x1D7B DUP3 PUSH2 0x1D3C JUMP JUMPDEST PUSH1 0x20 DUP3 ADD SWAP1 POP SWAP2 SWAP1 POP JUMP JUMPDEST PUSH0 PUSH1 0x20 DUP3 ADD SWAP1 POP DUP2 DUP2 SUB PUSH0 DUP4 ADD MSTORE PUSH2 0x1D9D DUP2 PUSH2 0x1D64 JUMP JUMPDEST SWAP1 POP SWAP2 SWAP1 POP JUMP INVALID LOG2 PUSH5 0x6970667358 0x22 SLT KECCAK256 0x28 0xC2 SWAP5 DUP12 DUP10 0x2D 0xA6 0xBD STATICCALL DUP1 EQ 0xC1 TIMESTAMP 0x5C 0xEF MOD PUSH28 0x8BB90187436D48071B19E647D5847564736F6C634300081600330000 "
				},
				"gasEstimates": {
					"creation": {
						"codeDepositCost": "1528400",
						"executionCost": "25859",
						"totalCost": "1554259"
					},
					"external": {
						"addProperty(string,uint256)": "infinite",
						"approveTenant(address,address,uint256,uint256)": "infinite",
						"confirmTermination(address)": "infinite",
						"getPropertyCount()": "2616",
						"getPropertyDetails(uint256)": "infinite",
						"getTenantDetails(address,address)": "infinite",
						"owner()": "2527",
						"properties(address,uint256)": "infinite",
						"propertyTenants(address,address)": "infinite",
						"registerProperty(string,uint256)": "infinite",
						"requestContractTermination(address)": "51457"
					}
				},
				"methodIdentifiers": {
					"addProperty(string,uint256)": "f54e1aef",
					"approveTenant(address,address,uint256,uint256)": "a67d6ead",
					"confirmTermination(address)": "041dcffa",
					"getPropertyCount()": "7326b901",
					"getPropertyDetails(uint256)": "126dbe43",
					"getTenantDetails(address,address)": "d8be1a92",
					"owner()": "8da5cb5b",
					"properties(address,uint256)": "14bfcdd7",
					"propertyTenants(address,address)": "5710214d",
					"registerProperty(string,uint256)": "7c539718",
					"requestContractTermination(address)": "c5788c20"
				}
			},
			"storageLayout": {
				"storage": [
					{
						"astId": 3,
						"contract": "contracts/PropertyManagement.sol:PropertyManagement",
						"label": "owner",
						"offset": 0,
						"slot": "0",
						"type": "t_address"
					},
					{
						"astId": 31,
						"contract": "contracts/PropertyManagement.sol:PropertyManagement",
						"label": "properties",
						"offset": 0,
						"slot": "1",
						"type": "t_mapping(t_address,t_array(t_struct(Property)12_storage)dyn_storage)"
					},
					{
						"astId": 38,
						"contract": "contracts/PropertyManagement.sol:PropertyManagement",
						"label": "propertyTenants",
						"offset": 0,
						"slot": "2",
						"type": "t_mapping(t_address,t_mapping(t_address,t_struct(Tenant)25_storage))"
					}
				],
				"types": {
					"t_address": {
						"encoding": "inplace",
						"label": "address",
						"numberOfBytes": "20"
					},
					"t_array(t_struct(Property)12_storage)dyn_storage": {
						"base": "t_struct(Property)12_storage",
						"encoding": "dynamic_array",
						"label": "struct PropertyManagement.Property[]",
						"numberOfBytes": "32"
					},
					"t_bool": {
						"encoding": "inplace",
						"label": "bool",
						"numberOfBytes": "1"
					},
					"t_mapping(t_address,t_array(t_struct(Property)12_storage)dyn_storage)": {
						"encoding": "mapping",
						"key": "t_address",
						"label": "mapping(address => struct PropertyManagement.Property[])",
						"numberOfBytes": "32",
						"value": "t_array(t_struct(Property)12_storage)dyn_storage"
					},
					"t_mapping(t_address,t_mapping(t_address,t_struct(Tenant)25_storage))": {
						"encoding": "mapping",
						"key": "t_address",
						"label": "mapping(address => mapping(address => struct PropertyManagement.Tenant))",
						"numberOfBytes": "32",
						"value": "t_mapping(t_address,t_struct(Tenant)25_storage)"
					},
					"t_mapping(t_address,t_struct(Tenant)25_storage)": {
						"encoding": "mapping",
						"key": "t_address",
						"label": "mapping(address => struct PropertyManagement.Tenant)",
						"numberOfBytes": "32",
						"value": "t_struct(Tenant)25_storage"
					},
					"t_string_storage": {
						"encoding": "bytes",
						"label": "string",
						"numberOfBytes": "32"
					},
					"t_struct(Property)12_storage": {
						"encoding": "inplace",
						"label": "struct PropertyManagement.Property",
						"members": [
							{
								"astId": 5,
								"contract": "contracts/PropertyManagement.sol:PropertyManagement",
								"label": "ownerAddress",
								"offset": 0,
								"slot": "0",
								"type": "t_address"
							},
							{
								"astId": 7,
								"contract": "contracts/PropertyManagement.sol:PropertyManagement",
								"label": "landlord",
								"offset": 0,
								"slot": "1",
								"type": "t_address"
							},
							{
								"astId": 9,
								"contract": "contracts/PropertyManagement.sol:PropertyManagement",
								"label": "location",
								"offset": 0,
								"slot": "2",
								"type": "t_string_storage"
							},
							{
								"astId": 11,
								"contract": "contracts/PropertyManagement.sol:PropertyManagement",
								"label": "rentAmount",
								"offset": 0,
								"slot": "3",
								"type": "t_uint256"
							}
						],
						"numberOfBytes": "128"
					},
					"t_struct(Tenant)25_storage": {
						"encoding": "inplace",
						"label": "struct PropertyManagement.Tenant",
						"members": [
							{
								"astId": 14,
								"contract": "contracts/PropertyManagement.sol:PropertyManagement",
								"label": "tenantAddress",
								"offset": 0,
								"slot": "0",
								"type": "t_address"
							},
							{
								"astId": 16,
								"contract": "contracts/PropertyManagement.sol:PropertyManagement",
								"label": "propertyAddress",
								"offset": 0,
								"slot": "1",
								"type": "t_address"
							},
							{
								"astId": 18,
								"contract": "contracts/PropertyManagement.sol:PropertyManagement",
								"label": "rentStartDate",
								"offset": 0,
								"slot": "2",
								"type": "t_uint256"
							},
							{
								"astId": 20,
								"contract": "contracts/PropertyManagement.sol:PropertyManagement",
								"label": "rentEndDate",
								"offset": 0,
								"slot": "3",
								"type": "t_uint256"
							},
							{
								"astId": 22,
								"contract": "contracts/PropertyManagement.sol:PropertyManagement",
								"label": "isTerminated",
								"offset": 0,
								"slot": "4",
								"type": "t_bool"
							},
							{
								"astId": 24,
								"contract": "contracts/PropertyManagement.sol:PropertyManagement",
								"label": "landlordConsent",
								"offset": 1,
								"slot": "4",
								"type": "t_bool"
							}
						],
						"numberOfBytes": "160"
					},
					"t_uint256": {
						"encoding": "inplace",
						"label": "uint256",
						"numberOfBytes": "32"
					}
				}
			},
			"userdoc": {
				"kind": "user",
				"methods": {},
				"version": 1
			}
		}
	}
}