{
	"contracts/PropertyRental.sol": {
		"PropertyRental": {
			"abi": [
				{
					"anonymous": false,
					"inputs": [
						{
							"indexed": false,
							"internalType": "uint256",
							"name": "id",
							"type": "uint256"
						},
						{
							"indexed": false,
							"internalType": "string",
							"name": "location",
							"type": "string"
						},
						{
							"indexed": false,
							"internalType": "uint256",
							"name": "rentPrice",
							"type": "uint256"
						}
					],
					"name": "PropertyAdded",
					"type": "event"
				},
				{
					"anonymous": false,
					"inputs": [
						{
							"indexed": true,
							"internalType": "uint256",
							"name": "propertyId",
							"type": "uint256"
						},
						{
							"indexed": true,
							"internalType": "uint256",
							"name": "complaintId",
							"type": "uint256"
						},
						{
							"indexed": true,
							"internalType": "address",
							"name": "owner",
							"type": "address"
						},
						{
							"indexed": false,
							"internalType": "string",
							"name": "details",
							"type": "string"
						},
						{
							"indexed": false,
							"internalType": "uint256",
							"name": "date",
							"type": "uint256"
						}
					],
					"name": "PropertyComplained",
					"type": "event"
				},
				{
					"anonymous": false,
					"inputs": [
						{
							"indexed": false,
							"internalType": "uint256",
							"name": "id",
							"type": "uint256"
						},
						{
							"indexed": false,
							"internalType": "address",
							"name": "tenant",
							"type": "address"
						},
						{
							"indexed": false,
							"internalType": "uint256",
							"name": "startDate",
							"type": "uint256"
						},
						{
							"indexed": false,
							"internalType": "uint256",
							"name": "endDate",
							"type": "uint256"
						}
					],
					"name": "PropertyRented",
					"type": "event"
				},
				{
					"inputs": [
						{
							"internalType": "string",
							"name": "_location",
							"type": "string"
						},
						{
							"internalType": "uint256",
							"name": "_rentPrice",
							"type": "uint256"
						}
					],
					"name": "addProperty",
					"outputs": [],
					"stateMutability": "nonpayable",
					"type": "function"
				},
				{
					"inputs": [
						{
							"internalType": "uint256",
							"name": "_id",
							"type": "uint256"
						},
						{
							"internalType": "string",
							"name": "_details",
							"type": "string"
						}
					],
					"name": "complainProperty",
					"outputs": [],
					"stateMutability": "nonpayable",
					"type": "function"
				},
				{
					"inputs": [],
					"name": "complaintCount",
					"outputs": [
						{
							"internalType": "uint256",
							"name": "",
							"type": "uint256"
						}
					],
					"stateMutability": "view",
					"type": "function"
				},
				{
					"inputs": [
						{
							"internalType": "uint256",
							"name": "",
							"type": "uint256"
						}
					],
					"name": "properties",
					"outputs": [
						{
							"internalType": "uint256",
							"name": "id",
							"type": "uint256"
						},
						{
							"internalType": "address",
							"name": "owner",
							"type": "address"
						},
						{
							"internalType": "string",
							"name": "location",
							"type": "string"
						},
						{
							"internalType": "uint256",
							"name": "rentPrice",
							"type": "uint256"
						},
						{
							"internalType": "bool",
							"name": "isRented",
							"type": "bool"
						}
					],
					"stateMutability": "view",
					"type": "function"
				},
				{
					"inputs": [],
					"name": "propertyCount",
					"outputs": [
						{
							"internalType": "uint256",
							"name": "",
							"type": "uint256"
						}
					],
					"stateMutability": "view",
					"type": "function"
				},
				{
					"inputs": [
						{
							"internalType": "uint256",
							"name": "",
							"type": "uint256"
						},
						{
							"internalType": "uint256",
							"name": "",
							"type": "uint256"
						}
					],
					"name": "propertyIdToComplaints",
					"outputs": [
						{
							"internalType": "uint256",
							"name": "id",
							"type": "uint256"
						},
						{
							"internalType": "address",
							"name": "owner",
							"type": "address"
						},
						{
							"internalType": "string",
							"name": "details",
							"type": "string"
						},
						{
							"internalType": "uint256",
							"name": "date",
							"type": "uint256"
						}
					],
					"stateMutability": "view",
					"type": "function"
				},
				{
					"inputs": [
						{
							"internalType": "uint256",
							"name": "_id",
							"type": "uint256"
						},
						{
							"internalType": "uint256",
							"name": "_startDate",
							"type": "uint256"
						},
						{
							"internalType": "uint256",
							"name": "_endDate",
							"type": "uint256"
						}
					],
					"name": "rentProperty",
					"outputs": [],
					"stateMutability": "nonpayable",
					"type": "function"
				},
				{
					"inputs": [
						{
							"internalType": "address",
							"name": "",
							"type": "address"
						}
					],
					"name": "tenants",
					"outputs": [
						{
							"internalType": "address",
							"name": "tenantAddress",
							"type": "address"
						},
						{
							"internalType": "uint256",
							"name": "rentedPropertyId",
							"type": "uint256"
						},
						{
							"internalType": "uint256",
							"name": "startDate",
							"type": "uint256"
						},
						{
							"internalType": "uint256",
							"name": "endDate",
							"type": "uint256"
						}
					],
					"stateMutability": "view",
					"type": "function"
				}
			],
			"devdoc": {
				"kind": "dev",
				"methods": {},
				"version": 1
			},
			"evm": {
				"assembly": "    /* \"contracts/PropertyRental.sol\":60:2447  contract PropertyRental {... */\n  mstore(0x40, 0x80)\n  callvalue\n  dup1\n  iszero\n  tag_1\n  jumpi\n  0x00\n  dup1\n  revert\ntag_1:\n  pop\n  dataSize(sub_0)\n  dup1\n  dataOffset(sub_0)\n  0x00\n  codecopy\n  0x00\n  return\nstop\n\nsub_0: assembly {\n        /* \"contracts/PropertyRental.sol\":60:2447  contract PropertyRental {... */\n      mstore(0x40, 0x80)\n      callvalue\n      dup1\n      iszero\n      tag_1\n      jumpi\n      0x00\n      dup1\n      revert\n    tag_1:\n      pop\n      jumpi(tag_2, lt(calldatasize, 0x04))\n      shr(0xe0, calldataload(0x00))\n      dup1\n      0xd2da7c71\n      gt\n      tag_11\n      jumpi\n      dup1\n      0xd2da7c71\n      eq\n      tag_7\n      jumpi\n      dup1\n      0xf54e1aef\n      eq\n      tag_8\n      jumpi\n      dup1\n      0xf7b10808\n      eq\n      tag_9\n      jumpi\n      dup1\n      0xfd9153a3\n      eq\n      tag_10\n      jumpi\n      jump(tag_2)\n    tag_11:\n      dup1\n      0x2edea294\n      eq\n      tag_3\n      jumpi\n      dup1\n      0x45bcac1c\n      eq\n      tag_4\n      jumpi\n      dup1\n      0xb8653c68\n      eq\n      tag_5\n      jumpi\n      dup1\n      0xc361a335\n      eq\n      tag_6\n      jumpi\n    tag_2:\n      0x00\n      dup1\n      revert\n        /* \"contracts/PropertyRental.sol\":727:756  uint256 public complaintCount */\n    tag_3:\n      tag_12\n      tag_13\n      jump\t// in\n    tag_12:\n      mload(0x40)\n      tag_14\n      swap2\n      swap1\n      tag_15\n      jump\t// in\n    tag_14:\n      mload(0x40)\n      dup1\n      swap2\n      sub\n      swap1\n      return\n        /* \"contracts/PropertyRental.sol\":1813:2444  function complainProperty(uint256 _id, string memory _details) public {... */\n    tag_4:\n      tag_16\n      0x04\n      dup1\n      calldatasize\n      sub\n      dup2\n      add\n      swap1\n      tag_17\n      swap2\n      swap1\n      tag_18\n      jump\t// in\n    tag_17:\n      tag_19\n      jump\t// in\n    tag_16:\n      stop\n        /* \"contracts/PropertyRental.sol\":623:683  mapping(uint256 => Complain[]) public propertyIdToComplaints */\n    tag_5:\n      tag_20\n      0x04\n      dup1\n      calldatasize\n      sub\n      dup2\n      add\n      swap1\n      tag_21\n      swap2\n      swap1\n      tag_22\n      jump\t// in\n    tag_21:\n      tag_23\n      jump\t// in\n    tag_20:\n      mload(0x40)\n      tag_24\n      swap5\n      swap4\n      swap3\n      swap2\n      swap1\n      tag_25\n      jump\t// in\n    tag_24:\n      mload(0x40)\n      dup1\n      swap2\n      sub\n      swap1\n      return\n        /* \"contracts/PropertyRental.sol\":692:720  uint256 public propertyCount */\n    tag_6:\n      tag_26\n      tag_27\n      jump\t// in\n    tag_26:\n      mload(0x40)\n      tag_28\n      swap2\n      swap1\n      tag_15\n      jump\t// in\n    tag_28:\n      mload(0x40)\n      dup1\n      swap2\n      sub\n      swap1\n      return\n        /* \"contracts/PropertyRental.sol\":1359:1805  function rentProperty(uint256 _id, uint256 _startDate, uint256 _endDate) public {... */\n    tag_7:\n      tag_29\n      0x04\n      dup1\n      calldatasize\n      sub\n      dup2\n      add\n      swap1\n      tag_30\n      swap2\n      swap1\n      tag_31\n      jump\t// in\n    tag_30:\n      tag_32\n      jump\t// in\n    tag_29:\n      stop\n        /* \"contracts/PropertyRental.sol\":1073:1351  function addProperty(string memory _location, uint256 _rentPrice) public {... */\n    tag_8:\n      tag_33\n      0x04\n      dup1\n      calldatasize\n      sub\n      dup2\n      add\n      swap1\n      tag_34\n      swap2\n      swap1\n      tag_35\n      jump\t// in\n    tag_34:\n      tag_36\n      jump\t// in\n    tag_33:\n      stop\n        /* \"contracts/PropertyRental.sol\":522:568  mapping(uint256 => Property) public properties */\n    tag_9:\n      tag_37\n      0x04\n      dup1\n      calldatasize\n      sub\n      dup2\n      add\n      swap1\n      tag_38\n      swap2\n      swap1\n      tag_39\n      jump\t// in\n    tag_38:\n      tag_40\n      jump\t// in\n    tag_37:\n      mload(0x40)\n      tag_41\n      swap6\n      swap5\n      swap4\n      swap3\n      swap2\n      swap1\n      tag_42\n      jump\t// in\n    tag_41:\n      mload(0x40)\n      dup1\n      swap2\n      sub\n      swap1\n      return\n        /* \"contracts/PropertyRental.sol\":575:616  mapping(address => Tenant) public tenants */\n    tag_10:\n      tag_43\n      0x04\n      dup1\n      calldatasize\n      sub\n      dup2\n      add\n      swap1\n      tag_44\n      swap2\n      swap1\n      tag_45\n      jump\t// in\n    tag_44:\n      tag_46\n      jump\t// in\n    tag_43:\n      mload(0x40)\n      tag_47\n      swap5\n      swap4\n      swap3\n      swap2\n      swap1\n      tag_48\n      jump\t// in\n    tag_47:\n      mload(0x40)\n      dup1\n      swap2\n      sub\n      swap1\n      return\n        /* \"contracts/PropertyRental.sol\":727:756  uint256 public complaintCount */\n    tag_13:\n      sload(0x04)\n      dup2\n      jump\t// out\n        /* \"contracts/PropertyRental.sol\":1813:2444  function complainProperty(uint256 _id, string memory _details) public {... */\n    tag_19:\n        /* \"contracts/PropertyRental.sol\":1924:1925  0 */\n      0x00\n        /* \"contracts/PropertyRental.sol\":1902:1912  properties */\n      dup1\n        /* \"contracts/PropertyRental.sol\":1902:1917  properties[_id] */\n      0x00\n        /* \"contracts/PropertyRental.sol\":1913:1916  _id */\n      dup5\n        /* \"contracts/PropertyRental.sol\":1902:1917  properties[_id] */\n      dup2\n      mstore\n      0x20\n      add\n      swap1\n      dup2\n      mstore\n      0x20\n      add\n      0x00\n      keccak256\n        /* \"contracts/PropertyRental.sol\":1902:1920  properties[_id].id */\n      0x00\n      add\n      sload\n        /* \"contracts/PropertyRental.sol\":1902:1925  properties[_id].id != 0 */\n      sub\n        /* \"contracts/PropertyRental.sol\":1894:1952  require(properties[_id].id != 0, \"Property doesn't exist\") */\n      tag_50\n      jumpi\n      mload(0x40)\n      0x08c379a000000000000000000000000000000000000000000000000000000000\n      dup2\n      mstore\n      0x04\n      add\n      tag_51\n      swap1\n      tag_52\n      jump\t// in\n    tag_51:\n      mload(0x40)\n      dup1\n      swap2\n      sub\n      swap1\n      revert\n    tag_50:\n        /* \"contracts/PropertyRental.sol\":1996:2006  msg.sender */\n      caller\n        /* \"contracts/PropertyRental.sol\":1971:2006  properties[_id].owner == msg.sender */\n      0xffffffffffffffffffffffffffffffffffffffff\n      and\n        /* \"contracts/PropertyRental.sol\":1971:1981  properties */\n      0x00\n        /* \"contracts/PropertyRental.sol\":1971:1986  properties[_id] */\n      dup1\n        /* \"contracts/PropertyRental.sol\":1982:1985  _id */\n      dup5\n        /* \"contracts/PropertyRental.sol\":1971:1986  properties[_id] */\n      dup2\n      mstore\n      0x20\n      add\n      swap1\n      dup2\n      mstore\n      0x20\n      add\n      0x00\n      keccak256\n        /* \"contracts/PropertyRental.sol\":1971:1992  properties[_id].owner */\n      0x01\n      add\n      0x00\n      swap1\n      sload\n      swap1\n      0x0100\n      exp\n      swap1\n      div\n      0xffffffffffffffffffffffffffffffffffffffff\n      and\n        /* \"contracts/PropertyRental.sol\":1971:2006  properties[_id].owner == msg.sender */\n      0xffffffffffffffffffffffffffffffffffffffff\n      and\n      eq\n        /* \"contracts/PropertyRental.sol\":1963:2057  require(properties[_id].owner == msg.sender, \"Only the owner can complain about the property\") */\n      tag_53\n      jumpi\n      mload(0x40)\n      0x08c379a000000000000000000000000000000000000000000000000000000000\n      dup2\n      mstore\n      0x04\n      add\n      tag_54\n      swap1\n      tag_55\n      jump\t// in\n    tag_54:\n      mload(0x40)\n      dup1\n      swap2\n      sub\n      swap1\n      revert\n    tag_53:\n        /* \"contracts/PropertyRental.sol\":2070:2097  Complain memory newComplain */\n      0x00\n        /* \"contracts/PropertyRental.sol\":2100:2254  Complain({... */\n      mload(0x40)\n      dup1\n      0x80\n      add\n      0x40\n      mstore\n      dup1\n        /* \"contracts/PropertyRental.sol\":2128:2142  complaintCount */\n      sload(0x04)\n        /* \"contracts/PropertyRental.sol\":2100:2254  Complain({... */\n      dup2\n      mstore\n      0x20\n      add\n        /* \"contracts/PropertyRental.sol\":2164:2174  msg.sender */\n      caller\n        /* \"contracts/PropertyRental.sol\":2100:2254  Complain({... */\n      0xffffffffffffffffffffffffffffffffffffffff\n      and\n      dup2\n      mstore\n      0x20\n      add\n        /* \"contracts/PropertyRental.sol\":2198:2206  _details */\n      dup4\n        /* \"contracts/PropertyRental.sol\":2100:2254  Complain({... */\n      dup2\n      mstore\n      0x20\n      add\n        /* \"contracts/PropertyRental.sol\":2227:2242  block.timestamp */\n      timestamp\n        /* \"contracts/PropertyRental.sol\":2100:2254  Complain({... */\n      dup2\n      mstore\n      pop\n        /* \"contracts/PropertyRental.sol\":2070:2254  Complain memory newComplain = Complain({... */\n      swap1\n      pop\n        /* \"contracts/PropertyRental.sol\":2267:2289  propertyIdToComplaints */\n      0x02\n        /* \"contracts/PropertyRental.sol\":2267:2294  propertyIdToComplaints[_id] */\n      0x00\n        /* \"contracts/PropertyRental.sol\":2290:2293  _id */\n      dup5\n        /* \"contracts/PropertyRental.sol\":2267:2294  propertyIdToComplaints[_id] */\n      dup2\n      mstore\n      0x20\n      add\n      swap1\n      dup2\n      mstore\n      0x20\n      add\n      0x00\n      keccak256\n        /* \"contracts/PropertyRental.sol\":2300:2311  newComplain */\n      dup2\n        /* \"contracts/PropertyRental.sol\":2267:2312  propertyIdToComplaints[_id].push(newComplain) */\n      swap1\n      dup1\n      0x01\n      dup2\n      sload\n      add\n      dup1\n      dup3\n      sstore\n      dup1\n      swap2\n      pop\n      pop\n      0x01\n      swap1\n      sub\n      swap1\n      0x00\n      mstore\n      keccak256(0x00, 0x20)\n      swap1\n      0x04\n      mul\n      add\n      0x00\n      swap1\n      swap2\n      swap1\n      swap2\n      swap1\n      swap2\n      pop\n      0x00\n      dup3\n      add\n      mload\n      dup2\n      0x00\n      add\n      sstore\n      0x20\n      dup3\n      add\n      mload\n      dup2\n      0x01\n      add\n      exp(0x0100, 0x00)\n      dup2\n      sload\n      dup2\n      0xffffffffffffffffffffffffffffffffffffffff\n      mul\n      not\n      and\n      swap1\n      dup4\n      0xffffffffffffffffffffffffffffffffffffffff\n      and\n      mul\n      or\n      swap1\n      sstore\n      pop\n      0x40\n      dup3\n      add\n      mload\n      dup2\n      0x02\n      add\n      swap1\n      dup2\n      tag_57\n      swap2\n      swap1\n      tag_58\n      jump\t// in\n    tag_57:\n      pop\n      0x60\n      dup3\n      add\n      mload\n      dup2\n      0x03\n      add\n      sstore\n      pop\n      pop\n        /* \"contracts/PropertyRental.sol\":2323:2337  complaintCount */\n      0x04\n      0x00\n        /* \"contracts/PropertyRental.sol\":2323:2339  complaintCount++ */\n      dup2\n      sload\n      dup1\n      swap3\n      swap2\n      swap1\n      tag_59\n      swap1\n      tag_60\n      jump\t// in\n    tag_59:\n      swap2\n      swap1\n      pop\n      sstore\n      pop\n        /* \"contracts/PropertyRental.sol\":2397:2407  msg.sender */\n      caller\n        /* \"contracts/PropertyRental.sol\":2357:2436  PropertyComplained(_id, newComplain.id, msg.sender, _details, newComplain.date) */\n      0xffffffffffffffffffffffffffffffffffffffff\n      and\n        /* \"contracts/PropertyRental.sol\":2381:2392  newComplain */\n      dup2\n        /* \"contracts/PropertyRental.sol\":2381:2395  newComplain.id */\n      0x00\n      add\n      mload\n        /* \"contracts/PropertyRental.sol\":2376:2379  _id */\n      dup5\n        /* \"contracts/PropertyRental.sol\":2357:2436  PropertyComplained(_id, newComplain.id, msg.sender, _details, newComplain.date) */\n      0xf9d2b2fd8670064e29c67ac1e8d950a4a4b3feddddabae71dd5312f3d796c7f7\n        /* \"contracts/PropertyRental.sol\":2409:2417  _details */\n      dup6\n        /* \"contracts/PropertyRental.sol\":2419:2430  newComplain */\n      dup6\n        /* \"contracts/PropertyRental.sol\":2419:2435  newComplain.date */\n      0x60\n      add\n      mload\n        /* \"contracts/PropertyRental.sol\":2357:2436  PropertyComplained(_id, newComplain.id, msg.sender, _details, newComplain.date) */\n      mload(0x40)\n      tag_61\n      swap3\n      swap2\n      swap1\n      tag_62\n      jump\t// in\n    tag_61:\n      mload(0x40)\n      dup1\n      swap2\n      sub\n      swap1\n      log4\n        /* \"contracts/PropertyRental.sol\":1883:2444  {... */\n      pop\n        /* \"contracts/PropertyRental.sol\":1813:2444  function complainProperty(uint256 _id, string memory _details) public {... */\n      pop\n      pop\n      jump\t// out\n        /* \"contracts/PropertyRental.sol\":623:683  mapping(uint256 => Complain[]) public propertyIdToComplaints */\n    tag_23:\n      mstore(0x20, 0x02)\n      dup2\n      0x00\n      mstore\n      keccak256(0x00, 0x40)\n      dup2\n      dup2\n      sload\n      dup2\n      lt\n      tag_63\n      jumpi\n      0x00\n      dup1\n      revert\n    tag_63:\n      swap1\n      0x00\n      mstore\n      keccak256(0x00, 0x20)\n      swap1\n      0x04\n      mul\n      add\n      0x00\n      swap2\n      pop\n      swap2\n      pop\n      pop\n      dup1\n      0x00\n      add\n      sload\n      swap1\n      dup1\n      0x01\n      add\n      0x00\n      swap1\n      sload\n      swap1\n      0x0100\n      exp\n      swap1\n      div\n      0xffffffffffffffffffffffffffffffffffffffff\n      and\n      swap1\n      dup1\n      0x02\n      add\n      dup1\n      sload\n      tag_65\n      swap1\n      tag_66\n      jump\t// in\n    tag_65:\n      dup1\n      0x1f\n      add\n      0x20\n      dup1\n      swap2\n      div\n      mul\n      0x20\n      add\n      mload(0x40)\n      swap1\n      dup2\n      add\n      0x40\n      mstore\n      dup1\n      swap3\n      swap2\n      swap1\n      dup2\n      dup2\n      mstore\n      0x20\n      add\n      dup3\n      dup1\n      sload\n      tag_67\n      swap1\n      tag_66\n      jump\t// in\n    tag_67:\n      dup1\n      iszero\n      tag_68\n      jumpi\n      dup1\n      0x1f\n      lt\n      tag_69\n      jumpi\n      0x0100\n      dup1\n      dup4\n      sload\n      div\n      mul\n      dup4\n      mstore\n      swap2\n      0x20\n      add\n      swap2\n      jump(tag_68)\n    tag_69:\n      dup3\n      add\n      swap2\n      swap1\n      0x00\n      mstore\n      keccak256(0x00, 0x20)\n      swap1\n    tag_70:\n      dup2\n      sload\n      dup2\n      mstore\n      swap1\n      0x01\n      add\n      swap1\n      0x20\n      add\n      dup1\n      dup4\n      gt\n      tag_70\n      jumpi\n      dup3\n      swap1\n      sub\n      0x1f\n      and\n      dup3\n      add\n      swap2\n    tag_68:\n      pop\n      pop\n      pop\n      pop\n      pop\n      swap1\n      dup1\n      0x03\n      add\n      sload\n      swap1\n      pop\n      dup5\n      jump\t// out\n        /* \"contracts/PropertyRental.sol\":692:720  uint256 public propertyCount */\n    tag_27:\n      sload(0x03)\n      dup2\n      jump\t// out\n        /* \"contracts/PropertyRental.sol\":1359:1805  function rentProperty(uint256 _id, uint256 _startDate, uint256 _endDate) public {... */\n    tag_32:\n        /* \"contracts/PropertyRental.sol\":1471:1479  _endDate */\n      dup1\n        /* \"contracts/PropertyRental.sol\":1458:1468  _startDate */\n      dup3\n        /* \"contracts/PropertyRental.sol\":1458:1479  _startDate < _endDate */\n      lt\n        /* \"contracts/PropertyRental.sol\":1450:1523  require(_startDate < _endDate, \"Start date should be less than end date\") */\n      tag_72\n      jumpi\n      mload(0x40)\n      0x08c379a000000000000000000000000000000000000000000000000000000000\n      dup2\n      mstore\n      0x04\n      add\n      tag_73\n      swap1\n      tag_74\n      jump\t// in\n    tag_73:\n      mload(0x40)\n      dup1\n      swap2\n      sub\n      swap1\n      revert\n    tag_72:\n        /* \"contracts/PropertyRental.sol\":1570:1575  false */\n      0x00\n        /* \"contracts/PropertyRental.sol\":1542:1575  properties[_id].isRented == false */\n      iszero\n      iszero\n        /* \"contracts/PropertyRental.sol\":1542:1552  properties */\n      0x00\n        /* \"contracts/PropertyRental.sol\":1542:1557  properties[_id] */\n      dup1\n        /* \"contracts/PropertyRental.sol\":1553:1556  _id */\n      dup6\n        /* \"contracts/PropertyRental.sol\":1542:1557  properties[_id] */\n      dup2\n      mstore\n      0x20\n      add\n      swap1\n      dup2\n      mstore\n      0x20\n      add\n      0x00\n      keccak256\n        /* \"contracts/PropertyRental.sol\":1542:1566  properties[_id].isRented */\n      0x04\n      add\n      0x00\n      swap1\n      sload\n      swap1\n      0x0100\n      exp\n      swap1\n      div\n      0xff\n      and\n        /* \"contracts/PropertyRental.sol\":1542:1575  properties[_id].isRented == false */\n      iszero\n      iszero\n      eq\n        /* \"contracts/PropertyRental.sol\":1534:1606  require(properties[_id].isRented == false, \"Property is already rented\") */\n      tag_75\n      jumpi\n      mload(0x40)\n      0x08c379a000000000000000000000000000000000000000000000000000000000\n      dup2\n      mstore\n      0x04\n      add\n      tag_76\n      swap1\n      tag_77\n      jump\t// in\n    tag_76:\n      mload(0x40)\n      dup1\n      swap2\n      sub\n      swap1\n      revert\n    tag_75:\n        /* \"contracts/PropertyRental.sol\":1646:1650  true */\n      0x01\n        /* \"contracts/PropertyRental.sol\":1619:1629  properties */\n      0x00\n        /* \"contracts/PropertyRental.sol\":1619:1634  properties[_id] */\n      dup1\n        /* \"contracts/PropertyRental.sol\":1630:1633  _id */\n      dup6\n        /* \"contracts/PropertyRental.sol\":1619:1634  properties[_id] */\n      dup2\n      mstore\n      0x20\n      add\n      swap1\n      dup2\n      mstore\n      0x20\n      add\n      0x00\n      keccak256\n        /* \"contracts/PropertyRental.sol\":1619:1643  properties[_id].isRented */\n      0x04\n      add\n      0x00\n        /* \"contracts/PropertyRental.sol\":1619:1650  properties[_id].isRented = true */\n      0x0100\n      exp\n      dup2\n      sload\n      dup2\n      0xff\n      mul\n      not\n      and\n      swap1\n      dup4\n      iszero\n      iszero\n      mul\n      or\n      swap1\n      sstore\n      pop\n        /* \"contracts/PropertyRental.sol\":1683:1728  Tenant(msg.sender, _id, _startDate, _endDate) */\n      mload(0x40)\n      dup1\n      0x80\n      add\n      0x40\n      mstore\n      dup1\n        /* \"contracts/PropertyRental.sol\":1690:1700  msg.sender */\n      caller\n        /* \"contracts/PropertyRental.sol\":1683:1728  Tenant(msg.sender, _id, _startDate, _endDate) */\n      0xffffffffffffffffffffffffffffffffffffffff\n      and\n      dup2\n      mstore\n      0x20\n      add\n        /* \"contracts/PropertyRental.sol\":1702:1705  _id */\n      dup5\n        /* \"contracts/PropertyRental.sol\":1683:1728  Tenant(msg.sender, _id, _startDate, _endDate) */\n      dup2\n      mstore\n      0x20\n      add\n        /* \"contracts/PropertyRental.sol\":1707:1717  _startDate */\n      dup4\n        /* \"contracts/PropertyRental.sol\":1683:1728  Tenant(msg.sender, _id, _startDate, _endDate) */\n      dup2\n      mstore\n      0x20\n      add\n        /* \"contracts/PropertyRental.sol\":1719:1727  _endDate */\n      dup3\n        /* \"contracts/PropertyRental.sol\":1683:1728  Tenant(msg.sender, _id, _startDate, _endDate) */\n      dup2\n      mstore\n      pop\n        /* \"contracts/PropertyRental.sol\":1661:1668  tenants */\n      0x01\n        /* \"contracts/PropertyRental.sol\":1661:1680  tenants[msg.sender] */\n      0x00\n        /* \"contracts/PropertyRental.sol\":1669:1679  msg.sender */\n      caller\n        /* \"contracts/PropertyRental.sol\":1661:1680  tenants[msg.sender] */\n      0xffffffffffffffffffffffffffffffffffffffff\n      and\n      0xffffffffffffffffffffffffffffffffffffffff\n      and\n      dup2\n      mstore\n      0x20\n      add\n      swap1\n      dup2\n      mstore\n      0x20\n      add\n      0x00\n      keccak256\n        /* \"contracts/PropertyRental.sol\":1661:1728  tenants[msg.sender] = Tenant(msg.sender, _id, _startDate, _endDate) */\n      0x00\n      dup3\n      add\n      mload\n      dup2\n      0x00\n      add\n      exp(0x0100, 0x00)\n      dup2\n      sload\n      dup2\n      0xffffffffffffffffffffffffffffffffffffffff\n      mul\n      not\n      and\n      swap1\n      dup4\n      0xffffffffffffffffffffffffffffffffffffffff\n      and\n      mul\n      or\n      swap1\n      sstore\n      pop\n      0x20\n      dup3\n      add\n      mload\n      dup2\n      0x01\n      add\n      sstore\n      0x40\n      dup3\n      add\n      mload\n      dup2\n      0x02\n      add\n      sstore\n      0x60\n      dup3\n      add\n      mload\n      dup2\n      0x03\n      add\n      sstore\n      swap1\n      pop\n      pop\n        /* \"contracts/PropertyRental.sol\":1744:1797  PropertyRented(_id, msg.sender, _startDate, _endDate) */\n      0x83f582c38246e10118fca894a9512cb07f6c10aec67f1808c8ddd5db8810e5a9\n        /* \"contracts/PropertyRental.sol\":1759:1762  _id */\n      dup4\n        /* \"contracts/PropertyRental.sol\":1764:1774  msg.sender */\n      caller\n        /* \"contracts/PropertyRental.sol\":1776:1786  _startDate */\n      dup5\n        /* \"contracts/PropertyRental.sol\":1788:1796  _endDate */\n      dup5\n        /* \"contracts/PropertyRental.sol\":1744:1797  PropertyRented(_id, msg.sender, _startDate, _endDate) */\n      mload(0x40)\n      tag_78\n      swap5\n      swap4\n      swap3\n      swap2\n      swap1\n      tag_79\n      jump\t// in\n    tag_78:\n      mload(0x40)\n      dup1\n      swap2\n      sub\n      swap1\n      log1\n        /* \"contracts/PropertyRental.sol\":1359:1805  function rentProperty(uint256 _id, uint256 _startDate, uint256 _endDate) public {... */\n      pop\n      pop\n      pop\n      jump\t// out\n        /* \"contracts/PropertyRental.sol\":1073:1351  function addProperty(string memory _location, uint256 _rentPrice) public {... */\n    tag_36:\n        /* \"contracts/PropertyRental.sol\":1157:1170  propertyCount */\n      0x03\n      0x00\n        /* \"contracts/PropertyRental.sol\":1157:1172  propertyCount++ */\n      dup2\n      sload\n      dup1\n      swap3\n      swap2\n      swap1\n      tag_81\n      swap1\n      tag_60\n      jump\t// in\n    tag_81:\n      swap2\n      swap1\n      pop\n      sstore\n      pop\n        /* \"contracts/PropertyRental.sol\":1211:1276  Property(propertyCount, msg.sender, _location, _rentPrice, false) */\n      mload(0x40)\n      dup1\n      0xa0\n      add\n      0x40\n      mstore\n      dup1\n        /* \"contracts/PropertyRental.sol\":1220:1233  propertyCount */\n      sload(0x03)\n        /* \"contracts/PropertyRental.sol\":1211:1276  Property(propertyCount, msg.sender, _location, _rentPrice, false) */\n      dup2\n      mstore\n      0x20\n      add\n        /* \"contracts/PropertyRental.sol\":1235:1245  msg.sender */\n      caller\n        /* \"contracts/PropertyRental.sol\":1211:1276  Property(propertyCount, msg.sender, _location, _rentPrice, false) */\n      0xffffffffffffffffffffffffffffffffffffffff\n      and\n      dup2\n      mstore\n      0x20\n      add\n        /* \"contracts/PropertyRental.sol\":1247:1256  _location */\n      dup4\n        /* \"contracts/PropertyRental.sol\":1211:1276  Property(propertyCount, msg.sender, _location, _rentPrice, false) */\n      dup2\n      mstore\n      0x20\n      add\n        /* \"contracts/PropertyRental.sol\":1258:1268  _rentPrice */\n      dup3\n        /* \"contracts/PropertyRental.sol\":1211:1276  Property(propertyCount, msg.sender, _location, _rentPrice, false) */\n      dup2\n      mstore\n      0x20\n      add\n        /* \"contracts/PropertyRental.sol\":1270:1275  false */\n      0x00\n        /* \"contracts/PropertyRental.sol\":1211:1276  Property(propertyCount, msg.sender, _location, _rentPrice, false) */\n      iszero\n      iszero\n      dup2\n      mstore\n      pop\n        /* \"contracts/PropertyRental.sol\":1183:1193  properties */\n      0x00\n        /* \"contracts/PropertyRental.sol\":1183:1208  properties[propertyCount] */\n      dup1\n        /* \"contracts/PropertyRental.sol\":1194:1207  propertyCount */\n      sload(0x03)\n        /* \"contracts/PropertyRental.sol\":1183:1208  properties[propertyCount] */\n      dup2\n      mstore\n      0x20\n      add\n      swap1\n      dup2\n      mstore\n      0x20\n      add\n      0x00\n      keccak256\n        /* \"contracts/PropertyRental.sol\":1183:1276  properties[propertyCount] = Property(propertyCount, msg.sender, _location, _rentPrice, false) */\n      0x00\n      dup3\n      add\n      mload\n      dup2\n      0x00\n      add\n      sstore\n      0x20\n      dup3\n      add\n      mload\n      dup2\n      0x01\n      add\n      exp(0x0100, 0x00)\n      dup2\n      sload\n      dup2\n      0xffffffffffffffffffffffffffffffffffffffff\n      mul\n      not\n      and\n      swap1\n      dup4\n      0xffffffffffffffffffffffffffffffffffffffff\n      and\n      mul\n      or\n      swap1\n      sstore\n      pop\n      0x40\n      dup3\n      add\n      mload\n      dup2\n      0x02\n      add\n      swap1\n      dup2\n      tag_82\n      swap2\n      swap1\n      tag_58\n      jump\t// in\n    tag_82:\n      pop\n      0x60\n      dup3\n      add\n      mload\n      dup2\n      0x03\n      add\n      sstore\n      0x80\n      dup3\n      add\n      mload\n      dup2\n      0x04\n      add\n      exp(0x0100, 0x00)\n      dup2\n      sload\n      dup2\n      0xff\n      mul\n      not\n      and\n      swap1\n      dup4\n      iszero\n      iszero\n      mul\n      or\n      swap1\n      sstore\n      pop\n      swap1\n      pop\n      pop\n        /* \"contracts/PropertyRental.sol\":1292:1343  PropertyAdded(propertyCount, _location, _rentPrice) */\n      0x72160d73f26fe78bd52c0db283fe1aa0f2cc55c1e7d60d35b5911c611e01d69c\n        /* \"contracts/PropertyRental.sol\":1306:1319  propertyCount */\n      sload(0x03)\n        /* \"contracts/PropertyRental.sol\":1321:1330  _location */\n      dup4\n        /* \"contracts/PropertyRental.sol\":1332:1342  _rentPrice */\n      dup4\n        /* \"contracts/PropertyRental.sol\":1292:1343  PropertyAdded(propertyCount, _location, _rentPrice) */\n      mload(0x40)\n      tag_83\n      swap4\n      swap3\n      swap2\n      swap1\n      tag_84\n      jump\t// in\n    tag_83:\n      mload(0x40)\n      dup1\n      swap2\n      sub\n      swap1\n      log1\n        /* \"contracts/PropertyRental.sol\":1073:1351  function addProperty(string memory _location, uint256 _rentPrice) public {... */\n      pop\n      pop\n      jump\t// out\n        /* \"contracts/PropertyRental.sol\":522:568  mapping(uint256 => Property) public properties */\n    tag_40:\n      mstore(0x20, 0x00)\n      dup1\n      0x00\n      mstore\n      keccak256(0x00, 0x40)\n      0x00\n      swap2\n      pop\n      swap1\n      pop\n      dup1\n      0x00\n      add\n      sload\n      swap1\n      dup1\n      0x01\n      add\n      0x00\n      swap1\n      sload\n      swap1\n      0x0100\n      exp\n      swap1\n      div\n      0xffffffffffffffffffffffffffffffffffffffff\n      and\n      swap1\n      dup1\n      0x02\n      add\n      dup1\n      sload\n      tag_85\n      swap1\n      tag_66\n      jump\t// in\n    tag_85:\n      dup1\n      0x1f\n      add\n      0x20\n      dup1\n      swap2\n      div\n      mul\n      0x20\n      add\n      mload(0x40)\n      swap1\n      dup2\n      add\n      0x40\n      mstore\n      dup1\n      swap3\n      swap2\n      swap1\n      dup2\n      dup2\n      mstore\n      0x20\n      add\n      dup3\n      dup1\n      sload\n      tag_86\n      swap1\n      tag_66\n      jump\t// in\n    tag_86:\n      dup1\n      iszero\n      tag_87\n      jumpi\n      dup1\n      0x1f\n      lt\n      tag_88\n      jumpi\n      0x0100\n      dup1\n      dup4\n      sload\n      div\n      mul\n      dup4\n      mstore\n      swap2\n      0x20\n      add\n      swap2\n      jump(tag_87)\n    tag_88:\n      dup3\n      add\n      swap2\n      swap1\n      0x00\n      mstore\n      keccak256(0x00, 0x20)\n      swap1\n    tag_89:\n      dup2\n      sload\n      dup2\n      mstore\n      swap1\n      0x01\n      add\n      swap1\n      0x20\n      add\n      dup1\n      dup4\n      gt\n      tag_89\n      jumpi\n      dup3\n      swap1\n      sub\n      0x1f\n      and\n      dup3\n      add\n      swap2\n    tag_87:\n      pop\n      pop\n      pop\n      pop\n      pop\n      swap1\n      dup1\n      0x03\n      add\n      sload\n      swap1\n      dup1\n      0x04\n      add\n      0x00\n      swap1\n      sload\n      swap1\n      0x0100\n      exp\n      swap1\n      div\n      0xff\n      and\n      swap1\n      pop\n      dup6\n      jump\t// out\n        /* \"contracts/PropertyRental.sol\":575:616  mapping(address => Tenant) public tenants */\n    tag_46:\n      mstore(0x20, 0x01)\n      dup1\n      0x00\n      mstore\n      keccak256(0x00, 0x40)\n      0x00\n      swap2\n      pop\n      swap1\n      pop\n      dup1\n      0x00\n      add\n      0x00\n      swap1\n      sload\n      swap1\n      0x0100\n      exp\n      swap1\n      div\n      0xffffffffffffffffffffffffffffffffffffffff\n      and\n      swap1\n      dup1\n      0x01\n      add\n      sload\n      swap1\n      dup1\n      0x02\n      add\n      sload\n      swap1\n      dup1\n      0x03\n      add\n      sload\n      swap1\n      pop\n      dup5\n      jump\t// out\n        /* \"#utility.yul\":7:84   */\n    tag_90:\n        /* \"#utility.yul\":44:51   */\n      0x00\n        /* \"#utility.yul\":73:78   */\n      dup2\n        /* \"#utility.yul\":62:78   */\n      swap1\n      pop\n        /* \"#utility.yul\":7:84   */\n      swap2\n      swap1\n      pop\n      jump\t// out\n        /* \"#utility.yul\":90:208   */\n    tag_91:\n        /* \"#utility.yul\":177:201   */\n      tag_146\n        /* \"#utility.yul\":195:200   */\n      dup2\n        /* \"#utility.yul\":177:201   */\n      tag_90\n      jump\t// in\n    tag_146:\n        /* \"#utility.yul\":172:175   */\n      dup3\n        /* \"#utility.yul\":165:202   */\n      mstore\n        /* \"#utility.yul\":90:208   */\n      pop\n      pop\n      jump\t// out\n        /* \"#utility.yul\":214:436   */\n    tag_15:\n        /* \"#utility.yul\":307:311   */\n      0x00\n        /* \"#utility.yul\":345:347   */\n      0x20\n        /* \"#utility.yul\":334:343   */\n      dup3\n        /* \"#utility.yul\":330:348   */\n      add\n        /* \"#utility.yul\":322:348   */\n      swap1\n      pop\n        /* \"#utility.yul\":358:429   */\n      tag_148\n        /* \"#utility.yul\":426:427   */\n      0x00\n        /* \"#utility.yul\":415:424   */\n      dup4\n        /* \"#utility.yul\":411:428   */\n      add\n        /* \"#utility.yul\":402:408   */\n      dup5\n        /* \"#utility.yul\":358:429   */\n      tag_91\n      jump\t// in\n    tag_148:\n        /* \"#utility.yul\":214:436   */\n      swap3\n      swap2\n      pop\n      pop\n      jump\t// out\n        /* \"#utility.yul\":442:517   */\n    tag_92:\n        /* \"#utility.yul\":475:481   */\n      0x00\n        /* \"#utility.yul\":508:510   */\n      0x40\n        /* \"#utility.yul\":502:511   */\n      mload\n        /* \"#utility.yul\":492:511   */\n      swap1\n      pop\n        /* \"#utility.yul\":442:517   */\n      swap1\n      jump\t// out\n        /* \"#utility.yul\":523:640   */\n    tag_93:\n        /* \"#utility.yul\":632:633   */\n      0x00\n        /* \"#utility.yul\":629:630   */\n      dup1\n        /* \"#utility.yul\":622:634   */\n      revert\n        /* \"#utility.yul\":646:763   */\n    tag_94:\n        /* \"#utility.yul\":755:756   */\n      0x00\n        /* \"#utility.yul\":752:753   */\n      dup1\n        /* \"#utility.yul\":745:757   */\n      revert\n        /* \"#utility.yul\":769:891   */\n    tag_95:\n        /* \"#utility.yul\":842:866   */\n      tag_153\n        /* \"#utility.yul\":860:865   */\n      dup2\n        /* \"#utility.yul\":842:866   */\n      tag_90\n      jump\t// in\n    tag_153:\n        /* \"#utility.yul\":835:840   */\n      dup2\n        /* \"#utility.yul\":832:867   */\n      eq\n        /* \"#utility.yul\":822:885   */\n      tag_154\n      jumpi\n        /* \"#utility.yul\":881:882   */\n      0x00\n        /* \"#utility.yul\":878:879   */\n      dup1\n        /* \"#utility.yul\":871:883   */\n      revert\n        /* \"#utility.yul\":822:885   */\n    tag_154:\n        /* \"#utility.yul\":769:891   */\n      pop\n      jump\t// out\n        /* \"#utility.yul\":897:1036   */\n    tag_96:\n        /* \"#utility.yul\":943:948   */\n      0x00\n        /* \"#utility.yul\":981:987   */\n      dup2\n        /* \"#utility.yul\":968:988   */\n      calldataload\n        /* \"#utility.yul\":959:988   */\n      swap1\n      pop\n        /* \"#utility.yul\":997:1030   */\n      tag_156\n        /* \"#utility.yul\":1024:1029   */\n      dup2\n        /* \"#utility.yul\":997:1030   */\n      tag_95\n      jump\t// in\n    tag_156:\n        /* \"#utility.yul\":897:1036   */\n      swap3\n      swap2\n      pop\n      pop\n      jump\t// out\n        /* \"#utility.yul\":1042:1159   */\n    tag_97:\n        /* \"#utility.yul\":1151:1152   */\n      0x00\n        /* \"#utility.yul\":1148:1149   */\n      dup1\n        /* \"#utility.yul\":1141:1153   */\n      revert\n        /* \"#utility.yul\":1165:1282   */\n    tag_98:\n        /* \"#utility.yul\":1274:1275   */\n      0x00\n        /* \"#utility.yul\":1271:1272   */\n      dup1\n        /* \"#utility.yul\":1264:1276   */\n      revert\n        /* \"#utility.yul\":1288:1390   */\n    tag_99:\n        /* \"#utility.yul\":1329:1335   */\n      0x00\n        /* \"#utility.yul\":1380:1382   */\n      0x1f\n        /* \"#utility.yul\":1376:1383   */\n      not\n        /* \"#utility.yul\":1371:1373   */\n      0x1f\n        /* \"#utility.yul\":1364:1369   */\n      dup4\n        /* \"#utility.yul\":1360:1374   */\n      add\n        /* \"#utility.yul\":1356:1384   */\n      and\n        /* \"#utility.yul\":1346:1384   */\n      swap1\n      pop\n        /* \"#utility.yul\":1288:1390   */\n      swap2\n      swap1\n      pop\n      jump\t// out\n        /* \"#utility.yul\":1396:1576   */\n    tag_100:\n        /* \"#utility.yul\":1444:1521   */\n      0x4e487b7100000000000000000000000000000000000000000000000000000000\n        /* \"#utility.yul\":1441:1442   */\n      0x00\n        /* \"#utility.yul\":1434:1522   */\n      mstore\n        /* \"#utility.yul\":1541:1545   */\n      0x41\n        /* \"#utility.yul\":1538:1539   */\n      0x04\n        /* \"#utility.yul\":1531:1546   */\n      mstore\n        /* \"#utility.yul\":1565:1569   */\n      0x24\n        /* \"#utility.yul\":1562:1563   */\n      0x00\n        /* \"#utility.yul\":1555:1570   */\n      revert\n        /* \"#utility.yul\":1582:1863   */\n    tag_101:\n        /* \"#utility.yul\":1665:1692   */\n      tag_162\n        /* \"#utility.yul\":1687:1691   */\n      dup3\n        /* \"#utility.yul\":1665:1692   */\n      tag_99\n      jump\t// in\n    tag_162:\n        /* \"#utility.yul\":1657:1663   */\n      dup2\n        /* \"#utility.yul\":1653:1693   */\n      add\n        /* \"#utility.yul\":1795:1801   */\n      dup2\n        /* \"#utility.yul\":1783:1793   */\n      dup2\n        /* \"#utility.yul\":1780:1802   */\n      lt\n        /* \"#utility.yul\":1759:1777   */\n      0xffffffffffffffff\n        /* \"#utility.yul\":1747:1757   */\n      dup3\n        /* \"#utility.yul\":1744:1778   */\n      gt\n        /* \"#utility.yul\":1741:1803   */\n      or\n        /* \"#utility.yul\":1738:1826   */\n      iszero\n      tag_163\n      jumpi\n        /* \"#utility.yul\":1806:1824   */\n      tag_164\n      tag_100\n      jump\t// in\n    tag_164:\n        /* \"#utility.yul\":1738:1826   */\n    tag_163:\n        /* \"#utility.yul\":1846:1856   */\n      dup1\n        /* \"#utility.yul\":1842:1844   */\n      0x40\n        /* \"#utility.yul\":1835:1857   */\n      mstore\n        /* \"#utility.yul\":1625:1863   */\n      pop\n        /* \"#utility.yul\":1582:1863   */\n      pop\n      pop\n      jump\t// out\n        /* \"#utility.yul\":1869:1998   */\n    tag_102:\n        /* \"#utility.yul\":1903:1909   */\n      0x00\n        /* \"#utility.yul\":1930:1950   */\n      tag_166\n      tag_92\n      jump\t// in\n    tag_166:\n        /* \"#utility.yul\":1920:1950   */\n      swap1\n      pop\n        /* \"#utility.yul\":1959:1992   */\n      tag_167\n        /* \"#utility.yul\":1987:1991   */\n      dup3\n        /* \"#utility.yul\":1979:1985   */\n      dup3\n        /* \"#utility.yul\":1959:1992   */\n      tag_101\n      jump\t// in\n    tag_167:\n        /* \"#utility.yul\":1869:1998   */\n      swap2\n      swap1\n      pop\n      jump\t// out\n        /* \"#utility.yul\":2004:2312   */\n    tag_103:\n        /* \"#utility.yul\":2066:2070   */\n      0x00\n        /* \"#utility.yul\":2156:2174   */\n      0xffffffffffffffff\n        /* \"#utility.yul\":2148:2154   */\n      dup3\n        /* \"#utility.yul\":2145:2175   */\n      gt\n        /* \"#utility.yul\":2142:2198   */\n      iszero\n      tag_169\n      jumpi\n        /* \"#utility.yul\":2178:2196   */\n      tag_170\n      tag_100\n      jump\t// in\n    tag_170:\n        /* \"#utility.yul\":2142:2198   */\n    tag_169:\n        /* \"#utility.yul\":2216:2245   */\n      tag_171\n        /* \"#utility.yul\":2238:2244   */\n      dup3\n        /* \"#utility.yul\":2216:2245   */\n      tag_99\n      jump\t// in\n    tag_171:\n        /* \"#utility.yul\":2208:2245   */\n      swap1\n      pop\n        /* \"#utility.yul\":2300:2304   */\n      0x20\n        /* \"#utility.yul\":2294:2298   */\n      dup2\n        /* \"#utility.yul\":2290:2305   */\n      add\n        /* \"#utility.yul\":2282:2305   */\n      swap1\n      pop\n        /* \"#utility.yul\":2004:2312   */\n      swap2\n      swap1\n      pop\n      jump\t// out\n        /* \"#utility.yul\":2318:2464   */\n    tag_104:\n        /* \"#utility.yul\":2415:2421   */\n      dup3\n        /* \"#utility.yul\":2410:2413   */\n      dup2\n        /* \"#utility.yul\":2405:2408   */\n      dup4\n        /* \"#utility.yul\":2392:2422   */\n      calldatacopy\n        /* \"#utility.yul\":2456:2457   */\n      0x00\n        /* \"#utility.yul\":2447:2453   */\n      dup4\n        /* \"#utility.yul\":2442:2445   */\n      dup4\n        /* \"#utility.yul\":2438:2454   */\n      add\n        /* \"#utility.yul\":2431:2458   */\n      mstore\n        /* \"#utility.yul\":2318:2464   */\n      pop\n      pop\n      pop\n      jump\t// out\n        /* \"#utility.yul\":2470:2895   */\n    tag_105:\n        /* \"#utility.yul\":2548:2553   */\n      0x00\n        /* \"#utility.yul\":2573:2639   */\n      tag_174\n        /* \"#utility.yul\":2589:2638   */\n      tag_175\n        /* \"#utility.yul\":2631:2637   */\n      dup5\n        /* \"#utility.yul\":2589:2638   */\n      tag_103\n      jump\t// in\n    tag_175:\n        /* \"#utility.yul\":2573:2639   */\n      tag_102\n      jump\t// in\n    tag_174:\n        /* \"#utility.yul\":2564:2639   */\n      swap1\n      pop\n        /* \"#utility.yul\":2662:2668   */\n      dup3\n        /* \"#utility.yul\":2655:2660   */\n      dup2\n        /* \"#utility.yul\":2648:2669   */\n      mstore\n        /* \"#utility.yul\":2700:2704   */\n      0x20\n        /* \"#utility.yul\":2693:2698   */\n      dup2\n        /* \"#utility.yul\":2689:2705   */\n      add\n        /* \"#utility.yul\":2738:2741   */\n      dup5\n        /* \"#utility.yul\":2729:2735   */\n      dup5\n        /* \"#utility.yul\":2724:2727   */\n      dup5\n        /* \"#utility.yul\":2720:2736   */\n      add\n        /* \"#utility.yul\":2717:2742   */\n      gt\n        /* \"#utility.yul\":2714:2826   */\n      iszero\n      tag_176\n      jumpi\n        /* \"#utility.yul\":2745:2824   */\n      tag_177\n      tag_98\n      jump\t// in\n    tag_177:\n        /* \"#utility.yul\":2714:2826   */\n    tag_176:\n        /* \"#utility.yul\":2835:2889   */\n      tag_178\n        /* \"#utility.yul\":2882:2888   */\n      dup5\n        /* \"#utility.yul\":2877:2880   */\n      dup3\n        /* \"#utility.yul\":2872:2875   */\n      dup6\n        /* \"#utility.yul\":2835:2889   */\n      tag_104\n      jump\t// in\n    tag_178:\n        /* \"#utility.yul\":2554:2895   */\n      pop\n        /* \"#utility.yul\":2470:2895   */\n      swap4\n      swap3\n      pop\n      pop\n      pop\n      jump\t// out\n        /* \"#utility.yul\":2915:3255   */\n    tag_106:\n        /* \"#utility.yul\":2971:2976   */\n      0x00\n        /* \"#utility.yul\":3020:3023   */\n      dup3\n        /* \"#utility.yul\":3013:3017   */\n      0x1f\n        /* \"#utility.yul\":3005:3011   */\n      dup4\n        /* \"#utility.yul\":3001:3018   */\n      add\n        /* \"#utility.yul\":2997:3024   */\n      slt\n        /* \"#utility.yul\":2987:3109   */\n      tag_180\n      jumpi\n        /* \"#utility.yul\":3028:3107   */\n      tag_181\n      tag_97\n      jump\t// in\n    tag_181:\n        /* \"#utility.yul\":2987:3109   */\n    tag_180:\n        /* \"#utility.yul\":3145:3151   */\n      dup2\n        /* \"#utility.yul\":3132:3152   */\n      calldataload\n        /* \"#utility.yul\":3170:3249   */\n      tag_182\n        /* \"#utility.yul\":3245:3248   */\n      dup5\n        /* \"#utility.yul\":3237:3243   */\n      dup3\n        /* \"#utility.yul\":3230:3234   */\n      0x20\n        /* \"#utility.yul\":3222:3228   */\n      dup7\n        /* \"#utility.yul\":3218:3235   */\n      add\n        /* \"#utility.yul\":3170:3249   */\n      tag_105\n      jump\t// in\n    tag_182:\n        /* \"#utility.yul\":3161:3249   */\n      swap2\n      pop\n        /* \"#utility.yul\":2977:3255   */\n      pop\n        /* \"#utility.yul\":2915:3255   */\n      swap3\n      swap2\n      pop\n      pop\n      jump\t// out\n        /* \"#utility.yul\":3261:3915   */\n    tag_18:\n        /* \"#utility.yul\":3339:3345   */\n      0x00\n        /* \"#utility.yul\":3347:3353   */\n      dup1\n        /* \"#utility.yul\":3396:3398   */\n      0x40\n        /* \"#utility.yul\":3384:3393   */\n      dup4\n        /* \"#utility.yul\":3375:3382   */\n      dup6\n        /* \"#utility.yul\":3371:3394   */\n      sub\n        /* \"#utility.yul\":3367:3399   */\n      slt\n        /* \"#utility.yul\":3364:3483   */\n      iszero\n      tag_184\n      jumpi\n        /* \"#utility.yul\":3402:3481   */\n      tag_185\n      tag_93\n      jump\t// in\n    tag_185:\n        /* \"#utility.yul\":3364:3483   */\n    tag_184:\n        /* \"#utility.yul\":3522:3523   */\n      0x00\n        /* \"#utility.yul\":3547:3600   */\n      tag_186\n        /* \"#utility.yul\":3592:3599   */\n      dup6\n        /* \"#utility.yul\":3583:3589   */\n      dup3\n        /* \"#utility.yul\":3572:3581   */\n      dup7\n        /* \"#utility.yul\":3568:3590   */\n      add\n        /* \"#utility.yul\":3547:3600   */\n      tag_96\n      jump\t// in\n    tag_186:\n        /* \"#utility.yul\":3537:3600   */\n      swap3\n      pop\n        /* \"#utility.yul\":3493:3610   */\n      pop\n        /* \"#utility.yul\":3677:3679   */\n      0x20\n        /* \"#utility.yul\":3666:3675   */\n      dup4\n        /* \"#utility.yul\":3662:3680   */\n      add\n        /* \"#utility.yul\":3649:3681   */\n      calldataload\n        /* \"#utility.yul\":3708:3726   */\n      0xffffffffffffffff\n        /* \"#utility.yul\":3700:3706   */\n      dup2\n        /* \"#utility.yul\":3697:3727   */\n      gt\n        /* \"#utility.yul\":3694:3811   */\n      iszero\n      tag_187\n      jumpi\n        /* \"#utility.yul\":3730:3809   */\n      tag_188\n      tag_94\n      jump\t// in\n    tag_188:\n        /* \"#utility.yul\":3694:3811   */\n    tag_187:\n        /* \"#utility.yul\":3835:3898   */\n      tag_189\n        /* \"#utility.yul\":3890:3897   */\n      dup6\n        /* \"#utility.yul\":3881:3887   */\n      dup3\n        /* \"#utility.yul\":3870:3879   */\n      dup7\n        /* \"#utility.yul\":3866:3888   */\n      add\n        /* \"#utility.yul\":3835:3898   */\n      tag_106\n      jump\t// in\n    tag_189:\n        /* \"#utility.yul\":3825:3898   */\n      swap2\n      pop\n        /* \"#utility.yul\":3620:3908   */\n      pop\n        /* \"#utility.yul\":3261:3915   */\n      swap3\n      pop\n      swap3\n      swap1\n      pop\n      jump\t// out\n        /* \"#utility.yul\":3921:4395   */\n    tag_22:\n        /* \"#utility.yul\":3989:3995   */\n      0x00\n        /* \"#utility.yul\":3997:4003   */\n      dup1\n        /* \"#utility.yul\":4046:4048   */\n      0x40\n        /* \"#utility.yul\":4034:4043   */\n      dup4\n        /* \"#utility.yul\":4025:4032   */\n      dup6\n        /* \"#utility.yul\":4021:4044   */\n      sub\n        /* \"#utility.yul\":4017:4049   */\n      slt\n        /* \"#utility.yul\":4014:4133   */\n      iszero\n      tag_191\n      jumpi\n        /* \"#utility.yul\":4052:4131   */\n      tag_192\n      tag_93\n      jump\t// in\n    tag_192:\n        /* \"#utility.yul\":4014:4133   */\n    tag_191:\n        /* \"#utility.yul\":4172:4173   */\n      0x00\n        /* \"#utility.yul\":4197:4250   */\n      tag_193\n        /* \"#utility.yul\":4242:4249   */\n      dup6\n        /* \"#utility.yul\":4233:4239   */\n      dup3\n        /* \"#utility.yul\":4222:4231   */\n      dup7\n        /* \"#utility.yul\":4218:4240   */\n      add\n        /* \"#utility.yul\":4197:4250   */\n      tag_96\n      jump\t// in\n    tag_193:\n        /* \"#utility.yul\":4187:4250   */\n      swap3\n      pop\n        /* \"#utility.yul\":4143:4260   */\n      pop\n        /* \"#utility.yul\":4299:4301   */\n      0x20\n        /* \"#utility.yul\":4325:4378   */\n      tag_194\n        /* \"#utility.yul\":4370:4377   */\n      dup6\n        /* \"#utility.yul\":4361:4367   */\n      dup3\n        /* \"#utility.yul\":4350:4359   */\n      dup7\n        /* \"#utility.yul\":4346:4368   */\n      add\n        /* \"#utility.yul\":4325:4378   */\n      tag_96\n      jump\t// in\n    tag_194:\n        /* \"#utility.yul\":4315:4378   */\n      swap2\n      pop\n        /* \"#utility.yul\":4270:4388   */\n      pop\n        /* \"#utility.yul\":3921:4395   */\n      swap3\n      pop\n      swap3\n      swap1\n      pop\n      jump\t// out\n        /* \"#utility.yul\":4401:4527   */\n    tag_107:\n        /* \"#utility.yul\":4438:4445   */\n      0x00\n        /* \"#utility.yul\":4478:4520   */\n      0xffffffffffffffffffffffffffffffffffffffff\n        /* \"#utility.yul\":4471:4476   */\n      dup3\n        /* \"#utility.yul\":4467:4521   */\n      and\n        /* \"#utility.yul\":4456:4521   */\n      swap1\n      pop\n        /* \"#utility.yul\":4401:4527   */\n      swap2\n      swap1\n      pop\n      jump\t// out\n        /* \"#utility.yul\":4533:4629   */\n    tag_108:\n        /* \"#utility.yul\":4570:4577   */\n      0x00\n        /* \"#utility.yul\":4599:4623   */\n      tag_197\n        /* \"#utility.yul\":4617:4622   */\n      dup3\n        /* \"#utility.yul\":4599:4623   */\n      tag_107\n      jump\t// in\n    tag_197:\n        /* \"#utility.yul\":4588:4623   */\n      swap1\n      pop\n        /* \"#utility.yul\":4533:4629   */\n      swap2\n      swap1\n      pop\n      jump\t// out\n        /* \"#utility.yul\":4635:4753   */\n    tag_109:\n        /* \"#utility.yul\":4722:4746   */\n      tag_199\n        /* \"#utility.yul\":4740:4745   */\n      dup2\n        /* \"#utility.yul\":4722:4746   */\n      tag_108\n      jump\t// in\n    tag_199:\n        /* \"#utility.yul\":4717:4720   */\n      dup3\n        /* \"#utility.yul\":4710:4747   */\n      mstore\n        /* \"#utility.yul\":4635:4753   */\n      pop\n      pop\n      jump\t// out\n        /* \"#utility.yul\":4759:4858   */\n    tag_110:\n        /* \"#utility.yul\":4811:4817   */\n      0x00\n        /* \"#utility.yul\":4845:4850   */\n      dup2\n        /* \"#utility.yul\":4839:4851   */\n      mload\n        /* \"#utility.yul\":4829:4851   */\n      swap1\n      pop\n        /* \"#utility.yul\":4759:4858   */\n      swap2\n      swap1\n      pop\n      jump\t// out\n        /* \"#utility.yul\":4864:5033   */\n    tag_111:\n        /* \"#utility.yul\":4948:4959   */\n      0x00\n        /* \"#utility.yul\":4982:4988   */\n      dup3\n        /* \"#utility.yul\":4977:4980   */\n      dup3\n        /* \"#utility.yul\":4970:4989   */\n      mstore\n        /* \"#utility.yul\":5022:5026   */\n      0x20\n        /* \"#utility.yul\":5017:5020   */\n      dup3\n        /* \"#utility.yul\":5013:5027   */\n      add\n        /* \"#utility.yul\":4998:5027   */\n      swap1\n      pop\n        /* \"#utility.yul\":4864:5033   */\n      swap3\n      swap2\n      pop\n      pop\n      jump\t// out\n        /* \"#utility.yul\":5039:5285   */\n    tag_112:\n        /* \"#utility.yul\":5120:5121   */\n      0x00\n        /* \"#utility.yul\":5130:5243   */\n    tag_203:\n        /* \"#utility.yul\":5144:5150   */\n      dup4\n        /* \"#utility.yul\":5141:5142   */\n      dup2\n        /* \"#utility.yul\":5138:5151   */\n      lt\n        /* \"#utility.yul\":5130:5243   */\n      iszero\n      tag_205\n      jumpi\n        /* \"#utility.yul\":5229:5230   */\n      dup1\n        /* \"#utility.yul\":5224:5227   */\n      dup3\n        /* \"#utility.yul\":5220:5231   */\n      add\n        /* \"#utility.yul\":5214:5232   */\n      mload\n        /* \"#utility.yul\":5210:5211   */\n      dup2\n        /* \"#utility.yul\":5205:5208   */\n      dup5\n        /* \"#utility.yul\":5201:5212   */\n      add\n        /* \"#utility.yul\":5194:5233   */\n      mstore\n        /* \"#utility.yul\":5166:5168   */\n      0x20\n        /* \"#utility.yul\":5163:5164   */\n      dup2\n        /* \"#utility.yul\":5159:5169   */\n      add\n        /* \"#utility.yul\":5154:5169   */\n      swap1\n      pop\n        /* \"#utility.yul\":5130:5243   */\n      jump(tag_203)\n    tag_205:\n        /* \"#utility.yul\":5277:5278   */\n      0x00\n        /* \"#utility.yul\":5268:5274   */\n      dup5\n        /* \"#utility.yul\":5263:5266   */\n      dup5\n        /* \"#utility.yul\":5259:5275   */\n      add\n        /* \"#utility.yul\":5252:5279   */\n      mstore\n        /* \"#utility.yul\":5101:5285   */\n      pop\n        /* \"#utility.yul\":5039:5285   */\n      pop\n      pop\n      pop\n      jump\t// out\n        /* \"#utility.yul\":5291:5668   */\n    tag_113:\n        /* \"#utility.yul\":5379:5382   */\n      0x00\n        /* \"#utility.yul\":5407:5446   */\n      tag_207\n        /* \"#utility.yul\":5440:5445   */\n      dup3\n        /* \"#utility.yul\":5407:5446   */\n      tag_110\n      jump\t// in\n    tag_207:\n        /* \"#utility.yul\":5462:5533   */\n      tag_208\n        /* \"#utility.yul\":5526:5532   */\n      dup2\n        /* \"#utility.yul\":5521:5524   */\n      dup6\n        /* \"#utility.yul\":5462:5533   */\n      tag_111\n      jump\t// in\n    tag_208:\n        /* \"#utility.yul\":5455:5533   */\n      swap4\n      pop\n        /* \"#utility.yul\":5542:5607   */\n      tag_209\n        /* \"#utility.yul\":5600:5606   */\n      dup2\n        /* \"#utility.yul\":5595:5598   */\n      dup6\n        /* \"#utility.yul\":5588:5592   */\n      0x20\n        /* \"#utility.yul\":5581:5586   */\n      dup7\n        /* \"#utility.yul\":5577:5593   */\n      add\n        /* \"#utility.yul\":5542:5607   */\n      tag_112\n      jump\t// in\n    tag_209:\n        /* \"#utility.yul\":5632:5661   */\n      tag_210\n        /* \"#utility.yul\":5654:5660   */\n      dup2\n        /* \"#utility.yul\":5632:5661   */\n      tag_99\n      jump\t// in\n    tag_210:\n        /* \"#utility.yul\":5627:5630   */\n      dup5\n        /* \"#utility.yul\":5623:5662   */\n      add\n        /* \"#utility.yul\":5616:5662   */\n      swap2\n      pop\n        /* \"#utility.yul\":5383:5668   */\n      pop\n        /* \"#utility.yul\":5291:5668   */\n      swap3\n      swap2\n      pop\n      pop\n      jump\t// out\n        /* \"#utility.yul\":5674:6318   */\n    tag_25:\n        /* \"#utility.yul\":5871:5875   */\n      0x00\n        /* \"#utility.yul\":5909:5912   */\n      0x80\n        /* \"#utility.yul\":5898:5907   */\n      dup3\n        /* \"#utility.yul\":5894:5913   */\n      add\n        /* \"#utility.yul\":5886:5913   */\n      swap1\n      pop\n        /* \"#utility.yul\":5923:5994   */\n      tag_212\n        /* \"#utility.yul\":5991:5992   */\n      0x00\n        /* \"#utility.yul\":5980:5989   */\n      dup4\n        /* \"#utility.yul\":5976:5993   */\n      add\n        /* \"#utility.yul\":5967:5973   */\n      dup8\n        /* \"#utility.yul\":5923:5994   */\n      tag_91\n      jump\t// in\n    tag_212:\n        /* \"#utility.yul\":6004:6076   */\n      tag_213\n        /* \"#utility.yul\":6072:6074   */\n      0x20\n        /* \"#utility.yul\":6061:6070   */\n      dup4\n        /* \"#utility.yul\":6057:6075   */\n      add\n        /* \"#utility.yul\":6048:6054   */\n      dup7\n        /* \"#utility.yul\":6004:6076   */\n      tag_109\n      jump\t// in\n    tag_213:\n        /* \"#utility.yul\":6123:6132   */\n      dup2\n        /* \"#utility.yul\":6117:6121   */\n      dup2\n        /* \"#utility.yul\":6113:6133   */\n      sub\n        /* \"#utility.yul\":6108:6110   */\n      0x40\n        /* \"#utility.yul\":6097:6106   */\n      dup4\n        /* \"#utility.yul\":6093:6111   */\n      add\n        /* \"#utility.yul\":6086:6134   */\n      mstore\n        /* \"#utility.yul\":6151:6229   */\n      tag_214\n        /* \"#utility.yul\":6224:6228   */\n      dup2\n        /* \"#utility.yul\":6215:6221   */\n      dup6\n        /* \"#utility.yul\":6151:6229   */\n      tag_113\n      jump\t// in\n    tag_214:\n        /* \"#utility.yul\":6143:6229   */\n      swap1\n      pop\n        /* \"#utility.yul\":6239:6311   */\n      tag_215\n        /* \"#utility.yul\":6307:6309   */\n      0x60\n        /* \"#utility.yul\":6296:6305   */\n      dup4\n        /* \"#utility.yul\":6292:6310   */\n      add\n        /* \"#utility.yul\":6283:6289   */\n      dup5\n        /* \"#utility.yul\":6239:6311   */\n      tag_91\n      jump\t// in\n    tag_215:\n        /* \"#utility.yul\":5674:6318   */\n      swap6\n      swap5\n      pop\n      pop\n      pop\n      pop\n      pop\n      jump\t// out\n        /* \"#utility.yul\":6324:6943   */\n    tag_31:\n        /* \"#utility.yul\":6401:6407   */\n      0x00\n        /* \"#utility.yul\":6409:6415   */\n      dup1\n        /* \"#utility.yul\":6417:6423   */\n      0x00\n        /* \"#utility.yul\":6466:6468   */\n      0x60\n        /* \"#utility.yul\":6454:6463   */\n      dup5\n        /* \"#utility.yul\":6445:6452   */\n      dup7\n        /* \"#utility.yul\":6441:6464   */\n      sub\n        /* \"#utility.yul\":6437:6469   */\n      slt\n        /* \"#utility.yul\":6434:6553   */\n      iszero\n      tag_217\n      jumpi\n        /* \"#utility.yul\":6472:6551   */\n      tag_218\n      tag_93\n      jump\t// in\n    tag_218:\n        /* \"#utility.yul\":6434:6553   */\n    tag_217:\n        /* \"#utility.yul\":6592:6593   */\n      0x00\n        /* \"#utility.yul\":6617:6670   */\n      tag_219\n        /* \"#utility.yul\":6662:6669   */\n      dup7\n        /* \"#utility.yul\":6653:6659   */\n      dup3\n        /* \"#utility.yul\":6642:6651   */\n      dup8\n        /* \"#utility.yul\":6638:6660   */\n      add\n        /* \"#utility.yul\":6617:6670   */\n      tag_96\n      jump\t// in\n    tag_219:\n        /* \"#utility.yul\":6607:6670   */\n      swap4\n      pop\n        /* \"#utility.yul\":6563:6680   */\n      pop\n        /* \"#utility.yul\":6719:6721   */\n      0x20\n        /* \"#utility.yul\":6745:6798   */\n      tag_220\n        /* \"#utility.yul\":6790:6797   */\n      dup7\n        /* \"#utility.yul\":6781:6787   */\n      dup3\n        /* \"#utility.yul\":6770:6779   */\n      dup8\n        /* \"#utility.yul\":6766:6788   */\n      add\n        /* \"#utility.yul\":6745:6798   */\n      tag_96\n      jump\t// in\n    tag_220:\n        /* \"#utility.yul\":6735:6798   */\n      swap3\n      pop\n        /* \"#utility.yul\":6690:6808   */\n      pop\n        /* \"#utility.yul\":6847:6849   */\n      0x40\n        /* \"#utility.yul\":6873:6926   */\n      tag_221\n        /* \"#utility.yul\":6918:6925   */\n      dup7\n        /* \"#utility.yul\":6909:6915   */\n      dup3\n        /* \"#utility.yul\":6898:6907   */\n      dup8\n        /* \"#utility.yul\":6894:6916   */\n      add\n        /* \"#utility.yul\":6873:6926   */\n      tag_96\n      jump\t// in\n    tag_221:\n        /* \"#utility.yul\":6863:6926   */\n      swap2\n      pop\n        /* \"#utility.yul\":6818:6936   */\n      pop\n        /* \"#utility.yul\":6324:6943   */\n      swap3\n      pop\n      swap3\n      pop\n      swap3\n      jump\t// out\n        /* \"#utility.yul\":6949:7603   */\n    tag_35:\n        /* \"#utility.yul\":7027:7033   */\n      0x00\n        /* \"#utility.yul\":7035:7041   */\n      dup1\n        /* \"#utility.yul\":7084:7086   */\n      0x40\n        /* \"#utility.yul\":7072:7081   */\n      dup4\n        /* \"#utility.yul\":7063:7070   */\n      dup6\n        /* \"#utility.yul\":7059:7082   */\n      sub\n        /* \"#utility.yul\":7055:7087   */\n      slt\n        /* \"#utility.yul\":7052:7171   */\n      iszero\n      tag_223\n      jumpi\n        /* \"#utility.yul\":7090:7169   */\n      tag_224\n      tag_93\n      jump\t// in\n    tag_224:\n        /* \"#utility.yul\":7052:7171   */\n    tag_223:\n        /* \"#utility.yul\":7238:7239   */\n      0x00\n        /* \"#utility.yul\":7227:7236   */\n      dup4\n        /* \"#utility.yul\":7223:7240   */\n      add\n        /* \"#utility.yul\":7210:7241   */\n      calldataload\n        /* \"#utility.yul\":7268:7286   */\n      0xffffffffffffffff\n        /* \"#utility.yul\":7260:7266   */\n      dup2\n        /* \"#utility.yul\":7257:7287   */\n      gt\n        /* \"#utility.yul\":7254:7371   */\n      iszero\n      tag_225\n      jumpi\n        /* \"#utility.yul\":7290:7369   */\n      tag_226\n      tag_94\n      jump\t// in\n    tag_226:\n        /* \"#utility.yul\":7254:7371   */\n    tag_225:\n        /* \"#utility.yul\":7395:7458   */\n      tag_227\n        /* \"#utility.yul\":7450:7457   */\n      dup6\n        /* \"#utility.yul\":7441:7447   */\n      dup3\n        /* \"#utility.yul\":7430:7439   */\n      dup7\n        /* \"#utility.yul\":7426:7448   */\n      add\n        /* \"#utility.yul\":7395:7458   */\n      tag_106\n      jump\t// in\n    tag_227:\n        /* \"#utility.yul\":7385:7458   */\n      swap3\n      pop\n        /* \"#utility.yul\":7181:7468   */\n      pop\n        /* \"#utility.yul\":7507:7509   */\n      0x20\n        /* \"#utility.yul\":7533:7586   */\n      tag_228\n        /* \"#utility.yul\":7578:7585   */\n      dup6\n        /* \"#utility.yul\":7569:7575   */\n      dup3\n        /* \"#utility.yul\":7558:7567   */\n      dup7\n        /* \"#utility.yul\":7554:7576   */\n      add\n        /* \"#utility.yul\":7533:7586   */\n      tag_96\n      jump\t// in\n    tag_228:\n        /* \"#utility.yul\":7523:7586   */\n      swap2\n      pop\n        /* \"#utility.yul\":7478:7596   */\n      pop\n        /* \"#utility.yul\":6949:7603   */\n      swap3\n      pop\n      swap3\n      swap1\n      pop\n      jump\t// out\n        /* \"#utility.yul\":7609:7938   */\n    tag_39:\n        /* \"#utility.yul\":7668:7674   */\n      0x00\n        /* \"#utility.yul\":7717:7719   */\n      0x20\n        /* \"#utility.yul\":7705:7714   */\n      dup3\n        /* \"#utility.yul\":7696:7703   */\n      dup5\n        /* \"#utility.yul\":7692:7715   */\n      sub\n        /* \"#utility.yul\":7688:7720   */\n      slt\n        /* \"#utility.yul\":7685:7804   */\n      iszero\n      tag_230\n      jumpi\n        /* \"#utility.yul\":7723:7802   */\n      tag_231\n      tag_93\n      jump\t// in\n    tag_231:\n        /* \"#utility.yul\":7685:7804   */\n    tag_230:\n        /* \"#utility.yul\":7843:7844   */\n      0x00\n        /* \"#utility.yul\":7868:7921   */\n      tag_232\n        /* \"#utility.yul\":7913:7920   */\n      dup5\n        /* \"#utility.yul\":7904:7910   */\n      dup3\n        /* \"#utility.yul\":7893:7902   */\n      dup6\n        /* \"#utility.yul\":7889:7911   */\n      add\n        /* \"#utility.yul\":7868:7921   */\n      tag_96\n      jump\t// in\n    tag_232:\n        /* \"#utility.yul\":7858:7921   */\n      swap2\n      pop\n        /* \"#utility.yul\":7814:7931   */\n      pop\n        /* \"#utility.yul\":7609:7938   */\n      swap3\n      swap2\n      pop\n      pop\n      jump\t// out\n        /* \"#utility.yul\":7944:8034   */\n    tag_114:\n        /* \"#utility.yul\":7978:7985   */\n      0x00\n        /* \"#utility.yul\":8021:8026   */\n      dup2\n        /* \"#utility.yul\":8014:8027   */\n      iszero\n        /* \"#utility.yul\":8007:8028   */\n      iszero\n        /* \"#utility.yul\":7996:8028   */\n      swap1\n      pop\n        /* \"#utility.yul\":7944:8034   */\n      swap2\n      swap1\n      pop\n      jump\t// out\n        /* \"#utility.yul\":8040:8149   */\n    tag_115:\n        /* \"#utility.yul\":8121:8142   */\n      tag_235\n        /* \"#utility.yul\":8136:8141   */\n      dup2\n        /* \"#utility.yul\":8121:8142   */\n      tag_114\n      jump\t// in\n    tag_235:\n        /* \"#utility.yul\":8116:8119   */\n      dup3\n        /* \"#utility.yul\":8109:8143   */\n      mstore\n        /* \"#utility.yul\":8040:8149   */\n      pop\n      pop\n      jump\t// out\n        /* \"#utility.yul\":8155:8898   */\n    tag_42:\n        /* \"#utility.yul\":8374:8378   */\n      0x00\n        /* \"#utility.yul\":8412:8415   */\n      0xa0\n        /* \"#utility.yul\":8401:8410   */\n      dup3\n        /* \"#utility.yul\":8397:8416   */\n      add\n        /* \"#utility.yul\":8389:8416   */\n      swap1\n      pop\n        /* \"#utility.yul\":8426:8497   */\n      tag_237\n        /* \"#utility.yul\":8494:8495   */\n      0x00\n        /* \"#utility.yul\":8483:8492   */\n      dup4\n        /* \"#utility.yul\":8479:8496   */\n      add\n        /* \"#utility.yul\":8470:8476   */\n      dup9\n        /* \"#utility.yul\":8426:8497   */\n      tag_91\n      jump\t// in\n    tag_237:\n        /* \"#utility.yul\":8507:8579   */\n      tag_238\n        /* \"#utility.yul\":8575:8577   */\n      0x20\n        /* \"#utility.yul\":8564:8573   */\n      dup4\n        /* \"#utility.yul\":8560:8578   */\n      add\n        /* \"#utility.yul\":8551:8557   */\n      dup8\n        /* \"#utility.yul\":8507:8579   */\n      tag_109\n      jump\t// in\n    tag_238:\n        /* \"#utility.yul\":8626:8635   */\n      dup2\n        /* \"#utility.yul\":8620:8624   */\n      dup2\n        /* \"#utility.yul\":8616:8636   */\n      sub\n        /* \"#utility.yul\":8611:8613   */\n      0x40\n        /* \"#utility.yul\":8600:8609   */\n      dup4\n        /* \"#utility.yul\":8596:8614   */\n      add\n        /* \"#utility.yul\":8589:8637   */\n      mstore\n        /* \"#utility.yul\":8654:8732   */\n      tag_239\n        /* \"#utility.yul\":8727:8731   */\n      dup2\n        /* \"#utility.yul\":8718:8724   */\n      dup7\n        /* \"#utility.yul\":8654:8732   */\n      tag_113\n      jump\t// in\n    tag_239:\n        /* \"#utility.yul\":8646:8732   */\n      swap1\n      pop\n        /* \"#utility.yul\":8742:8814   */\n      tag_240\n        /* \"#utility.yul\":8810:8812   */\n      0x60\n        /* \"#utility.yul\":8799:8808   */\n      dup4\n        /* \"#utility.yul\":8795:8813   */\n      add\n        /* \"#utility.yul\":8786:8792   */\n      dup6\n        /* \"#utility.yul\":8742:8814   */\n      tag_91\n      jump\t// in\n    tag_240:\n        /* \"#utility.yul\":8824:8891   */\n      tag_241\n        /* \"#utility.yul\":8886:8889   */\n      0x80\n        /* \"#utility.yul\":8875:8884   */\n      dup4\n        /* \"#utility.yul\":8871:8890   */\n      add\n        /* \"#utility.yul\":8862:8868   */\n      dup5\n        /* \"#utility.yul\":8824:8891   */\n      tag_115\n      jump\t// in\n    tag_241:\n        /* \"#utility.yul\":8155:8898   */\n      swap7\n      swap6\n      pop\n      pop\n      pop\n      pop\n      pop\n      pop\n      jump\t// out\n        /* \"#utility.yul\":8904:9026   */\n    tag_116:\n        /* \"#utility.yul\":8977:9001   */\n      tag_243\n        /* \"#utility.yul\":8995:9000   */\n      dup2\n        /* \"#utility.yul\":8977:9001   */\n      tag_108\n      jump\t// in\n    tag_243:\n        /* \"#utility.yul\":8970:8975   */\n      dup2\n        /* \"#utility.yul\":8967:9002   */\n      eq\n        /* \"#utility.yul\":8957:9020   */\n      tag_244\n      jumpi\n        /* \"#utility.yul\":9016:9017   */\n      0x00\n        /* \"#utility.yul\":9013:9014   */\n      dup1\n        /* \"#utility.yul\":9006:9018   */\n      revert\n        /* \"#utility.yul\":8957:9020   */\n    tag_244:\n        /* \"#utility.yul\":8904:9026   */\n      pop\n      jump\t// out\n        /* \"#utility.yul\":9032:9171   */\n    tag_117:\n        /* \"#utility.yul\":9078:9083   */\n      0x00\n        /* \"#utility.yul\":9116:9122   */\n      dup2\n        /* \"#utility.yul\":9103:9123   */\n      calldataload\n        /* \"#utility.yul\":9094:9123   */\n      swap1\n      pop\n        /* \"#utility.yul\":9132:9165   */\n      tag_246\n        /* \"#utility.yul\":9159:9164   */\n      dup2\n        /* \"#utility.yul\":9132:9165   */\n      tag_116\n      jump\t// in\n    tag_246:\n        /* \"#utility.yul\":9032:9171   */\n      swap3\n      swap2\n      pop\n      pop\n      jump\t// out\n        /* \"#utility.yul\":9177:9506   */\n    tag_45:\n        /* \"#utility.yul\":9236:9242   */\n      0x00\n        /* \"#utility.yul\":9285:9287   */\n      0x20\n        /* \"#utility.yul\":9273:9282   */\n      dup3\n        /* \"#utility.yul\":9264:9271   */\n      dup5\n        /* \"#utility.yul\":9260:9283   */\n      sub\n        /* \"#utility.yul\":9256:9288   */\n      slt\n        /* \"#utility.yul\":9253:9372   */\n      iszero\n      tag_248\n      jumpi\n        /* \"#utility.yul\":9291:9370   */\n      tag_249\n      tag_93\n      jump\t// in\n    tag_249:\n        /* \"#utility.yul\":9253:9372   */\n    tag_248:\n        /* \"#utility.yul\":9411:9412   */\n      0x00\n        /* \"#utility.yul\":9436:9489   */\n      tag_250\n        /* \"#utility.yul\":9481:9488   */\n      dup5\n        /* \"#utility.yul\":9472:9478   */\n      dup3\n        /* \"#utility.yul\":9461:9470   */\n      dup6\n        /* \"#utility.yul\":9457:9479   */\n      add\n        /* \"#utility.yul\":9436:9489   */\n      tag_117\n      jump\t// in\n    tag_250:\n        /* \"#utility.yul\":9426:9489   */\n      swap2\n      pop\n        /* \"#utility.yul\":9382:9499   */\n      pop\n        /* \"#utility.yul\":9177:9506   */\n      swap3\n      swap2\n      pop\n      pop\n      jump\t// out\n        /* \"#utility.yul\":9512:10065   */\n    tag_48:\n        /* \"#utility.yul\":9689:9693   */\n      0x00\n        /* \"#utility.yul\":9727:9730   */\n      0x80\n        /* \"#utility.yul\":9716:9725   */\n      dup3\n        /* \"#utility.yul\":9712:9731   */\n      add\n        /* \"#utility.yul\":9704:9731   */\n      swap1\n      pop\n        /* \"#utility.yul\":9741:9812   */\n      tag_252\n        /* \"#utility.yul\":9809:9810   */\n      0x00\n        /* \"#utility.yul\":9798:9807   */\n      dup4\n        /* \"#utility.yul\":9794:9811   */\n      add\n        /* \"#utility.yul\":9785:9791   */\n      dup8\n        /* \"#utility.yul\":9741:9812   */\n      tag_109\n      jump\t// in\n    tag_252:\n        /* \"#utility.yul\":9822:9894   */\n      tag_253\n        /* \"#utility.yul\":9890:9892   */\n      0x20\n        /* \"#utility.yul\":9879:9888   */\n      dup4\n        /* \"#utility.yul\":9875:9893   */\n      add\n        /* \"#utility.yul\":9866:9872   */\n      dup7\n        /* \"#utility.yul\":9822:9894   */\n      tag_91\n      jump\t// in\n    tag_253:\n        /* \"#utility.yul\":9904:9976   */\n      tag_254\n        /* \"#utility.yul\":9972:9974   */\n      0x40\n        /* \"#utility.yul\":9961:9970   */\n      dup4\n        /* \"#utility.yul\":9957:9975   */\n      add\n        /* \"#utility.yul\":9948:9954   */\n      dup6\n        /* \"#utility.yul\":9904:9976   */\n      tag_91\n      jump\t// in\n    tag_254:\n        /* \"#utility.yul\":9986:10058   */\n      tag_255\n        /* \"#utility.yul\":10054:10056   */\n      0x60\n        /* \"#utility.yul\":10043:10052   */\n      dup4\n        /* \"#utility.yul\":10039:10057   */\n      add\n        /* \"#utility.yul\":10030:10036   */\n      dup5\n        /* \"#utility.yul\":9986:10058   */\n      tag_91\n      jump\t// in\n    tag_255:\n        /* \"#utility.yul\":9512:10065   */\n      swap6\n      swap5\n      pop\n      pop\n      pop\n      pop\n      pop\n      jump\t// out\n        /* \"#utility.yul\":10071:10243   */\n    tag_118:\n        /* \"#utility.yul\":10211:10235   */\n      0x50726f706572747920646f65736e277420657869737400000000000000000000\n        /* \"#utility.yul\":10207:10208   */\n      0x00\n        /* \"#utility.yul\":10199:10205   */\n      dup3\n        /* \"#utility.yul\":10195:10209   */\n      add\n        /* \"#utility.yul\":10188:10236   */\n      mstore\n        /* \"#utility.yul\":10071:10243   */\n      pop\n      jump\t// out\n        /* \"#utility.yul\":10249:10615   */\n    tag_119:\n        /* \"#utility.yul\":10391:10394   */\n      0x00\n        /* \"#utility.yul\":10412:10479   */\n      tag_258\n        /* \"#utility.yul\":10476:10478   */\n      0x16\n        /* \"#utility.yul\":10471:10474   */\n      dup4\n        /* \"#utility.yul\":10412:10479   */\n      tag_111\n      jump\t// in\n    tag_258:\n        /* \"#utility.yul\":10405:10479   */\n      swap2\n      pop\n        /* \"#utility.yul\":10488:10581   */\n      tag_259\n        /* \"#utility.yul\":10577:10580   */\n      dup3\n        /* \"#utility.yul\":10488:10581   */\n      tag_118\n      jump\t// in\n    tag_259:\n        /* \"#utility.yul\":10606:10608   */\n      0x20\n        /* \"#utility.yul\":10601:10604   */\n      dup3\n        /* \"#utility.yul\":10597:10609   */\n      add\n        /* \"#utility.yul\":10590:10609   */\n      swap1\n      pop\n        /* \"#utility.yul\":10249:10615   */\n      swap2\n      swap1\n      pop\n      jump\t// out\n        /* \"#utility.yul\":10621:11040   */\n    tag_52:\n        /* \"#utility.yul\":10787:10791   */\n      0x00\n        /* \"#utility.yul\":10825:10827   */\n      0x20\n        /* \"#utility.yul\":10814:10823   */\n      dup3\n        /* \"#utility.yul\":10810:10828   */\n      add\n        /* \"#utility.yul\":10802:10828   */\n      swap1\n      pop\n        /* \"#utility.yul\":10874:10883   */\n      dup2\n        /* \"#utility.yul\":10868:10872   */\n      dup2\n        /* \"#utility.yul\":10864:10884   */\n      sub\n        /* \"#utility.yul\":10860:10861   */\n      0x00\n        /* \"#utility.yul\":10849:10858   */\n      dup4\n        /* \"#utility.yul\":10845:10862   */\n      add\n        /* \"#utility.yul\":10838:10885   */\n      mstore\n        /* \"#utility.yul\":10902:11033   */\n      tag_261\n        /* \"#utility.yul\":11028:11032   */\n      dup2\n        /* \"#utility.yul\":10902:11033   */\n      tag_119\n      jump\t// in\n    tag_261:\n        /* \"#utility.yul\":10894:11033   */\n      swap1\n      pop\n        /* \"#utility.yul\":10621:11040   */\n      swap2\n      swap1\n      pop\n      jump\t// out\n        /* \"#utility.yul\":11046:11279   */\n    tag_120:\n        /* \"#utility.yul\":11186:11220   */\n      0x4f6e6c7920746865206f776e65722063616e20636f6d706c61696e2061626f75\n        /* \"#utility.yul\":11182:11183   */\n      0x00\n        /* \"#utility.yul\":11174:11180   */\n      dup3\n        /* \"#utility.yul\":11170:11184   */\n      add\n        /* \"#utility.yul\":11163:11221   */\n      mstore\n        /* \"#utility.yul\":11255:11271   */\n      0x74207468652070726f7065727479000000000000000000000000000000000000\n        /* \"#utility.yul\":11250:11252   */\n      0x20\n        /* \"#utility.yul\":11242:11248   */\n      dup3\n        /* \"#utility.yul\":11238:11253   */\n      add\n        /* \"#utility.yul\":11231:11272   */\n      mstore\n        /* \"#utility.yul\":11046:11279   */\n      pop\n      jump\t// out\n        /* \"#utility.yul\":11285:11651   */\n    tag_121:\n        /* \"#utility.yul\":11427:11430   */\n      0x00\n        /* \"#utility.yul\":11448:11515   */\n      tag_264\n        /* \"#utility.yul\":11512:11514   */\n      0x2e\n        /* \"#utility.yul\":11507:11510   */\n      dup4\n        /* \"#utility.yul\":11448:11515   */\n      tag_111\n      jump\t// in\n    tag_264:\n        /* \"#utility.yul\":11441:11515   */\n      swap2\n      pop\n        /* \"#utility.yul\":11524:11617   */\n      tag_265\n        /* \"#utility.yul\":11613:11616   */\n      dup3\n        /* \"#utility.yul\":11524:11617   */\n      tag_120\n      jump\t// in\n    tag_265:\n        /* \"#utility.yul\":11642:11644   */\n      0x40\n        /* \"#utility.yul\":11637:11640   */\n      dup3\n        /* \"#utility.yul\":11633:11645   */\n      add\n        /* \"#utility.yul\":11626:11645   */\n      swap1\n      pop\n        /* \"#utility.yul\":11285:11651   */\n      swap2\n      swap1\n      pop\n      jump\t// out\n        /* \"#utility.yul\":11657:12076   */\n    tag_55:\n        /* \"#utility.yul\":11823:11827   */\n      0x00\n        /* \"#utility.yul\":11861:11863   */\n      0x20\n        /* \"#utility.yul\":11850:11859   */\n      dup3\n        /* \"#utility.yul\":11846:11864   */\n      add\n        /* \"#utility.yul\":11838:11864   */\n      swap1\n      pop\n        /* \"#utility.yul\":11910:11919   */\n      dup2\n        /* \"#utility.yul\":11904:11908   */\n      dup2\n        /* \"#utility.yul\":11900:11920   */\n      sub\n        /* \"#utility.yul\":11896:11897   */\n      0x00\n        /* \"#utility.yul\":11885:11894   */\n      dup4\n        /* \"#utility.yul\":11881:11898   */\n      add\n        /* \"#utility.yul\":11874:11921   */\n      mstore\n        /* \"#utility.yul\":11938:12069   */\n      tag_267\n        /* \"#utility.yul\":12064:12068   */\n      dup2\n        /* \"#utility.yul\":11938:12069   */\n      tag_121\n      jump\t// in\n    tag_267:\n        /* \"#utility.yul\":11930:12069   */\n      swap1\n      pop\n        /* \"#utility.yul\":11657:12076   */\n      swap2\n      swap1\n      pop\n      jump\t// out\n        /* \"#utility.yul\":12082:12262   */\n    tag_122:\n        /* \"#utility.yul\":12130:12207   */\n      0x4e487b7100000000000000000000000000000000000000000000000000000000\n        /* \"#utility.yul\":12127:12128   */\n      0x00\n        /* \"#utility.yul\":12120:12208   */\n      mstore\n        /* \"#utility.yul\":12227:12231   */\n      0x22\n        /* \"#utility.yul\":12224:12225   */\n      0x04\n        /* \"#utility.yul\":12217:12232   */\n      mstore\n        /* \"#utility.yul\":12251:12255   */\n      0x24\n        /* \"#utility.yul\":12248:12249   */\n      0x00\n        /* \"#utility.yul\":12241:12256   */\n      revert\n        /* \"#utility.yul\":12268:12588   */\n    tag_66:\n        /* \"#utility.yul\":12312:12318   */\n      0x00\n        /* \"#utility.yul\":12349:12350   */\n      0x02\n        /* \"#utility.yul\":12343:12347   */\n      dup3\n        /* \"#utility.yul\":12339:12351   */\n      div\n        /* \"#utility.yul\":12329:12351   */\n      swap1\n      pop\n        /* \"#utility.yul\":12396:12397   */\n      0x01\n        /* \"#utility.yul\":12390:12394   */\n      dup3\n        /* \"#utility.yul\":12386:12398   */\n      and\n        /* \"#utility.yul\":12417:12435   */\n      dup1\n        /* \"#utility.yul\":12407:12488   */\n      tag_270\n      jumpi\n        /* \"#utility.yul\":12473:12477   */\n      0x7f\n        /* \"#utility.yul\":12465:12471   */\n      dup3\n        /* \"#utility.yul\":12461:12478   */\n      and\n        /* \"#utility.yul\":12451:12478   */\n      swap2\n      pop\n        /* \"#utility.yul\":12407:12488   */\n    tag_270:\n        /* \"#utility.yul\":12535:12537   */\n      0x20\n        /* \"#utility.yul\":12527:12533   */\n      dup3\n        /* \"#utility.yul\":12524:12538   */\n      lt\n        /* \"#utility.yul\":12504:12522   */\n      dup2\n        /* \"#utility.yul\":12501:12539   */\n      sub\n        /* \"#utility.yul\":12498:12582   */\n      tag_271\n      jumpi\n        /* \"#utility.yul\":12554:12572   */\n      tag_272\n      tag_122\n      jump\t// in\n    tag_272:\n        /* \"#utility.yul\":12498:12582   */\n    tag_271:\n        /* \"#utility.yul\":12319:12588   */\n      pop\n        /* \"#utility.yul\":12268:12588   */\n      swap2\n      swap1\n      pop\n      jump\t// out\n        /* \"#utility.yul\":12594:12735   */\n    tag_123:\n        /* \"#utility.yul\":12643:12647   */\n      0x00\n        /* \"#utility.yul\":12666:12669   */\n      dup2\n        /* \"#utility.yul\":12658:12669   */\n      swap1\n      pop\n        /* \"#utility.yul\":12689:12692   */\n      dup2\n        /* \"#utility.yul\":12686:12687   */\n      0x00\n        /* \"#utility.yul\":12679:12693   */\n      mstore\n        /* \"#utility.yul\":12723:12727   */\n      0x20\n        /* \"#utility.yul\":12720:12721   */\n      0x00\n        /* \"#utility.yul\":12710:12728   */\n      keccak256\n        /* \"#utility.yul\":12702:12728   */\n      swap1\n      pop\n        /* \"#utility.yul\":12594:12735   */\n      swap2\n      swap1\n      pop\n      jump\t// out\n        /* \"#utility.yul\":12741:12834   */\n    tag_124:\n        /* \"#utility.yul\":12778:12784   */\n      0x00\n        /* \"#utility.yul\":12825:12827   */\n      0x20\n        /* \"#utility.yul\":12820:12822   */\n      0x1f\n        /* \"#utility.yul\":12813:12818   */\n      dup4\n        /* \"#utility.yul\":12809:12823   */\n      add\n        /* \"#utility.yul\":12805:12828   */\n      div\n        /* \"#utility.yul\":12795:12828   */\n      swap1\n      pop\n        /* \"#utility.yul\":12741:12834   */\n      swap2\n      swap1\n      pop\n      jump\t// out\n        /* \"#utility.yul\":12840:12947   */\n    tag_125:\n        /* \"#utility.yul\":12884:12892   */\n      0x00\n        /* \"#utility.yul\":12934:12939   */\n      dup3\n        /* \"#utility.yul\":12928:12932   */\n      dup3\n        /* \"#utility.yul\":12924:12940   */\n      shl\n        /* \"#utility.yul\":12903:12940   */\n      swap1\n      pop\n        /* \"#utility.yul\":12840:12947   */\n      swap3\n      swap2\n      pop\n      pop\n      jump\t// out\n        /* \"#utility.yul\":12953:13346   */\n    tag_126:\n        /* \"#utility.yul\":13022:13028   */\n      0x00\n        /* \"#utility.yul\":13072:13073   */\n      0x08\n        /* \"#utility.yul\":13060:13070   */\n      dup4\n        /* \"#utility.yul\":13056:13074   */\n      mul\n        /* \"#utility.yul\":13095:13192   */\n      tag_277\n        /* \"#utility.yul\":13125:13191   */\n      0xffffffffffffffffffffffffffffffffffffffffffffffffffffffffffffffff\n        /* \"#utility.yul\":13114:13123   */\n      dup3\n        /* \"#utility.yul\":13095:13192   */\n      tag_125\n      jump\t// in\n    tag_277:\n        /* \"#utility.yul\":13213:13252   */\n      tag_278\n        /* \"#utility.yul\":13243:13251   */\n      dup7\n        /* \"#utility.yul\":13232:13241   */\n      dup4\n        /* \"#utility.yul\":13213:13252   */\n      tag_125\n      jump\t// in\n    tag_278:\n        /* \"#utility.yul\":13201:13252   */\n      swap6\n      pop\n        /* \"#utility.yul\":13285:13289   */\n      dup1\n        /* \"#utility.yul\":13281:13290   */\n      not\n        /* \"#utility.yul\":13274:13279   */\n      dup5\n        /* \"#utility.yul\":13270:13291   */\n      and\n        /* \"#utility.yul\":13261:13291   */\n      swap4\n      pop\n        /* \"#utility.yul\":13334:13338   */\n      dup1\n        /* \"#utility.yul\":13324:13332   */\n      dup7\n        /* \"#utility.yul\":13320:13339   */\n      and\n        /* \"#utility.yul\":13313:13318   */\n      dup5\n        /* \"#utility.yul\":13310:13340   */\n      or\n        /* \"#utility.yul\":13300:13340   */\n      swap3\n      pop\n        /* \"#utility.yul\":13029:13346   */\n      pop\n      pop\n        /* \"#utility.yul\":12953:13346   */\n      swap4\n      swap3\n      pop\n      pop\n      pop\n      jump\t// out\n        /* \"#utility.yul\":13352:13412   */\n    tag_127:\n        /* \"#utility.yul\":13380:13383   */\n      0x00\n        /* \"#utility.yul\":13401:13406   */\n      dup2\n        /* \"#utility.yul\":13394:13406   */\n      swap1\n      pop\n        /* \"#utility.yul\":13352:13412   */\n      swap2\n      swap1\n      pop\n      jump\t// out\n        /* \"#utility.yul\":13418:13560   */\n    tag_128:\n        /* \"#utility.yul\":13468:13477   */\n      0x00\n        /* \"#utility.yul\":13501:13554   */\n      tag_281\n        /* \"#utility.yul\":13519:13553   */\n      tag_282\n        /* \"#utility.yul\":13528:13552   */\n      tag_283\n        /* \"#utility.yul\":13546:13551   */\n      dup5\n        /* \"#utility.yul\":13528:13552   */\n      tag_90\n      jump\t// in\n    tag_283:\n        /* \"#utility.yul\":13519:13553   */\n      tag_127\n      jump\t// in\n    tag_282:\n        /* \"#utility.yul\":13501:13554   */\n      tag_90\n      jump\t// in\n    tag_281:\n        /* \"#utility.yul\":13488:13554   */\n      swap1\n      pop\n        /* \"#utility.yul\":13418:13560   */\n      swap2\n      swap1\n      pop\n      jump\t// out\n        /* \"#utility.yul\":13566:13641   */\n    tag_129:\n        /* \"#utility.yul\":13609:13612   */\n      0x00\n        /* \"#utility.yul\":13630:13635   */\n      dup2\n        /* \"#utility.yul\":13623:13635   */\n      swap1\n      pop\n        /* \"#utility.yul\":13566:13641   */\n      swap2\n      swap1\n      pop\n      jump\t// out\n        /* \"#utility.yul\":13647:13916   */\n    tag_130:\n        /* \"#utility.yul\":13757:13796   */\n      tag_286\n        /* \"#utility.yul\":13788:13795   */\n      dup4\n        /* \"#utility.yul\":13757:13796   */\n      tag_128\n      jump\t// in\n    tag_286:\n        /* \"#utility.yul\":13818:13909   */\n      tag_287\n        /* \"#utility.yul\":13867:13908   */\n      tag_288\n        /* \"#utility.yul\":13891:13907   */\n      dup3\n        /* \"#utility.yul\":13867:13908   */\n      tag_129\n      jump\t// in\n    tag_288:\n        /* \"#utility.yul\":13859:13865   */\n      dup5\n        /* \"#utility.yul\":13852:13856   */\n      dup5\n        /* \"#utility.yul\":13846:13857   */\n      sload\n        /* \"#utility.yul\":13818:13909   */\n      tag_126\n      jump\t// in\n    tag_287:\n        /* \"#utility.yul\":13812:13816   */\n      dup3\n        /* \"#utility.yul\":13805:13910   */\n      sstore\n        /* \"#utility.yul\":13723:13916   */\n      pop\n        /* \"#utility.yul\":13647:13916   */\n      pop\n      pop\n      pop\n      jump\t// out\n        /* \"#utility.yul\":13922:13995   */\n    tag_131:\n        /* \"#utility.yul\":13967:13970   */\n      0x00\n        /* \"#utility.yul\":13922:13995   */\n      swap1\n      jump\t// out\n        /* \"#utility.yul\":14001:14190   */\n    tag_132:\n        /* \"#utility.yul\":14078:14110   */\n      tag_291\n      tag_131\n      jump\t// in\n    tag_291:\n        /* \"#utility.yul\":14119:14184   */\n      tag_292\n        /* \"#utility.yul\":14177:14183   */\n      dup2\n        /* \"#utility.yul\":14169:14175   */\n      dup5\n        /* \"#utility.yul\":14163:14167   */\n      dup5\n        /* \"#utility.yul\":14119:14184   */\n      tag_130\n      jump\t// in\n    tag_292:\n        /* \"#utility.yul\":14054:14190   */\n      pop\n        /* \"#utility.yul\":14001:14190   */\n      pop\n      pop\n      jump\t// out\n        /* \"#utility.yul\":14196:14382   */\n    tag_133:\n        /* \"#utility.yul\":14256:14376   */\n    tag_294:\n        /* \"#utility.yul\":14273:14276   */\n      dup2\n        /* \"#utility.yul\":14266:14271   */\n      dup2\n        /* \"#utility.yul\":14263:14277   */\n      lt\n        /* \"#utility.yul\":14256:14376   */\n      iszero\n      tag_296\n      jumpi\n        /* \"#utility.yul\":14327:14366   */\n      tag_297\n        /* \"#utility.yul\":14364:14365   */\n      0x00\n        /* \"#utility.yul\":14357:14362   */\n      dup3\n        /* \"#utility.yul\":14327:14366   */\n      tag_132\n      jump\t// in\n    tag_297:\n        /* \"#utility.yul\":14300:14301   */\n      0x01\n        /* \"#utility.yul\":14293:14298   */\n      dup2\n        /* \"#utility.yul\":14289:14302   */\n      add\n        /* \"#utility.yul\":14280:14302   */\n      swap1\n      pop\n        /* \"#utility.yul\":14256:14376   */\n      jump(tag_294)\n    tag_296:\n        /* \"#utility.yul\":14196:14382   */\n      pop\n      pop\n      jump\t// out\n        /* \"#utility.yul\":14388:14931   */\n    tag_134:\n        /* \"#utility.yul\":14489:14491   */\n      0x1f\n        /* \"#utility.yul\":14484:14487   */\n      dup3\n        /* \"#utility.yul\":14481:14492   */\n      gt\n        /* \"#utility.yul\":14478:14924   */\n      iszero\n      tag_299\n      jumpi\n        /* \"#utility.yul\":14523:14561   */\n      tag_300\n        /* \"#utility.yul\":14555:14560   */\n      dup2\n        /* \"#utility.yul\":14523:14561   */\n      tag_123\n      jump\t// in\n    tag_300:\n        /* \"#utility.yul\":14607:14636   */\n      tag_301\n        /* \"#utility.yul\":14625:14635   */\n      dup5\n        /* \"#utility.yul\":14607:14636   */\n      tag_124\n      jump\t// in\n    tag_301:\n        /* \"#utility.yul\":14597:14605   */\n      dup2\n        /* \"#utility.yul\":14593:14637   */\n      add\n        /* \"#utility.yul\":14790:14792   */\n      0x20\n        /* \"#utility.yul\":14778:14788   */\n      dup6\n        /* \"#utility.yul\":14775:14793   */\n      lt\n        /* \"#utility.yul\":14772:14821   */\n      iszero\n      tag_302\n      jumpi\n        /* \"#utility.yul\":14811:14819   */\n      dup2\n        /* \"#utility.yul\":14796:14819   */\n      swap1\n      pop\n        /* \"#utility.yul\":14772:14821   */\n    tag_302:\n        /* \"#utility.yul\":14834:14914   */\n      tag_303\n        /* \"#utility.yul\":14890:14912   */\n      tag_304\n        /* \"#utility.yul\":14908:14911   */\n      dup6\n        /* \"#utility.yul\":14890:14912   */\n      tag_124\n      jump\t// in\n    tag_304:\n        /* \"#utility.yul\":14880:14888   */\n      dup4\n        /* \"#utility.yul\":14876:14913   */\n      add\n        /* \"#utility.yul\":14863:14874   */\n      dup3\n        /* \"#utility.yul\":14834:14914   */\n      tag_133\n      jump\t// in\n    tag_303:\n        /* \"#utility.yul\":14493:14924   */\n      pop\n      pop\n        /* \"#utility.yul\":14478:14924   */\n    tag_299:\n        /* \"#utility.yul\":14388:14931   */\n      pop\n      pop\n      pop\n      jump\t// out\n        /* \"#utility.yul\":14937:15054   */\n    tag_135:\n        /* \"#utility.yul\":14991:14999   */\n      0x00\n        /* \"#utility.yul\":15041:15046   */\n      dup3\n        /* \"#utility.yul\":15035:15039   */\n      dup3\n        /* \"#utility.yul\":15031:15047   */\n      shr\n        /* \"#utility.yul\":15010:15047   */\n      swap1\n      pop\n        /* \"#utility.yul\":14937:15054   */\n      swap3\n      swap2\n      pop\n      pop\n      jump\t// out\n        /* \"#utility.yul\":15060:15229   */\n    tag_136:\n        /* \"#utility.yul\":15104:15110   */\n      0x00\n        /* \"#utility.yul\":15137:15188   */\n      tag_307\n        /* \"#utility.yul\":15185:15186   */\n      0x00\n        /* \"#utility.yul\":15181:15187   */\n      not\n        /* \"#utility.yul\":15173:15178   */\n      dup5\n        /* \"#utility.yul\":15170:15171   */\n      0x08\n        /* \"#utility.yul\":15166:15179   */\n      mul\n        /* \"#utility.yul\":15137:15188   */\n      tag_135\n      jump\t// in\n    tag_307:\n        /* \"#utility.yul\":15133:15189   */\n      not\n        /* \"#utility.yul\":15218:15222   */\n      dup1\n        /* \"#utility.yul\":15212:15216   */\n      dup4\n        /* \"#utility.yul\":15208:15223   */\n      and\n        /* \"#utility.yul\":15198:15223   */\n      swap2\n      pop\n        /* \"#utility.yul\":15111:15229   */\n      pop\n        /* \"#utility.yul\":15060:15229   */\n      swap3\n      swap2\n      pop\n      pop\n      jump\t// out\n        /* \"#utility.yul\":15234:15529   */\n    tag_137:\n        /* \"#utility.yul\":15310:15314   */\n      0x00\n        /* \"#utility.yul\":15456:15485   */\n      tag_309\n        /* \"#utility.yul\":15481:15484   */\n      dup4\n        /* \"#utility.yul\":15475:15479   */\n      dup4\n        /* \"#utility.yul\":15456:15485   */\n      tag_136\n      jump\t// in\n    tag_309:\n        /* \"#utility.yul\":15448:15485   */\n      swap2\n      pop\n        /* \"#utility.yul\":15518:15521   */\n      dup3\n        /* \"#utility.yul\":15515:15516   */\n      0x02\n        /* \"#utility.yul\":15511:15522   */\n      mul\n        /* \"#utility.yul\":15505:15509   */\n      dup3\n        /* \"#utility.yul\":15502:15523   */\n      or\n        /* \"#utility.yul\":15494:15523   */\n      swap1\n      pop\n        /* \"#utility.yul\":15234:15529   */\n      swap3\n      swap2\n      pop\n      pop\n      jump\t// out\n        /* \"#utility.yul\":15534:16929   */\n    tag_58:\n        /* \"#utility.yul\":15651:15688   */\n      tag_311\n        /* \"#utility.yul\":15684:15687   */\n      dup3\n        /* \"#utility.yul\":15651:15688   */\n      tag_110\n      jump\t// in\n    tag_311:\n        /* \"#utility.yul\":15753:15771   */\n      0xffffffffffffffff\n        /* \"#utility.yul\":15745:15751   */\n      dup2\n        /* \"#utility.yul\":15742:15772   */\n      gt\n        /* \"#utility.yul\":15739:15795   */\n      iszero\n      tag_312\n      jumpi\n        /* \"#utility.yul\":15775:15793   */\n      tag_313\n      tag_100\n      jump\t// in\n    tag_313:\n        /* \"#utility.yul\":15739:15795   */\n    tag_312:\n        /* \"#utility.yul\":15819:15857   */\n      tag_314\n        /* \"#utility.yul\":15851:15855   */\n      dup3\n        /* \"#utility.yul\":15845:15856   */\n      sload\n        /* \"#utility.yul\":15819:15857   */\n      tag_66\n      jump\t// in\n    tag_314:\n        /* \"#utility.yul\":15904:15971   */\n      tag_315\n        /* \"#utility.yul\":15964:15970   */\n      dup3\n        /* \"#utility.yul\":15956:15962   */\n      dup3\n        /* \"#utility.yul\":15950:15954   */\n      dup6\n        /* \"#utility.yul\":15904:15971   */\n      tag_134\n      jump\t// in\n    tag_315:\n        /* \"#utility.yul\":15998:15999   */\n      0x00\n        /* \"#utility.yul\":16022:16026   */\n      0x20\n        /* \"#utility.yul\":16009:16026   */\n      swap1\n      pop\n        /* \"#utility.yul\":16054:16056   */\n      0x1f\n        /* \"#utility.yul\":16046:16052   */\n      dup4\n        /* \"#utility.yul\":16043:16057   */\n      gt\n        /* \"#utility.yul\":16071:16072   */\n      0x01\n        /* \"#utility.yul\":16066:16684   */\n      dup2\n      eq\n      tag_317\n      jumpi\n        /* \"#utility.yul\":16728:16729   */\n      0x00\n        /* \"#utility.yul\":16745:16751   */\n      dup5\n        /* \"#utility.yul\":16742:16819   */\n      iszero\n      tag_318\n      jumpi\n        /* \"#utility.yul\":16794:16803   */\n      dup3\n        /* \"#utility.yul\":16789:16792   */\n      dup8\n        /* \"#utility.yul\":16785:16804   */\n      add\n        /* \"#utility.yul\":16779:16805   */\n      mload\n        /* \"#utility.yul\":16770:16805   */\n      swap1\n      pop\n        /* \"#utility.yul\":16742:16819   */\n    tag_318:\n        /* \"#utility.yul\":16845:16912   */\n      tag_319\n        /* \"#utility.yul\":16905:16911   */\n      dup6\n        /* \"#utility.yul\":16898:16903   */\n      dup3\n        /* \"#utility.yul\":16845:16912   */\n      tag_137\n      jump\t// in\n    tag_319:\n        /* \"#utility.yul\":16839:16843   */\n      dup7\n        /* \"#utility.yul\":16832:16913   */\n      sstore\n        /* \"#utility.yul\":16701:16923   */\n      pop\n        /* \"#utility.yul\":16036:16923   */\n      jump(tag_316)\n        /* \"#utility.yul\":16066:16684   */\n    tag_317:\n        /* \"#utility.yul\":16118:16122   */\n      0x1f\n        /* \"#utility.yul\":16114:16123   */\n      not\n        /* \"#utility.yul\":16106:16112   */\n      dup5\n        /* \"#utility.yul\":16102:16124   */\n      and\n        /* \"#utility.yul\":16152:16189   */\n      tag_320\n        /* \"#utility.yul\":16184:16188   */\n      dup7\n        /* \"#utility.yul\":16152:16189   */\n      tag_123\n      jump\t// in\n    tag_320:\n        /* \"#utility.yul\":16211:16212   */\n      0x00\n        /* \"#utility.yul\":16225:16433   */\n    tag_321:\n        /* \"#utility.yul\":16239:16246   */\n      dup3\n        /* \"#utility.yul\":16236:16237   */\n      dup2\n        /* \"#utility.yul\":16233:16247   */\n      lt\n        /* \"#utility.yul\":16225:16433   */\n      iszero\n      tag_323\n      jumpi\n        /* \"#utility.yul\":16318:16327   */\n      dup5\n        /* \"#utility.yul\":16313:16316   */\n      dup10\n        /* \"#utility.yul\":16309:16328   */\n      add\n        /* \"#utility.yul\":16303:16329   */\n      mload\n        /* \"#utility.yul\":16295:16301   */\n      dup3\n        /* \"#utility.yul\":16288:16330   */\n      sstore\n        /* \"#utility.yul\":16369:16370   */\n      0x01\n        /* \"#utility.yul\":16361:16367   */\n      dup3\n        /* \"#utility.yul\":16357:16371   */\n      add\n        /* \"#utility.yul\":16347:16371   */\n      swap2\n      pop\n        /* \"#utility.yul\":16416:16418   */\n      0x20\n        /* \"#utility.yul\":16405:16414   */\n      dup6\n        /* \"#utility.yul\":16401:16419   */\n      add\n        /* \"#utility.yul\":16388:16419   */\n      swap5\n      pop\n        /* \"#utility.yul\":16262:16266   */\n      0x20\n        /* \"#utility.yul\":16259:16260   */\n      dup2\n        /* \"#utility.yul\":16255:16267   */\n      add\n        /* \"#utility.yul\":16250:16267   */\n      swap1\n      pop\n        /* \"#utility.yul\":16225:16433   */\n      jump(tag_321)\n    tag_323:\n        /* \"#utility.yul\":16461:16467   */\n      dup7\n        /* \"#utility.yul\":16452:16459   */\n      dup4\n        /* \"#utility.yul\":16449:16468   */\n      lt\n        /* \"#utility.yul\":16446:16625   */\n      iszero\n      tag_324\n      jumpi\n        /* \"#utility.yul\":16519:16528   */\n      dup5\n        /* \"#utility.yul\":16514:16517   */\n      dup10\n        /* \"#utility.yul\":16510:16529   */\n      add\n        /* \"#utility.yul\":16504:16530   */\n      mload\n        /* \"#utility.yul\":16562:16610   */\n      tag_325\n        /* \"#utility.yul\":16604:16608   */\n      0x1f\n        /* \"#utility.yul\":16596:16602   */\n      dup10\n        /* \"#utility.yul\":16592:16609   */\n      and\n        /* \"#utility.yul\":16581:16590   */\n      dup3\n        /* \"#utility.yul\":16562:16610   */\n      tag_136\n      jump\t// in\n    tag_325:\n        /* \"#utility.yul\":16554:16560   */\n      dup4\n        /* \"#utility.yul\":16547:16611   */\n      sstore\n        /* \"#utility.yul\":16469:16625   */\n      pop\n        /* \"#utility.yul\":16446:16625   */\n    tag_324:\n        /* \"#utility.yul\":16671:16672   */\n      0x01\n        /* \"#utility.yul\":16667:16668   */\n      0x02\n        /* \"#utility.yul\":16659:16665   */\n      dup9\n        /* \"#utility.yul\":16655:16669   */\n      mul\n        /* \"#utility.yul\":16651:16673   */\n      add\n        /* \"#utility.yul\":16645:16649   */\n      dup9\n        /* \"#utility.yul\":16638:16674   */\n      sstore\n        /* \"#utility.yul\":16073:16684   */\n      pop\n      pop\n      pop\n        /* \"#utility.yul\":16036:16923   */\n    tag_316:\n      pop\n        /* \"#utility.yul\":15626:16929   */\n      pop\n      pop\n      pop\n        /* \"#utility.yul\":15534:16929   */\n      pop\n      pop\n      jump\t// out\n        /* \"#utility.yul\":16935:17115   */\n    tag_138:\n        /* \"#utility.yul\":16983:17060   */\n      0x4e487b7100000000000000000000000000000000000000000000000000000000\n        /* \"#utility.yul\":16980:16981   */\n      0x00\n        /* \"#utility.yul\":16973:17061   */\n      mstore\n        /* \"#utility.yul\":17080:17084   */\n      0x11\n        /* \"#utility.yul\":17077:17078   */\n      0x04\n        /* \"#utility.yul\":17070:17085   */\n      mstore\n        /* \"#utility.yul\":17104:17108   */\n      0x24\n        /* \"#utility.yul\":17101:17102   */\n      0x00\n        /* \"#utility.yul\":17094:17109   */\n      revert\n        /* \"#utility.yul\":17121:17354   */\n    tag_60:\n        /* \"#utility.yul\":17160:17163   */\n      0x00\n        /* \"#utility.yul\":17183:17207   */\n      tag_328\n        /* \"#utility.yul\":17201:17206   */\n      dup3\n        /* \"#utility.yul\":17183:17207   */\n      tag_90\n      jump\t// in\n    tag_328:\n        /* \"#utility.yul\":17174:17207   */\n      swap2\n      pop\n        /* \"#utility.yul\":17229:17295   */\n      0xffffffffffffffffffffffffffffffffffffffffffffffffffffffffffffffff\n        /* \"#utility.yul\":17222:17227   */\n      dup3\n        /* \"#utility.yul\":17219:17296   */\n      sub\n        /* \"#utility.yul\":17216:17319   */\n      tag_329\n      jumpi\n        /* \"#utility.yul\":17299:17317   */\n      tag_330\n      tag_138\n      jump\t// in\n    tag_330:\n        /* \"#utility.yul\":17216:17319   */\n    tag_329:\n        /* \"#utility.yul\":17346:17347   */\n      0x01\n        /* \"#utility.yul\":17339:17344   */\n      dup3\n        /* \"#utility.yul\":17335:17348   */\n      add\n        /* \"#utility.yul\":17328:17348   */\n      swap1\n      pop\n        /* \"#utility.yul\":17121:17354   */\n      swap2\n      swap1\n      pop\n      jump\t// out\n        /* \"#utility.yul\":17360:17783   */\n    tag_62:\n        /* \"#utility.yul\":17501:17505   */\n      0x00\n        /* \"#utility.yul\":17539:17541   */\n      0x40\n        /* \"#utility.yul\":17528:17537   */\n      dup3\n        /* \"#utility.yul\":17524:17542   */\n      add\n        /* \"#utility.yul\":17516:17542   */\n      swap1\n      pop\n        /* \"#utility.yul\":17588:17597   */\n      dup2\n        /* \"#utility.yul\":17582:17586   */\n      dup2\n        /* \"#utility.yul\":17578:17598   */\n      sub\n        /* \"#utility.yul\":17574:17575   */\n      0x00\n        /* \"#utility.yul\":17563:17572   */\n      dup4\n        /* \"#utility.yul\":17559:17576   */\n      add\n        /* \"#utility.yul\":17552:17599   */\n      mstore\n        /* \"#utility.yul\":17616:17694   */\n      tag_332\n        /* \"#utility.yul\":17689:17693   */\n      dup2\n        /* \"#utility.yul\":17680:17686   */\n      dup6\n        /* \"#utility.yul\":17616:17694   */\n      tag_113\n      jump\t// in\n    tag_332:\n        /* \"#utility.yul\":17608:17694   */\n      swap1\n      pop\n        /* \"#utility.yul\":17704:17776   */\n      tag_333\n        /* \"#utility.yul\":17772:17774   */\n      0x20\n        /* \"#utility.yul\":17761:17770   */\n      dup4\n        /* \"#utility.yul\":17757:17775   */\n      add\n        /* \"#utility.yul\":17748:17754   */\n      dup5\n        /* \"#utility.yul\":17704:17776   */\n      tag_91\n      jump\t// in\n    tag_333:\n        /* \"#utility.yul\":17360:17783   */\n      swap4\n      swap3\n      pop\n      pop\n      pop\n      jump\t// out\n        /* \"#utility.yul\":17789:18015   */\n    tag_139:\n        /* \"#utility.yul\":17929:17963   */\n      0x537461727420646174652073686f756c64206265206c657373207468616e2065\n        /* \"#utility.yul\":17925:17926   */\n      0x00\n        /* \"#utility.yul\":17917:17923   */\n      dup3\n        /* \"#utility.yul\":17913:17927   */\n      add\n        /* \"#utility.yul\":17906:17964   */\n      mstore\n        /* \"#utility.yul\":17998:18007   */\n      0x6e64206461746500000000000000000000000000000000000000000000000000\n        /* \"#utility.yul\":17993:17995   */\n      0x20\n        /* \"#utility.yul\":17985:17991   */\n      dup3\n        /* \"#utility.yul\":17981:17996   */\n      add\n        /* \"#utility.yul\":17974:18008   */\n      mstore\n        /* \"#utility.yul\":17789:18015   */\n      pop\n      jump\t// out\n        /* \"#utility.yul\":18021:18387   */\n    tag_140:\n        /* \"#utility.yul\":18163:18166   */\n      0x00\n        /* \"#utility.yul\":18184:18251   */\n      tag_336\n        /* \"#utility.yul\":18248:18250   */\n      0x27\n        /* \"#utility.yul\":18243:18246   */\n      dup4\n        /* \"#utility.yul\":18184:18251   */\n      tag_111\n      jump\t// in\n    tag_336:\n        /* \"#utility.yul\":18177:18251   */\n      swap2\n      pop\n        /* \"#utility.yul\":18260:18353   */\n      tag_337\n        /* \"#utility.yul\":18349:18352   */\n      dup3\n        /* \"#utility.yul\":18260:18353   */\n      tag_139\n      jump\t// in\n    tag_337:\n        /* \"#utility.yul\":18378:18380   */\n      0x40\n        /* \"#utility.yul\":18373:18376   */\n      dup3\n        /* \"#utility.yul\":18369:18381   */\n      add\n        /* \"#utility.yul\":18362:18381   */\n      swap1\n      pop\n        /* \"#utility.yul\":18021:18387   */\n      swap2\n      swap1\n      pop\n      jump\t// out\n        /* \"#utility.yul\":18393:18812   */\n    tag_74:\n        /* \"#utility.yul\":18559:18563   */\n      0x00\n        /* \"#utility.yul\":18597:18599   */\n      0x20\n        /* \"#utility.yul\":18586:18595   */\n      dup3\n        /* \"#utility.yul\":18582:18600   */\n      add\n        /* \"#utility.yul\":18574:18600   */\n      swap1\n      pop\n        /* \"#utility.yul\":18646:18655   */\n      dup2\n        /* \"#utility.yul\":18640:18644   */\n      dup2\n        /* \"#utility.yul\":18636:18656   */\n      sub\n        /* \"#utility.yul\":18632:18633   */\n      0x00\n        /* \"#utility.yul\":18621:18630   */\n      dup4\n        /* \"#utility.yul\":18617:18634   */\n      add\n        /* \"#utility.yul\":18610:18657   */\n      mstore\n        /* \"#utility.yul\":18674:18805   */\n      tag_339\n        /* \"#utility.yul\":18800:18804   */\n      dup2\n        /* \"#utility.yul\":18674:18805   */\n      tag_140\n      jump\t// in\n    tag_339:\n        /* \"#utility.yul\":18666:18805   */\n      swap1\n      pop\n        /* \"#utility.yul\":18393:18812   */\n      swap2\n      swap1\n      pop\n      jump\t// out\n        /* \"#utility.yul\":18818:18994   */\n    tag_141:\n        /* \"#utility.yul\":18958:18986   */\n      0x50726f706572747920697320616c72656164792072656e746564000000000000\n        /* \"#utility.yul\":18954:18955   */\n      0x00\n        /* \"#utility.yul\":18946:18952   */\n      dup3\n        /* \"#utility.yul\":18942:18956   */\n      add\n        /* \"#utility.yul\":18935:18987   */\n      mstore\n        /* \"#utility.yul\":18818:18994   */\n      pop\n      jump\t// out\n        /* \"#utility.yul\":19000:19366   */\n    tag_142:\n        /* \"#utility.yul\":19142:19145   */\n      0x00\n        /* \"#utility.yul\":19163:19230   */\n      tag_342\n        /* \"#utility.yul\":19227:19229   */\n      0x1a\n        /* \"#utility.yul\":19222:19225   */\n      dup4\n        /* \"#utility.yul\":19163:19230   */\n      tag_111\n      jump\t// in\n    tag_342:\n        /* \"#utility.yul\":19156:19230   */\n      swap2\n      pop\n        /* \"#utility.yul\":19239:19332   */\n      tag_343\n        /* \"#utility.yul\":19328:19331   */\n      dup3\n        /* \"#utility.yul\":19239:19332   */\n      tag_141\n      jump\t// in\n    tag_343:\n        /* \"#utility.yul\":19357:19359   */\n      0x20\n        /* \"#utility.yul\":19352:19355   */\n      dup3\n        /* \"#utility.yul\":19348:19360   */\n      add\n        /* \"#utility.yul\":19341:19360   */\n      swap1\n      pop\n        /* \"#utility.yul\":19000:19366   */\n      swap2\n      swap1\n      pop\n      jump\t// out\n        /* \"#utility.yul\":19372:19791   */\n    tag_77:\n        /* \"#utility.yul\":19538:19542   */\n      0x00\n        /* \"#utility.yul\":19576:19578   */\n      0x20\n        /* \"#utility.yul\":19565:19574   */\n      dup3\n        /* \"#utility.yul\":19561:19579   */\n      add\n        /* \"#utility.yul\":19553:19579   */\n      swap1\n      pop\n        /* \"#utility.yul\":19625:19634   */\n      dup2\n        /* \"#utility.yul\":19619:19623   */\n      dup2\n        /* \"#utility.yul\":19615:19635   */\n      sub\n        /* \"#utility.yul\":19611:19612   */\n      0x00\n        /* \"#utility.yul\":19600:19609   */\n      dup4\n        /* \"#utility.yul\":19596:19613   */\n      add\n        /* \"#utility.yul\":19589:19636   */\n      mstore\n        /* \"#utility.yul\":19653:19784   */\n      tag_345\n        /* \"#utility.yul\":19779:19783   */\n      dup2\n        /* \"#utility.yul\":19653:19784   */\n      tag_142\n      jump\t// in\n    tag_345:\n        /* \"#utility.yul\":19645:19784   */\n      swap1\n      pop\n        /* \"#utility.yul\":19372:19791   */\n      swap2\n      swap1\n      pop\n      jump\t// out\n        /* \"#utility.yul\":19797:20350   */\n    tag_79:\n        /* \"#utility.yul\":19974:19978   */\n      0x00\n        /* \"#utility.yul\":20012:20015   */\n      0x80\n        /* \"#utility.yul\":20001:20010   */\n      dup3\n        /* \"#utility.yul\":19997:20016   */\n      add\n        /* \"#utility.yul\":19989:20016   */\n      swap1\n      pop\n        /* \"#utility.yul\":20026:20097   */\n      tag_347\n        /* \"#utility.yul\":20094:20095   */\n      0x00\n        /* \"#utility.yul\":20083:20092   */\n      dup4\n        /* \"#utility.yul\":20079:20096   */\n      add\n        /* \"#utility.yul\":20070:20076   */\n      dup8\n        /* \"#utility.yul\":20026:20097   */\n      tag_91\n      jump\t// in\n    tag_347:\n        /* \"#utility.yul\":20107:20179   */\n      tag_348\n        /* \"#utility.yul\":20175:20177   */\n      0x20\n        /* \"#utility.yul\":20164:20173   */\n      dup4\n        /* \"#utility.yul\":20160:20178   */\n      add\n        /* \"#utility.yul\":20151:20157   */\n      dup7\n        /* \"#utility.yul\":20107:20179   */\n      tag_109\n      jump\t// in\n    tag_348:\n        /* \"#utility.yul\":20189:20261   */\n      tag_349\n        /* \"#utility.yul\":20257:20259   */\n      0x40\n        /* \"#utility.yul\":20246:20255   */\n      dup4\n        /* \"#utility.yul\":20242:20260   */\n      add\n        /* \"#utility.yul\":20233:20239   */\n      dup6\n        /* \"#utility.yul\":20189:20261   */\n      tag_91\n      jump\t// in\n    tag_349:\n        /* \"#utility.yul\":20271:20343   */\n      tag_350\n        /* \"#utility.yul\":20339:20341   */\n      0x60\n        /* \"#utility.yul\":20328:20337   */\n      dup4\n        /* \"#utility.yul\":20324:20342   */\n      add\n        /* \"#utility.yul\":20315:20321   */\n      dup5\n        /* \"#utility.yul\":20271:20343   */\n      tag_91\n      jump\t// in\n    tag_350:\n        /* \"#utility.yul\":19797:20350   */\n      swap6\n      swap5\n      pop\n      pop\n      pop\n      pop\n      pop\n      jump\t// out\n        /* \"#utility.yul\":20356:20889   */\n    tag_84:\n        /* \"#utility.yul\":20525:20529   */\n      0x00\n        /* \"#utility.yul\":20563:20565   */\n      0x60\n        /* \"#utility.yul\":20552:20561   */\n      dup3\n        /* \"#utility.yul\":20548:20566   */\n      add\n        /* \"#utility.yul\":20540:20566   */\n      swap1\n      pop\n        /* \"#utility.yul\":20576:20647   */\n      tag_352\n        /* \"#utility.yul\":20644:20645   */\n      0x00\n        /* \"#utility.yul\":20633:20642   */\n      dup4\n        /* \"#utility.yul\":20629:20646   */\n      add\n        /* \"#utility.yul\":20620:20626   */\n      dup7\n        /* \"#utility.yul\":20576:20647   */\n      tag_91\n      jump\t// in\n    tag_352:\n        /* \"#utility.yul\":20694:20703   */\n      dup2\n        /* \"#utility.yul\":20688:20692   */\n      dup2\n        /* \"#utility.yul\":20684:20704   */\n      sub\n        /* \"#utility.yul\":20679:20681   */\n      0x20\n        /* \"#utility.yul\":20668:20677   */\n      dup4\n        /* \"#utility.yul\":20664:20682   */\n      add\n        /* \"#utility.yul\":20657:20705   */\n      mstore\n        /* \"#utility.yul\":20722:20800   */\n      tag_353\n        /* \"#utility.yul\":20795:20799   */\n      dup2\n        /* \"#utility.yul\":20786:20792   */\n      dup6\n        /* \"#utility.yul\":20722:20800   */\n      tag_113\n      jump\t// in\n    tag_353:\n        /* \"#utility.yul\":20714:20800   */\n      swap1\n      pop\n        /* \"#utility.yul\":20810:20882   */\n      tag_354\n        /* \"#utility.yul\":20878:20880   */\n      0x40\n        /* \"#utility.yul\":20867:20876   */\n      dup4\n        /* \"#utility.yul\":20863:20881   */\n      add\n        /* \"#utility.yul\":20854:20860   */\n      dup5\n        /* \"#utility.yul\":20810:20882   */\n      tag_91\n      jump\t// in\n    tag_354:\n        /* \"#utility.yul\":20356:20889   */\n      swap5\n      swap4\n      pop\n      pop\n      pop\n      pop\n      jump\t// out\n\n    auxdata: 0xa26469706673582212204c8568c575465acf80db5e28b7a0b80b633856d8a885e39f383f728c06d7fb7a64736f6c63430008160033\n}\n",
				"bytecode": {
					"linkReferences": {},
					"object": "608060405234801561000f575f80fd5b5061147b8061001d5f395ff3fe608060405234801561000f575f80fd5b5060043610610086575f3560e01c8063d2da7c7111610059578063d2da7c7114610115578063f54e1aef14610131578063f7b108081461014d578063fd9153a31461018157610086565b80632edea2941461008a57806345bcac1c146100a8578063b8653c68146100c4578063c361a335146100f7575b5f80fd5b6100926101b4565b60405161009f9190610965565b60405180910390f35b6100c260048036038101906100bd9190610af5565b6101ba565b005b6100de60048036038101906100d99190610b4f565b610407565b6040516100ee9493929190610c46565b60405180910390f35b6100ff6104f2565b60405161010c9190610965565b60405180910390f35b61012f600480360381019061012a9190610c90565b6104f8565b005b61014b60048036038101906101469190610ce0565b6106e5565b005b61016760048036038101906101629190610d3a565b610820565b604051610178959493929190610d7f565b60405180910390f35b61019b60048036038101906101969190610e01565b610902565b6040516101ab9493929190610e2c565b60405180910390f35b60045481565b5f805f8481526020019081526020015f205f01540361020e576040517f08c379a000000000000000000000000000000000000000000000000000000000815260040161020590610eb9565b60405180910390fd5b3373ffffffffffffffffffffffffffffffffffffffff165f808481526020019081526020015f206001015f9054906101000a900473ffffffffffffffffffffffffffffffffffffffff1673ffffffffffffffffffffffffffffffffffffffff16146102ae576040517f08c379a00000000000000000000000000000000000000000000000000000000081526004016102a590610f47565b60405180910390fd5b5f604051806080016040528060045481526020013373ffffffffffffffffffffffffffffffffffffffff16815260200183815260200142815250905060025f8481526020019081526020015f2081908060018154018082558091505060019003905f5260205f2090600402015f909190919091505f820151815f01556020820151816001015f6101000a81548173ffffffffffffffffffffffffffffffffffffffff021916908373ffffffffffffffffffffffffffffffffffffffff1602179055506040820151816002019081610385919061115f565b5060608201518160030155505060045f8154809291906103a49061125b565b91905055503373ffffffffffffffffffffffffffffffffffffffff16815f0151847ff9d2b2fd8670064e29c67ac1e8d950a4a4b3feddddabae71dd5312f3d796c7f78585606001516040516103fa9291906112a2565b60405180910390a4505050565b6002602052815f5260405f208181548110610420575f80fd5b905f5260205f2090600402015f9150915050805f015490806001015f9054906101000a900473ffffffffffffffffffffffffffffffffffffffff169080600201805461046b90610f92565b80601f016020809104026020016040519081016040528092919081815260200182805461049790610f92565b80156104e25780601f106104b9576101008083540402835291602001916104e2565b820191905f5260205f20905b8154815290600101906020018083116104c557829003601f168201915b5050505050908060030154905084565b60035481565b80821061053a576040517f08c379a000000000000000000000000000000000000000000000000000000000815260040161053190611340565b60405180910390fd5b5f15155f808581526020019081526020015f206004015f9054906101000a900460ff1615151461059f576040517f08c379a0000000000000000000000000000000000000000000000000000000008152600401610596906113a8565b60405180910390fd5b60015f808581526020019081526020015f206004015f6101000a81548160ff02191690831515021790555060405180608001604052803373ffffffffffffffffffffffffffffffffffffffff1681526020018481526020018381526020018281525060015f3373ffffffffffffffffffffffffffffffffffffffff1673ffffffffffffffffffffffffffffffffffffffff1681526020019081526020015f205f820151815f015f6101000a81548173ffffffffffffffffffffffffffffffffffffffff021916908373ffffffffffffffffffffffffffffffffffffffff1602179055506020820151816001015560408201518160020155606082015181600301559050507f83f582c38246e10118fca894a9512cb07f6c10aec67f1808c8ddd5db8810e5a9833384846040516106d894939291906113c6565b60405180910390a1505050565b60035f8154809291906106f79061125b565b91905055506040518060a0016040528060035481526020013373ffffffffffffffffffffffffffffffffffffffff1681526020018381526020018281526020015f15158152505f8060035481526020019081526020015f205f820151815f01556020820151816001015f6101000a81548173ffffffffffffffffffffffffffffffffffffffff021916908373ffffffffffffffffffffffffffffffffffffffff16021790555060408201518160020190816107b2919061115f565b50606082015181600301556080820151816004015f6101000a81548160ff0219169083151502179055509050507f72160d73f26fe78bd52c0db283fe1aa0f2cc55c1e7d60d35b5911c611e01d69c600354838360405161081493929190611409565b60405180910390a15050565b5f602052805f5260405f205f91509050805f015490806001015f9054906101000a900473ffffffffffffffffffffffffffffffffffffffff169080600201805461086990610f92565b80601f016020809104026020016040519081016040528092919081815260200182805461089590610f92565b80156108e05780601f106108b7576101008083540402835291602001916108e0565b820191905f5260205f20905b8154815290600101906020018083116108c357829003601f168201915b505050505090806003015490806004015f9054906101000a900460ff16905085565b6001602052805f5260405f205f91509050805f015f9054906101000a900473ffffffffffffffffffffffffffffffffffffffff16908060010154908060020154908060030154905084565b5f819050919050565b61095f8161094d565b82525050565b5f6020820190506109785f830184610956565b92915050565b5f604051905090565b5f80fd5b5f80fd5b6109988161094d565b81146109a2575f80fd5b50565b5f813590506109b38161098f565b92915050565b5f80fd5b5f80fd5b5f601f19601f8301169050919050565b7f4e487b71000000000000000000000000000000000000000000000000000000005f52604160045260245ffd5b610a07826109c1565b810181811067ffffffffffffffff82111715610a2657610a256109d1565b5b80604052505050565b5f610a3861097e565b9050610a4482826109fe565b919050565b5f67ffffffffffffffff821115610a6357610a626109d1565b5b610a6c826109c1565b9050602081019050919050565b828183375f83830152505050565b5f610a99610a9484610a49565b610a2f565b905082815260208101848484011115610ab557610ab46109bd565b5b610ac0848285610a79565b509392505050565b5f82601f830112610adc57610adb6109b9565b5b8135610aec848260208601610a87565b91505092915050565b5f8060408385031215610b0b57610b0a610987565b5b5f610b18858286016109a5565b925050602083013567ffffffffffffffff811115610b3957610b3861098b565b5b610b4585828601610ac8565b9150509250929050565b5f8060408385031215610b6557610b64610987565b5b5f610b72858286016109a5565b9250506020610b83858286016109a5565b9150509250929050565b5f73ffffffffffffffffffffffffffffffffffffffff82169050919050565b5f610bb682610b8d565b9050919050565b610bc681610bac565b82525050565b5f81519050919050565b5f82825260208201905092915050565b5f5b83811015610c03578082015181840152602081019050610be8565b5f8484015250505050565b5f610c1882610bcc565b610c228185610bd6565b9350610c32818560208601610be6565b610c3b816109c1565b840191505092915050565b5f608082019050610c595f830187610956565b610c666020830186610bbd565b8181036040830152610c788185610c0e565b9050610c876060830184610956565b95945050505050565b5f805f60608486031215610ca757610ca6610987565b5b5f610cb4868287016109a5565b9350506020610cc5868287016109a5565b9250506040610cd6868287016109a5565b9150509250925092565b5f8060408385031215610cf657610cf5610987565b5b5f83013567ffffffffffffffff811115610d1357610d1261098b565b5b610d1f85828601610ac8565b9250506020610d30858286016109a5565b9150509250929050565b5f60208284031215610d4f57610d4e610987565b5b5f610d5c848285016109a5565b91505092915050565b5f8115159050919050565b610d7981610d65565b82525050565b5f60a082019050610d925f830188610956565b610d9f6020830187610bbd565b8181036040830152610db18186610c0e565b9050610dc06060830185610956565b610dcd6080830184610d70565b9695505050505050565b610de081610bac565b8114610dea575f80fd5b50565b5f81359050610dfb81610dd7565b92915050565b5f60208284031215610e1657610e15610987565b5b5f610e2384828501610ded565b91505092915050565b5f608082019050610e3f5f830187610bbd565b610e4c6020830186610956565b610e596040830185610956565b610e666060830184610956565b95945050505050565b7f50726f706572747920646f65736e2774206578697374000000000000000000005f82015250565b5f610ea3601683610bd6565b9150610eae82610e6f565b602082019050919050565b5f6020820190508181035f830152610ed081610e97565b9050919050565b7f4f6e6c7920746865206f776e65722063616e20636f6d706c61696e2061626f755f8201527f74207468652070726f7065727479000000000000000000000000000000000000602082015250565b5f610f31602e83610bd6565b9150610f3c82610ed7565b604082019050919050565b5f6020820190508181035f830152610f5e81610f25565b9050919050565b7f4e487b71000000000000000000000000000000000000000000000000000000005f52602260045260245ffd5b5f6002820490506001821680610fa957607f821691505b602082108103610fbc57610fbb610f65565b5b50919050565b5f819050815f5260205f209050919050565b5f6020601f8301049050919050565b5f82821b905092915050565b5f6008830261101e7fffffffffffffffffffffffffffffffffffffffffffffffffffffffffffffffff82610fe3565b6110288683610fe3565b95508019841693508086168417925050509392505050565b5f819050919050565b5f61106361105e6110598461094d565b611040565b61094d565b9050919050565b5f819050919050565b61107c83611049565b6110906110888261106a565b848454610fef565b825550505050565b5f90565b6110a4611098565b6110af818484611073565b505050565b5b818110156110d2576110c75f8261109c565b6001810190506110b5565b5050565b601f821115611117576110e881610fc2565b6110f184610fd4565b81016020851015611100578190505b61111461110c85610fd4565b8301826110b4565b50505b505050565b5f82821c905092915050565b5f6111375f198460080261111c565b1980831691505092915050565b5f61114f8383611128565b9150826002028217905092915050565b61116882610bcc565b67ffffffffffffffff811115611181576111806109d1565b5b61118b8254610f92565b6111968282856110d6565b5f60209050601f8311600181146111c7575f84156111b5578287015190505b6111bf8582611144565b865550611226565b601f1984166111d586610fc2565b5f5b828110156111fc578489015182556001820191506020850194506020810190506111d7565b868310156112195784890151611215601f891682611128565b8355505b6001600288020188555050505b505050505050565b7f4e487b71000000000000000000000000000000000000000000000000000000005f52601160045260245ffd5b5f6112658261094d565b91507fffffffffffffffffffffffffffffffffffffffffffffffffffffffffffffffff82036112975761129661122e565b5b600182019050919050565b5f6040820190508181035f8301526112ba8185610c0e565b90506112c96020830184610956565b9392505050565b7f537461727420646174652073686f756c64206265206c657373207468616e20655f8201527f6e64206461746500000000000000000000000000000000000000000000000000602082015250565b5f61132a602783610bd6565b9150611335826112d0565b604082019050919050565b5f6020820190508181035f8301526113578161131e565b9050919050565b7f50726f706572747920697320616c72656164792072656e7465640000000000005f82015250565b5f611392601a83610bd6565b915061139d8261135e565b602082019050919050565b5f6020820190508181035f8301526113bf81611386565b9050919050565b5f6080820190506113d95f830187610956565b6113e66020830186610bbd565b6113f36040830185610956565b6114006060830184610956565b95945050505050565b5f60608201905061141c5f830186610956565b818103602083015261142e8185610c0e565b905061143d6040830184610956565b94935050505056fea26469706673582212204c8568c575465acf80db5e28b7a0b80b633856d8a885e39f383f728c06d7fb7a64736f6c63430008160033",
					"opcodes": "PUSH1 0x80 PUSH1 0x40 MSTORE CALLVALUE DUP1 ISZERO PUSH2 0xF JUMPI PUSH0 DUP1 REVERT JUMPDEST POP PUSH2 0x147B DUP1 PUSH2 0x1D PUSH0 CODECOPY PUSH0 RETURN INVALID PUSH1 0x80 PUSH1 0x40 MSTORE CALLVALUE DUP1 ISZERO PUSH2 0xF JUMPI PUSH0 DUP1 REVERT JUMPDEST POP PUSH1 0x4 CALLDATASIZE LT PUSH2 0x86 JUMPI PUSH0 CALLDATALOAD PUSH1 0xE0 SHR DUP1 PUSH4 0xD2DA7C71 GT PUSH2 0x59 JUMPI DUP1 PUSH4 0xD2DA7C71 EQ PUSH2 0x115 JUMPI DUP1 PUSH4 0xF54E1AEF EQ PUSH2 0x131 JUMPI DUP1 PUSH4 0xF7B10808 EQ PUSH2 0x14D JUMPI DUP1 PUSH4 0xFD9153A3 EQ PUSH2 0x181 JUMPI PUSH2 0x86 JUMP JUMPDEST DUP1 PUSH4 0x2EDEA294 EQ PUSH2 0x8A JUMPI DUP1 PUSH4 0x45BCAC1C EQ PUSH2 0xA8 JUMPI DUP1 PUSH4 0xB8653C68 EQ PUSH2 0xC4 JUMPI DUP1 PUSH4 0xC361A335 EQ PUSH2 0xF7 JUMPI JUMPDEST PUSH0 DUP1 REVERT JUMPDEST PUSH2 0x92 PUSH2 0x1B4 JUMP JUMPDEST PUSH1 0x40 MLOAD PUSH2 0x9F SWAP2 SWAP1 PUSH2 0x965 JUMP JUMPDEST PUSH1 0x40 MLOAD DUP1 SWAP2 SUB SWAP1 RETURN JUMPDEST PUSH2 0xC2 PUSH1 0x4 DUP1 CALLDATASIZE SUB DUP2 ADD SWAP1 PUSH2 0xBD SWAP2 SWAP1 PUSH2 0xAF5 JUMP JUMPDEST PUSH2 0x1BA JUMP JUMPDEST STOP JUMPDEST PUSH2 0xDE PUSH1 0x4 DUP1 CALLDATASIZE SUB DUP2 ADD SWAP1 PUSH2 0xD9 SWAP2 SWAP1 PUSH2 0xB4F JUMP JUMPDEST PUSH2 0x407 JUMP JUMPDEST PUSH1 0x40 MLOAD PUSH2 0xEE SWAP5 SWAP4 SWAP3 SWAP2 SWAP1 PUSH2 0xC46 JUMP JUMPDEST PUSH1 0x40 MLOAD DUP1 SWAP2 SUB SWAP1 RETURN JUMPDEST PUSH2 0xFF PUSH2 0x4F2 JUMP JUMPDEST PUSH1 0x40 MLOAD PUSH2 0x10C SWAP2 SWAP1 PUSH2 0x965 JUMP JUMPDEST PUSH1 0x40 MLOAD DUP1 SWAP2 SUB SWAP1 RETURN JUMPDEST PUSH2 0x12F PUSH1 0x4 DUP1 CALLDATASIZE SUB DUP2 ADD SWAP1 PUSH2 0x12A SWAP2 SWAP1 PUSH2 0xC90 JUMP JUMPDEST PUSH2 0x4F8 JUMP JUMPDEST STOP JUMPDEST PUSH2 0x14B PUSH1 0x4 DUP1 CALLDATASIZE SUB DUP2 ADD SWAP1 PUSH2 0x146 SWAP2 SWAP1 PUSH2 0xCE0 JUMP JUMPDEST PUSH2 0x6E5 JUMP JUMPDEST STOP JUMPDEST PUSH2 0x167 PUSH1 0x4 DUP1 CALLDATASIZE SUB DUP2 ADD SWAP1 PUSH2 0x162 SWAP2 SWAP1 PUSH2 0xD3A JUMP JUMPDEST PUSH2 0x820 JUMP JUMPDEST PUSH1 0x40 MLOAD PUSH2 0x178 SWAP6 SWAP5 SWAP4 SWAP3 SWAP2 SWAP1 PUSH2 0xD7F JUMP JUMPDEST PUSH1 0x40 MLOAD DUP1 SWAP2 SUB SWAP1 RETURN JUMPDEST PUSH2 0x19B PUSH1 0x4 DUP1 CALLDATASIZE SUB DUP2 ADD SWAP1 PUSH2 0x196 SWAP2 SWAP1 PUSH2 0xE01 JUMP JUMPDEST PUSH2 0x902 JUMP JUMPDEST PUSH1 0x40 MLOAD PUSH2 0x1AB SWAP5 SWAP4 SWAP3 SWAP2 SWAP1 PUSH2 0xE2C JUMP JUMPDEST PUSH1 0x40 MLOAD DUP1 SWAP2 SUB SWAP1 RETURN JUMPDEST PUSH1 0x4 SLOAD DUP2 JUMP JUMPDEST PUSH0 DUP1 PUSH0 DUP5 DUP2 MSTORE PUSH1 0x20 ADD SWAP1 DUP2 MSTORE PUSH1 0x20 ADD PUSH0 KECCAK256 PUSH0 ADD SLOAD SUB PUSH2 0x20E JUMPI PUSH1 0x40 MLOAD PUSH32 0x8C379A000000000000000000000000000000000000000000000000000000000 DUP2 MSTORE PUSH1 0x4 ADD PUSH2 0x205 SWAP1 PUSH2 0xEB9 JUMP JUMPDEST PUSH1 0x40 MLOAD DUP1 SWAP2 SUB SWAP1 REVERT JUMPDEST CALLER PUSH20 0xFFFFFFFFFFFFFFFFFFFFFFFFFFFFFFFFFFFFFFFF AND PUSH0 DUP1 DUP5 DUP2 MSTORE PUSH1 0x20 ADD SWAP1 DUP2 MSTORE PUSH1 0x20 ADD PUSH0 KECCAK256 PUSH1 0x1 ADD PUSH0 SWAP1 SLOAD SWAP1 PUSH2 0x100 EXP SWAP1 DIV PUSH20 0xFFFFFFFFFFFFFFFFFFFFFFFFFFFFFFFFFFFFFFFF AND PUSH20 0xFFFFFFFFFFFFFFFFFFFFFFFFFFFFFFFFFFFFFFFF AND EQ PUSH2 0x2AE JUMPI PUSH1 0x40 MLOAD PUSH32 0x8C379A000000000000000000000000000000000000000000000000000000000 DUP2 MSTORE PUSH1 0x4 ADD PUSH2 0x2A5 SWAP1 PUSH2 0xF47 JUMP JUMPDEST PUSH1 0x40 MLOAD DUP1 SWAP2 SUB SWAP1 REVERT JUMPDEST PUSH0 PUSH1 0x40 MLOAD DUP1 PUSH1 0x80 ADD PUSH1 0x40 MSTORE DUP1 PUSH1 0x4 SLOAD DUP2 MSTORE PUSH1 0x20 ADD CALLER PUSH20 0xFFFFFFFFFFFFFFFFFFFFFFFFFFFFFFFFFFFFFFFF AND DUP2 MSTORE PUSH1 0x20 ADD DUP4 DUP2 MSTORE PUSH1 0x20 ADD TIMESTAMP DUP2 MSTORE POP SWAP1 POP PUSH1 0x2 PUSH0 DUP5 DUP2 MSTORE PUSH1 0x20 ADD SWAP1 DUP2 MSTORE PUSH1 0x20 ADD PUSH0 KECCAK256 DUP2 SWAP1 DUP1 PUSH1 0x1 DUP2 SLOAD ADD DUP1 DUP3 SSTORE DUP1 SWAP2 POP POP PUSH1 0x1 SWAP1 SUB SWAP1 PUSH0 MSTORE PUSH1 0x20 PUSH0 KECCAK256 SWAP1 PUSH1 0x4 MUL ADD PUSH0 SWAP1 SWAP2 SWAP1 SWAP2 SWAP1 SWAP2 POP PUSH0 DUP3 ADD MLOAD DUP2 PUSH0 ADD SSTORE PUSH1 0x20 DUP3 ADD MLOAD DUP2 PUSH1 0x1 ADD PUSH0 PUSH2 0x100 EXP DUP2 SLOAD DUP2 PUSH20 0xFFFFFFFFFFFFFFFFFFFFFFFFFFFFFFFFFFFFFFFF MUL NOT AND SWAP1 DUP4 PUSH20 0xFFFFFFFFFFFFFFFFFFFFFFFFFFFFFFFFFFFFFFFF AND MUL OR SWAP1 SSTORE POP PUSH1 0x40 DUP3 ADD MLOAD DUP2 PUSH1 0x2 ADD SWAP1 DUP2 PUSH2 0x385 SWAP2 SWAP1 PUSH2 0x115F JUMP JUMPDEST POP PUSH1 0x60 DUP3 ADD MLOAD DUP2 PUSH1 0x3 ADD SSTORE POP POP PUSH1 0x4 PUSH0 DUP2 SLOAD DUP1 SWAP3 SWAP2 SWAP1 PUSH2 0x3A4 SWAP1 PUSH2 0x125B JUMP JUMPDEST SWAP2 SWAP1 POP SSTORE POP CALLER PUSH20 0xFFFFFFFFFFFFFFFFFFFFFFFFFFFFFFFFFFFFFFFF AND DUP2 PUSH0 ADD MLOAD DUP5 PUSH32 0xF9D2B2FD8670064E29C67AC1E8D950A4A4B3FEDDDDABAE71DD5312F3D796C7F7 DUP6 DUP6 PUSH1 0x60 ADD MLOAD PUSH1 0x40 MLOAD PUSH2 0x3FA SWAP3 SWAP2 SWAP1 PUSH2 0x12A2 JUMP JUMPDEST PUSH1 0x40 MLOAD DUP1 SWAP2 SUB SWAP1 LOG4 POP POP POP JUMP JUMPDEST PUSH1 0x2 PUSH1 0x20 MSTORE DUP2 PUSH0 MSTORE PUSH1 0x40 PUSH0 KECCAK256 DUP2 DUP2 SLOAD DUP2 LT PUSH2 0x420 JUMPI PUSH0 DUP1 REVERT JUMPDEST SWAP1 PUSH0 MSTORE PUSH1 0x20 PUSH0 KECCAK256 SWAP1 PUSH1 0x4 MUL ADD PUSH0 SWAP2 POP SWAP2 POP POP DUP1 PUSH0 ADD SLOAD SWAP1 DUP1 PUSH1 0x1 ADD PUSH0 SWAP1 SLOAD SWAP1 PUSH2 0x100 EXP SWAP1 DIV PUSH20 0xFFFFFFFFFFFFFFFFFFFFFFFFFFFFFFFFFFFFFFFF AND SWAP1 DUP1 PUSH1 0x2 ADD DUP1 SLOAD PUSH2 0x46B SWAP1 PUSH2 0xF92 JUMP JUMPDEST DUP1 PUSH1 0x1F ADD PUSH1 0x20 DUP1 SWAP2 DIV MUL PUSH1 0x20 ADD PUSH1 0x40 MLOAD SWAP1 DUP2 ADD PUSH1 0x40 MSTORE DUP1 SWAP3 SWAP2 SWAP1 DUP2 DUP2 MSTORE PUSH1 0x20 ADD DUP3 DUP1 SLOAD PUSH2 0x497 SWAP1 PUSH2 0xF92 JUMP JUMPDEST DUP1 ISZERO PUSH2 0x4E2 JUMPI DUP1 PUSH1 0x1F LT PUSH2 0x4B9 JUMPI PUSH2 0x100 DUP1 DUP4 SLOAD DIV MUL DUP4 MSTORE SWAP2 PUSH1 0x20 ADD SWAP2 PUSH2 0x4E2 JUMP JUMPDEST DUP3 ADD SWAP2 SWAP1 PUSH0 MSTORE PUSH1 0x20 PUSH0 KECCAK256 SWAP1 JUMPDEST DUP2 SLOAD DUP2 MSTORE SWAP1 PUSH1 0x1 ADD SWAP1 PUSH1 0x20 ADD DUP1 DUP4 GT PUSH2 0x4C5 JUMPI DUP3 SWAP1 SUB PUSH1 0x1F AND DUP3 ADD SWAP2 JUMPDEST POP POP POP POP POP SWAP1 DUP1 PUSH1 0x3 ADD SLOAD SWAP1 POP DUP5 JUMP JUMPDEST PUSH1 0x3 SLOAD DUP2 JUMP JUMPDEST DUP1 DUP3 LT PUSH2 0x53A JUMPI PUSH1 0x40 MLOAD PUSH32 0x8C379A000000000000000000000000000000000000000000000000000000000 DUP2 MSTORE PUSH1 0x4 ADD PUSH2 0x531 SWAP1 PUSH2 0x1340 JUMP JUMPDEST PUSH1 0x40 MLOAD DUP1 SWAP2 SUB SWAP1 REVERT JUMPDEST PUSH0 ISZERO ISZERO PUSH0 DUP1 DUP6 DUP2 MSTORE PUSH1 0x20 ADD SWAP1 DUP2 MSTORE PUSH1 0x20 ADD PUSH0 KECCAK256 PUSH1 0x4 ADD PUSH0 SWAP1 SLOAD SWAP1 PUSH2 0x100 EXP SWAP1 DIV PUSH1 0xFF AND ISZERO ISZERO EQ PUSH2 0x59F JUMPI PUSH1 0x40 MLOAD PUSH32 0x8C379A000000000000000000000000000000000000000000000000000000000 DUP2 MSTORE PUSH1 0x4 ADD PUSH2 0x596 SWAP1 PUSH2 0x13A8 JUMP JUMPDEST PUSH1 0x40 MLOAD DUP1 SWAP2 SUB SWAP1 REVERT JUMPDEST PUSH1 0x1 PUSH0 DUP1 DUP6 DUP2 MSTORE PUSH1 0x20 ADD SWAP1 DUP2 MSTORE PUSH1 0x20 ADD PUSH0 KECCAK256 PUSH1 0x4 ADD PUSH0 PUSH2 0x100 EXP DUP2 SLOAD DUP2 PUSH1 0xFF MUL NOT AND SWAP1 DUP4 ISZERO ISZERO MUL OR SWAP1 SSTORE POP PUSH1 0x40 MLOAD DUP1 PUSH1 0x80 ADD PUSH1 0x40 MSTORE DUP1 CALLER PUSH20 0xFFFFFFFFFFFFFFFFFFFFFFFFFFFFFFFFFFFFFFFF AND DUP2 MSTORE PUSH1 0x20 ADD DUP5 DUP2 MSTORE PUSH1 0x20 ADD DUP4 DUP2 MSTORE PUSH1 0x20 ADD DUP3 DUP2 MSTORE POP PUSH1 0x1 PUSH0 CALLER PUSH20 0xFFFFFFFFFFFFFFFFFFFFFFFFFFFFFFFFFFFFFFFF AND PUSH20 0xFFFFFFFFFFFFFFFFFFFFFFFFFFFFFFFFFFFFFFFF AND DUP2 MSTORE PUSH1 0x20 ADD SWAP1 DUP2 MSTORE PUSH1 0x20 ADD PUSH0 KECCAK256 PUSH0 DUP3 ADD MLOAD DUP2 PUSH0 ADD PUSH0 PUSH2 0x100 EXP DUP2 SLOAD DUP2 PUSH20 0xFFFFFFFFFFFFFFFFFFFFFFFFFFFFFFFFFFFFFFFF MUL NOT AND SWAP1 DUP4 PUSH20 0xFFFFFFFFFFFFFFFFFFFFFFFFFFFFFFFFFFFFFFFF AND MUL OR SWAP1 SSTORE POP PUSH1 0x20 DUP3 ADD MLOAD DUP2 PUSH1 0x1 ADD SSTORE PUSH1 0x40 DUP3 ADD MLOAD DUP2 PUSH1 0x2 ADD SSTORE PUSH1 0x60 DUP3 ADD MLOAD DUP2 PUSH1 0x3 ADD SSTORE SWAP1 POP POP PUSH32 0x83F582C38246E10118FCA894A9512CB07F6C10AEC67F1808C8DDD5DB8810E5A9 DUP4 CALLER DUP5 DUP5 PUSH1 0x40 MLOAD PUSH2 0x6D8 SWAP5 SWAP4 SWAP3 SWAP2 SWAP1 PUSH2 0x13C6 JUMP JUMPDEST PUSH1 0x40 MLOAD DUP1 SWAP2 SUB SWAP1 LOG1 POP POP POP JUMP JUMPDEST PUSH1 0x3 PUSH0 DUP2 SLOAD DUP1 SWAP3 SWAP2 SWAP1 PUSH2 0x6F7 SWAP1 PUSH2 0x125B JUMP JUMPDEST SWAP2 SWAP1 POP SSTORE POP PUSH1 0x40 MLOAD DUP1 PUSH1 0xA0 ADD PUSH1 0x40 MSTORE DUP1 PUSH1 0x3 SLOAD DUP2 MSTORE PUSH1 0x20 ADD CALLER PUSH20 0xFFFFFFFFFFFFFFFFFFFFFFFFFFFFFFFFFFFFFFFF AND DUP2 MSTORE PUSH1 0x20 ADD DUP4 DUP2 MSTORE PUSH1 0x20 ADD DUP3 DUP2 MSTORE PUSH1 0x20 ADD PUSH0 ISZERO ISZERO DUP2 MSTORE POP PUSH0 DUP1 PUSH1 0x3 SLOAD DUP2 MSTORE PUSH1 0x20 ADD SWAP1 DUP2 MSTORE PUSH1 0x20 ADD PUSH0 KECCAK256 PUSH0 DUP3 ADD MLOAD DUP2 PUSH0 ADD SSTORE PUSH1 0x20 DUP3 ADD MLOAD DUP2 PUSH1 0x1 ADD PUSH0 PUSH2 0x100 EXP DUP2 SLOAD DUP2 PUSH20 0xFFFFFFFFFFFFFFFFFFFFFFFFFFFFFFFFFFFFFFFF MUL NOT AND SWAP1 DUP4 PUSH20 0xFFFFFFFFFFFFFFFFFFFFFFFFFFFFFFFFFFFFFFFF AND MUL OR SWAP1 SSTORE POP PUSH1 0x40 DUP3 ADD MLOAD DUP2 PUSH1 0x2 ADD SWAP1 DUP2 PUSH2 0x7B2 SWAP2 SWAP1 PUSH2 0x115F JUMP JUMPDEST POP PUSH1 0x60 DUP3 ADD MLOAD DUP2 PUSH1 0x3 ADD SSTORE PUSH1 0x80 DUP3 ADD MLOAD DUP2 PUSH1 0x4 ADD PUSH0 PUSH2 0x100 EXP DUP2 SLOAD DUP2 PUSH1 0xFF MUL NOT AND SWAP1 DUP4 ISZERO ISZERO MUL OR SWAP1 SSTORE POP SWAP1 POP POP PUSH32 0x72160D73F26FE78BD52C0DB283FE1AA0F2CC55C1E7D60D35B5911C611E01D69C PUSH1 0x3 SLOAD DUP4 DUP4 PUSH1 0x40 MLOAD PUSH2 0x814 SWAP4 SWAP3 SWAP2 SWAP1 PUSH2 0x1409 JUMP JUMPDEST PUSH1 0x40 MLOAD DUP1 SWAP2 SUB SWAP1 LOG1 POP POP JUMP JUMPDEST PUSH0 PUSH1 0x20 MSTORE DUP1 PUSH0 MSTORE PUSH1 0x40 PUSH0 KECCAK256 PUSH0 SWAP2 POP SWAP1 POP DUP1 PUSH0 ADD SLOAD SWAP1 DUP1 PUSH1 0x1 ADD PUSH0 SWAP1 SLOAD SWAP1 PUSH2 0x100 EXP SWAP1 DIV PUSH20 0xFFFFFFFFFFFFFFFFFFFFFFFFFFFFFFFFFFFFFFFF AND SWAP1 DUP1 PUSH1 0x2 ADD DUP1 SLOAD PUSH2 0x869 SWAP1 PUSH2 0xF92 JUMP JUMPDEST DUP1 PUSH1 0x1F ADD PUSH1 0x20 DUP1 SWAP2 DIV MUL PUSH1 0x20 ADD PUSH1 0x40 MLOAD SWAP1 DUP2 ADD PUSH1 0x40 MSTORE DUP1 SWAP3 SWAP2 SWAP1 DUP2 DUP2 MSTORE PUSH1 0x20 ADD DUP3 DUP1 SLOAD PUSH2 0x895 SWAP1 PUSH2 0xF92 JUMP JUMPDEST DUP1 ISZERO PUSH2 0x8E0 JUMPI DUP1 PUSH1 0x1F LT PUSH2 0x8B7 JUMPI PUSH2 0x100 DUP1 DUP4 SLOAD DIV MUL DUP4 MSTORE SWAP2 PUSH1 0x20 ADD SWAP2 PUSH2 0x8E0 JUMP JUMPDEST DUP3 ADD SWAP2 SWAP1 PUSH0 MSTORE PUSH1 0x20 PUSH0 KECCAK256 SWAP1 JUMPDEST DUP2 SLOAD DUP2 MSTORE SWAP1 PUSH1 0x1 ADD SWAP1 PUSH1 0x20 ADD DUP1 DUP4 GT PUSH2 0x8C3 JUMPI DUP3 SWAP1 SUB PUSH1 0x1F AND DUP3 ADD SWAP2 JUMPDEST POP POP POP POP POP SWAP1 DUP1 PUSH1 0x3 ADD SLOAD SWAP1 DUP1 PUSH1 0x4 ADD PUSH0 SWAP1 SLOAD SWAP1 PUSH2 0x100 EXP SWAP1 DIV PUSH1 0xFF AND SWAP1 POP DUP6 JUMP JUMPDEST PUSH1 0x1 PUSH1 0x20 MSTORE DUP1 PUSH0 MSTORE PUSH1 0x40 PUSH0 KECCAK256 PUSH0 SWAP2 POP SWAP1 POP DUP1 PUSH0 ADD PUSH0 SWAP1 SLOAD SWAP1 PUSH2 0x100 EXP SWAP1 DIV PUSH20 0xFFFFFFFFFFFFFFFFFFFFFFFFFFFFFFFFFFFFFFFF AND SWAP1 DUP1 PUSH1 0x1 ADD SLOAD SWAP1 DUP1 PUSH1 0x2 ADD SLOAD SWAP1 DUP1 PUSH1 0x3 ADD SLOAD SWAP1 POP DUP5 JUMP JUMPDEST PUSH0 DUP2 SWAP1 POP SWAP2 SWAP1 POP JUMP JUMPDEST PUSH2 0x95F DUP2 PUSH2 0x94D JUMP JUMPDEST DUP3 MSTORE POP POP JUMP JUMPDEST PUSH0 PUSH1 0x20 DUP3 ADD SWAP1 POP PUSH2 0x978 PUSH0 DUP4 ADD DUP5 PUSH2 0x956 JUMP JUMPDEST SWAP3 SWAP2 POP POP JUMP JUMPDEST PUSH0 PUSH1 0x40 MLOAD SWAP1 POP SWAP1 JUMP JUMPDEST PUSH0 DUP1 REVERT JUMPDEST PUSH0 DUP1 REVERT JUMPDEST PUSH2 0x998 DUP2 PUSH2 0x94D JUMP JUMPDEST DUP2 EQ PUSH2 0x9A2 JUMPI PUSH0 DUP1 REVERT JUMPDEST POP JUMP JUMPDEST PUSH0 DUP2 CALLDATALOAD SWAP1 POP PUSH2 0x9B3 DUP2 PUSH2 0x98F JUMP JUMPDEST SWAP3 SWAP2 POP POP JUMP JUMPDEST PUSH0 DUP1 REVERT JUMPDEST PUSH0 DUP1 REVERT JUMPDEST PUSH0 PUSH1 0x1F NOT PUSH1 0x1F DUP4 ADD AND SWAP1 POP SWAP2 SWAP1 POP JUMP JUMPDEST PUSH32 0x4E487B7100000000000000000000000000000000000000000000000000000000 PUSH0 MSTORE PUSH1 0x41 PUSH1 0x4 MSTORE PUSH1 0x24 PUSH0 REVERT JUMPDEST PUSH2 0xA07 DUP3 PUSH2 0x9C1 JUMP JUMPDEST DUP2 ADD DUP2 DUP2 LT PUSH8 0xFFFFFFFFFFFFFFFF DUP3 GT OR ISZERO PUSH2 0xA26 JUMPI PUSH2 0xA25 PUSH2 0x9D1 JUMP JUMPDEST JUMPDEST DUP1 PUSH1 0x40 MSTORE POP POP POP JUMP JUMPDEST PUSH0 PUSH2 0xA38 PUSH2 0x97E JUMP JUMPDEST SWAP1 POP PUSH2 0xA44 DUP3 DUP3 PUSH2 0x9FE JUMP JUMPDEST SWAP2 SWAP1 POP JUMP JUMPDEST PUSH0 PUSH8 0xFFFFFFFFFFFFFFFF DUP3 GT ISZERO PUSH2 0xA63 JUMPI PUSH2 0xA62 PUSH2 0x9D1 JUMP JUMPDEST JUMPDEST PUSH2 0xA6C DUP3 PUSH2 0x9C1 JUMP JUMPDEST SWAP1 POP PUSH1 0x20 DUP2 ADD SWAP1 POP SWAP2 SWAP1 POP JUMP JUMPDEST DUP3 DUP2 DUP4 CALLDATACOPY PUSH0 DUP4 DUP4 ADD MSTORE POP POP POP JUMP JUMPDEST PUSH0 PUSH2 0xA99 PUSH2 0xA94 DUP5 PUSH2 0xA49 JUMP JUMPDEST PUSH2 0xA2F JUMP JUMPDEST SWAP1 POP DUP3 DUP2 MSTORE PUSH1 0x20 DUP2 ADD DUP5 DUP5 DUP5 ADD GT ISZERO PUSH2 0xAB5 JUMPI PUSH2 0xAB4 PUSH2 0x9BD JUMP JUMPDEST JUMPDEST PUSH2 0xAC0 DUP5 DUP3 DUP6 PUSH2 0xA79 JUMP JUMPDEST POP SWAP4 SWAP3 POP POP POP JUMP JUMPDEST PUSH0 DUP3 PUSH1 0x1F DUP4 ADD SLT PUSH2 0xADC JUMPI PUSH2 0xADB PUSH2 0x9B9 JUMP JUMPDEST JUMPDEST DUP2 CALLDATALOAD PUSH2 0xAEC DUP5 DUP3 PUSH1 0x20 DUP7 ADD PUSH2 0xA87 JUMP JUMPDEST SWAP2 POP POP SWAP3 SWAP2 POP POP JUMP JUMPDEST PUSH0 DUP1 PUSH1 0x40 DUP4 DUP6 SUB SLT ISZERO PUSH2 0xB0B JUMPI PUSH2 0xB0A PUSH2 0x987 JUMP JUMPDEST JUMPDEST PUSH0 PUSH2 0xB18 DUP6 DUP3 DUP7 ADD PUSH2 0x9A5 JUMP JUMPDEST SWAP3 POP POP PUSH1 0x20 DUP4 ADD CALLDATALOAD PUSH8 0xFFFFFFFFFFFFFFFF DUP2 GT ISZERO PUSH2 0xB39 JUMPI PUSH2 0xB38 PUSH2 0x98B JUMP JUMPDEST JUMPDEST PUSH2 0xB45 DUP6 DUP3 DUP7 ADD PUSH2 0xAC8 JUMP JUMPDEST SWAP2 POP POP SWAP3 POP SWAP3 SWAP1 POP JUMP JUMPDEST PUSH0 DUP1 PUSH1 0x40 DUP4 DUP6 SUB SLT ISZERO PUSH2 0xB65 JUMPI PUSH2 0xB64 PUSH2 0x987 JUMP JUMPDEST JUMPDEST PUSH0 PUSH2 0xB72 DUP6 DUP3 DUP7 ADD PUSH2 0x9A5 JUMP JUMPDEST SWAP3 POP POP PUSH1 0x20 PUSH2 0xB83 DUP6 DUP3 DUP7 ADD PUSH2 0x9A5 JUMP JUMPDEST SWAP2 POP POP SWAP3 POP SWAP3 SWAP1 POP JUMP JUMPDEST PUSH0 PUSH20 0xFFFFFFFFFFFFFFFFFFFFFFFFFFFFFFFFFFFFFFFF DUP3 AND SWAP1 POP SWAP2 SWAP1 POP JUMP JUMPDEST PUSH0 PUSH2 0xBB6 DUP3 PUSH2 0xB8D JUMP JUMPDEST SWAP1 POP SWAP2 SWAP1 POP JUMP JUMPDEST PUSH2 0xBC6 DUP2 PUSH2 0xBAC JUMP JUMPDEST DUP3 MSTORE POP POP JUMP JUMPDEST PUSH0 DUP2 MLOAD SWAP1 POP SWAP2 SWAP1 POP JUMP JUMPDEST PUSH0 DUP3 DUP3 MSTORE PUSH1 0x20 DUP3 ADD SWAP1 POP SWAP3 SWAP2 POP POP JUMP JUMPDEST PUSH0 JUMPDEST DUP4 DUP2 LT ISZERO PUSH2 0xC03 JUMPI DUP1 DUP3 ADD MLOAD DUP2 DUP5 ADD MSTORE PUSH1 0x20 DUP2 ADD SWAP1 POP PUSH2 0xBE8 JUMP JUMPDEST PUSH0 DUP5 DUP5 ADD MSTORE POP POP POP POP JUMP JUMPDEST PUSH0 PUSH2 0xC18 DUP3 PUSH2 0xBCC JUMP JUMPDEST PUSH2 0xC22 DUP2 DUP6 PUSH2 0xBD6 JUMP JUMPDEST SWAP4 POP PUSH2 0xC32 DUP2 DUP6 PUSH1 0x20 DUP7 ADD PUSH2 0xBE6 JUMP JUMPDEST PUSH2 0xC3B DUP2 PUSH2 0x9C1 JUMP JUMPDEST DUP5 ADD SWAP2 POP POP SWAP3 SWAP2 POP POP JUMP JUMPDEST PUSH0 PUSH1 0x80 DUP3 ADD SWAP1 POP PUSH2 0xC59 PUSH0 DUP4 ADD DUP8 PUSH2 0x956 JUMP JUMPDEST PUSH2 0xC66 PUSH1 0x20 DUP4 ADD DUP7 PUSH2 0xBBD JUMP JUMPDEST DUP2 DUP2 SUB PUSH1 0x40 DUP4 ADD MSTORE PUSH2 0xC78 DUP2 DUP6 PUSH2 0xC0E JUMP JUMPDEST SWAP1 POP PUSH2 0xC87 PUSH1 0x60 DUP4 ADD DUP5 PUSH2 0x956 JUMP JUMPDEST SWAP6 SWAP5 POP POP POP POP POP JUMP JUMPDEST PUSH0 DUP1 PUSH0 PUSH1 0x60 DUP5 DUP7 SUB SLT ISZERO PUSH2 0xCA7 JUMPI PUSH2 0xCA6 PUSH2 0x987 JUMP JUMPDEST JUMPDEST PUSH0 PUSH2 0xCB4 DUP7 DUP3 DUP8 ADD PUSH2 0x9A5 JUMP JUMPDEST SWAP4 POP POP PUSH1 0x20 PUSH2 0xCC5 DUP7 DUP3 DUP8 ADD PUSH2 0x9A5 JUMP JUMPDEST SWAP3 POP POP PUSH1 0x40 PUSH2 0xCD6 DUP7 DUP3 DUP8 ADD PUSH2 0x9A5 JUMP JUMPDEST SWAP2 POP POP SWAP3 POP SWAP3 POP SWAP3 JUMP JUMPDEST PUSH0 DUP1 PUSH1 0x40 DUP4 DUP6 SUB SLT ISZERO PUSH2 0xCF6 JUMPI PUSH2 0xCF5 PUSH2 0x987 JUMP JUMPDEST JUMPDEST PUSH0 DUP4 ADD CALLDATALOAD PUSH8 0xFFFFFFFFFFFFFFFF DUP2 GT ISZERO PUSH2 0xD13 JUMPI PUSH2 0xD12 PUSH2 0x98B JUMP JUMPDEST JUMPDEST PUSH2 0xD1F DUP6 DUP3 DUP7 ADD PUSH2 0xAC8 JUMP JUMPDEST SWAP3 POP POP PUSH1 0x20 PUSH2 0xD30 DUP6 DUP3 DUP7 ADD PUSH2 0x9A5 JUMP JUMPDEST SWAP2 POP POP SWAP3 POP SWAP3 SWAP1 POP JUMP JUMPDEST PUSH0 PUSH1 0x20 DUP3 DUP5 SUB SLT ISZERO PUSH2 0xD4F JUMPI PUSH2 0xD4E PUSH2 0x987 JUMP JUMPDEST JUMPDEST PUSH0 PUSH2 0xD5C DUP5 DUP3 DUP6 ADD PUSH2 0x9A5 JUMP JUMPDEST SWAP2 POP POP SWAP3 SWAP2 POP POP JUMP JUMPDEST PUSH0 DUP2 ISZERO ISZERO SWAP1 POP SWAP2 SWAP1 POP JUMP JUMPDEST PUSH2 0xD79 DUP2 PUSH2 0xD65 JUMP JUMPDEST DUP3 MSTORE POP POP JUMP JUMPDEST PUSH0 PUSH1 0xA0 DUP3 ADD SWAP1 POP PUSH2 0xD92 PUSH0 DUP4 ADD DUP9 PUSH2 0x956 JUMP JUMPDEST PUSH2 0xD9F PUSH1 0x20 DUP4 ADD DUP8 PUSH2 0xBBD JUMP JUMPDEST DUP2 DUP2 SUB PUSH1 0x40 DUP4 ADD MSTORE PUSH2 0xDB1 DUP2 DUP7 PUSH2 0xC0E JUMP JUMPDEST SWAP1 POP PUSH2 0xDC0 PUSH1 0x60 DUP4 ADD DUP6 PUSH2 0x956 JUMP JUMPDEST PUSH2 0xDCD PUSH1 0x80 DUP4 ADD DUP5 PUSH2 0xD70 JUMP JUMPDEST SWAP7 SWAP6 POP POP POP POP POP POP JUMP JUMPDEST PUSH2 0xDE0 DUP2 PUSH2 0xBAC JUMP JUMPDEST DUP2 EQ PUSH2 0xDEA JUMPI PUSH0 DUP1 REVERT JUMPDEST POP JUMP JUMPDEST PUSH0 DUP2 CALLDATALOAD SWAP1 POP PUSH2 0xDFB DUP2 PUSH2 0xDD7 JUMP JUMPDEST SWAP3 SWAP2 POP POP JUMP JUMPDEST PUSH0 PUSH1 0x20 DUP3 DUP5 SUB SLT ISZERO PUSH2 0xE16 JUMPI PUSH2 0xE15 PUSH2 0x987 JUMP JUMPDEST JUMPDEST PUSH0 PUSH2 0xE23 DUP5 DUP3 DUP6 ADD PUSH2 0xDED JUMP JUMPDEST SWAP2 POP POP SWAP3 SWAP2 POP POP JUMP JUMPDEST PUSH0 PUSH1 0x80 DUP3 ADD SWAP1 POP PUSH2 0xE3F PUSH0 DUP4 ADD DUP8 PUSH2 0xBBD JUMP JUMPDEST PUSH2 0xE4C PUSH1 0x20 DUP4 ADD DUP7 PUSH2 0x956 JUMP JUMPDEST PUSH2 0xE59 PUSH1 0x40 DUP4 ADD DUP6 PUSH2 0x956 JUMP JUMPDEST PUSH2 0xE66 PUSH1 0x60 DUP4 ADD DUP5 PUSH2 0x956 JUMP JUMPDEST SWAP6 SWAP5 POP POP POP POP POP JUMP JUMPDEST PUSH32 0x50726F706572747920646F65736E277420657869737400000000000000000000 PUSH0 DUP3 ADD MSTORE POP JUMP JUMPDEST PUSH0 PUSH2 0xEA3 PUSH1 0x16 DUP4 PUSH2 0xBD6 JUMP JUMPDEST SWAP2 POP PUSH2 0xEAE DUP3 PUSH2 0xE6F JUMP JUMPDEST PUSH1 0x20 DUP3 ADD SWAP1 POP SWAP2 SWAP1 POP JUMP JUMPDEST PUSH0 PUSH1 0x20 DUP3 ADD SWAP1 POP DUP2 DUP2 SUB PUSH0 DUP4 ADD MSTORE PUSH2 0xED0 DUP2 PUSH2 0xE97 JUMP JUMPDEST SWAP1 POP SWAP2 SWAP1 POP JUMP JUMPDEST PUSH32 0x4F6E6C7920746865206F776E65722063616E20636F6D706C61696E2061626F75 PUSH0 DUP3 ADD MSTORE PUSH32 0x74207468652070726F7065727479000000000000000000000000000000000000 PUSH1 0x20 DUP3 ADD MSTORE POP JUMP JUMPDEST PUSH0 PUSH2 0xF31 PUSH1 0x2E DUP4 PUSH2 0xBD6 JUMP JUMPDEST SWAP2 POP PUSH2 0xF3C DUP3 PUSH2 0xED7 JUMP JUMPDEST PUSH1 0x40 DUP3 ADD SWAP1 POP SWAP2 SWAP1 POP JUMP JUMPDEST PUSH0 PUSH1 0x20 DUP3 ADD SWAP1 POP DUP2 DUP2 SUB PUSH0 DUP4 ADD MSTORE PUSH2 0xF5E DUP2 PUSH2 0xF25 JUMP JUMPDEST SWAP1 POP SWAP2 SWAP1 POP JUMP JUMPDEST PUSH32 0x4E487B7100000000000000000000000000000000000000000000000000000000 PUSH0 MSTORE PUSH1 0x22 PUSH1 0x4 MSTORE PUSH1 0x24 PUSH0 REVERT JUMPDEST PUSH0 PUSH1 0x2 DUP3 DIV SWAP1 POP PUSH1 0x1 DUP3 AND DUP1 PUSH2 0xFA9 JUMPI PUSH1 0x7F DUP3 AND SWAP2 POP JUMPDEST PUSH1 0x20 DUP3 LT DUP2 SUB PUSH2 0xFBC JUMPI PUSH2 0xFBB PUSH2 0xF65 JUMP JUMPDEST JUMPDEST POP SWAP2 SWAP1 POP JUMP JUMPDEST PUSH0 DUP2 SWAP1 POP DUP2 PUSH0 MSTORE PUSH1 0x20 PUSH0 KECCAK256 SWAP1 POP SWAP2 SWAP1 POP JUMP JUMPDEST PUSH0 PUSH1 0x20 PUSH1 0x1F DUP4 ADD DIV SWAP1 POP SWAP2 SWAP1 POP JUMP JUMPDEST PUSH0 DUP3 DUP3 SHL SWAP1 POP SWAP3 SWAP2 POP POP JUMP JUMPDEST PUSH0 PUSH1 0x8 DUP4 MUL PUSH2 0x101E PUSH32 0xFFFFFFFFFFFFFFFFFFFFFFFFFFFFFFFFFFFFFFFFFFFFFFFFFFFFFFFFFFFFFFFF DUP3 PUSH2 0xFE3 JUMP JUMPDEST PUSH2 0x1028 DUP7 DUP4 PUSH2 0xFE3 JUMP JUMPDEST SWAP6 POP DUP1 NOT DUP5 AND SWAP4 POP DUP1 DUP7 AND DUP5 OR SWAP3 POP POP POP SWAP4 SWAP3 POP POP POP JUMP JUMPDEST PUSH0 DUP2 SWAP1 POP SWAP2 SWAP1 POP JUMP JUMPDEST PUSH0 PUSH2 0x1063 PUSH2 0x105E PUSH2 0x1059 DUP5 PUSH2 0x94D JUMP JUMPDEST PUSH2 0x1040 JUMP JUMPDEST PUSH2 0x94D JUMP JUMPDEST SWAP1 POP SWAP2 SWAP1 POP JUMP JUMPDEST PUSH0 DUP2 SWAP1 POP SWAP2 SWAP1 POP JUMP JUMPDEST PUSH2 0x107C DUP4 PUSH2 0x1049 JUMP JUMPDEST PUSH2 0x1090 PUSH2 0x1088 DUP3 PUSH2 0x106A JUMP JUMPDEST DUP5 DUP5 SLOAD PUSH2 0xFEF JUMP JUMPDEST DUP3 SSTORE POP POP POP POP JUMP JUMPDEST PUSH0 SWAP1 JUMP JUMPDEST PUSH2 0x10A4 PUSH2 0x1098 JUMP JUMPDEST PUSH2 0x10AF DUP2 DUP5 DUP5 PUSH2 0x1073 JUMP JUMPDEST POP POP POP JUMP JUMPDEST JUMPDEST DUP2 DUP2 LT ISZERO PUSH2 0x10D2 JUMPI PUSH2 0x10C7 PUSH0 DUP3 PUSH2 0x109C JUMP JUMPDEST PUSH1 0x1 DUP2 ADD SWAP1 POP PUSH2 0x10B5 JUMP JUMPDEST POP POP JUMP JUMPDEST PUSH1 0x1F DUP3 GT ISZERO PUSH2 0x1117 JUMPI PUSH2 0x10E8 DUP2 PUSH2 0xFC2 JUMP JUMPDEST PUSH2 0x10F1 DUP5 PUSH2 0xFD4 JUMP JUMPDEST DUP2 ADD PUSH1 0x20 DUP6 LT ISZERO PUSH2 0x1100 JUMPI DUP2 SWAP1 POP JUMPDEST PUSH2 0x1114 PUSH2 0x110C DUP6 PUSH2 0xFD4 JUMP JUMPDEST DUP4 ADD DUP3 PUSH2 0x10B4 JUMP JUMPDEST POP POP JUMPDEST POP POP POP JUMP JUMPDEST PUSH0 DUP3 DUP3 SHR SWAP1 POP SWAP3 SWAP2 POP POP JUMP JUMPDEST PUSH0 PUSH2 0x1137 PUSH0 NOT DUP5 PUSH1 0x8 MUL PUSH2 0x111C JUMP JUMPDEST NOT DUP1 DUP4 AND SWAP2 POP POP SWAP3 SWAP2 POP POP JUMP JUMPDEST PUSH0 PUSH2 0x114F DUP4 DUP4 PUSH2 0x1128 JUMP JUMPDEST SWAP2 POP DUP3 PUSH1 0x2 MUL DUP3 OR SWAP1 POP SWAP3 SWAP2 POP POP JUMP JUMPDEST PUSH2 0x1168 DUP3 PUSH2 0xBCC JUMP JUMPDEST PUSH8 0xFFFFFFFFFFFFFFFF DUP2 GT ISZERO PUSH2 0x1181 JUMPI PUSH2 0x1180 PUSH2 0x9D1 JUMP JUMPDEST JUMPDEST PUSH2 0x118B DUP3 SLOAD PUSH2 0xF92 JUMP JUMPDEST PUSH2 0x1196 DUP3 DUP3 DUP6 PUSH2 0x10D6 JUMP JUMPDEST PUSH0 PUSH1 0x20 SWAP1 POP PUSH1 0x1F DUP4 GT PUSH1 0x1 DUP2 EQ PUSH2 0x11C7 JUMPI PUSH0 DUP5 ISZERO PUSH2 0x11B5 JUMPI DUP3 DUP8 ADD MLOAD SWAP1 POP JUMPDEST PUSH2 0x11BF DUP6 DUP3 PUSH2 0x1144 JUMP JUMPDEST DUP7 SSTORE POP PUSH2 0x1226 JUMP JUMPDEST PUSH1 0x1F NOT DUP5 AND PUSH2 0x11D5 DUP7 PUSH2 0xFC2 JUMP JUMPDEST PUSH0 JUMPDEST DUP3 DUP2 LT ISZERO PUSH2 0x11FC JUMPI DUP5 DUP10 ADD MLOAD DUP3 SSTORE PUSH1 0x1 DUP3 ADD SWAP2 POP PUSH1 0x20 DUP6 ADD SWAP5 POP PUSH1 0x20 DUP2 ADD SWAP1 POP PUSH2 0x11D7 JUMP JUMPDEST DUP7 DUP4 LT ISZERO PUSH2 0x1219 JUMPI DUP5 DUP10 ADD MLOAD PUSH2 0x1215 PUSH1 0x1F DUP10 AND DUP3 PUSH2 0x1128 JUMP JUMPDEST DUP4 SSTORE POP JUMPDEST PUSH1 0x1 PUSH1 0x2 DUP9 MUL ADD DUP9 SSTORE POP POP POP JUMPDEST POP POP POP POP POP POP JUMP JUMPDEST PUSH32 0x4E487B7100000000000000000000000000000000000000000000000000000000 PUSH0 MSTORE PUSH1 0x11 PUSH1 0x4 MSTORE PUSH1 0x24 PUSH0 REVERT JUMPDEST PUSH0 PUSH2 0x1265 DUP3 PUSH2 0x94D JUMP JUMPDEST SWAP2 POP PUSH32 0xFFFFFFFFFFFFFFFFFFFFFFFFFFFFFFFFFFFFFFFFFFFFFFFFFFFFFFFFFFFFFFFF DUP3 SUB PUSH2 0x1297 JUMPI PUSH2 0x1296 PUSH2 0x122E JUMP JUMPDEST JUMPDEST PUSH1 0x1 DUP3 ADD SWAP1 POP SWAP2 SWAP1 POP JUMP JUMPDEST PUSH0 PUSH1 0x40 DUP3 ADD SWAP1 POP DUP2 DUP2 SUB PUSH0 DUP4 ADD MSTORE PUSH2 0x12BA DUP2 DUP6 PUSH2 0xC0E JUMP JUMPDEST SWAP1 POP PUSH2 0x12C9 PUSH1 0x20 DUP4 ADD DUP5 PUSH2 0x956 JUMP JUMPDEST SWAP4 SWAP3 POP POP POP JUMP JUMPDEST PUSH32 0x537461727420646174652073686F756C64206265206C657373207468616E2065 PUSH0 DUP3 ADD MSTORE PUSH32 0x6E64206461746500000000000000000000000000000000000000000000000000 PUSH1 0x20 DUP3 ADD MSTORE POP JUMP JUMPDEST PUSH0 PUSH2 0x132A PUSH1 0x27 DUP4 PUSH2 0xBD6 JUMP JUMPDEST SWAP2 POP PUSH2 0x1335 DUP3 PUSH2 0x12D0 JUMP JUMPDEST PUSH1 0x40 DUP3 ADD SWAP1 POP SWAP2 SWAP1 POP JUMP JUMPDEST PUSH0 PUSH1 0x20 DUP3 ADD SWAP1 POP DUP2 DUP2 SUB PUSH0 DUP4 ADD MSTORE PUSH2 0x1357 DUP2 PUSH2 0x131E JUMP JUMPDEST SWAP1 POP SWAP2 SWAP1 POP JUMP JUMPDEST PUSH32 0x50726F706572747920697320616C72656164792072656E746564000000000000 PUSH0 DUP3 ADD MSTORE POP JUMP JUMPDEST PUSH0 PUSH2 0x1392 PUSH1 0x1A DUP4 PUSH2 0xBD6 JUMP JUMPDEST SWAP2 POP PUSH2 0x139D DUP3 PUSH2 0x135E JUMP JUMPDEST PUSH1 0x20 DUP3 ADD SWAP1 POP SWAP2 SWAP1 POP JUMP JUMPDEST PUSH0 PUSH1 0x20 DUP3 ADD SWAP1 POP DUP2 DUP2 SUB PUSH0 DUP4 ADD MSTORE PUSH2 0x13BF DUP2 PUSH2 0x1386 JUMP JUMPDEST SWAP1 POP SWAP2 SWAP1 POP JUMP JUMPDEST PUSH0 PUSH1 0x80 DUP3 ADD SWAP1 POP PUSH2 0x13D9 PUSH0 DUP4 ADD DUP8 PUSH2 0x956 JUMP JUMPDEST PUSH2 0x13E6 PUSH1 0x20 DUP4 ADD DUP7 PUSH2 0xBBD JUMP JUMPDEST PUSH2 0x13F3 PUSH1 0x40 DUP4 ADD DUP6 PUSH2 0x956 JUMP JUMPDEST PUSH2 0x1400 PUSH1 0x60 DUP4 ADD DUP5 PUSH2 0x956 JUMP JUMPDEST SWAP6 SWAP5 POP POP POP POP POP JUMP JUMPDEST PUSH0 PUSH1 0x60 DUP3 ADD SWAP1 POP PUSH2 0x141C PUSH0 DUP4 ADD DUP7 PUSH2 0x956 JUMP JUMPDEST DUP2 DUP2 SUB PUSH1 0x20 DUP4 ADD MSTORE PUSH2 0x142E DUP2 DUP6 PUSH2 0xC0E JUMP JUMPDEST SWAP1 POP PUSH2 0x143D PUSH1 0x40 DUP4 ADD DUP5 PUSH2 0x956 JUMP JUMPDEST SWAP5 SWAP4 POP POP POP POP JUMP INVALID LOG2 PUSH5 0x6970667358 0x22 SLT KECCAK256 0x4C DUP6 PUSH9 0xC575465ACF80DB5E28 0xB7 LOG0 0xB8 SIGNEXTEND PUSH4 0x3856D8A8 DUP6 0xE3 SWAP16 CODESIZE EXTCODEHASH PUSH19 0x8C06D7FB7A64736F6C63430008160033000000 "
				},
				"gasEstimates": {
					"creation": {
						"codeDepositCost": "1048600",
						"executionCost": "1085",
						"totalCost": "1049685"
					},
					"external": {
						"addProperty(string,uint256)": "infinite",
						"complainProperty(uint256,string)": "infinite",
						"complaintCount()": "2426",
						"properties(uint256)": "infinite",
						"propertyCount()": "2492",
						"propertyIdToComplaints(uint256,uint256)": "infinite",
						"rentProperty(uint256,uint256,uint256)": "infinite",
						"tenants(address)": "infinite"
					}
				},
				"methodIdentifiers": {
					"addProperty(string,uint256)": "f54e1aef",
					"complainProperty(uint256,string)": "45bcac1c",
					"complaintCount()": "2edea294",
					"properties(uint256)": "f7b10808",
					"propertyCount()": "c361a335",
					"propertyIdToComplaints(uint256,uint256)": "b8653c68",
					"rentProperty(uint256,uint256,uint256)": "d2da7c71",
					"tenants(address)": "fd9153a3"
				}
			},
			"storageLayout": {
				"storage": [
					{
						"astId": 35,
						"contract": "contracts/PropertyRental.sol:PropertyRental",
						"label": "properties",
						"offset": 0,
						"slot": "0",
						"type": "t_mapping(t_uint256,t_struct(Property)12_storage)"
					},
					{
						"astId": 40,
						"contract": "contracts/PropertyRental.sol:PropertyRental",
						"label": "tenants",
						"offset": 0,
						"slot": "1",
						"type": "t_mapping(t_address,t_struct(Tenant)21_storage)"
					},
					{
						"astId": 46,
						"contract": "contracts/PropertyRental.sol:PropertyRental",
						"label": "propertyIdToComplaints",
						"offset": 0,
						"slot": "2",
						"type": "t_mapping(t_uint256,t_array(t_struct(Complain)30_storage)dyn_storage)"
					},
					{
						"astId": 48,
						"contract": "contracts/PropertyRental.sol:PropertyRental",
						"label": "propertyCount",
						"offset": 0,
						"slot": "3",
						"type": "t_uint256"
					},
					{
						"astId": 50,
						"contract": "contracts/PropertyRental.sol:PropertyRental",
						"label": "complaintCount",
						"offset": 0,
						"slot": "4",
						"type": "t_uint256"
					}
				],
				"types": {
					"t_address": {
						"encoding": "inplace",
						"label": "address",
						"numberOfBytes": "20"
					},
					"t_array(t_struct(Complain)30_storage)dyn_storage": {
						"base": "t_struct(Complain)30_storage",
						"encoding": "dynamic_array",
						"label": "struct PropertyRental.Complain[]",
						"numberOfBytes": "32"
					},
					"t_bool": {
						"encoding": "inplace",
						"label": "bool",
						"numberOfBytes": "1"
					},
					"t_mapping(t_address,t_struct(Tenant)21_storage)": {
						"encoding": "mapping",
						"key": "t_address",
						"label": "mapping(address => struct PropertyRental.Tenant)",
						"numberOfBytes": "32",
						"value": "t_struct(Tenant)21_storage"
					},
					"t_mapping(t_uint256,t_array(t_struct(Complain)30_storage)dyn_storage)": {
						"encoding": "mapping",
						"key": "t_uint256",
						"label": "mapping(uint256 => struct PropertyRental.Complain[])",
						"numberOfBytes": "32",
						"value": "t_array(t_struct(Complain)30_storage)dyn_storage"
					},
					"t_mapping(t_uint256,t_struct(Property)12_storage)": {
						"encoding": "mapping",
						"key": "t_uint256",
						"label": "mapping(uint256 => struct PropertyRental.Property)",
						"numberOfBytes": "32",
						"value": "t_struct(Property)12_storage"
					},
					"t_string_storage": {
						"encoding": "bytes",
						"label": "string",
						"numberOfBytes": "32"
					},
					"t_struct(Complain)30_storage": {
						"encoding": "inplace",
						"label": "struct PropertyRental.Complain",
						"members": [
							{
								"astId": 23,
								"contract": "contracts/PropertyRental.sol:PropertyRental",
								"label": "id",
								"offset": 0,
								"slot": "0",
								"type": "t_uint256"
							},
							{
								"astId": 25,
								"contract": "contracts/PropertyRental.sol:PropertyRental",
								"label": "owner",
								"offset": 0,
								"slot": "1",
								"type": "t_address"
							},
							{
								"astId": 27,
								"contract": "contracts/PropertyRental.sol:PropertyRental",
								"label": "details",
								"offset": 0,
								"slot": "2",
								"type": "t_string_storage"
							},
							{
								"astId": 29,
								"contract": "contracts/PropertyRental.sol:PropertyRental",
								"label": "date",
								"offset": 0,
								"slot": "3",
								"type": "t_uint256"
							}
						],
						"numberOfBytes": "128"
					},
					"t_struct(Property)12_storage": {
						"encoding": "inplace",
						"label": "struct PropertyRental.Property",
						"members": [
							{
								"astId": 3,
								"contract": "contracts/PropertyRental.sol:PropertyRental",
								"label": "id",
								"offset": 0,
								"slot": "0",
								"type": "t_uint256"
							},
							{
								"astId": 5,
								"contract": "contracts/PropertyRental.sol:PropertyRental",
								"label": "owner",
								"offset": 0,
								"slot": "1",
								"type": "t_address"
							},
							{
								"astId": 7,
								"contract": "contracts/PropertyRental.sol:PropertyRental",
								"label": "location",
								"offset": 0,
								"slot": "2",
								"type": "t_string_storage"
							},
							{
								"astId": 9,
								"contract": "contracts/PropertyRental.sol:PropertyRental",
								"label": "rentPrice",
								"offset": 0,
								"slot": "3",
								"type": "t_uint256"
							},
							{
								"astId": 11,
								"contract": "contracts/PropertyRental.sol:PropertyRental",
								"label": "isRented",
								"offset": 0,
								"slot": "4",
								"type": "t_bool"
							}
						],
						"numberOfBytes": "160"
					},
					"t_struct(Tenant)21_storage": {
						"encoding": "inplace",
						"label": "struct PropertyRental.Tenant",
						"members": [
							{
								"astId": 14,
								"contract": "contracts/PropertyRental.sol:PropertyRental",
								"label": "tenantAddress",
								"offset": 0,
								"slot": "0",
								"type": "t_address"
							},
							{
								"astId": 16,
								"contract": "contracts/PropertyRental.sol:PropertyRental",
								"label": "rentedPropertyId",
								"offset": 0,
								"slot": "1",
								"type": "t_uint256"
							},
							{
								"astId": 18,
								"contract": "contracts/PropertyRental.sol:PropertyRental",
								"label": "startDate",
								"offset": 0,
								"slot": "2",
								"type": "t_uint256"
							},
							{
								"astId": 20,
								"contract": "contracts/PropertyRental.sol:PropertyRental",
								"label": "endDate",
								"offset": 0,
								"slot": "3",
								"type": "t_uint256"
							}
						],
						"numberOfBytes": "128"
					},
					"t_uint256": {
						"encoding": "inplace",
						"label": "uint256",
						"numberOfBytes": "32"
					}
				}
			},
			"userdoc": {
				"kind": "user",
				"methods": {},
				"version": 1
			}
		}
	}
}